{
	"data": {
		"bytecode": {
			"linkReferences": {},
			"object": "610c2e61003a600b82828239805160001a60731461002d57634e487b7160e01b600052600060045260246000fd5b30600052607381538281f3fe73000000000000000000000000000000000000000030146080604052600436106100615760003560e01c8063028927d5146100665780638e86ed9914610099578063a6f571a5146100b9578063bc1c6bd6146100d9578063f9de4e57146100ec575b600080fd5b610079610074366004610843565b61010c565b604080518251815260209283015192810192909252015b60405180910390f35b6100ac6100a7366004610843565b61019f565b60405161009091906109b6565b6100cc6100c7366004610843565b61037e565b6040516100909190610b47565b6100796100e7366004610843565b61041e565b6100ff6100fa366004610843565b6104a9565b604051610090919061099c565b6040805180820182526000808252602080830182905283518085019094528184528301849052909190805b6101408361052c565b156101975761014e8361053b565b9092509050816001141561016c5761016583610583565b8452610192565b81600214156101885761017e83610583565b6020850152610192565b6101928382610603565b610137565b505050919050565b6101a7610766565b60408051808201909152600080825260208201849052805b6101c88361052c565b15610197576101d68361053b565b909250905081600114156101f7576101f06100e78461069b565b8452610379565b8160021415610213576102098361069b565b6020850152610379565b816003141561022f5761022583610583565b6040850152610379565b816004141561024e576102446100748461069b565b6060850152610379565b816005141561026d576102636100fa8461069b565b6080850152610379565b81600614156102895761027f8361069b565b60a0850152610379565b81600714156102a55761029b8361069b565b60c0850152610379565b81600814156102c1576102b78361069b565b60e0850152610379565b81600914156102de576102d38361069b565b610100850152610379565b81600a14156102fb576102f08361069b565b610120850152610379565b81600b14156103185761030d8361069b565b610140850152610379565b81600c14156103355761032a8361069b565b610160850152610379565b81600d1415610352576103478361069b565b610180850152610379565b81600e141561036f576103648361069b565b6101a0850152610379565b6103798382610603565b6101bf565b60408051808201909152600081526060602082015260006103b2836040805180820190915260008152602081019190915290565b90506000805b6103c18361052c565b15610197576103cf8361053b565b909250905081600114156103f3576103e683610583565b63ffffffff168452610419565b816002141561040f576104058361069b565b6020850152610419565b6104198382610603565b6103b8565b6040805180820182526000808252602080830182905283518085019094528184528301849052909190805b6104528361052c565b15610197576104608361053b565b9092509050816001141561047e5761047783610583565b84526104a4565b816002141561049a5761049083610583565b60208501526104a4565b6104a48382610603565b610449565b6104b1610809565b60408051808201909152600080825260208201849052805b6104d28361052c565b15610197576104e08361053b565b909250905081600114156104fe576104f78361069b565b8452610527565b816002141561051d576105136100c78461069b565b6020850152610527565b6105278382610603565b6104c9565b6020810151518151105b919050565b600080600061054984610583565b9050610556600882610b72565b925080600716600581111561057b57634e487b7160e01b600052602160045260246000fd5b915050915091565b602080820151825181019091015160009182805b600a8110156105fd5783811a91506105b0816007610b92565b82607f16901b8517945081608016600014156105ed576105d1816001610b5a565b865187906105e0908390610b5a565b9052506105369350505050565b6105f681610bb1565b9050610597565b50600080fd5b600081600581111561062557634e487b7160e01b600052602160045260246000fd5b141561063a5761063482610583565b50610697565b600281600581111561065c57634e487b7160e01b600052602160045260246000fd5b141561006157600061066d83610583565b905080836000018181516106819190610b5a565b9052506020830151518351111561063457600080fd5b5050565b606060006106a883610583565b905060008184600001516106bc9190610b5a565b90508360200151518111156106d057600080fd5b8167ffffffffffffffff8111156106f757634e487b7160e01b600052604160045260246000fd5b6040519080825280601f01601f191660200182016040528015610721576020820181803683370190505b50602080860151865192955091818601919083010160005b8581101561075b578181015183820152610754602082610b5a565b9050610739565b505050935250919050565b60408051610200810190915260006101c082018181526101e08301919091528190815260200160608152602001600081526020016107b7604051806040016040528060008152602001600081525090565b81526020016107c4610809565b81526020016060815260200160608152602001606081526020016060815260200160608152602001606081526020016060815260200160608152602001606081525090565b60405180604001604052806060815260200161083e6040518060400160405280600063ffffffff168152602001606081525090565b905290565b600060208284031215610854578081fd5b813567ffffffffffffffff8082111561086b578283fd5b818401915084601f83011261087e578283fd5b81358181111561089057610890610be2565b604051601f8201601f19908116603f011681019083821181831017156108b8576108b8610be2565b816040528281528760208487010111156108d0578586fd5b826020860160208301379182016020019490945295945050505050565b60008151808452815b81811015610912576020818501810151868301820152016108f6565b818111156109235782602083870101525b50601f01601f19169290920160200192915050565b600081516040845261094d60408501826108ed565b905060208301518482036020860152610966828261096f565b95945050505050565b600063ffffffff825116835260208201516040602085015261099460408501826108ed565b949350505050565b6000602082526109af6020830184610938565b9392505050565b6020808252825180518383015201516040820152600060208301516102008060608501526109e86102208501836108ed565b604086015160808601526060860151805160a0870152602081015160c0870152909250506080850151601f19808685030160e0870152610a288483610938565b935060a08701519150610100818786030181880152610a4785846108ed565b945060c08801519250610120828887030181890152610a6686856108ed565b955060e089015193506101408389880301818a0152610a8587866108ed565b9650828a0151945061016092508389880301838a0152610aa587866108ed565b9650818a0151945061018091508389880301828a0152610ac587866108ed565b9650808a01519450506101a08389880301818a0152610ae487866108ed565b9650828a0151945083898803016101c08a0152610b0187866108ed565b9650818a0151945083898803016101e08a0152610b1e87866108ed565b9650808a0151945050505080868503018387015250610b3d83826108ed565b9695505050505050565b6000602082526109af602083018461096f565b60008219821115610b6d57610b6d610bcc565b500190565b600082610b8d57634e487b7160e01b81526012600452602481fd5b500490565b6000816000190483118215151615610bac57610bac610bcc565b500290565b6000600019821415610bc557610bc5610bcc565b5060010190565b634e487b7160e01b600052601160045260246000fd5b634e487b7160e01b600052604160045260246000fdfea2646970667358221220fe9425eb36f85c393676fa8584c2777fd8552d6a679529ff71624633c438d2b764736f6c63430008020033",
			"opcodes": "PUSH2 0xC2E PUSH2 0x3A PUSH1 0xB DUP3 DUP3 DUP3 CODECOPY DUP1 MLOAD PUSH1 0x0 BYTE PUSH1 0x73 EQ PUSH2 0x2D JUMPI PUSH4 0x4E487B71 PUSH1 0xE0 SHL PUSH1 0x0 MSTORE PUSH1 0x0 PUSH1 0x4 MSTORE PUSH1 0x24 PUSH1 0x0 REVERT JUMPDEST ADDRESS PUSH1 0x0 MSTORE PUSH1 0x73 DUP2 MSTORE8 DUP3 DUP2 RETURN INVALID PUSH20 0x0 ADDRESS EQ PUSH1 0x80 PUSH1 0x40 MSTORE PUSH1 0x4 CALLDATASIZE LT PUSH2 0x61 JUMPI PUSH1 0x0 CALLDATALOAD PUSH1 0xE0 SHR DUP1 PUSH4 0x28927D5 EQ PUSH2 0x66 JUMPI DUP1 PUSH4 0x8E86ED99 EQ PUSH2 0x99 JUMPI DUP1 PUSH4 0xA6F571A5 EQ PUSH2 0xB9 JUMPI DUP1 PUSH4 0xBC1C6BD6 EQ PUSH2 0xD9 JUMPI DUP1 PUSH4 0xF9DE4E57 EQ PUSH2 0xEC JUMPI JUMPDEST PUSH1 0x0 DUP1 REVERT JUMPDEST PUSH2 0x79 PUSH2 0x74 CALLDATASIZE PUSH1 0x4 PUSH2 0x843 JUMP JUMPDEST PUSH2 0x10C JUMP JUMPDEST PUSH1 0x40 DUP1 MLOAD DUP3 MLOAD DUP2 MSTORE PUSH1 0x20 SWAP3 DUP4 ADD MLOAD SWAP3 DUP2 ADD SWAP3 SWAP1 SWAP3 MSTORE ADD JUMPDEST PUSH1 0x40 MLOAD DUP1 SWAP2 SUB SWAP1 RETURN JUMPDEST PUSH2 0xAC PUSH2 0xA7 CALLDATASIZE PUSH1 0x4 PUSH2 0x843 JUMP JUMPDEST PUSH2 0x19F JUMP JUMPDEST PUSH1 0x40 MLOAD PUSH2 0x90 SWAP2 SWAP1 PUSH2 0x9B6 JUMP JUMPDEST PUSH2 0xCC PUSH2 0xC7 CALLDATASIZE PUSH1 0x4 PUSH2 0x843 JUMP JUMPDEST PUSH2 0x37E JUMP JUMPDEST PUSH1 0x40 MLOAD PUSH2 0x90 SWAP2 SWAP1 PUSH2 0xB47 JUMP JUMPDEST PUSH2 0x79 PUSH2 0xE7 CALLDATASIZE PUSH1 0x4 PUSH2 0x843 JUMP JUMPDEST PUSH2 0x41E JUMP JUMPDEST PUSH2 0xFF PUSH2 0xFA CALLDATASIZE PUSH1 0x4 PUSH2 0x843 JUMP JUMPDEST PUSH2 0x4A9 JUMP JUMPDEST PUSH1 0x40 MLOAD PUSH2 0x90 SWAP2 SWAP1 PUSH2 0x99C JUMP JUMPDEST PUSH1 0x40 DUP1 MLOAD DUP1 DUP3 ADD DUP3 MSTORE PUSH1 0x0 DUP1 DUP3 MSTORE PUSH1 0x20 DUP1 DUP4 ADD DUP3 SWAP1 MSTORE DUP4 MLOAD DUP1 DUP6 ADD SWAP1 SWAP5 MSTORE DUP2 DUP5 MSTORE DUP4 ADD DUP5 SWAP1 MSTORE SWAP1 SWAP2 SWAP1 DUP1 JUMPDEST PUSH2 0x140 DUP4 PUSH2 0x52C JUMP JUMPDEST ISZERO PUSH2 0x197 JUMPI PUSH2 0x14E DUP4 PUSH2 0x53B JUMP JUMPDEST SWAP1 SWAP3 POP SWAP1 POP DUP2 PUSH1 0x1 EQ ISZERO PUSH2 0x16C JUMPI PUSH2 0x165 DUP4 PUSH2 0x583 JUMP JUMPDEST DUP5 MSTORE PUSH2 0x192 JUMP JUMPDEST DUP2 PUSH1 0x2 EQ ISZERO PUSH2 0x188 JUMPI PUSH2 0x17E DUP4 PUSH2 0x583 JUMP JUMPDEST PUSH1 0x20 DUP6 ADD MSTORE PUSH2 0x192 JUMP JUMPDEST PUSH2 0x192 DUP4 DUP3 PUSH2 0x603 JUMP JUMPDEST PUSH2 0x137 JUMP JUMPDEST POP POP POP SWAP2 SWAP1 POP JUMP JUMPDEST PUSH2 0x1A7 PUSH2 0x766 JUMP JUMPDEST PUSH1 0x40 DUP1 MLOAD DUP1 DUP3 ADD SWAP1 SWAP2 MSTORE PUSH1 0x0 DUP1 DUP3 MSTORE PUSH1 0x20 DUP3 ADD DUP5 SWAP1 MSTORE DUP1 JUMPDEST PUSH2 0x1C8 DUP4 PUSH2 0x52C JUMP JUMPDEST ISZERO PUSH2 0x197 JUMPI PUSH2 0x1D6 DUP4 PUSH2 0x53B JUMP JUMPDEST SWAP1 SWAP3 POP SWAP1 POP DUP2 PUSH1 0x1 EQ ISZERO PUSH2 0x1F7 JUMPI PUSH2 0x1F0 PUSH2 0xE7 DUP5 PUSH2 0x69B JUMP JUMPDEST DUP5 MSTORE PUSH2 0x379 JUMP JUMPDEST DUP2 PUSH1 0x2 EQ ISZERO PUSH2 0x213 JUMPI PUSH2 0x209 DUP4 PUSH2 0x69B JUMP JUMPDEST PUSH1 0x20 DUP6 ADD MSTORE PUSH2 0x379 JUMP JUMPDEST DUP2 PUSH1 0x3 EQ ISZERO PUSH2 0x22F JUMPI PUSH2 0x225 DUP4 PUSH2 0x583 JUMP JUMPDEST PUSH1 0x40 DUP6 ADD MSTORE PUSH2 0x379 JUMP JUMPDEST DUP2 PUSH1 0x4 EQ ISZERO PUSH2 0x24E JUMPI PUSH2 0x244 PUSH2 0x74 DUP5 PUSH2 0x69B JUMP JUMPDEST PUSH1 0x60 DUP6 ADD MSTORE PUSH2 0x379 JUMP JUMPDEST DUP2 PUSH1 0x5 EQ ISZERO PUSH2 0x26D JUMPI PUSH2 0x263 PUSH2 0xFA DUP5 PUSH2 0x69B JUMP JUMPDEST PUSH1 0x80 DUP6 ADD MSTORE PUSH2 0x379 JUMP JUMPDEST DUP2 PUSH1 0x6 EQ ISZERO PUSH2 0x289 JUMPI PUSH2 0x27F DUP4 PUSH2 0x69B JUMP JUMPDEST PUSH1 0xA0 DUP6 ADD MSTORE PUSH2 0x379 JUMP JUMPDEST DUP2 PUSH1 0x7 EQ ISZERO PUSH2 0x2A5 JUMPI PUSH2 0x29B DUP4 PUSH2 0x69B JUMP JUMPDEST PUSH1 0xC0 DUP6 ADD MSTORE PUSH2 0x379 JUMP JUMPDEST DUP2 PUSH1 0x8 EQ ISZERO PUSH2 0x2C1 JUMPI PUSH2 0x2B7 DUP4 PUSH2 0x69B JUMP JUMPDEST PUSH1 0xE0 DUP6 ADD MSTORE PUSH2 0x379 JUMP JUMPDEST DUP2 PUSH1 0x9 EQ ISZERO PUSH2 0x2DE JUMPI PUSH2 0x2D3 DUP4 PUSH2 0x69B JUMP JUMPDEST PUSH2 0x100 DUP6 ADD MSTORE PUSH2 0x379 JUMP JUMPDEST DUP2 PUSH1 0xA EQ ISZERO PUSH2 0x2FB JUMPI PUSH2 0x2F0 DUP4 PUSH2 0x69B JUMP JUMPDEST PUSH2 0x120 DUP6 ADD MSTORE PUSH2 0x379 JUMP JUMPDEST DUP2 PUSH1 0xB EQ ISZERO PUSH2 0x318 JUMPI PUSH2 0x30D DUP4 PUSH2 0x69B JUMP JUMPDEST PUSH2 0x140 DUP6 ADD MSTORE PUSH2 0x379 JUMP JUMPDEST DUP2 PUSH1 0xC EQ ISZERO PUSH2 0x335 JUMPI PUSH2 0x32A DUP4 PUSH2 0x69B JUMP JUMPDEST PUSH2 0x160 DUP6 ADD MSTORE PUSH2 0x379 JUMP JUMPDEST DUP2 PUSH1 0xD EQ ISZERO PUSH2 0x352 JUMPI PUSH2 0x347 DUP4 PUSH2 0x69B JUMP JUMPDEST PUSH2 0x180 DUP6 ADD MSTORE PUSH2 0x379 JUMP JUMPDEST DUP2 PUSH1 0xE EQ ISZERO PUSH2 0x36F JUMPI PUSH2 0x364 DUP4 PUSH2 0x69B JUMP JUMPDEST PUSH2 0x1A0 DUP6 ADD MSTORE PUSH2 0x379 JUMP JUMPDEST PUSH2 0x379 DUP4 DUP3 PUSH2 0x603 JUMP JUMPDEST PUSH2 0x1BF JUMP JUMPDEST PUSH1 0x40 DUP1 MLOAD DUP1 DUP3 ADD SWAP1 SWAP2 MSTORE PUSH1 0x0 DUP2 MSTORE PUSH1 0x60 PUSH1 0x20 DUP3 ADD MSTORE PUSH1 0x0 PUSH2 0x3B2 DUP4 PUSH1 0x40 DUP1 MLOAD DUP1 DUP3 ADD SWAP1 SWAP2 MSTORE PUSH1 0x0 DUP2 MSTORE PUSH1 0x20 DUP2 ADD SWAP2 SWAP1 SWAP2 MSTORE SWAP1 JUMP JUMPDEST SWAP1 POP PUSH1 0x0 DUP1 JUMPDEST PUSH2 0x3C1 DUP4 PUSH2 0x52C JUMP JUMPDEST ISZERO PUSH2 0x197 JUMPI PUSH2 0x3CF DUP4 PUSH2 0x53B JUMP JUMPDEST SWAP1 SWAP3 POP SWAP1 POP DUP2 PUSH1 0x1 EQ ISZERO PUSH2 0x3F3 JUMPI PUSH2 0x3E6 DUP4 PUSH2 0x583 JUMP JUMPDEST PUSH4 0xFFFFFFFF AND DUP5 MSTORE PUSH2 0x419 JUMP JUMPDEST DUP2 PUSH1 0x2 EQ ISZERO PUSH2 0x40F JUMPI PUSH2 0x405 DUP4 PUSH2 0x69B JUMP JUMPDEST PUSH1 0x20 DUP6 ADD MSTORE PUSH2 0x419 JUMP JUMPDEST PUSH2 0x419 DUP4 DUP3 PUSH2 0x603 JUMP JUMPDEST PUSH2 0x3B8 JUMP JUMPDEST PUSH1 0x40 DUP1 MLOAD DUP1 DUP3 ADD DUP3 MSTORE PUSH1 0x0 DUP1 DUP3 MSTORE PUSH1 0x20 DUP1 DUP4 ADD DUP3 SWAP1 MSTORE DUP4 MLOAD DUP1 DUP6 ADD SWAP1 SWAP5 MSTORE DUP2 DUP5 MSTORE DUP4 ADD DUP5 SWAP1 MSTORE SWAP1 SWAP2 SWAP1 DUP1 JUMPDEST PUSH2 0x452 DUP4 PUSH2 0x52C JUMP JUMPDEST ISZERO PUSH2 0x197 JUMPI PUSH2 0x460 DUP4 PUSH2 0x53B JUMP JUMPDEST SWAP1 SWAP3 POP SWAP1 POP DUP2 PUSH1 0x1 EQ ISZERO PUSH2 0x47E JUMPI PUSH2 0x477 DUP4 PUSH2 0x583 JUMP JUMPDEST DUP5 MSTORE PUSH2 0x4A4 JUMP JUMPDEST DUP2 PUSH1 0x2 EQ ISZERO PUSH2 0x49A JUMPI PUSH2 0x490 DUP4 PUSH2 0x583 JUMP JUMPDEST PUSH1 0x20 DUP6 ADD MSTORE PUSH2 0x4A4 JUMP JUMPDEST PUSH2 0x4A4 DUP4 DUP3 PUSH2 0x603 JUMP JUMPDEST PUSH2 0x449 JUMP JUMPDEST PUSH2 0x4B1 PUSH2 0x809 JUMP JUMPDEST PUSH1 0x40 DUP1 MLOAD DUP1 DUP3 ADD SWAP1 SWAP2 MSTORE PUSH1 0x0 DUP1 DUP3 MSTORE PUSH1 0x20 DUP3 ADD DUP5 SWAP1 MSTORE DUP1 JUMPDEST PUSH2 0x4D2 DUP4 PUSH2 0x52C JUMP JUMPDEST ISZERO PUSH2 0x197 JUMPI PUSH2 0x4E0 DUP4 PUSH2 0x53B JUMP JUMPDEST SWAP1 SWAP3 POP SWAP1 POP DUP2 PUSH1 0x1 EQ ISZERO PUSH2 0x4FE JUMPI PUSH2 0x4F7 DUP4 PUSH2 0x69B JUMP JUMPDEST DUP5 MSTORE PUSH2 0x527 JUMP JUMPDEST DUP2 PUSH1 0x2 EQ ISZERO PUSH2 0x51D JUMPI PUSH2 0x513 PUSH2 0xC7 DUP5 PUSH2 0x69B JUMP JUMPDEST PUSH1 0x20 DUP6 ADD MSTORE PUSH2 0x527 JUMP JUMPDEST PUSH2 0x527 DUP4 DUP3 PUSH2 0x603 JUMP JUMPDEST PUSH2 0x4C9 JUMP JUMPDEST PUSH1 0x20 DUP2 ADD MLOAD MLOAD DUP2 MLOAD LT JUMPDEST SWAP2 SWAP1 POP JUMP JUMPDEST PUSH1 0x0 DUP1 PUSH1 0x0 PUSH2 0x549 DUP5 PUSH2 0x583 JUMP JUMPDEST SWAP1 POP PUSH2 0x556 PUSH1 0x8 DUP3 PUSH2 0xB72 JUMP JUMPDEST SWAP3 POP DUP1 PUSH1 0x7 AND PUSH1 0x5 DUP2 GT ISZERO PUSH2 0x57B JUMPI PUSH4 0x4E487B71 PUSH1 0xE0 SHL PUSH1 0x0 MSTORE PUSH1 0x21 PUSH1 0x4 MSTORE PUSH1 0x24 PUSH1 0x0 REVERT JUMPDEST SWAP2 POP POP SWAP2 POP SWAP2 JUMP JUMPDEST PUSH1 0x20 DUP1 DUP3 ADD MLOAD DUP3 MLOAD DUP2 ADD SWAP1 SWAP2 ADD MLOAD PUSH1 0x0 SWAP2 DUP3 DUP1 JUMPDEST PUSH1 0xA DUP2 LT ISZERO PUSH2 0x5FD JUMPI DUP4 DUP2 BYTE SWAP2 POP PUSH2 0x5B0 DUP2 PUSH1 0x7 PUSH2 0xB92 JUMP JUMPDEST DUP3 PUSH1 0x7F AND SWAP1 SHL DUP6 OR SWAP5 POP DUP2 PUSH1 0x80 AND PUSH1 0x0 EQ ISZERO PUSH2 0x5ED JUMPI PUSH2 0x5D1 DUP2 PUSH1 0x1 PUSH2 0xB5A JUMP JUMPDEST DUP7 MLOAD DUP8 SWAP1 PUSH2 0x5E0 SWAP1 DUP4 SWAP1 PUSH2 0xB5A JUMP JUMPDEST SWAP1 MSTORE POP PUSH2 0x536 SWAP4 POP POP POP POP JUMP JUMPDEST PUSH2 0x5F6 DUP2 PUSH2 0xBB1 JUMP JUMPDEST SWAP1 POP PUSH2 0x597 JUMP JUMPDEST POP PUSH1 0x0 DUP1 REVERT JUMPDEST PUSH1 0x0 DUP2 PUSH1 0x5 DUP2 GT ISZERO PUSH2 0x625 JUMPI PUSH4 0x4E487B71 PUSH1 0xE0 SHL PUSH1 0x0 MSTORE PUSH1 0x21 PUSH1 0x4 MSTORE PUSH1 0x24 PUSH1 0x0 REVERT JUMPDEST EQ ISZERO PUSH2 0x63A JUMPI PUSH2 0x634 DUP3 PUSH2 0x583 JUMP JUMPDEST POP PUSH2 0x697 JUMP JUMPDEST PUSH1 0x2 DUP2 PUSH1 0x5 DUP2 GT ISZERO PUSH2 0x65C JUMPI PUSH4 0x4E487B71 PUSH1 0xE0 SHL PUSH1 0x0 MSTORE PUSH1 0x21 PUSH1 0x4 MSTORE PUSH1 0x24 PUSH1 0x0 REVERT JUMPDEST EQ ISZERO PUSH2 0x61 JUMPI PUSH1 0x0 PUSH2 0x66D DUP4 PUSH2 0x583 JUMP JUMPDEST SWAP1 POP DUP1 DUP4 PUSH1 0x0 ADD DUP2 DUP2 MLOAD PUSH2 0x681 SWAP2 SWAP1 PUSH2 0xB5A JUMP JUMPDEST SWAP1 MSTORE POP PUSH1 0x20 DUP4 ADD MLOAD MLOAD DUP4 MLOAD GT ISZERO PUSH2 0x634 JUMPI PUSH1 0x0 DUP1 REVERT JUMPDEST POP POP JUMP JUMPDEST PUSH1 0x60 PUSH1 0x0 PUSH2 0x6A8 DUP4 PUSH2 0x583 JUMP JUMPDEST SWAP1 POP PUSH1 0x0 DUP2 DUP5 PUSH1 0x0 ADD MLOAD PUSH2 0x6BC SWAP2 SWAP1 PUSH2 0xB5A JUMP JUMPDEST SWAP1 POP DUP4 PUSH1 0x20 ADD MLOAD MLOAD DUP2 GT ISZERO PUSH2 0x6D0 JUMPI PUSH1 0x0 DUP1 REVERT JUMPDEST DUP2 PUSH8 0xFFFFFFFFFFFFFFFF DUP2 GT ISZERO PUSH2 0x6F7 JUMPI PUSH4 0x4E487B71 PUSH1 0xE0 SHL PUSH1 0x0 MSTORE PUSH1 0x41 PUSH1 0x4 MSTORE PUSH1 0x24 PUSH1 0x0 REVERT JUMPDEST PUSH1 0x40 MLOAD SWAP1 DUP1 DUP3 MSTORE DUP1 PUSH1 0x1F ADD PUSH1 0x1F NOT AND PUSH1 0x20 ADD DUP3 ADD PUSH1 0x40 MSTORE DUP1 ISZERO PUSH2 0x721 JUMPI PUSH1 0x20 DUP3 ADD DUP2 DUP1 CALLDATASIZE DUP4 CALLDATACOPY ADD SWAP1 POP JUMPDEST POP PUSH1 0x20 DUP1 DUP7 ADD MLOAD DUP7 MLOAD SWAP3 SWAP6 POP SWAP2 DUP2 DUP7 ADD SWAP2 SWAP1 DUP4 ADD ADD PUSH1 0x0 JUMPDEST DUP6 DUP2 LT ISZERO PUSH2 0x75B JUMPI DUP2 DUP2 ADD MLOAD DUP4 DUP3 ADD MSTORE PUSH2 0x754 PUSH1 0x20 DUP3 PUSH2 0xB5A JUMP JUMPDEST SWAP1 POP PUSH2 0x739 JUMP JUMPDEST POP POP POP SWAP4 MSTORE POP SWAP2 SWAP1 POP JUMP JUMPDEST PUSH1 0x40 DUP1 MLOAD PUSH2 0x200 DUP2 ADD SWAP1 SWAP2 MSTORE PUSH1 0x0 PUSH2 0x1C0 DUP3 ADD DUP2 DUP2 MSTORE PUSH2 0x1E0 DUP4 ADD SWAP2 SWAP1 SWAP2 MSTORE DUP2 SWAP1 DUP2 MSTORE PUSH1 0x20 ADD PUSH1 0x60 DUP2 MSTORE PUSH1 0x20 ADD PUSH1 0x0 DUP2 MSTORE PUSH1 0x20 ADD PUSH2 0x7B7 PUSH1 0x40 MLOAD DUP1 PUSH1 0x40 ADD PUSH1 0x40 MSTORE DUP1 PUSH1 0x0 DUP2 MSTORE PUSH1 0x20 ADD PUSH1 0x0 DUP2 MSTORE POP SWAP1 JUMP JUMPDEST DUP2 MSTORE PUSH1 0x20 ADD PUSH2 0x7C4 PUSH2 0x809 JUMP JUMPDEST DUP2 MSTORE PUSH1 0x20 ADD PUSH1 0x60 DUP2 MSTORE PUSH1 0x20 ADD PUSH1 0x60 DUP2 MSTORE PUSH1 0x20 ADD PUSH1 0x60 DUP2 MSTORE PUSH1 0x20 ADD PUSH1 0x60 DUP2 MSTORE PUSH1 0x20 ADD PUSH1 0x60 DUP2 MSTORE PUSH1 0x20 ADD PUSH1 0x60 DUP2 MSTORE PUSH1 0x20 ADD PUSH1 0x60 DUP2 MSTORE PUSH1 0x20 ADD PUSH1 0x60 DUP2 MSTORE PUSH1 0x20 ADD PUSH1 0x60 DUP2 MSTORE POP SWAP1 JUMP JUMPDEST PUSH1 0x40 MLOAD DUP1 PUSH1 0x40 ADD PUSH1 0x40 MSTORE DUP1 PUSH1 0x60 DUP2 MSTORE PUSH1 0x20 ADD PUSH2 0x83E PUSH1 0x40 MLOAD DUP1 PUSH1 0x40 ADD PUSH1 0x40 MSTORE DUP1 PUSH1 0x0 PUSH4 0xFFFFFFFF AND DUP2 MSTORE PUSH1 0x20 ADD PUSH1 0x60 DUP2 MSTORE POP SWAP1 JUMP JUMPDEST SWAP1 MSTORE SWAP1 JUMP JUMPDEST PUSH1 0x0 PUSH1 0x20 DUP3 DUP5 SUB SLT ISZERO PUSH2 0x854 JUMPI DUP1 DUP2 REVERT JUMPDEST DUP2 CALLDATALOAD PUSH8 0xFFFFFFFFFFFFFFFF DUP1 DUP3 GT ISZERO PUSH2 0x86B JUMPI DUP3 DUP4 REVERT JUMPDEST DUP2 DUP5 ADD SWAP2 POP DUP5 PUSH1 0x1F DUP4 ADD SLT PUSH2 0x87E JUMPI DUP3 DUP4 REVERT JUMPDEST DUP2 CALLDATALOAD DUP2 DUP2 GT ISZERO PUSH2 0x890 JUMPI PUSH2 0x890 PUSH2 0xBE2 JUMP JUMPDEST PUSH1 0x40 MLOAD PUSH1 0x1F DUP3 ADD PUSH1 0x1F NOT SWAP1 DUP2 AND PUSH1 0x3F ADD AND DUP2 ADD SWAP1 DUP4 DUP3 GT DUP2 DUP4 LT OR ISZERO PUSH2 0x8B8 JUMPI PUSH2 0x8B8 PUSH2 0xBE2 JUMP JUMPDEST DUP2 PUSH1 0x40 MSTORE DUP3 DUP2 MSTORE DUP8 PUSH1 0x20 DUP5 DUP8 ADD ADD GT ISZERO PUSH2 0x8D0 JUMPI DUP6 DUP7 REVERT JUMPDEST DUP3 PUSH1 0x20 DUP7 ADD PUSH1 0x20 DUP4 ADD CALLDATACOPY SWAP2 DUP3 ADD PUSH1 0x20 ADD SWAP5 SWAP1 SWAP5 MSTORE SWAP6 SWAP5 POP POP POP POP POP JUMP JUMPDEST PUSH1 0x0 DUP2 MLOAD DUP1 DUP5 MSTORE DUP2 JUMPDEST DUP2 DUP2 LT ISZERO PUSH2 0x912 JUMPI PUSH1 0x20 DUP2 DUP6 ADD DUP2 ADD MLOAD DUP7 DUP4 ADD DUP3 ADD MSTORE ADD PUSH2 0x8F6 JUMP JUMPDEST DUP2 DUP2 GT ISZERO PUSH2 0x923 JUMPI DUP3 PUSH1 0x20 DUP4 DUP8 ADD ADD MSTORE JUMPDEST POP PUSH1 0x1F ADD PUSH1 0x1F NOT AND SWAP3 SWAP1 SWAP3 ADD PUSH1 0x20 ADD SWAP3 SWAP2 POP POP JUMP JUMPDEST PUSH1 0x0 DUP2 MLOAD PUSH1 0x40 DUP5 MSTORE PUSH2 0x94D PUSH1 0x40 DUP6 ADD DUP3 PUSH2 0x8ED JUMP JUMPDEST SWAP1 POP PUSH1 0x20 DUP4 ADD MLOAD DUP5 DUP3 SUB PUSH1 0x20 DUP7 ADD MSTORE PUSH2 0x966 DUP3 DUP3 PUSH2 0x96F JUMP JUMPDEST SWAP6 SWAP5 POP POP POP POP POP JUMP JUMPDEST PUSH1 0x0 PUSH4 0xFFFFFFFF DUP3 MLOAD AND DUP4 MSTORE PUSH1 0x20 DUP3 ADD MLOAD PUSH1 0x40 PUSH1 0x20 DUP6 ADD MSTORE PUSH2 0x994 PUSH1 0x40 DUP6 ADD DUP3 PUSH2 0x8ED JUMP JUMPDEST SWAP5 SWAP4 POP POP POP POP JUMP JUMPDEST PUSH1 0x0 PUSH1 0x20 DUP3 MSTORE PUSH2 0x9AF PUSH1 0x20 DUP4 ADD DUP5 PUSH2 0x938 JUMP JUMPDEST SWAP4 SWAP3 POP POP POP JUMP JUMPDEST PUSH1 0x20 DUP1 DUP3 MSTORE DUP3 MLOAD DUP1 MLOAD DUP4 DUP4 ADD MSTORE ADD MLOAD PUSH1 0x40 DUP3 ADD MSTORE PUSH1 0x0 PUSH1 0x20 DUP4 ADD MLOAD PUSH2 0x200 DUP1 PUSH1 0x60 DUP6 ADD MSTORE PUSH2 0x9E8 PUSH2 0x220 DUP6 ADD DUP4 PUSH2 0x8ED JUMP JUMPDEST PUSH1 0x40 DUP7 ADD MLOAD PUSH1 0x80 DUP7 ADD MSTORE PUSH1 0x60 DUP7 ADD MLOAD DUP1 MLOAD PUSH1 0xA0 DUP8 ADD MSTORE PUSH1 0x20 DUP2 ADD MLOAD PUSH1 0xC0 DUP8 ADD MSTORE SWAP1 SWAP3 POP POP PUSH1 0x80 DUP6 ADD MLOAD PUSH1 0x1F NOT DUP1 DUP7 DUP6 SUB ADD PUSH1 0xE0 DUP8 ADD MSTORE PUSH2 0xA28 DUP5 DUP4 PUSH2 0x938 JUMP JUMPDEST SWAP4 POP PUSH1 0xA0 DUP8 ADD MLOAD SWAP2 POP PUSH2 0x100 DUP2 DUP8 DUP7 SUB ADD DUP2 DUP9 ADD MSTORE PUSH2 0xA47 DUP6 DUP5 PUSH2 0x8ED JUMP JUMPDEST SWAP5 POP PUSH1 0xC0 DUP9 ADD MLOAD SWAP3 POP PUSH2 0x120 DUP3 DUP9 DUP8 SUB ADD DUP2 DUP10 ADD MSTORE PUSH2 0xA66 DUP7 DUP6 PUSH2 0x8ED JUMP JUMPDEST SWAP6 POP PUSH1 0xE0 DUP10 ADD MLOAD SWAP4 POP PUSH2 0x140 DUP4 DUP10 DUP9 SUB ADD DUP2 DUP11 ADD MSTORE PUSH2 0xA85 DUP8 DUP7 PUSH2 0x8ED JUMP JUMPDEST SWAP7 POP DUP3 DUP11 ADD MLOAD SWAP5 POP PUSH2 0x160 SWAP3 POP DUP4 DUP10 DUP9 SUB ADD DUP4 DUP11 ADD MSTORE PUSH2 0xAA5 DUP8 DUP7 PUSH2 0x8ED JUMP JUMPDEST SWAP7 POP DUP2 DUP11 ADD MLOAD SWAP5 POP PUSH2 0x180 SWAP2 POP DUP4 DUP10 DUP9 SUB ADD DUP3 DUP11 ADD MSTORE PUSH2 0xAC5 DUP8 DUP7 PUSH2 0x8ED JUMP JUMPDEST SWAP7 POP DUP1 DUP11 ADD MLOAD SWAP5 POP POP PUSH2 0x1A0 DUP4 DUP10 DUP9 SUB ADD DUP2 DUP11 ADD MSTORE PUSH2 0xAE4 DUP8 DUP7 PUSH2 0x8ED JUMP JUMPDEST SWAP7 POP DUP3 DUP11 ADD MLOAD SWAP5 POP DUP4 DUP10 DUP9 SUB ADD PUSH2 0x1C0 DUP11 ADD MSTORE PUSH2 0xB01 DUP8 DUP7 PUSH2 0x8ED JUMP JUMPDEST SWAP7 POP DUP2 DUP11 ADD MLOAD SWAP5 POP DUP4 DUP10 DUP9 SUB ADD PUSH2 0x1E0 DUP11 ADD MSTORE PUSH2 0xB1E DUP8 DUP7 PUSH2 0x8ED JUMP JUMPDEST SWAP7 POP DUP1 DUP11 ADD MLOAD SWAP5 POP POP POP POP DUP1 DUP7 DUP6 SUB ADD DUP4 DUP8 ADD MSTORE POP PUSH2 0xB3D DUP4 DUP3 PUSH2 0x8ED JUMP JUMPDEST SWAP7 SWAP6 POP POP POP POP POP POP JUMP JUMPDEST PUSH1 0x0 PUSH1 0x20 DUP3 MSTORE PUSH2 0x9AF PUSH1 0x20 DUP4 ADD DUP5 PUSH2 0x96F JUMP JUMPDEST PUSH1 0x0 DUP3 NOT DUP3 GT ISZERO PUSH2 0xB6D JUMPI PUSH2 0xB6D PUSH2 0xBCC JUMP JUMPDEST POP ADD SWAP1 JUMP JUMPDEST PUSH1 0x0 DUP3 PUSH2 0xB8D JUMPI PUSH4 0x4E487B71 PUSH1 0xE0 SHL DUP2 MSTORE PUSH1 0x12 PUSH1 0x4 MSTORE PUSH1 0x24 DUP2 REVERT JUMPDEST POP DIV SWAP1 JUMP JUMPDEST PUSH1 0x0 DUP2 PUSH1 0x0 NOT DIV DUP4 GT DUP3 ISZERO ISZERO AND ISZERO PUSH2 0xBAC JUMPI PUSH2 0xBAC PUSH2 0xBCC JUMP JUMPDEST POP MUL SWAP1 JUMP JUMPDEST PUSH1 0x0 PUSH1 0x0 NOT DUP3 EQ ISZERO PUSH2 0xBC5 JUMPI PUSH2 0xBC5 PUSH2 0xBCC JUMP JUMPDEST POP PUSH1 0x1 ADD SWAP1 JUMP JUMPDEST PUSH4 0x4E487B71 PUSH1 0xE0 SHL PUSH1 0x0 MSTORE PUSH1 0x11 PUSH1 0x4 MSTORE PUSH1 0x24 PUSH1 0x0 REVERT JUMPDEST PUSH4 0x4E487B71 PUSH1 0xE0 SHL PUSH1 0x0 MSTORE PUSH1 0x41 PUSH1 0x4 MSTORE PUSH1 0x24 PUSH1 0x0 REVERT INVALID LOG2 PUSH5 0x6970667358 0x22 SLT KECCAK256 INVALID SWAP5 0x25 0xEB CALLDATASIZE 0xF8 0x5C CODECOPY CALLDATASIZE PUSH23 0xFA8584C2777FD8552D6A679529FF71624633C438D2B764 PUSH20 0x6F6C634300080200330000000000000000000000 "
		},
		"gasEstimates": {
			"creation": {
				"codeDepositCost": "623600",
				"executionCost": "688",
				"totalCost": "624288"
			},
			"external": {
				"decBlockID(bytes)": "infinite",
				"decHeader(bytes)": "infinite",
				"decPartSetHeader(bytes)": "infinite",
				"decTimestamp(bytes)": "infinite",
				"decVersion(bytes)": "infinite"
			}
		},
		"methodIdentifiers": {
			"decBlockID(bytes)": "f9de4e57",
			"decHeader(bytes)": "8e86ed99",
			"decPartSetHeader(bytes)": "a6f571a5",
			"decTimestamp(bytes)": "028927d5",
			"decVersion(bytes)": "bc1c6bd6"
		}
	},
	"abi": [
		{
			"inputs": [
				{
					"internalType": "bytes",
					"name": "raw",
					"type": "bytes"
				}
			],
			"name": "decBlockID",
			"outputs": [
				{
					"components": [
						{
							"internalType": "bytes",
							"name": "hash",
							"type": "bytes"
						},
						{
							"components": [
								{
									"internalType": "uint32",
									"name": "total",
									"type": "uint32"
								},
								{
									"internalType": "bytes",
									"name": "hash",
									"type": "bytes"
								}
							],
							"internalType": "struct PbHeader.PartSetHeader",
							"name": "partSetHeader",
							"type": "tuple"
						}
					],
					"internalType": "struct PbHeader.BlockID",
					"name": "m",
					"type": "tuple"
				}
			],
			"stateMutability": "pure",
			"type": "function"
		},
		{
			"inputs": [
				{
					"internalType": "bytes",
					"name": "raw",
					"type": "bytes"
				}
			],
			"name": "decHeader",
			"outputs": [
				{
					"components": [
						{
							"components": [
								{
									"internalType": "uint256",
									"name": "block",
									"type": "uint256"
								},
								{
									"internalType": "uint256",
									"name": "app",
									"type": "uint256"
								}
							],
							"internalType": "struct PbHeader.Version",
							"name": "version",
							"type": "tuple"
						},
						{
							"internalType": "string",
							"name": "chainId",
							"type": "string"
						},
						{
							"internalType": "uint256",
							"name": "height",
							"type": "uint256"
						},
						{
							"components": [
								{
									"internalType": "uint256",
									"name": "second",
									"type": "uint256"
								},
								{
									"internalType": "uint256",
									"name": "nano",
									"type": "uint256"
								}
							],
							"internalType": "struct PbHeader.Timestamp",
							"name": "time",
							"type": "tuple"
						},
						{
							"components": [
								{
									"internalType": "bytes",
									"name": "hash",
									"type": "bytes"
								},
								{
									"components": [
										{
											"internalType": "uint32",
											"name": "total",
											"type": "uint32"
										},
										{
											"internalType": "bytes",
											"name": "hash",
											"type": "bytes"
										}
									],
									"internalType": "struct PbHeader.PartSetHeader",
									"name": "partSetHeader",
									"type": "tuple"
								}
							],
							"internalType": "struct PbHeader.BlockID",
							"name": "lastBlockId",
							"type": "tuple"
						},
						{
							"internalType": "bytes",
							"name": "lastCommitHash",
							"type": "bytes"
						},
						{
							"internalType": "bytes",
							"name": "dataHash",
							"type": "bytes"
						},
						{
							"internalType": "bytes",
							"name": "validatorsHash",
							"type": "bytes"
						},
						{
							"internalType": "bytes",
							"name": "nextValidatorsHash",
							"type": "bytes"
						},
						{
							"internalType": "bytes",
							"name": "consensusHash",
							"type": "bytes"
						},
						{
							"internalType": "bytes",
							"name": "appHash",
							"type": "bytes"
						},
						{
							"internalType": "bytes",
							"name": "lastResultsHash",
							"type": "bytes"
						},
						{
							"internalType": "bytes",
							"name": "evidenceHash",
							"type": "bytes"
						},
						{
							"internalType": "bytes",
							"name": "proposerAddress",
							"type": "bytes"
						}
					],
					"internalType": "struct PbHeader.Header",
					"name": "m",
					"type": "tuple"
				}
			],
			"stateMutability": "pure",
			"type": "function"
		},
		{
			"inputs": [
				{
					"internalType": "bytes",
					"name": "raw",
					"type": "bytes"
				}
			],
			"name": "decPartSetHeader",
			"outputs": [
				{
					"components": [
						{
							"internalType": "uint32",
							"name": "total",
							"type": "uint32"
						},
						{
							"internalType": "bytes",
							"name": "hash",
							"type": "bytes"
						}
					],
					"internalType": "struct PbHeader.PartSetHeader",
					"name": "m",
					"type": "tuple"
				}
			],
			"stateMutability": "pure",
			"type": "function"
		},
		{
			"inputs": [
				{
					"internalType": "bytes",
					"name": "raw",
					"type": "bytes"
				}
			],
			"name": "decTimestamp",
			"outputs": [
				{
					"components": [
						{
							"internalType": "uint256",
							"name": "second",
							"type": "uint256"
						},
						{
							"internalType": "uint256",
							"name": "nano",
							"type": "uint256"
						}
					],
					"internalType": "struct PbHeader.Timestamp",
					"name": "m",
					"type": "tuple"
				}
			],
			"stateMutability": "pure",
			"type": "function"
		},
		{
			"inputs": [
				{
					"internalType": "bytes",
					"name": "raw",
					"type": "bytes"
				}
			],
			"name": "decVersion",
			"outputs": [
				{
					"components": [
						{
							"internalType": "uint256",
							"name": "block",
							"type": "uint256"
						},
						{
							"internalType": "uint256",
							"name": "app",
							"type": "uint256"
						}
					],
					"internalType": "struct PbHeader.Version",
					"name": "m",
					"type": "tuple"
				}
			],
			"stateMutability": "pure",
			"type": "function"
		}
	]
}