{
	"contracts/BHVF.sol": {
		"BHVF": {
			"abi": [
				{
					"inputs": [
						{
							"internalType": "bytes",
							"name": "raw",
							"type": "bytes"
						}
					],
					"name": "getBlockHash",
					"outputs": [
						{
							"internalType": "bytes32",
							"name": "",
							"type": "bytes32"
						}
					],
					"stateMutability": "pure",
					"type": "function"
				}
			],
			"devdoc": {
				"kind": "dev",
				"methods": {},
				"version": 1
			},
			"evm": {
				"assembly": "    /* \"contracts/BHVF.sol\":155:722  contract BHVF {... */\n  mstore(0x40, 0x80)\n  callvalue\n  dup1\n  iszero\n  tag_1\n  jumpi\n  0x00\n  dup1\n  revert\ntag_1:\n  pop\n  dataSize(sub_0)\n  dup1\n  dataOffset(sub_0)\n  0x00\n  codecopy\n  0x00\n  return\nstop\n\nsub_0: assembly {\n        /* \"contracts/BHVF.sol\":155:722  contract BHVF {... */\n      mstore(0x40, 0x80)\n      callvalue\n      dup1\n      iszero\n      tag_1\n      jumpi\n      0x00\n      dup1\n      revert\n    tag_1:\n      pop\n      jumpi(tag_2, lt(calldatasize, 0x04))\n      shr(0xe0, calldataload(0x00))\n      dup1\n      0xa16c64e6\n      eq\n      tag_3\n      jumpi\n    tag_2:\n      0x00\n      dup1\n      revert\n        /* \"contracts/BHVF.sol\":245:720  function getBlockHash(bytes memory raw) public pure returns (bytes32) {... */\n    tag_3:\n      tag_4\n      tag_5\n      calldatasize\n      0x04\n      tag_6\n      jump\t// in\n    tag_5:\n      tag_7\n      jump\t// in\n    tag_4:\n      mload(0x40)\n        /* \"#utility.yul\":2495:2520   */\n      swap1\n      dup2\n      mstore\n        /* \"#utility.yul\":2483:2485   */\n      0x20\n        /* \"#utility.yul\":2468:2486   */\n      add\n        /* \"contracts/BHVF.sol\":245:720  function getBlockHash(bytes memory raw) public pure returns (bytes32) {... */\n      mload(0x40)\n      dup1\n      swap2\n      sub\n      swap1\n      return\n    tag_7:\n        /* \"contracts/BHVF.sol\":306:313  bytes32 */\n      0x00\n        /* \"contracts/BHVF.sol\":329:332  raw */\n      dup2\n        /* \"contracts/BHVF.sol\":329:339  raw.length */\n      mload\n        /* \"contracts/BHVF.sol\":343:344  0 */\n      0x00\n        /* \"contracts/BHVF.sol\":329:344  raw.length == 0 */\n      eq\n        /* \"contracts/BHVF.sol\":325:388  if (raw.length == 0) {... */\n      iszero\n      tag_11\n      jumpi\n      pop\n        /* \"contracts/BHVF.sol\":375:376  0 */\n      0x00\n        /* \"contracts/BHVF.sol\":360:377  return bytes32(0) */\n      jump(tag_10)\n        /* \"contracts/BHVF.sol\":325:388  if (raw.length == 0) {... */\n    tag_11:\n        /* \"contracts/BHVF.sol\":422:437  new bytes[](14) */\n      0x40\n      dup1\n      mload\n        /* \"contracts/BHVF.sol\":434:436  14 */\n      0x0e\n        /* \"contracts/BHVF.sol\":422:437  new bytes[](14) */\n      dup1\n      dup3\n      mstore\n      0x01e0\n      dup3\n      add\n      swap1\n      swap3\n      mstore\n        /* \"contracts/BHVF.sol\":398:419  bytes[] memory leaves */\n      0x00\n      swap2\n        /* \"contracts/BHVF.sol\":422:437  new bytes[](14) */\n      dup2\n      0x20\n      add\n    tag_14:\n      0x60\n      dup2\n      mstore\n      0x20\n      add\n      swap1\n      0x01\n      swap1\n      sub\n      swap1\n      dup2\n      tag_14\n      jumpi\n      pop\n      pop\n      0x40\n      dup1\n      mload\n      dup1\n      dup3\n      add\n      swap1\n      swap2\n      mstore\n      0x00\n      dup1\n      dup3\n      mstore\n      0x20\n      dup3\n      add\n        /* \"contracts/libraries/Pb.sol\":474:485  buf.b = raw */\n      dup7\n      swap1\n      mstore\n        /* \"contracts/BHVF.sol\":398:437  bytes[] memory leaves = new bytes[](14) */\n      swap2\n      swap3\n      pop\n      swap1\n      dup1\n        /* \"contracts/BHVF.sol\":545:664  while (buf.hasMore()) {... */\n    tag_17:\n        /* \"contracts/libraries/Pb.sol\":649:654  buf.b */\n      0x20\n      dup4\n      add\n      mload\n        /* \"contracts/libraries/Pb.sol\":649:661  buf.b.length */\n      mload\n        /* \"contracts/libraries/Pb.sol\":639:646  buf.idx */\n      dup4\n      mload\n        /* \"contracts/libraries/Pb.sol\":639:661  buf.idx < buf.b.length */\n      lt\n        /* \"contracts/BHVF.sol\":545:664  while (buf.hasMore()) {... */\n      iszero\n      tag_18\n      jumpi\n        /* \"contracts/BHVF.sol\":595:607  buf.decKey() */\n      tag_21\n        /* \"contracts/BHVF.sol\":595:598  buf */\n      dup4\n        /* \"contracts/BHVF.sol\":595:605  buf.decKey */\n      tag_22\n        /* \"contracts/BHVF.sol\":595:607  buf.decKey() */\n      jump\t// in\n    tag_21:\n        /* \"contracts/BHVF.sol\":581:607  (tag, wire) = buf.decKey() */\n      swap1\n      swap3\n      pop\n      swap1\n      pop\n        /* \"contracts/BHVF.sol\":639:653  buf.decBytes() */\n      tag_23\n        /* \"contracts/BHVF.sol\":639:642  buf */\n      dup4\n        /* \"contracts/BHVF.sol\":639:651  buf.decBytes */\n      tag_24\n        /* \"contracts/BHVF.sol\":639:653  buf.decBytes() */\n      jump\t// in\n    tag_23:\n        /* \"contracts/BHVF.sol\":621:627  leaves */\n      dup5\n        /* \"contracts/BHVF.sol\":628:635  tag - 1 */\n      tag_25\n        /* \"contracts/BHVF.sol\":634:635  1 */\n      0x01\n        /* \"contracts/BHVF.sol\":628:631  tag */\n      dup6\n        /* \"contracts/BHVF.sol\":628:635  tag - 1 */\n      tag_26\n      jump\t// in\n    tag_25:\n        /* \"contracts/BHVF.sol\":621:636  leaves[tag - 1] */\n      dup2\n      mload\n      dup2\n      lt\n      tag_27\n      jumpi\n      mstore(0x00, shl(0xe0, 0x4e487b71))\n      mstore(0x04, 0x32)\n      revert(0x00, 0x24)\n    tag_27:\n      0x20\n      mul\n      0x20\n      add\n      add\n        /* \"contracts/BHVF.sol\":621:653  leaves[tag - 1] = buf.decBytes() */\n      dup2\n      swap1\n      mstore\n      pop\n        /* \"contracts/BHVF.sol\":545:664  while (buf.hasMore()) {... */\n      jump(tag_17)\n    tag_18:\n        /* \"contracts/BHVF.sol\":680:713  Merkle.hashFromByteSlices(leaves) */\n      tag_28\n        /* \"contracts/BHVF.sol\":706:712  leaves */\n      dup5\n        /* \"contracts/BHVF.sol\":680:705  Merkle.hashFromByteSlices */\n      tag_29\n        /* \"contracts/BHVF.sol\":680:713  Merkle.hashFromByteSlices(leaves) */\n      jump\t// in\n    tag_28:\n        /* \"contracts/BHVF.sol\":673:713  return Merkle.hashFromByteSlices(leaves) */\n      swap5\n      pop\n      pop\n      pop\n      pop\n      pop\n        /* \"contracts/BHVF.sol\":245:720  function getBlockHash(bytes memory raw) public pure returns (bytes32) {... */\n    tag_10:\n      swap2\n      swap1\n      pop\n      jump\t// out\n        /* \"contracts/libraries/Pb.sol\":722:906  function decKey(Buffer memory buf) internal pure returns (uint tag, WireType wiretype) {... */\n    tag_22:\n        /* \"contracts/libraries/Pb.sol\":780:788  uint tag */\n      0x00\n        /* \"contracts/libraries/Pb.sol\":790:807  WireType wiretype */\n      dup1\n        /* \"contracts/libraries/Pb.sol\":819:825  uint v */\n      0x00\n        /* \"contracts/libraries/Pb.sol\":828:842  decVarint(buf) */\n      tag_35\n        /* \"contracts/libraries/Pb.sol\":838:841  buf */\n      dup5\n        /* \"contracts/libraries/Pb.sol\":828:837  decVarint */\n      tag_36\n        /* \"contracts/libraries/Pb.sol\":828:842  decVarint(buf) */\n      jump\t// in\n    tag_35:\n        /* \"contracts/libraries/Pb.sol\":819:842  uint v = decVarint(buf) */\n      swap1\n      pop\n        /* \"contracts/libraries/Pb.sol\":858:863  v / 8 */\n      tag_37\n        /* \"contracts/libraries/Pb.sol\":862:863  8 */\n      0x08\n        /* \"contracts/libraries/Pb.sol\":819:842  uint v = decVarint(buf) */\n      dup3\n        /* \"contracts/libraries/Pb.sol\":858:863  v / 8 */\n      tag_38\n      jump\t// in\n    tag_37:\n        /* \"contracts/libraries/Pb.sol\":852:863  tag = v / 8 */\n      swap3\n      pop\n        /* \"contracts/libraries/Pb.sol\":893:894  v */\n      dup1\n        /* \"contracts/libraries/Pb.sol\":897:898  7 */\n      0x07\n        /* \"contracts/libraries/Pb.sol\":893:898  v & 7 */\n      and\n        /* \"contracts/libraries/Pb.sol\":884:899  WireType(v & 7) */\n      0x05\n      dup2\n      gt\n      iszero\n      tag_39\n      jumpi\n      mstore(0x00, shl(0xe0, 0x4e487b71))\n      mstore(0x04, 0x21)\n      revert(0x00, 0x24)\n    tag_39:\n        /* \"contracts/libraries/Pb.sol\":873:899  wiretype = WireType(v & 7) */\n      swap2\n      pop\n        /* \"contracts/libraries/Pb.sol\":722:906  function decKey(Buffer memory buf) internal pure returns (uint tag, WireType wiretype) {... */\n      pop\n      swap2\n      pop\n      swap2\n      jump\t// out\n        /* \"contracts/libraries/Pb.sol\":2606:3265  function decBytes(Buffer memory buf) internal pure returns (bytes memory b) {... */\n    tag_24:\n        /* \"contracts/libraries/Pb.sol\":2666:2680  bytes memory b */\n      0x60\n        /* \"contracts/libraries/Pb.sol\":2692:2700  uint len */\n      0x00\n        /* \"contracts/libraries/Pb.sol\":2703:2717  decVarint(buf) */\n      tag_41\n        /* \"contracts/libraries/Pb.sol\":2713:2716  buf */\n      dup4\n        /* \"contracts/libraries/Pb.sol\":2703:2712  decVarint */\n      tag_36\n        /* \"contracts/libraries/Pb.sol\":2703:2717  decVarint(buf) */\n      jump\t// in\n    tag_41:\n        /* \"contracts/libraries/Pb.sol\":2692:2717  uint len = decVarint(buf) */\n      swap1\n      pop\n        /* \"contracts/libraries/Pb.sol\":2727:2735  uint end */\n      0x00\n        /* \"contracts/libraries/Pb.sol\":2748:2751  len */\n      dup2\n        /* \"contracts/libraries/Pb.sol\":2738:2741  buf */\n      dup5\n        /* \"contracts/libraries/Pb.sol\":2738:2745  buf.idx */\n      0x00\n      add\n      mload\n        /* \"contracts/libraries/Pb.sol\":2738:2751  buf.idx + len */\n      tag_42\n      swap2\n      swap1\n      tag_43\n      jump\t// in\n    tag_42:\n        /* \"contracts/libraries/Pb.sol\":2727:2751  uint end = buf.idx + len */\n      swap1\n      pop\n        /* \"contracts/libraries/Pb.sol\":2776:2779  buf */\n      dup4\n        /* \"contracts/libraries/Pb.sol\":2776:2781  buf.b */\n      0x20\n      add\n      mload\n        /* \"contracts/libraries/Pb.sol\":2776:2788  buf.b.length */\n      mload\n        /* \"contracts/libraries/Pb.sol\":2769:2772  end */\n      dup2\n        /* \"contracts/libraries/Pb.sol\":2769:2788  end <= buf.b.length */\n      gt\n      iszero\n        /* \"contracts/libraries/Pb.sol\":2761:2789  require(end <= buf.b.length) */\n      tag_44\n      jumpi\n      0x00\n      dup1\n      revert\n    tag_44:\n        /* \"contracts/libraries/Pb.sol\":2832:2835  len */\n      dup2\n        /* \"contracts/libraries/Pb.sol\":2822:2836  new bytes(len) */\n      0xffffffffffffffff\n      dup2\n      gt\n      iszero\n      tag_45\n      jumpi\n      mstore(0x00, shl(0xe0, 0x4e487b71))\n      mstore(0x04, 0x41)\n      revert(0x00, 0x24)\n    tag_45:\n      mload(0x40)\n      swap1\n      dup1\n      dup3\n      mstore\n      dup1\n      0x1f\n      add\n      not(0x1f)\n      and\n      0x20\n      add\n      dup3\n      add\n      0x40\n      mstore\n      dup1\n      iszero\n      tag_46\n      jumpi\n      0x20\n      dup3\n      add\n      dup2\n      dup1\n      calldatasize\n      dup4\n      calldatacopy\n      add\n      swap1\n      pop\n    tag_46:\n      pop\n        /* \"contracts/libraries/Pb.sol\":2866:2871  buf.b */\n      0x20\n      dup1\n      dup7\n      add\n      mload\n        /* \"contracts/libraries/Pb.sol\":2961:2968  buf.idx */\n      dup7\n      mload\n        /* \"contracts/libraries/Pb.sol\":2818:2836  b = new bytes(len) */\n      swap3\n      swap6\n      pop\n        /* \"contracts/libraries/Pb.sol\":2866:2871  buf.b */\n      swap2\n        /* \"contracts/libraries/Pb.sol\":3011:3021  add(b, 32) */\n      dup2\n      dup7\n      add\n      swap2\n        /* \"contracts/libraries/Pb.sol\":3047:3076  add(add(bufB, 32), bufBStart) */\n      swap1\n      dup4\n      add\n      add\n        /* \"contracts/libraries/Pb.sol\":2846:2863  bytes memory bufB */\n      0x00\n        /* \"contracts/libraries/Pb.sol\":3095:3236  for (uint i=0; i<len; i+=32) {... */\n    tag_47:\n        /* \"contracts/libraries/Pb.sol\":3112:3115  len */\n      dup6\n        /* \"contracts/libraries/Pb.sol\":3110:3111  i */\n      dup2\n        /* \"contracts/libraries/Pb.sol\":3110:3115  i<len */\n      lt\n        /* \"contracts/libraries/Pb.sol\":3095:3236  for (uint i=0; i<len; i+=32) {... */\n      iszero\n      tag_48\n      jumpi\n        /* \"contracts/libraries/Pb.sol\":3193:3210  add(bufBStart, i) */\n      dup2\n      dup2\n      add\n        /* \"contracts/libraries/Pb.sol\":3187:3211  mload(add(bufBStart, i)) */\n      mload\n        /* \"contracts/libraries/Pb.sol\":3171:3185  add(bStart, i) */\n      dup4\n      dup3\n      add\n        /* \"contracts/libraries/Pb.sol\":3164:3212  mstore(add(bStart, i), mload(add(bufBStart, i))) */\n      mstore\n        /* \"contracts/libraries/Pb.sol\":3117:3122  i+=32 */\n      tag_50\n        /* \"contracts/libraries/Pb.sol\":3120:3122  32 */\n      0x20\n        /* \"contracts/libraries/Pb.sol\":3208:3209  i */\n      dup3\n        /* \"contracts/libraries/Pb.sol\":3117:3122  i+=32 */\n      tag_43\n      jump\t// in\n    tag_50:\n      swap1\n      pop\n        /* \"contracts/libraries/Pb.sol\":3095:3236  for (uint i=0; i<len; i+=32) {... */\n      jump(tag_47)\n    tag_48:\n      pop\n      pop\n      pop\n        /* \"contracts/libraries/Pb.sol\":3245:3258  buf.idx = end */\n      swap4\n      mstore\n      pop\n        /* \"contracts/libraries/Pb.sol\":2606:3265  function decBytes(Buffer memory buf) internal pure returns (bytes memory b) {... */\n      swap2\n      swap1\n      pop\n      jump\t// out\n        /* \"contracts/libraries/merkle.sol\":79:956  function hashFromByteSlices(bytes[] memory leaves)... */\n    tag_29:\n        /* \"contracts/libraries/merkle.sol\":177:184  bytes32 */\n      0x00\n        /* \"contracts/libraries/merkle.sol\":204:210  leaves */\n      dup2\n        /* \"contracts/libraries/merkle.sol\":204:217  leaves.length */\n      mload\n        /* \"contracts/libraries/merkle.sol\":221:222  0 */\n      0x00\n        /* \"contracts/libraries/merkle.sol\":204:222  leaves.length == 0 */\n      eq\n        /* \"contracts/libraries/merkle.sol\":200:950  if (leaves.length == 0) {... */\n      iszero\n      tag_52\n      jumpi\n        /* \"contracts/libraries/merkle.sol\":245:256  emptyHash() */\n      tag_53\n        /* \"contracts/libraries/merkle.sol\":245:254  emptyHash */\n      tag_54\n        /* \"contracts/libraries/merkle.sol\":245:256  emptyHash() */\n      jump\t// in\n    tag_53:\n        /* \"contracts/libraries/merkle.sol\":238:256  return emptyHash() */\n      swap1\n      pop\n      jump(tag_10)\n        /* \"contracts/libraries/merkle.sol\":200:950  if (leaves.length == 0) {... */\n    tag_52:\n        /* \"contracts/libraries/merkle.sol\":277:283  leaves */\n      dup2\n        /* \"contracts/libraries/merkle.sol\":277:290  leaves.length */\n      mload\n        /* \"contracts/libraries/merkle.sol\":294:295  1 */\n      0x01\n        /* \"contracts/libraries/merkle.sol\":277:295  leaves.length == 1 */\n      eq\n        /* \"contracts/libraries/merkle.sol\":273:950  if (leaves.length == 1) {... */\n      iszero\n      tag_56\n      jumpi\n        /* \"contracts/libraries/merkle.sol\":318:337  leafHash(leaves[0]) */\n      tag_53\n        /* \"contracts/libraries/merkle.sol\":327:333  leaves */\n      dup3\n        /* \"contracts/libraries/merkle.sol\":334:335  0 */\n      0x00\n        /* \"contracts/libraries/merkle.sol\":327:336  leaves[0] */\n      dup2\n      mload\n      dup2\n      lt\n      tag_58\n      jumpi\n      mstore(0x00, shl(0xe0, 0x4e487b71))\n      mstore(0x04, 0x32)\n      revert(0x00, 0x24)\n    tag_58:\n      0x20\n      mul\n      0x20\n      add\n      add\n      mload\n        /* \"contracts/libraries/merkle.sol\":318:326  leafHash */\n      tag_59\n        /* \"contracts/libraries/merkle.sol\":318:337  leafHash(leaves[0]) */\n      jump\t// in\n        /* \"contracts/libraries/merkle.sol\":273:950  if (leaves.length == 1) {... */\n    tag_56:\n        /* \"contracts/libraries/merkle.sol\":368:377  uint256 k */\n      0x00\n        /* \"contracts/libraries/merkle.sol\":380:408  getSplitPoint(leaves.length) */\n      tag_61\n        /* \"contracts/libraries/merkle.sol\":394:400  leaves */\n      dup4\n        /* \"contracts/libraries/merkle.sol\":394:407  leaves.length */\n      mload\n        /* \"contracts/libraries/merkle.sol\":380:393  getSplitPoint */\n      tag_62\n        /* \"contracts/libraries/merkle.sol\":380:408  getSplitPoint(leaves.length) */\n      jump\t// in\n    tag_61:\n        /* \"contracts/libraries/merkle.sol\":368:408  uint256 k = getSplitPoint(leaves.length) */\n      swap1\n      pop\n        /* \"contracts/libraries/merkle.sol\":422:447  bytes[] memory leftLeaves */\n      0x00\n        /* \"contracts/libraries/merkle.sol\":462:463  k */\n      dup2\n        /* \"contracts/libraries/merkle.sol\":450:464  new bytes[](k) */\n      0xffffffffffffffff\n      dup2\n      gt\n      iszero\n      tag_63\n      jumpi\n      mstore(0x00, shl(0xe0, 0x4e487b71))\n      mstore(0x04, 0x41)\n      revert(0x00, 0x24)\n    tag_63:\n      mload(0x40)\n      swap1\n      dup1\n      dup3\n      mstore\n      dup1\n      0x20\n      mul\n      0x20\n      add\n      dup3\n      add\n      0x40\n      mstore\n      dup1\n      iszero\n      tag_64\n      jumpi\n      dup2\n      0x20\n      add\n    tag_65:\n      0x60\n      dup2\n      mstore\n      0x20\n      add\n      swap1\n      0x01\n      swap1\n      sub\n      swap1\n      dup2\n      tag_65\n      jumpi\n      swap1\n      pop\n    tag_64:\n      pop\n        /* \"contracts/libraries/merkle.sol\":422:464  bytes[] memory leftLeaves = new bytes[](k) */\n      swap1\n      pop\n        /* \"contracts/libraries/merkle.sol\":478:504  bytes[] memory rightLeaves */\n      0x00\n        /* \"contracts/libraries/merkle.sol\":535:536  k */\n      dup3\n        /* \"contracts/libraries/merkle.sol\":519:525  leaves */\n      dup6\n        /* \"contracts/libraries/merkle.sol\":519:532  leaves.length */\n      mload\n        /* \"contracts/libraries/merkle.sol\":519:536  leaves.length - k */\n      tag_66\n      swap2\n      swap1\n      tag_26\n      jump\t// in\n    tag_66:\n        /* \"contracts/libraries/merkle.sol\":507:537  new bytes[](leaves.length - k) */\n      0xffffffffffffffff\n      dup2\n      gt\n      iszero\n      tag_67\n      jumpi\n      mstore(0x00, shl(0xe0, 0x4e487b71))\n      mstore(0x04, 0x41)\n      revert(0x00, 0x24)\n    tag_67:\n      mload(0x40)\n      swap1\n      dup1\n      dup3\n      mstore\n      dup1\n      0x20\n      mul\n      0x20\n      add\n      dup3\n      add\n      0x40\n      mstore\n      dup1\n      iszero\n      tag_68\n      jumpi\n      dup2\n      0x20\n      add\n    tag_69:\n      0x60\n      dup2\n      mstore\n      0x20\n      add\n      swap1\n      0x01\n      swap1\n      sub\n      swap1\n      dup2\n      tag_69\n      jumpi\n      swap1\n      pop\n    tag_68:\n      pop\n        /* \"contracts/libraries/merkle.sol\":478:537  bytes[] memory rightLeaves = new bytes[](leaves.length - k) */\n      swap1\n      pop\n        /* \"contracts/libraries/merkle.sol\":556:565  uint256 i */\n      0x00\n        /* \"contracts/libraries/merkle.sol\":551:777  for (uint256 i; i < leaves.length; i++) {... */\n    tag_70:\n        /* \"contracts/libraries/merkle.sol\":571:577  leaves */\n      dup6\n        /* \"contracts/libraries/merkle.sol\":571:584  leaves.length */\n      mload\n        /* \"contracts/libraries/merkle.sol\":567:568  i */\n      dup2\n        /* \"contracts/libraries/merkle.sol\":567:584  i < leaves.length */\n      lt\n        /* \"contracts/libraries/merkle.sol\":551:777  for (uint256 i; i < leaves.length; i++) {... */\n      iszero\n      tag_71\n      jumpi\n        /* \"contracts/libraries/merkle.sol\":617:618  k */\n      dup4\n        /* \"contracts/libraries/merkle.sol\":613:614  i */\n      dup2\n        /* \"contracts/libraries/merkle.sol\":613:618  i < k */\n      lt\n        /* \"contracts/libraries/merkle.sol\":609:763  if (i < k) {... */\n      iszero\n      tag_73\n      jumpi\n        /* \"contracts/libraries/merkle.sol\":658:664  leaves */\n      dup6\n        /* \"contracts/libraries/merkle.sol\":665:666  i */\n      dup2\n        /* \"contracts/libraries/merkle.sol\":658:667  leaves[i] */\n      dup2\n      mload\n      dup2\n      lt\n      tag_74\n      jumpi\n      mstore(0x00, shl(0xe0, 0x4e487b71))\n      mstore(0x04, 0x32)\n      revert(0x00, 0x24)\n    tag_74:\n      0x20\n      mul\n      0x20\n      add\n      add\n      mload\n        /* \"contracts/libraries/merkle.sol\":642:652  leftLeaves */\n      dup4\n        /* \"contracts/libraries/merkle.sol\":653:654  i */\n      dup3\n        /* \"contracts/libraries/merkle.sol\":642:655  leftLeaves[i] */\n      dup2\n      mload\n      dup2\n      lt\n      tag_75\n      jumpi\n      mstore(0x00, shl(0xe0, 0x4e487b71))\n      mstore(0x04, 0x32)\n      revert(0x00, 0x24)\n    tag_75:\n      0x20\n      mul\n      0x20\n      add\n      add\n        /* \"contracts/libraries/merkle.sol\":642:667  leftLeaves[i] = leaves[i] */\n      dup2\n      swap1\n      mstore\n      pop\n        /* \"contracts/libraries/merkle.sol\":609:763  if (i < k) {... */\n      jump(tag_76)\n    tag_73:\n        /* \"contracts/libraries/merkle.sol\":735:741  leaves */\n      dup6\n        /* \"contracts/libraries/merkle.sol\":742:743  i */\n      dup2\n        /* \"contracts/libraries/merkle.sol\":735:744  leaves[i] */\n      dup2\n      mload\n      dup2\n      lt\n      tag_77\n      jumpi\n      mstore(0x00, shl(0xe0, 0x4e487b71))\n      mstore(0x04, 0x32)\n      revert(0x00, 0x24)\n    tag_77:\n      0x20\n      mul\n      0x20\n      add\n      add\n      mload\n        /* \"contracts/libraries/merkle.sol\":714:725  rightLeaves */\n      dup3\n        /* \"contracts/libraries/merkle.sol\":730:731  k */\n      dup6\n        /* \"contracts/libraries/merkle.sol\":726:727  i */\n      dup4\n        /* \"contracts/libraries/merkle.sol\":726:731  i - k */\n      tag_78\n      swap2\n      swap1\n      tag_26\n      jump\t// in\n    tag_78:\n        /* \"contracts/libraries/merkle.sol\":714:732  rightLeaves[i - k] */\n      dup2\n      mload\n      dup2\n      lt\n      tag_79\n      jumpi\n      mstore(0x00, shl(0xe0, 0x4e487b71))\n      mstore(0x04, 0x32)\n      revert(0x00, 0x24)\n    tag_79:\n      0x20\n      mul\n      0x20\n      add\n      add\n        /* \"contracts/libraries/merkle.sol\":714:744  rightLeaves[i - k] = leaves[i] */\n      dup2\n      swap1\n      mstore\n      pop\n        /* \"contracts/libraries/merkle.sol\":609:763  if (i < k) {... */\n    tag_76:\n        /* \"contracts/libraries/merkle.sol\":586:589  i++ */\n      dup1\n      tag_80\n      dup2\n      tag_81\n      jump\t// in\n    tag_80:\n      swap2\n      pop\n      pop\n        /* \"contracts/libraries/merkle.sol\":551:777  for (uint256 i; i < leaves.length; i++) {... */\n      jump(tag_70)\n    tag_71:\n      pop\n        /* \"contracts/libraries/merkle.sol\":790:802  bytes32 left */\n      0x00\n        /* \"contracts/libraries/merkle.sol\":805:835  hashFromByteSlices(leftLeaves) */\n      tag_82\n        /* \"contracts/libraries/merkle.sol\":824:834  leftLeaves */\n      dup4\n        /* \"contracts/libraries/merkle.sol\":805:823  hashFromByteSlices */\n      tag_29\n        /* \"contracts/libraries/merkle.sol\":805:835  hashFromByteSlices(leftLeaves) */\n      jump\t// in\n    tag_82:\n        /* \"contracts/libraries/merkle.sol\":790:835  bytes32 left = hashFromByteSlices(leftLeaves) */\n      swap1\n      pop\n        /* \"contracts/libraries/merkle.sol\":849:862  bytes32 right */\n      0x00\n        /* \"contracts/libraries/merkle.sol\":865:896  hashFromByteSlices(rightLeaves) */\n      tag_83\n        /* \"contracts/libraries/merkle.sol\":884:895  rightLeaves */\n      dup4\n        /* \"contracts/libraries/merkle.sol\":865:883  hashFromByteSlices */\n      tag_29\n        /* \"contracts/libraries/merkle.sol\":865:896  hashFromByteSlices(rightLeaves) */\n      jump\t// in\n    tag_83:\n        /* \"contracts/libraries/merkle.sol\":849:896  bytes32 right = hashFromByteSlices(rightLeaves) */\n      swap1\n      pop\n        /* \"contracts/libraries/merkle.sol\":917:939  innerHash(left, right) */\n      tag_84\n        /* \"contracts/libraries/merkle.sol\":927:931  left */\n      dup3\n        /* \"contracts/libraries/merkle.sol\":933:938  right */\n      dup3\n        /* \"contracts/libraries/merkle.sol\":917:926  innerHash */\n      tag_85\n        /* \"contracts/libraries/merkle.sol\":917:939  innerHash(left, right) */\n      jump\t// in\n    tag_84:\n        /* \"contracts/libraries/merkle.sol\":910:939  return innerHash(left, right) */\n      swap6\n      pop\n      pop\n      pop\n      pop\n      pop\n      pop\n      jump(tag_10)\n        /* \"contracts/libraries/Pb.sol\":1655:2548  function decVarint(Buffer memory buf) internal pure returns (uint v) {... */\n    tag_36:\n        /* \"contracts/libraries/Pb.sol\":1837:1842  buf.b */\n      0x20\n      dup1\n      dup3\n      add\n      mload\n        /* \"contracts/libraries/Pb.sol\":1898:1905  buf.idx */\n      dup3\n      mload\n        /* \"contracts/libraries/Pb.sol\":1998:2017  add(add(bb, 32), v) */\n      dup2\n      add\n      swap1\n      swap2\n      add\n        /* \"contracts/libraries/Pb.sol\":1992:2018  mload(add(add(bb, 32), v)) */\n      mload\n        /* \"contracts/libraries/Pb.sol\":1716:1722  uint v */\n      0x00\n      swap2\n      dup3\n      dup1\n        /* \"contracts/libraries/Pb.sol\":2173:2493  for (uint i=0; i<10; ++i) {... */\n    tag_87:\n        /* \"contracts/libraries/Pb.sol\":2190:2192  10 */\n      0x0a\n        /* \"contracts/libraries/Pb.sol\":2188:2189  i */\n      dup2\n        /* \"contracts/libraries/Pb.sol\":2188:2192  i<10 */\n      lt\n        /* \"contracts/libraries/Pb.sol\":2173:2493  for (uint i=0; i<10; ++i) {... */\n      iszero\n      tag_88\n      jumpi\n        /* \"contracts/libraries/Pb.sol\":2245:2257  byte(i, tmp) */\n      dup4\n      dup2\n      byte\n      swap2\n      pop\n        /* \"contracts/libraries/Pb.sol\":2369:2374  i * 7 */\n      tag_90\n        /* \"contracts/libraries/Pb.sol\":2250:2251  i */\n      dup2\n        /* \"contracts/libraries/Pb.sol\":2373:2374  7 */\n      0x07\n        /* \"contracts/libraries/Pb.sol\":2369:2374  i * 7 */\n      tag_91\n      jump\t// in\n    tag_90:\n        /* \"contracts/libraries/Pb.sol\":2355:2356  b */\n      dup3\n        /* \"contracts/libraries/Pb.sol\":2359:2363  0x7F */\n      0x7f\n        /* \"contracts/libraries/Pb.sol\":2355:2363  b & 0x7F */\n      and\n        /* \"contracts/libraries/Pb.sol\":2354:2375  (b & 0x7F) << (i * 7) */\n      swap1\n      shl\n        /* \"contracts/libraries/Pb.sol\":2349:2375  v |= (b & 0x7F) << (i * 7) */\n      dup6\n      or\n      swap5\n      pop\n        /* \"contracts/libraries/Pb.sol\":2393:2394  b */\n      dup2\n        /* \"contracts/libraries/Pb.sol\":2397:2401  0x80 */\n      0x80\n        /* \"contracts/libraries/Pb.sol\":2393:2401  b & 0x80 */\n      and\n        /* \"contracts/libraries/Pb.sol\":2405:2406  0 */\n      0x00\n        /* \"contracts/libraries/Pb.sol\":2393:2406  b & 0x80 == 0 */\n      eq\n        /* \"contracts/libraries/Pb.sol\":2389:2483  if (b & 0x80 == 0) {... */\n      iszero\n      tag_92\n      jumpi\n        /* \"contracts/libraries/Pb.sol\":2437:2442  i + 1 */\n      tag_93\n        /* \"contracts/libraries/Pb.sol\":2437:2438  i */\n      dup2\n        /* \"contracts/libraries/Pb.sol\":2441:2442  1 */\n      0x01\n        /* \"contracts/libraries/Pb.sol\":2437:2442  i + 1 */\n      tag_43\n      jump\t// in\n    tag_93:\n        /* \"contracts/libraries/Pb.sol\":2426:2442  buf.idx += i + 1 */\n      dup7\n      mload\n        /* \"contracts/libraries/Pb.sol\":2426:2429  buf */\n      dup8\n      swap1\n        /* \"contracts/libraries/Pb.sol\":2426:2442  buf.idx += i + 1 */\n      tag_94\n      swap1\n      dup4\n      swap1\n      tag_43\n      jump\t// in\n    tag_94:\n      swap1\n      mstore\n      pop\n        /* \"contracts/libraries/Pb.sol\":2460:2468  return v */\n      tag_10\n      swap4\n      pop\n      pop\n      pop\n      pop\n      jump\n        /* \"contracts/libraries/Pb.sol\":2389:2483  if (b & 0x80 == 0) {... */\n    tag_92:\n        /* \"contracts/libraries/Pb.sol\":2194:2197  ++i */\n      tag_95\n      dup2\n      tag_81\n      jump\t// in\n    tag_95:\n      swap1\n      pop\n        /* \"contracts/libraries/Pb.sol\":2173:2493  for (uint i=0; i<10; ++i) {... */\n      jump(tag_87)\n    tag_88:\n      pop\n        /* \"contracts/libraries/Pb.sol\":2502:2510  revert() */\n      0x00\n      dup1\n      revert\n        /* \"contracts/libraries/merkle.sol\":962:1059  function emptyHash() internal pure returns (bytes32) {... */\n    tag_54:\n        /* \"contracts/libraries/merkle.sol\":1039:1051  new bytes(0) */\n      0x40\n      dup1\n      mload\n        /* \"contracts/libraries/merkle.sol\":1006:1013  bytes32 */\n      0x00\n        /* \"contracts/libraries/merkle.sol\":1039:1051  new bytes(0) */\n      dup1\n      dup3\n      mstore\n      0x20\n      dup3\n      add\n      swap3\n      dup4\n      swap1\n      mstore\n        /* \"contracts/libraries/merkle.sol\":1006:1013  bytes32 */\n      swap2\n        /* \"contracts/libraries/merkle.sol\":1032:1052  sha256(new bytes(0)) */\n      0x02\n      swap2\n      tag_99\n      swap2\n      tag_100\n      jump\t// in\n    tag_99:\n      0x20\n      mload(0x40)\n      dup1\n      dup4\n      sub\n      dup2\n      dup6\n      gas\n      staticcall\n      iszero\n      dup1\n      iszero\n      tag_102\n      jumpi\n      returndatasize\n      0x00\n      dup1\n      returndatacopy\n      revert(0x00, returndatasize)\n    tag_102:\n      pop\n      pop\n      pop\n      mload(0x40)\n      returndatasize\n      not(0x1f)\n      0x1f\n      dup3\n      add\n      and\n      dup3\n      add\n      dup1\n      0x40\n      mstore\n      pop\n      dup2\n      add\n      swap1\n      tag_103\n      swap2\n      swap1\n      tag_104\n      jump\t// in\n    tag_103:\n        /* \"contracts/libraries/merkle.sol\":1025:1052  return sha256(new bytes(0)) */\n      swap1\n      pop\n        /* \"contracts/libraries/merkle.sol\":962:1059  function emptyHash() internal pure returns (bytes32) {... */\n      swap1\n      jump\t// out\n        /* \"contracts/libraries/merkle.sol\":1065:1198  function leafHash(bytes memory data) internal pure returns (bytes32) {... */\n    tag_59:\n        /* \"contracts/libraries/merkle.sol\":1125:1132  bytes32 */\n      0x00\n        /* \"contracts/libraries/merkle.sol\":1151:1191  sha256(abi.encodePacked(uint8(0), data)) */\n      0x02\n        /* \"contracts/libraries/merkle.sol\":1181:1182  0 */\n      0x00\n        /* \"contracts/libraries/merkle.sol\":1185:1189  data */\n      dup4\n        /* \"contracts/libraries/merkle.sol\":1158:1190  abi.encodePacked(uint8(0), data) */\n      add(0x20, mload(0x40))\n      tag_106\n      swap3\n      swap2\n      swap1\n      tag_107\n      jump\t// in\n    tag_106:\n      0x40\n      dup1\n      mload\n      not(0x1f)\n      dup2\n      dup5\n      sub\n      add\n      dup2\n      mstore\n      swap1\n      dup3\n      swap1\n      mstore\n        /* \"contracts/libraries/merkle.sol\":1151:1191  sha256(abi.encodePacked(uint8(0), data)) */\n      tag_108\n      swap2\n      tag_100\n      jump\t// in\n    tag_108:\n      0x20\n      mload(0x40)\n      dup1\n      dup4\n      sub\n      dup2\n      dup6\n      gas\n      staticcall\n      iszero\n      dup1\n      iszero\n      tag_110\n      jumpi\n      returndatasize\n      0x00\n      dup1\n      returndatacopy\n      revert(0x00, returndatasize)\n    tag_110:\n      pop\n      pop\n      pop\n      mload(0x40)\n      returndatasize\n      not(0x1f)\n      0x1f\n      dup3\n      add\n      and\n      dup3\n      add\n      dup1\n      0x40\n      mstore\n      pop\n      dup2\n      add\n      swap1\n      tag_111\n      swap2\n      swap1\n      tag_104\n      jump\t// in\n    tag_111:\n        /* \"contracts/libraries/merkle.sol\":1144:1191  return sha256(abi.encodePacked(uint8(0), data)) */\n      swap3\n        /* \"contracts/libraries/merkle.sol\":1065:1198  function leafHash(bytes memory data) internal pure returns (bytes32) {... */\n      swap2\n      pop\n      pop\n      jump\t// out\n        /* \"contracts/libraries/merkle.sol\":1389:1627  function getSplitPoint(uint256 length) internal pure returns (uint256) {... */\n    tag_62:\n        /* \"contracts/libraries/merkle.sol\":1451:1458  uint256 */\n      0x00\n      dup1\n        /* \"contracts/libraries/merkle.sol\":1502:1591  while (length > 1) {... */\n    tag_113:\n        /* \"contracts/libraries/merkle.sol\":1518:1519  1 */\n      0x01\n        /* \"contracts/libraries/merkle.sol\":1509:1515  length */\n      dup4\n        /* \"contracts/libraries/merkle.sol\":1509:1519  length > 1 */\n      gt\n        /* \"contracts/libraries/merkle.sol\":1502:1591  while (length > 1) {... */\n      iszero\n      tag_114\n      jumpi\n        /* \"contracts/libraries/merkle.sol\":1544:1554  length / 2 */\n      tag_115\n        /* \"contracts/libraries/merkle.sol\":1553:1554  2 */\n      0x02\n        /* \"contracts/libraries/merkle.sol\":1544:1550  length */\n      dup5\n        /* \"contracts/libraries/merkle.sol\":1544:1554  length / 2 */\n      tag_38\n      jump\t// in\n    tag_115:\n        /* \"contracts/libraries/merkle.sol\":1535:1554  length = length / 2 */\n      swap3\n      pop\n        /* \"contracts/libraries/merkle.sol\":1568:1580  splitPoint++ */\n      dup1\n      tag_116\n      dup2\n      tag_81\n      jump\t// in\n    tag_116:\n      swap2\n      pop\n      pop\n        /* \"contracts/libraries/merkle.sol\":1502:1591  while (length > 1) {... */\n      jump(tag_113)\n    tag_114:\n        /* \"contracts/libraries/merkle.sol\":1607:1620  2**splitPoint */\n      tag_117\n        /* \"contracts/libraries/merkle.sol\":1610:1620  splitPoint */\n      dup2\n        /* \"contracts/libraries/merkle.sol\":1607:1608  2 */\n      0x02\n        /* \"contracts/libraries/merkle.sol\":1607:1620  2**splitPoint */\n      tag_118\n      jump\t// in\n    tag_117:\n        /* \"contracts/libraries/merkle.sol\":1600:1620  return 2**splitPoint */\n      swap4\n        /* \"contracts/libraries/merkle.sol\":1389:1627  function getSplitPoint(uint256 length) internal pure returns (uint256) {... */\n      swap3\n      pop\n      pop\n      pop\n      jump\t// out\n        /* \"contracts/libraries/merkle.sol\":1204:1383  function innerHash(bytes32 left, bytes32 right)... */\n    tag_85:\n        /* \"contracts/libraries/merkle.sol\":1336:1375  abi.encodePacked(uint8(1), left, right) */\n      mload(0x40)\n      shl(0xf8, 0x01)\n      0x20\n      dup3\n      add\n        /* \"#utility.yul\":1904:1953   */\n      mstore\n        /* \"#utility.yul\":1969:1980   */\n      0x21\n      dup2\n      add\n        /* \"#utility.yul\":1962:1989   */\n      dup4\n      swap1\n      mstore\n        /* \"#utility.yul\":2005:2017   */\n      0x41\n      dup2\n      add\n        /* \"#utility.yul\":1998:2026   */\n      dup3\n      swap1\n      mstore\n        /* \"contracts/libraries/merkle.sol\":1299:1306  bytes32 */\n      0x00\n      swap1\n        /* \"contracts/libraries/merkle.sol\":1329:1376  sha256(abi.encodePacked(uint8(1), left, right)) */\n      0x02\n      swap1\n        /* \"#utility.yul\":2042:2054   */\n      0x61\n      add\n        /* \"contracts/libraries/merkle.sol\":1336:1375  abi.encodePacked(uint8(1), left, right) */\n      0x40\n      dup1\n      mload\n      not(0x1f)\n      dup2\n      dup5\n      sub\n      add\n      dup2\n      mstore\n      swap1\n      dup3\n      swap1\n      mstore\n        /* \"contracts/libraries/merkle.sol\":1329:1376  sha256(abi.encodePacked(uint8(1), left, right)) */\n      tag_122\n      swap2\n      tag_100\n      jump\t// in\n    tag_122:\n      0x20\n      mload(0x40)\n      dup1\n      dup4\n      sub\n      dup2\n      dup6\n      gas\n      staticcall\n      iszero\n      dup1\n      iszero\n      tag_124\n      jumpi\n      returndatasize\n      0x00\n      dup1\n      returndatacopy\n      revert(0x00, returndatasize)\n    tag_124:\n      pop\n      pop\n      pop\n      mload(0x40)\n      returndatasize\n      not(0x1f)\n      0x1f\n      dup3\n      add\n      and\n      dup3\n      add\n      dup1\n      0x40\n      mstore\n      pop\n      dup2\n      add\n      swap1\n      tag_117\n      swap2\n      swap1\n        /* \"#utility.yul\":14:208   */\n    tag_104:\n      0x00\n        /* \"#utility.yul\":137:139   */\n      0x20\n        /* \"#utility.yul\":125:134   */\n      dup3\n        /* \"#utility.yul\":116:123   */\n      dup5\n        /* \"#utility.yul\":112:135   */\n      sub\n        /* \"#utility.yul\":108:140   */\n      slt\n        /* \"#utility.yul\":105:107   */\n      iszero\n      tag_128\n      jumpi\n        /* \"#utility.yul\":158:164   */\n      dup1\n        /* \"#utility.yul\":150:156   */\n      dup2\n        /* \"#utility.yul\":143:165   */\n      revert\n        /* \"#utility.yul\":105:107   */\n    tag_128:\n      pop\n        /* \"#utility.yul\":186:202   */\n      mload\n      swap2\n        /* \"#utility.yul\":95:208   */\n      swap1\n      pop\n      jump\t// out\n        /* \"#utility.yul\":213:1179   */\n    tag_6:\n      0x00\n        /* \"#utility.yul\":334:336   */\n      0x20\n        /* \"#utility.yul\":322:331   */\n      dup3\n        /* \"#utility.yul\":313:320   */\n      dup5\n        /* \"#utility.yul\":309:332   */\n      sub\n        /* \"#utility.yul\":305:337   */\n      slt\n        /* \"#utility.yul\":302:304   */\n      iszero\n      tag_130\n      jumpi\n        /* \"#utility.yul\":355:361   */\n      dup1\n        /* \"#utility.yul\":347:353   */\n      dup2\n        /* \"#utility.yul\":340:362   */\n      revert\n        /* \"#utility.yul\":302:304   */\n    tag_130:\n        /* \"#utility.yul\":400:409   */\n      dup2\n        /* \"#utility.yul\":387:410   */\n      calldataload\n        /* \"#utility.yul\":429:447   */\n      0xffffffffffffffff\n        /* \"#utility.yul\":470:472   */\n      dup1\n        /* \"#utility.yul\":462:468   */\n      dup3\n        /* \"#utility.yul\":459:473   */\n      gt\n        /* \"#utility.yul\":456:458   */\n      iszero\n      tag_131\n      jumpi\n        /* \"#utility.yul\":491:497   */\n      dup3\n        /* \"#utility.yul\":483:489   */\n      dup4\n        /* \"#utility.yul\":476:498   */\n      revert\n        /* \"#utility.yul\":456:458   */\n    tag_131:\n        /* \"#utility.yul\":534:540   */\n      dup2\n        /* \"#utility.yul\":523:532   */\n      dup5\n        /* \"#utility.yul\":519:541   */\n      add\n        /* \"#utility.yul\":509:541   */\n      swap2\n      pop\n        /* \"#utility.yul\":579:586   */\n      dup5\n        /* \"#utility.yul\":572:576   */\n      0x1f\n        /* \"#utility.yul\":568:570   */\n      dup4\n        /* \"#utility.yul\":564:577   */\n      add\n        /* \"#utility.yul\":560:587   */\n      slt\n        /* \"#utility.yul\":550:552   */\n      tag_132\n      jumpi\n        /* \"#utility.yul\":606:612   */\n      dup3\n        /* \"#utility.yul\":598:604   */\n      dup4\n        /* \"#utility.yul\":591:613   */\n      revert\n        /* \"#utility.yul\":550:552   */\n    tag_132:\n        /* \"#utility.yul\":647:649   */\n      dup2\n        /* \"#utility.yul\":634:650   */\n      calldataload\n        /* \"#utility.yul\":669:671   */\n      dup2\n        /* \"#utility.yul\":665:667   */\n      dup2\n        /* \"#utility.yul\":662:672   */\n      gt\n        /* \"#utility.yul\":659:661   */\n      iszero\n      tag_134\n      jumpi\n        /* \"#utility.yul\":675:693   */\n      tag_134\n      tag_135\n      jump\t// in\n    tag_134:\n        /* \"#utility.yul\":750:752   */\n      0x40\n        /* \"#utility.yul\":744:753   */\n      mload\n        /* \"#utility.yul\":718:720   */\n      0x1f\n        /* \"#utility.yul\":804:817   */\n      dup3\n      add\n      not(0x1f)\n        /* \"#utility.yul\":800:822   */\n      swap1\n      dup2\n      and\n        /* \"#utility.yul\":824:826   */\n      0x3f\n        /* \"#utility.yul\":796:827   */\n      add\n        /* \"#utility.yul\":792:832   */\n      and\n        /* \"#utility.yul\":780:833   */\n      dup2\n      add\n      swap1\n        /* \"#utility.yul\":848:866   */\n      dup4\n      dup3\n      gt\n        /* \"#utility.yul\":868:890   */\n      dup2\n      dup4\n      lt\n        /* \"#utility.yul\":845:891   */\n      or\n        /* \"#utility.yul\":842:844   */\n      iszero\n      tag_137\n      jumpi\n        /* \"#utility.yul\":894:912   */\n      tag_137\n      tag_135\n      jump\t// in\n    tag_137:\n        /* \"#utility.yul\":934:944   */\n      dup2\n        /* \"#utility.yul\":930:932   */\n      0x40\n        /* \"#utility.yul\":923:945   */\n      mstore\n        /* \"#utility.yul\":969:971   */\n      dup3\n        /* \"#utility.yul\":961:967   */\n      dup2\n        /* \"#utility.yul\":954:972   */\n      mstore\n        /* \"#utility.yul\":1009:1016   */\n      dup8\n        /* \"#utility.yul\":1004:1006   */\n      0x20\n        /* \"#utility.yul\":999:1001   */\n      dup5\n        /* \"#utility.yul\":995:997   */\n      dup8\n        /* \"#utility.yul\":991:1002   */\n      add\n        /* \"#utility.yul\":987:1007   */\n      add\n        /* \"#utility.yul\":984:1017   */\n      gt\n        /* \"#utility.yul\":981:983   */\n      iszero\n      tag_138\n      jumpi\n        /* \"#utility.yul\":1035:1041   */\n      dup6\n        /* \"#utility.yul\":1027:1033   */\n      dup7\n        /* \"#utility.yul\":1020:1042   */\n      revert\n        /* \"#utility.yul\":981:983   */\n    tag_138:\n        /* \"#utility.yul\":1096:1098   */\n      dup3\n        /* \"#utility.yul\":1091:1093   */\n      0x20\n        /* \"#utility.yul\":1087:1089   */\n      dup7\n        /* \"#utility.yul\":1083:1094   */\n      add\n        /* \"#utility.yul\":1078:1080   */\n      0x20\n        /* \"#utility.yul\":1070:1076   */\n      dup4\n        /* \"#utility.yul\":1066:1081   */\n      add\n        /* \"#utility.yul\":1053:1099   */\n      calldatacopy\n        /* \"#utility.yul\":1119:1134   */\n      swap2\n      dup3\n      add\n        /* \"#utility.yul\":1136:1138   */\n      0x20\n        /* \"#utility.yul\":1115:1139   */\n      add\n        /* \"#utility.yul\":1108:1148   */\n      swap5\n      swap1\n      swap5\n      mstore\n        /* \"#utility.yul\":1123:1129   */\n      swap6\n        /* \"#utility.yul\":292:1179   */\n      swap5\n      pop\n      pop\n      pop\n      pop\n      pop\n      jump\t// out\n        /* \"#utility.yul\":1184:1524   */\n    tag_139:\n      0x00\n        /* \"#utility.yul\":1263:1268   */\n      dup2\n        /* \"#utility.yul\":1257:1269   */\n      mload\n        /* \"#utility.yul\":1287:1290   */\n      dup2\n        /* \"#utility.yul\":1299:1427   */\n    tag_141:\n        /* \"#utility.yul\":1313:1319   */\n      dup2\n        /* \"#utility.yul\":1310:1311   */\n      dup2\n        /* \"#utility.yul\":1307:1320   */\n      lt\n        /* \"#utility.yul\":1299:1427   */\n      iszero\n      tag_143\n      jumpi\n        /* \"#utility.yul\":1410:1414   */\n      0x20\n        /* \"#utility.yul\":1395:1408   */\n      dup2\n      dup6\n      add\n        /* \"#utility.yul\":1391:1415   */\n      dup2\n      add\n        /* \"#utility.yul\":1385:1416   */\n      mload\n        /* \"#utility.yul\":1372:1383   */\n      dup7\n      dup4\n      add\n        /* \"#utility.yul\":1365:1417   */\n      mstore\n        /* \"#utility.yul\":1328:1340   */\n      add\n        /* \"#utility.yul\":1299:1427   */\n      jump(tag_141)\n    tag_143:\n        /* \"#utility.yul\":1445:1451   */\n      dup2\n        /* \"#utility.yul\":1442:1443   */\n      dup2\n        /* \"#utility.yul\":1439:1452   */\n      gt\n        /* \"#utility.yul\":1436:1438   */\n      iszero\n      tag_144\n      jumpi\n        /* \"#utility.yul\":1480:1483   */\n      dup3\n        /* \"#utility.yul\":1471:1477   */\n      dup3\n        /* \"#utility.yul\":1466:1469   */\n      dup7\n        /* \"#utility.yul\":1462:1478   */\n      add\n        /* \"#utility.yul\":1455:1484   */\n      mstore\n        /* \"#utility.yul\":1436:1438   */\n    tag_144:\n      pop\n        /* \"#utility.yul\":1502:1518   */\n      swap3\n      swap1\n      swap3\n      add\n      swap3\n        /* \"#utility.yul\":1233:1524   */\n      swap2\n      pop\n      pop\n      jump\t// out\n        /* \"#utility.yul\":1529:1718   */\n    tag_100:\n      0x00\n        /* \"#utility.yul\":1683:1712   */\n      tag_117\n        /* \"#utility.yul\":1708:1711   */\n      dup3\n        /* \"#utility.yul\":1700:1706   */\n      dup5\n        /* \"#utility.yul\":1683:1712   */\n      tag_139\n      jump\t// in\n        /* \"#utility.yul\":2065:2344   */\n    tag_107:\n        /* \"#utility.yul\":2274:2277   */\n      0xf8\n        /* \"#utility.yul\":2252:2268   */\n      dup4\n      swap1\n      shl\n      not(sub(shl(0xf8, 0x01), 0x01))\n        /* \"#utility.yul\":2248:2284   */\n      and\n        /* \"#utility.yul\":2236:2285   */\n      dup2\n      mstore\n        /* \"#utility.yul\":2065:2344   */\n      0x00\n        /* \"#utility.yul\":2301:2338   */\n      tag_149\n        /* \"#utility.yul\":2335:2336   */\n      0x01\n        /* \"#utility.yul\":2326:2337   */\n      dup4\n      add\n        /* \"#utility.yul\":2318:2324   */\n      dup5\n        /* \"#utility.yul\":2301:2338   */\n      tag_139\n      jump\t// in\n    tag_149:\n        /* \"#utility.yul\":2294:2338   */\n      swap5\n        /* \"#utility.yul\":2226:2344   */\n      swap4\n      pop\n      pop\n      pop\n      pop\n      jump\t// out\n        /* \"#utility.yul\":2531:2659   */\n    tag_43:\n      0x00\n        /* \"#utility.yul\":2602:2603   */\n      dup3\n        /* \"#utility.yul\":2598:2604   */\n      not\n        /* \"#utility.yul\":2595:2596   */\n      dup3\n        /* \"#utility.yul\":2592:2605   */\n      gt\n        /* \"#utility.yul\":2589:2591   */\n      iszero\n      tag_153\n      jumpi\n        /* \"#utility.yul\":2608:2626   */\n      tag_153\n      tag_154\n      jump\t// in\n    tag_153:\n      pop\n        /* \"#utility.yul\":2644:2653   */\n      add\n      swap1\n        /* \"#utility.yul\":2579:2659   */\n      jump\t// out\n        /* \"#utility.yul\":2664:2881   */\n    tag_38:\n      0x00\n        /* \"#utility.yul\":2730:2731   */\n      dup3\n        /* \"#utility.yul\":2720:2722   */\n      tag_156\n      jumpi\n      shl(0xe0, 0x4e487b71)\n        /* \"#utility.yul\":2755:2786   */\n      dup2\n      mstore\n        /* \"#utility.yul\":2809:2813   */\n      0x12\n        /* \"#utility.yul\":2806:2807   */\n      0x04\n        /* \"#utility.yul\":2799:2814   */\n      mstore\n        /* \"#utility.yul\":2837:2841   */\n      0x24\n        /* \"#utility.yul\":2762:2763   */\n      dup2\n        /* \"#utility.yul\":2827:2842   */\n      revert\n        /* \"#utility.yul\":2720:2722   */\n    tag_156:\n      pop\n        /* \"#utility.yul\":2866:2875   */\n      div\n      swap1\n        /* \"#utility.yul\":2710:2881   */\n      jump\t// out\n        /* \"#utility.yul\":2886:3339   */\n    tag_157:\n        /* \"#utility.yul\":2982:2988   */\n      dup1\n        /* \"#utility.yul\":3005:3010   */\n      dup3\n        /* \"#utility.yul\":3019:3333   */\n    tag_159:\n        /* \"#utility.yul\":3068:3069   */\n      0x01\n        /* \"#utility.yul\":3105:3107   */\n      dup1\n        /* \"#utility.yul\":3095:3103   */\n      dup7\n        /* \"#utility.yul\":3092:3108   */\n      gt\n        /* \"#utility.yul\":3082:3084   */\n      tag_162\n      jumpi\n        /* \"#utility.yul\":3112:3117   */\n      pop\n      jump(tag_161)\n        /* \"#utility.yul\":3082:3084   */\n    tag_162:\n        /* \"#utility.yul\":3153:3157   */\n      dup2\n        /* \"#utility.yul\":3148:3151   */\n      dup8\n        /* \"#utility.yul\":3144:3158   */\n      div\n        /* \"#utility.yul\":3138:3142   */\n      dup3\n        /* \"#utility.yul\":3135:3159   */\n      gt\n        /* \"#utility.yul\":3132:3134   */\n      iszero\n      tag_164\n      jumpi\n        /* \"#utility.yul\":3162:3180   */\n      tag_164\n      tag_154\n      jump\t// in\n    tag_164:\n        /* \"#utility.yul\":3212:3214   */\n      dup1\n        /* \"#utility.yul\":3202:3210   */\n      dup7\n        /* \"#utility.yul\":3198:3215   */\n      and\n        /* \"#utility.yul\":3195:3197   */\n      iszero\n      tag_165\n      jumpi\n        /* \"#utility.yul\":3227:3243   */\n      swap2\n      dup2\n      mul\n      swap2\n        /* \"#utility.yul\":3195:3197   */\n    tag_165:\n        /* \"#utility.yul\":3306:3323   */\n      swap5\n      swap1\n      swap5\n      shr\n      swap4\n        /* \"#utility.yul\":3266:3281   */\n      dup1\n      mul\n        /* \"#utility.yul\":3019:3333   */\n      jump(tag_159)\n    tag_161:\n        /* \"#utility.yul\":2963:3339   */\n      swap5\n      pop\n      swap5\n      swap3\n      pop\n      pop\n      pop\n      jump\t// out\n        /* \"#utility.yul\":3344:3483   */\n    tag_118:\n      0x00\n        /* \"#utility.yul\":3433:3477   */\n      tag_117\n      not(0x00)\n        /* \"#utility.yul\":3460:3468   */\n      dup5\n        /* \"#utility.yul\":3454:3458   */\n      dup5\n        /* \"#utility.yul\":3488:4410   */\n      0x00\n        /* \"#utility.yul\":3572:3580   */\n      dup3\n        /* \"#utility.yul\":3562:3564   */\n      tag_170\n      jumpi\n      pop\n        /* \"#utility.yul\":3613:3614   */\n      0x01\n        /* \"#utility.yul\":3627:3632   */\n      jump(tag_117)\n        /* \"#utility.yul\":3562:3564   */\n    tag_170:\n        /* \"#utility.yul\":3661:3665   */\n      dup2\n        /* \"#utility.yul\":3651:3653   */\n      tag_171\n      jumpi\n      pop\n        /* \"#utility.yul\":3698:3699   */\n      0x00\n        /* \"#utility.yul\":3712:3717   */\n      jump(tag_117)\n        /* \"#utility.yul\":3651:3653   */\n    tag_171:\n        /* \"#utility.yul\":3743:3747   */\n      dup2\n        /* \"#utility.yul\":3761:3762   */\n      0x01\n        /* \"#utility.yul\":3756:3815   */\n      dup2\n      eq\n      tag_173\n      jumpi\n        /* \"#utility.yul\":3829:3830   */\n      0x02\n        /* \"#utility.yul\":3824:4007   */\n      dup2\n      eq\n      tag_174\n      jumpi\n        /* \"#utility.yul\":3736:4007   */\n      jump(tag_172)\n        /* \"#utility.yul\":3756:3815   */\n    tag_173:\n        /* \"#utility.yul\":3786:3787   */\n      0x01\n        /* \"#utility.yul\":3777:3787   */\n      swap2\n      pop\n        /* \"#utility.yul\":3800:3805   */\n      pop\n      jump(tag_117)\n        /* \"#utility.yul\":3824:4007   */\n    tag_174:\n        /* \"#utility.yul\":3861:3864   */\n      0xff\n        /* \"#utility.yul\":3851:3859   */\n      dup5\n        /* \"#utility.yul\":3848:3865   */\n      gt\n        /* \"#utility.yul\":3845:3847   */\n      iszero\n      tag_176\n      jumpi\n        /* \"#utility.yul\":3868:3886   */\n      tag_176\n      tag_154\n      jump\t// in\n    tag_176:\n        /* \"#utility.yul\":3924:3925   */\n      0x01\n        /* \"#utility.yul\":3914:3922   */\n      dup5\n        /* \"#utility.yul\":3910:3926   */\n      shl\n        /* \"#utility.yul\":3901:3926   */\n      swap2\n      pop\n        /* \"#utility.yul\":3952:3955   */\n      dup5\n        /* \"#utility.yul\":3945:3950   */\n      dup3\n        /* \"#utility.yul\":3942:3956   */\n      gt\n        /* \"#utility.yul\":3939:3941   */\n      iszero\n      tag_178\n      jumpi\n        /* \"#utility.yul\":3959:3977   */\n      tag_178\n      tag_154\n      jump\t// in\n    tag_178:\n        /* \"#utility.yul\":3992:3997   */\n      pop\n      jump(tag_117)\n        /* \"#utility.yul\":3736:4007   */\n    tag_172:\n      pop\n        /* \"#utility.yul\":4091:4093   */\n      0x20\n        /* \"#utility.yul\":4081:4089   */\n      dup4\n        /* \"#utility.yul\":4078:4094   */\n      lt\n        /* \"#utility.yul\":4072:4075   */\n      0x0133\n        /* \"#utility.yul\":4066:4070   */\n      dup4\n        /* \"#utility.yul\":4063:4076   */\n      lt\n        /* \"#utility.yul\":4059:4095   */\n      and\n        /* \"#utility.yul\":4053:4055   */\n      0x4e\n        /* \"#utility.yul\":4043:4051   */\n      dup5\n        /* \"#utility.yul\":4040:4056   */\n      lt\n        /* \"#utility.yul\":4035:4037   */\n      0x0b\n        /* \"#utility.yul\":4029:4033   */\n      dup5\n        /* \"#utility.yul\":4026:4038   */\n      lt\n        /* \"#utility.yul\":4022:4057   */\n      and\n        /* \"#utility.yul\":4019:4096   */\n      or\n        /* \"#utility.yul\":4016:4018   */\n      iszero\n      tag_179\n      jumpi\n      pop\n        /* \"#utility.yul\":4128:4147   */\n      dup2\n      dup2\n      exp\n        /* \"#utility.yul\":4163:4177   */\n      dup4\n      dup2\n      gt\n        /* \"#utility.yul\":4160:4162   */\n      iszero\n      tag_181\n      jumpi\n        /* \"#utility.yul\":4180:4198   */\n      tag_181\n      tag_154\n      jump\t// in\n    tag_181:\n        /* \"#utility.yul\":4213:4218   */\n      jump(tag_117)\n        /* \"#utility.yul\":4016:4018   */\n    tag_179:\n        /* \"#utility.yul\":4260:4302   */\n      tag_182\n        /* \"#utility.yul\":4298:4301   */\n      dup5\n        /* \"#utility.yul\":4288:4296   */\n      dup5\n        /* \"#utility.yul\":4282:4286   */\n      dup5\n        /* \"#utility.yul\":4279:4280   */\n      0x01\n        /* \"#utility.yul\":4260:4302   */\n      tag_157\n      jump\t// in\n    tag_182:\n        /* \"#utility.yul\":4335:4341   */\n      dup1\n        /* \"#utility.yul\":4330:4333   */\n      dup7\n        /* \"#utility.yul\":4326:4342   */\n      div\n        /* \"#utility.yul\":4317:4324   */\n      dup3\n        /* \"#utility.yul\":4314:4343   */\n      gt\n        /* \"#utility.yul\":4311:4313   */\n      iszero\n      tag_184\n      jumpi\n        /* \"#utility.yul\":4346:4364   */\n      tag_184\n      tag_154\n      jump\t// in\n    tag_184:\n        /* \"#utility.yul\":4384:4404   */\n      mul\n      swap5\n        /* \"#utility.yul\":3552:4410   */\n      swap4\n      pop\n      pop\n      pop\n      pop\n      jump\t// out\n        /* \"#utility.yul\":4415:4583   */\n    tag_91:\n      0x00\n        /* \"#utility.yul\":4521:4522   */\n      dup2\n        /* \"#utility.yul\":4517:4518   */\n      0x00\n        /* \"#utility.yul\":4513:4519   */\n      not\n        /* \"#utility.yul\":4509:4523   */\n      div\n        /* \"#utility.yul\":4506:4507   */\n      dup4\n        /* \"#utility.yul\":4503:4524   */\n      gt\n        /* \"#utility.yul\":4498:4499   */\n      dup3\n        /* \"#utility.yul\":4491:4500   */\n      iszero\n        /* \"#utility.yul\":4484:4501   */\n      iszero\n        /* \"#utility.yul\":4480:4525   */\n      and\n        /* \"#utility.yul\":4477:4479   */\n      iszero\n      tag_187\n      jumpi\n        /* \"#utility.yul\":4528:4546   */\n      tag_187\n      tag_154\n      jump\t// in\n    tag_187:\n      pop\n        /* \"#utility.yul\":4568:4577   */\n      mul\n      swap1\n        /* \"#utility.yul\":4467:4583   */\n      jump\t// out\n        /* \"#utility.yul\":4588:4713   */\n    tag_26:\n      0x00\n        /* \"#utility.yul\":4656:4657   */\n      dup3\n        /* \"#utility.yul\":4653:4654   */\n      dup3\n        /* \"#utility.yul\":4650:4658   */\n      lt\n        /* \"#utility.yul\":4647:4649   */\n      iszero\n      tag_190\n      jumpi\n        /* \"#utility.yul\":4661:4679   */\n      tag_190\n      tag_154\n      jump\t// in\n    tag_190:\n      pop\n        /* \"#utility.yul\":4698:4707   */\n      sub\n      swap1\n        /* \"#utility.yul\":4637:4713   */\n      jump\t// out\n        /* \"#utility.yul\":4718:4853   */\n    tag_81:\n      0x00\n      not(0x00)\n        /* \"#utility.yul\":4778:4795   */\n      dup3\n      eq\n        /* \"#utility.yul\":4775:4777   */\n      iszero\n      tag_193\n      jumpi\n        /* \"#utility.yul\":4798:4816   */\n      tag_193\n      tag_154\n      jump\t// in\n    tag_193:\n      pop\n        /* \"#utility.yul\":4845:4846   */\n      0x01\n        /* \"#utility.yul\":4834:4847   */\n      add\n      swap1\n        /* \"#utility.yul\":4765:4853   */\n      jump\t// out\n        /* \"#utility.yul\":4858:4985   */\n    tag_154:\n        /* \"#utility.yul\":4919:4929   */\n      0x4e487b71\n        /* \"#utility.yul\":4914:4917   */\n      0xe0\n        /* \"#utility.yul\":4910:4930   */\n      shl\n        /* \"#utility.yul\":4907:4908   */\n      0x00\n        /* \"#utility.yul\":4900:4931   */\n      mstore\n        /* \"#utility.yul\":4950:4954   */\n      0x11\n        /* \"#utility.yul\":4947:4948   */\n      0x04\n        /* \"#utility.yul\":4940:4955   */\n      mstore\n        /* \"#utility.yul\":4974:4978   */\n      0x24\n        /* \"#utility.yul\":4971:4972   */\n      0x00\n        /* \"#utility.yul\":4964:4979   */\n      revert\n        /* \"#utility.yul\":4990:5117   */\n    tag_135:\n        /* \"#utility.yul\":5051:5061   */\n      0x4e487b71\n        /* \"#utility.yul\":5046:5049   */\n      0xe0\n        /* \"#utility.yul\":5042:5062   */\n      shl\n        /* \"#utility.yul\":5039:5040   */\n      0x00\n        /* \"#utility.yul\":5032:5063   */\n      mstore\n        /* \"#utility.yul\":5082:5086   */\n      0x41\n        /* \"#utility.yul\":5079:5080   */\n      0x04\n        /* \"#utility.yul\":5072:5087   */\n      mstore\n        /* \"#utility.yul\":5106:5110   */\n      0x24\n        /* \"#utility.yul\":5103:5104   */\n      0x00\n        /* \"#utility.yul\":5096:5111   */\n      revert\n\n    auxdata: 0xa2646970667358221220da225100bec63fefd55517f6e9144acf37c0481108fa93e2de4abb0152d30c7f64736f6c63430008020033\n}\n",
				"bytecode": {
					"linkReferences": {},
					"object": "608060405234801561001057600080fd5b506109b6806100206000396000f3fe608060405234801561001057600080fd5b506004361061002b5760003560e01c8063a16c64e614610030575b600080fd5b61004361003e3660046106a0565b610055565b60405190815260200160405180910390f35b600081516000141561006957506000610121565b60408051600e8082526101e08201909252600091816020015b60608152602001906001900390816100825750506040805180820190915260008082526020820186905291925090805b60208301515183511015610111576100c983610126565b90925090506100d78361016e565b846100e3600185610922565b8151811061010157634e487b7160e01b600052603260045260246000fd5b60200260200101819052506100b2565b61011a84610239565b9450505050505b919050565b600080600061013484610475565b90506101416008826107cf565b925080600716600581111561016657634e487b7160e01b600052602160045260246000fd5b915050915091565b6060600061017b83610475565b9050600081846000015161018f91906107b7565b90508360200151518111156101a357600080fd5b8167ffffffffffffffff8111156101ca57634e487b7160e01b600052604160045260246000fd5b6040519080825280601f01601f1916602001820160405280156101f4576020820181803683370190505b50602080860151865192955091818601919083010160005b8581101561022e5781810151838201526102276020826107b7565b905061020c565b505050935250919050565b60008151600014156102545761024d6104f5565b9050610121565b81516001141561028f5761024d8260008151811061028257634e487b7160e01b600052603260045260246000fd5b6020026020010151610558565b600061029b83516105d0565b905060008167ffffffffffffffff8111156102c657634e487b7160e01b600052604160045260246000fd5b6040519080825280602002602001820160405280156102f957816020015b60608152602001906001900390816102e45790505b509050600082855161030b9190610922565b67ffffffffffffffff81111561033157634e487b7160e01b600052604160045260246000fd5b60405190808252806020026020018201604052801561036457816020015b606081526020019060019003908161034f5790505b50905060005b855181101561044457838110156103d35785818151811061039b57634e487b7160e01b600052603260045260246000fd5b60200260200101518382815181106103c357634e487b7160e01b600052603260045260246000fd5b6020026020010181905250610432565b8581815181106103f357634e487b7160e01b600052603260045260246000fd5b60200260200101518285836104089190610922565b8151811061042657634e487b7160e01b600052603260045260246000fd5b60200260200101819052505b8061043c81610939565b91505061036a565b50600061045083610239565b9050600061045d83610239565b9050610469828261060e565b95505050505050610121565b602080820151825181019091015160009182805b600a8110156104ef5783811a91506104a2816007610903565b82607f16901b8517945081608016600014156104df576104c38160016107b7565b865187906104d29083906107b7565b9052506101219350505050565b6104e881610939565b9050610489565b50600080fd5b60408051600080825260208201928390529160029161051391610783565b602060405180830381855afa158015610530573d6000803e3d6000fd5b5050506040513d601f19601f820116820180604052508101906105539190610688565b905090565b6000600260008360405160200161057092919061078f565b60408051601f198184030181529082905261058a91610783565b602060405180830381855afa1580156105a7573d6000803e3d6000fd5b5050506040513d601f19601f820116820180604052508101906105ca9190610688565b92915050565b6000805b60018311156105fc576105e86002846107cf565b9250806105f481610939565b9150506105d4565b610607816002610835565b9392505050565b604051600160f81b6020820152602181018390526041810182905260009060029060610160408051601f198184030181529082905261064c91610783565b602060405180830381855afa158015610669573d6000803e3d6000fd5b5050506040513d601f19601f8201168201806040525081019061060791905b600060208284031215610699578081fd5b5051919050565b6000602082840312156106b1578081fd5b813567ffffffffffffffff808211156106c8578283fd5b818401915084601f8301126106db578283fd5b8135818111156106ed576106ed61096a565b604051601f8201601f19908116603f011681019083821181831017156107155761071561096a565b8160405282815287602084870101111561072d578586fd5b826020860160208301379182016020019490945295945050505050565b60008151815b8181101561076a5760208185018101518683015201610750565b818111156107785782828601525b509290920192915050565b6000610607828461074a565b60f883901b6001600160f81b031916815260006107af600183018461074a565b949350505050565b600082198211156107ca576107ca610954565b500190565b6000826107ea57634e487b7160e01b81526012600452602481fd5b500490565b80825b6001808611610801575061082c565b81870482111561081357610813610954565b8086161561082057918102915b9490941c9380026107f2565b94509492505050565b6000610607600019848460008261084e57506001610607565b8161085b57506000610607565b8160018114610871576002811461087b576108a8565b6001915050610607565b60ff84111561088c5761088c610954565b6001841b9150848211156108a2576108a2610954565b50610607565b5060208310610133831016604e8410600b84101617156108db575081810a838111156108d6576108d6610954565b610607565b6108e884848460016107ef565b8086048211156108fa576108fa610954565b02949350505050565b600081600019048311821515161561091d5761091d610954565b500290565b60008282101561093457610934610954565b500390565b600060001982141561094d5761094d610954565b5060010190565b634e487b7160e01b600052601160045260246000fd5b634e487b7160e01b600052604160045260246000fdfea2646970667358221220da225100bec63fefd55517f6e9144acf37c0481108fa93e2de4abb0152d30c7f64736f6c63430008020033",
					"opcodes": "PUSH1 0x80 PUSH1 0x40 MSTORE CALLVALUE DUP1 ISZERO PUSH2 0x10 JUMPI PUSH1 0x0 DUP1 REVERT JUMPDEST POP PUSH2 0x9B6 DUP1 PUSH2 0x20 PUSH1 0x0 CODECOPY PUSH1 0x0 RETURN INVALID PUSH1 0x80 PUSH1 0x40 MSTORE CALLVALUE DUP1 ISZERO PUSH2 0x10 JUMPI PUSH1 0x0 DUP1 REVERT JUMPDEST POP PUSH1 0x4 CALLDATASIZE LT PUSH2 0x2B JUMPI PUSH1 0x0 CALLDATALOAD PUSH1 0xE0 SHR DUP1 PUSH4 0xA16C64E6 EQ PUSH2 0x30 JUMPI JUMPDEST PUSH1 0x0 DUP1 REVERT JUMPDEST PUSH2 0x43 PUSH2 0x3E CALLDATASIZE PUSH1 0x4 PUSH2 0x6A0 JUMP JUMPDEST PUSH2 0x55 JUMP JUMPDEST PUSH1 0x40 MLOAD SWAP1 DUP2 MSTORE PUSH1 0x20 ADD PUSH1 0x40 MLOAD DUP1 SWAP2 SUB SWAP1 RETURN JUMPDEST PUSH1 0x0 DUP2 MLOAD PUSH1 0x0 EQ ISZERO PUSH2 0x69 JUMPI POP PUSH1 0x0 PUSH2 0x121 JUMP JUMPDEST PUSH1 0x40 DUP1 MLOAD PUSH1 0xE DUP1 DUP3 MSTORE PUSH2 0x1E0 DUP3 ADD SWAP1 SWAP3 MSTORE PUSH1 0x0 SWAP2 DUP2 PUSH1 0x20 ADD JUMPDEST PUSH1 0x60 DUP2 MSTORE PUSH1 0x20 ADD SWAP1 PUSH1 0x1 SWAP1 SUB SWAP1 DUP2 PUSH2 0x82 JUMPI POP POP PUSH1 0x40 DUP1 MLOAD DUP1 DUP3 ADD SWAP1 SWAP2 MSTORE PUSH1 0x0 DUP1 DUP3 MSTORE PUSH1 0x20 DUP3 ADD DUP7 SWAP1 MSTORE SWAP2 SWAP3 POP SWAP1 DUP1 JUMPDEST PUSH1 0x20 DUP4 ADD MLOAD MLOAD DUP4 MLOAD LT ISZERO PUSH2 0x111 JUMPI PUSH2 0xC9 DUP4 PUSH2 0x126 JUMP JUMPDEST SWAP1 SWAP3 POP SWAP1 POP PUSH2 0xD7 DUP4 PUSH2 0x16E JUMP JUMPDEST DUP5 PUSH2 0xE3 PUSH1 0x1 DUP6 PUSH2 0x922 JUMP JUMPDEST DUP2 MLOAD DUP2 LT PUSH2 0x101 JUMPI PUSH4 0x4E487B71 PUSH1 0xE0 SHL PUSH1 0x0 MSTORE PUSH1 0x32 PUSH1 0x4 MSTORE PUSH1 0x24 PUSH1 0x0 REVERT JUMPDEST PUSH1 0x20 MUL PUSH1 0x20 ADD ADD DUP2 SWAP1 MSTORE POP PUSH2 0xB2 JUMP JUMPDEST PUSH2 0x11A DUP5 PUSH2 0x239 JUMP JUMPDEST SWAP5 POP POP POP POP POP JUMPDEST SWAP2 SWAP1 POP JUMP JUMPDEST PUSH1 0x0 DUP1 PUSH1 0x0 PUSH2 0x134 DUP5 PUSH2 0x475 JUMP JUMPDEST SWAP1 POP PUSH2 0x141 PUSH1 0x8 DUP3 PUSH2 0x7CF JUMP JUMPDEST SWAP3 POP DUP1 PUSH1 0x7 AND PUSH1 0x5 DUP2 GT ISZERO PUSH2 0x166 JUMPI PUSH4 0x4E487B71 PUSH1 0xE0 SHL PUSH1 0x0 MSTORE PUSH1 0x21 PUSH1 0x4 MSTORE PUSH1 0x24 PUSH1 0x0 REVERT JUMPDEST SWAP2 POP POP SWAP2 POP SWAP2 JUMP JUMPDEST PUSH1 0x60 PUSH1 0x0 PUSH2 0x17B DUP4 PUSH2 0x475 JUMP JUMPDEST SWAP1 POP PUSH1 0x0 DUP2 DUP5 PUSH1 0x0 ADD MLOAD PUSH2 0x18F SWAP2 SWAP1 PUSH2 0x7B7 JUMP JUMPDEST SWAP1 POP DUP4 PUSH1 0x20 ADD MLOAD MLOAD DUP2 GT ISZERO PUSH2 0x1A3 JUMPI PUSH1 0x0 DUP1 REVERT JUMPDEST DUP2 PUSH8 0xFFFFFFFFFFFFFFFF DUP2 GT ISZERO PUSH2 0x1CA JUMPI PUSH4 0x4E487B71 PUSH1 0xE0 SHL PUSH1 0x0 MSTORE PUSH1 0x41 PUSH1 0x4 MSTORE PUSH1 0x24 PUSH1 0x0 REVERT JUMPDEST PUSH1 0x40 MLOAD SWAP1 DUP1 DUP3 MSTORE DUP1 PUSH1 0x1F ADD PUSH1 0x1F NOT AND PUSH1 0x20 ADD DUP3 ADD PUSH1 0x40 MSTORE DUP1 ISZERO PUSH2 0x1F4 JUMPI PUSH1 0x20 DUP3 ADD DUP2 DUP1 CALLDATASIZE DUP4 CALLDATACOPY ADD SWAP1 POP JUMPDEST POP PUSH1 0x20 DUP1 DUP7 ADD MLOAD DUP7 MLOAD SWAP3 SWAP6 POP SWAP2 DUP2 DUP7 ADD SWAP2 SWAP1 DUP4 ADD ADD PUSH1 0x0 JUMPDEST DUP6 DUP2 LT ISZERO PUSH2 0x22E JUMPI DUP2 DUP2 ADD MLOAD DUP4 DUP3 ADD MSTORE PUSH2 0x227 PUSH1 0x20 DUP3 PUSH2 0x7B7 JUMP JUMPDEST SWAP1 POP PUSH2 0x20C JUMP JUMPDEST POP POP POP SWAP4 MSTORE POP SWAP2 SWAP1 POP JUMP JUMPDEST PUSH1 0x0 DUP2 MLOAD PUSH1 0x0 EQ ISZERO PUSH2 0x254 JUMPI PUSH2 0x24D PUSH2 0x4F5 JUMP JUMPDEST SWAP1 POP PUSH2 0x121 JUMP JUMPDEST DUP2 MLOAD PUSH1 0x1 EQ ISZERO PUSH2 0x28F JUMPI PUSH2 0x24D DUP3 PUSH1 0x0 DUP2 MLOAD DUP2 LT PUSH2 0x282 JUMPI PUSH4 0x4E487B71 PUSH1 0xE0 SHL PUSH1 0x0 MSTORE PUSH1 0x32 PUSH1 0x4 MSTORE PUSH1 0x24 PUSH1 0x0 REVERT JUMPDEST PUSH1 0x20 MUL PUSH1 0x20 ADD ADD MLOAD PUSH2 0x558 JUMP JUMPDEST PUSH1 0x0 PUSH2 0x29B DUP4 MLOAD PUSH2 0x5D0 JUMP JUMPDEST SWAP1 POP PUSH1 0x0 DUP2 PUSH8 0xFFFFFFFFFFFFFFFF DUP2 GT ISZERO PUSH2 0x2C6 JUMPI PUSH4 0x4E487B71 PUSH1 0xE0 SHL PUSH1 0x0 MSTORE PUSH1 0x41 PUSH1 0x4 MSTORE PUSH1 0x24 PUSH1 0x0 REVERT JUMPDEST PUSH1 0x40 MLOAD SWAP1 DUP1 DUP3 MSTORE DUP1 PUSH1 0x20 MUL PUSH1 0x20 ADD DUP3 ADD PUSH1 0x40 MSTORE DUP1 ISZERO PUSH2 0x2F9 JUMPI DUP2 PUSH1 0x20 ADD JUMPDEST PUSH1 0x60 DUP2 MSTORE PUSH1 0x20 ADD SWAP1 PUSH1 0x1 SWAP1 SUB SWAP1 DUP2 PUSH2 0x2E4 JUMPI SWAP1 POP JUMPDEST POP SWAP1 POP PUSH1 0x0 DUP3 DUP6 MLOAD PUSH2 0x30B SWAP2 SWAP1 PUSH2 0x922 JUMP JUMPDEST PUSH8 0xFFFFFFFFFFFFFFFF DUP2 GT ISZERO PUSH2 0x331 JUMPI PUSH4 0x4E487B71 PUSH1 0xE0 SHL PUSH1 0x0 MSTORE PUSH1 0x41 PUSH1 0x4 MSTORE PUSH1 0x24 PUSH1 0x0 REVERT JUMPDEST PUSH1 0x40 MLOAD SWAP1 DUP1 DUP3 MSTORE DUP1 PUSH1 0x20 MUL PUSH1 0x20 ADD DUP3 ADD PUSH1 0x40 MSTORE DUP1 ISZERO PUSH2 0x364 JUMPI DUP2 PUSH1 0x20 ADD JUMPDEST PUSH1 0x60 DUP2 MSTORE PUSH1 0x20 ADD SWAP1 PUSH1 0x1 SWAP1 SUB SWAP1 DUP2 PUSH2 0x34F JUMPI SWAP1 POP JUMPDEST POP SWAP1 POP PUSH1 0x0 JUMPDEST DUP6 MLOAD DUP2 LT ISZERO PUSH2 0x444 JUMPI DUP4 DUP2 LT ISZERO PUSH2 0x3D3 JUMPI DUP6 DUP2 DUP2 MLOAD DUP2 LT PUSH2 0x39B JUMPI PUSH4 0x4E487B71 PUSH1 0xE0 SHL PUSH1 0x0 MSTORE PUSH1 0x32 PUSH1 0x4 MSTORE PUSH1 0x24 PUSH1 0x0 REVERT JUMPDEST PUSH1 0x20 MUL PUSH1 0x20 ADD ADD MLOAD DUP4 DUP3 DUP2 MLOAD DUP2 LT PUSH2 0x3C3 JUMPI PUSH4 0x4E487B71 PUSH1 0xE0 SHL PUSH1 0x0 MSTORE PUSH1 0x32 PUSH1 0x4 MSTORE PUSH1 0x24 PUSH1 0x0 REVERT JUMPDEST PUSH1 0x20 MUL PUSH1 0x20 ADD ADD DUP2 SWAP1 MSTORE POP PUSH2 0x432 JUMP JUMPDEST DUP6 DUP2 DUP2 MLOAD DUP2 LT PUSH2 0x3F3 JUMPI PUSH4 0x4E487B71 PUSH1 0xE0 SHL PUSH1 0x0 MSTORE PUSH1 0x32 PUSH1 0x4 MSTORE PUSH1 0x24 PUSH1 0x0 REVERT JUMPDEST PUSH1 0x20 MUL PUSH1 0x20 ADD ADD MLOAD DUP3 DUP6 DUP4 PUSH2 0x408 SWAP2 SWAP1 PUSH2 0x922 JUMP JUMPDEST DUP2 MLOAD DUP2 LT PUSH2 0x426 JUMPI PUSH4 0x4E487B71 PUSH1 0xE0 SHL PUSH1 0x0 MSTORE PUSH1 0x32 PUSH1 0x4 MSTORE PUSH1 0x24 PUSH1 0x0 REVERT JUMPDEST PUSH1 0x20 MUL PUSH1 0x20 ADD ADD DUP2 SWAP1 MSTORE POP JUMPDEST DUP1 PUSH2 0x43C DUP2 PUSH2 0x939 JUMP JUMPDEST SWAP2 POP POP PUSH2 0x36A JUMP JUMPDEST POP PUSH1 0x0 PUSH2 0x450 DUP4 PUSH2 0x239 JUMP JUMPDEST SWAP1 POP PUSH1 0x0 PUSH2 0x45D DUP4 PUSH2 0x239 JUMP JUMPDEST SWAP1 POP PUSH2 0x469 DUP3 DUP3 PUSH2 0x60E JUMP JUMPDEST SWAP6 POP POP POP POP POP POP PUSH2 0x121 JUMP JUMPDEST PUSH1 0x20 DUP1 DUP3 ADD MLOAD DUP3 MLOAD DUP2 ADD SWAP1 SWAP2 ADD MLOAD PUSH1 0x0 SWAP2 DUP3 DUP1 JUMPDEST PUSH1 0xA DUP2 LT ISZERO PUSH2 0x4EF JUMPI DUP4 DUP2 BYTE SWAP2 POP PUSH2 0x4A2 DUP2 PUSH1 0x7 PUSH2 0x903 JUMP JUMPDEST DUP3 PUSH1 0x7F AND SWAP1 SHL DUP6 OR SWAP5 POP DUP2 PUSH1 0x80 AND PUSH1 0x0 EQ ISZERO PUSH2 0x4DF JUMPI PUSH2 0x4C3 DUP2 PUSH1 0x1 PUSH2 0x7B7 JUMP JUMPDEST DUP7 MLOAD DUP8 SWAP1 PUSH2 0x4D2 SWAP1 DUP4 SWAP1 PUSH2 0x7B7 JUMP JUMPDEST SWAP1 MSTORE POP PUSH2 0x121 SWAP4 POP POP POP POP JUMP JUMPDEST PUSH2 0x4E8 DUP2 PUSH2 0x939 JUMP JUMPDEST SWAP1 POP PUSH2 0x489 JUMP JUMPDEST POP PUSH1 0x0 DUP1 REVERT JUMPDEST PUSH1 0x40 DUP1 MLOAD PUSH1 0x0 DUP1 DUP3 MSTORE PUSH1 0x20 DUP3 ADD SWAP3 DUP4 SWAP1 MSTORE SWAP2 PUSH1 0x2 SWAP2 PUSH2 0x513 SWAP2 PUSH2 0x783 JUMP JUMPDEST PUSH1 0x20 PUSH1 0x40 MLOAD DUP1 DUP4 SUB DUP2 DUP6 GAS STATICCALL ISZERO DUP1 ISZERO PUSH2 0x530 JUMPI RETURNDATASIZE PUSH1 0x0 DUP1 RETURNDATACOPY RETURNDATASIZE PUSH1 0x0 REVERT JUMPDEST POP POP POP PUSH1 0x40 MLOAD RETURNDATASIZE PUSH1 0x1F NOT PUSH1 0x1F DUP3 ADD AND DUP3 ADD DUP1 PUSH1 0x40 MSTORE POP DUP2 ADD SWAP1 PUSH2 0x553 SWAP2 SWAP1 PUSH2 0x688 JUMP JUMPDEST SWAP1 POP SWAP1 JUMP JUMPDEST PUSH1 0x0 PUSH1 0x2 PUSH1 0x0 DUP4 PUSH1 0x40 MLOAD PUSH1 0x20 ADD PUSH2 0x570 SWAP3 SWAP2 SWAP1 PUSH2 0x78F JUMP JUMPDEST PUSH1 0x40 DUP1 MLOAD PUSH1 0x1F NOT DUP2 DUP5 SUB ADD DUP2 MSTORE SWAP1 DUP3 SWAP1 MSTORE PUSH2 0x58A SWAP2 PUSH2 0x783 JUMP JUMPDEST PUSH1 0x20 PUSH1 0x40 MLOAD DUP1 DUP4 SUB DUP2 DUP6 GAS STATICCALL ISZERO DUP1 ISZERO PUSH2 0x5A7 JUMPI RETURNDATASIZE PUSH1 0x0 DUP1 RETURNDATACOPY RETURNDATASIZE PUSH1 0x0 REVERT JUMPDEST POP POP POP PUSH1 0x40 MLOAD RETURNDATASIZE PUSH1 0x1F NOT PUSH1 0x1F DUP3 ADD AND DUP3 ADD DUP1 PUSH1 0x40 MSTORE POP DUP2 ADD SWAP1 PUSH2 0x5CA SWAP2 SWAP1 PUSH2 0x688 JUMP JUMPDEST SWAP3 SWAP2 POP POP JUMP JUMPDEST PUSH1 0x0 DUP1 JUMPDEST PUSH1 0x1 DUP4 GT ISZERO PUSH2 0x5FC JUMPI PUSH2 0x5E8 PUSH1 0x2 DUP5 PUSH2 0x7CF JUMP JUMPDEST SWAP3 POP DUP1 PUSH2 0x5F4 DUP2 PUSH2 0x939 JUMP JUMPDEST SWAP2 POP POP PUSH2 0x5D4 JUMP JUMPDEST PUSH2 0x607 DUP2 PUSH1 0x2 PUSH2 0x835 JUMP JUMPDEST SWAP4 SWAP3 POP POP POP JUMP JUMPDEST PUSH1 0x40 MLOAD PUSH1 0x1 PUSH1 0xF8 SHL PUSH1 0x20 DUP3 ADD MSTORE PUSH1 0x21 DUP2 ADD DUP4 SWAP1 MSTORE PUSH1 0x41 DUP2 ADD DUP3 SWAP1 MSTORE PUSH1 0x0 SWAP1 PUSH1 0x2 SWAP1 PUSH1 0x61 ADD PUSH1 0x40 DUP1 MLOAD PUSH1 0x1F NOT DUP2 DUP5 SUB ADD DUP2 MSTORE SWAP1 DUP3 SWAP1 MSTORE PUSH2 0x64C SWAP2 PUSH2 0x783 JUMP JUMPDEST PUSH1 0x20 PUSH1 0x40 MLOAD DUP1 DUP4 SUB DUP2 DUP6 GAS STATICCALL ISZERO DUP1 ISZERO PUSH2 0x669 JUMPI RETURNDATASIZE PUSH1 0x0 DUP1 RETURNDATACOPY RETURNDATASIZE PUSH1 0x0 REVERT JUMPDEST POP POP POP PUSH1 0x40 MLOAD RETURNDATASIZE PUSH1 0x1F NOT PUSH1 0x1F DUP3 ADD AND DUP3 ADD DUP1 PUSH1 0x40 MSTORE POP DUP2 ADD SWAP1 PUSH2 0x607 SWAP2 SWAP1 JUMPDEST PUSH1 0x0 PUSH1 0x20 DUP3 DUP5 SUB SLT ISZERO PUSH2 0x699 JUMPI DUP1 DUP2 REVERT JUMPDEST POP MLOAD SWAP2 SWAP1 POP JUMP JUMPDEST PUSH1 0x0 PUSH1 0x20 DUP3 DUP5 SUB SLT ISZERO PUSH2 0x6B1 JUMPI DUP1 DUP2 REVERT JUMPDEST DUP2 CALLDATALOAD PUSH8 0xFFFFFFFFFFFFFFFF DUP1 DUP3 GT ISZERO PUSH2 0x6C8 JUMPI DUP3 DUP4 REVERT JUMPDEST DUP2 DUP5 ADD SWAP2 POP DUP5 PUSH1 0x1F DUP4 ADD SLT PUSH2 0x6DB JUMPI DUP3 DUP4 REVERT JUMPDEST DUP2 CALLDATALOAD DUP2 DUP2 GT ISZERO PUSH2 0x6ED JUMPI PUSH2 0x6ED PUSH2 0x96A JUMP JUMPDEST PUSH1 0x40 MLOAD PUSH1 0x1F DUP3 ADD PUSH1 0x1F NOT SWAP1 DUP2 AND PUSH1 0x3F ADD AND DUP2 ADD SWAP1 DUP4 DUP3 GT DUP2 DUP4 LT OR ISZERO PUSH2 0x715 JUMPI PUSH2 0x715 PUSH2 0x96A JUMP JUMPDEST DUP2 PUSH1 0x40 MSTORE DUP3 DUP2 MSTORE DUP8 PUSH1 0x20 DUP5 DUP8 ADD ADD GT ISZERO PUSH2 0x72D JUMPI DUP6 DUP7 REVERT JUMPDEST DUP3 PUSH1 0x20 DUP7 ADD PUSH1 0x20 DUP4 ADD CALLDATACOPY SWAP2 DUP3 ADD PUSH1 0x20 ADD SWAP5 SWAP1 SWAP5 MSTORE SWAP6 SWAP5 POP POP POP POP POP JUMP JUMPDEST PUSH1 0x0 DUP2 MLOAD DUP2 JUMPDEST DUP2 DUP2 LT ISZERO PUSH2 0x76A JUMPI PUSH1 0x20 DUP2 DUP6 ADD DUP2 ADD MLOAD DUP7 DUP4 ADD MSTORE ADD PUSH2 0x750 JUMP JUMPDEST DUP2 DUP2 GT ISZERO PUSH2 0x778 JUMPI DUP3 DUP3 DUP7 ADD MSTORE JUMPDEST POP SWAP3 SWAP1 SWAP3 ADD SWAP3 SWAP2 POP POP JUMP JUMPDEST PUSH1 0x0 PUSH2 0x607 DUP3 DUP5 PUSH2 0x74A JUMP JUMPDEST PUSH1 0xF8 DUP4 SWAP1 SHL PUSH1 0x1 PUSH1 0x1 PUSH1 0xF8 SHL SUB NOT AND DUP2 MSTORE PUSH1 0x0 PUSH2 0x7AF PUSH1 0x1 DUP4 ADD DUP5 PUSH2 0x74A JUMP JUMPDEST SWAP5 SWAP4 POP POP POP POP JUMP JUMPDEST PUSH1 0x0 DUP3 NOT DUP3 GT ISZERO PUSH2 0x7CA JUMPI PUSH2 0x7CA PUSH2 0x954 JUMP JUMPDEST POP ADD SWAP1 JUMP JUMPDEST PUSH1 0x0 DUP3 PUSH2 0x7EA JUMPI PUSH4 0x4E487B71 PUSH1 0xE0 SHL DUP2 MSTORE PUSH1 0x12 PUSH1 0x4 MSTORE PUSH1 0x24 DUP2 REVERT JUMPDEST POP DIV SWAP1 JUMP JUMPDEST DUP1 DUP3 JUMPDEST PUSH1 0x1 DUP1 DUP7 GT PUSH2 0x801 JUMPI POP PUSH2 0x82C JUMP JUMPDEST DUP2 DUP8 DIV DUP3 GT ISZERO PUSH2 0x813 JUMPI PUSH2 0x813 PUSH2 0x954 JUMP JUMPDEST DUP1 DUP7 AND ISZERO PUSH2 0x820 JUMPI SWAP2 DUP2 MUL SWAP2 JUMPDEST SWAP5 SWAP1 SWAP5 SHR SWAP4 DUP1 MUL PUSH2 0x7F2 JUMP JUMPDEST SWAP5 POP SWAP5 SWAP3 POP POP POP JUMP JUMPDEST PUSH1 0x0 PUSH2 0x607 PUSH1 0x0 NOT DUP5 DUP5 PUSH1 0x0 DUP3 PUSH2 0x84E JUMPI POP PUSH1 0x1 PUSH2 0x607 JUMP JUMPDEST DUP2 PUSH2 0x85B JUMPI POP PUSH1 0x0 PUSH2 0x607 JUMP JUMPDEST DUP2 PUSH1 0x1 DUP2 EQ PUSH2 0x871 JUMPI PUSH1 0x2 DUP2 EQ PUSH2 0x87B JUMPI PUSH2 0x8A8 JUMP JUMPDEST PUSH1 0x1 SWAP2 POP POP PUSH2 0x607 JUMP JUMPDEST PUSH1 0xFF DUP5 GT ISZERO PUSH2 0x88C JUMPI PUSH2 0x88C PUSH2 0x954 JUMP JUMPDEST PUSH1 0x1 DUP5 SHL SWAP2 POP DUP5 DUP3 GT ISZERO PUSH2 0x8A2 JUMPI PUSH2 0x8A2 PUSH2 0x954 JUMP JUMPDEST POP PUSH2 0x607 JUMP JUMPDEST POP PUSH1 0x20 DUP4 LT PUSH2 0x133 DUP4 LT AND PUSH1 0x4E DUP5 LT PUSH1 0xB DUP5 LT AND OR ISZERO PUSH2 0x8DB JUMPI POP DUP2 DUP2 EXP DUP4 DUP2 GT ISZERO PUSH2 0x8D6 JUMPI PUSH2 0x8D6 PUSH2 0x954 JUMP JUMPDEST PUSH2 0x607 JUMP JUMPDEST PUSH2 0x8E8 DUP5 DUP5 DUP5 PUSH1 0x1 PUSH2 0x7EF JUMP JUMPDEST DUP1 DUP7 DIV DUP3 GT ISZERO PUSH2 0x8FA JUMPI PUSH2 0x8FA PUSH2 0x954 JUMP JUMPDEST MUL SWAP5 SWAP4 POP POP POP POP JUMP JUMPDEST PUSH1 0x0 DUP2 PUSH1 0x0 NOT DIV DUP4 GT DUP3 ISZERO ISZERO AND ISZERO PUSH2 0x91D JUMPI PUSH2 0x91D PUSH2 0x954 JUMP JUMPDEST POP MUL SWAP1 JUMP JUMPDEST PUSH1 0x0 DUP3 DUP3 LT ISZERO PUSH2 0x934 JUMPI PUSH2 0x934 PUSH2 0x954 JUMP JUMPDEST POP SUB SWAP1 JUMP JUMPDEST PUSH1 0x0 PUSH1 0x0 NOT DUP3 EQ ISZERO PUSH2 0x94D JUMPI PUSH2 0x94D PUSH2 0x954 JUMP JUMPDEST POP PUSH1 0x1 ADD SWAP1 JUMP JUMPDEST PUSH4 0x4E487B71 PUSH1 0xE0 SHL PUSH1 0x0 MSTORE PUSH1 0x11 PUSH1 0x4 MSTORE PUSH1 0x24 PUSH1 0x0 REVERT JUMPDEST PUSH4 0x4E487B71 PUSH1 0xE0 SHL PUSH1 0x0 MSTORE PUSH1 0x41 PUSH1 0x4 MSTORE PUSH1 0x24 PUSH1 0x0 REVERT INVALID LOG2 PUSH5 0x6970667358 0x22 SLT KECCAK256 0xDA 0x22 MLOAD STOP 0xBE 0xC6 EXTCODEHASH 0xEF 0xD5 SSTORE OR 0xF6 0xE9 EQ 0x4A 0xCF CALLDATACOPY 0xC0 0x48 GT ADDMOD STATICCALL SWAP4 0xE2 0xDE 0x4A 0xBB ADD MSTORE 0xD3 0xC PUSH32 0x64736F6C63430008020033000000000000000000000000000000000000000000 "
				},
				"gasEstimates": {
					"creation": {
						"codeDepositCost": "497200",
						"executionCost": "530",
						"totalCost": "497730"
					},
					"external": {
						"getBlockHash(bytes)": "infinite"
					}
				},
				"methodIdentifiers": {
					"getBlockHash(bytes)": "a16c64e6"
				}
			},
			"storageLayout": {
				"storage": [],
				"types": null
			},
			"userdoc": {
				"kind": "user",
				"methods": {},
				"version": 1
			}
		}
	}
}