{
	"contracts/BHVF.sol": {
		"BHVF": {
			"abi": [
				{
					"inputs": [
						{
							"internalType": "bytes",
							"name": "raw",
							"type": "bytes"
						}
					],
					"name": "getBlockHash",
					"outputs": [
						{
							"internalType": "bytes32",
							"name": "",
							"type": "bytes32"
						}
					],
					"stateMutability": "pure",
					"type": "function"
				},
				{
					"inputs": [
						{
							"internalType": "bytes",
							"name": "raw",
							"type": "bytes"
						}
					],
					"name": "getHeader",
					"outputs": [
						{
							"components": [
								{
									"components": [
										{
											"internalType": "uint64",
											"name": "block",
											"type": "uint64"
										},
										{
											"internalType": "uint64",
											"name": "app",
											"type": "uint64"
										}
									],
									"internalType": "struct PbHeader.Version",
									"name": "version",
									"type": "tuple"
								},
								{
									"internalType": "string",
									"name": "chainId",
									"type": "string"
								},
								{
									"internalType": "uint64",
									"name": "height",
									"type": "uint64"
								},
								{
									"internalType": "uint64",
									"name": "time",
									"type": "uint64"
								},
								{
									"components": [
										{
											"internalType": "bytes",
											"name": "hash",
											"type": "bytes"
										},
										{
											"components": [
												{
													"internalType": "uint32",
													"name": "total",
													"type": "uint32"
												},
												{
													"internalType": "bytes",
													"name": "hash",
													"type": "bytes"
												}
											],
											"internalType": "struct PbHeader.PartSetHeader",
											"name": "partSetHeader",
											"type": "tuple"
										}
									],
									"internalType": "struct PbHeader.BlockID",
									"name": "lastBlockId",
									"type": "tuple"
								},
								{
									"internalType": "bytes",
									"name": "lastCommitHash",
									"type": "bytes"
								},
								{
									"internalType": "bytes",
									"name": "dataHash",
									"type": "bytes"
								},
								{
									"internalType": "bytes",
									"name": "validatorsHash",
									"type": "bytes"
								},
								{
									"internalType": "bytes",
									"name": "nextValidatorsHash",
									"type": "bytes"
								},
								{
									"internalType": "bytes",
									"name": "consensusHash",
									"type": "bytes"
								},
								{
									"internalType": "bytes",
									"name": "appHash",
									"type": "bytes"
								},
								{
									"internalType": "bytes",
									"name": "lastResultsHash",
									"type": "bytes"
								},
								{
									"internalType": "bytes",
									"name": "evidenceHash",
									"type": "bytes"
								},
								{
									"internalType": "bytes",
									"name": "proposerAddress",
									"type": "bytes"
								}
							],
							"internalType": "struct PbHeader.Header",
							"name": "",
							"type": "tuple"
						}
					],
					"stateMutability": "pure",
					"type": "function"
				}
			],
			"devdoc": {
				"kind": "dev",
				"methods": {},
				"version": 1
			},
			"evm": {
				"assembly": "    /* \"contracts/BHVF.sol\":155:826  contract BHVF {... */\n  mstore(0x40, 0x80)\n  callvalue\n  dup1\n  iszero\n  tag_1\n  jumpi\n  0x00\n  dup1\n  revert\ntag_1:\n  pop\n  dataSize(sub_0)\n  dup1\n  dataOffset(sub_0)\n  0x00\n  codecopy\n  0x00\n  return\nstop\n\nsub_0: assembly {\n        /* \"contracts/BHVF.sol\":155:826  contract BHVF {... */\n      mstore(0x40, 0x80)\n      callvalue\n      dup1\n      iszero\n      tag_1\n      jumpi\n      0x00\n      dup1\n      revert\n    tag_1:\n      pop\n      jumpi(tag_2, lt(calldatasize, 0x04))\n      shr(0xe0, calldataload(0x00))\n      dup1\n      0x111bdd38\n      eq\n      tag_3\n      jumpi\n      dup1\n      0xa16c64e6\n      eq\n      tag_4\n      jumpi\n    tag_2:\n      0x00\n      dup1\n      revert\n        /* \"contracts/BHVF.sol\":726:823  function getHeader(bytes memory raw) public pure returns (PbHeader.Header memory){... */\n    tag_3:\n      tag_5\n      tag_6\n      calldatasize\n      0x04\n      tag_7\n      jump\t// in\n    tag_6:\n      tag_8\n      jump\t// in\n    tag_5:\n      mload(0x40)\n      tag_9\n      swap2\n      swap1\n      tag_10\n      jump\t// in\n    tag_9:\n      mload(0x40)\n      dup1\n      swap2\n      sub\n      swap1\n      return\n        /* \"contracts/BHVF.sol\":245:720  function getBlockHash(bytes memory raw) public pure returns (bytes32) {... */\n    tag_4:\n      tag_11\n      tag_12\n      calldatasize\n      0x04\n      tag_7\n      jump\t// in\n    tag_12:\n      tag_13\n      jump\t// in\n    tag_11:\n      mload(0x40)\n        /* \"#utility.yul\":3437:3462   */\n      swap1\n      dup2\n      mstore\n        /* \"#utility.yul\":3425:3427   */\n      0x20\n        /* \"#utility.yul\":3410:3428   */\n      add\n        /* \"contracts/BHVF.sol\":245:720  function getBlockHash(bytes memory raw) public pure returns (bytes32) {... */\n      tag_9\n        /* \"#utility.yul\":3392:3468   */\n      jump\n        /* \"contracts/BHVF.sol\":726:823  function getHeader(bytes memory raw) public pure returns (PbHeader.Header memory){... */\n    tag_8:\n        /* \"contracts/BHVF.sol\":784:806  PbHeader.Header memory */\n      tag_16\n      tag_17\n      jump\t// in\n    tag_16:\n        /* \"contracts/BHVF.sol\":726:823  function getHeader(bytes memory raw) public pure returns (PbHeader.Header memory){... */\n      swap2\n      swap1\n      pop\n      jump\t// out\n        /* \"contracts/BHVF.sol\":245:720  function getBlockHash(bytes memory raw) public pure returns (bytes32) {... */\n    tag_13:\n        /* \"contracts/BHVF.sol\":306:313  bytes32 */\n      0x00\n        /* \"contracts/BHVF.sol\":329:332  raw */\n      dup2\n        /* \"contracts/BHVF.sol\":329:339  raw.length */\n      mload\n        /* \"contracts/BHVF.sol\":343:344  0 */\n      0x00\n        /* \"contracts/BHVF.sol\":329:344  raw.length == 0 */\n      eq\n        /* \"contracts/BHVF.sol\":325:388  if (raw.length == 0) {... */\n      iszero\n      tag_20\n      jumpi\n      pop\n        /* \"contracts/BHVF.sol\":375:376  0 */\n      0x00\n        /* \"contracts/BHVF.sol\":360:377  return bytes32(0) */\n      jump(tag_16)\n        /* \"contracts/BHVF.sol\":325:388  if (raw.length == 0) {... */\n    tag_20:\n        /* \"contracts/BHVF.sol\":422:437  new bytes[](14) */\n      0x40\n      dup1\n      mload\n        /* \"contracts/BHVF.sol\":434:436  14 */\n      0x0e\n        /* \"contracts/BHVF.sol\":422:437  new bytes[](14) */\n      dup1\n      dup3\n      mstore\n      0x01e0\n      dup3\n      add\n      swap1\n      swap3\n      mstore\n        /* \"contracts/BHVF.sol\":398:419  bytes[] memory leaves */\n      0x00\n      swap2\n        /* \"contracts/BHVF.sol\":422:437  new bytes[](14) */\n      dup2\n      0x20\n      add\n    tag_23:\n      0x60\n      dup2\n      mstore\n      0x20\n      add\n      swap1\n      0x01\n      swap1\n      sub\n      swap1\n      dup2\n      tag_23\n      jumpi\n      pop\n      pop\n      0x40\n      dup1\n      mload\n      dup1\n      dup3\n      add\n      swap1\n      swap2\n      mstore\n      0x00\n      dup1\n      dup3\n      mstore\n      0x20\n      dup3\n      add\n        /* \"contracts/libraries/Pb.sol\":474:485  buf.b = raw */\n      dup7\n      swap1\n      mstore\n        /* \"contracts/BHVF.sol\":398:437  bytes[] memory leaves = new bytes[](14) */\n      swap2\n      swap3\n      pop\n      swap1\n      dup1\n        /* \"contracts/BHVF.sol\":545:664  while (buf.hasMore()) {... */\n    tag_26:\n        /* \"contracts/libraries/Pb.sol\":649:654  buf.b */\n      0x20\n      dup4\n      add\n      mload\n        /* \"contracts/libraries/Pb.sol\":649:661  buf.b.length */\n      mload\n        /* \"contracts/libraries/Pb.sol\":639:646  buf.idx */\n      dup4\n      mload\n        /* \"contracts/libraries/Pb.sol\":639:661  buf.idx < buf.b.length */\n      lt\n        /* \"contracts/BHVF.sol\":545:664  while (buf.hasMore()) {... */\n      iszero\n      tag_27\n      jumpi\n        /* \"contracts/BHVF.sol\":595:607  buf.decKey() */\n      tag_30\n        /* \"contracts/BHVF.sol\":595:598  buf */\n      dup4\n        /* \"contracts/BHVF.sol\":595:605  buf.decKey */\n      tag_31\n        /* \"contracts/BHVF.sol\":595:607  buf.decKey() */\n      jump\t// in\n    tag_30:\n        /* \"contracts/BHVF.sol\":581:607  (tag, wire) = buf.decKey() */\n      swap1\n      swap3\n      pop\n      swap1\n      pop\n        /* \"contracts/BHVF.sol\":639:653  buf.decBytes() */\n      tag_32\n        /* \"contracts/BHVF.sol\":639:642  buf */\n      dup4\n        /* \"contracts/BHVF.sol\":639:651  buf.decBytes */\n      tag_33\n        /* \"contracts/BHVF.sol\":639:653  buf.decBytes() */\n      jump\t// in\n    tag_32:\n        /* \"contracts/BHVF.sol\":621:627  leaves */\n      dup5\n        /* \"contracts/BHVF.sol\":628:635  tag - 1 */\n      tag_34\n        /* \"contracts/BHVF.sol\":634:635  1 */\n      0x01\n        /* \"contracts/BHVF.sol\":628:631  tag */\n      dup6\n        /* \"contracts/BHVF.sol\":628:635  tag - 1 */\n      tag_35\n      jump\t// in\n    tag_34:\n        /* \"contracts/BHVF.sol\":621:636  leaves[tag - 1] */\n      dup2\n      mload\n      dup2\n      lt\n      tag_36\n      jumpi\n      mstore(0x00, shl(0xe0, 0x4e487b71))\n      mstore(0x04, 0x32)\n      revert(0x00, 0x24)\n    tag_36:\n      0x20\n      mul\n      0x20\n      add\n      add\n        /* \"contracts/BHVF.sol\":621:653  leaves[tag - 1] = buf.decBytes() */\n      dup2\n      swap1\n      mstore\n      pop\n        /* \"contracts/BHVF.sol\":545:664  while (buf.hasMore()) {... */\n      jump(tag_26)\n    tag_27:\n        /* \"contracts/BHVF.sol\":680:713  Merkle.hashFromByteSlices(leaves) */\n      tag_37\n        /* \"contracts/BHVF.sol\":706:712  leaves */\n      dup5\n        /* \"contracts/BHVF.sol\":680:705  Merkle.hashFromByteSlices */\n      tag_38\n        /* \"contracts/BHVF.sol\":680:713  Merkle.hashFromByteSlices(leaves) */\n      jump\t// in\n    tag_37:\n        /* \"contracts/BHVF.sol\":673:713  return Merkle.hashFromByteSlices(leaves) */\n      swap7\n        /* \"contracts/BHVF.sol\":245:720  function getBlockHash(bytes memory raw) public pure returns (bytes32) {... */\n      swap6\n      pop\n      pop\n      pop\n      pop\n      pop\n      pop\n      jump\t// out\n        /* \"contracts/libraries/Pb.sol\":722:906  function decKey(Buffer memory buf) internal pure returns (uint tag, WireType wiretype) {... */\n    tag_31:\n        /* \"contracts/libraries/Pb.sol\":780:788  uint tag */\n      0x00\n        /* \"contracts/libraries/Pb.sol\":790:807  WireType wiretype */\n      dup1\n        /* \"contracts/libraries/Pb.sol\":819:825  uint v */\n      0x00\n        /* \"contracts/libraries/Pb.sol\":828:842  decVarint(buf) */\n      tag_44\n        /* \"contracts/libraries/Pb.sol\":838:841  buf */\n      dup5\n        /* \"contracts/libraries/Pb.sol\":828:837  decVarint */\n      tag_45\n        /* \"contracts/libraries/Pb.sol\":828:842  decVarint(buf) */\n      jump\t// in\n    tag_44:\n        /* \"contracts/libraries/Pb.sol\":819:842  uint v = decVarint(buf) */\n      swap1\n      pop\n        /* \"contracts/libraries/Pb.sol\":858:863  v / 8 */\n      tag_46\n        /* \"contracts/libraries/Pb.sol\":862:863  8 */\n      0x08\n        /* \"contracts/libraries/Pb.sol\":819:842  uint v = decVarint(buf) */\n      dup3\n        /* \"contracts/libraries/Pb.sol\":858:863  v / 8 */\n      tag_47\n      jump\t// in\n    tag_46:\n        /* \"contracts/libraries/Pb.sol\":852:863  tag = v / 8 */\n      swap3\n      pop\n        /* \"contracts/libraries/Pb.sol\":893:894  v */\n      dup1\n        /* \"contracts/libraries/Pb.sol\":897:898  7 */\n      0x07\n        /* \"contracts/libraries/Pb.sol\":893:898  v & 7 */\n      and\n        /* \"contracts/libraries/Pb.sol\":884:899  WireType(v & 7) */\n      0x05\n      dup2\n      gt\n      iszero\n      tag_48\n      jumpi\n      mstore(0x00, shl(0xe0, 0x4e487b71))\n      mstore(0x04, 0x21)\n      revert(0x00, 0x24)\n    tag_48:\n        /* \"contracts/libraries/Pb.sol\":873:899  wiretype = WireType(v & 7) */\n      swap2\n      pop\n        /* \"contracts/libraries/Pb.sol\":722:906  function decKey(Buffer memory buf) internal pure returns (uint tag, WireType wiretype) {... */\n      pop\n      swap2\n      pop\n      swap2\n      jump\t// out\n        /* \"contracts/libraries/Pb.sol\":2606:3265  function decBytes(Buffer memory buf) internal pure returns (bytes memory b) {... */\n    tag_33:\n        /* \"contracts/libraries/Pb.sol\":2666:2680  bytes memory b */\n      0x60\n        /* \"contracts/libraries/Pb.sol\":2692:2700  uint len */\n      0x00\n        /* \"contracts/libraries/Pb.sol\":2703:2717  decVarint(buf) */\n      tag_50\n        /* \"contracts/libraries/Pb.sol\":2713:2716  buf */\n      dup4\n        /* \"contracts/libraries/Pb.sol\":2703:2712  decVarint */\n      tag_45\n        /* \"contracts/libraries/Pb.sol\":2703:2717  decVarint(buf) */\n      jump\t// in\n    tag_50:\n        /* \"contracts/libraries/Pb.sol\":2692:2717  uint len = decVarint(buf) */\n      swap1\n      pop\n        /* \"contracts/libraries/Pb.sol\":2727:2735  uint end */\n      0x00\n        /* \"contracts/libraries/Pb.sol\":2748:2751  len */\n      dup2\n        /* \"contracts/libraries/Pb.sol\":2738:2741  buf */\n      dup5\n        /* \"contracts/libraries/Pb.sol\":2738:2745  buf.idx */\n      0x00\n      add\n      mload\n        /* \"contracts/libraries/Pb.sol\":2738:2751  buf.idx + len */\n      tag_51\n      swap2\n      swap1\n      tag_52\n      jump\t// in\n    tag_51:\n        /* \"contracts/libraries/Pb.sol\":2727:2751  uint end = buf.idx + len */\n      swap1\n      pop\n        /* \"contracts/libraries/Pb.sol\":2776:2779  buf */\n      dup4\n        /* \"contracts/libraries/Pb.sol\":2776:2781  buf.b */\n      0x20\n      add\n      mload\n        /* \"contracts/libraries/Pb.sol\":2776:2788  buf.b.length */\n      mload\n        /* \"contracts/libraries/Pb.sol\":2769:2772  end */\n      dup2\n        /* \"contracts/libraries/Pb.sol\":2769:2788  end <= buf.b.length */\n      gt\n      iszero\n        /* \"contracts/libraries/Pb.sol\":2761:2789  require(end <= buf.b.length) */\n      tag_53\n      jumpi\n      0x00\n      dup1\n      revert\n    tag_53:\n        /* \"contracts/libraries/Pb.sol\":2832:2835  len */\n      dup2\n        /* \"contracts/libraries/Pb.sol\":2822:2836  new bytes(len) */\n      0xffffffffffffffff\n      dup2\n      gt\n      iszero\n      tag_54\n      jumpi\n      mstore(0x00, shl(0xe0, 0x4e487b71))\n      mstore(0x04, 0x41)\n      revert(0x00, 0x24)\n    tag_54:\n      mload(0x40)\n      swap1\n      dup1\n      dup3\n      mstore\n      dup1\n      0x1f\n      add\n      not(0x1f)\n      and\n      0x20\n      add\n      dup3\n      add\n      0x40\n      mstore\n      dup1\n      iszero\n      tag_55\n      jumpi\n      0x20\n      dup3\n      add\n      dup2\n      dup1\n      calldatasize\n      dup4\n      calldatacopy\n      add\n      swap1\n      pop\n    tag_55:\n      pop\n        /* \"contracts/libraries/Pb.sol\":2866:2871  buf.b */\n      0x20\n      dup1\n      dup7\n      add\n      mload\n        /* \"contracts/libraries/Pb.sol\":2961:2968  buf.idx */\n      dup7\n      mload\n        /* \"contracts/libraries/Pb.sol\":2818:2836  b = new bytes(len) */\n      swap3\n      swap6\n      pop\n        /* \"contracts/libraries/Pb.sol\":2866:2871  buf.b */\n      swap2\n        /* \"contracts/libraries/Pb.sol\":3011:3021  add(b, 32) */\n      dup2\n      dup7\n      add\n      swap2\n        /* \"contracts/libraries/Pb.sol\":3047:3076  add(add(bufB, 32), bufBStart) */\n      swap1\n      dup4\n      add\n      add\n        /* \"contracts/libraries/Pb.sol\":2846:2863  bytes memory bufB */\n      0x00\n        /* \"contracts/libraries/Pb.sol\":3095:3236  for (uint i=0; i<len; i+=32) {... */\n    tag_56:\n        /* \"contracts/libraries/Pb.sol\":3112:3115  len */\n      dup6\n        /* \"contracts/libraries/Pb.sol\":3110:3111  i */\n      dup2\n        /* \"contracts/libraries/Pb.sol\":3110:3115  i<len */\n      lt\n        /* \"contracts/libraries/Pb.sol\":3095:3236  for (uint i=0; i<len; i+=32) {... */\n      iszero\n      tag_57\n      jumpi\n        /* \"contracts/libraries/Pb.sol\":3193:3210  add(bufBStart, i) */\n      dup2\n      dup2\n      add\n        /* \"contracts/libraries/Pb.sol\":3187:3211  mload(add(bufBStart, i)) */\n      mload\n        /* \"contracts/libraries/Pb.sol\":3171:3185  add(bStart, i) */\n      dup4\n      dup3\n      add\n        /* \"contracts/libraries/Pb.sol\":3164:3212  mstore(add(bStart, i), mload(add(bufBStart, i))) */\n      mstore\n        /* \"contracts/libraries/Pb.sol\":3117:3122  i+=32 */\n      tag_59\n        /* \"contracts/libraries/Pb.sol\":3120:3122  32 */\n      0x20\n        /* \"contracts/libraries/Pb.sol\":3208:3209  i */\n      dup3\n        /* \"contracts/libraries/Pb.sol\":3117:3122  i+=32 */\n      tag_52\n      jump\t// in\n    tag_59:\n      swap1\n      pop\n        /* \"contracts/libraries/Pb.sol\":3095:3236  for (uint i=0; i<len; i+=32) {... */\n      jump(tag_56)\n    tag_57:\n      pop\n      pop\n      pop\n        /* \"contracts/libraries/Pb.sol\":3245:3258  buf.idx = end */\n      swap4\n      mstore\n      pop\n        /* \"contracts/libraries/Pb.sol\":2606:3265  function decBytes(Buffer memory buf) internal pure returns (bytes memory b) {... */\n      swap2\n      swap1\n      pop\n      jump\t// out\n        /* \"contracts/libraries/merkle.sol\":79:956  function hashFromByteSlices(bytes[] memory leaves)... */\n    tag_38:\n        /* \"contracts/libraries/merkle.sol\":177:184  bytes32 */\n      0x00\n        /* \"contracts/libraries/merkle.sol\":204:210  leaves */\n      dup2\n        /* \"contracts/libraries/merkle.sol\":204:217  leaves.length */\n      mload\n        /* \"contracts/libraries/merkle.sol\":221:222  0 */\n      0x00\n        /* \"contracts/libraries/merkle.sol\":204:222  leaves.length == 0 */\n      eq\n        /* \"contracts/libraries/merkle.sol\":200:950  if (leaves.length == 0) {... */\n      iszero\n      tag_61\n      jumpi\n        /* \"contracts/libraries/merkle.sol\":245:256  emptyHash() */\n      tag_62\n        /* \"contracts/libraries/merkle.sol\":245:254  emptyHash */\n      tag_63\n        /* \"contracts/libraries/merkle.sol\":245:256  emptyHash() */\n      jump\t// in\n    tag_62:\n        /* \"contracts/libraries/merkle.sol\":238:256  return emptyHash() */\n      swap1\n      pop\n      jump(tag_16)\n        /* \"contracts/libraries/merkle.sol\":200:950  if (leaves.length == 0) {... */\n    tag_61:\n        /* \"contracts/libraries/merkle.sol\":277:283  leaves */\n      dup2\n        /* \"contracts/libraries/merkle.sol\":277:290  leaves.length */\n      mload\n        /* \"contracts/libraries/merkle.sol\":294:295  1 */\n      0x01\n        /* \"contracts/libraries/merkle.sol\":277:295  leaves.length == 1 */\n      eq\n        /* \"contracts/libraries/merkle.sol\":273:950  if (leaves.length == 1) {... */\n      iszero\n      tag_65\n      jumpi\n        /* \"contracts/libraries/merkle.sol\":318:337  leafHash(leaves[0]) */\n      tag_62\n        /* \"contracts/libraries/merkle.sol\":327:333  leaves */\n      dup3\n        /* \"contracts/libraries/merkle.sol\":334:335  0 */\n      0x00\n        /* \"contracts/libraries/merkle.sol\":327:336  leaves[0] */\n      dup2\n      mload\n      dup2\n      lt\n      tag_67\n      jumpi\n      mstore(0x00, shl(0xe0, 0x4e487b71))\n      mstore(0x04, 0x32)\n      revert(0x00, 0x24)\n    tag_67:\n      0x20\n      mul\n      0x20\n      add\n      add\n      mload\n        /* \"contracts/libraries/merkle.sol\":318:326  leafHash */\n      tag_68\n        /* \"contracts/libraries/merkle.sol\":318:337  leafHash(leaves[0]) */\n      jump\t// in\n        /* \"contracts/libraries/merkle.sol\":273:950  if (leaves.length == 1) {... */\n    tag_65:\n        /* \"contracts/libraries/merkle.sol\":368:377  uint256 k */\n      0x00\n        /* \"contracts/libraries/merkle.sol\":380:408  getSplitPoint(leaves.length) */\n      tag_70\n        /* \"contracts/libraries/merkle.sol\":394:400  leaves */\n      dup4\n        /* \"contracts/libraries/merkle.sol\":394:407  leaves.length */\n      mload\n        /* \"contracts/libraries/merkle.sol\":380:393  getSplitPoint */\n      tag_71\n        /* \"contracts/libraries/merkle.sol\":380:408  getSplitPoint(leaves.length) */\n      jump\t// in\n    tag_70:\n        /* \"contracts/libraries/merkle.sol\":368:408  uint256 k = getSplitPoint(leaves.length) */\n      swap1\n      pop\n        /* \"contracts/libraries/merkle.sol\":422:447  bytes[] memory leftLeaves */\n      0x00\n        /* \"contracts/libraries/merkle.sol\":462:463  k */\n      dup2\n        /* \"contracts/libraries/merkle.sol\":450:464  new bytes[](k) */\n      0xffffffffffffffff\n      dup2\n      gt\n      iszero\n      tag_72\n      jumpi\n      mstore(0x00, shl(0xe0, 0x4e487b71))\n      mstore(0x04, 0x41)\n      revert(0x00, 0x24)\n    tag_72:\n      mload(0x40)\n      swap1\n      dup1\n      dup3\n      mstore\n      dup1\n      0x20\n      mul\n      0x20\n      add\n      dup3\n      add\n      0x40\n      mstore\n      dup1\n      iszero\n      tag_73\n      jumpi\n      dup2\n      0x20\n      add\n    tag_74:\n      0x60\n      dup2\n      mstore\n      0x20\n      add\n      swap1\n      0x01\n      swap1\n      sub\n      swap1\n      dup2\n      tag_74\n      jumpi\n      swap1\n      pop\n    tag_73:\n      pop\n        /* \"contracts/libraries/merkle.sol\":422:464  bytes[] memory leftLeaves = new bytes[](k) */\n      swap1\n      pop\n        /* \"contracts/libraries/merkle.sol\":478:504  bytes[] memory rightLeaves */\n      0x00\n        /* \"contracts/libraries/merkle.sol\":535:536  k */\n      dup3\n        /* \"contracts/libraries/merkle.sol\":519:525  leaves */\n      dup6\n        /* \"contracts/libraries/merkle.sol\":519:532  leaves.length */\n      mload\n        /* \"contracts/libraries/merkle.sol\":519:536  leaves.length - k */\n      tag_75\n      swap2\n      swap1\n      tag_35\n      jump\t// in\n    tag_75:\n        /* \"contracts/libraries/merkle.sol\":507:537  new bytes[](leaves.length - k) */\n      0xffffffffffffffff\n      dup2\n      gt\n      iszero\n      tag_76\n      jumpi\n      mstore(0x00, shl(0xe0, 0x4e487b71))\n      mstore(0x04, 0x41)\n      revert(0x00, 0x24)\n    tag_76:\n      mload(0x40)\n      swap1\n      dup1\n      dup3\n      mstore\n      dup1\n      0x20\n      mul\n      0x20\n      add\n      dup3\n      add\n      0x40\n      mstore\n      dup1\n      iszero\n      tag_77\n      jumpi\n      dup2\n      0x20\n      add\n    tag_78:\n      0x60\n      dup2\n      mstore\n      0x20\n      add\n      swap1\n      0x01\n      swap1\n      sub\n      swap1\n      dup2\n      tag_78\n      jumpi\n      swap1\n      pop\n    tag_77:\n      pop\n        /* \"contracts/libraries/merkle.sol\":478:537  bytes[] memory rightLeaves = new bytes[](leaves.length - k) */\n      swap1\n      pop\n        /* \"contracts/libraries/merkle.sol\":556:565  uint256 i */\n      0x00\n        /* \"contracts/libraries/merkle.sol\":551:777  for (uint256 i; i < leaves.length; i++) {... */\n    tag_79:\n        /* \"contracts/libraries/merkle.sol\":571:577  leaves */\n      dup6\n        /* \"contracts/libraries/merkle.sol\":571:584  leaves.length */\n      mload\n        /* \"contracts/libraries/merkle.sol\":567:568  i */\n      dup2\n        /* \"contracts/libraries/merkle.sol\":567:584  i < leaves.length */\n      lt\n        /* \"contracts/libraries/merkle.sol\":551:777  for (uint256 i; i < leaves.length; i++) {... */\n      iszero\n      tag_80\n      jumpi\n        /* \"contracts/libraries/merkle.sol\":617:618  k */\n      dup4\n        /* \"contracts/libraries/merkle.sol\":613:614  i */\n      dup2\n        /* \"contracts/libraries/merkle.sol\":613:618  i < k */\n      lt\n        /* \"contracts/libraries/merkle.sol\":609:763  if (i < k) {... */\n      iszero\n      tag_82\n      jumpi\n        /* \"contracts/libraries/merkle.sol\":658:664  leaves */\n      dup6\n        /* \"contracts/libraries/merkle.sol\":665:666  i */\n      dup2\n        /* \"contracts/libraries/merkle.sol\":658:667  leaves[i] */\n      dup2\n      mload\n      dup2\n      lt\n      tag_83\n      jumpi\n      mstore(0x00, shl(0xe0, 0x4e487b71))\n      mstore(0x04, 0x32)\n      revert(0x00, 0x24)\n    tag_83:\n      0x20\n      mul\n      0x20\n      add\n      add\n      mload\n        /* \"contracts/libraries/merkle.sol\":642:652  leftLeaves */\n      dup4\n        /* \"contracts/libraries/merkle.sol\":653:654  i */\n      dup3\n        /* \"contracts/libraries/merkle.sol\":642:655  leftLeaves[i] */\n      dup2\n      mload\n      dup2\n      lt\n      tag_84\n      jumpi\n      mstore(0x00, shl(0xe0, 0x4e487b71))\n      mstore(0x04, 0x32)\n      revert(0x00, 0x24)\n    tag_84:\n      0x20\n      mul\n      0x20\n      add\n      add\n        /* \"contracts/libraries/merkle.sol\":642:667  leftLeaves[i] = leaves[i] */\n      dup2\n      swap1\n      mstore\n      pop\n        /* \"contracts/libraries/merkle.sol\":609:763  if (i < k) {... */\n      jump(tag_85)\n    tag_82:\n        /* \"contracts/libraries/merkle.sol\":735:741  leaves */\n      dup6\n        /* \"contracts/libraries/merkle.sol\":742:743  i */\n      dup2\n        /* \"contracts/libraries/merkle.sol\":735:744  leaves[i] */\n      dup2\n      mload\n      dup2\n      lt\n      tag_86\n      jumpi\n      mstore(0x00, shl(0xe0, 0x4e487b71))\n      mstore(0x04, 0x32)\n      revert(0x00, 0x24)\n    tag_86:\n      0x20\n      mul\n      0x20\n      add\n      add\n      mload\n        /* \"contracts/libraries/merkle.sol\":714:725  rightLeaves */\n      dup3\n        /* \"contracts/libraries/merkle.sol\":730:731  k */\n      dup6\n        /* \"contracts/libraries/merkle.sol\":726:727  i */\n      dup4\n        /* \"contracts/libraries/merkle.sol\":726:731  i - k */\n      tag_87\n      swap2\n      swap1\n      tag_35\n      jump\t// in\n    tag_87:\n        /* \"contracts/libraries/merkle.sol\":714:732  rightLeaves[i - k] */\n      dup2\n      mload\n      dup2\n      lt\n      tag_88\n      jumpi\n      mstore(0x00, shl(0xe0, 0x4e487b71))\n      mstore(0x04, 0x32)\n      revert(0x00, 0x24)\n    tag_88:\n      0x20\n      mul\n      0x20\n      add\n      add\n        /* \"contracts/libraries/merkle.sol\":714:744  rightLeaves[i - k] = leaves[i] */\n      dup2\n      swap1\n      mstore\n      pop\n        /* \"contracts/libraries/merkle.sol\":609:763  if (i < k) {... */\n    tag_85:\n        /* \"contracts/libraries/merkle.sol\":586:589  i++ */\n      dup1\n      tag_89\n      dup2\n      tag_90\n      jump\t// in\n    tag_89:\n      swap2\n      pop\n      pop\n        /* \"contracts/libraries/merkle.sol\":551:777  for (uint256 i; i < leaves.length; i++) {... */\n      jump(tag_79)\n    tag_80:\n      pop\n        /* \"contracts/libraries/merkle.sol\":790:802  bytes32 left */\n      0x00\n        /* \"contracts/libraries/merkle.sol\":805:835  hashFromByteSlices(leftLeaves) */\n      tag_91\n        /* \"contracts/libraries/merkle.sol\":824:834  leftLeaves */\n      dup4\n        /* \"contracts/libraries/merkle.sol\":805:823  hashFromByteSlices */\n      tag_38\n        /* \"contracts/libraries/merkle.sol\":805:835  hashFromByteSlices(leftLeaves) */\n      jump\t// in\n    tag_91:\n        /* \"contracts/libraries/merkle.sol\":790:835  bytes32 left = hashFromByteSlices(leftLeaves) */\n      swap1\n      pop\n        /* \"contracts/libraries/merkle.sol\":849:862  bytes32 right */\n      0x00\n        /* \"contracts/libraries/merkle.sol\":865:896  hashFromByteSlices(rightLeaves) */\n      tag_92\n        /* \"contracts/libraries/merkle.sol\":884:895  rightLeaves */\n      dup4\n        /* \"contracts/libraries/merkle.sol\":865:883  hashFromByteSlices */\n      tag_38\n        /* \"contracts/libraries/merkle.sol\":865:896  hashFromByteSlices(rightLeaves) */\n      jump\t// in\n    tag_92:\n        /* \"contracts/libraries/merkle.sol\":849:896  bytes32 right = hashFromByteSlices(rightLeaves) */\n      swap1\n      pop\n        /* \"contracts/libraries/merkle.sol\":917:939  innerHash(left, right) */\n      tag_93\n        /* \"contracts/libraries/merkle.sol\":927:931  left */\n      dup3\n        /* \"contracts/libraries/merkle.sol\":933:938  right */\n      dup3\n        /* \"contracts/libraries/merkle.sol\":917:926  innerHash */\n      tag_94\n        /* \"contracts/libraries/merkle.sol\":917:939  innerHash(left, right) */\n      jump\t// in\n    tag_93:\n        /* \"contracts/libraries/merkle.sol\":910:939  return innerHash(left, right) */\n      swap6\n      pop\n      pop\n      pop\n      pop\n      pop\n      pop\n      jump(tag_16)\n        /* \"contracts/libraries/Pb.sol\":1655:2548  function decVarint(Buffer memory buf) internal pure returns (uint v) {... */\n    tag_45:\n        /* \"contracts/libraries/Pb.sol\":1837:1842  buf.b */\n      0x20\n      dup1\n      dup3\n      add\n      mload\n        /* \"contracts/libraries/Pb.sol\":1898:1905  buf.idx */\n      dup3\n      mload\n        /* \"contracts/libraries/Pb.sol\":1998:2017  add(add(bb, 32), v) */\n      dup2\n      add\n      swap1\n      swap2\n      add\n        /* \"contracts/libraries/Pb.sol\":1992:2018  mload(add(add(bb, 32), v)) */\n      mload\n        /* \"contracts/libraries/Pb.sol\":1716:1722  uint v */\n      0x00\n      swap2\n      dup3\n      dup1\n        /* \"contracts/libraries/Pb.sol\":2173:2493  for (uint i=0; i<10; ++i) {... */\n    tag_96:\n        /* \"contracts/libraries/Pb.sol\":2190:2192  10 */\n      0x0a\n        /* \"contracts/libraries/Pb.sol\":2188:2189  i */\n      dup2\n        /* \"contracts/libraries/Pb.sol\":2188:2192  i<10 */\n      lt\n        /* \"contracts/libraries/Pb.sol\":2173:2493  for (uint i=0; i<10; ++i) {... */\n      iszero\n      tag_97\n      jumpi\n        /* \"contracts/libraries/Pb.sol\":2245:2257  byte(i, tmp) */\n      dup4\n      dup2\n      byte\n      swap2\n      pop\n        /* \"contracts/libraries/Pb.sol\":2369:2374  i * 7 */\n      tag_99\n        /* \"contracts/libraries/Pb.sol\":2250:2251  i */\n      dup2\n        /* \"contracts/libraries/Pb.sol\":2373:2374  7 */\n      0x07\n        /* \"contracts/libraries/Pb.sol\":2369:2374  i * 7 */\n      tag_100\n      jump\t// in\n    tag_99:\n        /* \"contracts/libraries/Pb.sol\":2355:2356  b */\n      dup3\n        /* \"contracts/libraries/Pb.sol\":2359:2363  0x7F */\n      0x7f\n        /* \"contracts/libraries/Pb.sol\":2355:2363  b & 0x7F */\n      and\n        /* \"contracts/libraries/Pb.sol\":2354:2375  (b & 0x7F) << (i * 7) */\n      swap1\n      shl\n        /* \"contracts/libraries/Pb.sol\":2349:2375  v |= (b & 0x7F) << (i * 7) */\n      dup6\n      or\n      swap5\n      pop\n        /* \"contracts/libraries/Pb.sol\":2393:2394  b */\n      dup2\n        /* \"contracts/libraries/Pb.sol\":2397:2401  0x80 */\n      0x80\n        /* \"contracts/libraries/Pb.sol\":2393:2401  b & 0x80 */\n      and\n        /* \"contracts/libraries/Pb.sol\":2405:2406  0 */\n      0x00\n        /* \"contracts/libraries/Pb.sol\":2393:2406  b & 0x80 == 0 */\n      eq\n        /* \"contracts/libraries/Pb.sol\":2389:2483  if (b & 0x80 == 0) {... */\n      iszero\n      tag_101\n      jumpi\n        /* \"contracts/libraries/Pb.sol\":2437:2442  i + 1 */\n      tag_102\n        /* \"contracts/libraries/Pb.sol\":2437:2438  i */\n      dup2\n        /* \"contracts/libraries/Pb.sol\":2441:2442  1 */\n      0x01\n        /* \"contracts/libraries/Pb.sol\":2437:2442  i + 1 */\n      tag_52\n      jump\t// in\n    tag_102:\n        /* \"contracts/libraries/Pb.sol\":2426:2442  buf.idx += i + 1 */\n      dup7\n      mload\n        /* \"contracts/libraries/Pb.sol\":2426:2429  buf */\n      dup8\n      swap1\n        /* \"contracts/libraries/Pb.sol\":2426:2442  buf.idx += i + 1 */\n      tag_103\n      swap1\n      dup4\n      swap1\n      tag_52\n      jump\t// in\n    tag_103:\n      swap1\n      mstore\n      pop\n        /* \"contracts/libraries/Pb.sol\":2460:2468  return v */\n      tag_16\n      swap4\n      pop\n      pop\n      pop\n      pop\n      jump\n        /* \"contracts/libraries/Pb.sol\":2389:2483  if (b & 0x80 == 0) {... */\n    tag_101:\n        /* \"contracts/libraries/Pb.sol\":2194:2197  ++i */\n      tag_104\n      dup2\n      tag_90\n      jump\t// in\n    tag_104:\n      swap1\n      pop\n        /* \"contracts/libraries/Pb.sol\":2173:2493  for (uint i=0; i<10; ++i) {... */\n      jump(tag_96)\n    tag_97:\n      pop\n        /* \"contracts/libraries/Pb.sol\":2502:2510  revert() */\n      0x00\n      dup1\n      revert\n        /* \"contracts/libraries/merkle.sol\":962:1059  function emptyHash() internal pure returns (bytes32) {... */\n    tag_63:\n        /* \"contracts/libraries/merkle.sol\":1039:1051  new bytes(0) */\n      0x40\n      dup1\n      mload\n        /* \"contracts/libraries/merkle.sol\":1006:1013  bytes32 */\n      0x00\n        /* \"contracts/libraries/merkle.sol\":1039:1051  new bytes(0) */\n      dup1\n      dup3\n      mstore\n      0x20\n      dup3\n      add\n      swap3\n      dup4\n      swap1\n      mstore\n        /* \"contracts/libraries/merkle.sol\":1006:1013  bytes32 */\n      swap2\n        /* \"contracts/libraries/merkle.sol\":1032:1052  sha256(new bytes(0)) */\n      0x02\n      swap2\n      tag_108\n      swap2\n      tag_109\n      jump\t// in\n    tag_108:\n      0x20\n      mload(0x40)\n      dup1\n      dup4\n      sub\n      dup2\n      dup6\n      gas\n      staticcall\n      iszero\n      dup1\n      iszero\n      tag_111\n      jumpi\n      returndatasize\n      0x00\n      dup1\n      returndatacopy\n      revert(0x00, returndatasize)\n    tag_111:\n      pop\n      pop\n      pop\n      mload(0x40)\n      returndatasize\n      not(0x1f)\n      0x1f\n      dup3\n      add\n      and\n      dup3\n      add\n      dup1\n      0x40\n      mstore\n      pop\n      dup2\n      add\n      swap1\n      tag_112\n      swap2\n      swap1\n      tag_113\n      jump\t// in\n    tag_112:\n        /* \"contracts/libraries/merkle.sol\":1025:1052  return sha256(new bytes(0)) */\n      swap1\n      pop\n        /* \"contracts/libraries/merkle.sol\":962:1059  function emptyHash() internal pure returns (bytes32) {... */\n      swap1\n      jump\t// out\n        /* \"contracts/libraries/merkle.sol\":1065:1198  function leafHash(bytes memory data) internal pure returns (bytes32) {... */\n    tag_68:\n        /* \"contracts/libraries/merkle.sol\":1125:1132  bytes32 */\n      0x00\n        /* \"contracts/libraries/merkle.sol\":1151:1191  sha256(abi.encodePacked(uint8(0), data)) */\n      0x02\n        /* \"contracts/libraries/merkle.sol\":1181:1182  0 */\n      0x00\n        /* \"contracts/libraries/merkle.sol\":1185:1189  data */\n      dup4\n        /* \"contracts/libraries/merkle.sol\":1158:1190  abi.encodePacked(uint8(0), data) */\n      add(0x20, mload(0x40))\n      tag_115\n      swap3\n      swap2\n      swap1\n      tag_116\n      jump\t// in\n    tag_115:\n      0x40\n      dup1\n      mload\n      not(0x1f)\n      dup2\n      dup5\n      sub\n      add\n      dup2\n      mstore\n      swap1\n      dup3\n      swap1\n      mstore\n        /* \"contracts/libraries/merkle.sol\":1151:1191  sha256(abi.encodePacked(uint8(0), data)) */\n      tag_117\n      swap2\n      tag_109\n      jump\t// in\n    tag_117:\n      0x20\n      mload(0x40)\n      dup1\n      dup4\n      sub\n      dup2\n      dup6\n      gas\n      staticcall\n      iszero\n      dup1\n      iszero\n      tag_119\n      jumpi\n      returndatasize\n      0x00\n      dup1\n      returndatacopy\n      revert(0x00, returndatasize)\n    tag_119:\n      pop\n      pop\n      pop\n      mload(0x40)\n      returndatasize\n      not(0x1f)\n      0x1f\n      dup3\n      add\n      and\n      dup3\n      add\n      dup1\n      0x40\n      mstore\n      pop\n      dup2\n      add\n      swap1\n      tag_120\n      swap2\n      swap1\n      tag_113\n      jump\t// in\n    tag_120:\n        /* \"contracts/libraries/merkle.sol\":1144:1191  return sha256(abi.encodePacked(uint8(0), data)) */\n      swap3\n        /* \"contracts/libraries/merkle.sol\":1065:1198  function leafHash(bytes memory data) internal pure returns (bytes32) {... */\n      swap2\n      pop\n      pop\n      jump\t// out\n        /* \"contracts/libraries/merkle.sol\":1389:1627  function getSplitPoint(uint256 length) internal pure returns (uint256) {... */\n    tag_71:\n        /* \"contracts/libraries/merkle.sol\":1451:1458  uint256 */\n      0x00\n      dup1\n        /* \"contracts/libraries/merkle.sol\":1502:1591  while (length > 1) {... */\n    tag_122:\n        /* \"contracts/libraries/merkle.sol\":1518:1519  1 */\n      0x01\n        /* \"contracts/libraries/merkle.sol\":1509:1515  length */\n      dup4\n        /* \"contracts/libraries/merkle.sol\":1509:1519  length > 1 */\n      gt\n        /* \"contracts/libraries/merkle.sol\":1502:1591  while (length > 1) {... */\n      iszero\n      tag_123\n      jumpi\n        /* \"contracts/libraries/merkle.sol\":1544:1554  length / 2 */\n      tag_124\n        /* \"contracts/libraries/merkle.sol\":1553:1554  2 */\n      0x02\n        /* \"contracts/libraries/merkle.sol\":1544:1550  length */\n      dup5\n        /* \"contracts/libraries/merkle.sol\":1544:1554  length / 2 */\n      tag_47\n      jump\t// in\n    tag_124:\n        /* \"contracts/libraries/merkle.sol\":1535:1554  length = length / 2 */\n      swap3\n      pop\n        /* \"contracts/libraries/merkle.sol\":1568:1580  splitPoint++ */\n      dup1\n      tag_125\n      dup2\n      tag_90\n      jump\t// in\n    tag_125:\n      swap2\n      pop\n      pop\n        /* \"contracts/libraries/merkle.sol\":1502:1591  while (length > 1) {... */\n      jump(tag_122)\n    tag_123:\n        /* \"contracts/libraries/merkle.sol\":1607:1620  2**splitPoint */\n      tag_126\n        /* \"contracts/libraries/merkle.sol\":1610:1620  splitPoint */\n      dup2\n        /* \"contracts/libraries/merkle.sol\":1607:1608  2 */\n      0x02\n        /* \"contracts/libraries/merkle.sol\":1607:1620  2**splitPoint */\n      tag_127\n      jump\t// in\n    tag_126:\n        /* \"contracts/libraries/merkle.sol\":1600:1620  return 2**splitPoint */\n      swap4\n        /* \"contracts/libraries/merkle.sol\":1389:1627  function getSplitPoint(uint256 length) internal pure returns (uint256) {... */\n      swap3\n      pop\n      pop\n      pop\n      jump\t// out\n        /* \"contracts/libraries/merkle.sol\":1204:1383  function innerHash(bytes32 left, bytes32 right)... */\n    tag_94:\n        /* \"contracts/libraries/merkle.sol\":1336:1375  abi.encodePacked(uint8(1), left, right) */\n      mload(0x40)\n      shl(0xf8, 0x01)\n      0x20\n      dup3\n      add\n        /* \"#utility.yul\":2753:2802   */\n      mstore\n        /* \"#utility.yul\":2818:2829   */\n      0x21\n      dup2\n      add\n        /* \"#utility.yul\":2811:2838   */\n      dup4\n      swap1\n      mstore\n        /* \"#utility.yul\":2854:2866   */\n      0x41\n      dup2\n      add\n        /* \"#utility.yul\":2847:2875   */\n      dup3\n      swap1\n      mstore\n        /* \"contracts/libraries/merkle.sol\":1299:1306  bytes32 */\n      0x00\n      swap1\n        /* \"contracts/libraries/merkle.sol\":1329:1376  sha256(abi.encodePacked(uint8(1), left, right)) */\n      0x02\n      swap1\n        /* \"#utility.yul\":2891:2903   */\n      0x61\n      add\n        /* \"contracts/libraries/merkle.sol\":1336:1375  abi.encodePacked(uint8(1), left, right) */\n      0x40\n      dup1\n      mload\n      not(0x1f)\n      dup2\n      dup5\n      sub\n      add\n      dup2\n      mstore\n      swap1\n      dup3\n      swap1\n      mstore\n        /* \"contracts/libraries/merkle.sol\":1329:1376  sha256(abi.encodePacked(uint8(1), left, right)) */\n      tag_131\n      swap2\n      tag_109\n      jump\t// in\n    tag_131:\n      0x20\n      mload(0x40)\n      dup1\n      dup4\n      sub\n      dup2\n      dup6\n      gas\n      staticcall\n      iszero\n      dup1\n      iszero\n      tag_133\n      jumpi\n      returndatasize\n      0x00\n      dup1\n      returndatacopy\n      revert(0x00, returndatasize)\n    tag_133:\n      pop\n      pop\n      pop\n      mload(0x40)\n      returndatasize\n      not(0x1f)\n      0x1f\n      dup3\n      add\n      and\n      dup3\n      add\n      dup1\n      0x40\n      mstore\n      pop\n      dup2\n      add\n      swap1\n      tag_126\n      swap2\n      swap1\n      tag_113\n      jump\t// in\n    tag_17:\n      0x40\n      dup1\n      mload\n      0x0200\n      dup2\n      add\n      dup3\n      mstore\n      0x00\n      0x01c0\n      dup3\n      add\n      dup2\n      dup2\n      mstore\n      0x01e0\n      dup4\n      add\n      dup3\n      swap1\n      mstore\n      dup3\n      mstore\n      0x60\n      0x20\n      dup4\n      add\n      dup2\n      swap1\n      mstore\n      swap3\n      dup3\n      add\n      dup2\n      swap1\n      mstore\n      swap2\n      dup2\n      add\n      swap2\n      swap1\n      swap2\n      mstore\n      0x80\n      dup2\n      add\n      tag_137\n      tag_138\n      jump\t// in\n    tag_137:\n      dup2\n      mstore\n      0x20\n      add\n      0x60\n      dup2\n      mstore\n      0x20\n      add\n      0x60\n      dup2\n      mstore\n      0x20\n      add\n      0x60\n      dup2\n      mstore\n      0x20\n      add\n      0x60\n      dup2\n      mstore\n      0x20\n      add\n      0x60\n      dup2\n      mstore\n      0x20\n      add\n      0x60\n      dup2\n      mstore\n      0x20\n      add\n      0x60\n      dup2\n      mstore\n      0x20\n      add\n      0x60\n      dup2\n      mstore\n      0x20\n      add\n      0x60\n      dup2\n      mstore\n      pop\n      swap1\n      jump\t// out\n    tag_138:\n      mload(0x40)\n      dup1\n      0x40\n      add\n      0x40\n      mstore\n      dup1\n      0x60\n      dup2\n      mstore\n      0x20\n      add\n      tag_139\n      mload(0x40)\n      dup1\n      0x40\n      add\n      0x40\n      mstore\n      dup1\n      and(0xffffffff, 0x00)\n      dup2\n      mstore\n      0x20\n      add\n      0x60\n      dup2\n      mstore\n      pop\n      swap1\n      jump\n    tag_139:\n      swap1\n      mstore\n      swap1\n      jump\t// out\n        /* \"#utility.yul\":14:208   */\n    tag_113:\n      0x00\n        /* \"#utility.yul\":137:139   */\n      0x20\n        /* \"#utility.yul\":125:134   */\n      dup3\n        /* \"#utility.yul\":116:123   */\n      dup5\n        /* \"#utility.yul\":112:135   */\n      sub\n        /* \"#utility.yul\":108:140   */\n      slt\n        /* \"#utility.yul\":105:107   */\n      iszero\n      tag_143\n      jumpi\n        /* \"#utility.yul\":158:164   */\n      dup1\n        /* \"#utility.yul\":150:156   */\n      dup2\n        /* \"#utility.yul\":143:165   */\n      revert\n        /* \"#utility.yul\":105:107   */\n    tag_143:\n      pop\n        /* \"#utility.yul\":186:202   */\n      mload\n      swap2\n        /* \"#utility.yul\":95:208   */\n      swap1\n      pop\n      jump\t// out\n        /* \"#utility.yul\":213:1179   */\n    tag_7:\n      0x00\n        /* \"#utility.yul\":334:336   */\n      0x20\n        /* \"#utility.yul\":322:331   */\n      dup3\n        /* \"#utility.yul\":313:320   */\n      dup5\n        /* \"#utility.yul\":309:332   */\n      sub\n        /* \"#utility.yul\":305:337   */\n      slt\n        /* \"#utility.yul\":302:304   */\n      iszero\n      tag_145\n      jumpi\n        /* \"#utility.yul\":355:361   */\n      dup1\n        /* \"#utility.yul\":347:353   */\n      dup2\n        /* \"#utility.yul\":340:362   */\n      revert\n        /* \"#utility.yul\":302:304   */\n    tag_145:\n        /* \"#utility.yul\":400:409   */\n      dup2\n        /* \"#utility.yul\":387:410   */\n      calldataload\n        /* \"#utility.yul\":429:447   */\n      0xffffffffffffffff\n        /* \"#utility.yul\":470:472   */\n      dup1\n        /* \"#utility.yul\":462:468   */\n      dup3\n        /* \"#utility.yul\":459:473   */\n      gt\n        /* \"#utility.yul\":456:458   */\n      iszero\n      tag_146\n      jumpi\n        /* \"#utility.yul\":491:497   */\n      dup3\n        /* \"#utility.yul\":483:489   */\n      dup4\n        /* \"#utility.yul\":476:498   */\n      revert\n        /* \"#utility.yul\":456:458   */\n    tag_146:\n        /* \"#utility.yul\":534:540   */\n      dup2\n        /* \"#utility.yul\":523:532   */\n      dup5\n        /* \"#utility.yul\":519:541   */\n      add\n        /* \"#utility.yul\":509:541   */\n      swap2\n      pop\n        /* \"#utility.yul\":579:586   */\n      dup5\n        /* \"#utility.yul\":572:576   */\n      0x1f\n        /* \"#utility.yul\":568:570   */\n      dup4\n        /* \"#utility.yul\":564:577   */\n      add\n        /* \"#utility.yul\":560:587   */\n      slt\n        /* \"#utility.yul\":550:552   */\n      tag_147\n      jumpi\n        /* \"#utility.yul\":606:612   */\n      dup3\n        /* \"#utility.yul\":598:604   */\n      dup4\n        /* \"#utility.yul\":591:613   */\n      revert\n        /* \"#utility.yul\":550:552   */\n    tag_147:\n        /* \"#utility.yul\":647:649   */\n      dup2\n        /* \"#utility.yul\":634:650   */\n      calldataload\n        /* \"#utility.yul\":669:671   */\n      dup2\n        /* \"#utility.yul\":665:667   */\n      dup2\n        /* \"#utility.yul\":662:672   */\n      gt\n        /* \"#utility.yul\":659:661   */\n      iszero\n      tag_149\n      jumpi\n        /* \"#utility.yul\":675:693   */\n      tag_149\n      tag_150\n      jump\t// in\n    tag_149:\n        /* \"#utility.yul\":750:752   */\n      0x40\n        /* \"#utility.yul\":744:753   */\n      mload\n        /* \"#utility.yul\":718:720   */\n      0x1f\n        /* \"#utility.yul\":804:817   */\n      dup3\n      add\n      not(0x1f)\n        /* \"#utility.yul\":800:822   */\n      swap1\n      dup2\n      and\n        /* \"#utility.yul\":824:826   */\n      0x3f\n        /* \"#utility.yul\":796:827   */\n      add\n        /* \"#utility.yul\":792:832   */\n      and\n        /* \"#utility.yul\":780:833   */\n      dup2\n      add\n      swap1\n        /* \"#utility.yul\":848:866   */\n      dup4\n      dup3\n      gt\n        /* \"#utility.yul\":868:890   */\n      dup2\n      dup4\n      lt\n        /* \"#utility.yul\":845:891   */\n      or\n        /* \"#utility.yul\":842:844   */\n      iszero\n      tag_152\n      jumpi\n        /* \"#utility.yul\":894:912   */\n      tag_152\n      tag_150\n      jump\t// in\n    tag_152:\n        /* \"#utility.yul\":934:944   */\n      dup2\n        /* \"#utility.yul\":930:932   */\n      0x40\n        /* \"#utility.yul\":923:945   */\n      mstore\n        /* \"#utility.yul\":969:971   */\n      dup3\n        /* \"#utility.yul\":961:967   */\n      dup2\n        /* \"#utility.yul\":954:972   */\n      mstore\n        /* \"#utility.yul\":1009:1016   */\n      dup8\n        /* \"#utility.yul\":1004:1006   */\n      0x20\n        /* \"#utility.yul\":999:1001   */\n      dup5\n        /* \"#utility.yul\":995:997   */\n      dup8\n        /* \"#utility.yul\":991:1002   */\n      add\n        /* \"#utility.yul\":987:1007   */\n      add\n        /* \"#utility.yul\":984:1017   */\n      gt\n        /* \"#utility.yul\":981:983   */\n      iszero\n      tag_153\n      jumpi\n        /* \"#utility.yul\":1035:1041   */\n      dup6\n        /* \"#utility.yul\":1027:1033   */\n      dup7\n        /* \"#utility.yul\":1020:1042   */\n      revert\n        /* \"#utility.yul\":981:983   */\n    tag_153:\n        /* \"#utility.yul\":1096:1098   */\n      dup3\n        /* \"#utility.yul\":1091:1093   */\n      0x20\n        /* \"#utility.yul\":1087:1089   */\n      dup7\n        /* \"#utility.yul\":1083:1094   */\n      add\n        /* \"#utility.yul\":1078:1080   */\n      0x20\n        /* \"#utility.yul\":1070:1076   */\n      dup4\n        /* \"#utility.yul\":1066:1081   */\n      add\n        /* \"#utility.yul\":1053:1099   */\n      calldatacopy\n        /* \"#utility.yul\":1119:1134   */\n      swap2\n      dup3\n      add\n        /* \"#utility.yul\":1136:1138   */\n      0x20\n        /* \"#utility.yul\":1115:1139   */\n      add\n        /* \"#utility.yul\":1108:1148   */\n      swap5\n      swap1\n      swap5\n      mstore\n        /* \"#utility.yul\":1123:1129   */\n      swap6\n        /* \"#utility.yul\":292:1179   */\n      swap5\n      pop\n      pop\n      pop\n      pop\n      pop\n      jump\t// out\n        /* \"#utility.yul\":1184:1441   */\n    tag_154:\n      0x00\n        /* \"#utility.yul\":1263:1268   */\n      dup2\n        /* \"#utility.yul\":1257:1269   */\n      mload\n        /* \"#utility.yul\":1290:1296   */\n      dup1\n        /* \"#utility.yul\":1285:1288   */\n      dup5\n        /* \"#utility.yul\":1278:1297   */\n      mstore\n        /* \"#utility.yul\":1306:1369   */\n      tag_156\n        /* \"#utility.yul\":1362:1368   */\n      dup2\n        /* \"#utility.yul\":1355:1359   */\n      0x20\n        /* \"#utility.yul\":1350:1353   */\n      dup7\n        /* \"#utility.yul\":1346:1360   */\n      add\n        /* \"#utility.yul\":1339:1343   */\n      0x20\n        /* \"#utility.yul\":1332:1337   */\n      dup7\n        /* \"#utility.yul\":1328:1344   */\n      add\n        /* \"#utility.yul\":1306:1369   */\n      tag_157\n      jump\t// in\n    tag_156:\n        /* \"#utility.yul\":1423:1425   */\n      0x1f\n        /* \"#utility.yul\":1402:1417   */\n      add\n      not(0x1f)\n        /* \"#utility.yul\":1398:1427   */\n      and\n        /* \"#utility.yul\":1389:1428   */\n      swap3\n      swap1\n      swap3\n      add\n        /* \"#utility.yul\":1430:1434   */\n      0x20\n        /* \"#utility.yul\":1385:1435   */\n      add\n      swap3\n        /* \"#utility.yul\":1233:1441   */\n      swap2\n      pop\n      pop\n      jump\t// out\n        /* \"#utility.yul\":1446:1973   */\n    tag_158:\n      0x00\n        /* \"#utility.yul\":1540:1545   */\n      dup2\n        /* \"#utility.yul\":1534:1546   */\n      mload\n        /* \"#utility.yul\":1567:1571   */\n      0x40\n        /* \"#utility.yul\":1562:1565   */\n      dup5\n        /* \"#utility.yul\":1555:1572   */\n      mstore\n        /* \"#utility.yul\":1593:1639   */\n      tag_160\n        /* \"#utility.yul\":1633:1637   */\n      0x40\n        /* \"#utility.yul\":1628:1631   */\n      dup6\n        /* \"#utility.yul\":1624:1638   */\n      add\n        /* \"#utility.yul\":1610:1622   */\n      dup3\n        /* \"#utility.yul\":1593:1639   */\n      tag_154\n      jump\t// in\n    tag_160:\n        /* \"#utility.yul\":1581:1639   */\n      swap1\n      pop\n        /* \"#utility.yul\":1687:1691   */\n      0x20\n        /* \"#utility.yul\":1680:1685   */\n      dup4\n        /* \"#utility.yul\":1676:1692   */\n      add\n        /* \"#utility.yul\":1670:1693   */\n      mload\n        /* \"#utility.yul\":1735:1738   */\n      dup5\n        /* \"#utility.yul\":1729:1733   */\n      dup3\n        /* \"#utility.yul\":1725:1739   */\n      sub\n        /* \"#utility.yul\":1718:1722   */\n      0x20\n        /* \"#utility.yul\":1713:1716   */\n      dup7\n        /* \"#utility.yul\":1709:1723   */\n      add\n        /* \"#utility.yul\":1702:1740   */\n      mstore\n        /* \"#utility.yul\":1789:1799   */\n      0xffffffff\n        /* \"#utility.yul\":1772:1786   */\n      dup2\n        /* \"#utility.yul\":1766:1787   */\n      mload\n        /* \"#utility.yul\":1762:1800   */\n      and\n        /* \"#utility.yul\":1756:1760   */\n      dup3\n        /* \"#utility.yul\":1749:1801   */\n      mstore\n        /* \"#utility.yul\":1858:1862   */\n      0x20\n        /* \"#utility.yul\":1842:1856   */\n      dup2\n        /* \"#utility.yul\":1838:1863   */\n      add\n        /* \"#utility.yul\":1832:1864   */\n      mload\n        /* \"#utility.yul\":1810:1864   */\n      swap1\n      pop\n        /* \"#utility.yul\":1897:1901   */\n      0x40\n        /* \"#utility.yul\":1890:1894   */\n      0x20\n        /* \"#utility.yul\":1884:1888   */\n      dup4\n        /* \"#utility.yul\":1880:1895   */\n      add\n        /* \"#utility.yul\":1873:1902   */\n      mstore\n        /* \"#utility.yul\":1918:1967   */\n      tag_161\n        /* \"#utility.yul\":1961:1965   */\n      0x40\n        /* \"#utility.yul\":1955:1959   */\n      dup4\n        /* \"#utility.yul\":1951:1966   */\n      add\n        /* \"#utility.yul\":1935:1949   */\n      dup3\n        /* \"#utility.yul\":1918:1967   */\n      tag_154\n      jump\t// in\n    tag_161:\n        /* \"#utility.yul\":1911:1967   */\n      swap6\n        /* \"#utility.yul\":1504:1973   */\n      swap5\n      pop\n      pop\n      pop\n      pop\n      pop\n      jump\t// out\n        /* \"#utility.yul\":2293:2567   */\n    tag_109:\n      0x00\n        /* \"#utility.yul\":2460:2466   */\n      dup3\n        /* \"#utility.yul\":2454:2467   */\n      mload\n        /* \"#utility.yul\":2476:2529   */\n      tag_167\n        /* \"#utility.yul\":2522:2528   */\n      dup2\n        /* \"#utility.yul\":2517:2520   */\n      dup5\n        /* \"#utility.yul\":2510:2514   */\n      0x20\n        /* \"#utility.yul\":2502:2508   */\n      dup8\n        /* \"#utility.yul\":2498:2515   */\n      add\n        /* \"#utility.yul\":2476:2529   */\n      tag_157\n      jump\t// in\n    tag_167:\n        /* \"#utility.yul\":2545:2561   */\n      swap2\n      swap1\n      swap2\n      add\n      swap3\n        /* \"#utility.yul\":2430:2567   */\n      swap2\n      pop\n      pop\n      jump\t// out\n        /* \"#utility.yul\":2914:3286   */\n    tag_116:\n      0x00\n        /* \"#utility.yul\":3128:3131   */\n      0xff\n        /* \"#utility.yul\":3123:3126   */\n      0xf8\n        /* \"#utility.yul\":3119:3132   */\n      shl\n        /* \"#utility.yul\":3110:3116   */\n      dup5\n        /* \"#utility.yul\":3105:3108   */\n      0xf8\n        /* \"#utility.yul\":3101:3117   */\n      shl\n        /* \"#utility.yul\":3097:3133   */\n      and\n        /* \"#utility.yul\":3092:3095   */\n      dup3\n        /* \"#utility.yul\":3085:3134   */\n      mstore\n        /* \"#utility.yul\":3163:3169   */\n      dup3\n        /* \"#utility.yul\":3157:3170   */\n      mload\n        /* \"#utility.yul\":3179:3240   */\n      tag_170\n        /* \"#utility.yul\":3233:3239   */\n      dup2\n        /* \"#utility.yul\":3229:3230   */\n      0x01\n        /* \"#utility.yul\":3224:3227   */\n      dup6\n        /* \"#utility.yul\":3220:3231   */\n      add\n        /* \"#utility.yul\":3213:3217   */\n      0x20\n        /* \"#utility.yul\":3205:3211   */\n      dup8\n        /* \"#utility.yul\":3201:3218   */\n      add\n        /* \"#utility.yul\":3179:3240   */\n      tag_157\n      jump\t// in\n    tag_170:\n        /* \"#utility.yul\":3260:3276   */\n      swap2\n      swap1\n      swap2\n      add\n        /* \"#utility.yul\":3278:3279   */\n      0x01\n        /* \"#utility.yul\":3256:3280   */\n      add\n      swap4\n        /* \"#utility.yul\":3075:3286   */\n      swap3\n      pop\n      pop\n      pop\n      jump\t// out\n        /* \"#utility.yul\":3473:6166   */\n    tag_10:\n        /* \"#utility.yul\":3648:3650   */\n      0x20\n        /* \"#utility.yul\":3630:3651   */\n      dup1\n      dup3\n      mstore\n        /* \"#utility.yul\":3686:3699   */\n      dup3\n      mload\n        /* \"#utility.yul\":2092:2104   */\n      dup1\n      mload\n        /* \"#utility.yul\":2049:2067   */\n      0xffffffffffffffff\n        /* \"#utility.yul\":2088:2109   */\n      swap1\n      dup2\n      and\n        /* \"#utility.yul\":3701:3719   */\n      dup5\n      dup5\n      add\n        /* \"#utility.yul\":2076:2110   */\n      mstore\n        /* \"#utility.yul\":2152:2168   */\n      swap2\n      add\n        /* \"#utility.yul\":2146:2169   */\n      mload\n        /* \"#utility.yul\":2142:2174   */\n      and\n        /* \"#utility.yul\":2126:2140   */\n      0x40\n      dup3\n      add\n        /* \"#utility.yul\":2119:2175   */\n      mstore\n        /* \"#utility.yul\":3473:6166   */\n      0x00\n        /* \"#utility.yul\":3767:3769   */\n      0x20\n        /* \"#utility.yul\":3759:3765   */\n      dup4\n        /* \"#utility.yul\":3755:3770   */\n      add\n        /* \"#utility.yul\":3749:3771   */\n      mload\n        /* \"#utility.yul\":3790:3796   */\n      0x01e0\n        /* \"#utility.yul\":3832:3834   */\n      dup1\n        /* \"#utility.yul\":3827:3829   */\n      0x60\n        /* \"#utility.yul\":3816:3825   */\n      dup6\n        /* \"#utility.yul\":3812:3830   */\n      add\n        /* \"#utility.yul\":3805:3835   */\n      mstore\n        /* \"#utility.yul\":3858:3909   */\n      tag_174\n        /* \"#utility.yul\":3904:3907   */\n      0x0200\n        /* \"#utility.yul\":3893:3902   */\n      dup6\n        /* \"#utility.yul\":3889:3908   */\n      add\n        /* \"#utility.yul\":3875:3887   */\n      dup4\n        /* \"#utility.yul\":3858:3909   */\n      tag_154\n      jump\t// in\n    tag_174:\n        /* \"#utility.yul\":3844:3909   */\n      swap2\n      pop\n        /* \"#utility.yul\":3958:3962   */\n      0x40\n        /* \"#utility.yul\":3950:3956   */\n      dup6\n        /* \"#utility.yul\":3946:3963   */\n      add\n        /* \"#utility.yul\":3940:3964   */\n      mload\n        /* \"#utility.yul\":3973:4027   */\n      tag_175\n        /* \"#utility.yul\":4022:4025   */\n      0x80\n        /* \"#utility.yul\":4011:4020   */\n      dup7\n        /* \"#utility.yul\":4007:4026   */\n      add\n        /* \"#utility.yul\":3991:4005   */\n      dup3\n        /* \"#utility.yul\":2262:2280   */\n      0xffffffffffffffff\n        /* \"#utility.yul\":2251:2281   */\n      and\n        /* \"#utility.yul\":2239:2282   */\n      swap1\n      mstore\n        /* \"#utility.yul\":2229:2288   */\n      jump\n        /* \"#utility.yul\":3973:4027   */\n    tag_175:\n      pop\n        /* \"#utility.yul\":4076:4078   */\n      0x60\n        /* \"#utility.yul\":4064:4079   */\n      dup6\n      add\n        /* \"#utility.yul\":4058:4080   */\n      mload\n        /* \"#utility.yul\":2262:2280   */\n      0xffffffffffffffff\n        /* \"#utility.yul\":2251:2281   */\n      and\n        /* \"#utility.yul\":4138:4141   */\n      0xa0\n        /* \"#utility.yul\":4123:4142   */\n      dup6\n      add\n        /* \"#utility.yul\":2239:2282   */\n      mstore\n        /* \"#utility.yul\":4192:4195   */\n      0x80\n        /* \"#utility.yul\":4180:4196   */\n      dup6\n      add\n        /* \"#utility.yul\":4174:4197   */\n      mload\n      not(0x1f)\n        /* \"#utility.yul\":4264:4286   */\n      dup6\n      dup5\n      sub\n        /* \"#utility.yul\":4260:4291   */\n      dup2\n      add\n        /* \"#utility.yul\":4254:4257   */\n      0xc0\n        /* \"#utility.yul\":4239:4258   */\n      dup8\n      add\n        /* \"#utility.yul\":4232:4292   */\n      mstore\n        /* \"#utility.yul\":4315:4364   */\n      tag_177\n        /* \"#utility.yul\":4264:4286   */\n      dup5\n        /* \"#utility.yul\":4174:4197   */\n      dup4\n        /* \"#utility.yul\":4315:4364   */\n      tag_158\n      jump\t// in\n    tag_177:\n        /* \"#utility.yul\":4301:4364   */\n      swap4\n      pop\n        /* \"#utility.yul\":4413:4416   */\n      0xa0\n        /* \"#utility.yul\":4405:4411   */\n      dup8\n        /* \"#utility.yul\":4401:4417   */\n      add\n        /* \"#utility.yul\":4395:4418   */\n      mload\n        /* \"#utility.yul\":4373:4418   */\n      swap2\n      pop\n        /* \"#utility.yul\":4483:4485   */\n      dup1\n        /* \"#utility.yul\":4471:4480   */\n      dup7\n        /* \"#utility.yul\":4463:4469   */\n      dup6\n        /* \"#utility.yul\":4459:4481   */\n      sub\n        /* \"#utility.yul\":4455:4486   */\n      add\n        /* \"#utility.yul\":4449:4452   */\n      0xe0\n        /* \"#utility.yul\":4438:4447   */\n      dup8\n        /* \"#utility.yul\":4434:4453   */\n      add\n        /* \"#utility.yul\":4427:4487   */\n      mstore\n        /* \"#utility.yul\":4510:4550   */\n      tag_178\n        /* \"#utility.yul\":4543:4549   */\n      dup5\n        /* \"#utility.yul\":4527:4541   */\n      dup4\n        /* \"#utility.yul\":4510:4550   */\n      tag_154\n      jump\t// in\n    tag_178:\n        /* \"#utility.yul\":4496:4550   */\n      swap4\n      pop\n        /* \"#utility.yul\":4599:4602   */\n      0xc0\n        /* \"#utility.yul\":4591:4597   */\n      dup8\n        /* \"#utility.yul\":4587:4603   */\n      add\n        /* \"#utility.yul\":4581:4604   */\n      mload\n        /* \"#utility.yul\":4559:4604   */\n      swap2\n      pop\n        /* \"#utility.yul\":4623:4626   */\n      0x0100\n        /* \"#utility.yul\":4690:4692   */\n      dup2\n        /* \"#utility.yul\":4678:4687   */\n      dup8\n        /* \"#utility.yul\":4670:4676   */\n      dup7\n        /* \"#utility.yul\":4666:4688   */\n      sub\n        /* \"#utility.yul\":4662:4693   */\n      add\n        /* \"#utility.yul\":4657:4659   */\n      dup2\n        /* \"#utility.yul\":4646:4655   */\n      dup9\n        /* \"#utility.yul\":4642:4660   */\n      add\n        /* \"#utility.yul\":4635:4694   */\n      mstore\n        /* \"#utility.yul\":4717:4757   */\n      tag_179\n        /* \"#utility.yul\":4750:4756   */\n      dup6\n        /* \"#utility.yul\":4734:4748   */\n      dup5\n        /* \"#utility.yul\":4717:4757   */\n      tag_154\n      jump\t// in\n    tag_179:\n        /* \"#utility.yul\":4703:4757   */\n      swap5\n      pop\n        /* \"#utility.yul\":4806:4809   */\n      0xe0\n        /* \"#utility.yul\":4798:4804   */\n      dup9\n        /* \"#utility.yul\":4794:4810   */\n      add\n        /* \"#utility.yul\":4788:4811   */\n      mload\n        /* \"#utility.yul\":4766:4811   */\n      swap3\n      pop\n        /* \"#utility.yul\":4830:4833   */\n      0x0120\n        /* \"#utility.yul\":4897:4899   */\n      dup3\n        /* \"#utility.yul\":4885:4894   */\n      dup9\n        /* \"#utility.yul\":4877:4883   */\n      dup8\n        /* \"#utility.yul\":4873:4895   */\n      sub\n        /* \"#utility.yul\":4869:4900   */\n      add\n        /* \"#utility.yul\":4864:4866   */\n      dup2\n        /* \"#utility.yul\":4853:4862   */\n      dup10\n        /* \"#utility.yul\":4849:4867   */\n      add\n        /* \"#utility.yul\":4842:4901   */\n      mstore\n        /* \"#utility.yul\":4924:4964   */\n      tag_180\n        /* \"#utility.yul\":4957:4963   */\n      dup7\n        /* \"#utility.yul\":4941:4955   */\n      dup6\n        /* \"#utility.yul\":4924:4964   */\n      tag_154\n      jump\t// in\n    tag_180:\n        /* \"#utility.yul\":4910:4964   */\n      swap6\n      pop\n        /* \"#utility.yul\":5013:5015   */\n      dup2\n        /* \"#utility.yul\":5005:5011   */\n      dup10\n        /* \"#utility.yul\":5001:5016   */\n      add\n        /* \"#utility.yul\":4995:5017   */\n      mload\n        /* \"#utility.yul\":4973:5017   */\n      swap4\n      pop\n        /* \"#utility.yul\":5036:5039   */\n      0x0140\n        /* \"#utility.yul\":5026:5039   */\n      swap2\n      pop\n        /* \"#utility.yul\":5103:5105   */\n      dup3\n        /* \"#utility.yul\":5091:5100   */\n      dup9\n        /* \"#utility.yul\":5083:5089   */\n      dup8\n        /* \"#utility.yul\":5079:5101   */\n      sub\n        /* \"#utility.yul\":5075:5106   */\n      add\n        /* \"#utility.yul\":5070:5072   */\n      dup3\n        /* \"#utility.yul\":5059:5068   */\n      dup10\n        /* \"#utility.yul\":5055:5073   */\n      add\n        /* \"#utility.yul\":5048:5107   */\n      mstore\n        /* \"#utility.yul\":5130:5170   */\n      tag_181\n        /* \"#utility.yul\":5163:5169   */\n      dup7\n        /* \"#utility.yul\":5147:5161   */\n      dup6\n        /* \"#utility.yul\":5130:5170   */\n      tag_154\n      jump\t// in\n    tag_181:\n        /* \"#utility.yul\":5116:5170   */\n      swap6\n      pop\n        /* \"#utility.yul\":5219:5221   */\n      dup1\n        /* \"#utility.yul\":5211:5217   */\n      dup10\n        /* \"#utility.yul\":5207:5222   */\n      add\n        /* \"#utility.yul\":5201:5223   */\n      mload\n        /* \"#utility.yul\":5179:5223   */\n      swap4\n      pop\n      pop\n        /* \"#utility.yul\":5242:5245   */\n      0x0160\n        /* \"#utility.yul\":5309:5311   */\n      dup3\n        /* \"#utility.yul\":5297:5306   */\n      dup9\n        /* \"#utility.yul\":5289:5295   */\n      dup8\n        /* \"#utility.yul\":5285:5307   */\n      sub\n        /* \"#utility.yul\":5281:5312   */\n      add\n        /* \"#utility.yul\":5276:5278   */\n      dup2\n        /* \"#utility.yul\":5265:5274   */\n      dup10\n        /* \"#utility.yul\":5261:5279   */\n      add\n        /* \"#utility.yul\":5254:5313   */\n      mstore\n        /* \"#utility.yul\":5336:5376   */\n      tag_182\n        /* \"#utility.yul\":5369:5375   */\n      dup7\n        /* \"#utility.yul\":5353:5367   */\n      dup6\n        /* \"#utility.yul\":5336:5376   */\n      tag_154\n      jump\t// in\n    tag_182:\n        /* \"#utility.yul\":5322:5376   */\n      swap6\n      pop\n        /* \"#utility.yul\":5425:5427   */\n      dup2\n        /* \"#utility.yul\":5417:5423   */\n      dup10\n        /* \"#utility.yul\":5413:5428   */\n      add\n        /* \"#utility.yul\":5407:5429   */\n      mload\n        /* \"#utility.yul\":5385:5429   */\n      swap4\n      pop\n        /* \"#utility.yul\":5448:5451   */\n      0x0180\n        /* \"#utility.yul\":5438:5451   */\n      swap2\n      pop\n        /* \"#utility.yul\":5515:5517   */\n      dup3\n        /* \"#utility.yul\":5503:5512   */\n      dup9\n        /* \"#utility.yul\":5495:5501   */\n      dup8\n        /* \"#utility.yul\":5491:5513   */\n      sub\n        /* \"#utility.yul\":5487:5518   */\n      add\n        /* \"#utility.yul\":5482:5484   */\n      dup3\n        /* \"#utility.yul\":5471:5480   */\n      dup10\n        /* \"#utility.yul\":5467:5485   */\n      add\n        /* \"#utility.yul\":5460:5519   */\n      mstore\n        /* \"#utility.yul\":5542:5582   */\n      tag_183\n        /* \"#utility.yul\":5575:5581   */\n      dup7\n        /* \"#utility.yul\":5559:5573   */\n      dup6\n        /* \"#utility.yul\":5542:5582   */\n      tag_154\n      jump\t// in\n    tag_183:\n        /* \"#utility.yul\":5528:5582   */\n      swap6\n      pop\n        /* \"#utility.yul\":5632:5634   */\n      dup1\n        /* \"#utility.yul\":5624:5630   */\n      dup10\n        /* \"#utility.yul\":5620:5635   */\n      add\n        /* \"#utility.yul\":5614:5636   */\n      mload\n        /* \"#utility.yul\":5591:5636   */\n      swap4\n      pop\n      pop\n        /* \"#utility.yul\":5655:5658   */\n      0x01a0\n        /* \"#utility.yul\":5722:5724   */\n      dup3\n        /* \"#utility.yul\":5710:5719   */\n      dup9\n        /* \"#utility.yul\":5702:5708   */\n      dup8\n        /* \"#utility.yul\":5698:5720   */\n      sub\n        /* \"#utility.yul\":5694:5725   */\n      add\n        /* \"#utility.yul\":5689:5691   */\n      dup2\n        /* \"#utility.yul\":5678:5687   */\n      dup10\n        /* \"#utility.yul\":5674:5692   */\n      add\n        /* \"#utility.yul\":5667:5726   */\n      mstore\n        /* \"#utility.yul\":5749:5790   */\n      tag_184\n        /* \"#utility.yul\":5783:5789   */\n      dup7\n        /* \"#utility.yul\":5766:5781   */\n      dup6\n        /* \"#utility.yul\":5749:5790   */\n      tag_154\n      jump\t// in\n    tag_184:\n        /* \"#utility.yul\":5735:5790   */\n      swap6\n      pop\n        /* \"#utility.yul\":5840:5842   */\n      dup2\n        /* \"#utility.yul\":5832:5838   */\n      dup10\n        /* \"#utility.yul\":5828:5843   */\n      add\n        /* \"#utility.yul\":5822:5844   */\n      mload\n        /* \"#utility.yul\":5799:5844   */\n      swap4\n      pop\n        /* \"#utility.yul\":5909:5911   */\n      dup3\n        /* \"#utility.yul\":5897:5906   */\n      dup9\n        /* \"#utility.yul\":5889:5895   */\n      dup8\n        /* \"#utility.yul\":5885:5907   */\n      sub\n        /* \"#utility.yul\":5881:5912   */\n      add\n        /* \"#utility.yul\":5875:5878   */\n      0x01c0\n        /* \"#utility.yul\":5864:5873   */\n      dup10\n        /* \"#utility.yul\":5860:5879   */\n      add\n        /* \"#utility.yul\":5853:5913   */\n      mstore\n        /* \"#utility.yul\":5937:5978   */\n      tag_185\n        /* \"#utility.yul\":5971:5977   */\n      dup7\n        /* \"#utility.yul\":5954:5969   */\n      dup6\n        /* \"#utility.yul\":5937:5978   */\n      tag_154\n      jump\t// in\n    tag_185:\n        /* \"#utility.yul\":5922:5978   */\n      swap6\n      pop\n        /* \"#utility.yul\":6028:6030   */\n      dup1\n        /* \"#utility.yul\":6020:6026   */\n      dup10\n        /* \"#utility.yul\":6016:6031   */\n      add\n        /* \"#utility.yul\":6010:6032   */\n      mload\n        /* \"#utility.yul\":5987:6032   */\n      swap4\n      pop\n      pop\n      pop\n        /* \"#utility.yul\":6097:6099   */\n      dup1\n        /* \"#utility.yul\":6085:6094   */\n      dup7\n        /* \"#utility.yul\":6076:6083   */\n      dup6\n        /* \"#utility.yul\":6072:6095   */\n      sub\n        /* \"#utility.yul\":6068:6100   */\n      add\n        /* \"#utility.yul\":6063:6065   */\n      dup4\n        /* \"#utility.yul\":6052:6061   */\n      dup8\n        /* \"#utility.yul\":6048:6066   */\n      add\n        /* \"#utility.yul\":6041:6101   */\n      mstore\n      pop\n        /* \"#utility.yul\":6118:6160   */\n      tag_37\n        /* \"#utility.yul\":6152:6159   */\n      dup4\n        /* \"#utility.yul\":6135:6150   */\n      dup3\n        /* \"#utility.yul\":6118:6160   */\n      tag_154\n      jump\t// in\n        /* \"#utility.yul\":6171:6299   */\n    tag_52:\n      0x00\n        /* \"#utility.yul\":6242:6243   */\n      dup3\n        /* \"#utility.yul\":6238:6244   */\n      not\n        /* \"#utility.yul\":6235:6236   */\n      dup3\n        /* \"#utility.yul\":6232:6245   */\n      gt\n        /* \"#utility.yul\":6229:6231   */\n      iszero\n      tag_189\n      jumpi\n        /* \"#utility.yul\":6248:6266   */\n      tag_189\n      tag_190\n      jump\t// in\n    tag_189:\n      pop\n        /* \"#utility.yul\":6284:6293   */\n      add\n      swap1\n        /* \"#utility.yul\":6219:6299   */\n      jump\t// out\n        /* \"#utility.yul\":6304:6521   */\n    tag_47:\n      0x00\n        /* \"#utility.yul\":6370:6371   */\n      dup3\n        /* \"#utility.yul\":6360:6362   */\n      tag_192\n      jumpi\n      shl(0xe0, 0x4e487b71)\n        /* \"#utility.yul\":6395:6426   */\n      dup2\n      mstore\n        /* \"#utility.yul\":6449:6453   */\n      0x12\n        /* \"#utility.yul\":6446:6447   */\n      0x04\n        /* \"#utility.yul\":6439:6454   */\n      mstore\n        /* \"#utility.yul\":6477:6481   */\n      0x24\n        /* \"#utility.yul\":6402:6403   */\n      dup2\n        /* \"#utility.yul\":6467:6482   */\n      revert\n        /* \"#utility.yul\":6360:6362   */\n    tag_192:\n      pop\n        /* \"#utility.yul\":6506:6515   */\n      div\n      swap1\n        /* \"#utility.yul\":6350:6521   */\n      jump\t// out\n        /* \"#utility.yul\":6526:6979   */\n    tag_193:\n        /* \"#utility.yul\":6622:6628   */\n      dup1\n        /* \"#utility.yul\":6645:6650   */\n      dup3\n        /* \"#utility.yul\":6659:6973   */\n    tag_195:\n        /* \"#utility.yul\":6708:6709   */\n      0x01\n        /* \"#utility.yul\":6745:6747   */\n      dup1\n        /* \"#utility.yul\":6735:6743   */\n      dup7\n        /* \"#utility.yul\":6732:6748   */\n      gt\n        /* \"#utility.yul\":6722:6724   */\n      tag_198\n      jumpi\n        /* \"#utility.yul\":6752:6757   */\n      pop\n      jump(tag_197)\n        /* \"#utility.yul\":6722:6724   */\n    tag_198:\n        /* \"#utility.yul\":6793:6797   */\n      dup2\n        /* \"#utility.yul\":6788:6791   */\n      dup8\n        /* \"#utility.yul\":6784:6798   */\n      div\n        /* \"#utility.yul\":6778:6782   */\n      dup3\n        /* \"#utility.yul\":6775:6799   */\n      gt\n        /* \"#utility.yul\":6772:6774   */\n      iszero\n      tag_200\n      jumpi\n        /* \"#utility.yul\":6802:6820   */\n      tag_200\n      tag_190\n      jump\t// in\n    tag_200:\n        /* \"#utility.yul\":6852:6854   */\n      dup1\n        /* \"#utility.yul\":6842:6850   */\n      dup7\n        /* \"#utility.yul\":6838:6855   */\n      and\n        /* \"#utility.yul\":6835:6837   */\n      iszero\n      tag_201\n      jumpi\n        /* \"#utility.yul\":6867:6883   */\n      swap2\n      dup2\n      mul\n      swap2\n        /* \"#utility.yul\":6835:6837   */\n    tag_201:\n        /* \"#utility.yul\":6946:6963   */\n      swap5\n      swap1\n      swap5\n      shr\n      swap4\n        /* \"#utility.yul\":6906:6921   */\n      dup1\n      mul\n        /* \"#utility.yul\":6659:6973   */\n      jump(tag_195)\n    tag_197:\n        /* \"#utility.yul\":6603:6979   */\n      swap5\n      pop\n      swap5\n      swap3\n      pop\n      pop\n      pop\n      jump\t// out\n        /* \"#utility.yul\":6984:7123   */\n    tag_127:\n      0x00\n        /* \"#utility.yul\":7073:7117   */\n      tag_126\n      not(0x00)\n        /* \"#utility.yul\":7100:7108   */\n      dup5\n        /* \"#utility.yul\":7094:7098   */\n      dup5\n        /* \"#utility.yul\":7128:8050   */\n      0x00\n        /* \"#utility.yul\":7212:7220   */\n      dup3\n        /* \"#utility.yul\":7202:7204   */\n      tag_206\n      jumpi\n      pop\n        /* \"#utility.yul\":7253:7254   */\n      0x01\n        /* \"#utility.yul\":7267:7272   */\n      jump(tag_126)\n        /* \"#utility.yul\":7202:7204   */\n    tag_206:\n        /* \"#utility.yul\":7301:7305   */\n      dup2\n        /* \"#utility.yul\":7291:7293   */\n      tag_207\n      jumpi\n      pop\n        /* \"#utility.yul\":7338:7339   */\n      0x00\n        /* \"#utility.yul\":7352:7357   */\n      jump(tag_126)\n        /* \"#utility.yul\":7291:7293   */\n    tag_207:\n        /* \"#utility.yul\":7383:7387   */\n      dup2\n        /* \"#utility.yul\":7401:7402   */\n      0x01\n        /* \"#utility.yul\":7396:7455   */\n      dup2\n      eq\n      tag_209\n      jumpi\n        /* \"#utility.yul\":7469:7470   */\n      0x02\n        /* \"#utility.yul\":7464:7647   */\n      dup2\n      eq\n      tag_210\n      jumpi\n        /* \"#utility.yul\":7376:7647   */\n      jump(tag_208)\n        /* \"#utility.yul\":7396:7455   */\n    tag_209:\n        /* \"#utility.yul\":7426:7427   */\n      0x01\n        /* \"#utility.yul\":7417:7427   */\n      swap2\n      pop\n        /* \"#utility.yul\":7440:7445   */\n      pop\n      jump(tag_126)\n        /* \"#utility.yul\":7464:7647   */\n    tag_210:\n        /* \"#utility.yul\":7501:7504   */\n      0xff\n        /* \"#utility.yul\":7491:7499   */\n      dup5\n        /* \"#utility.yul\":7488:7505   */\n      gt\n        /* \"#utility.yul\":7485:7487   */\n      iszero\n      tag_212\n      jumpi\n        /* \"#utility.yul\":7508:7526   */\n      tag_212\n      tag_190\n      jump\t// in\n    tag_212:\n        /* \"#utility.yul\":7564:7565   */\n      0x01\n        /* \"#utility.yul\":7554:7562   */\n      dup5\n        /* \"#utility.yul\":7550:7566   */\n      shl\n        /* \"#utility.yul\":7541:7566   */\n      swap2\n      pop\n        /* \"#utility.yul\":7592:7595   */\n      dup5\n        /* \"#utility.yul\":7585:7590   */\n      dup3\n        /* \"#utility.yul\":7582:7596   */\n      gt\n        /* \"#utility.yul\":7579:7581   */\n      iszero\n      tag_214\n      jumpi\n        /* \"#utility.yul\":7599:7617   */\n      tag_214\n      tag_190\n      jump\t// in\n    tag_214:\n        /* \"#utility.yul\":7632:7637   */\n      pop\n      jump(tag_126)\n        /* \"#utility.yul\":7376:7647   */\n    tag_208:\n      pop\n        /* \"#utility.yul\":7731:7733   */\n      0x20\n        /* \"#utility.yul\":7721:7729   */\n      dup4\n        /* \"#utility.yul\":7718:7734   */\n      lt\n        /* \"#utility.yul\":7712:7715   */\n      0x0133\n        /* \"#utility.yul\":7706:7710   */\n      dup4\n        /* \"#utility.yul\":7703:7716   */\n      lt\n        /* \"#utility.yul\":7699:7735   */\n      and\n        /* \"#utility.yul\":7693:7695   */\n      0x4e\n        /* \"#utility.yul\":7683:7691   */\n      dup5\n        /* \"#utility.yul\":7680:7696   */\n      lt\n        /* \"#utility.yul\":7675:7677   */\n      0x0b\n        /* \"#utility.yul\":7669:7673   */\n      dup5\n        /* \"#utility.yul\":7666:7678   */\n      lt\n        /* \"#utility.yul\":7662:7697   */\n      and\n        /* \"#utility.yul\":7659:7736   */\n      or\n        /* \"#utility.yul\":7656:7658   */\n      iszero\n      tag_215\n      jumpi\n      pop\n        /* \"#utility.yul\":7768:7787   */\n      dup2\n      dup2\n      exp\n        /* \"#utility.yul\":7803:7817   */\n      dup4\n      dup2\n      gt\n        /* \"#utility.yul\":7800:7802   */\n      iszero\n      tag_217\n      jumpi\n        /* \"#utility.yul\":7820:7838   */\n      tag_217\n      tag_190\n      jump\t// in\n    tag_217:\n        /* \"#utility.yul\":7853:7858   */\n      jump(tag_126)\n        /* \"#utility.yul\":7656:7658   */\n    tag_215:\n        /* \"#utility.yul\":7900:7942   */\n      tag_218\n        /* \"#utility.yul\":7938:7941   */\n      dup5\n        /* \"#utility.yul\":7928:7936   */\n      dup5\n        /* \"#utility.yul\":7922:7926   */\n      dup5\n        /* \"#utility.yul\":7919:7920   */\n      0x01\n        /* \"#utility.yul\":7900:7942   */\n      tag_193\n      jump\t// in\n    tag_218:\n        /* \"#utility.yul\":7975:7981   */\n      dup1\n        /* \"#utility.yul\":7970:7973   */\n      dup7\n        /* \"#utility.yul\":7966:7982   */\n      div\n        /* \"#utility.yul\":7957:7964   */\n      dup3\n        /* \"#utility.yul\":7954:7983   */\n      gt\n        /* \"#utility.yul\":7951:7953   */\n      iszero\n      tag_220\n      jumpi\n        /* \"#utility.yul\":7986:8004   */\n      tag_220\n      tag_190\n      jump\t// in\n    tag_220:\n        /* \"#utility.yul\":8024:8044   */\n      mul\n      swap5\n        /* \"#utility.yul\":7192:8050   */\n      swap4\n      pop\n      pop\n      pop\n      pop\n      jump\t// out\n        /* \"#utility.yul\":8055:8223   */\n    tag_100:\n      0x00\n        /* \"#utility.yul\":8161:8162   */\n      dup2\n        /* \"#utility.yul\":8157:8158   */\n      0x00\n        /* \"#utility.yul\":8153:8159   */\n      not\n        /* \"#utility.yul\":8149:8163   */\n      div\n        /* \"#utility.yul\":8146:8147   */\n      dup4\n        /* \"#utility.yul\":8143:8164   */\n      gt\n        /* \"#utility.yul\":8138:8139   */\n      dup3\n        /* \"#utility.yul\":8131:8140   */\n      iszero\n        /* \"#utility.yul\":8124:8141   */\n      iszero\n        /* \"#utility.yul\":8120:8165   */\n      and\n        /* \"#utility.yul\":8117:8119   */\n      iszero\n      tag_223\n      jumpi\n        /* \"#utility.yul\":8168:8186   */\n      tag_223\n      tag_190\n      jump\t// in\n    tag_223:\n      pop\n        /* \"#utility.yul\":8208:8217   */\n      mul\n      swap1\n        /* \"#utility.yul\":8107:8223   */\n      jump\t// out\n        /* \"#utility.yul\":8228:8353   */\n    tag_35:\n      0x00\n        /* \"#utility.yul\":8296:8297   */\n      dup3\n        /* \"#utility.yul\":8293:8294   */\n      dup3\n        /* \"#utility.yul\":8290:8298   */\n      lt\n        /* \"#utility.yul\":8287:8289   */\n      iszero\n      tag_226\n      jumpi\n        /* \"#utility.yul\":8301:8319   */\n      tag_226\n      tag_190\n      jump\t// in\n    tag_226:\n      pop\n        /* \"#utility.yul\":8338:8347   */\n      sub\n      swap1\n        /* \"#utility.yul\":8277:8353   */\n      jump\t// out\n        /* \"#utility.yul\":8358:8616   */\n    tag_157:\n        /* \"#utility.yul\":8430:8431   */\n      0x00\n        /* \"#utility.yul\":8440:8553   */\n    tag_228:\n        /* \"#utility.yul\":8454:8460   */\n      dup4\n        /* \"#utility.yul\":8451:8452   */\n      dup2\n        /* \"#utility.yul\":8448:8461   */\n      lt\n        /* \"#utility.yul\":8440:8553   */\n      iszero\n      tag_230\n      jumpi\n        /* \"#utility.yul\":8530:8541   */\n      dup2\n      dup2\n      add\n        /* \"#utility.yul\":8524:8542   */\n      mload\n        /* \"#utility.yul\":8511:8522   */\n      dup4\n      dup3\n      add\n        /* \"#utility.yul\":8504:8543   */\n      mstore\n        /* \"#utility.yul\":8476:8478   */\n      0x20\n        /* \"#utility.yul\":8469:8479   */\n      add\n        /* \"#utility.yul\":8440:8553   */\n      jump(tag_228)\n    tag_230:\n        /* \"#utility.yul\":8571:8577   */\n      dup4\n        /* \"#utility.yul\":8568:8569   */\n      dup2\n        /* \"#utility.yul\":8565:8578   */\n      gt\n        /* \"#utility.yul\":8562:8564   */\n      iszero\n      tag_231\n      jumpi\n        /* \"#utility.yul\":8606:8607   */\n      0x00\n        /* \"#utility.yul\":8597:8603   */\n      dup5\n        /* \"#utility.yul\":8592:8595   */\n      dup5\n        /* \"#utility.yul\":8588:8604   */\n      add\n        /* \"#utility.yul\":8581:8608   */\n      mstore\n        /* \"#utility.yul\":8562:8564   */\n    tag_231:\n      pop\n        /* \"#utility.yul\":8411:8616   */\n      pop\n      pop\n      pop\n      jump\t// out\n        /* \"#utility.yul\":8621:8756   */\n    tag_90:\n      0x00\n      not(0x00)\n        /* \"#utility.yul\":8681:8698   */\n      dup3\n      eq\n        /* \"#utility.yul\":8678:8680   */\n      iszero\n      tag_234\n      jumpi\n        /* \"#utility.yul\":8701:8719   */\n      tag_234\n      tag_190\n      jump\t// in\n    tag_234:\n      pop\n        /* \"#utility.yul\":8748:8749   */\n      0x01\n        /* \"#utility.yul\":8737:8750   */\n      add\n      swap1\n        /* \"#utility.yul\":8668:8756   */\n      jump\t// out\n        /* \"#utility.yul\":8761:8888   */\n    tag_190:\n        /* \"#utility.yul\":8822:8832   */\n      0x4e487b71\n        /* \"#utility.yul\":8817:8820   */\n      0xe0\n        /* \"#utility.yul\":8813:8833   */\n      shl\n        /* \"#utility.yul\":8810:8811   */\n      0x00\n        /* \"#utility.yul\":8803:8834   */\n      mstore\n        /* \"#utility.yul\":8853:8857   */\n      0x11\n        /* \"#utility.yul\":8850:8851   */\n      0x04\n        /* \"#utility.yul\":8843:8858   */\n      mstore\n        /* \"#utility.yul\":8877:8881   */\n      0x24\n        /* \"#utility.yul\":8874:8875   */\n      0x00\n        /* \"#utility.yul\":8867:8882   */\n      revert\n        /* \"#utility.yul\":8893:9020   */\n    tag_150:\n        /* \"#utility.yul\":8954:8964   */\n      0x4e487b71\n        /* \"#utility.yul\":8949:8952   */\n      0xe0\n        /* \"#utility.yul\":8945:8965   */\n      shl\n        /* \"#utility.yul\":8942:8943   */\n      0x00\n        /* \"#utility.yul\":8935:8966   */\n      mstore\n        /* \"#utility.yul\":8985:8989   */\n      0x41\n        /* \"#utility.yul\":8982:8983   */\n      0x04\n        /* \"#utility.yul\":8975:8990   */\n      mstore\n        /* \"#utility.yul\":9009:9013   */\n      0x24\n        /* \"#utility.yul\":9006:9007   */\n      0x00\n        /* \"#utility.yul\":8999:9014   */\n      revert\n\n    auxdata: 0xa2646970667358221220e0b98a64276d4358dec145d4b947f3ba3609c16ac2aced2496abac1f016c3e8264736f6c63430008020033\n}\n",
				"bytecode": {
					"linkReferences": {},
					"object": "608060405234801561001057600080fd5b50610ce3806100206000396000f3fe608060405234801561001057600080fd5b50600436106100365760003560e01c8063111bdd381461003b578063a16c64e614610064575b600080fd5b61004e61004936600461079f565b610085565b60405161005b9190610912565b60405180910390f35b61007761007236600461079f565b610092565b60405190815260200161005b565b61008d6106c7565b919050565b60008151600014156100a65750600061008d565b60408051600e8082526101e08201909252600091816020015b60608152602001906001900390816100bf5750506040805180820190915260008082526020820186905291925090805b6020830151518351101561014e5761010683610161565b9092509050610114836101a9565b84610120600185610c1f565b8151811061013e57634e487b7160e01b600052603260045260246000fd5b60200260200101819052506100ef565b61015784610274565b9695505050505050565b600080600061016f846104b0565b905061017c600882610acc565b92508060071660058111156101a157634e487b7160e01b600052602160045260246000fd5b915050915091565b606060006101b6836104b0565b905060008184600001516101ca9190610ab4565b90508360200151518111156101de57600080fd5b8167ffffffffffffffff81111561020557634e487b7160e01b600052604160045260246000fd5b6040519080825280601f01601f19166020018201604052801561022f576020820181803683370190505b50602080860151865192955091818601919083010160005b85811015610269578181015183820152610262602082610ab4565b9050610247565b505050935250919050565b600081516000141561028f57610288610530565b905061008d565b8151600114156102ca57610288826000815181106102bd57634e487b7160e01b600052603260045260246000fd5b6020026020010151610593565b60006102d6835161060b565b905060008167ffffffffffffffff81111561030157634e487b7160e01b600052604160045260246000fd5b60405190808252806020026020018201604052801561033457816020015b606081526020019060019003908161031f5790505b50905060008285516103469190610c1f565b67ffffffffffffffff81111561036c57634e487b7160e01b600052604160045260246000fd5b60405190808252806020026020018201604052801561039f57816020015b606081526020019060019003908161038a5790505b50905060005b855181101561047f578381101561040e578581815181106103d657634e487b7160e01b600052603260045260246000fd5b60200260200101518382815181106103fe57634e487b7160e01b600052603260045260246000fd5b602002602001018190525061046d565b85818151811061042e57634e487b7160e01b600052603260045260246000fd5b60200260200101518285836104439190610c1f565b8151811061046157634e487b7160e01b600052603260045260246000fd5b60200260200101819052505b8061047781610c66565b9150506103a5565b50600061048b83610274565b9050600061049883610274565b90506104a48282610649565b9550505050505061008d565b602080820151825181019091015160009182805b600a81101561052a5783811a91506104dd816007610c00565b82607f16901b85179450816080166000141561051a576104fe816001610ab4565b8651879061050d908390610ab4565b90525061008d9350505050565b61052381610c66565b90506104c4565b50600080fd5b60408051600080825260208201928390529160029161054e916108c7565b602060405180830381855afa15801561056b573d6000803e3d6000fd5b5050506040513d601f19601f8201168201806040525081019061058e9190610787565b905090565b600060026000836040516020016105ab9291906108e3565b60408051601f19818403018152908290526105c5916108c7565b602060405180830381855afa1580156105e2573d6000803e3d6000fd5b5050506040513d601f19601f820116820180604052508101906106059190610787565b92915050565b6000805b600183111561063757610623600284610acc565b92508061062f81610c66565b91505061060f565b610642816002610b32565b9392505050565b604051600160f81b6020820152602181018390526041810182905260009060029060610160408051601f1981840301815290829052610687916108c7565b602060405180830381855afa1580156106a4573d6000803e3d6000fd5b5050506040513d601f19601f820116820180604052508101906106429190610787565b604080516102008101825260006101c082018181526101e083018290528252606060208301819052928201819052918101919091526080810161070861074d565b81526020016060815260200160608152602001606081526020016060815260200160608152602001606081526020016060815260200160608152602001606081525090565b6040518060400160405280606081526020016107826040518060400160405280600063ffffffff168152602001606081525090565b905290565b600060208284031215610798578081fd5b5051919050565b6000602082840312156107b0578081fd5b813567ffffffffffffffff808211156107c7578283fd5b818401915084601f8301126107da578283fd5b8135818111156107ec576107ec610c97565b604051601f8201601f19908116603f0116810190838211818310171561081457610814610c97565b8160405282815287602084870101111561082c578586fd5b826020860160208301379182016020019490945295945050505050565b60008151808452610861816020860160208601610c36565b601f01601f19169290920160200192915050565b600081516040845261088a6040850182610849565b90506020830151848203602086015263ffffffff815116825260208101519050604060208301526108be6040830182610849565b95945050505050565b600082516108d9818460208701610c36565b9190910192915050565b600060ff60f81b8460f81b1682528251610904816001850160208701610c36565b919091016001019392505050565b60208082528251805167ffffffffffffffff90811684840152910151166040820152600060208301516101e0806060850152610952610200850183610849565b9150604085015161096f608086018267ffffffffffffffff169052565b50606085015167ffffffffffffffff1660a08501526080850151601f19858403810160c08701526109a08483610875565b935060a08701519150808685030160e08701526109bd8483610849565b935060c087015191506101008187860301818801526109dc8584610849565b945060e088015192506101208288870301818901526109fb8685610849565b95508189015193506101409150828887030182890152610a1b8685610849565b955080890151935050610160828887030181890152610a3a8685610849565b95508189015193506101809150828887030182890152610a5a8685610849565b9550808901519350506101a0828887030181890152610a798685610849565b955081890151935082888703016101c0890152610a968685610849565b95508089015193505050808685030183870152506101578382610849565b60008219821115610ac757610ac7610c81565b500190565b600082610ae757634e487b7160e01b81526012600452602481fd5b500490565b80825b6001808611610afe5750610b29565b818704821115610b1057610b10610c81565b80861615610b1d57918102915b9490941c938002610aef565b94509492505050565b60006106426000198484600082610b4b57506001610642565b81610b5857506000610642565b8160018114610b6e5760028114610b7857610ba5565b6001915050610642565b60ff841115610b8957610b89610c81565b6001841b915084821115610b9f57610b9f610c81565b50610642565b5060208310610133831016604e8410600b8410161715610bd8575081810a83811115610bd357610bd3610c81565b610642565b610be58484846001610aec565b808604821115610bf757610bf7610c81565b02949350505050565b6000816000190483118215151615610c1a57610c1a610c81565b500290565b600082821015610c3157610c31610c81565b500390565b60005b83811015610c51578181015183820152602001610c39565b83811115610c60576000848401525b50505050565b6000600019821415610c7a57610c7a610c81565b5060010190565b634e487b7160e01b600052601160045260246000fd5b634e487b7160e01b600052604160045260246000fdfea2646970667358221220e0b98a64276d4358dec145d4b947f3ba3609c16ac2aced2496abac1f016c3e8264736f6c63430008020033",
					"opcodes": "PUSH1 0x80 PUSH1 0x40 MSTORE CALLVALUE DUP1 ISZERO PUSH2 0x10 JUMPI PUSH1 0x0 DUP1 REVERT JUMPDEST POP PUSH2 0xCE3 DUP1 PUSH2 0x20 PUSH1 0x0 CODECOPY PUSH1 0x0 RETURN INVALID PUSH1 0x80 PUSH1 0x40 MSTORE CALLVALUE DUP1 ISZERO PUSH2 0x10 JUMPI PUSH1 0x0 DUP1 REVERT JUMPDEST POP PUSH1 0x4 CALLDATASIZE LT PUSH2 0x36 JUMPI PUSH1 0x0 CALLDATALOAD PUSH1 0xE0 SHR DUP1 PUSH4 0x111BDD38 EQ PUSH2 0x3B JUMPI DUP1 PUSH4 0xA16C64E6 EQ PUSH2 0x64 JUMPI JUMPDEST PUSH1 0x0 DUP1 REVERT JUMPDEST PUSH2 0x4E PUSH2 0x49 CALLDATASIZE PUSH1 0x4 PUSH2 0x79F JUMP JUMPDEST PUSH2 0x85 JUMP JUMPDEST PUSH1 0x40 MLOAD PUSH2 0x5B SWAP2 SWAP1 PUSH2 0x912 JUMP JUMPDEST PUSH1 0x40 MLOAD DUP1 SWAP2 SUB SWAP1 RETURN JUMPDEST PUSH2 0x77 PUSH2 0x72 CALLDATASIZE PUSH1 0x4 PUSH2 0x79F JUMP JUMPDEST PUSH2 0x92 JUMP JUMPDEST PUSH1 0x40 MLOAD SWAP1 DUP2 MSTORE PUSH1 0x20 ADD PUSH2 0x5B JUMP JUMPDEST PUSH2 0x8D PUSH2 0x6C7 JUMP JUMPDEST SWAP2 SWAP1 POP JUMP JUMPDEST PUSH1 0x0 DUP2 MLOAD PUSH1 0x0 EQ ISZERO PUSH2 0xA6 JUMPI POP PUSH1 0x0 PUSH2 0x8D JUMP JUMPDEST PUSH1 0x40 DUP1 MLOAD PUSH1 0xE DUP1 DUP3 MSTORE PUSH2 0x1E0 DUP3 ADD SWAP1 SWAP3 MSTORE PUSH1 0x0 SWAP2 DUP2 PUSH1 0x20 ADD JUMPDEST PUSH1 0x60 DUP2 MSTORE PUSH1 0x20 ADD SWAP1 PUSH1 0x1 SWAP1 SUB SWAP1 DUP2 PUSH2 0xBF JUMPI POP POP PUSH1 0x40 DUP1 MLOAD DUP1 DUP3 ADD SWAP1 SWAP2 MSTORE PUSH1 0x0 DUP1 DUP3 MSTORE PUSH1 0x20 DUP3 ADD DUP7 SWAP1 MSTORE SWAP2 SWAP3 POP SWAP1 DUP1 JUMPDEST PUSH1 0x20 DUP4 ADD MLOAD MLOAD DUP4 MLOAD LT ISZERO PUSH2 0x14E JUMPI PUSH2 0x106 DUP4 PUSH2 0x161 JUMP JUMPDEST SWAP1 SWAP3 POP SWAP1 POP PUSH2 0x114 DUP4 PUSH2 0x1A9 JUMP JUMPDEST DUP5 PUSH2 0x120 PUSH1 0x1 DUP6 PUSH2 0xC1F JUMP JUMPDEST DUP2 MLOAD DUP2 LT PUSH2 0x13E JUMPI PUSH4 0x4E487B71 PUSH1 0xE0 SHL PUSH1 0x0 MSTORE PUSH1 0x32 PUSH1 0x4 MSTORE PUSH1 0x24 PUSH1 0x0 REVERT JUMPDEST PUSH1 0x20 MUL PUSH1 0x20 ADD ADD DUP2 SWAP1 MSTORE POP PUSH2 0xEF JUMP JUMPDEST PUSH2 0x157 DUP5 PUSH2 0x274 JUMP JUMPDEST SWAP7 SWAP6 POP POP POP POP POP POP JUMP JUMPDEST PUSH1 0x0 DUP1 PUSH1 0x0 PUSH2 0x16F DUP5 PUSH2 0x4B0 JUMP JUMPDEST SWAP1 POP PUSH2 0x17C PUSH1 0x8 DUP3 PUSH2 0xACC JUMP JUMPDEST SWAP3 POP DUP1 PUSH1 0x7 AND PUSH1 0x5 DUP2 GT ISZERO PUSH2 0x1A1 JUMPI PUSH4 0x4E487B71 PUSH1 0xE0 SHL PUSH1 0x0 MSTORE PUSH1 0x21 PUSH1 0x4 MSTORE PUSH1 0x24 PUSH1 0x0 REVERT JUMPDEST SWAP2 POP POP SWAP2 POP SWAP2 JUMP JUMPDEST PUSH1 0x60 PUSH1 0x0 PUSH2 0x1B6 DUP4 PUSH2 0x4B0 JUMP JUMPDEST SWAP1 POP PUSH1 0x0 DUP2 DUP5 PUSH1 0x0 ADD MLOAD PUSH2 0x1CA SWAP2 SWAP1 PUSH2 0xAB4 JUMP JUMPDEST SWAP1 POP DUP4 PUSH1 0x20 ADD MLOAD MLOAD DUP2 GT ISZERO PUSH2 0x1DE JUMPI PUSH1 0x0 DUP1 REVERT JUMPDEST DUP2 PUSH8 0xFFFFFFFFFFFFFFFF DUP2 GT ISZERO PUSH2 0x205 JUMPI PUSH4 0x4E487B71 PUSH1 0xE0 SHL PUSH1 0x0 MSTORE PUSH1 0x41 PUSH1 0x4 MSTORE PUSH1 0x24 PUSH1 0x0 REVERT JUMPDEST PUSH1 0x40 MLOAD SWAP1 DUP1 DUP3 MSTORE DUP1 PUSH1 0x1F ADD PUSH1 0x1F NOT AND PUSH1 0x20 ADD DUP3 ADD PUSH1 0x40 MSTORE DUP1 ISZERO PUSH2 0x22F JUMPI PUSH1 0x20 DUP3 ADD DUP2 DUP1 CALLDATASIZE DUP4 CALLDATACOPY ADD SWAP1 POP JUMPDEST POP PUSH1 0x20 DUP1 DUP7 ADD MLOAD DUP7 MLOAD SWAP3 SWAP6 POP SWAP2 DUP2 DUP7 ADD SWAP2 SWAP1 DUP4 ADD ADD PUSH1 0x0 JUMPDEST DUP6 DUP2 LT ISZERO PUSH2 0x269 JUMPI DUP2 DUP2 ADD MLOAD DUP4 DUP3 ADD MSTORE PUSH2 0x262 PUSH1 0x20 DUP3 PUSH2 0xAB4 JUMP JUMPDEST SWAP1 POP PUSH2 0x247 JUMP JUMPDEST POP POP POP SWAP4 MSTORE POP SWAP2 SWAP1 POP JUMP JUMPDEST PUSH1 0x0 DUP2 MLOAD PUSH1 0x0 EQ ISZERO PUSH2 0x28F JUMPI PUSH2 0x288 PUSH2 0x530 JUMP JUMPDEST SWAP1 POP PUSH2 0x8D JUMP JUMPDEST DUP2 MLOAD PUSH1 0x1 EQ ISZERO PUSH2 0x2CA JUMPI PUSH2 0x288 DUP3 PUSH1 0x0 DUP2 MLOAD DUP2 LT PUSH2 0x2BD JUMPI PUSH4 0x4E487B71 PUSH1 0xE0 SHL PUSH1 0x0 MSTORE PUSH1 0x32 PUSH1 0x4 MSTORE PUSH1 0x24 PUSH1 0x0 REVERT JUMPDEST PUSH1 0x20 MUL PUSH1 0x20 ADD ADD MLOAD PUSH2 0x593 JUMP JUMPDEST PUSH1 0x0 PUSH2 0x2D6 DUP4 MLOAD PUSH2 0x60B JUMP JUMPDEST SWAP1 POP PUSH1 0x0 DUP2 PUSH8 0xFFFFFFFFFFFFFFFF DUP2 GT ISZERO PUSH2 0x301 JUMPI PUSH4 0x4E487B71 PUSH1 0xE0 SHL PUSH1 0x0 MSTORE PUSH1 0x41 PUSH1 0x4 MSTORE PUSH1 0x24 PUSH1 0x0 REVERT JUMPDEST PUSH1 0x40 MLOAD SWAP1 DUP1 DUP3 MSTORE DUP1 PUSH1 0x20 MUL PUSH1 0x20 ADD DUP3 ADD PUSH1 0x40 MSTORE DUP1 ISZERO PUSH2 0x334 JUMPI DUP2 PUSH1 0x20 ADD JUMPDEST PUSH1 0x60 DUP2 MSTORE PUSH1 0x20 ADD SWAP1 PUSH1 0x1 SWAP1 SUB SWAP1 DUP2 PUSH2 0x31F JUMPI SWAP1 POP JUMPDEST POP SWAP1 POP PUSH1 0x0 DUP3 DUP6 MLOAD PUSH2 0x346 SWAP2 SWAP1 PUSH2 0xC1F JUMP JUMPDEST PUSH8 0xFFFFFFFFFFFFFFFF DUP2 GT ISZERO PUSH2 0x36C JUMPI PUSH4 0x4E487B71 PUSH1 0xE0 SHL PUSH1 0x0 MSTORE PUSH1 0x41 PUSH1 0x4 MSTORE PUSH1 0x24 PUSH1 0x0 REVERT JUMPDEST PUSH1 0x40 MLOAD SWAP1 DUP1 DUP3 MSTORE DUP1 PUSH1 0x20 MUL PUSH1 0x20 ADD DUP3 ADD PUSH1 0x40 MSTORE DUP1 ISZERO PUSH2 0x39F JUMPI DUP2 PUSH1 0x20 ADD JUMPDEST PUSH1 0x60 DUP2 MSTORE PUSH1 0x20 ADD SWAP1 PUSH1 0x1 SWAP1 SUB SWAP1 DUP2 PUSH2 0x38A JUMPI SWAP1 POP JUMPDEST POP SWAP1 POP PUSH1 0x0 JUMPDEST DUP6 MLOAD DUP2 LT ISZERO PUSH2 0x47F JUMPI DUP4 DUP2 LT ISZERO PUSH2 0x40E JUMPI DUP6 DUP2 DUP2 MLOAD DUP2 LT PUSH2 0x3D6 JUMPI PUSH4 0x4E487B71 PUSH1 0xE0 SHL PUSH1 0x0 MSTORE PUSH1 0x32 PUSH1 0x4 MSTORE PUSH1 0x24 PUSH1 0x0 REVERT JUMPDEST PUSH1 0x20 MUL PUSH1 0x20 ADD ADD MLOAD DUP4 DUP3 DUP2 MLOAD DUP2 LT PUSH2 0x3FE JUMPI PUSH4 0x4E487B71 PUSH1 0xE0 SHL PUSH1 0x0 MSTORE PUSH1 0x32 PUSH1 0x4 MSTORE PUSH1 0x24 PUSH1 0x0 REVERT JUMPDEST PUSH1 0x20 MUL PUSH1 0x20 ADD ADD DUP2 SWAP1 MSTORE POP PUSH2 0x46D JUMP JUMPDEST DUP6 DUP2 DUP2 MLOAD DUP2 LT PUSH2 0x42E JUMPI PUSH4 0x4E487B71 PUSH1 0xE0 SHL PUSH1 0x0 MSTORE PUSH1 0x32 PUSH1 0x4 MSTORE PUSH1 0x24 PUSH1 0x0 REVERT JUMPDEST PUSH1 0x20 MUL PUSH1 0x20 ADD ADD MLOAD DUP3 DUP6 DUP4 PUSH2 0x443 SWAP2 SWAP1 PUSH2 0xC1F JUMP JUMPDEST DUP2 MLOAD DUP2 LT PUSH2 0x461 JUMPI PUSH4 0x4E487B71 PUSH1 0xE0 SHL PUSH1 0x0 MSTORE PUSH1 0x32 PUSH1 0x4 MSTORE PUSH1 0x24 PUSH1 0x0 REVERT JUMPDEST PUSH1 0x20 MUL PUSH1 0x20 ADD ADD DUP2 SWAP1 MSTORE POP JUMPDEST DUP1 PUSH2 0x477 DUP2 PUSH2 0xC66 JUMP JUMPDEST SWAP2 POP POP PUSH2 0x3A5 JUMP JUMPDEST POP PUSH1 0x0 PUSH2 0x48B DUP4 PUSH2 0x274 JUMP JUMPDEST SWAP1 POP PUSH1 0x0 PUSH2 0x498 DUP4 PUSH2 0x274 JUMP JUMPDEST SWAP1 POP PUSH2 0x4A4 DUP3 DUP3 PUSH2 0x649 JUMP JUMPDEST SWAP6 POP POP POP POP POP POP PUSH2 0x8D JUMP JUMPDEST PUSH1 0x20 DUP1 DUP3 ADD MLOAD DUP3 MLOAD DUP2 ADD SWAP1 SWAP2 ADD MLOAD PUSH1 0x0 SWAP2 DUP3 DUP1 JUMPDEST PUSH1 0xA DUP2 LT ISZERO PUSH2 0x52A JUMPI DUP4 DUP2 BYTE SWAP2 POP PUSH2 0x4DD DUP2 PUSH1 0x7 PUSH2 0xC00 JUMP JUMPDEST DUP3 PUSH1 0x7F AND SWAP1 SHL DUP6 OR SWAP5 POP DUP2 PUSH1 0x80 AND PUSH1 0x0 EQ ISZERO PUSH2 0x51A JUMPI PUSH2 0x4FE DUP2 PUSH1 0x1 PUSH2 0xAB4 JUMP JUMPDEST DUP7 MLOAD DUP8 SWAP1 PUSH2 0x50D SWAP1 DUP4 SWAP1 PUSH2 0xAB4 JUMP JUMPDEST SWAP1 MSTORE POP PUSH2 0x8D SWAP4 POP POP POP POP JUMP JUMPDEST PUSH2 0x523 DUP2 PUSH2 0xC66 JUMP JUMPDEST SWAP1 POP PUSH2 0x4C4 JUMP JUMPDEST POP PUSH1 0x0 DUP1 REVERT JUMPDEST PUSH1 0x40 DUP1 MLOAD PUSH1 0x0 DUP1 DUP3 MSTORE PUSH1 0x20 DUP3 ADD SWAP3 DUP4 SWAP1 MSTORE SWAP2 PUSH1 0x2 SWAP2 PUSH2 0x54E SWAP2 PUSH2 0x8C7 JUMP JUMPDEST PUSH1 0x20 PUSH1 0x40 MLOAD DUP1 DUP4 SUB DUP2 DUP6 GAS STATICCALL ISZERO DUP1 ISZERO PUSH2 0x56B JUMPI RETURNDATASIZE PUSH1 0x0 DUP1 RETURNDATACOPY RETURNDATASIZE PUSH1 0x0 REVERT JUMPDEST POP POP POP PUSH1 0x40 MLOAD RETURNDATASIZE PUSH1 0x1F NOT PUSH1 0x1F DUP3 ADD AND DUP3 ADD DUP1 PUSH1 0x40 MSTORE POP DUP2 ADD SWAP1 PUSH2 0x58E SWAP2 SWAP1 PUSH2 0x787 JUMP JUMPDEST SWAP1 POP SWAP1 JUMP JUMPDEST PUSH1 0x0 PUSH1 0x2 PUSH1 0x0 DUP4 PUSH1 0x40 MLOAD PUSH1 0x20 ADD PUSH2 0x5AB SWAP3 SWAP2 SWAP1 PUSH2 0x8E3 JUMP JUMPDEST PUSH1 0x40 DUP1 MLOAD PUSH1 0x1F NOT DUP2 DUP5 SUB ADD DUP2 MSTORE SWAP1 DUP3 SWAP1 MSTORE PUSH2 0x5C5 SWAP2 PUSH2 0x8C7 JUMP JUMPDEST PUSH1 0x20 PUSH1 0x40 MLOAD DUP1 DUP4 SUB DUP2 DUP6 GAS STATICCALL ISZERO DUP1 ISZERO PUSH2 0x5E2 JUMPI RETURNDATASIZE PUSH1 0x0 DUP1 RETURNDATACOPY RETURNDATASIZE PUSH1 0x0 REVERT JUMPDEST POP POP POP PUSH1 0x40 MLOAD RETURNDATASIZE PUSH1 0x1F NOT PUSH1 0x1F DUP3 ADD AND DUP3 ADD DUP1 PUSH1 0x40 MSTORE POP DUP2 ADD SWAP1 PUSH2 0x605 SWAP2 SWAP1 PUSH2 0x787 JUMP JUMPDEST SWAP3 SWAP2 POP POP JUMP JUMPDEST PUSH1 0x0 DUP1 JUMPDEST PUSH1 0x1 DUP4 GT ISZERO PUSH2 0x637 JUMPI PUSH2 0x623 PUSH1 0x2 DUP5 PUSH2 0xACC JUMP JUMPDEST SWAP3 POP DUP1 PUSH2 0x62F DUP2 PUSH2 0xC66 JUMP JUMPDEST SWAP2 POP POP PUSH2 0x60F JUMP JUMPDEST PUSH2 0x642 DUP2 PUSH1 0x2 PUSH2 0xB32 JUMP JUMPDEST SWAP4 SWAP3 POP POP POP JUMP JUMPDEST PUSH1 0x40 MLOAD PUSH1 0x1 PUSH1 0xF8 SHL PUSH1 0x20 DUP3 ADD MSTORE PUSH1 0x21 DUP2 ADD DUP4 SWAP1 MSTORE PUSH1 0x41 DUP2 ADD DUP3 SWAP1 MSTORE PUSH1 0x0 SWAP1 PUSH1 0x2 SWAP1 PUSH1 0x61 ADD PUSH1 0x40 DUP1 MLOAD PUSH1 0x1F NOT DUP2 DUP5 SUB ADD DUP2 MSTORE SWAP1 DUP3 SWAP1 MSTORE PUSH2 0x687 SWAP2 PUSH2 0x8C7 JUMP JUMPDEST PUSH1 0x20 PUSH1 0x40 MLOAD DUP1 DUP4 SUB DUP2 DUP6 GAS STATICCALL ISZERO DUP1 ISZERO PUSH2 0x6A4 JUMPI RETURNDATASIZE PUSH1 0x0 DUP1 RETURNDATACOPY RETURNDATASIZE PUSH1 0x0 REVERT JUMPDEST POP POP POP PUSH1 0x40 MLOAD RETURNDATASIZE PUSH1 0x1F NOT PUSH1 0x1F DUP3 ADD AND DUP3 ADD DUP1 PUSH1 0x40 MSTORE POP DUP2 ADD SWAP1 PUSH2 0x642 SWAP2 SWAP1 PUSH2 0x787 JUMP JUMPDEST PUSH1 0x40 DUP1 MLOAD PUSH2 0x200 DUP2 ADD DUP3 MSTORE PUSH1 0x0 PUSH2 0x1C0 DUP3 ADD DUP2 DUP2 MSTORE PUSH2 0x1E0 DUP4 ADD DUP3 SWAP1 MSTORE DUP3 MSTORE PUSH1 0x60 PUSH1 0x20 DUP4 ADD DUP2 SWAP1 MSTORE SWAP3 DUP3 ADD DUP2 SWAP1 MSTORE SWAP2 DUP2 ADD SWAP2 SWAP1 SWAP2 MSTORE PUSH1 0x80 DUP2 ADD PUSH2 0x708 PUSH2 0x74D JUMP JUMPDEST DUP2 MSTORE PUSH1 0x20 ADD PUSH1 0x60 DUP2 MSTORE PUSH1 0x20 ADD PUSH1 0x60 DUP2 MSTORE PUSH1 0x20 ADD PUSH1 0x60 DUP2 MSTORE PUSH1 0x20 ADD PUSH1 0x60 DUP2 MSTORE PUSH1 0x20 ADD PUSH1 0x60 DUP2 MSTORE PUSH1 0x20 ADD PUSH1 0x60 DUP2 MSTORE PUSH1 0x20 ADD PUSH1 0x60 DUP2 MSTORE PUSH1 0x20 ADD PUSH1 0x60 DUP2 MSTORE PUSH1 0x20 ADD PUSH1 0x60 DUP2 MSTORE POP SWAP1 JUMP JUMPDEST PUSH1 0x40 MLOAD DUP1 PUSH1 0x40 ADD PUSH1 0x40 MSTORE DUP1 PUSH1 0x60 DUP2 MSTORE PUSH1 0x20 ADD PUSH2 0x782 PUSH1 0x40 MLOAD DUP1 PUSH1 0x40 ADD PUSH1 0x40 MSTORE DUP1 PUSH1 0x0 PUSH4 0xFFFFFFFF AND DUP2 MSTORE PUSH1 0x20 ADD PUSH1 0x60 DUP2 MSTORE POP SWAP1 JUMP JUMPDEST SWAP1 MSTORE SWAP1 JUMP JUMPDEST PUSH1 0x0 PUSH1 0x20 DUP3 DUP5 SUB SLT ISZERO PUSH2 0x798 JUMPI DUP1 DUP2 REVERT JUMPDEST POP MLOAD SWAP2 SWAP1 POP JUMP JUMPDEST PUSH1 0x0 PUSH1 0x20 DUP3 DUP5 SUB SLT ISZERO PUSH2 0x7B0 JUMPI DUP1 DUP2 REVERT JUMPDEST DUP2 CALLDATALOAD PUSH8 0xFFFFFFFFFFFFFFFF DUP1 DUP3 GT ISZERO PUSH2 0x7C7 JUMPI DUP3 DUP4 REVERT JUMPDEST DUP2 DUP5 ADD SWAP2 POP DUP5 PUSH1 0x1F DUP4 ADD SLT PUSH2 0x7DA JUMPI DUP3 DUP4 REVERT JUMPDEST DUP2 CALLDATALOAD DUP2 DUP2 GT ISZERO PUSH2 0x7EC JUMPI PUSH2 0x7EC PUSH2 0xC97 JUMP JUMPDEST PUSH1 0x40 MLOAD PUSH1 0x1F DUP3 ADD PUSH1 0x1F NOT SWAP1 DUP2 AND PUSH1 0x3F ADD AND DUP2 ADD SWAP1 DUP4 DUP3 GT DUP2 DUP4 LT OR ISZERO PUSH2 0x814 JUMPI PUSH2 0x814 PUSH2 0xC97 JUMP JUMPDEST DUP2 PUSH1 0x40 MSTORE DUP3 DUP2 MSTORE DUP8 PUSH1 0x20 DUP5 DUP8 ADD ADD GT ISZERO PUSH2 0x82C JUMPI DUP6 DUP7 REVERT JUMPDEST DUP3 PUSH1 0x20 DUP7 ADD PUSH1 0x20 DUP4 ADD CALLDATACOPY SWAP2 DUP3 ADD PUSH1 0x20 ADD SWAP5 SWAP1 SWAP5 MSTORE SWAP6 SWAP5 POP POP POP POP POP JUMP JUMPDEST PUSH1 0x0 DUP2 MLOAD DUP1 DUP5 MSTORE PUSH2 0x861 DUP2 PUSH1 0x20 DUP7 ADD PUSH1 0x20 DUP7 ADD PUSH2 0xC36 JUMP JUMPDEST PUSH1 0x1F ADD PUSH1 0x1F NOT AND SWAP3 SWAP1 SWAP3 ADD PUSH1 0x20 ADD SWAP3 SWAP2 POP POP JUMP JUMPDEST PUSH1 0x0 DUP2 MLOAD PUSH1 0x40 DUP5 MSTORE PUSH2 0x88A PUSH1 0x40 DUP6 ADD DUP3 PUSH2 0x849 JUMP JUMPDEST SWAP1 POP PUSH1 0x20 DUP4 ADD MLOAD DUP5 DUP3 SUB PUSH1 0x20 DUP7 ADD MSTORE PUSH4 0xFFFFFFFF DUP2 MLOAD AND DUP3 MSTORE PUSH1 0x20 DUP2 ADD MLOAD SWAP1 POP PUSH1 0x40 PUSH1 0x20 DUP4 ADD MSTORE PUSH2 0x8BE PUSH1 0x40 DUP4 ADD DUP3 PUSH2 0x849 JUMP JUMPDEST SWAP6 SWAP5 POP POP POP POP POP JUMP JUMPDEST PUSH1 0x0 DUP3 MLOAD PUSH2 0x8D9 DUP2 DUP5 PUSH1 0x20 DUP8 ADD PUSH2 0xC36 JUMP JUMPDEST SWAP2 SWAP1 SWAP2 ADD SWAP3 SWAP2 POP POP JUMP JUMPDEST PUSH1 0x0 PUSH1 0xFF PUSH1 0xF8 SHL DUP5 PUSH1 0xF8 SHL AND DUP3 MSTORE DUP3 MLOAD PUSH2 0x904 DUP2 PUSH1 0x1 DUP6 ADD PUSH1 0x20 DUP8 ADD PUSH2 0xC36 JUMP JUMPDEST SWAP2 SWAP1 SWAP2 ADD PUSH1 0x1 ADD SWAP4 SWAP3 POP POP POP JUMP JUMPDEST PUSH1 0x20 DUP1 DUP3 MSTORE DUP3 MLOAD DUP1 MLOAD PUSH8 0xFFFFFFFFFFFFFFFF SWAP1 DUP2 AND DUP5 DUP5 ADD MSTORE SWAP2 ADD MLOAD AND PUSH1 0x40 DUP3 ADD MSTORE PUSH1 0x0 PUSH1 0x20 DUP4 ADD MLOAD PUSH2 0x1E0 DUP1 PUSH1 0x60 DUP6 ADD MSTORE PUSH2 0x952 PUSH2 0x200 DUP6 ADD DUP4 PUSH2 0x849 JUMP JUMPDEST SWAP2 POP PUSH1 0x40 DUP6 ADD MLOAD PUSH2 0x96F PUSH1 0x80 DUP7 ADD DUP3 PUSH8 0xFFFFFFFFFFFFFFFF AND SWAP1 MSTORE JUMP JUMPDEST POP PUSH1 0x60 DUP6 ADD MLOAD PUSH8 0xFFFFFFFFFFFFFFFF AND PUSH1 0xA0 DUP6 ADD MSTORE PUSH1 0x80 DUP6 ADD MLOAD PUSH1 0x1F NOT DUP6 DUP5 SUB DUP2 ADD PUSH1 0xC0 DUP8 ADD MSTORE PUSH2 0x9A0 DUP5 DUP4 PUSH2 0x875 JUMP JUMPDEST SWAP4 POP PUSH1 0xA0 DUP8 ADD MLOAD SWAP2 POP DUP1 DUP7 DUP6 SUB ADD PUSH1 0xE0 DUP8 ADD MSTORE PUSH2 0x9BD DUP5 DUP4 PUSH2 0x849 JUMP JUMPDEST SWAP4 POP PUSH1 0xC0 DUP8 ADD MLOAD SWAP2 POP PUSH2 0x100 DUP2 DUP8 DUP7 SUB ADD DUP2 DUP9 ADD MSTORE PUSH2 0x9DC DUP6 DUP5 PUSH2 0x849 JUMP JUMPDEST SWAP5 POP PUSH1 0xE0 DUP9 ADD MLOAD SWAP3 POP PUSH2 0x120 DUP3 DUP9 DUP8 SUB ADD DUP2 DUP10 ADD MSTORE PUSH2 0x9FB DUP7 DUP6 PUSH2 0x849 JUMP JUMPDEST SWAP6 POP DUP2 DUP10 ADD MLOAD SWAP4 POP PUSH2 0x140 SWAP2 POP DUP3 DUP9 DUP8 SUB ADD DUP3 DUP10 ADD MSTORE PUSH2 0xA1B DUP7 DUP6 PUSH2 0x849 JUMP JUMPDEST SWAP6 POP DUP1 DUP10 ADD MLOAD SWAP4 POP POP PUSH2 0x160 DUP3 DUP9 DUP8 SUB ADD DUP2 DUP10 ADD MSTORE PUSH2 0xA3A DUP7 DUP6 PUSH2 0x849 JUMP JUMPDEST SWAP6 POP DUP2 DUP10 ADD MLOAD SWAP4 POP PUSH2 0x180 SWAP2 POP DUP3 DUP9 DUP8 SUB ADD DUP3 DUP10 ADD MSTORE PUSH2 0xA5A DUP7 DUP6 PUSH2 0x849 JUMP JUMPDEST SWAP6 POP DUP1 DUP10 ADD MLOAD SWAP4 POP POP PUSH2 0x1A0 DUP3 DUP9 DUP8 SUB ADD DUP2 DUP10 ADD MSTORE PUSH2 0xA79 DUP7 DUP6 PUSH2 0x849 JUMP JUMPDEST SWAP6 POP DUP2 DUP10 ADD MLOAD SWAP4 POP DUP3 DUP9 DUP8 SUB ADD PUSH2 0x1C0 DUP10 ADD MSTORE PUSH2 0xA96 DUP7 DUP6 PUSH2 0x849 JUMP JUMPDEST SWAP6 POP DUP1 DUP10 ADD MLOAD SWAP4 POP POP POP DUP1 DUP7 DUP6 SUB ADD DUP4 DUP8 ADD MSTORE POP PUSH2 0x157 DUP4 DUP3 PUSH2 0x849 JUMP JUMPDEST PUSH1 0x0 DUP3 NOT DUP3 GT ISZERO PUSH2 0xAC7 JUMPI PUSH2 0xAC7 PUSH2 0xC81 JUMP JUMPDEST POP ADD SWAP1 JUMP JUMPDEST PUSH1 0x0 DUP3 PUSH2 0xAE7 JUMPI PUSH4 0x4E487B71 PUSH1 0xE0 SHL DUP2 MSTORE PUSH1 0x12 PUSH1 0x4 MSTORE PUSH1 0x24 DUP2 REVERT JUMPDEST POP DIV SWAP1 JUMP JUMPDEST DUP1 DUP3 JUMPDEST PUSH1 0x1 DUP1 DUP7 GT PUSH2 0xAFE JUMPI POP PUSH2 0xB29 JUMP JUMPDEST DUP2 DUP8 DIV DUP3 GT ISZERO PUSH2 0xB10 JUMPI PUSH2 0xB10 PUSH2 0xC81 JUMP JUMPDEST DUP1 DUP7 AND ISZERO PUSH2 0xB1D JUMPI SWAP2 DUP2 MUL SWAP2 JUMPDEST SWAP5 SWAP1 SWAP5 SHR SWAP4 DUP1 MUL PUSH2 0xAEF JUMP JUMPDEST SWAP5 POP SWAP5 SWAP3 POP POP POP JUMP JUMPDEST PUSH1 0x0 PUSH2 0x642 PUSH1 0x0 NOT DUP5 DUP5 PUSH1 0x0 DUP3 PUSH2 0xB4B JUMPI POP PUSH1 0x1 PUSH2 0x642 JUMP JUMPDEST DUP2 PUSH2 0xB58 JUMPI POP PUSH1 0x0 PUSH2 0x642 JUMP JUMPDEST DUP2 PUSH1 0x1 DUP2 EQ PUSH2 0xB6E JUMPI PUSH1 0x2 DUP2 EQ PUSH2 0xB78 JUMPI PUSH2 0xBA5 JUMP JUMPDEST PUSH1 0x1 SWAP2 POP POP PUSH2 0x642 JUMP JUMPDEST PUSH1 0xFF DUP5 GT ISZERO PUSH2 0xB89 JUMPI PUSH2 0xB89 PUSH2 0xC81 JUMP JUMPDEST PUSH1 0x1 DUP5 SHL SWAP2 POP DUP5 DUP3 GT ISZERO PUSH2 0xB9F JUMPI PUSH2 0xB9F PUSH2 0xC81 JUMP JUMPDEST POP PUSH2 0x642 JUMP JUMPDEST POP PUSH1 0x20 DUP4 LT PUSH2 0x133 DUP4 LT AND PUSH1 0x4E DUP5 LT PUSH1 0xB DUP5 LT AND OR ISZERO PUSH2 0xBD8 JUMPI POP DUP2 DUP2 EXP DUP4 DUP2 GT ISZERO PUSH2 0xBD3 JUMPI PUSH2 0xBD3 PUSH2 0xC81 JUMP JUMPDEST PUSH2 0x642 JUMP JUMPDEST PUSH2 0xBE5 DUP5 DUP5 DUP5 PUSH1 0x1 PUSH2 0xAEC JUMP JUMPDEST DUP1 DUP7 DIV DUP3 GT ISZERO PUSH2 0xBF7 JUMPI PUSH2 0xBF7 PUSH2 0xC81 JUMP JUMPDEST MUL SWAP5 SWAP4 POP POP POP POP JUMP JUMPDEST PUSH1 0x0 DUP2 PUSH1 0x0 NOT DIV DUP4 GT DUP3 ISZERO ISZERO AND ISZERO PUSH2 0xC1A JUMPI PUSH2 0xC1A PUSH2 0xC81 JUMP JUMPDEST POP MUL SWAP1 JUMP JUMPDEST PUSH1 0x0 DUP3 DUP3 LT ISZERO PUSH2 0xC31 JUMPI PUSH2 0xC31 PUSH2 0xC81 JUMP JUMPDEST POP SUB SWAP1 JUMP JUMPDEST PUSH1 0x0 JUMPDEST DUP4 DUP2 LT ISZERO PUSH2 0xC51 JUMPI DUP2 DUP2 ADD MLOAD DUP4 DUP3 ADD MSTORE PUSH1 0x20 ADD PUSH2 0xC39 JUMP JUMPDEST DUP4 DUP2 GT ISZERO PUSH2 0xC60 JUMPI PUSH1 0x0 DUP5 DUP5 ADD MSTORE JUMPDEST POP POP POP POP JUMP JUMPDEST PUSH1 0x0 PUSH1 0x0 NOT DUP3 EQ ISZERO PUSH2 0xC7A JUMPI PUSH2 0xC7A PUSH2 0xC81 JUMP JUMPDEST POP PUSH1 0x1 ADD SWAP1 JUMP JUMPDEST PUSH4 0x4E487B71 PUSH1 0xE0 SHL PUSH1 0x0 MSTORE PUSH1 0x11 PUSH1 0x4 MSTORE PUSH1 0x24 PUSH1 0x0 REVERT JUMPDEST PUSH4 0x4E487B71 PUSH1 0xE0 SHL PUSH1 0x0 MSTORE PUSH1 0x41 PUSH1 0x4 MSTORE PUSH1 0x24 PUSH1 0x0 REVERT INVALID LOG2 PUSH5 0x6970667358 0x22 SLT KECCAK256 0xE0 0xB9 DUP11 PUSH5 0x276D4358DE 0xC1 GASLIMIT 0xD4 0xB9 SELFBALANCE RETURN 0xBA CALLDATASIZE MULMOD 0xC1 PUSH11 0xC2ACED2496ABAC1F016C3E DUP3 PUSH5 0x736F6C6343 STOP ADDMOD MUL STOP CALLER "
				},
				"gasEstimates": {
					"creation": {
						"codeDepositCost": "659800",
						"executionCost": "696",
						"totalCost": "660496"
					},
					"external": {
						"getBlockHash(bytes)": "infinite",
						"getHeader(bytes)": "infinite"
					}
				},
				"methodIdentifiers": {
					"getBlockHash(bytes)": "a16c64e6",
					"getHeader(bytes)": "111bdd38"
				}
			},
			"storageLayout": {
				"storage": [],
				"types": null
			},
			"userdoc": {
				"kind": "user",
				"methods": {},
				"version": 1
			}
		}
	}
}