{
	"contracts/libraries/PbHeader.sol": {
		"PbHeader": {
			"abi": [
				{
					"inputs": [
						{
							"internalType": "bytes",
							"name": "raw",
							"type": "bytes"
						}
					],
					"name": "decBlockID",
					"outputs": [
						{
							"components": [
								{
									"internalType": "bytes",
									"name": "hash",
									"type": "bytes"
								},
								{
									"components": [
										{
											"internalType": "uint32",
											"name": "total",
											"type": "uint32"
										},
										{
											"internalType": "bytes",
											"name": "hash",
											"type": "bytes"
										}
									],
									"internalType": "struct PbHeader.PartSetHeader",
									"name": "partSetHeader",
									"type": "tuple"
								}
							],
							"internalType": "struct PbHeader.BlockID",
							"name": "m",
							"type": "tuple"
						}
					],
					"stateMutability": "pure",
					"type": "function"
				},
				{
					"inputs": [
						{
							"internalType": "bytes",
							"name": "raw",
							"type": "bytes"
						}
					],
					"name": "decHeader",
					"outputs": [
						{
							"components": [
								{
									"components": [
										{
											"internalType": "uint256",
											"name": "block",
											"type": "uint256"
										},
										{
											"internalType": "uint256",
											"name": "app",
											"type": "uint256"
										}
									],
									"internalType": "struct PbHeader.Version",
									"name": "version",
									"type": "tuple"
								},
								{
									"internalType": "string",
									"name": "chainId",
									"type": "string"
								},
								{
									"internalType": "uint256",
									"name": "height",
									"type": "uint256"
								},
								{
									"components": [
										{
											"internalType": "uint256",
											"name": "second",
											"type": "uint256"
										},
										{
											"internalType": "uint256",
											"name": "nano",
											"type": "uint256"
										}
									],
									"internalType": "struct PbHeader.Timestamp",
									"name": "time",
									"type": "tuple"
								},
								{
									"components": [
										{
											"internalType": "bytes",
											"name": "hash",
											"type": "bytes"
										},
										{
											"components": [
												{
													"internalType": "uint32",
													"name": "total",
													"type": "uint32"
												},
												{
													"internalType": "bytes",
													"name": "hash",
													"type": "bytes"
												}
											],
											"internalType": "struct PbHeader.PartSetHeader",
											"name": "partSetHeader",
											"type": "tuple"
										}
									],
									"internalType": "struct PbHeader.BlockID",
									"name": "lastBlockId",
									"type": "tuple"
								},
								{
									"internalType": "bytes",
									"name": "lastCommitHash",
									"type": "bytes"
								},
								{
									"internalType": "bytes",
									"name": "dataHash",
									"type": "bytes"
								},
								{
									"internalType": "bytes",
									"name": "validatorsHash",
									"type": "bytes"
								},
								{
									"internalType": "bytes",
									"name": "nextValidatorsHash",
									"type": "bytes"
								},
								{
									"internalType": "bytes",
									"name": "consensusHash",
									"type": "bytes"
								},
								{
									"internalType": "bytes",
									"name": "appHash",
									"type": "bytes"
								},
								{
									"internalType": "bytes",
									"name": "lastResultsHash",
									"type": "bytes"
								},
								{
									"internalType": "bytes",
									"name": "evidenceHash",
									"type": "bytes"
								},
								{
									"internalType": "bytes",
									"name": "proposerAddress",
									"type": "bytes"
								}
							],
							"internalType": "struct PbHeader.Header",
							"name": "m",
							"type": "tuple"
						}
					],
					"stateMutability": "pure",
					"type": "function"
				},
				{
					"inputs": [
						{
							"internalType": "bytes",
							"name": "raw",
							"type": "bytes"
						}
					],
					"name": "decPartSetHeader",
					"outputs": [
						{
							"components": [
								{
									"internalType": "uint32",
									"name": "total",
									"type": "uint32"
								},
								{
									"internalType": "bytes",
									"name": "hash",
									"type": "bytes"
								}
							],
							"internalType": "struct PbHeader.PartSetHeader",
							"name": "m",
							"type": "tuple"
						}
					],
					"stateMutability": "pure",
					"type": "function"
				},
				{
					"inputs": [
						{
							"internalType": "bytes",
							"name": "raw",
							"type": "bytes"
						}
					],
					"name": "decTimestamp",
					"outputs": [
						{
							"components": [
								{
									"internalType": "uint256",
									"name": "second",
									"type": "uint256"
								},
								{
									"internalType": "uint256",
									"name": "nano",
									"type": "uint256"
								}
							],
							"internalType": "struct PbHeader.Timestamp",
							"name": "m",
							"type": "tuple"
						}
					],
					"stateMutability": "pure",
					"type": "function"
				},
				{
					"inputs": [
						{
							"internalType": "bytes",
							"name": "raw",
							"type": "bytes"
						}
					],
					"name": "decVersion",
					"outputs": [
						{
							"components": [
								{
									"internalType": "uint256",
									"name": "block",
									"type": "uint256"
								},
								{
									"internalType": "uint256",
									"name": "app",
									"type": "uint256"
								}
							],
							"internalType": "struct PbHeader.Version",
							"name": "m",
							"type": "tuple"
						}
					],
					"stateMutability": "pure",
					"type": "function"
				}
			],
			"devdoc": {
				"kind": "dev",
				"methods": {},
				"version": 1
			},
			"evm": {
				"assembly": "    /* \"contracts/libraries/PbHeader.sol\":145:5703  library PbHeader {... */\n  dataSize(sub_0)\n  dataOffset(sub_0)\n  0x0b\n  dup3\n  dup3\n  dup3\n  codecopy\n  dup1\n  mload\n  0x00\n  byte\n  0x73\n  eq\n  tag_1\n  jumpi\n  mstore(0x00, shl(0xe0, 0x4e487b71))\n  mstore(0x04, 0x00)\n  revert(0x00, 0x24)\ntag_1:\n  mstore(0x00, address)\n  0x73\n  dup2\n  mstore8\n  dup3\n  dup2\n  return\nstop\n\nsub_0: assembly {\n        /* \"contracts/libraries/PbHeader.sol\":145:5703  library PbHeader {... */\n      eq(address, deployTimeAddress())\n      mstore(0x40, 0x80)\n      jumpi(tag_1, lt(calldatasize, 0x04))\n      shr(0xe0, calldataload(0x00))\n      dup1\n      0x028927d5\n      eq\n      tag_2\n      jumpi\n      dup1\n      0x8e86ed99\n      eq\n      tag_3\n      jumpi\n      dup1\n      0xa6f571a5\n      eq\n      tag_4\n      jumpi\n      dup1\n      0xbc1c6bd6\n      eq\n      tag_5\n      jumpi\n      dup1\n      0xf9de4e57\n      eq\n      tag_6\n      jumpi\n    tag_1:\n      0x00\n      dup1\n      revert\n        /* \"contracts/libraries/PbHeader.sol\":5084:5675  function decTimestamp(bytes memory raw) public pure returns (Timestamp memory m) {... */\n    tag_2:\n      tag_7\n      tag_8\n      calldatasize\n      0x04\n      tag_9\n      jump\t// in\n    tag_8:\n      tag_10\n      jump\t// in\n    tag_7:\n      0x40\n      dup1\n      mload\n        /* \"#utility.yul\":2192:2204   */\n      dup3\n      mload\n        /* \"#utility.yul\":2180:2205   */\n      dup2\n      mstore\n        /* \"#utility.yul\":2254:2258   */\n      0x20\n        /* \"#utility.yul\":2243:2259   */\n      swap3\n      dup4\n      add\n        /* \"#utility.yul\":2237:2260   */\n      mload\n        /* \"#utility.yul\":2221:2235   */\n      swap3\n      dup2\n      add\n        /* \"#utility.yul\":2214:2261   */\n      swap3\n      swap1\n      swap3\n      mstore\n        /* \"#utility.yul\":5676:5694   */\n      add\n        /* \"contracts/libraries/PbHeader.sol\":5084:5675  function decTimestamp(bytes memory raw) public pure returns (Timestamp memory m) {... */\n    tag_11:\n      mload(0x40)\n      dup1\n      swap2\n      sub\n      swap1\n      return\n        /* \"contracts/libraries/PbHeader.sol\":846:2684  function decHeader(bytes memory raw) public pure returns (Header memory m) {... */\n    tag_3:\n      tag_13\n      tag_14\n      calldatasize\n      0x04\n      tag_9\n      jump\t// in\n    tag_14:\n      tag_15\n      jump\t// in\n    tag_13:\n      mload(0x40)\n      tag_11\n      swap2\n      swap1\n      tag_17\n      jump\t// in\n        /* \"contracts/libraries/PbHeader.sol\":4331:4925  function decPartSetHeader(bytes memory raw) public pure returns (PartSetHeader memory m) {... */\n    tag_4:\n      tag_18\n      tag_19\n      calldatasize\n      0x04\n      tag_9\n      jump\t// in\n    tag_19:\n      tag_20\n      jump\t// in\n    tag_18:\n      mload(0x40)\n      tag_11\n      swap2\n      swap1\n      tag_22\n      jump\t// in\n        /* \"contracts/libraries/PbHeader.sol\":2830:3415  function decVersion(bytes memory raw) public pure returns (Version memory m) {... */\n    tag_5:\n      tag_7\n      tag_24\n      calldatasize\n      0x04\n      tag_9\n      jump\t// in\n    tag_24:\n      tag_25\n      jump\t// in\n        /* \"contracts/libraries/PbHeader.sol\":3575:4174  function decBlockID(bytes memory raw) public pure returns (BlockID memory m) {... */\n    tag_6:\n      tag_28\n      tag_29\n      calldatasize\n      0x04\n      tag_9\n      jump\t// in\n    tag_29:\n      tag_30\n      jump\t// in\n    tag_28:\n      mload(0x40)\n      tag_11\n      swap2\n      swap1\n      tag_32\n      jump\t// in\n        /* \"contracts/libraries/PbHeader.sol\":5084:5675  function decTimestamp(bytes memory raw) public pure returns (Timestamp memory m) {... */\n    tag_10:\n      0x40\n      dup1\n      mload\n      dup1\n      dup3\n      add\n      dup3\n      mstore\n      0x00\n      dup1\n      dup3\n      mstore\n      0x20\n      dup1\n      dup4\n      add\n      dup3\n      swap1\n      mstore\n      dup4\n      mload\n      dup1\n      dup6\n      add\n      swap1\n      swap5\n      mstore\n      dup2\n      dup5\n      mstore\n      dup4\n      add\n        /* \"contracts/libraries/Pb.sol\":474:485  buf.b = raw */\n      dup5\n      swap1\n      mstore\n      swap1\n      swap2\n      swap1\n      dup1\n        /* \"contracts/libraries/PbHeader.sol\":5270:5669  while (buf.hasMore()) {... */\n    tag_38:\n        /* \"contracts/libraries/PbHeader.sol\":5277:5290  buf.hasMore() */\n      tag_40\n        /* \"contracts/libraries/PbHeader.sol\":5277:5280  buf */\n      dup4\n        /* \"contracts/libraries/PbHeader.sol\":5277:5288  buf.hasMore */\n      tag_41\n        /* \"contracts/libraries/PbHeader.sol\":5277:5290  buf.hasMore() */\n      jump\t// in\n    tag_40:\n        /* \"contracts/libraries/PbHeader.sol\":5270:5669  while (buf.hasMore()) {... */\n      iszero\n      tag_39\n      jumpi\n        /* \"contracts/libraries/PbHeader.sol\":5320:5332  buf.decKey() */\n      tag_42\n        /* \"contracts/libraries/PbHeader.sol\":5320:5323  buf */\n      dup4\n        /* \"contracts/libraries/PbHeader.sol\":5320:5330  buf.decKey */\n      tag_43\n        /* \"contracts/libraries/PbHeader.sol\":5320:5332  buf.decKey() */\n      jump\t// in\n    tag_42:\n        /* \"contracts/libraries/PbHeader.sol\":5306:5332  (tag, wire) = buf.decKey() */\n      swap1\n      swap3\n      pop\n      swap1\n      pop\n        /* \"contracts/libraries/PbHeader.sol\":5412:5415  tag */\n      dup2\n        /* \"contracts/libraries/PbHeader.sol\":5419:5420  1 */\n      0x01\n        /* \"contracts/libraries/PbHeader.sol\":5412:5420  tag == 1 */\n      eq\n        /* \"contracts/libraries/PbHeader.sol\":5408:5630  if (tag == 1) {... */\n      iszero\n      tag_46\n      jumpi\n        /* \"contracts/libraries/PbHeader.sol\":5459:5474  buf.decVarint() */\n      tag_47\n        /* \"contracts/libraries/PbHeader.sol\":5459:5462  buf */\n      dup4\n        /* \"contracts/libraries/PbHeader.sol\":5459:5472  buf.decVarint */\n      tag_48\n        /* \"contracts/libraries/PbHeader.sol\":5459:5474  buf.decVarint() */\n      jump\t// in\n    tag_47:\n        /* \"contracts/libraries/PbHeader.sol\":5440:5475  m.second = uint256(buf.decVarint()) */\n      dup5\n      mstore\n        /* \"contracts/libraries/PbHeader.sol\":5408:5630  if (tag == 1) {... */\n      jump(tag_53)\n    tag_46:\n        /* \"contracts/libraries/PbHeader.sol\":5512:5515  tag */\n      dup2\n        /* \"contracts/libraries/PbHeader.sol\":5519:5520  2 */\n      0x02\n        /* \"contracts/libraries/PbHeader.sol\":5512:5520  tag == 2 */\n      eq\n        /* \"contracts/libraries/PbHeader.sol\":5508:5630  if (tag == 2) {... */\n      iszero\n      tag_50\n      jumpi\n        /* \"contracts/libraries/PbHeader.sol\":5557:5572  buf.decVarint() */\n      tag_51\n        /* \"contracts/libraries/PbHeader.sol\":5557:5560  buf */\n      dup4\n        /* \"contracts/libraries/PbHeader.sol\":5557:5570  buf.decVarint */\n      tag_48\n        /* \"contracts/libraries/PbHeader.sol\":5557:5572  buf.decVarint() */\n      jump\t// in\n    tag_51:\n        /* \"contracts/libraries/PbHeader.sol\":5540:5546  m.nano */\n      0x20\n      dup6\n      add\n        /* \"contracts/libraries/PbHeader.sol\":5540:5573  m.nano = uint256(buf.decVarint()) */\n      mstore\n        /* \"contracts/libraries/PbHeader.sol\":5508:5630  if (tag == 2) {... */\n      jump(tag_53)\n    tag_50:\n        /* \"contracts/libraries/PbHeader.sol\":5608:5627  buf.skipValue(wire) */\n      tag_53\n        /* \"contracts/libraries/PbHeader.sol\":5608:5611  buf */\n      dup4\n        /* \"contracts/libraries/PbHeader.sol\":5622:5626  wire */\n      dup3\n        /* \"contracts/libraries/PbHeader.sol\":5608:5621  buf.skipValue */\n      tag_54\n        /* \"contracts/libraries/PbHeader.sol\":5608:5627  buf.skipValue(wire) */\n      jump\t// in\n    tag_53:\n        /* \"contracts/libraries/PbHeader.sol\":5270:5669  while (buf.hasMore()) {... */\n      jump(tag_38)\n    tag_39:\n        /* \"contracts/libraries/PbHeader.sol\":5084:5675  function decTimestamp(bytes memory raw) public pure returns (Timestamp memory m) {... */\n      pop\n      pop\n      pop\n      swap2\n      swap1\n      pop\n      jump\t// out\n        /* \"contracts/libraries/PbHeader.sol\":846:2684  function decHeader(bytes memory raw) public pure returns (Header memory m) {... */\n    tag_15:\n        /* \"contracts/libraries/PbHeader.sol\":904:919  Header memory m */\n      tag_55\n      tag_56\n      jump\t// in\n    tag_55:\n      0x40\n      dup1\n      mload\n      dup1\n      dup3\n      add\n      swap1\n      swap2\n      mstore\n      0x00\n      dup1\n      dup3\n      mstore\n      0x20\n      dup3\n      add\n        /* \"contracts/libraries/Pb.sol\":474:485  buf.b = raw */\n      dup5\n      swap1\n      mstore\n      dup1\n        /* \"contracts/libraries/PbHeader.sol\":1026:2678  while (buf.hasMore()) {... */\n    tag_59:\n        /* \"contracts/libraries/PbHeader.sol\":1033:1046  buf.hasMore() */\n      tag_61\n        /* \"contracts/libraries/PbHeader.sol\":1033:1036  buf */\n      dup4\n        /* \"contracts/libraries/PbHeader.sol\":1033:1044  buf.hasMore */\n      tag_41\n        /* \"contracts/libraries/PbHeader.sol\":1033:1046  buf.hasMore() */\n      jump\t// in\n    tag_61:\n        /* \"contracts/libraries/PbHeader.sol\":1026:2678  while (buf.hasMore()) {... */\n      iszero\n      tag_39\n      jumpi\n        /* \"contracts/libraries/PbHeader.sol\":1076:1088  buf.decKey() */\n      tag_62\n        /* \"contracts/libraries/PbHeader.sol\":1076:1079  buf */\n      dup4\n        /* \"contracts/libraries/PbHeader.sol\":1076:1086  buf.decKey */\n      tag_43\n        /* \"contracts/libraries/PbHeader.sol\":1076:1088  buf.decKey() */\n      jump\t// in\n    tag_62:\n        /* \"contracts/libraries/PbHeader.sol\":1062:1088  (tag, wire) = buf.decKey() */\n      swap1\n      swap3\n      pop\n      swap1\n      pop\n        /* \"contracts/libraries/PbHeader.sol\":1168:1171  tag */\n      dup2\n        /* \"contracts/libraries/PbHeader.sol\":1175:1176  1 */\n      0x01\n        /* \"contracts/libraries/PbHeader.sol\":1168:1176  tag == 1 */\n      eq\n        /* \"contracts/libraries/PbHeader.sol\":1164:2639  if (tag == 1) {... */\n      iszero\n      tag_65\n      jumpi\n        /* \"contracts/libraries/PbHeader.sol\":1208:1234  decVersion(buf.decBytes()) */\n      tag_66\n        /* \"contracts/libraries/PbHeader.sol\":1219:1233  buf.decBytes() */\n      tag_24\n        /* \"contracts/libraries/PbHeader.sol\":1219:1222  buf */\n      dup5\n        /* \"contracts/libraries/PbHeader.sol\":1219:1231  buf.decBytes */\n      tag_68\n        /* \"contracts/libraries/PbHeader.sol\":1219:1233  buf.decBytes() */\n      jump\t// in\n        /* \"contracts/libraries/PbHeader.sol\":1208:1234  decVersion(buf.decBytes()) */\n    tag_66:\n        /* \"contracts/libraries/PbHeader.sol\":1196:1234  m.version = decVersion(buf.decBytes()) */\n      dup5\n      mstore\n        /* \"contracts/libraries/PbHeader.sol\":1164:2639  if (tag == 1) {... */\n      jump(tag_111)\n    tag_65:\n        /* \"contracts/libraries/PbHeader.sol\":1271:1274  tag */\n      dup2\n        /* \"contracts/libraries/PbHeader.sol\":1278:1279  2 */\n      0x02\n        /* \"contracts/libraries/PbHeader.sol\":1271:1279  tag == 2 */\n      eq\n        /* \"contracts/libraries/PbHeader.sol\":1267:2639  if (tag == 2) {... */\n      iszero\n      tag_70\n      jumpi\n        /* \"contracts/libraries/PbHeader.sol\":1318:1332  buf.decBytes() */\n      tag_71\n        /* \"contracts/libraries/PbHeader.sol\":1318:1321  buf */\n      dup4\n        /* \"contracts/libraries/PbHeader.sol\":1318:1330  buf.decBytes */\n      tag_68\n        /* \"contracts/libraries/PbHeader.sol\":1318:1332  buf.decBytes() */\n      jump\t// in\n    tag_71:\n        /* \"contracts/libraries/PbHeader.sol\":1299:1308  m.chainId */\n      0x20\n      dup6\n      add\n        /* \"contracts/libraries/PbHeader.sol\":1299:1333  m.chainId = string(buf.decBytes()) */\n      mstore\n        /* \"contracts/libraries/PbHeader.sol\":1267:2639  if (tag == 2) {... */\n      jump(tag_111)\n    tag_70:\n        /* \"contracts/libraries/PbHeader.sol\":1370:1373  tag */\n      dup2\n        /* \"contracts/libraries/PbHeader.sol\":1377:1378  3 */\n      0x03\n        /* \"contracts/libraries/PbHeader.sol\":1370:1378  tag == 3 */\n      eq\n        /* \"contracts/libraries/PbHeader.sol\":1366:2639  if (tag == 3) {... */\n      iszero\n      tag_73\n      jumpi\n        /* \"contracts/libraries/PbHeader.sol\":1417:1432  buf.decVarint() */\n      tag_74\n        /* \"contracts/libraries/PbHeader.sol\":1417:1420  buf */\n      dup4\n        /* \"contracts/libraries/PbHeader.sol\":1417:1430  buf.decVarint */\n      tag_48\n        /* \"contracts/libraries/PbHeader.sol\":1417:1432  buf.decVarint() */\n      jump\t// in\n    tag_74:\n        /* \"contracts/libraries/PbHeader.sol\":1398:1406  m.height */\n      0x40\n      dup6\n      add\n        /* \"contracts/libraries/PbHeader.sol\":1398:1433  m.height = uint256(buf.decVarint()) */\n      mstore\n        /* \"contracts/libraries/PbHeader.sol\":1366:2639  if (tag == 3) {... */\n      jump(tag_111)\n    tag_73:\n        /* \"contracts/libraries/PbHeader.sol\":1470:1473  tag */\n      dup2\n        /* \"contracts/libraries/PbHeader.sol\":1477:1478  4 */\n      0x04\n        /* \"contracts/libraries/PbHeader.sol\":1470:1478  tag == 4 */\n      eq\n        /* \"contracts/libraries/PbHeader.sol\":1466:2639  if (tag == 4) {... */\n      iszero\n      tag_76\n      jumpi\n        /* \"contracts/libraries/PbHeader.sol\":1507:1535  decTimestamp(buf.decBytes()) */\n      tag_77\n        /* \"contracts/libraries/PbHeader.sol\":1520:1534  buf.decBytes() */\n      tag_8\n        /* \"contracts/libraries/PbHeader.sol\":1520:1523  buf */\n      dup5\n        /* \"contracts/libraries/PbHeader.sol\":1520:1532  buf.decBytes */\n      tag_68\n        /* \"contracts/libraries/PbHeader.sol\":1520:1534  buf.decBytes() */\n      jump\t// in\n        /* \"contracts/libraries/PbHeader.sol\":1507:1535  decTimestamp(buf.decBytes()) */\n    tag_77:\n        /* \"contracts/libraries/PbHeader.sol\":1498:1504  m.time */\n      0x60\n      dup6\n      add\n        /* \"contracts/libraries/PbHeader.sol\":1498:1535  m.time = decTimestamp(buf.decBytes()) */\n      mstore\n        /* \"contracts/libraries/PbHeader.sol\":1466:2639  if (tag == 4) {... */\n      jump(tag_111)\n    tag_76:\n        /* \"contracts/libraries/PbHeader.sol\":1572:1575  tag */\n      dup2\n        /* \"contracts/libraries/PbHeader.sol\":1579:1580  5 */\n      0x05\n        /* \"contracts/libraries/PbHeader.sol\":1572:1580  tag == 5 */\n      eq\n        /* \"contracts/libraries/PbHeader.sol\":1568:2639  if (tag == 5) {... */\n      iszero\n      tag_80\n      jumpi\n        /* \"contracts/libraries/PbHeader.sol\":1616:1642  decBlockID(buf.decBytes()) */\n      tag_81\n        /* \"contracts/libraries/PbHeader.sol\":1627:1641  buf.decBytes() */\n      tag_29\n        /* \"contracts/libraries/PbHeader.sol\":1627:1630  buf */\n      dup5\n        /* \"contracts/libraries/PbHeader.sol\":1627:1639  buf.decBytes */\n      tag_68\n        /* \"contracts/libraries/PbHeader.sol\":1627:1641  buf.decBytes() */\n      jump\t// in\n        /* \"contracts/libraries/PbHeader.sol\":1616:1642  decBlockID(buf.decBytes()) */\n    tag_81:\n        /* \"contracts/libraries/PbHeader.sol\":1600:1613  m.lastBlockId */\n      0x80\n      dup6\n      add\n        /* \"contracts/libraries/PbHeader.sol\":1600:1642  m.lastBlockId = decBlockID(buf.decBytes()) */\n      mstore\n        /* \"contracts/libraries/PbHeader.sol\":1568:2639  if (tag == 5) {... */\n      jump(tag_111)\n    tag_80:\n        /* \"contracts/libraries/PbHeader.sol\":1679:1682  tag */\n      dup2\n        /* \"contracts/libraries/PbHeader.sol\":1686:1687  6 */\n      0x06\n        /* \"contracts/libraries/PbHeader.sol\":1679:1687  tag == 6 */\n      eq\n        /* \"contracts/libraries/PbHeader.sol\":1675:2639  if (tag == 6) {... */\n      iszero\n      tag_84\n      jumpi\n        /* \"contracts/libraries/PbHeader.sol\":1732:1746  buf.decBytes() */\n      tag_85\n        /* \"contracts/libraries/PbHeader.sol\":1732:1735  buf */\n      dup4\n        /* \"contracts/libraries/PbHeader.sol\":1732:1744  buf.decBytes */\n      tag_68\n        /* \"contracts/libraries/PbHeader.sol\":1732:1746  buf.decBytes() */\n      jump\t// in\n    tag_85:\n        /* \"contracts/libraries/PbHeader.sol\":1707:1723  m.lastCommitHash */\n      0xa0\n      dup6\n      add\n        /* \"contracts/libraries/PbHeader.sol\":1707:1747  m.lastCommitHash = bytes(buf.decBytes()) */\n      mstore\n        /* \"contracts/libraries/PbHeader.sol\":1675:2639  if (tag == 6) {... */\n      jump(tag_111)\n    tag_84:\n        /* \"contracts/libraries/PbHeader.sol\":1784:1787  tag */\n      dup2\n        /* \"contracts/libraries/PbHeader.sol\":1791:1792  7 */\n      0x07\n        /* \"contracts/libraries/PbHeader.sol\":1784:1792  tag == 7 */\n      eq\n        /* \"contracts/libraries/PbHeader.sol\":1780:2639  if (tag == 7) {... */\n      iszero\n      tag_87\n      jumpi\n        /* \"contracts/libraries/PbHeader.sol\":1831:1845  buf.decBytes() */\n      tag_88\n        /* \"contracts/libraries/PbHeader.sol\":1831:1834  buf */\n      dup4\n        /* \"contracts/libraries/PbHeader.sol\":1831:1843  buf.decBytes */\n      tag_68\n        /* \"contracts/libraries/PbHeader.sol\":1831:1845  buf.decBytes() */\n      jump\t// in\n    tag_88:\n        /* \"contracts/libraries/PbHeader.sol\":1812:1822  m.dataHash */\n      0xc0\n      dup6\n      add\n        /* \"contracts/libraries/PbHeader.sol\":1812:1846  m.dataHash = bytes(buf.decBytes()) */\n      mstore\n        /* \"contracts/libraries/PbHeader.sol\":1780:2639  if (tag == 7) {... */\n      jump(tag_111)\n    tag_87:\n        /* \"contracts/libraries/PbHeader.sol\":1883:1886  tag */\n      dup2\n        /* \"contracts/libraries/PbHeader.sol\":1890:1891  8 */\n      0x08\n        /* \"contracts/libraries/PbHeader.sol\":1883:1891  tag == 8 */\n      eq\n        /* \"contracts/libraries/PbHeader.sol\":1879:2639  if (tag == 8) {... */\n      iszero\n      tag_90\n      jumpi\n        /* \"contracts/libraries/PbHeader.sol\":1936:1950  buf.decBytes() */\n      tag_91\n        /* \"contracts/libraries/PbHeader.sol\":1936:1939  buf */\n      dup4\n        /* \"contracts/libraries/PbHeader.sol\":1936:1948  buf.decBytes */\n      tag_68\n        /* \"contracts/libraries/PbHeader.sol\":1936:1950  buf.decBytes() */\n      jump\t// in\n    tag_91:\n        /* \"contracts/libraries/PbHeader.sol\":1911:1927  m.validatorsHash */\n      0xe0\n      dup6\n      add\n        /* \"contracts/libraries/PbHeader.sol\":1911:1951  m.validatorsHash = bytes(buf.decBytes()) */\n      mstore\n        /* \"contracts/libraries/PbHeader.sol\":1879:2639  if (tag == 8) {... */\n      jump(tag_111)\n    tag_90:\n        /* \"contracts/libraries/PbHeader.sol\":1988:1991  tag */\n      dup2\n        /* \"contracts/libraries/PbHeader.sol\":1995:1996  9 */\n      0x09\n        /* \"contracts/libraries/PbHeader.sol\":1988:1996  tag == 9 */\n      eq\n        /* \"contracts/libraries/PbHeader.sol\":1984:2639  if (tag == 9) {... */\n      iszero\n      tag_93\n      jumpi\n        /* \"contracts/libraries/PbHeader.sol\":2045:2059  buf.decBytes() */\n      tag_94\n        /* \"contracts/libraries/PbHeader.sol\":2045:2048  buf */\n      dup4\n        /* \"contracts/libraries/PbHeader.sol\":2045:2057  buf.decBytes */\n      tag_68\n        /* \"contracts/libraries/PbHeader.sol\":2045:2059  buf.decBytes() */\n      jump\t// in\n    tag_94:\n        /* \"contracts/libraries/PbHeader.sol\":2016:2036  m.nextValidatorsHash */\n      0x0100\n      dup6\n      add\n        /* \"contracts/libraries/PbHeader.sol\":2016:2060  m.nextValidatorsHash = bytes(buf.decBytes()) */\n      mstore\n        /* \"contracts/libraries/PbHeader.sol\":1984:2639  if (tag == 9) {... */\n      jump(tag_111)\n    tag_93:\n        /* \"contracts/libraries/PbHeader.sol\":2097:2100  tag */\n      dup2\n        /* \"contracts/libraries/PbHeader.sol\":2104:2106  10 */\n      0x0a\n        /* \"contracts/libraries/PbHeader.sol\":2097:2106  tag == 10 */\n      eq\n        /* \"contracts/libraries/PbHeader.sol\":2093:2639  if (tag == 10) {... */\n      iszero\n      tag_96\n      jumpi\n        /* \"contracts/libraries/PbHeader.sol\":2150:2164  buf.decBytes() */\n      tag_97\n        /* \"contracts/libraries/PbHeader.sol\":2150:2153  buf */\n      dup4\n        /* \"contracts/libraries/PbHeader.sol\":2150:2162  buf.decBytes */\n      tag_68\n        /* \"contracts/libraries/PbHeader.sol\":2150:2164  buf.decBytes() */\n      jump\t// in\n    tag_97:\n        /* \"contracts/libraries/PbHeader.sol\":2126:2141  m.consensusHash */\n      0x0120\n      dup6\n      add\n        /* \"contracts/libraries/PbHeader.sol\":2126:2165  m.consensusHash = bytes(buf.decBytes()) */\n      mstore\n        /* \"contracts/libraries/PbHeader.sol\":2093:2639  if (tag == 10) {... */\n      jump(tag_111)\n    tag_96:\n        /* \"contracts/libraries/PbHeader.sol\":2202:2205  tag */\n      dup2\n        /* \"contracts/libraries/PbHeader.sol\":2209:2211  11 */\n      0x0b\n        /* \"contracts/libraries/PbHeader.sol\":2202:2211  tag == 11 */\n      eq\n        /* \"contracts/libraries/PbHeader.sol\":2198:2639  if (tag == 11) {... */\n      iszero\n      tag_99\n      jumpi\n        /* \"contracts/libraries/PbHeader.sol\":2249:2263  buf.decBytes() */\n      tag_100\n        /* \"contracts/libraries/PbHeader.sol\":2249:2252  buf */\n      dup4\n        /* \"contracts/libraries/PbHeader.sol\":2249:2261  buf.decBytes */\n      tag_68\n        /* \"contracts/libraries/PbHeader.sol\":2249:2263  buf.decBytes() */\n      jump\t// in\n    tag_100:\n        /* \"contracts/libraries/PbHeader.sol\":2231:2240  m.appHash */\n      0x0140\n      dup6\n      add\n        /* \"contracts/libraries/PbHeader.sol\":2231:2264  m.appHash = bytes(buf.decBytes()) */\n      mstore\n        /* \"contracts/libraries/PbHeader.sol\":2198:2639  if (tag == 11) {... */\n      jump(tag_111)\n    tag_99:\n        /* \"contracts/libraries/PbHeader.sol\":2301:2304  tag */\n      dup2\n        /* \"contracts/libraries/PbHeader.sol\":2308:2310  12 */\n      0x0c\n        /* \"contracts/libraries/PbHeader.sol\":2301:2310  tag == 12 */\n      eq\n        /* \"contracts/libraries/PbHeader.sol\":2297:2639  if (tag == 12) {... */\n      iszero\n      tag_102\n      jumpi\n        /* \"contracts/libraries/PbHeader.sol\":2356:2370  buf.decBytes() */\n      tag_103\n        /* \"contracts/libraries/PbHeader.sol\":2356:2359  buf */\n      dup4\n        /* \"contracts/libraries/PbHeader.sol\":2356:2368  buf.decBytes */\n      tag_68\n        /* \"contracts/libraries/PbHeader.sol\":2356:2370  buf.decBytes() */\n      jump\t// in\n    tag_103:\n        /* \"contracts/libraries/PbHeader.sol\":2330:2347  m.lastResultsHash */\n      0x0160\n      dup6\n      add\n        /* \"contracts/libraries/PbHeader.sol\":2330:2371  m.lastResultsHash = bytes(buf.decBytes()) */\n      mstore\n        /* \"contracts/libraries/PbHeader.sol\":2297:2639  if (tag == 12) {... */\n      jump(tag_111)\n    tag_102:\n        /* \"contracts/libraries/PbHeader.sol\":2408:2411  tag */\n      dup2\n        /* \"contracts/libraries/PbHeader.sol\":2415:2417  13 */\n      0x0d\n        /* \"contracts/libraries/PbHeader.sol\":2408:2417  tag == 13 */\n      eq\n        /* \"contracts/libraries/PbHeader.sol\":2404:2639  if (tag == 13) {... */\n      iszero\n      tag_105\n      jumpi\n        /* \"contracts/libraries/PbHeader.sol\":2460:2474  buf.decBytes() */\n      tag_106\n        /* \"contracts/libraries/PbHeader.sol\":2460:2463  buf */\n      dup4\n        /* \"contracts/libraries/PbHeader.sol\":2460:2472  buf.decBytes */\n      tag_68\n        /* \"contracts/libraries/PbHeader.sol\":2460:2474  buf.decBytes() */\n      jump\t// in\n    tag_106:\n        /* \"contracts/libraries/PbHeader.sol\":2437:2451  m.evidenceHash */\n      0x0180\n      dup6\n      add\n        /* \"contracts/libraries/PbHeader.sol\":2437:2475  m.evidenceHash = bytes(buf.decBytes()) */\n      mstore\n        /* \"contracts/libraries/PbHeader.sol\":2404:2639  if (tag == 13) {... */\n      jump(tag_111)\n    tag_105:\n        /* \"contracts/libraries/PbHeader.sol\":2512:2515  tag */\n      dup2\n        /* \"contracts/libraries/PbHeader.sol\":2519:2521  14 */\n      0x0e\n        /* \"contracts/libraries/PbHeader.sol\":2512:2521  tag == 14 */\n      eq\n        /* \"contracts/libraries/PbHeader.sol\":2508:2639  if (tag == 14) {... */\n      iszero\n      tag_108\n      jumpi\n        /* \"contracts/libraries/PbHeader.sol\":2567:2581  buf.decBytes() */\n      tag_109\n        /* \"contracts/libraries/PbHeader.sol\":2567:2570  buf */\n      dup4\n        /* \"contracts/libraries/PbHeader.sol\":2567:2579  buf.decBytes */\n      tag_68\n        /* \"contracts/libraries/PbHeader.sol\":2567:2581  buf.decBytes() */\n      jump\t// in\n    tag_109:\n        /* \"contracts/libraries/PbHeader.sol\":2541:2558  m.proposerAddress */\n      0x01a0\n      dup6\n      add\n        /* \"contracts/libraries/PbHeader.sol\":2541:2582  m.proposerAddress = bytes(buf.decBytes()) */\n      mstore\n        /* \"contracts/libraries/PbHeader.sol\":2508:2639  if (tag == 14) {... */\n      jump(tag_111)\n    tag_108:\n        /* \"contracts/libraries/PbHeader.sol\":2617:2636  buf.skipValue(wire) */\n      tag_111\n        /* \"contracts/libraries/PbHeader.sol\":2617:2620  buf */\n      dup4\n        /* \"contracts/libraries/PbHeader.sol\":2631:2635  wire */\n      dup3\n        /* \"contracts/libraries/PbHeader.sol\":2617:2630  buf.skipValue */\n      tag_54\n        /* \"contracts/libraries/PbHeader.sol\":2617:2636  buf.skipValue(wire) */\n      jump\t// in\n    tag_111:\n        /* \"contracts/libraries/PbHeader.sol\":1026:2678  while (buf.hasMore()) {... */\n      jump(tag_59)\n        /* \"contracts/libraries/PbHeader.sol\":4331:4925  function decPartSetHeader(bytes memory raw) public pure returns (PartSetHeader memory m) {... */\n    tag_20:\n      0x40\n      dup1\n      mload\n      dup1\n      dup3\n      add\n      swap1\n      swap2\n      mstore\n      0x00\n      dup2\n      mstore\n      0x60\n      0x20\n      dup3\n      add\n      mstore\n        /* \"contracts/libraries/PbHeader.sol\":4430:4450  Pb.Buffer memory buf */\n      0x00\n        /* \"contracts/libraries/PbHeader.sol\":4453:4470  Pb.fromBytes(raw) */\n      tag_115\n        /* \"contracts/libraries/PbHeader.sol\":4466:4469  raw */\n      dup4\n      0x40\n      dup1\n      mload\n      dup1\n      dup3\n      add\n      swap1\n      swap2\n      mstore\n      0x00\n      dup2\n      mstore\n      0x20\n      dup2\n      add\n        /* \"contracts/libraries/Pb.sol\":474:485  buf.b = raw */\n      swap2\n      swap1\n      swap2\n      mstore\n      swap1\n        /* \"contracts/libraries/Pb.sol\":385:513  function fromBytes(bytes memory raw) internal pure returns (Buffer memory buf) {... */\n      jump\n        /* \"contracts/libraries/PbHeader.sol\":4453:4470  Pb.fromBytes(raw) */\n    tag_115:\n        /* \"contracts/libraries/PbHeader.sol\":4430:4470  Pb.Buffer memory buf = Pb.fromBytes(raw) */\n      swap1\n      pop\n        /* \"contracts/libraries/PbHeader.sol\":4481:4489  uint tag */\n      0x00\n        /* \"contracts/libraries/PbHeader.sol\":4499:4515  Pb.WireType wire */\n      dup1\n        /* \"contracts/libraries/PbHeader.sol\":4525:4919  while (buf.hasMore()) {... */\n    tag_116:\n        /* \"contracts/libraries/PbHeader.sol\":4532:4545  buf.hasMore() */\n      tag_118\n        /* \"contracts/libraries/PbHeader.sol\":4532:4535  buf */\n      dup4\n        /* \"contracts/libraries/PbHeader.sol\":4532:4543  buf.hasMore */\n      tag_41\n        /* \"contracts/libraries/PbHeader.sol\":4532:4545  buf.hasMore() */\n      jump\t// in\n    tag_118:\n        /* \"contracts/libraries/PbHeader.sol\":4525:4919  while (buf.hasMore()) {... */\n      iszero\n      tag_39\n      jumpi\n        /* \"contracts/libraries/PbHeader.sol\":4575:4587  buf.decKey() */\n      tag_119\n        /* \"contracts/libraries/PbHeader.sol\":4575:4578  buf */\n      dup4\n        /* \"contracts/libraries/PbHeader.sol\":4575:4585  buf.decKey */\n      tag_43\n        /* \"contracts/libraries/PbHeader.sol\":4575:4587  buf.decKey() */\n      jump\t// in\n    tag_119:\n        /* \"contracts/libraries/PbHeader.sol\":4561:4587  (tag, wire) = buf.decKey() */\n      swap1\n      swap3\n      pop\n      swap1\n      pop\n        /* \"contracts/libraries/PbHeader.sol\":4667:4670  tag */\n      dup2\n        /* \"contracts/libraries/PbHeader.sol\":4674:4675  1 */\n      0x01\n        /* \"contracts/libraries/PbHeader.sol\":4667:4675  tag == 1 */\n      eq\n        /* \"contracts/libraries/PbHeader.sol\":4663:4880  if (tag == 1) {... */\n      iszero\n      tag_122\n      jumpi\n        /* \"contracts/libraries/PbHeader.sol\":4712:4727  buf.decVarint() */\n      tag_123\n        /* \"contracts/libraries/PbHeader.sol\":4712:4715  buf */\n      dup4\n        /* \"contracts/libraries/PbHeader.sol\":4712:4725  buf.decVarint */\n      tag_48\n        /* \"contracts/libraries/PbHeader.sol\":4712:4727  buf.decVarint() */\n      jump\t// in\n    tag_123:\n        /* \"contracts/libraries/PbHeader.sol\":4695:4728  m.total = uint32(buf.decVarint()) */\n      0xffffffff\n      and\n      dup5\n      mstore\n        /* \"contracts/libraries/PbHeader.sol\":4663:4880  if (tag == 1) {... */\n      jump(tag_128)\n    tag_122:\n        /* \"contracts/libraries/PbHeader.sol\":4765:4768  tag */\n      dup2\n        /* \"contracts/libraries/PbHeader.sol\":4772:4773  2 */\n      0x02\n        /* \"contracts/libraries/PbHeader.sol\":4765:4773  tag == 2 */\n      eq\n        /* \"contracts/libraries/PbHeader.sol\":4761:4880  if (tag == 2) {... */\n      iszero\n      tag_125\n      jumpi\n        /* \"contracts/libraries/PbHeader.sol\":4808:4822  buf.decBytes() */\n      tag_126\n        /* \"contracts/libraries/PbHeader.sol\":4808:4811  buf */\n      dup4\n        /* \"contracts/libraries/PbHeader.sol\":4808:4820  buf.decBytes */\n      tag_68\n        /* \"contracts/libraries/PbHeader.sol\":4808:4822  buf.decBytes() */\n      jump\t// in\n    tag_126:\n        /* \"contracts/libraries/PbHeader.sol\":4793:4799  m.hash */\n      0x20\n      dup6\n      add\n        /* \"contracts/libraries/PbHeader.sol\":4793:4823  m.hash = bytes(buf.decBytes()) */\n      mstore\n        /* \"contracts/libraries/PbHeader.sol\":4761:4880  if (tag == 2) {... */\n      jump(tag_128)\n    tag_125:\n        /* \"contracts/libraries/PbHeader.sol\":4858:4877  buf.skipValue(wire) */\n      tag_128\n        /* \"contracts/libraries/PbHeader.sol\":4858:4861  buf */\n      dup4\n        /* \"contracts/libraries/PbHeader.sol\":4872:4876  wire */\n      dup3\n        /* \"contracts/libraries/PbHeader.sol\":4858:4871  buf.skipValue */\n      tag_54\n        /* \"contracts/libraries/PbHeader.sol\":4858:4877  buf.skipValue(wire) */\n      jump\t// in\n    tag_128:\n        /* \"contracts/libraries/PbHeader.sol\":4525:4919  while (buf.hasMore()) {... */\n      jump(tag_116)\n        /* \"contracts/libraries/PbHeader.sol\":2830:3415  function decVersion(bytes memory raw) public pure returns (Version memory m) {... */\n    tag_25:\n      0x40\n      dup1\n      mload\n      dup1\n      dup3\n      add\n      dup3\n      mstore\n      0x00\n      dup1\n      dup3\n      mstore\n      0x20\n      dup1\n      dup4\n      add\n      dup3\n      swap1\n      mstore\n      dup4\n      mload\n      dup1\n      dup6\n      add\n      swap1\n      swap5\n      mstore\n      dup2\n      dup5\n      mstore\n      dup4\n      add\n        /* \"contracts/libraries/Pb.sol\":474:485  buf.b = raw */\n      dup5\n      swap1\n      mstore\n      swap1\n      swap2\n      swap1\n      dup1\n        /* \"contracts/libraries/PbHeader.sol\":3012:3409  while (buf.hasMore()) {... */\n    tag_133:\n        /* \"contracts/libraries/PbHeader.sol\":3019:3032  buf.hasMore() */\n      tag_135\n        /* \"contracts/libraries/PbHeader.sol\":3019:3022  buf */\n      dup4\n        /* \"contracts/libraries/PbHeader.sol\":3019:3030  buf.hasMore */\n      tag_41\n        /* \"contracts/libraries/PbHeader.sol\":3019:3032  buf.hasMore() */\n      jump\t// in\n    tag_135:\n        /* \"contracts/libraries/PbHeader.sol\":3012:3409  while (buf.hasMore()) {... */\n      iszero\n      tag_39\n      jumpi\n        /* \"contracts/libraries/PbHeader.sol\":3062:3074  buf.decKey() */\n      tag_136\n        /* \"contracts/libraries/PbHeader.sol\":3062:3065  buf */\n      dup4\n        /* \"contracts/libraries/PbHeader.sol\":3062:3072  buf.decKey */\n      tag_43\n        /* \"contracts/libraries/PbHeader.sol\":3062:3074  buf.decKey() */\n      jump\t// in\n    tag_136:\n        /* \"contracts/libraries/PbHeader.sol\":3048:3074  (tag, wire) = buf.decKey() */\n      swap1\n      swap3\n      pop\n      swap1\n      pop\n        /* \"contracts/libraries/PbHeader.sol\":3154:3157  tag */\n      dup2\n        /* \"contracts/libraries/PbHeader.sol\":3161:3162  1 */\n      0x01\n        /* \"contracts/libraries/PbHeader.sol\":3154:3162  tag == 1 */\n      eq\n        /* \"contracts/libraries/PbHeader.sol\":3150:3370  if (tag == 1) {... */\n      iszero\n      tag_139\n      jumpi\n        /* \"contracts/libraries/PbHeader.sol\":3200:3215  buf.decVarint() */\n      tag_140\n        /* \"contracts/libraries/PbHeader.sol\":3200:3203  buf */\n      dup4\n        /* \"contracts/libraries/PbHeader.sol\":3200:3213  buf.decVarint */\n      tag_48\n        /* \"contracts/libraries/PbHeader.sol\":3200:3215  buf.decVarint() */\n      jump\t// in\n    tag_140:\n        /* \"contracts/libraries/PbHeader.sol\":3182:3216  m.block = uint256(buf.decVarint()) */\n      dup5\n      mstore\n        /* \"contracts/libraries/PbHeader.sol\":3150:3370  if (tag == 1) {... */\n      jump(tag_145)\n    tag_139:\n        /* \"contracts/libraries/PbHeader.sol\":3253:3256  tag */\n      dup2\n        /* \"contracts/libraries/PbHeader.sol\":3260:3261  2 */\n      0x02\n        /* \"contracts/libraries/PbHeader.sol\":3253:3261  tag == 2 */\n      eq\n        /* \"contracts/libraries/PbHeader.sol\":3249:3370  if (tag == 2) {... */\n      iszero\n      tag_142\n      jumpi\n        /* \"contracts/libraries/PbHeader.sol\":3297:3312  buf.decVarint() */\n      tag_143\n        /* \"contracts/libraries/PbHeader.sol\":3297:3300  buf */\n      dup4\n        /* \"contracts/libraries/PbHeader.sol\":3297:3310  buf.decVarint */\n      tag_48\n        /* \"contracts/libraries/PbHeader.sol\":3297:3312  buf.decVarint() */\n      jump\t// in\n    tag_143:\n        /* \"contracts/libraries/PbHeader.sol\":3281:3286  m.app */\n      0x20\n      dup6\n      add\n        /* \"contracts/libraries/PbHeader.sol\":3281:3313  m.app = uint256(buf.decVarint()) */\n      mstore\n        /* \"contracts/libraries/PbHeader.sol\":3249:3370  if (tag == 2) {... */\n      jump(tag_145)\n    tag_142:\n        /* \"contracts/libraries/PbHeader.sol\":3348:3367  buf.skipValue(wire) */\n      tag_145\n        /* \"contracts/libraries/PbHeader.sol\":3348:3351  buf */\n      dup4\n        /* \"contracts/libraries/PbHeader.sol\":3362:3366  wire */\n      dup3\n        /* \"contracts/libraries/PbHeader.sol\":3348:3361  buf.skipValue */\n      tag_54\n        /* \"contracts/libraries/PbHeader.sol\":3348:3367  buf.skipValue(wire) */\n      jump\t// in\n    tag_145:\n        /* \"contracts/libraries/PbHeader.sol\":3012:3409  while (buf.hasMore()) {... */\n      jump(tag_133)\n        /* \"contracts/libraries/PbHeader.sol\":3575:4174  function decBlockID(bytes memory raw) public pure returns (BlockID memory m) {... */\n    tag_30:\n        /* \"contracts/libraries/PbHeader.sol\":3634:3650  BlockID memory m */\n      tag_146\n      tag_147\n      jump\t// in\n    tag_146:\n      0x40\n      dup1\n      mload\n      dup1\n      dup3\n      add\n      swap1\n      swap2\n      mstore\n      0x00\n      dup1\n      dup3\n      mstore\n      0x20\n      dup3\n      add\n        /* \"contracts/libraries/Pb.sol\":474:485  buf.b = raw */\n      dup5\n      swap1\n      mstore\n      dup1\n        /* \"contracts/libraries/PbHeader.sol\":3757:4168  while (buf.hasMore()) {... */\n    tag_150:\n        /* \"contracts/libraries/PbHeader.sol\":3764:3777  buf.hasMore() */\n      tag_152\n        /* \"contracts/libraries/PbHeader.sol\":3764:3767  buf */\n      dup4\n        /* \"contracts/libraries/PbHeader.sol\":3764:3775  buf.hasMore */\n      tag_41\n        /* \"contracts/libraries/PbHeader.sol\":3764:3777  buf.hasMore() */\n      jump\t// in\n    tag_152:\n        /* \"contracts/libraries/PbHeader.sol\":3757:4168  while (buf.hasMore()) {... */\n      iszero\n      tag_39\n      jumpi\n        /* \"contracts/libraries/PbHeader.sol\":3807:3819  buf.decKey() */\n      tag_153\n        /* \"contracts/libraries/PbHeader.sol\":3807:3810  buf */\n      dup4\n        /* \"contracts/libraries/PbHeader.sol\":3807:3817  buf.decKey */\n      tag_43\n        /* \"contracts/libraries/PbHeader.sol\":3807:3819  buf.decKey() */\n      jump\t// in\n    tag_153:\n        /* \"contracts/libraries/PbHeader.sol\":3793:3819  (tag, wire) = buf.decKey() */\n      swap1\n      swap3\n      pop\n      swap1\n      pop\n        /* \"contracts/libraries/PbHeader.sol\":3899:3902  tag */\n      dup2\n        /* \"contracts/libraries/PbHeader.sol\":3906:3907  1 */\n      0x01\n        /* \"contracts/libraries/PbHeader.sol\":3899:3907  tag == 1 */\n      eq\n        /* \"contracts/libraries/PbHeader.sol\":3895:4129  if (tag == 1) {... */\n      iszero\n      tag_156\n      jumpi\n        /* \"contracts/libraries/PbHeader.sol\":3942:3956  buf.decBytes() */\n      tag_157\n        /* \"contracts/libraries/PbHeader.sol\":3942:3945  buf */\n      dup4\n        /* \"contracts/libraries/PbHeader.sol\":3942:3954  buf.decBytes */\n      tag_68\n        /* \"contracts/libraries/PbHeader.sol\":3942:3956  buf.decBytes() */\n      jump\t// in\n    tag_157:\n        /* \"contracts/libraries/PbHeader.sol\":3927:3957  m.hash = bytes(buf.decBytes()) */\n      dup5\n      mstore\n        /* \"contracts/libraries/PbHeader.sol\":3895:4129  if (tag == 1) {... */\n      jump(tag_163)\n    tag_156:\n        /* \"contracts/libraries/PbHeader.sol\":3994:3997  tag */\n      dup2\n        /* \"contracts/libraries/PbHeader.sol\":4001:4002  2 */\n      0x02\n        /* \"contracts/libraries/PbHeader.sol\":3994:4002  tag == 2 */\n      eq\n        /* \"contracts/libraries/PbHeader.sol\":3990:4129  if (tag == 2) {... */\n      iszero\n      tag_159\n      jumpi\n        /* \"contracts/libraries/PbHeader.sol\":4040:4072  decPartSetHeader(buf.decBytes()) */\n      tag_160\n        /* \"contracts/libraries/PbHeader.sol\":4057:4071  buf.decBytes() */\n      tag_19\n        /* \"contracts/libraries/PbHeader.sol\":4057:4060  buf */\n      dup5\n        /* \"contracts/libraries/PbHeader.sol\":4057:4069  buf.decBytes */\n      tag_68\n        /* \"contracts/libraries/PbHeader.sol\":4057:4071  buf.decBytes() */\n      jump\t// in\n        /* \"contracts/libraries/PbHeader.sol\":4040:4072  decPartSetHeader(buf.decBytes()) */\n    tag_160:\n        /* \"contracts/libraries/PbHeader.sol\":4022:4037  m.partSetHeader */\n      0x20\n      dup6\n      add\n        /* \"contracts/libraries/PbHeader.sol\":4022:4072  m.partSetHeader = decPartSetHeader(buf.decBytes()) */\n      mstore\n        /* \"contracts/libraries/PbHeader.sol\":3990:4129  if (tag == 2) {... */\n      jump(tag_163)\n    tag_159:\n        /* \"contracts/libraries/PbHeader.sol\":4107:4126  buf.skipValue(wire) */\n      tag_163\n        /* \"contracts/libraries/PbHeader.sol\":4107:4110  buf */\n      dup4\n        /* \"contracts/libraries/PbHeader.sol\":4121:4125  wire */\n      dup3\n        /* \"contracts/libraries/PbHeader.sol\":4107:4120  buf.skipValue */\n      tag_54\n        /* \"contracts/libraries/PbHeader.sol\":4107:4126  buf.skipValue(wire) */\n      jump\t// in\n    tag_163:\n        /* \"contracts/libraries/PbHeader.sol\":3757:4168  while (buf.hasMore()) {... */\n      jump(tag_150)\n        /* \"contracts/libraries/Pb.sol\":557:668  function hasMore(Buffer memory buf) internal pure returns (bool) {... */\n    tag_41:\n        /* \"contracts/libraries/Pb.sol\":649:654  buf.b */\n      0x20\n      dup2\n      add\n      mload\n        /* \"contracts/libraries/Pb.sol\":649:661  buf.b.length */\n      mload\n        /* \"contracts/libraries/Pb.sol\":639:646  buf.idx */\n      dup2\n      mload\n        /* \"contracts/libraries/Pb.sol\":639:661  buf.idx < buf.b.length */\n      lt\n        /* \"contracts/libraries/Pb.sol\":557:668  function hasMore(Buffer memory buf) internal pure returns (bool) {... */\n    tag_167:\n      swap2\n      swap1\n      pop\n      jump\t// out\n        /* \"contracts/libraries/Pb.sol\":722:906  function decKey(Buffer memory buf) internal pure returns (uint tag, WireType wiretype) {... */\n    tag_43:\n        /* \"contracts/libraries/Pb.sol\":780:788  uint tag */\n      0x00\n        /* \"contracts/libraries/Pb.sol\":790:807  WireType wiretype */\n      dup1\n        /* \"contracts/libraries/Pb.sol\":819:825  uint v */\n      0x00\n        /* \"contracts/libraries/Pb.sol\":828:842  decVarint(buf) */\n      tag_169\n        /* \"contracts/libraries/Pb.sol\":838:841  buf */\n      dup5\n        /* \"contracts/libraries/Pb.sol\":828:837  decVarint */\n      tag_48\n        /* \"contracts/libraries/Pb.sol\":828:842  decVarint(buf) */\n      jump\t// in\n    tag_169:\n        /* \"contracts/libraries/Pb.sol\":819:842  uint v = decVarint(buf) */\n      swap1\n      pop\n        /* \"contracts/libraries/Pb.sol\":858:863  v / 8 */\n      tag_170\n        /* \"contracts/libraries/Pb.sol\":862:863  8 */\n      0x08\n        /* \"contracts/libraries/Pb.sol\":819:842  uint v = decVarint(buf) */\n      dup3\n        /* \"contracts/libraries/Pb.sol\":858:863  v / 8 */\n      tag_171\n      jump\t// in\n    tag_170:\n        /* \"contracts/libraries/Pb.sol\":852:863  tag = v / 8 */\n      swap3\n      pop\n        /* \"contracts/libraries/Pb.sol\":893:894  v */\n      dup1\n        /* \"contracts/libraries/Pb.sol\":897:898  7 */\n      0x07\n        /* \"contracts/libraries/Pb.sol\":893:898  v & 7 */\n      and\n        /* \"contracts/libraries/Pb.sol\":884:899  WireType(v & 7) */\n      0x05\n      dup2\n      gt\n      iszero\n      tag_172\n      jumpi\n      mstore(0x00, shl(0xe0, 0x4e487b71))\n      mstore(0x04, 0x21)\n      revert(0x00, 0x24)\n    tag_172:\n        /* \"contracts/libraries/Pb.sol\":873:899  wiretype = WireType(v & 7) */\n      swap2\n      pop\n        /* \"contracts/libraries/Pb.sol\":722:906  function decKey(Buffer memory buf) internal pure returns (uint tag, WireType wiretype) {... */\n      pop\n      swap2\n      pop\n      swap2\n      jump\t// out\n        /* \"contracts/libraries/Pb.sol\":1655:2548  function decVarint(Buffer memory buf) internal pure returns (uint v) {... */\n    tag_48:\n        /* \"contracts/libraries/Pb.sol\":1837:1842  buf.b */\n      0x20\n      dup1\n      dup3\n      add\n      mload\n        /* \"contracts/libraries/Pb.sol\":1898:1905  buf.idx */\n      dup3\n      mload\n        /* \"contracts/libraries/Pb.sol\":1998:2017  add(add(bb, 32), v) */\n      dup2\n      add\n      swap1\n      swap2\n      add\n        /* \"contracts/libraries/Pb.sol\":1992:2018  mload(add(add(bb, 32), v)) */\n      mload\n        /* \"contracts/libraries/Pb.sol\":1716:1722  uint v */\n      0x00\n      swap2\n      dup3\n      dup1\n        /* \"contracts/libraries/Pb.sol\":2173:2493  for (uint i=0; i<10; ++i) {... */\n    tag_174:\n        /* \"contracts/libraries/Pb.sol\":2190:2192  10 */\n      0x0a\n        /* \"contracts/libraries/Pb.sol\":2188:2189  i */\n      dup2\n        /* \"contracts/libraries/Pb.sol\":2188:2192  i<10 */\n      lt\n        /* \"contracts/libraries/Pb.sol\":2173:2493  for (uint i=0; i<10; ++i) {... */\n      iszero\n      tag_175\n      jumpi\n        /* \"contracts/libraries/Pb.sol\":2245:2257  byte(i, tmp) */\n      dup4\n      dup2\n      byte\n      swap2\n      pop\n        /* \"contracts/libraries/Pb.sol\":2369:2374  i * 7 */\n      tag_177\n        /* \"contracts/libraries/Pb.sol\":2250:2251  i */\n      dup2\n        /* \"contracts/libraries/Pb.sol\":2373:2374  7 */\n      0x07\n        /* \"contracts/libraries/Pb.sol\":2369:2374  i * 7 */\n      tag_178\n      jump\t// in\n    tag_177:\n        /* \"contracts/libraries/Pb.sol\":2355:2356  b */\n      dup3\n        /* \"contracts/libraries/Pb.sol\":2359:2363  0x7F */\n      0x7f\n        /* \"contracts/libraries/Pb.sol\":2355:2363  b & 0x7F */\n      and\n        /* \"contracts/libraries/Pb.sol\":2354:2375  (b & 0x7F) << (i * 7) */\n      swap1\n      shl\n        /* \"contracts/libraries/Pb.sol\":2349:2375  v |= (b & 0x7F) << (i * 7) */\n      dup6\n      or\n      swap5\n      pop\n        /* \"contracts/libraries/Pb.sol\":2393:2394  b */\n      dup2\n        /* \"contracts/libraries/Pb.sol\":2397:2401  0x80 */\n      0x80\n        /* \"contracts/libraries/Pb.sol\":2393:2401  b & 0x80 */\n      and\n        /* \"contracts/libraries/Pb.sol\":2405:2406  0 */\n      0x00\n        /* \"contracts/libraries/Pb.sol\":2393:2406  b & 0x80 == 0 */\n      eq\n        /* \"contracts/libraries/Pb.sol\":2389:2483  if (b & 0x80 == 0) {... */\n      iszero\n      tag_179\n      jumpi\n        /* \"contracts/libraries/Pb.sol\":2437:2442  i + 1 */\n      tag_180\n        /* \"contracts/libraries/Pb.sol\":2437:2438  i */\n      dup2\n        /* \"contracts/libraries/Pb.sol\":2441:2442  1 */\n      0x01\n        /* \"contracts/libraries/Pb.sol\":2437:2442  i + 1 */\n      tag_181\n      jump\t// in\n    tag_180:\n        /* \"contracts/libraries/Pb.sol\":2426:2442  buf.idx += i + 1 */\n      dup7\n      mload\n        /* \"contracts/libraries/Pb.sol\":2426:2429  buf */\n      dup8\n      swap1\n        /* \"contracts/libraries/Pb.sol\":2426:2442  buf.idx += i + 1 */\n      tag_182\n      swap1\n      dup4\n      swap1\n      tag_181\n      jump\t// in\n    tag_182:\n      swap1\n      mstore\n      pop\n        /* \"contracts/libraries/Pb.sol\":2460:2468  return v */\n      tag_167\n      swap4\n      pop\n      pop\n      pop\n      pop\n      jump\n        /* \"contracts/libraries/Pb.sol\":2389:2483  if (b & 0x80 == 0) {... */\n    tag_179:\n        /* \"contracts/libraries/Pb.sol\":2194:2197  ++i */\n      tag_183\n      dup2\n      tag_184\n      jump\t// in\n    tag_183:\n      swap1\n      pop\n        /* \"contracts/libraries/Pb.sol\":2173:2493  for (uint i=0; i<10; ++i) {... */\n      jump(tag_174)\n    tag_175:\n      pop\n        /* \"contracts/libraries/Pb.sol\":2502:2510  revert() */\n      0x00\n      dup1\n      revert\n        /* \"contracts/libraries/Pb.sol\":4059:4454  function skipValue(Buffer memory buf, WireType wire) internal pure {... */\n    tag_54:\n        /* \"contracts/libraries/Pb.sol\":4148:4163  WireType.Varint */\n      0x00\n        /* \"contracts/libraries/Pb.sol\":4140:4144  wire */\n      dup2\n        /* \"contracts/libraries/Pb.sol\":4140:4163  wire == WireType.Varint */\n      0x05\n      dup2\n      gt\n      iszero\n      tag_187\n      jumpi\n      mstore(0x00, shl(0xe0, 0x4e487b71))\n      mstore(0x04, 0x21)\n      revert(0x00, 0x24)\n    tag_187:\n      eq\n        /* \"contracts/libraries/Pb.sol\":4136:4423  if (wire == WireType.Varint) { decVarint(buf); }... */\n      iszero\n      tag_188\n      jumpi\n        /* \"contracts/libraries/Pb.sol\":4167:4181  decVarint(buf) */\n      tag_189\n        /* \"contracts/libraries/Pb.sol\":4177:4180  buf */\n      dup3\n        /* \"contracts/libraries/Pb.sol\":4167:4176  decVarint */\n      tag_48\n        /* \"contracts/libraries/Pb.sol\":4167:4181  decVarint(buf) */\n      jump\t// in\n    tag_189:\n      pop\n        /* \"contracts/libraries/Pb.sol\":4136:4423  if (wire == WireType.Varint) { decVarint(buf); }... */\n      jump(tag_197)\n    tag_188:\n        /* \"contracts/libraries/Pb.sol\":4210:4230  WireType.LengthDelim */\n      0x02\n        /* \"contracts/libraries/Pb.sol\":4202:4206  wire */\n      dup2\n        /* \"contracts/libraries/Pb.sol\":4202:4230  wire == WireType.LengthDelim */\n      0x05\n      dup2\n      gt\n      iszero\n      tag_192\n      jumpi\n      mstore(0x00, shl(0xe0, 0x4e487b71))\n      mstore(0x04, 0x21)\n      revert(0x00, 0x24)\n    tag_192:\n      eq\n        /* \"contracts/libraries/Pb.sol\":4198:4423  if (wire == WireType.LengthDelim) {... */\n      iszero\n      tag_1\n      jumpi\n        /* \"contracts/libraries/Pb.sol\":4246:4254  uint len */\n      0x00\n        /* \"contracts/libraries/Pb.sol\":4257:4271  decVarint(buf) */\n      tag_194\n        /* \"contracts/libraries/Pb.sol\":4267:4270  buf */\n      dup4\n        /* \"contracts/libraries/Pb.sol\":4257:4266  decVarint */\n      tag_48\n        /* \"contracts/libraries/Pb.sol\":4257:4271  decVarint(buf) */\n      jump\t// in\n    tag_194:\n        /* \"contracts/libraries/Pb.sol\":4246:4271  uint len = decVarint(buf) */\n      swap1\n      pop\n        /* \"contracts/libraries/Pb.sol\":4296:4299  len */\n      dup1\n        /* \"contracts/libraries/Pb.sol\":4285:4288  buf */\n      dup4\n        /* \"contracts/libraries/Pb.sol\":4285:4292  buf.idx */\n      0x00\n      add\n        /* \"contracts/libraries/Pb.sol\":4285:4299  buf.idx += len */\n      dup2\n      dup2\n      mload\n      tag_195\n      swap2\n      swap1\n      tag_181\n      jump\t// in\n    tag_195:\n      swap1\n      mstore\n      pop\n        /* \"contracts/libraries/Pb.sol\":4361:4366  buf.b */\n      0x20\n      dup4\n      add\n      mload\n        /* \"contracts/libraries/Pb.sol\":4361:4373  buf.b.length */\n      mload\n        /* \"contracts/libraries/Pb.sol\":4350:4357  buf.idx */\n      dup4\n      mload\n        /* \"contracts/libraries/Pb.sol\":4350:4373  buf.idx <= buf.b.length */\n      gt\n      iszero\n        /* \"contracts/libraries/Pb.sol\":4342:4374  require(buf.idx <= buf.b.length) */\n      tag_189\n      jumpi\n      0x00\n      dup1\n      revert\n        /* \"contracts/libraries/Pb.sol\":4198:4423  if (wire == WireType.LengthDelim) {... */\n    tag_197:\n        /* \"contracts/libraries/Pb.sol\":4059:4454  function skipValue(Buffer memory buf, WireType wire) internal pure {... */\n      pop\n      pop\n      jump\t// out\n        /* \"contracts/libraries/Pb.sol\":2606:3265  function decBytes(Buffer memory buf) internal pure returns (bytes memory b) {... */\n    tag_68:\n        /* \"contracts/libraries/Pb.sol\":2666:2680  bytes memory b */\n      0x60\n        /* \"contracts/libraries/Pb.sol\":2692:2700  uint len */\n      0x00\n        /* \"contracts/libraries/Pb.sol\":2703:2717  decVarint(buf) */\n      tag_199\n        /* \"contracts/libraries/Pb.sol\":2713:2716  buf */\n      dup4\n        /* \"contracts/libraries/Pb.sol\":2703:2712  decVarint */\n      tag_48\n        /* \"contracts/libraries/Pb.sol\":2703:2717  decVarint(buf) */\n      jump\t// in\n    tag_199:\n        /* \"contracts/libraries/Pb.sol\":2692:2717  uint len = decVarint(buf) */\n      swap1\n      pop\n        /* \"contracts/libraries/Pb.sol\":2727:2735  uint end */\n      0x00\n        /* \"contracts/libraries/Pb.sol\":2748:2751  len */\n      dup2\n        /* \"contracts/libraries/Pb.sol\":2738:2741  buf */\n      dup5\n        /* \"contracts/libraries/Pb.sol\":2738:2745  buf.idx */\n      0x00\n      add\n      mload\n        /* \"contracts/libraries/Pb.sol\":2738:2751  buf.idx + len */\n      tag_200\n      swap2\n      swap1\n      tag_181\n      jump\t// in\n    tag_200:\n        /* \"contracts/libraries/Pb.sol\":2727:2751  uint end = buf.idx + len */\n      swap1\n      pop\n        /* \"contracts/libraries/Pb.sol\":2776:2779  buf */\n      dup4\n        /* \"contracts/libraries/Pb.sol\":2776:2781  buf.b */\n      0x20\n      add\n      mload\n        /* \"contracts/libraries/Pb.sol\":2776:2788  buf.b.length */\n      mload\n        /* \"contracts/libraries/Pb.sol\":2769:2772  end */\n      dup2\n        /* \"contracts/libraries/Pb.sol\":2769:2788  end <= buf.b.length */\n      gt\n      iszero\n        /* \"contracts/libraries/Pb.sol\":2761:2789  require(end <= buf.b.length) */\n      tag_201\n      jumpi\n      0x00\n      dup1\n      revert\n    tag_201:\n        /* \"contracts/libraries/Pb.sol\":2832:2835  len */\n      dup2\n        /* \"contracts/libraries/Pb.sol\":2822:2836  new bytes(len) */\n      0xffffffffffffffff\n      dup2\n      gt\n      iszero\n      tag_202\n      jumpi\n      mstore(0x00, shl(0xe0, 0x4e487b71))\n      mstore(0x04, 0x41)\n      revert(0x00, 0x24)\n    tag_202:\n      mload(0x40)\n      swap1\n      dup1\n      dup3\n      mstore\n      dup1\n      0x1f\n      add\n      not(0x1f)\n      and\n      0x20\n      add\n      dup3\n      add\n      0x40\n      mstore\n      dup1\n      iszero\n      tag_203\n      jumpi\n      0x20\n      dup3\n      add\n      dup2\n      dup1\n      calldatasize\n      dup4\n      calldatacopy\n      add\n      swap1\n      pop\n    tag_203:\n      pop\n        /* \"contracts/libraries/Pb.sol\":2866:2871  buf.b */\n      0x20\n      dup1\n      dup7\n      add\n      mload\n        /* \"contracts/libraries/Pb.sol\":2961:2968  buf.idx */\n      dup7\n      mload\n        /* \"contracts/libraries/Pb.sol\":2818:2836  b = new bytes(len) */\n      swap3\n      swap6\n      pop\n        /* \"contracts/libraries/Pb.sol\":2866:2871  buf.b */\n      swap2\n        /* \"contracts/libraries/Pb.sol\":3011:3021  add(b, 32) */\n      dup2\n      dup7\n      add\n      swap2\n        /* \"contracts/libraries/Pb.sol\":3047:3076  add(add(bufB, 32), bufBStart) */\n      swap1\n      dup4\n      add\n      add\n        /* \"contracts/libraries/Pb.sol\":2846:2863  bytes memory bufB */\n      0x00\n        /* \"contracts/libraries/Pb.sol\":3095:3236  for (uint i=0; i<len; i+=32) {... */\n    tag_204:\n        /* \"contracts/libraries/Pb.sol\":3112:3115  len */\n      dup6\n        /* \"contracts/libraries/Pb.sol\":3110:3111  i */\n      dup2\n        /* \"contracts/libraries/Pb.sol\":3110:3115  i<len */\n      lt\n        /* \"contracts/libraries/Pb.sol\":3095:3236  for (uint i=0; i<len; i+=32) {... */\n      iszero\n      tag_205\n      jumpi\n        /* \"contracts/libraries/Pb.sol\":3193:3210  add(bufBStart, i) */\n      dup2\n      dup2\n      add\n        /* \"contracts/libraries/Pb.sol\":3187:3211  mload(add(bufBStart, i)) */\n      mload\n        /* \"contracts/libraries/Pb.sol\":3171:3185  add(bStart, i) */\n      dup4\n      dup3\n      add\n        /* \"contracts/libraries/Pb.sol\":3164:3212  mstore(add(bStart, i), mload(add(bufBStart, i))) */\n      mstore\n        /* \"contracts/libraries/Pb.sol\":3117:3122  i+=32 */\n      tag_207\n        /* \"contracts/libraries/Pb.sol\":3120:3122  32 */\n      0x20\n        /* \"contracts/libraries/Pb.sol\":3208:3209  i */\n      dup3\n        /* \"contracts/libraries/Pb.sol\":3117:3122  i+=32 */\n      tag_181\n      jump\t// in\n    tag_207:\n      swap1\n      pop\n        /* \"contracts/libraries/Pb.sol\":3095:3236  for (uint i=0; i<len; i+=32) {... */\n      jump(tag_204)\n    tag_205:\n      pop\n      pop\n      pop\n        /* \"contracts/libraries/Pb.sol\":3245:3258  buf.idx = end */\n      swap4\n      mstore\n      pop\n        /* \"contracts/libraries/Pb.sol\":2606:3265  function decBytes(Buffer memory buf) internal pure returns (bytes memory b) {... */\n      swap2\n      swap1\n      pop\n      jump\t// out\n    tag_56:\n      0x40\n      dup1\n      mload\n      0x0200\n      dup2\n      add\n      swap1\n      swap2\n      mstore\n      0x00\n      0x01c0\n      dup3\n      add\n      dup2\n      dup2\n      mstore\n      0x01e0\n      dup4\n      add\n      swap2\n      swap1\n      swap2\n      mstore\n      dup2\n      swap1\n      dup2\n      mstore\n      0x20\n      add\n      0x60\n      dup2\n      mstore\n      0x20\n      add\n      0x00\n      dup2\n      mstore\n      0x20\n      add\n      tag_209\n      mload(0x40)\n      dup1\n      0x40\n      add\n      0x40\n      mstore\n      dup1\n      0x00\n      dup2\n      mstore\n      0x20\n      add\n      0x00\n      dup2\n      mstore\n      pop\n      swap1\n      jump\n    tag_209:\n      dup2\n      mstore\n      0x20\n      add\n      tag_210\n      tag_147\n      jump\t// in\n    tag_210:\n      dup2\n      mstore\n      0x20\n      add\n      0x60\n      dup2\n      mstore\n      0x20\n      add\n      0x60\n      dup2\n      mstore\n      0x20\n      add\n      0x60\n      dup2\n      mstore\n      0x20\n      add\n      0x60\n      dup2\n      mstore\n      0x20\n      add\n      0x60\n      dup2\n      mstore\n      0x20\n      add\n      0x60\n      dup2\n      mstore\n      0x20\n      add\n      0x60\n      dup2\n      mstore\n      0x20\n      add\n      0x60\n      dup2\n      mstore\n      0x20\n      add\n      0x60\n      dup2\n      mstore\n      pop\n      swap1\n      jump\t// out\n    tag_147:\n      mload(0x40)\n      dup1\n      0x40\n      add\n      0x40\n      mstore\n      dup1\n      0x60\n      dup2\n      mstore\n      0x20\n      add\n      tag_211\n      mload(0x40)\n      dup1\n      0x40\n      add\n      0x40\n      mstore\n      dup1\n      and(0xffffffff, 0x00)\n      dup2\n      mstore\n      0x20\n      add\n      0x60\n      dup2\n      mstore\n      pop\n      swap1\n      jump\n    tag_211:\n      swap1\n      mstore\n      swap1\n      jump\t// out\n        /* \"#utility.yul\":14:980   */\n    tag_9:\n      0x00\n        /* \"#utility.yul\":135:137   */\n      0x20\n        /* \"#utility.yul\":123:132   */\n      dup3\n        /* \"#utility.yul\":114:121   */\n      dup5\n        /* \"#utility.yul\":110:133   */\n      sub\n        /* \"#utility.yul\":106:138   */\n      slt\n        /* \"#utility.yul\":103:105   */\n      iszero\n      tag_214\n      jumpi\n        /* \"#utility.yul\":156:162   */\n      dup1\n        /* \"#utility.yul\":148:154   */\n      dup2\n        /* \"#utility.yul\":141:163   */\n      revert\n        /* \"#utility.yul\":103:105   */\n    tag_214:\n        /* \"#utility.yul\":201:210   */\n      dup2\n        /* \"#utility.yul\":188:211   */\n      calldataload\n        /* \"#utility.yul\":230:248   */\n      0xffffffffffffffff\n        /* \"#utility.yul\":271:273   */\n      dup1\n        /* \"#utility.yul\":263:269   */\n      dup3\n        /* \"#utility.yul\":260:274   */\n      gt\n        /* \"#utility.yul\":257:259   */\n      iszero\n      tag_215\n      jumpi\n        /* \"#utility.yul\":292:298   */\n      dup3\n        /* \"#utility.yul\":284:290   */\n      dup4\n        /* \"#utility.yul\":277:299   */\n      revert\n        /* \"#utility.yul\":257:259   */\n    tag_215:\n        /* \"#utility.yul\":335:341   */\n      dup2\n        /* \"#utility.yul\":324:333   */\n      dup5\n        /* \"#utility.yul\":320:342   */\n      add\n        /* \"#utility.yul\":310:342   */\n      swap2\n      pop\n        /* \"#utility.yul\":380:387   */\n      dup5\n        /* \"#utility.yul\":373:377   */\n      0x1f\n        /* \"#utility.yul\":369:371   */\n      dup4\n        /* \"#utility.yul\":365:378   */\n      add\n        /* \"#utility.yul\":361:388   */\n      slt\n        /* \"#utility.yul\":351:353   */\n      tag_216\n      jumpi\n        /* \"#utility.yul\":407:413   */\n      dup3\n        /* \"#utility.yul\":399:405   */\n      dup4\n        /* \"#utility.yul\":392:414   */\n      revert\n        /* \"#utility.yul\":351:353   */\n    tag_216:\n        /* \"#utility.yul\":448:450   */\n      dup2\n        /* \"#utility.yul\":435:451   */\n      calldataload\n        /* \"#utility.yul\":470:472   */\n      dup2\n        /* \"#utility.yul\":466:468   */\n      dup2\n        /* \"#utility.yul\":463:473   */\n      gt\n        /* \"#utility.yul\":460:462   */\n      iszero\n      tag_218\n      jumpi\n        /* \"#utility.yul\":476:494   */\n      tag_218\n      tag_219\n      jump\t// in\n    tag_218:\n        /* \"#utility.yul\":551:553   */\n      0x40\n        /* \"#utility.yul\":545:554   */\n      mload\n        /* \"#utility.yul\":519:521   */\n      0x1f\n        /* \"#utility.yul\":605:618   */\n      dup3\n      add\n      not(0x1f)\n        /* \"#utility.yul\":601:623   */\n      swap1\n      dup2\n      and\n        /* \"#utility.yul\":625:627   */\n      0x3f\n        /* \"#utility.yul\":597:628   */\n      add\n        /* \"#utility.yul\":593:633   */\n      and\n        /* \"#utility.yul\":581:634   */\n      dup2\n      add\n      swap1\n        /* \"#utility.yul\":649:667   */\n      dup4\n      dup3\n      gt\n        /* \"#utility.yul\":669:691   */\n      dup2\n      dup4\n      lt\n        /* \"#utility.yul\":646:692   */\n      or\n        /* \"#utility.yul\":643:645   */\n      iszero\n      tag_221\n      jumpi\n        /* \"#utility.yul\":695:713   */\n      tag_221\n      tag_219\n      jump\t// in\n    tag_221:\n        /* \"#utility.yul\":735:745   */\n      dup2\n        /* \"#utility.yul\":731:733   */\n      0x40\n        /* \"#utility.yul\":724:746   */\n      mstore\n        /* \"#utility.yul\":770:772   */\n      dup3\n        /* \"#utility.yul\":762:768   */\n      dup2\n        /* \"#utility.yul\":755:773   */\n      mstore\n        /* \"#utility.yul\":810:817   */\n      dup8\n        /* \"#utility.yul\":805:807   */\n      0x20\n        /* \"#utility.yul\":800:802   */\n      dup5\n        /* \"#utility.yul\":796:798   */\n      dup8\n        /* \"#utility.yul\":792:803   */\n      add\n        /* \"#utility.yul\":788:808   */\n      add\n        /* \"#utility.yul\":785:818   */\n      gt\n        /* \"#utility.yul\":782:784   */\n      iszero\n      tag_222\n      jumpi\n        /* \"#utility.yul\":836:842   */\n      dup6\n        /* \"#utility.yul\":828:834   */\n      dup7\n        /* \"#utility.yul\":821:843   */\n      revert\n        /* \"#utility.yul\":782:784   */\n    tag_222:\n        /* \"#utility.yul\":897:899   */\n      dup3\n        /* \"#utility.yul\":892:894   */\n      0x20\n        /* \"#utility.yul\":888:890   */\n      dup7\n        /* \"#utility.yul\":884:895   */\n      add\n        /* \"#utility.yul\":879:881   */\n      0x20\n        /* \"#utility.yul\":871:877   */\n      dup4\n        /* \"#utility.yul\":867:882   */\n      add\n        /* \"#utility.yul\":854:900   */\n      calldatacopy\n        /* \"#utility.yul\":920:935   */\n      swap2\n      dup3\n      add\n        /* \"#utility.yul\":937:939   */\n      0x20\n        /* \"#utility.yul\":916:940   */\n      add\n        /* \"#utility.yul\":909:949   */\n      swap5\n      swap1\n      swap5\n      mstore\n        /* \"#utility.yul\":924:930   */\n      swap6\n        /* \"#utility.yul\":93:980   */\n      swap5\n      pop\n      pop\n      pop\n      pop\n      pop\n      jump\t// out\n        /* \"#utility.yul\":985:1460   */\n    tag_223:\n      0x00\n        /* \"#utility.yul\":1064:1069   */\n      dup2\n        /* \"#utility.yul\":1058:1070   */\n      mload\n        /* \"#utility.yul\":1091:1097   */\n      dup1\n        /* \"#utility.yul\":1086:1089   */\n      dup5\n        /* \"#utility.yul\":1079:1098   */\n      mstore\n        /* \"#utility.yul\":1116:1119   */\n      dup2\n        /* \"#utility.yul\":1128:1290   */\n    tag_225:\n        /* \"#utility.yul\":1142:1148   */\n      dup2\n        /* \"#utility.yul\":1139:1140   */\n      dup2\n        /* \"#utility.yul\":1136:1149   */\n      lt\n        /* \"#utility.yul\":1128:1290   */\n      iszero\n      tag_227\n      jumpi\n        /* \"#utility.yul\":1204:1208   */\n      0x20\n        /* \"#utility.yul\":1260:1273   */\n      dup2\n      dup6\n      add\n        /* \"#utility.yul\":1256:1278   */\n      dup2\n      add\n        /* \"#utility.yul\":1250:1279   */\n      mload\n        /* \"#utility.yul\":1232:1243   */\n      dup7\n      dup4\n      add\n        /* \"#utility.yul\":1228:1248   */\n      dup3\n      add\n        /* \"#utility.yul\":1221:1280   */\n      mstore\n        /* \"#utility.yul\":1157:1169   */\n      add\n        /* \"#utility.yul\":1128:1290   */\n      jump(tag_225)\n    tag_227:\n        /* \"#utility.yul\":1308:1314   */\n      dup2\n        /* \"#utility.yul\":1305:1306   */\n      dup2\n        /* \"#utility.yul\":1302:1315   */\n      gt\n        /* \"#utility.yul\":1299:1301   */\n      iszero\n      tag_228\n      jumpi\n        /* \"#utility.yul\":1374:1377   */\n      dup3\n        /* \"#utility.yul\":1367:1371   */\n      0x20\n        /* \"#utility.yul\":1358:1364   */\n      dup4\n        /* \"#utility.yul\":1353:1356   */\n      dup8\n        /* \"#utility.yul\":1349:1365   */\n      add\n        /* \"#utility.yul\":1345:1372   */\n      add\n        /* \"#utility.yul\":1338:1378   */\n      mstore\n        /* \"#utility.yul\":1299:1301   */\n    tag_228:\n      pop\n        /* \"#utility.yul\":1442:1444   */\n      0x1f\n        /* \"#utility.yul\":1421:1436   */\n      add\n      not(0x1f)\n        /* \"#utility.yul\":1417:1446   */\n      and\n        /* \"#utility.yul\":1408:1447   */\n      swap3\n      swap1\n      swap3\n      add\n        /* \"#utility.yul\":1449:1453   */\n      0x20\n        /* \"#utility.yul\":1404:1454   */\n      add\n      swap3\n        /* \"#utility.yul\":1034:1460   */\n      swap2\n      pop\n      pop\n      jump\t// out\n        /* \"#utility.yul\":1465:1834   */\n    tag_229:\n      0x00\n        /* \"#utility.yul\":1559:1564   */\n      dup2\n        /* \"#utility.yul\":1553:1565   */\n      mload\n        /* \"#utility.yul\":1586:1590   */\n      0x40\n        /* \"#utility.yul\":1581:1584   */\n      dup5\n        /* \"#utility.yul\":1574:1591   */\n      mstore\n        /* \"#utility.yul\":1612:1658   */\n      tag_231\n        /* \"#utility.yul\":1652:1656   */\n      0x40\n        /* \"#utility.yul\":1647:1650   */\n      dup6\n        /* \"#utility.yul\":1643:1657   */\n      add\n        /* \"#utility.yul\":1629:1641   */\n      dup3\n        /* \"#utility.yul\":1612:1658   */\n      tag_223\n      jump\t// in\n    tag_231:\n        /* \"#utility.yul\":1600:1658   */\n      swap1\n      pop\n        /* \"#utility.yul\":1706:1710   */\n      0x20\n        /* \"#utility.yul\":1699:1704   */\n      dup4\n        /* \"#utility.yul\":1695:1711   */\n      add\n        /* \"#utility.yul\":1689:1712   */\n      mload\n        /* \"#utility.yul\":1754:1757   */\n      dup5\n        /* \"#utility.yul\":1748:1752   */\n      dup3\n        /* \"#utility.yul\":1744:1758   */\n      sub\n        /* \"#utility.yul\":1737:1741   */\n      0x20\n        /* \"#utility.yul\":1732:1735   */\n      dup7\n        /* \"#utility.yul\":1728:1742   */\n      add\n        /* \"#utility.yul\":1721:1759   */\n      mstore\n        /* \"#utility.yul\":1775:1828   */\n      tag_232\n        /* \"#utility.yul\":1823:1827   */\n      dup3\n        /* \"#utility.yul\":1807:1821   */\n      dup3\n        /* \"#utility.yul\":1775:1828   */\n      tag_233\n      jump\t// in\n    tag_232:\n        /* \"#utility.yul\":1768:1828   */\n      swap6\n        /* \"#utility.yul\":1523:1834   */\n      swap5\n      pop\n      pop\n      pop\n      pop\n      pop\n      jump\t// out\n        /* \"#utility.yul\":1839:2112   */\n    tag_233:\n      0x00\n        /* \"#utility.yul\":1943:1953   */\n      0xffffffff\n        /* \"#utility.yul\":1935:1940   */\n      dup3\n        /* \"#utility.yul\":1929:1941   */\n      mload\n        /* \"#utility.yul\":1925:1954   */\n      and\n        /* \"#utility.yul\":1920:1923   */\n      dup4\n        /* \"#utility.yul\":1913:1955   */\n      mstore\n        /* \"#utility.yul\":2001:2005   */\n      0x20\n        /* \"#utility.yul\":1994:1999   */\n      dup3\n        /* \"#utility.yul\":1990:2006   */\n      add\n        /* \"#utility.yul\":1984:2007   */\n      mload\n        /* \"#utility.yul\":2039:2043   */\n      0x40\n        /* \"#utility.yul\":2032:2036   */\n      0x20\n        /* \"#utility.yul\":2027:2030   */\n      dup6\n        /* \"#utility.yul\":2023:2037   */\n      add\n        /* \"#utility.yul\":2016:2044   */\n      mstore\n        /* \"#utility.yul\":2060:2106   */\n      tag_235\n        /* \"#utility.yul\":2100:2104   */\n      0x40\n        /* \"#utility.yul\":2095:2098   */\n      dup6\n        /* \"#utility.yul\":2091:2105   */\n      add\n        /* \"#utility.yul\":2077:2089   */\n      dup3\n        /* \"#utility.yul\":2060:2106   */\n      tag_223\n      jump\t// in\n    tag_235:\n        /* \"#utility.yul\":2053:2106   */\n      swap5\n        /* \"#utility.yul\":1903:2112   */\n      swap4\n      pop\n      pop\n      pop\n      pop\n      jump\t// out\n        /* \"#utility.yul\":2272:2538   */\n    tag_32:\n      0x00\n        /* \"#utility.yul\":2459:2461   */\n      0x20\n        /* \"#utility.yul\":2448:2457   */\n      dup3\n        /* \"#utility.yul\":2441:2462   */\n      mstore\n        /* \"#utility.yul\":2479:2532   */\n      tag_239\n        /* \"#utility.yul\":2528:2530   */\n      0x20\n        /* \"#utility.yul\":2517:2526   */\n      dup4\n        /* \"#utility.yul\":2513:2531   */\n      add\n        /* \"#utility.yul\":2505:2511   */\n      dup5\n        /* \"#utility.yul\":2479:2532   */\n      tag_229\n      jump\t// in\n    tag_239:\n        /* \"#utility.yul\":2471:2532   */\n      swap4\n        /* \"#utility.yul\":2431:2538   */\n      swap3\n      pop\n      pop\n      pop\n      jump\t// out\n        /* \"#utility.yul\":2543:5201   */\n    tag_17:\n        /* \"#utility.yul\":2728:2730   */\n      0x20\n        /* \"#utility.yul\":2710:2731   */\n      dup1\n      dup3\n      mstore\n        /* \"#utility.yul\":2768:2781   */\n      dup3\n      mload\n        /* \"#utility.yul\":2192:2204   */\n      dup1\n      mload\n        /* \"#utility.yul\":2783:2801   */\n      dup4\n      dup4\n      add\n        /* \"#utility.yul\":2180:2205   */\n      mstore\n        /* \"#utility.yul\":2243:2259   */\n      add\n        /* \"#utility.yul\":2237:2260   */\n      mload\n        /* \"#utility.yul\":2221:2235   */\n      0x40\n      dup3\n      add\n        /* \"#utility.yul\":2214:2261   */\n      mstore\n        /* \"#utility.yul\":2543:5201   */\n      0x00\n        /* \"#utility.yul\":2849:2851   */\n      0x20\n        /* \"#utility.yul\":2841:2847   */\n      dup4\n        /* \"#utility.yul\":2837:2852   */\n      add\n        /* \"#utility.yul\":2831:2853   */\n      mload\n        /* \"#utility.yul\":2872:2878   */\n      0x0200\n        /* \"#utility.yul\":2914:2916   */\n      dup1\n        /* \"#utility.yul\":2909:2911   */\n      0x60\n        /* \"#utility.yul\":2898:2907   */\n      dup6\n        /* \"#utility.yul\":2894:2912   */\n      add\n        /* \"#utility.yul\":2887:2917   */\n      mstore\n        /* \"#utility.yul\":2940:2991   */\n      tag_242\n        /* \"#utility.yul\":2986:2989   */\n      0x0220\n        /* \"#utility.yul\":2975:2984   */\n      dup6\n        /* \"#utility.yul\":2971:2990   */\n      add\n        /* \"#utility.yul\":2957:2969   */\n      dup4\n        /* \"#utility.yul\":2940:2991   */\n      tag_223\n      jump\t// in\n    tag_242:\n        /* \"#utility.yul\":3046:3050   */\n      0x40\n        /* \"#utility.yul\":3034:3051   */\n      dup7\n      add\n        /* \"#utility.yul\":3028:3052   */\n      mload\n        /* \"#utility.yul\":3022:3025   */\n      0x80\n        /* \"#utility.yul\":3007:3026   */\n      dup7\n      add\n        /* \"#utility.yul\":3000:3053   */\n      mstore\n        /* \"#utility.yul\":3102:3104   */\n      0x60\n        /* \"#utility.yul\":3090:3105   */\n      dup7\n      add\n        /* \"#utility.yul\":3084:3106   */\n      mload\n        /* \"#utility.yul\":2192:2204   */\n      dup1\n      mload\n        /* \"#utility.yul\":3174:3177   */\n      0xa0\n        /* \"#utility.yul\":3159:3178   */\n      dup8\n      add\n        /* \"#utility.yul\":2180:2205   */\n      mstore\n        /* \"#utility.yul\":2254:2258   */\n      0x20\n        /* \"#utility.yul\":2243:2259   */\n      dup2\n      add\n        /* \"#utility.yul\":2237:2260   */\n      mload\n        /* \"#utility.yul\":2221:2235   */\n      0xc0\n      dup8\n      add\n        /* \"#utility.yul\":2214:2261   */\n      mstore\n        /* \"#utility.yul\":2926:2991   */\n      swap1\n      swap3\n      pop\n        /* \"#utility.yul\":3115:3179   */\n      pop\n        /* \"#utility.yul\":3228:3231   */\n      0x80\n        /* \"#utility.yul\":3220:3226   */\n      dup6\n        /* \"#utility.yul\":3216:3232   */\n      add\n        /* \"#utility.yul\":3210:3233   */\n      mload\n        /* \"#utility.yul\":3256:3258   */\n      0x1f\n        /* \"#utility.yul\":3252:3259   */\n      not\n        /* \"#utility.yul\":3324:3326   */\n      dup1\n        /* \"#utility.yul\":3312:3321   */\n      dup7\n        /* \"#utility.yul\":3304:3310   */\n      dup6\n        /* \"#utility.yul\":3300:3322   */\n      sub\n        /* \"#utility.yul\":3296:3327   */\n      add\n        /* \"#utility.yul\":3290:3293   */\n      0xe0\n        /* \"#utility.yul\":3279:3288   */\n      dup8\n        /* \"#utility.yul\":3275:3294   */\n      add\n        /* \"#utility.yul\":3268:3328   */\n      mstore\n        /* \"#utility.yul\":3351:3400   */\n      tag_244\n        /* \"#utility.yul\":3393:3399   */\n      dup5\n        /* \"#utility.yul\":3377:3391   */\n      dup4\n        /* \"#utility.yul\":3351:3400   */\n      tag_229\n      jump\t// in\n    tag_244:\n        /* \"#utility.yul\":3337:3400   */\n      swap4\n      pop\n        /* \"#utility.yul\":3449:3452   */\n      0xa0\n        /* \"#utility.yul\":3441:3447   */\n      dup8\n        /* \"#utility.yul\":3437:3453   */\n      add\n        /* \"#utility.yul\":3431:3454   */\n      mload\n        /* \"#utility.yul\":3409:3454   */\n      swap2\n      pop\n        /* \"#utility.yul\":3473:3476   */\n      0x0100\n        /* \"#utility.yul\":3540:3542   */\n      dup2\n        /* \"#utility.yul\":3528:3537   */\n      dup8\n        /* \"#utility.yul\":3520:3526   */\n      dup7\n        /* \"#utility.yul\":3516:3538   */\n      sub\n        /* \"#utility.yul\":3512:3543   */\n      add\n        /* \"#utility.yul\":3507:3509   */\n      dup2\n        /* \"#utility.yul\":3496:3505   */\n      dup9\n        /* \"#utility.yul\":3492:3510   */\n      add\n        /* \"#utility.yul\":3485:3544   */\n      mstore\n        /* \"#utility.yul\":3567:3607   */\n      tag_245\n        /* \"#utility.yul\":3600:3606   */\n      dup6\n        /* \"#utility.yul\":3584:3598   */\n      dup5\n        /* \"#utility.yul\":3567:3607   */\n      tag_223\n      jump\t// in\n    tag_245:\n        /* \"#utility.yul\":3553:3607   */\n      swap5\n      pop\n        /* \"#utility.yul\":3656:3660   */\n      0xc0\n        /* \"#utility.yul\":3648:3654   */\n      dup9\n        /* \"#utility.yul\":3644:3661   */\n      add\n        /* \"#utility.yul\":3638:3662   */\n      mload\n        /* \"#utility.yul\":3616:3662   */\n      swap3\n      pop\n        /* \"#utility.yul\":3681:3684   */\n      0x0120\n        /* \"#utility.yul\":3748:3750   */\n      dup3\n        /* \"#utility.yul\":3736:3745   */\n      dup9\n        /* \"#utility.yul\":3728:3734   */\n      dup8\n        /* \"#utility.yul\":3724:3746   */\n      sub\n        /* \"#utility.yul\":3720:3751   */\n      add\n        /* \"#utility.yul\":3715:3717   */\n      dup2\n        /* \"#utility.yul\":3704:3713   */\n      dup10\n        /* \"#utility.yul\":3700:3718   */\n      add\n        /* \"#utility.yul\":3693:3752   */\n      mstore\n        /* \"#utility.yul\":3775:3815   */\n      tag_246\n        /* \"#utility.yul\":3808:3814   */\n      dup7\n        /* \"#utility.yul\":3792:3806   */\n      dup6\n        /* \"#utility.yul\":3775:3815   */\n      tag_223\n      jump\t// in\n    tag_246:\n        /* \"#utility.yul\":3761:3815   */\n      swap6\n      pop\n        /* \"#utility.yul\":3864:3867   */\n      0xe0\n        /* \"#utility.yul\":3856:3862   */\n      dup10\n        /* \"#utility.yul\":3852:3868   */\n      add\n        /* \"#utility.yul\":3846:3869   */\n      mload\n        /* \"#utility.yul\":3824:3869   */\n      swap4\n      pop\n        /* \"#utility.yul\":3888:3891   */\n      0x0140\n        /* \"#utility.yul\":3955:3957   */\n      dup4\n        /* \"#utility.yul\":3943:3952   */\n      dup10\n        /* \"#utility.yul\":3935:3941   */\n      dup9\n        /* \"#utility.yul\":3931:3953   */\n      sub\n        /* \"#utility.yul\":3927:3958   */\n      add\n        /* \"#utility.yul\":3922:3924   */\n      dup2\n        /* \"#utility.yul\":3911:3920   */\n      dup11\n        /* \"#utility.yul\":3907:3925   */\n      add\n        /* \"#utility.yul\":3900:3959   */\n      mstore\n        /* \"#utility.yul\":3982:4022   */\n      tag_247\n        /* \"#utility.yul\":4015:4021   */\n      dup8\n        /* \"#utility.yul\":3999:4013   */\n      dup7\n        /* \"#utility.yul\":3982:4022   */\n      tag_223\n      jump\t// in\n    tag_247:\n        /* \"#utility.yul\":3968:4022   */\n      swap7\n      pop\n        /* \"#utility.yul\":4071:4073   */\n      dup3\n        /* \"#utility.yul\":4063:4069   */\n      dup11\n        /* \"#utility.yul\":4059:4074   */\n      add\n        /* \"#utility.yul\":4053:4075   */\n      mload\n        /* \"#utility.yul\":4031:4075   */\n      swap5\n      pop\n        /* \"#utility.yul\":4094:4097   */\n      0x0160\n        /* \"#utility.yul\":4084:4097   */\n      swap3\n      pop\n        /* \"#utility.yul\":4161:4163   */\n      dup4\n        /* \"#utility.yul\":4149:4158   */\n      dup10\n        /* \"#utility.yul\":4141:4147   */\n      dup9\n        /* \"#utility.yul\":4137:4159   */\n      sub\n        /* \"#utility.yul\":4133:4164   */\n      add\n        /* \"#utility.yul\":4128:4130   */\n      dup4\n        /* \"#utility.yul\":4117:4126   */\n      dup11\n        /* \"#utility.yul\":4113:4131   */\n      add\n        /* \"#utility.yul\":4106:4165   */\n      mstore\n        /* \"#utility.yul\":4188:4228   */\n      tag_248\n        /* \"#utility.yul\":4221:4227   */\n      dup8\n        /* \"#utility.yul\":4205:4219   */\n      dup7\n        /* \"#utility.yul\":4188:4228   */\n      tag_223\n      jump\t// in\n    tag_248:\n        /* \"#utility.yul\":4174:4228   */\n      swap7\n      pop\n        /* \"#utility.yul\":4277:4279   */\n      dup2\n        /* \"#utility.yul\":4269:4275   */\n      dup11\n        /* \"#utility.yul\":4265:4280   */\n      add\n        /* \"#utility.yul\":4259:4281   */\n      mload\n        /* \"#utility.yul\":4237:4281   */\n      swap5\n      pop\n        /* \"#utility.yul\":4300:4303   */\n      0x0180\n        /* \"#utility.yul\":4290:4303   */\n      swap2\n      pop\n        /* \"#utility.yul\":4367:4369   */\n      dup4\n        /* \"#utility.yul\":4355:4364   */\n      dup10\n        /* \"#utility.yul\":4347:4353   */\n      dup9\n        /* \"#utility.yul\":4343:4365   */\n      sub\n        /* \"#utility.yul\":4339:4370   */\n      add\n        /* \"#utility.yul\":4334:4336   */\n      dup3\n        /* \"#utility.yul\":4323:4332   */\n      dup11\n        /* \"#utility.yul\":4319:4337   */\n      add\n        /* \"#utility.yul\":4312:4371   */\n      mstore\n        /* \"#utility.yul\":4394:4434   */\n      tag_249\n        /* \"#utility.yul\":4427:4433   */\n      dup8\n        /* \"#utility.yul\":4411:4425   */\n      dup7\n        /* \"#utility.yul\":4394:4434   */\n      tag_223\n      jump\t// in\n    tag_249:\n        /* \"#utility.yul\":4380:4434   */\n      swap7\n      pop\n        /* \"#utility.yul\":4483:4485   */\n      dup1\n        /* \"#utility.yul\":4475:4481   */\n      dup11\n        /* \"#utility.yul\":4471:4486   */\n      add\n        /* \"#utility.yul\":4465:4487   */\n      mload\n        /* \"#utility.yul\":4443:4487   */\n      swap5\n      pop\n      pop\n        /* \"#utility.yul\":4506:4509   */\n      0x01a0\n        /* \"#utility.yul\":4573:4575   */\n      dup4\n        /* \"#utility.yul\":4561:4570   */\n      dup10\n        /* \"#utility.yul\":4553:4559   */\n      dup9\n        /* \"#utility.yul\":4549:4571   */\n      sub\n        /* \"#utility.yul\":4545:4576   */\n      add\n        /* \"#utility.yul\":4540:4542   */\n      dup2\n        /* \"#utility.yul\":4529:4538   */\n      dup11\n        /* \"#utility.yul\":4525:4543   */\n      add\n        /* \"#utility.yul\":4518:4577   */\n      mstore\n        /* \"#utility.yul\":4600:4640   */\n      tag_250\n        /* \"#utility.yul\":4633:4639   */\n      dup8\n        /* \"#utility.yul\":4617:4631   */\n      dup7\n        /* \"#utility.yul\":4600:4640   */\n      tag_223\n      jump\t// in\n    tag_250:\n        /* \"#utility.yul\":4586:4640   */\n      swap7\n      pop\n        /* \"#utility.yul\":4689:4691   */\n      dup3\n        /* \"#utility.yul\":4681:4687   */\n      dup11\n        /* \"#utility.yul\":4677:4692   */\n      add\n        /* \"#utility.yul\":4671:4693   */\n      mload\n        /* \"#utility.yul\":4649:4693   */\n      swap5\n      pop\n        /* \"#utility.yul\":4758:4760   */\n      dup4\n        /* \"#utility.yul\":4746:4755   */\n      dup10\n        /* \"#utility.yul\":4738:4744   */\n      dup9\n        /* \"#utility.yul\":4734:4756   */\n      sub\n        /* \"#utility.yul\":4730:4761   */\n      add\n        /* \"#utility.yul\":4724:4727   */\n      0x01c0\n        /* \"#utility.yul\":4713:4722   */\n      dup11\n        /* \"#utility.yul\":4709:4728   */\n      add\n        /* \"#utility.yul\":4702:4762   */\n      mstore\n        /* \"#utility.yul\":4785:4825   */\n      tag_251\n        /* \"#utility.yul\":4818:4824   */\n      dup8\n        /* \"#utility.yul\":4802:4816   */\n      dup7\n        /* \"#utility.yul\":4785:4825   */\n      tag_223\n      jump\t// in\n    tag_251:\n        /* \"#utility.yul\":4771:4825   */\n      swap7\n      pop\n        /* \"#utility.yul\":4875:4877   */\n      dup2\n        /* \"#utility.yul\":4867:4873   */\n      dup11\n        /* \"#utility.yul\":4863:4878   */\n      add\n        /* \"#utility.yul\":4857:4879   */\n      mload\n        /* \"#utility.yul\":4834:4879   */\n      swap5\n      pop\n        /* \"#utility.yul\":4944:4946   */\n      dup4\n        /* \"#utility.yul\":4932:4941   */\n      dup10\n        /* \"#utility.yul\":4924:4930   */\n      dup9\n        /* \"#utility.yul\":4920:4942   */\n      sub\n        /* \"#utility.yul\":4916:4947   */\n      add\n        /* \"#utility.yul\":4910:4913   */\n      0x01e0\n        /* \"#utility.yul\":4899:4908   */\n      dup11\n        /* \"#utility.yul\":4895:4914   */\n      add\n        /* \"#utility.yul\":4888:4948   */\n      mstore\n        /* \"#utility.yul\":4972:5013   */\n      tag_252\n        /* \"#utility.yul\":5006:5012   */\n      dup8\n        /* \"#utility.yul\":4989:5004   */\n      dup7\n        /* \"#utility.yul\":4972:5013   */\n      tag_223\n      jump\t// in\n    tag_252:\n        /* \"#utility.yul\":4957:5013   */\n      swap7\n      pop\n        /* \"#utility.yul\":5063:5065   */\n      dup1\n        /* \"#utility.yul\":5055:5061   */\n      dup11\n        /* \"#utility.yul\":5051:5066   */\n      add\n        /* \"#utility.yul\":5045:5067   */\n      mload\n        /* \"#utility.yul\":5022:5067   */\n      swap5\n      pop\n      pop\n      pop\n      pop\n        /* \"#utility.yul\":5132:5134   */\n      dup1\n        /* \"#utility.yul\":5120:5129   */\n      dup7\n        /* \"#utility.yul\":5111:5118   */\n      dup6\n        /* \"#utility.yul\":5107:5130   */\n      sub\n        /* \"#utility.yul\":5103:5135   */\n      add\n        /* \"#utility.yul\":5098:5100   */\n      dup4\n        /* \"#utility.yul\":5087:5096   */\n      dup8\n        /* \"#utility.yul\":5083:5101   */\n      add\n        /* \"#utility.yul\":5076:5136   */\n      mstore\n      pop\n        /* \"#utility.yul\":5153:5195   */\n      tag_253\n        /* \"#utility.yul\":5187:5194   */\n      dup4\n        /* \"#utility.yul\":5170:5185   */\n      dup3\n        /* \"#utility.yul\":5153:5195   */\n      tag_223\n      jump\t// in\n    tag_253:\n        /* \"#utility.yul\":5145:5195   */\n      swap7\n        /* \"#utility.yul\":2700:5201   */\n      swap6\n      pop\n      pop\n      pop\n      pop\n      pop\n      pop\n      jump\t// out\n        /* \"#utility.yul\":5206:5490   */\n    tag_22:\n      0x00\n        /* \"#utility.yul\":5405:5407   */\n      0x20\n        /* \"#utility.yul\":5394:5403   */\n      dup3\n        /* \"#utility.yul\":5387:5408   */\n      mstore\n        /* \"#utility.yul\":5425:5484   */\n      tag_239\n        /* \"#utility.yul\":5480:5482   */\n      0x20\n        /* \"#utility.yul\":5469:5478   */\n      dup4\n        /* \"#utility.yul\":5465:5483   */\n      add\n        /* \"#utility.yul\":5457:5463   */\n      dup5\n        /* \"#utility.yul\":5425:5484   */\n      tag_233\n      jump\t// in\n        /* \"#utility.yul\":6021:6149   */\n    tag_181:\n      0x00\n        /* \"#utility.yul\":6092:6093   */\n      dup3\n        /* \"#utility.yul\":6088:6094   */\n      not\n        /* \"#utility.yul\":6085:6086   */\n      dup3\n        /* \"#utility.yul\":6082:6095   */\n      gt\n        /* \"#utility.yul\":6079:6081   */\n      iszero\n      tag_262\n      jumpi\n        /* \"#utility.yul\":6098:6116   */\n      tag_262\n      tag_263\n      jump\t// in\n    tag_262:\n      pop\n        /* \"#utility.yul\":6134:6143   */\n      add\n      swap1\n        /* \"#utility.yul\":6069:6149   */\n      jump\t// out\n        /* \"#utility.yul\":6154:6371   */\n    tag_171:\n      0x00\n        /* \"#utility.yul\":6220:6221   */\n      dup3\n        /* \"#utility.yul\":6210:6212   */\n      tag_265\n      jumpi\n      shl(0xe0, 0x4e487b71)\n        /* \"#utility.yul\":6245:6276   */\n      dup2\n      mstore\n        /* \"#utility.yul\":6299:6303   */\n      0x12\n        /* \"#utility.yul\":6296:6297   */\n      0x04\n        /* \"#utility.yul\":6289:6304   */\n      mstore\n        /* \"#utility.yul\":6327:6331   */\n      0x24\n        /* \"#utility.yul\":6252:6253   */\n      dup2\n        /* \"#utility.yul\":6317:6332   */\n      revert\n        /* \"#utility.yul\":6210:6212   */\n    tag_265:\n      pop\n        /* \"#utility.yul\":6356:6365   */\n      div\n      swap1\n        /* \"#utility.yul\":6200:6371   */\n      jump\t// out\n        /* \"#utility.yul\":6376:6544   */\n    tag_178:\n      0x00\n        /* \"#utility.yul\":6482:6483   */\n      dup2\n        /* \"#utility.yul\":6478:6479   */\n      0x00\n        /* \"#utility.yul\":6474:6480   */\n      not\n        /* \"#utility.yul\":6470:6484   */\n      div\n        /* \"#utility.yul\":6467:6468   */\n      dup4\n        /* \"#utility.yul\":6464:6485   */\n      gt\n        /* \"#utility.yul\":6459:6460   */\n      dup3\n        /* \"#utility.yul\":6452:6461   */\n      iszero\n        /* \"#utility.yul\":6445:6462   */\n      iszero\n        /* \"#utility.yul\":6441:6486   */\n      and\n        /* \"#utility.yul\":6438:6440   */\n      iszero\n      tag_268\n      jumpi\n        /* \"#utility.yul\":6489:6507   */\n      tag_268\n      tag_263\n      jump\t// in\n    tag_268:\n      pop\n        /* \"#utility.yul\":6529:6538   */\n      mul\n      swap1\n        /* \"#utility.yul\":6428:6544   */\n      jump\t// out\n        /* \"#utility.yul\":6549:6684   */\n    tag_184:\n      0x00\n      not(0x00)\n        /* \"#utility.yul\":6609:6626   */\n      dup3\n      eq\n        /* \"#utility.yul\":6606:6608   */\n      iszero\n      tag_271\n      jumpi\n        /* \"#utility.yul\":6629:6647   */\n      tag_271\n      tag_263\n      jump\t// in\n    tag_271:\n      pop\n        /* \"#utility.yul\":6676:6677   */\n      0x01\n        /* \"#utility.yul\":6665:6678   */\n      add\n      swap1\n        /* \"#utility.yul\":6596:6684   */\n      jump\t// out\n        /* \"#utility.yul\":6689:6816   */\n    tag_263:\n        /* \"#utility.yul\":6750:6760   */\n      0x4e487b71\n        /* \"#utility.yul\":6745:6748   */\n      0xe0\n        /* \"#utility.yul\":6741:6761   */\n      shl\n        /* \"#utility.yul\":6738:6739   */\n      0x00\n        /* \"#utility.yul\":6731:6762   */\n      mstore\n        /* \"#utility.yul\":6781:6785   */\n      0x11\n        /* \"#utility.yul\":6778:6779   */\n      0x04\n        /* \"#utility.yul\":6771:6786   */\n      mstore\n        /* \"#utility.yul\":6805:6809   */\n      0x24\n        /* \"#utility.yul\":6802:6803   */\n      0x00\n        /* \"#utility.yul\":6795:6810   */\n      revert\n        /* \"#utility.yul\":6821:6948   */\n    tag_219:\n        /* \"#utility.yul\":6882:6892   */\n      0x4e487b71\n        /* \"#utility.yul\":6877:6880   */\n      0xe0\n        /* \"#utility.yul\":6873:6893   */\n      shl\n        /* \"#utility.yul\":6870:6871   */\n      0x00\n        /* \"#utility.yul\":6863:6894   */\n      mstore\n        /* \"#utility.yul\":6913:6917   */\n      0x41\n        /* \"#utility.yul\":6910:6911   */\n      0x04\n        /* \"#utility.yul\":6903:6918   */\n      mstore\n        /* \"#utility.yul\":6937:6941   */\n      0x24\n        /* \"#utility.yul\":6934:6935   */\n      0x00\n        /* \"#utility.yul\":6927:6942   */\n      revert\n\n    auxdata: 0xa2646970667358221220fe9425eb36f85c393676fa8584c2777fd8552d6a679529ff71624633c438d2b764736f6c63430008020033\n}\n",
				"bytecode": {
					"linkReferences": {},
					"object": "610c2e61003a600b82828239805160001a60731461002d57634e487b7160e01b600052600060045260246000fd5b30600052607381538281f3fe73000000000000000000000000000000000000000030146080604052600436106100615760003560e01c8063028927d5146100665780638e86ed9914610099578063a6f571a5146100b9578063bc1c6bd6146100d9578063f9de4e57146100ec575b600080fd5b610079610074366004610843565b61010c565b604080518251815260209283015192810192909252015b60405180910390f35b6100ac6100a7366004610843565b61019f565b60405161009091906109b6565b6100cc6100c7366004610843565b61037e565b6040516100909190610b47565b6100796100e7366004610843565b61041e565b6100ff6100fa366004610843565b6104a9565b604051610090919061099c565b6040805180820182526000808252602080830182905283518085019094528184528301849052909190805b6101408361052c565b156101975761014e8361053b565b9092509050816001141561016c5761016583610583565b8452610192565b81600214156101885761017e83610583565b6020850152610192565b6101928382610603565b610137565b505050919050565b6101a7610766565b60408051808201909152600080825260208201849052805b6101c88361052c565b15610197576101d68361053b565b909250905081600114156101f7576101f06100e78461069b565b8452610379565b8160021415610213576102098361069b565b6020850152610379565b816003141561022f5761022583610583565b6040850152610379565b816004141561024e576102446100748461069b565b6060850152610379565b816005141561026d576102636100fa8461069b565b6080850152610379565b81600614156102895761027f8361069b565b60a0850152610379565b81600714156102a55761029b8361069b565b60c0850152610379565b81600814156102c1576102b78361069b565b60e0850152610379565b81600914156102de576102d38361069b565b610100850152610379565b81600a14156102fb576102f08361069b565b610120850152610379565b81600b14156103185761030d8361069b565b610140850152610379565b81600c14156103355761032a8361069b565b610160850152610379565b81600d1415610352576103478361069b565b610180850152610379565b81600e141561036f576103648361069b565b6101a0850152610379565b6103798382610603565b6101bf565b60408051808201909152600081526060602082015260006103b2836040805180820190915260008152602081019190915290565b90506000805b6103c18361052c565b15610197576103cf8361053b565b909250905081600114156103f3576103e683610583565b63ffffffff168452610419565b816002141561040f576104058361069b565b6020850152610419565b6104198382610603565b6103b8565b6040805180820182526000808252602080830182905283518085019094528184528301849052909190805b6104528361052c565b15610197576104608361053b565b9092509050816001141561047e5761047783610583565b84526104a4565b816002141561049a5761049083610583565b60208501526104a4565b6104a48382610603565b610449565b6104b1610809565b60408051808201909152600080825260208201849052805b6104d28361052c565b15610197576104e08361053b565b909250905081600114156104fe576104f78361069b565b8452610527565b816002141561051d576105136100c78461069b565b6020850152610527565b6105278382610603565b6104c9565b6020810151518151105b919050565b600080600061054984610583565b9050610556600882610b72565b925080600716600581111561057b57634e487b7160e01b600052602160045260246000fd5b915050915091565b602080820151825181019091015160009182805b600a8110156105fd5783811a91506105b0816007610b92565b82607f16901b8517945081608016600014156105ed576105d1816001610b5a565b865187906105e0908390610b5a565b9052506105369350505050565b6105f681610bb1565b9050610597565b50600080fd5b600081600581111561062557634e487b7160e01b600052602160045260246000fd5b141561063a5761063482610583565b50610697565b600281600581111561065c57634e487b7160e01b600052602160045260246000fd5b141561006157600061066d83610583565b905080836000018181516106819190610b5a565b9052506020830151518351111561063457600080fd5b5050565b606060006106a883610583565b905060008184600001516106bc9190610b5a565b90508360200151518111156106d057600080fd5b8167ffffffffffffffff8111156106f757634e487b7160e01b600052604160045260246000fd5b6040519080825280601f01601f191660200182016040528015610721576020820181803683370190505b50602080860151865192955091818601919083010160005b8581101561075b578181015183820152610754602082610b5a565b9050610739565b505050935250919050565b60408051610200810190915260006101c082018181526101e08301919091528190815260200160608152602001600081526020016107b7604051806040016040528060008152602001600081525090565b81526020016107c4610809565b81526020016060815260200160608152602001606081526020016060815260200160608152602001606081526020016060815260200160608152602001606081525090565b60405180604001604052806060815260200161083e6040518060400160405280600063ffffffff168152602001606081525090565b905290565b600060208284031215610854578081fd5b813567ffffffffffffffff8082111561086b578283fd5b818401915084601f83011261087e578283fd5b81358181111561089057610890610be2565b604051601f8201601f19908116603f011681019083821181831017156108b8576108b8610be2565b816040528281528760208487010111156108d0578586fd5b826020860160208301379182016020019490945295945050505050565b60008151808452815b81811015610912576020818501810151868301820152016108f6565b818111156109235782602083870101525b50601f01601f19169290920160200192915050565b600081516040845261094d60408501826108ed565b905060208301518482036020860152610966828261096f565b95945050505050565b600063ffffffff825116835260208201516040602085015261099460408501826108ed565b949350505050565b6000602082526109af6020830184610938565b9392505050565b6020808252825180518383015201516040820152600060208301516102008060608501526109e86102208501836108ed565b604086015160808601526060860151805160a0870152602081015160c0870152909250506080850151601f19808685030160e0870152610a288483610938565b935060a08701519150610100818786030181880152610a4785846108ed565b945060c08801519250610120828887030181890152610a6686856108ed565b955060e089015193506101408389880301818a0152610a8587866108ed565b9650828a0151945061016092508389880301838a0152610aa587866108ed565b9650818a0151945061018091508389880301828a0152610ac587866108ed565b9650808a01519450506101a08389880301818a0152610ae487866108ed565b9650828a0151945083898803016101c08a0152610b0187866108ed565b9650818a0151945083898803016101e08a0152610b1e87866108ed565b9650808a0151945050505080868503018387015250610b3d83826108ed565b9695505050505050565b6000602082526109af602083018461096f565b60008219821115610b6d57610b6d610bcc565b500190565b600082610b8d57634e487b7160e01b81526012600452602481fd5b500490565b6000816000190483118215151615610bac57610bac610bcc565b500290565b6000600019821415610bc557610bc5610bcc565b5060010190565b634e487b7160e01b600052601160045260246000fd5b634e487b7160e01b600052604160045260246000fdfea2646970667358221220fe9425eb36f85c393676fa8584c2777fd8552d6a679529ff71624633c438d2b764736f6c63430008020033",
					"opcodes": "PUSH2 0xC2E PUSH2 0x3A PUSH1 0xB DUP3 DUP3 DUP3 CODECOPY DUP1 MLOAD PUSH1 0x0 BYTE PUSH1 0x73 EQ PUSH2 0x2D JUMPI PUSH4 0x4E487B71 PUSH1 0xE0 SHL PUSH1 0x0 MSTORE PUSH1 0x0 PUSH1 0x4 MSTORE PUSH1 0x24 PUSH1 0x0 REVERT JUMPDEST ADDRESS PUSH1 0x0 MSTORE PUSH1 0x73 DUP2 MSTORE8 DUP3 DUP2 RETURN INVALID PUSH20 0x0 ADDRESS EQ PUSH1 0x80 PUSH1 0x40 MSTORE PUSH1 0x4 CALLDATASIZE LT PUSH2 0x61 JUMPI PUSH1 0x0 CALLDATALOAD PUSH1 0xE0 SHR DUP1 PUSH4 0x28927D5 EQ PUSH2 0x66 JUMPI DUP1 PUSH4 0x8E86ED99 EQ PUSH2 0x99 JUMPI DUP1 PUSH4 0xA6F571A5 EQ PUSH2 0xB9 JUMPI DUP1 PUSH4 0xBC1C6BD6 EQ PUSH2 0xD9 JUMPI DUP1 PUSH4 0xF9DE4E57 EQ PUSH2 0xEC JUMPI JUMPDEST PUSH1 0x0 DUP1 REVERT JUMPDEST PUSH2 0x79 PUSH2 0x74 CALLDATASIZE PUSH1 0x4 PUSH2 0x843 JUMP JUMPDEST PUSH2 0x10C JUMP JUMPDEST PUSH1 0x40 DUP1 MLOAD DUP3 MLOAD DUP2 MSTORE PUSH1 0x20 SWAP3 DUP4 ADD MLOAD SWAP3 DUP2 ADD SWAP3 SWAP1 SWAP3 MSTORE ADD JUMPDEST PUSH1 0x40 MLOAD DUP1 SWAP2 SUB SWAP1 RETURN JUMPDEST PUSH2 0xAC PUSH2 0xA7 CALLDATASIZE PUSH1 0x4 PUSH2 0x843 JUMP JUMPDEST PUSH2 0x19F JUMP JUMPDEST PUSH1 0x40 MLOAD PUSH2 0x90 SWAP2 SWAP1 PUSH2 0x9B6 JUMP JUMPDEST PUSH2 0xCC PUSH2 0xC7 CALLDATASIZE PUSH1 0x4 PUSH2 0x843 JUMP JUMPDEST PUSH2 0x37E JUMP JUMPDEST PUSH1 0x40 MLOAD PUSH2 0x90 SWAP2 SWAP1 PUSH2 0xB47 JUMP JUMPDEST PUSH2 0x79 PUSH2 0xE7 CALLDATASIZE PUSH1 0x4 PUSH2 0x843 JUMP JUMPDEST PUSH2 0x41E JUMP JUMPDEST PUSH2 0xFF PUSH2 0xFA CALLDATASIZE PUSH1 0x4 PUSH2 0x843 JUMP JUMPDEST PUSH2 0x4A9 JUMP JUMPDEST PUSH1 0x40 MLOAD PUSH2 0x90 SWAP2 SWAP1 PUSH2 0x99C JUMP JUMPDEST PUSH1 0x40 DUP1 MLOAD DUP1 DUP3 ADD DUP3 MSTORE PUSH1 0x0 DUP1 DUP3 MSTORE PUSH1 0x20 DUP1 DUP4 ADD DUP3 SWAP1 MSTORE DUP4 MLOAD DUP1 DUP6 ADD SWAP1 SWAP5 MSTORE DUP2 DUP5 MSTORE DUP4 ADD DUP5 SWAP1 MSTORE SWAP1 SWAP2 SWAP1 DUP1 JUMPDEST PUSH2 0x140 DUP4 PUSH2 0x52C JUMP JUMPDEST ISZERO PUSH2 0x197 JUMPI PUSH2 0x14E DUP4 PUSH2 0x53B JUMP JUMPDEST SWAP1 SWAP3 POP SWAP1 POP DUP2 PUSH1 0x1 EQ ISZERO PUSH2 0x16C JUMPI PUSH2 0x165 DUP4 PUSH2 0x583 JUMP JUMPDEST DUP5 MSTORE PUSH2 0x192 JUMP JUMPDEST DUP2 PUSH1 0x2 EQ ISZERO PUSH2 0x188 JUMPI PUSH2 0x17E DUP4 PUSH2 0x583 JUMP JUMPDEST PUSH1 0x20 DUP6 ADD MSTORE PUSH2 0x192 JUMP JUMPDEST PUSH2 0x192 DUP4 DUP3 PUSH2 0x603 JUMP JUMPDEST PUSH2 0x137 JUMP JUMPDEST POP POP POP SWAP2 SWAP1 POP JUMP JUMPDEST PUSH2 0x1A7 PUSH2 0x766 JUMP JUMPDEST PUSH1 0x40 DUP1 MLOAD DUP1 DUP3 ADD SWAP1 SWAP2 MSTORE PUSH1 0x0 DUP1 DUP3 MSTORE PUSH1 0x20 DUP3 ADD DUP5 SWAP1 MSTORE DUP1 JUMPDEST PUSH2 0x1C8 DUP4 PUSH2 0x52C JUMP JUMPDEST ISZERO PUSH2 0x197 JUMPI PUSH2 0x1D6 DUP4 PUSH2 0x53B JUMP JUMPDEST SWAP1 SWAP3 POP SWAP1 POP DUP2 PUSH1 0x1 EQ ISZERO PUSH2 0x1F7 JUMPI PUSH2 0x1F0 PUSH2 0xE7 DUP5 PUSH2 0x69B JUMP JUMPDEST DUP5 MSTORE PUSH2 0x379 JUMP JUMPDEST DUP2 PUSH1 0x2 EQ ISZERO PUSH2 0x213 JUMPI PUSH2 0x209 DUP4 PUSH2 0x69B JUMP JUMPDEST PUSH1 0x20 DUP6 ADD MSTORE PUSH2 0x379 JUMP JUMPDEST DUP2 PUSH1 0x3 EQ ISZERO PUSH2 0x22F JUMPI PUSH2 0x225 DUP4 PUSH2 0x583 JUMP JUMPDEST PUSH1 0x40 DUP6 ADD MSTORE PUSH2 0x379 JUMP JUMPDEST DUP2 PUSH1 0x4 EQ ISZERO PUSH2 0x24E JUMPI PUSH2 0x244 PUSH2 0x74 DUP5 PUSH2 0x69B JUMP JUMPDEST PUSH1 0x60 DUP6 ADD MSTORE PUSH2 0x379 JUMP JUMPDEST DUP2 PUSH1 0x5 EQ ISZERO PUSH2 0x26D JUMPI PUSH2 0x263 PUSH2 0xFA DUP5 PUSH2 0x69B JUMP JUMPDEST PUSH1 0x80 DUP6 ADD MSTORE PUSH2 0x379 JUMP JUMPDEST DUP2 PUSH1 0x6 EQ ISZERO PUSH2 0x289 JUMPI PUSH2 0x27F DUP4 PUSH2 0x69B JUMP JUMPDEST PUSH1 0xA0 DUP6 ADD MSTORE PUSH2 0x379 JUMP JUMPDEST DUP2 PUSH1 0x7 EQ ISZERO PUSH2 0x2A5 JUMPI PUSH2 0x29B DUP4 PUSH2 0x69B JUMP JUMPDEST PUSH1 0xC0 DUP6 ADD MSTORE PUSH2 0x379 JUMP JUMPDEST DUP2 PUSH1 0x8 EQ ISZERO PUSH2 0x2C1 JUMPI PUSH2 0x2B7 DUP4 PUSH2 0x69B JUMP JUMPDEST PUSH1 0xE0 DUP6 ADD MSTORE PUSH2 0x379 JUMP JUMPDEST DUP2 PUSH1 0x9 EQ ISZERO PUSH2 0x2DE JUMPI PUSH2 0x2D3 DUP4 PUSH2 0x69B JUMP JUMPDEST PUSH2 0x100 DUP6 ADD MSTORE PUSH2 0x379 JUMP JUMPDEST DUP2 PUSH1 0xA EQ ISZERO PUSH2 0x2FB JUMPI PUSH2 0x2F0 DUP4 PUSH2 0x69B JUMP JUMPDEST PUSH2 0x120 DUP6 ADD MSTORE PUSH2 0x379 JUMP JUMPDEST DUP2 PUSH1 0xB EQ ISZERO PUSH2 0x318 JUMPI PUSH2 0x30D DUP4 PUSH2 0x69B JUMP JUMPDEST PUSH2 0x140 DUP6 ADD MSTORE PUSH2 0x379 JUMP JUMPDEST DUP2 PUSH1 0xC EQ ISZERO PUSH2 0x335 JUMPI PUSH2 0x32A DUP4 PUSH2 0x69B JUMP JUMPDEST PUSH2 0x160 DUP6 ADD MSTORE PUSH2 0x379 JUMP JUMPDEST DUP2 PUSH1 0xD EQ ISZERO PUSH2 0x352 JUMPI PUSH2 0x347 DUP4 PUSH2 0x69B JUMP JUMPDEST PUSH2 0x180 DUP6 ADD MSTORE PUSH2 0x379 JUMP JUMPDEST DUP2 PUSH1 0xE EQ ISZERO PUSH2 0x36F JUMPI PUSH2 0x364 DUP4 PUSH2 0x69B JUMP JUMPDEST PUSH2 0x1A0 DUP6 ADD MSTORE PUSH2 0x379 JUMP JUMPDEST PUSH2 0x379 DUP4 DUP3 PUSH2 0x603 JUMP JUMPDEST PUSH2 0x1BF JUMP JUMPDEST PUSH1 0x40 DUP1 MLOAD DUP1 DUP3 ADD SWAP1 SWAP2 MSTORE PUSH1 0x0 DUP2 MSTORE PUSH1 0x60 PUSH1 0x20 DUP3 ADD MSTORE PUSH1 0x0 PUSH2 0x3B2 DUP4 PUSH1 0x40 DUP1 MLOAD DUP1 DUP3 ADD SWAP1 SWAP2 MSTORE PUSH1 0x0 DUP2 MSTORE PUSH1 0x20 DUP2 ADD SWAP2 SWAP1 SWAP2 MSTORE SWAP1 JUMP JUMPDEST SWAP1 POP PUSH1 0x0 DUP1 JUMPDEST PUSH2 0x3C1 DUP4 PUSH2 0x52C JUMP JUMPDEST ISZERO PUSH2 0x197 JUMPI PUSH2 0x3CF DUP4 PUSH2 0x53B JUMP JUMPDEST SWAP1 SWAP3 POP SWAP1 POP DUP2 PUSH1 0x1 EQ ISZERO PUSH2 0x3F3 JUMPI PUSH2 0x3E6 DUP4 PUSH2 0x583 JUMP JUMPDEST PUSH4 0xFFFFFFFF AND DUP5 MSTORE PUSH2 0x419 JUMP JUMPDEST DUP2 PUSH1 0x2 EQ ISZERO PUSH2 0x40F JUMPI PUSH2 0x405 DUP4 PUSH2 0x69B JUMP JUMPDEST PUSH1 0x20 DUP6 ADD MSTORE PUSH2 0x419 JUMP JUMPDEST PUSH2 0x419 DUP4 DUP3 PUSH2 0x603 JUMP JUMPDEST PUSH2 0x3B8 JUMP JUMPDEST PUSH1 0x40 DUP1 MLOAD DUP1 DUP3 ADD DUP3 MSTORE PUSH1 0x0 DUP1 DUP3 MSTORE PUSH1 0x20 DUP1 DUP4 ADD DUP3 SWAP1 MSTORE DUP4 MLOAD DUP1 DUP6 ADD SWAP1 SWAP5 MSTORE DUP2 DUP5 MSTORE DUP4 ADD DUP5 SWAP1 MSTORE SWAP1 SWAP2 SWAP1 DUP1 JUMPDEST PUSH2 0x452 DUP4 PUSH2 0x52C JUMP JUMPDEST ISZERO PUSH2 0x197 JUMPI PUSH2 0x460 DUP4 PUSH2 0x53B JUMP JUMPDEST SWAP1 SWAP3 POP SWAP1 POP DUP2 PUSH1 0x1 EQ ISZERO PUSH2 0x47E JUMPI PUSH2 0x477 DUP4 PUSH2 0x583 JUMP JUMPDEST DUP5 MSTORE PUSH2 0x4A4 JUMP JUMPDEST DUP2 PUSH1 0x2 EQ ISZERO PUSH2 0x49A JUMPI PUSH2 0x490 DUP4 PUSH2 0x583 JUMP JUMPDEST PUSH1 0x20 DUP6 ADD MSTORE PUSH2 0x4A4 JUMP JUMPDEST PUSH2 0x4A4 DUP4 DUP3 PUSH2 0x603 JUMP JUMPDEST PUSH2 0x449 JUMP JUMPDEST PUSH2 0x4B1 PUSH2 0x809 JUMP JUMPDEST PUSH1 0x40 DUP1 MLOAD DUP1 DUP3 ADD SWAP1 SWAP2 MSTORE PUSH1 0x0 DUP1 DUP3 MSTORE PUSH1 0x20 DUP3 ADD DUP5 SWAP1 MSTORE DUP1 JUMPDEST PUSH2 0x4D2 DUP4 PUSH2 0x52C JUMP JUMPDEST ISZERO PUSH2 0x197 JUMPI PUSH2 0x4E0 DUP4 PUSH2 0x53B JUMP JUMPDEST SWAP1 SWAP3 POP SWAP1 POP DUP2 PUSH1 0x1 EQ ISZERO PUSH2 0x4FE JUMPI PUSH2 0x4F7 DUP4 PUSH2 0x69B JUMP JUMPDEST DUP5 MSTORE PUSH2 0x527 JUMP JUMPDEST DUP2 PUSH1 0x2 EQ ISZERO PUSH2 0x51D JUMPI PUSH2 0x513 PUSH2 0xC7 DUP5 PUSH2 0x69B JUMP JUMPDEST PUSH1 0x20 DUP6 ADD MSTORE PUSH2 0x527 JUMP JUMPDEST PUSH2 0x527 DUP4 DUP3 PUSH2 0x603 JUMP JUMPDEST PUSH2 0x4C9 JUMP JUMPDEST PUSH1 0x20 DUP2 ADD MLOAD MLOAD DUP2 MLOAD LT JUMPDEST SWAP2 SWAP1 POP JUMP JUMPDEST PUSH1 0x0 DUP1 PUSH1 0x0 PUSH2 0x549 DUP5 PUSH2 0x583 JUMP JUMPDEST SWAP1 POP PUSH2 0x556 PUSH1 0x8 DUP3 PUSH2 0xB72 JUMP JUMPDEST SWAP3 POP DUP1 PUSH1 0x7 AND PUSH1 0x5 DUP2 GT ISZERO PUSH2 0x57B JUMPI PUSH4 0x4E487B71 PUSH1 0xE0 SHL PUSH1 0x0 MSTORE PUSH1 0x21 PUSH1 0x4 MSTORE PUSH1 0x24 PUSH1 0x0 REVERT JUMPDEST SWAP2 POP POP SWAP2 POP SWAP2 JUMP JUMPDEST PUSH1 0x20 DUP1 DUP3 ADD MLOAD DUP3 MLOAD DUP2 ADD SWAP1 SWAP2 ADD MLOAD PUSH1 0x0 SWAP2 DUP3 DUP1 JUMPDEST PUSH1 0xA DUP2 LT ISZERO PUSH2 0x5FD JUMPI DUP4 DUP2 BYTE SWAP2 POP PUSH2 0x5B0 DUP2 PUSH1 0x7 PUSH2 0xB92 JUMP JUMPDEST DUP3 PUSH1 0x7F AND SWAP1 SHL DUP6 OR SWAP5 POP DUP2 PUSH1 0x80 AND PUSH1 0x0 EQ ISZERO PUSH2 0x5ED JUMPI PUSH2 0x5D1 DUP2 PUSH1 0x1 PUSH2 0xB5A JUMP JUMPDEST DUP7 MLOAD DUP8 SWAP1 PUSH2 0x5E0 SWAP1 DUP4 SWAP1 PUSH2 0xB5A JUMP JUMPDEST SWAP1 MSTORE POP PUSH2 0x536 SWAP4 POP POP POP POP JUMP JUMPDEST PUSH2 0x5F6 DUP2 PUSH2 0xBB1 JUMP JUMPDEST SWAP1 POP PUSH2 0x597 JUMP JUMPDEST POP PUSH1 0x0 DUP1 REVERT JUMPDEST PUSH1 0x0 DUP2 PUSH1 0x5 DUP2 GT ISZERO PUSH2 0x625 JUMPI PUSH4 0x4E487B71 PUSH1 0xE0 SHL PUSH1 0x0 MSTORE PUSH1 0x21 PUSH1 0x4 MSTORE PUSH1 0x24 PUSH1 0x0 REVERT JUMPDEST EQ ISZERO PUSH2 0x63A JUMPI PUSH2 0x634 DUP3 PUSH2 0x583 JUMP JUMPDEST POP PUSH2 0x697 JUMP JUMPDEST PUSH1 0x2 DUP2 PUSH1 0x5 DUP2 GT ISZERO PUSH2 0x65C JUMPI PUSH4 0x4E487B71 PUSH1 0xE0 SHL PUSH1 0x0 MSTORE PUSH1 0x21 PUSH1 0x4 MSTORE PUSH1 0x24 PUSH1 0x0 REVERT JUMPDEST EQ ISZERO PUSH2 0x61 JUMPI PUSH1 0x0 PUSH2 0x66D DUP4 PUSH2 0x583 JUMP JUMPDEST SWAP1 POP DUP1 DUP4 PUSH1 0x0 ADD DUP2 DUP2 MLOAD PUSH2 0x681 SWAP2 SWAP1 PUSH2 0xB5A JUMP JUMPDEST SWAP1 MSTORE POP PUSH1 0x20 DUP4 ADD MLOAD MLOAD DUP4 MLOAD GT ISZERO PUSH2 0x634 JUMPI PUSH1 0x0 DUP1 REVERT JUMPDEST POP POP JUMP JUMPDEST PUSH1 0x60 PUSH1 0x0 PUSH2 0x6A8 DUP4 PUSH2 0x583 JUMP JUMPDEST SWAP1 POP PUSH1 0x0 DUP2 DUP5 PUSH1 0x0 ADD MLOAD PUSH2 0x6BC SWAP2 SWAP1 PUSH2 0xB5A JUMP JUMPDEST SWAP1 POP DUP4 PUSH1 0x20 ADD MLOAD MLOAD DUP2 GT ISZERO PUSH2 0x6D0 JUMPI PUSH1 0x0 DUP1 REVERT JUMPDEST DUP2 PUSH8 0xFFFFFFFFFFFFFFFF DUP2 GT ISZERO PUSH2 0x6F7 JUMPI PUSH4 0x4E487B71 PUSH1 0xE0 SHL PUSH1 0x0 MSTORE PUSH1 0x41 PUSH1 0x4 MSTORE PUSH1 0x24 PUSH1 0x0 REVERT JUMPDEST PUSH1 0x40 MLOAD SWAP1 DUP1 DUP3 MSTORE DUP1 PUSH1 0x1F ADD PUSH1 0x1F NOT AND PUSH1 0x20 ADD DUP3 ADD PUSH1 0x40 MSTORE DUP1 ISZERO PUSH2 0x721 JUMPI PUSH1 0x20 DUP3 ADD DUP2 DUP1 CALLDATASIZE DUP4 CALLDATACOPY ADD SWAP1 POP JUMPDEST POP PUSH1 0x20 DUP1 DUP7 ADD MLOAD DUP7 MLOAD SWAP3 SWAP6 POP SWAP2 DUP2 DUP7 ADD SWAP2 SWAP1 DUP4 ADD ADD PUSH1 0x0 JUMPDEST DUP6 DUP2 LT ISZERO PUSH2 0x75B JUMPI DUP2 DUP2 ADD MLOAD DUP4 DUP3 ADD MSTORE PUSH2 0x754 PUSH1 0x20 DUP3 PUSH2 0xB5A JUMP JUMPDEST SWAP1 POP PUSH2 0x739 JUMP JUMPDEST POP POP POP SWAP4 MSTORE POP SWAP2 SWAP1 POP JUMP JUMPDEST PUSH1 0x40 DUP1 MLOAD PUSH2 0x200 DUP2 ADD SWAP1 SWAP2 MSTORE PUSH1 0x0 PUSH2 0x1C0 DUP3 ADD DUP2 DUP2 MSTORE PUSH2 0x1E0 DUP4 ADD SWAP2 SWAP1 SWAP2 MSTORE DUP2 SWAP1 DUP2 MSTORE PUSH1 0x20 ADD PUSH1 0x60 DUP2 MSTORE PUSH1 0x20 ADD PUSH1 0x0 DUP2 MSTORE PUSH1 0x20 ADD PUSH2 0x7B7 PUSH1 0x40 MLOAD DUP1 PUSH1 0x40 ADD PUSH1 0x40 MSTORE DUP1 PUSH1 0x0 DUP2 MSTORE PUSH1 0x20 ADD PUSH1 0x0 DUP2 MSTORE POP SWAP1 JUMP JUMPDEST DUP2 MSTORE PUSH1 0x20 ADD PUSH2 0x7C4 PUSH2 0x809 JUMP JUMPDEST DUP2 MSTORE PUSH1 0x20 ADD PUSH1 0x60 DUP2 MSTORE PUSH1 0x20 ADD PUSH1 0x60 DUP2 MSTORE PUSH1 0x20 ADD PUSH1 0x60 DUP2 MSTORE PUSH1 0x20 ADD PUSH1 0x60 DUP2 MSTORE PUSH1 0x20 ADD PUSH1 0x60 DUP2 MSTORE PUSH1 0x20 ADD PUSH1 0x60 DUP2 MSTORE PUSH1 0x20 ADD PUSH1 0x60 DUP2 MSTORE PUSH1 0x20 ADD PUSH1 0x60 DUP2 MSTORE PUSH1 0x20 ADD PUSH1 0x60 DUP2 MSTORE POP SWAP1 JUMP JUMPDEST PUSH1 0x40 MLOAD DUP1 PUSH1 0x40 ADD PUSH1 0x40 MSTORE DUP1 PUSH1 0x60 DUP2 MSTORE PUSH1 0x20 ADD PUSH2 0x83E PUSH1 0x40 MLOAD DUP1 PUSH1 0x40 ADD PUSH1 0x40 MSTORE DUP1 PUSH1 0x0 PUSH4 0xFFFFFFFF AND DUP2 MSTORE PUSH1 0x20 ADD PUSH1 0x60 DUP2 MSTORE POP SWAP1 JUMP JUMPDEST SWAP1 MSTORE SWAP1 JUMP JUMPDEST PUSH1 0x0 PUSH1 0x20 DUP3 DUP5 SUB SLT ISZERO PUSH2 0x854 JUMPI DUP1 DUP2 REVERT JUMPDEST DUP2 CALLDATALOAD PUSH8 0xFFFFFFFFFFFFFFFF DUP1 DUP3 GT ISZERO PUSH2 0x86B JUMPI DUP3 DUP4 REVERT JUMPDEST DUP2 DUP5 ADD SWAP2 POP DUP5 PUSH1 0x1F DUP4 ADD SLT PUSH2 0x87E JUMPI DUP3 DUP4 REVERT JUMPDEST DUP2 CALLDATALOAD DUP2 DUP2 GT ISZERO PUSH2 0x890 JUMPI PUSH2 0x890 PUSH2 0xBE2 JUMP JUMPDEST PUSH1 0x40 MLOAD PUSH1 0x1F DUP3 ADD PUSH1 0x1F NOT SWAP1 DUP2 AND PUSH1 0x3F ADD AND DUP2 ADD SWAP1 DUP4 DUP3 GT DUP2 DUP4 LT OR ISZERO PUSH2 0x8B8 JUMPI PUSH2 0x8B8 PUSH2 0xBE2 JUMP JUMPDEST DUP2 PUSH1 0x40 MSTORE DUP3 DUP2 MSTORE DUP8 PUSH1 0x20 DUP5 DUP8 ADD ADD GT ISZERO PUSH2 0x8D0 JUMPI DUP6 DUP7 REVERT JUMPDEST DUP3 PUSH1 0x20 DUP7 ADD PUSH1 0x20 DUP4 ADD CALLDATACOPY SWAP2 DUP3 ADD PUSH1 0x20 ADD SWAP5 SWAP1 SWAP5 MSTORE SWAP6 SWAP5 POP POP POP POP POP JUMP JUMPDEST PUSH1 0x0 DUP2 MLOAD DUP1 DUP5 MSTORE DUP2 JUMPDEST DUP2 DUP2 LT ISZERO PUSH2 0x912 JUMPI PUSH1 0x20 DUP2 DUP6 ADD DUP2 ADD MLOAD DUP7 DUP4 ADD DUP3 ADD MSTORE ADD PUSH2 0x8F6 JUMP JUMPDEST DUP2 DUP2 GT ISZERO PUSH2 0x923 JUMPI DUP3 PUSH1 0x20 DUP4 DUP8 ADD ADD MSTORE JUMPDEST POP PUSH1 0x1F ADD PUSH1 0x1F NOT AND SWAP3 SWAP1 SWAP3 ADD PUSH1 0x20 ADD SWAP3 SWAP2 POP POP JUMP JUMPDEST PUSH1 0x0 DUP2 MLOAD PUSH1 0x40 DUP5 MSTORE PUSH2 0x94D PUSH1 0x40 DUP6 ADD DUP3 PUSH2 0x8ED JUMP JUMPDEST SWAP1 POP PUSH1 0x20 DUP4 ADD MLOAD DUP5 DUP3 SUB PUSH1 0x20 DUP7 ADD MSTORE PUSH2 0x966 DUP3 DUP3 PUSH2 0x96F JUMP JUMPDEST SWAP6 SWAP5 POP POP POP POP POP JUMP JUMPDEST PUSH1 0x0 PUSH4 0xFFFFFFFF DUP3 MLOAD AND DUP4 MSTORE PUSH1 0x20 DUP3 ADD MLOAD PUSH1 0x40 PUSH1 0x20 DUP6 ADD MSTORE PUSH2 0x994 PUSH1 0x40 DUP6 ADD DUP3 PUSH2 0x8ED JUMP JUMPDEST SWAP5 SWAP4 POP POP POP POP JUMP JUMPDEST PUSH1 0x0 PUSH1 0x20 DUP3 MSTORE PUSH2 0x9AF PUSH1 0x20 DUP4 ADD DUP5 PUSH2 0x938 JUMP JUMPDEST SWAP4 SWAP3 POP POP POP JUMP JUMPDEST PUSH1 0x20 DUP1 DUP3 MSTORE DUP3 MLOAD DUP1 MLOAD DUP4 DUP4 ADD MSTORE ADD MLOAD PUSH1 0x40 DUP3 ADD MSTORE PUSH1 0x0 PUSH1 0x20 DUP4 ADD MLOAD PUSH2 0x200 DUP1 PUSH1 0x60 DUP6 ADD MSTORE PUSH2 0x9E8 PUSH2 0x220 DUP6 ADD DUP4 PUSH2 0x8ED JUMP JUMPDEST PUSH1 0x40 DUP7 ADD MLOAD PUSH1 0x80 DUP7 ADD MSTORE PUSH1 0x60 DUP7 ADD MLOAD DUP1 MLOAD PUSH1 0xA0 DUP8 ADD MSTORE PUSH1 0x20 DUP2 ADD MLOAD PUSH1 0xC0 DUP8 ADD MSTORE SWAP1 SWAP3 POP POP PUSH1 0x80 DUP6 ADD MLOAD PUSH1 0x1F NOT DUP1 DUP7 DUP6 SUB ADD PUSH1 0xE0 DUP8 ADD MSTORE PUSH2 0xA28 DUP5 DUP4 PUSH2 0x938 JUMP JUMPDEST SWAP4 POP PUSH1 0xA0 DUP8 ADD MLOAD SWAP2 POP PUSH2 0x100 DUP2 DUP8 DUP7 SUB ADD DUP2 DUP9 ADD MSTORE PUSH2 0xA47 DUP6 DUP5 PUSH2 0x8ED JUMP JUMPDEST SWAP5 POP PUSH1 0xC0 DUP9 ADD MLOAD SWAP3 POP PUSH2 0x120 DUP3 DUP9 DUP8 SUB ADD DUP2 DUP10 ADD MSTORE PUSH2 0xA66 DUP7 DUP6 PUSH2 0x8ED JUMP JUMPDEST SWAP6 POP PUSH1 0xE0 DUP10 ADD MLOAD SWAP4 POP PUSH2 0x140 DUP4 DUP10 DUP9 SUB ADD DUP2 DUP11 ADD MSTORE PUSH2 0xA85 DUP8 DUP7 PUSH2 0x8ED JUMP JUMPDEST SWAP7 POP DUP3 DUP11 ADD MLOAD SWAP5 POP PUSH2 0x160 SWAP3 POP DUP4 DUP10 DUP9 SUB ADD DUP4 DUP11 ADD MSTORE PUSH2 0xAA5 DUP8 DUP7 PUSH2 0x8ED JUMP JUMPDEST SWAP7 POP DUP2 DUP11 ADD MLOAD SWAP5 POP PUSH2 0x180 SWAP2 POP DUP4 DUP10 DUP9 SUB ADD DUP3 DUP11 ADD MSTORE PUSH2 0xAC5 DUP8 DUP7 PUSH2 0x8ED JUMP JUMPDEST SWAP7 POP DUP1 DUP11 ADD MLOAD SWAP5 POP POP PUSH2 0x1A0 DUP4 DUP10 DUP9 SUB ADD DUP2 DUP11 ADD MSTORE PUSH2 0xAE4 DUP8 DUP7 PUSH2 0x8ED JUMP JUMPDEST SWAP7 POP DUP3 DUP11 ADD MLOAD SWAP5 POP DUP4 DUP10 DUP9 SUB ADD PUSH2 0x1C0 DUP11 ADD MSTORE PUSH2 0xB01 DUP8 DUP7 PUSH2 0x8ED JUMP JUMPDEST SWAP7 POP DUP2 DUP11 ADD MLOAD SWAP5 POP DUP4 DUP10 DUP9 SUB ADD PUSH2 0x1E0 DUP11 ADD MSTORE PUSH2 0xB1E DUP8 DUP7 PUSH2 0x8ED JUMP JUMPDEST SWAP7 POP DUP1 DUP11 ADD MLOAD SWAP5 POP POP POP POP DUP1 DUP7 DUP6 SUB ADD DUP4 DUP8 ADD MSTORE POP PUSH2 0xB3D DUP4 DUP3 PUSH2 0x8ED JUMP JUMPDEST SWAP7 SWAP6 POP POP POP POP POP POP JUMP JUMPDEST PUSH1 0x0 PUSH1 0x20 DUP3 MSTORE PUSH2 0x9AF PUSH1 0x20 DUP4 ADD DUP5 PUSH2 0x96F JUMP JUMPDEST PUSH1 0x0 DUP3 NOT DUP3 GT ISZERO PUSH2 0xB6D JUMPI PUSH2 0xB6D PUSH2 0xBCC JUMP JUMPDEST POP ADD SWAP1 JUMP JUMPDEST PUSH1 0x0 DUP3 PUSH2 0xB8D JUMPI PUSH4 0x4E487B71 PUSH1 0xE0 SHL DUP2 MSTORE PUSH1 0x12 PUSH1 0x4 MSTORE PUSH1 0x24 DUP2 REVERT JUMPDEST POP DIV SWAP1 JUMP JUMPDEST PUSH1 0x0 DUP2 PUSH1 0x0 NOT DIV DUP4 GT DUP3 ISZERO ISZERO AND ISZERO PUSH2 0xBAC JUMPI PUSH2 0xBAC PUSH2 0xBCC JUMP JUMPDEST POP MUL SWAP1 JUMP JUMPDEST PUSH1 0x0 PUSH1 0x0 NOT DUP3 EQ ISZERO PUSH2 0xBC5 JUMPI PUSH2 0xBC5 PUSH2 0xBCC JUMP JUMPDEST POP PUSH1 0x1 ADD SWAP1 JUMP JUMPDEST PUSH4 0x4E487B71 PUSH1 0xE0 SHL PUSH1 0x0 MSTORE PUSH1 0x11 PUSH1 0x4 MSTORE PUSH1 0x24 PUSH1 0x0 REVERT JUMPDEST PUSH4 0x4E487B71 PUSH1 0xE0 SHL PUSH1 0x0 MSTORE PUSH1 0x41 PUSH1 0x4 MSTORE PUSH1 0x24 PUSH1 0x0 REVERT INVALID LOG2 PUSH5 0x6970667358 0x22 SLT KECCAK256 INVALID SWAP5 0x25 0xEB CALLDATASIZE 0xF8 0x5C CODECOPY CALLDATASIZE PUSH23 0xFA8584C2777FD8552D6A679529FF71624633C438D2B764 PUSH20 0x6F6C634300080200330000000000000000000000 "
				},
				"gasEstimates": {
					"creation": {
						"codeDepositCost": "623600",
						"executionCost": "688",
						"totalCost": "624288"
					},
					"external": {
						"decBlockID(bytes)": "infinite",
						"decHeader(bytes)": "infinite",
						"decPartSetHeader(bytes)": "infinite",
						"decTimestamp(bytes)": "infinite",
						"decVersion(bytes)": "infinite"
					}
				},
				"methodIdentifiers": {
					"decBlockID(bytes)": "f9de4e57",
					"decHeader(bytes)": "8e86ed99",
					"decPartSetHeader(bytes)": "a6f571a5",
					"decTimestamp(bytes)": "028927d5",
					"decVersion(bytes)": "bc1c6bd6"
				}
			},
			"storageLayout": {
				"storage": [],
				"types": null
			},
			"userdoc": {
				"kind": "user",
				"methods": {},
				"version": 1
			}
		}
	}
}