{
	"data": {
		"bytecode": {
			"linkReferences": {},
			"object": "608060405234801561001057600080fd5b50611653806100206000396000f3fe608060405234801561001057600080fd5b50600436106100365760003560e01c8063111bdd381461003b578063a16c64e61461006b575b600080fd5b61005560048036038101906100509190610e44565b61009b565b604051610062919061124f565b60405180910390f35b61008560048036038101906100809190610e44565b6100b3565b604051610092919061122d565b60405180910390f35b6100a3610c93565b6100ac8261048a565b9050919050565b60606000600e67ffffffffffffffff8111156100d2576100d16115c9565b5b60405190808252806020026020018201604052801561010557816020015b60608152602001906001900390816100f05790505b5090506000610113846106e4565b90506000805b61012283610705565b1561047e576101308361071a565b809250819350505060001561014457610479565b600182141561017a5761015683610757565b8460008151811061016a5761016961159a565b5b6020026020010181905250610478565b60028214156101b05761018c83610757565b846001815181106101a05761019f61159a565b5b6020026020010181905250610477565b6003821415610205576101c283610838565b6040516020016101d29190611212565b604051602081830303815290604052846001815181106101f5576101f461159a565b5b6020026020010181905250610476565b600482141561023b5761021783610757565b8460018151811061022b5761022a61159a565b5b6020026020010181905250610475565b60058214156102715761024d83610757565b846001815181106102615761026061159a565b5b6020026020010181905250610474565b60068214156102a75761028383610757565b846001815181106102975761029661159a565b5b6020026020010181905250610473565b60078214156102dd576102b983610757565b846001815181106102cd576102cc61159a565b5b6020026020010181905250610472565b6008821415610313576102ef83610757565b846001815181106103035761030261159a565b5b6020026020010181905250610471565b60098214156103495761032583610757565b846001815181106103395761033861159a565b5b6020026020010181905250610470565b600a82141561037f5761035b83610757565b8460018151811061036f5761036e61159a565b5b602002602001018190525061046f565b600b8214156103b55761039183610757565b846001815181106103a5576103a461159a565b5b602002602001018190525061046e565b600c8214156103eb576103c783610757565b846001815181106103db576103da61159a565b5b602002602001018190525061046d565b600d821415610421576103fd83610757565b846001815181106104115761041061159a565b5b602002602001018190525061046c565b600e8214156104575761043383610757565b846001815181106104475761044661159a565b5b602002602001018190525061046b565b61046a81846108d790919063ffffffff16565b5b5b5b5b5b5b5b5b5b5b5b5b5b5b5b610119565b83945050505050919050565b610492610c93565b600061049d836106e4565b90506000805b6104ac83610705565b156106dc576104ba8361071a565b80925081935050506000156104ce576106d7565b60018214156104f5576104e86104e384610757565b61098c565b84600001819052506106d6565b60028214156105145761050783610757565b84602001819052506106d5565b600382141561054a5761052683610838565b846040019067ffffffffffffffff16908167ffffffffffffffff16815250506106d4565b60048214156105715761056461055f84610757565b610a5f565b84606001819052506106d3565b60058214156105985761058b61058684610757565b610b32565b84608001819052506106d2565b60068214156105b7576105aa83610757565b8460a001819052506106d1565b60078214156105d6576105c983610757565b8460c001819052506106d0565b60088214156105f5576105e883610757565b8460e001819052506106cf565b60098214156106155761060783610757565b8461010001819052506106ce565b600a8214156106355761062783610757565b8461012001819052506106cd565b600b8214156106555761064783610757565b8461014001819052506106cc565b600c8214156106755761066783610757565b8461016001819052506106cb565b600d8214156106955761068783610757565b8461018001819052506106ca565b600e8214156106b5576106a783610757565b846101a001819052506106c9565b6106c881846108d790919063ffffffff16565b5b5b5b5b5b5b5b5b5b5b5b5b5b5b5b6104a3565b505050919050565b6106ec610d1e565b8181602001819052506000816000018181525050919050565b60008160200151518260000151109050919050565b600080600061072884610838565b9050600881610737919061138e565b925060078116600581111561074f5761074e61156b565b5b915050915091565b6060600061076483610838565b905060008184600001516107789190611338565b905083602001515181111561078c57600080fd5b8167ffffffffffffffff8111156107a6576107a56115c9565b5b6040519080825280601f01601f1916602001820160405280156107d85781602001600182028036833780820191505090505b50925060008460200151905060008086600001519050602086019150806020840101905060005b8581101561082357808201518184015260208161081c9190611338565b90506107ff565b50838760000181815250505050505050919050565b60008060008360200151905083600001519250826020820101519150600080935060005b600a8110156108cc5783811a915060078161087791906113bf565b607f8316901b8517945060006080831614156108bb5760018161089a9190611338565b866000018181516108ab9190611338565b91508181525050505050506108d2565b806108c5906114ba565b905061085c565b50600080fd5b919050565b600060058111156108eb576108ea61156b565b5b8160058111156108fe576108fd61156b565b5b14156109135761090d82610838565b50610988565b600260058111156109275761092661156b565b5b81600581111561093a5761093961156b565b5b141561098257600061094b83610838565b9050808360000181815161095f9190611338565b915081815250508260200151518360000151111561097c57600080fd5b50610987565b600080fd5b5b5050565b610994610d38565b600061099f836106e4565b90506000805b6109ae83610705565b15610a57576109bc8361071a565b80925081935050506000156109d057610a52565b6001821415610a06576109e283610838565b846000019067ffffffffffffffff16908167ffffffffffffffff1681525050610a51565b6002821415610a3c57610a1883610838565b846020019067ffffffffffffffff16908167ffffffffffffffff1681525050610a50565b610a4f81846108d790919063ffffffff16565b5b5b5b6109a5565b505050919050565b610a67610d66565b6000610a72836106e4565b90506000805b610a8183610705565b15610b2a57610a8f8361071a565b8092508193505050600015610aa357610b25565b6001821415610ad957610ab583610838565b846000019067ffffffffffffffff16908167ffffffffffffffff1681525050610b24565b6002821415610b0f57610aeb83610838565b846020019067ffffffffffffffff16908167ffffffffffffffff1681525050610b23565b610b2281846108d790919063ffffffff16565b5b5b5b610a78565b505050919050565b610b3a610d94565b6000610b45836106e4565b90506000805b610b5483610705565b15610bd757610b628361071a565b8092508193505050600015610b7657610bd2565b6001821415610b9557610b8883610757565b8460000181905250610bd1565b6002821415610bbc57610baf610baa84610757565b610bdf565b8460200181905250610bd0565b610bcf81846108d790919063ffffffff16565b5b5b5b610b4b565b505050919050565b610be7610db4565b6000610bf2836106e4565b90506000805b610c0183610705565b15610c8b57610c0f8361071a565b8092508193505050600015610c2357610c86565b6001821415610c5157610c3583610838565b846000019063ffffffff16908163ffffffff1681525050610c85565b6002821415610c7057610c6383610757565b8460200181905250610c84565b610c8381846108d790919063ffffffff16565b5b5b5b610bf8565b505050919050565b604051806101c00160405280610ca7610d38565b815260200160608152602001600067ffffffffffffffff168152602001610ccc610d66565b8152602001610cd9610d94565b81526020016060815260200160608152602001606081526020016060815260200160608152602001606081526020016060815260200160608152602001606081525090565b604051806040016040528060008152602001606081525090565b6040518060400160405280600067ffffffffffffffff168152602001600067ffffffffffffffff1681525090565b6040518060400160405280600067ffffffffffffffff168152602001600067ffffffffffffffff1681525090565b604051806040016040528060608152602001610dae610db4565b81525090565b6040518060400160405280600063ffffffff168152602001606081525090565b6000610de7610de284611296565b611271565b905082815260208101848484011115610e0357610e026115fd565b5b610e0e848285611447565b509392505050565b600082601f830112610e2b57610e2a6115f8565b5b8135610e3b848260208601610dd4565b91505092915050565b600060208284031215610e5a57610e59611607565b5b600082013567ffffffffffffffff811115610e7857610e77611602565b5b610e8484828501610e16565b91505092915050565b6000610e998383610f16565b905092915050565b6000610eac826112d7565b610eb68185611305565b935083602082028501610ec8856112c7565b8060005b85811015610f045784840389528151610ee58582610e8d565b9450610ef0836112f8565b925060208a01995050600181019050610ecc565b50829750879550505050505092915050565b6000610f21826112e2565b610f2b8185611316565b9350610f3b818560208601611456565b610f448161160c565b840191505092915050565b6000610f5a826112ed565b610f648185611327565b9350610f74818560208601611456565b610f7d8161160c565b840191505092915050565b60006040830160008301518482036000860152610fa58282610f16565b91505060208301518482036020860152610fbf8282611142565b9150508091505092915050565b600061020083016000830151610fe560008601826111ae565b5060208301518482036040860152610ffd8282610f4f565b91505060408301516110126060860182611203565b506060830151611025608086018261117f565b50608083015184820360c086015261103d8282610f88565b91505060a083015184820360e08601526110578282610f16565b91505060c08301518482036101008601526110728282610f16565b91505060e083015184820361012086015261108d8282610f16565b9150506101008301518482036101408601526110a98282610f16565b9150506101208301518482036101608601526110c58282610f16565b9150506101408301518482036101808601526110e18282610f16565b9150506101608301518482036101a08601526110fd8282610f16565b9150506101808301518482036101c08601526111198282610f16565b9150506101a08301518482036101e08601526111358282610f16565b9150508091505092915050565b600060408301600083015161115a60008601826111f4565b50602083015184820360208601526111728282610f16565b9150508091505092915050565b6040820160008201516111956000850182611203565b5060208201516111a86020850182611203565b50505050565b6040820160008201516111c46000850182611203565b5060208201516111d76020850182611203565b50505050565b6111ee6111e982611419565b611503565b82525050565b6111fd81611423565b82525050565b61120c81611433565b82525050565b600061121e82846111dd565b60208201915081905092915050565b600060208201905081810360008301526112478184610ea1565b905092915050565b600060208201905081810360008301526112698184610fcc565b905092915050565b600061127b61128c565b90506112878282611489565b919050565b6000604051905090565b600067ffffffffffffffff8211156112b1576112b06115c9565b5b6112ba8261160c565b9050602081019050919050565b6000819050602082019050919050565b600081519050919050565b600081519050919050565b600081519050919050565b6000602082019050919050565b600082825260208201905092915050565b600082825260208201905092915050565b600082825260208201905092915050565b600061134382611419565b915061134e83611419565b9250827fffffffffffffffffffffffffffffffffffffffffffffffffffffffffffffffff038211156113835761138261150d565b5b828201905092915050565b600061139982611419565b91506113a483611419565b9250826113b4576113b361153c565b5b828204905092915050565b60006113ca82611419565b91506113d583611419565b9250817fffffffffffffffffffffffffffffffffffffffffffffffffffffffffffffffff048311821515161561140e5761140d61150d565b5b828202905092915050565b6000819050919050565b600063ffffffff82169050919050565b600067ffffffffffffffff82169050919050565b82818337600083830152505050565b60005b83811015611474578082015181840152602081019050611459565b83811115611483576000848401525b50505050565b6114928261160c565b810181811067ffffffffffffffff821117156114b1576114b06115c9565b5b80604052505050565b60006114c582611419565b91507fffffffffffffffffffffffffffffffffffffffffffffffffffffffffffffffff8214156114f8576114f761150d565b5b600182019050919050565b6000819050919050565b7f4e487b7100000000000000000000000000000000000000000000000000000000600052601160045260246000fd5b7f4e487b7100000000000000000000000000000000000000000000000000000000600052601260045260246000fd5b7f4e487b7100000000000000000000000000000000000000000000000000000000600052602160045260246000fd5b7f4e487b7100000000000000000000000000000000000000000000000000000000600052603260045260246000fd5b7f4e487b7100000000000000000000000000000000000000000000000000000000600052604160045260246000fd5b600080fd5b600080fd5b600080fd5b600080fd5b6000601f19601f830116905091905056fea2646970667358221220b875f51f99160f5edc59ae7f0842b5a30f714458875b67f0483aa3007ea3517564736f6c63430008070033",
			"opcodes": "PUSH1 0x80 PUSH1 0x40 MSTORE CALLVALUE DUP1 ISZERO PUSH2 0x10 JUMPI PUSH1 0x0 DUP1 REVERT JUMPDEST POP PUSH2 0x1653 DUP1 PUSH2 0x20 PUSH1 0x0 CODECOPY PUSH1 0x0 RETURN INVALID PUSH1 0x80 PUSH1 0x40 MSTORE CALLVALUE DUP1 ISZERO PUSH2 0x10 JUMPI PUSH1 0x0 DUP1 REVERT JUMPDEST POP PUSH1 0x4 CALLDATASIZE LT PUSH2 0x36 JUMPI PUSH1 0x0 CALLDATALOAD PUSH1 0xE0 SHR DUP1 PUSH4 0x111BDD38 EQ PUSH2 0x3B JUMPI DUP1 PUSH4 0xA16C64E6 EQ PUSH2 0x6B JUMPI JUMPDEST PUSH1 0x0 DUP1 REVERT JUMPDEST PUSH2 0x55 PUSH1 0x4 DUP1 CALLDATASIZE SUB DUP2 ADD SWAP1 PUSH2 0x50 SWAP2 SWAP1 PUSH2 0xE44 JUMP JUMPDEST PUSH2 0x9B JUMP JUMPDEST PUSH1 0x40 MLOAD PUSH2 0x62 SWAP2 SWAP1 PUSH2 0x124F JUMP JUMPDEST PUSH1 0x40 MLOAD DUP1 SWAP2 SUB SWAP1 RETURN JUMPDEST PUSH2 0x85 PUSH1 0x4 DUP1 CALLDATASIZE SUB DUP2 ADD SWAP1 PUSH2 0x80 SWAP2 SWAP1 PUSH2 0xE44 JUMP JUMPDEST PUSH2 0xB3 JUMP JUMPDEST PUSH1 0x40 MLOAD PUSH2 0x92 SWAP2 SWAP1 PUSH2 0x122D JUMP JUMPDEST PUSH1 0x40 MLOAD DUP1 SWAP2 SUB SWAP1 RETURN JUMPDEST PUSH2 0xA3 PUSH2 0xC93 JUMP JUMPDEST PUSH2 0xAC DUP3 PUSH2 0x48A JUMP JUMPDEST SWAP1 POP SWAP2 SWAP1 POP JUMP JUMPDEST PUSH1 0x60 PUSH1 0x0 PUSH1 0xE PUSH8 0xFFFFFFFFFFFFFFFF DUP2 GT ISZERO PUSH2 0xD2 JUMPI PUSH2 0xD1 PUSH2 0x15C9 JUMP JUMPDEST JUMPDEST PUSH1 0x40 MLOAD SWAP1 DUP1 DUP3 MSTORE DUP1 PUSH1 0x20 MUL PUSH1 0x20 ADD DUP3 ADD PUSH1 0x40 MSTORE DUP1 ISZERO PUSH2 0x105 JUMPI DUP2 PUSH1 0x20 ADD JUMPDEST PUSH1 0x60 DUP2 MSTORE PUSH1 0x20 ADD SWAP1 PUSH1 0x1 SWAP1 SUB SWAP1 DUP2 PUSH2 0xF0 JUMPI SWAP1 POP JUMPDEST POP SWAP1 POP PUSH1 0x0 PUSH2 0x113 DUP5 PUSH2 0x6E4 JUMP JUMPDEST SWAP1 POP PUSH1 0x0 DUP1 JUMPDEST PUSH2 0x122 DUP4 PUSH2 0x705 JUMP JUMPDEST ISZERO PUSH2 0x47E JUMPI PUSH2 0x130 DUP4 PUSH2 0x71A JUMP JUMPDEST DUP1 SWAP3 POP DUP2 SWAP4 POP POP POP PUSH1 0x0 ISZERO PUSH2 0x144 JUMPI PUSH2 0x479 JUMP JUMPDEST PUSH1 0x1 DUP3 EQ ISZERO PUSH2 0x17A JUMPI PUSH2 0x156 DUP4 PUSH2 0x757 JUMP JUMPDEST DUP5 PUSH1 0x0 DUP2 MLOAD DUP2 LT PUSH2 0x16A JUMPI PUSH2 0x169 PUSH2 0x159A JUMP JUMPDEST JUMPDEST PUSH1 0x20 MUL PUSH1 0x20 ADD ADD DUP2 SWAP1 MSTORE POP PUSH2 0x478 JUMP JUMPDEST PUSH1 0x2 DUP3 EQ ISZERO PUSH2 0x1B0 JUMPI PUSH2 0x18C DUP4 PUSH2 0x757 JUMP JUMPDEST DUP5 PUSH1 0x1 DUP2 MLOAD DUP2 LT PUSH2 0x1A0 JUMPI PUSH2 0x19F PUSH2 0x159A JUMP JUMPDEST JUMPDEST PUSH1 0x20 MUL PUSH1 0x20 ADD ADD DUP2 SWAP1 MSTORE POP PUSH2 0x477 JUMP JUMPDEST PUSH1 0x3 DUP3 EQ ISZERO PUSH2 0x205 JUMPI PUSH2 0x1C2 DUP4 PUSH2 0x838 JUMP JUMPDEST PUSH1 0x40 MLOAD PUSH1 0x20 ADD PUSH2 0x1D2 SWAP2 SWAP1 PUSH2 0x1212 JUMP JUMPDEST PUSH1 0x40 MLOAD PUSH1 0x20 DUP2 DUP4 SUB SUB DUP2 MSTORE SWAP1 PUSH1 0x40 MSTORE DUP5 PUSH1 0x1 DUP2 MLOAD DUP2 LT PUSH2 0x1F5 JUMPI PUSH2 0x1F4 PUSH2 0x159A JUMP JUMPDEST JUMPDEST PUSH1 0x20 MUL PUSH1 0x20 ADD ADD DUP2 SWAP1 MSTORE POP PUSH2 0x476 JUMP JUMPDEST PUSH1 0x4 DUP3 EQ ISZERO PUSH2 0x23B JUMPI PUSH2 0x217 DUP4 PUSH2 0x757 JUMP JUMPDEST DUP5 PUSH1 0x1 DUP2 MLOAD DUP2 LT PUSH2 0x22B JUMPI PUSH2 0x22A PUSH2 0x159A JUMP JUMPDEST JUMPDEST PUSH1 0x20 MUL PUSH1 0x20 ADD ADD DUP2 SWAP1 MSTORE POP PUSH2 0x475 JUMP JUMPDEST PUSH1 0x5 DUP3 EQ ISZERO PUSH2 0x271 JUMPI PUSH2 0x24D DUP4 PUSH2 0x757 JUMP JUMPDEST DUP5 PUSH1 0x1 DUP2 MLOAD DUP2 LT PUSH2 0x261 JUMPI PUSH2 0x260 PUSH2 0x159A JUMP JUMPDEST JUMPDEST PUSH1 0x20 MUL PUSH1 0x20 ADD ADD DUP2 SWAP1 MSTORE POP PUSH2 0x474 JUMP JUMPDEST PUSH1 0x6 DUP3 EQ ISZERO PUSH2 0x2A7 JUMPI PUSH2 0x283 DUP4 PUSH2 0x757 JUMP JUMPDEST DUP5 PUSH1 0x1 DUP2 MLOAD DUP2 LT PUSH2 0x297 JUMPI PUSH2 0x296 PUSH2 0x159A JUMP JUMPDEST JUMPDEST PUSH1 0x20 MUL PUSH1 0x20 ADD ADD DUP2 SWAP1 MSTORE POP PUSH2 0x473 JUMP JUMPDEST PUSH1 0x7 DUP3 EQ ISZERO PUSH2 0x2DD JUMPI PUSH2 0x2B9 DUP4 PUSH2 0x757 JUMP JUMPDEST DUP5 PUSH1 0x1 DUP2 MLOAD DUP2 LT PUSH2 0x2CD JUMPI PUSH2 0x2CC PUSH2 0x159A JUMP JUMPDEST JUMPDEST PUSH1 0x20 MUL PUSH1 0x20 ADD ADD DUP2 SWAP1 MSTORE POP PUSH2 0x472 JUMP JUMPDEST PUSH1 0x8 DUP3 EQ ISZERO PUSH2 0x313 JUMPI PUSH2 0x2EF DUP4 PUSH2 0x757 JUMP JUMPDEST DUP5 PUSH1 0x1 DUP2 MLOAD DUP2 LT PUSH2 0x303 JUMPI PUSH2 0x302 PUSH2 0x159A JUMP JUMPDEST JUMPDEST PUSH1 0x20 MUL PUSH1 0x20 ADD ADD DUP2 SWAP1 MSTORE POP PUSH2 0x471 JUMP JUMPDEST PUSH1 0x9 DUP3 EQ ISZERO PUSH2 0x349 JUMPI PUSH2 0x325 DUP4 PUSH2 0x757 JUMP JUMPDEST DUP5 PUSH1 0x1 DUP2 MLOAD DUP2 LT PUSH2 0x339 JUMPI PUSH2 0x338 PUSH2 0x159A JUMP JUMPDEST JUMPDEST PUSH1 0x20 MUL PUSH1 0x20 ADD ADD DUP2 SWAP1 MSTORE POP PUSH2 0x470 JUMP JUMPDEST PUSH1 0xA DUP3 EQ ISZERO PUSH2 0x37F JUMPI PUSH2 0x35B DUP4 PUSH2 0x757 JUMP JUMPDEST DUP5 PUSH1 0x1 DUP2 MLOAD DUP2 LT PUSH2 0x36F JUMPI PUSH2 0x36E PUSH2 0x159A JUMP JUMPDEST JUMPDEST PUSH1 0x20 MUL PUSH1 0x20 ADD ADD DUP2 SWAP1 MSTORE POP PUSH2 0x46F JUMP JUMPDEST PUSH1 0xB DUP3 EQ ISZERO PUSH2 0x3B5 JUMPI PUSH2 0x391 DUP4 PUSH2 0x757 JUMP JUMPDEST DUP5 PUSH1 0x1 DUP2 MLOAD DUP2 LT PUSH2 0x3A5 JUMPI PUSH2 0x3A4 PUSH2 0x159A JUMP JUMPDEST JUMPDEST PUSH1 0x20 MUL PUSH1 0x20 ADD ADD DUP2 SWAP1 MSTORE POP PUSH2 0x46E JUMP JUMPDEST PUSH1 0xC DUP3 EQ ISZERO PUSH2 0x3EB JUMPI PUSH2 0x3C7 DUP4 PUSH2 0x757 JUMP JUMPDEST DUP5 PUSH1 0x1 DUP2 MLOAD DUP2 LT PUSH2 0x3DB JUMPI PUSH2 0x3DA PUSH2 0x159A JUMP JUMPDEST JUMPDEST PUSH1 0x20 MUL PUSH1 0x20 ADD ADD DUP2 SWAP1 MSTORE POP PUSH2 0x46D JUMP JUMPDEST PUSH1 0xD DUP3 EQ ISZERO PUSH2 0x421 JUMPI PUSH2 0x3FD DUP4 PUSH2 0x757 JUMP JUMPDEST DUP5 PUSH1 0x1 DUP2 MLOAD DUP2 LT PUSH2 0x411 JUMPI PUSH2 0x410 PUSH2 0x159A JUMP JUMPDEST JUMPDEST PUSH1 0x20 MUL PUSH1 0x20 ADD ADD DUP2 SWAP1 MSTORE POP PUSH2 0x46C JUMP JUMPDEST PUSH1 0xE DUP3 EQ ISZERO PUSH2 0x457 JUMPI PUSH2 0x433 DUP4 PUSH2 0x757 JUMP JUMPDEST DUP5 PUSH1 0x1 DUP2 MLOAD DUP2 LT PUSH2 0x447 JUMPI PUSH2 0x446 PUSH2 0x159A JUMP JUMPDEST JUMPDEST PUSH1 0x20 MUL PUSH1 0x20 ADD ADD DUP2 SWAP1 MSTORE POP PUSH2 0x46B JUMP JUMPDEST PUSH2 0x46A DUP2 DUP5 PUSH2 0x8D7 SWAP1 SWAP2 SWAP1 PUSH4 0xFFFFFFFF AND JUMP JUMPDEST JUMPDEST JUMPDEST JUMPDEST JUMPDEST JUMPDEST JUMPDEST JUMPDEST JUMPDEST JUMPDEST JUMPDEST JUMPDEST JUMPDEST JUMPDEST JUMPDEST JUMPDEST PUSH2 0x119 JUMP JUMPDEST DUP4 SWAP5 POP POP POP POP POP SWAP2 SWAP1 POP JUMP JUMPDEST PUSH2 0x492 PUSH2 0xC93 JUMP JUMPDEST PUSH1 0x0 PUSH2 0x49D DUP4 PUSH2 0x6E4 JUMP JUMPDEST SWAP1 POP PUSH1 0x0 DUP1 JUMPDEST PUSH2 0x4AC DUP4 PUSH2 0x705 JUMP JUMPDEST ISZERO PUSH2 0x6DC JUMPI PUSH2 0x4BA DUP4 PUSH2 0x71A JUMP JUMPDEST DUP1 SWAP3 POP DUP2 SWAP4 POP POP POP PUSH1 0x0 ISZERO PUSH2 0x4CE JUMPI PUSH2 0x6D7 JUMP JUMPDEST PUSH1 0x1 DUP3 EQ ISZERO PUSH2 0x4F5 JUMPI PUSH2 0x4E8 PUSH2 0x4E3 DUP5 PUSH2 0x757 JUMP JUMPDEST PUSH2 0x98C JUMP JUMPDEST DUP5 PUSH1 0x0 ADD DUP2 SWAP1 MSTORE POP PUSH2 0x6D6 JUMP JUMPDEST PUSH1 0x2 DUP3 EQ ISZERO PUSH2 0x514 JUMPI PUSH2 0x507 DUP4 PUSH2 0x757 JUMP JUMPDEST DUP5 PUSH1 0x20 ADD DUP2 SWAP1 MSTORE POP PUSH2 0x6D5 JUMP JUMPDEST PUSH1 0x3 DUP3 EQ ISZERO PUSH2 0x54A JUMPI PUSH2 0x526 DUP4 PUSH2 0x838 JUMP JUMPDEST DUP5 PUSH1 0x40 ADD SWAP1 PUSH8 0xFFFFFFFFFFFFFFFF AND SWAP1 DUP2 PUSH8 0xFFFFFFFFFFFFFFFF AND DUP2 MSTORE POP POP PUSH2 0x6D4 JUMP JUMPDEST PUSH1 0x4 DUP3 EQ ISZERO PUSH2 0x571 JUMPI PUSH2 0x564 PUSH2 0x55F DUP5 PUSH2 0x757 JUMP JUMPDEST PUSH2 0xA5F JUMP JUMPDEST DUP5 PUSH1 0x60 ADD DUP2 SWAP1 MSTORE POP PUSH2 0x6D3 JUMP JUMPDEST PUSH1 0x5 DUP3 EQ ISZERO PUSH2 0x598 JUMPI PUSH2 0x58B PUSH2 0x586 DUP5 PUSH2 0x757 JUMP JUMPDEST PUSH2 0xB32 JUMP JUMPDEST DUP5 PUSH1 0x80 ADD DUP2 SWAP1 MSTORE POP PUSH2 0x6D2 JUMP JUMPDEST PUSH1 0x6 DUP3 EQ ISZERO PUSH2 0x5B7 JUMPI PUSH2 0x5AA DUP4 PUSH2 0x757 JUMP JUMPDEST DUP5 PUSH1 0xA0 ADD DUP2 SWAP1 MSTORE POP PUSH2 0x6D1 JUMP JUMPDEST PUSH1 0x7 DUP3 EQ ISZERO PUSH2 0x5D6 JUMPI PUSH2 0x5C9 DUP4 PUSH2 0x757 JUMP JUMPDEST DUP5 PUSH1 0xC0 ADD DUP2 SWAP1 MSTORE POP PUSH2 0x6D0 JUMP JUMPDEST PUSH1 0x8 DUP3 EQ ISZERO PUSH2 0x5F5 JUMPI PUSH2 0x5E8 DUP4 PUSH2 0x757 JUMP JUMPDEST DUP5 PUSH1 0xE0 ADD DUP2 SWAP1 MSTORE POP PUSH2 0x6CF JUMP JUMPDEST PUSH1 0x9 DUP3 EQ ISZERO PUSH2 0x615 JUMPI PUSH2 0x607 DUP4 PUSH2 0x757 JUMP JUMPDEST DUP5 PUSH2 0x100 ADD DUP2 SWAP1 MSTORE POP PUSH2 0x6CE JUMP JUMPDEST PUSH1 0xA DUP3 EQ ISZERO PUSH2 0x635 JUMPI PUSH2 0x627 DUP4 PUSH2 0x757 JUMP JUMPDEST DUP5 PUSH2 0x120 ADD DUP2 SWAP1 MSTORE POP PUSH2 0x6CD JUMP JUMPDEST PUSH1 0xB DUP3 EQ ISZERO PUSH2 0x655 JUMPI PUSH2 0x647 DUP4 PUSH2 0x757 JUMP JUMPDEST DUP5 PUSH2 0x140 ADD DUP2 SWAP1 MSTORE POP PUSH2 0x6CC JUMP JUMPDEST PUSH1 0xC DUP3 EQ ISZERO PUSH2 0x675 JUMPI PUSH2 0x667 DUP4 PUSH2 0x757 JUMP JUMPDEST DUP5 PUSH2 0x160 ADD DUP2 SWAP1 MSTORE POP PUSH2 0x6CB JUMP JUMPDEST PUSH1 0xD DUP3 EQ ISZERO PUSH2 0x695 JUMPI PUSH2 0x687 DUP4 PUSH2 0x757 JUMP JUMPDEST DUP5 PUSH2 0x180 ADD DUP2 SWAP1 MSTORE POP PUSH2 0x6CA JUMP JUMPDEST PUSH1 0xE DUP3 EQ ISZERO PUSH2 0x6B5 JUMPI PUSH2 0x6A7 DUP4 PUSH2 0x757 JUMP JUMPDEST DUP5 PUSH2 0x1A0 ADD DUP2 SWAP1 MSTORE POP PUSH2 0x6C9 JUMP JUMPDEST PUSH2 0x6C8 DUP2 DUP5 PUSH2 0x8D7 SWAP1 SWAP2 SWAP1 PUSH4 0xFFFFFFFF AND JUMP JUMPDEST JUMPDEST JUMPDEST JUMPDEST JUMPDEST JUMPDEST JUMPDEST JUMPDEST JUMPDEST JUMPDEST JUMPDEST JUMPDEST JUMPDEST JUMPDEST JUMPDEST JUMPDEST PUSH2 0x4A3 JUMP JUMPDEST POP POP POP SWAP2 SWAP1 POP JUMP JUMPDEST PUSH2 0x6EC PUSH2 0xD1E JUMP JUMPDEST DUP2 DUP2 PUSH1 0x20 ADD DUP2 SWAP1 MSTORE POP PUSH1 0x0 DUP2 PUSH1 0x0 ADD DUP2 DUP2 MSTORE POP POP SWAP2 SWAP1 POP JUMP JUMPDEST PUSH1 0x0 DUP2 PUSH1 0x20 ADD MLOAD MLOAD DUP3 PUSH1 0x0 ADD MLOAD LT SWAP1 POP SWAP2 SWAP1 POP JUMP JUMPDEST PUSH1 0x0 DUP1 PUSH1 0x0 PUSH2 0x728 DUP5 PUSH2 0x838 JUMP JUMPDEST SWAP1 POP PUSH1 0x8 DUP2 PUSH2 0x737 SWAP2 SWAP1 PUSH2 0x138E JUMP JUMPDEST SWAP3 POP PUSH1 0x7 DUP2 AND PUSH1 0x5 DUP2 GT ISZERO PUSH2 0x74F JUMPI PUSH2 0x74E PUSH2 0x156B JUMP JUMPDEST JUMPDEST SWAP2 POP POP SWAP2 POP SWAP2 JUMP JUMPDEST PUSH1 0x60 PUSH1 0x0 PUSH2 0x764 DUP4 PUSH2 0x838 JUMP JUMPDEST SWAP1 POP PUSH1 0x0 DUP2 DUP5 PUSH1 0x0 ADD MLOAD PUSH2 0x778 SWAP2 SWAP1 PUSH2 0x1338 JUMP JUMPDEST SWAP1 POP DUP4 PUSH1 0x20 ADD MLOAD MLOAD DUP2 GT ISZERO PUSH2 0x78C JUMPI PUSH1 0x0 DUP1 REVERT JUMPDEST DUP2 PUSH8 0xFFFFFFFFFFFFFFFF DUP2 GT ISZERO PUSH2 0x7A6 JUMPI PUSH2 0x7A5 PUSH2 0x15C9 JUMP JUMPDEST JUMPDEST PUSH1 0x40 MLOAD SWAP1 DUP1 DUP3 MSTORE DUP1 PUSH1 0x1F ADD PUSH1 0x1F NOT AND PUSH1 0x20 ADD DUP3 ADD PUSH1 0x40 MSTORE DUP1 ISZERO PUSH2 0x7D8 JUMPI DUP2 PUSH1 0x20 ADD PUSH1 0x1 DUP3 MUL DUP1 CALLDATASIZE DUP4 CALLDATACOPY DUP1 DUP3 ADD SWAP2 POP POP SWAP1 POP JUMPDEST POP SWAP3 POP PUSH1 0x0 DUP5 PUSH1 0x20 ADD MLOAD SWAP1 POP PUSH1 0x0 DUP1 DUP7 PUSH1 0x0 ADD MLOAD SWAP1 POP PUSH1 0x20 DUP7 ADD SWAP2 POP DUP1 PUSH1 0x20 DUP5 ADD ADD SWAP1 POP PUSH1 0x0 JUMPDEST DUP6 DUP2 LT ISZERO PUSH2 0x823 JUMPI DUP1 DUP3 ADD MLOAD DUP2 DUP5 ADD MSTORE PUSH1 0x20 DUP2 PUSH2 0x81C SWAP2 SWAP1 PUSH2 0x1338 JUMP JUMPDEST SWAP1 POP PUSH2 0x7FF JUMP JUMPDEST POP DUP4 DUP8 PUSH1 0x0 ADD DUP2 DUP2 MSTORE POP POP POP POP POP POP POP SWAP2 SWAP1 POP JUMP JUMPDEST PUSH1 0x0 DUP1 PUSH1 0x0 DUP4 PUSH1 0x20 ADD MLOAD SWAP1 POP DUP4 PUSH1 0x0 ADD MLOAD SWAP3 POP DUP3 PUSH1 0x20 DUP3 ADD ADD MLOAD SWAP2 POP PUSH1 0x0 DUP1 SWAP4 POP PUSH1 0x0 JUMPDEST PUSH1 0xA DUP2 LT ISZERO PUSH2 0x8CC JUMPI DUP4 DUP2 BYTE SWAP2 POP PUSH1 0x7 DUP2 PUSH2 0x877 SWAP2 SWAP1 PUSH2 0x13BF JUMP JUMPDEST PUSH1 0x7F DUP4 AND SWAP1 SHL DUP6 OR SWAP5 POP PUSH1 0x0 PUSH1 0x80 DUP4 AND EQ ISZERO PUSH2 0x8BB JUMPI PUSH1 0x1 DUP2 PUSH2 0x89A SWAP2 SWAP1 PUSH2 0x1338 JUMP JUMPDEST DUP7 PUSH1 0x0 ADD DUP2 DUP2 MLOAD PUSH2 0x8AB SWAP2 SWAP1 PUSH2 0x1338 JUMP JUMPDEST SWAP2 POP DUP2 DUP2 MSTORE POP POP POP POP POP POP PUSH2 0x8D2 JUMP JUMPDEST DUP1 PUSH2 0x8C5 SWAP1 PUSH2 0x14BA JUMP JUMPDEST SWAP1 POP PUSH2 0x85C JUMP JUMPDEST POP PUSH1 0x0 DUP1 REVERT JUMPDEST SWAP2 SWAP1 POP JUMP JUMPDEST PUSH1 0x0 PUSH1 0x5 DUP2 GT ISZERO PUSH2 0x8EB JUMPI PUSH2 0x8EA PUSH2 0x156B JUMP JUMPDEST JUMPDEST DUP2 PUSH1 0x5 DUP2 GT ISZERO PUSH2 0x8FE JUMPI PUSH2 0x8FD PUSH2 0x156B JUMP JUMPDEST JUMPDEST EQ ISZERO PUSH2 0x913 JUMPI PUSH2 0x90D DUP3 PUSH2 0x838 JUMP JUMPDEST POP PUSH2 0x988 JUMP JUMPDEST PUSH1 0x2 PUSH1 0x5 DUP2 GT ISZERO PUSH2 0x927 JUMPI PUSH2 0x926 PUSH2 0x156B JUMP JUMPDEST JUMPDEST DUP2 PUSH1 0x5 DUP2 GT ISZERO PUSH2 0x93A JUMPI PUSH2 0x939 PUSH2 0x156B JUMP JUMPDEST JUMPDEST EQ ISZERO PUSH2 0x982 JUMPI PUSH1 0x0 PUSH2 0x94B DUP4 PUSH2 0x838 JUMP JUMPDEST SWAP1 POP DUP1 DUP4 PUSH1 0x0 ADD DUP2 DUP2 MLOAD PUSH2 0x95F SWAP2 SWAP1 PUSH2 0x1338 JUMP JUMPDEST SWAP2 POP DUP2 DUP2 MSTORE POP POP DUP3 PUSH1 0x20 ADD MLOAD MLOAD DUP4 PUSH1 0x0 ADD MLOAD GT ISZERO PUSH2 0x97C JUMPI PUSH1 0x0 DUP1 REVERT JUMPDEST POP PUSH2 0x987 JUMP JUMPDEST PUSH1 0x0 DUP1 REVERT JUMPDEST JUMPDEST POP POP JUMP JUMPDEST PUSH2 0x994 PUSH2 0xD38 JUMP JUMPDEST PUSH1 0x0 PUSH2 0x99F DUP4 PUSH2 0x6E4 JUMP JUMPDEST SWAP1 POP PUSH1 0x0 DUP1 JUMPDEST PUSH2 0x9AE DUP4 PUSH2 0x705 JUMP JUMPDEST ISZERO PUSH2 0xA57 JUMPI PUSH2 0x9BC DUP4 PUSH2 0x71A JUMP JUMPDEST DUP1 SWAP3 POP DUP2 SWAP4 POP POP POP PUSH1 0x0 ISZERO PUSH2 0x9D0 JUMPI PUSH2 0xA52 JUMP JUMPDEST PUSH1 0x1 DUP3 EQ ISZERO PUSH2 0xA06 JUMPI PUSH2 0x9E2 DUP4 PUSH2 0x838 JUMP JUMPDEST DUP5 PUSH1 0x0 ADD SWAP1 PUSH8 0xFFFFFFFFFFFFFFFF AND SWAP1 DUP2 PUSH8 0xFFFFFFFFFFFFFFFF AND DUP2 MSTORE POP POP PUSH2 0xA51 JUMP JUMPDEST PUSH1 0x2 DUP3 EQ ISZERO PUSH2 0xA3C JUMPI PUSH2 0xA18 DUP4 PUSH2 0x838 JUMP JUMPDEST DUP5 PUSH1 0x20 ADD SWAP1 PUSH8 0xFFFFFFFFFFFFFFFF AND SWAP1 DUP2 PUSH8 0xFFFFFFFFFFFFFFFF AND DUP2 MSTORE POP POP PUSH2 0xA50 JUMP JUMPDEST PUSH2 0xA4F DUP2 DUP5 PUSH2 0x8D7 SWAP1 SWAP2 SWAP1 PUSH4 0xFFFFFFFF AND JUMP JUMPDEST JUMPDEST JUMPDEST JUMPDEST PUSH2 0x9A5 JUMP JUMPDEST POP POP POP SWAP2 SWAP1 POP JUMP JUMPDEST PUSH2 0xA67 PUSH2 0xD66 JUMP JUMPDEST PUSH1 0x0 PUSH2 0xA72 DUP4 PUSH2 0x6E4 JUMP JUMPDEST SWAP1 POP PUSH1 0x0 DUP1 JUMPDEST PUSH2 0xA81 DUP4 PUSH2 0x705 JUMP JUMPDEST ISZERO PUSH2 0xB2A JUMPI PUSH2 0xA8F DUP4 PUSH2 0x71A JUMP JUMPDEST DUP1 SWAP3 POP DUP2 SWAP4 POP POP POP PUSH1 0x0 ISZERO PUSH2 0xAA3 JUMPI PUSH2 0xB25 JUMP JUMPDEST PUSH1 0x1 DUP3 EQ ISZERO PUSH2 0xAD9 JUMPI PUSH2 0xAB5 DUP4 PUSH2 0x838 JUMP JUMPDEST DUP5 PUSH1 0x0 ADD SWAP1 PUSH8 0xFFFFFFFFFFFFFFFF AND SWAP1 DUP2 PUSH8 0xFFFFFFFFFFFFFFFF AND DUP2 MSTORE POP POP PUSH2 0xB24 JUMP JUMPDEST PUSH1 0x2 DUP3 EQ ISZERO PUSH2 0xB0F JUMPI PUSH2 0xAEB DUP4 PUSH2 0x838 JUMP JUMPDEST DUP5 PUSH1 0x20 ADD SWAP1 PUSH8 0xFFFFFFFFFFFFFFFF AND SWAP1 DUP2 PUSH8 0xFFFFFFFFFFFFFFFF AND DUP2 MSTORE POP POP PUSH2 0xB23 JUMP JUMPDEST PUSH2 0xB22 DUP2 DUP5 PUSH2 0x8D7 SWAP1 SWAP2 SWAP1 PUSH4 0xFFFFFFFF AND JUMP JUMPDEST JUMPDEST JUMPDEST JUMPDEST PUSH2 0xA78 JUMP JUMPDEST POP POP POP SWAP2 SWAP1 POP JUMP JUMPDEST PUSH2 0xB3A PUSH2 0xD94 JUMP JUMPDEST PUSH1 0x0 PUSH2 0xB45 DUP4 PUSH2 0x6E4 JUMP JUMPDEST SWAP1 POP PUSH1 0x0 DUP1 JUMPDEST PUSH2 0xB54 DUP4 PUSH2 0x705 JUMP JUMPDEST ISZERO PUSH2 0xBD7 JUMPI PUSH2 0xB62 DUP4 PUSH2 0x71A JUMP JUMPDEST DUP1 SWAP3 POP DUP2 SWAP4 POP POP POP PUSH1 0x0 ISZERO PUSH2 0xB76 JUMPI PUSH2 0xBD2 JUMP JUMPDEST PUSH1 0x1 DUP3 EQ ISZERO PUSH2 0xB95 JUMPI PUSH2 0xB88 DUP4 PUSH2 0x757 JUMP JUMPDEST DUP5 PUSH1 0x0 ADD DUP2 SWAP1 MSTORE POP PUSH2 0xBD1 JUMP JUMPDEST PUSH1 0x2 DUP3 EQ ISZERO PUSH2 0xBBC JUMPI PUSH2 0xBAF PUSH2 0xBAA DUP5 PUSH2 0x757 JUMP JUMPDEST PUSH2 0xBDF JUMP JUMPDEST DUP5 PUSH1 0x20 ADD DUP2 SWAP1 MSTORE POP PUSH2 0xBD0 JUMP JUMPDEST PUSH2 0xBCF DUP2 DUP5 PUSH2 0x8D7 SWAP1 SWAP2 SWAP1 PUSH4 0xFFFFFFFF AND JUMP JUMPDEST JUMPDEST JUMPDEST JUMPDEST PUSH2 0xB4B JUMP JUMPDEST POP POP POP SWAP2 SWAP1 POP JUMP JUMPDEST PUSH2 0xBE7 PUSH2 0xDB4 JUMP JUMPDEST PUSH1 0x0 PUSH2 0xBF2 DUP4 PUSH2 0x6E4 JUMP JUMPDEST SWAP1 POP PUSH1 0x0 DUP1 JUMPDEST PUSH2 0xC01 DUP4 PUSH2 0x705 JUMP JUMPDEST ISZERO PUSH2 0xC8B JUMPI PUSH2 0xC0F DUP4 PUSH2 0x71A JUMP JUMPDEST DUP1 SWAP3 POP DUP2 SWAP4 POP POP POP PUSH1 0x0 ISZERO PUSH2 0xC23 JUMPI PUSH2 0xC86 JUMP JUMPDEST PUSH1 0x1 DUP3 EQ ISZERO PUSH2 0xC51 JUMPI PUSH2 0xC35 DUP4 PUSH2 0x838 JUMP JUMPDEST DUP5 PUSH1 0x0 ADD SWAP1 PUSH4 0xFFFFFFFF AND SWAP1 DUP2 PUSH4 0xFFFFFFFF AND DUP2 MSTORE POP POP PUSH2 0xC85 JUMP JUMPDEST PUSH1 0x2 DUP3 EQ ISZERO PUSH2 0xC70 JUMPI PUSH2 0xC63 DUP4 PUSH2 0x757 JUMP JUMPDEST DUP5 PUSH1 0x20 ADD DUP2 SWAP1 MSTORE POP PUSH2 0xC84 JUMP JUMPDEST PUSH2 0xC83 DUP2 DUP5 PUSH2 0x8D7 SWAP1 SWAP2 SWAP1 PUSH4 0xFFFFFFFF AND JUMP JUMPDEST JUMPDEST JUMPDEST JUMPDEST PUSH2 0xBF8 JUMP JUMPDEST POP POP POP SWAP2 SWAP1 POP JUMP JUMPDEST PUSH1 0x40 MLOAD DUP1 PUSH2 0x1C0 ADD PUSH1 0x40 MSTORE DUP1 PUSH2 0xCA7 PUSH2 0xD38 JUMP JUMPDEST DUP2 MSTORE PUSH1 0x20 ADD PUSH1 0x60 DUP2 MSTORE PUSH1 0x20 ADD PUSH1 0x0 PUSH8 0xFFFFFFFFFFFFFFFF AND DUP2 MSTORE PUSH1 0x20 ADD PUSH2 0xCCC PUSH2 0xD66 JUMP JUMPDEST DUP2 MSTORE PUSH1 0x20 ADD PUSH2 0xCD9 PUSH2 0xD94 JUMP JUMPDEST DUP2 MSTORE PUSH1 0x20 ADD PUSH1 0x60 DUP2 MSTORE PUSH1 0x20 ADD PUSH1 0x60 DUP2 MSTORE PUSH1 0x20 ADD PUSH1 0x60 DUP2 MSTORE PUSH1 0x20 ADD PUSH1 0x60 DUP2 MSTORE PUSH1 0x20 ADD PUSH1 0x60 DUP2 MSTORE PUSH1 0x20 ADD PUSH1 0x60 DUP2 MSTORE PUSH1 0x20 ADD PUSH1 0x60 DUP2 MSTORE PUSH1 0x20 ADD PUSH1 0x60 DUP2 MSTORE PUSH1 0x20 ADD PUSH1 0x60 DUP2 MSTORE POP SWAP1 JUMP JUMPDEST PUSH1 0x40 MLOAD DUP1 PUSH1 0x40 ADD PUSH1 0x40 MSTORE DUP1 PUSH1 0x0 DUP2 MSTORE PUSH1 0x20 ADD PUSH1 0x60 DUP2 MSTORE POP SWAP1 JUMP JUMPDEST PUSH1 0x40 MLOAD DUP1 PUSH1 0x40 ADD PUSH1 0x40 MSTORE DUP1 PUSH1 0x0 PUSH8 0xFFFFFFFFFFFFFFFF AND DUP2 MSTORE PUSH1 0x20 ADD PUSH1 0x0 PUSH8 0xFFFFFFFFFFFFFFFF AND DUP2 MSTORE POP SWAP1 JUMP JUMPDEST PUSH1 0x40 MLOAD DUP1 PUSH1 0x40 ADD PUSH1 0x40 MSTORE DUP1 PUSH1 0x0 PUSH8 0xFFFFFFFFFFFFFFFF AND DUP2 MSTORE PUSH1 0x20 ADD PUSH1 0x0 PUSH8 0xFFFFFFFFFFFFFFFF AND DUP2 MSTORE POP SWAP1 JUMP JUMPDEST PUSH1 0x40 MLOAD DUP1 PUSH1 0x40 ADD PUSH1 0x40 MSTORE DUP1 PUSH1 0x60 DUP2 MSTORE PUSH1 0x20 ADD PUSH2 0xDAE PUSH2 0xDB4 JUMP JUMPDEST DUP2 MSTORE POP SWAP1 JUMP JUMPDEST PUSH1 0x40 MLOAD DUP1 PUSH1 0x40 ADD PUSH1 0x40 MSTORE DUP1 PUSH1 0x0 PUSH4 0xFFFFFFFF AND DUP2 MSTORE PUSH1 0x20 ADD PUSH1 0x60 DUP2 MSTORE POP SWAP1 JUMP JUMPDEST PUSH1 0x0 PUSH2 0xDE7 PUSH2 0xDE2 DUP5 PUSH2 0x1296 JUMP JUMPDEST PUSH2 0x1271 JUMP JUMPDEST SWAP1 POP DUP3 DUP2 MSTORE PUSH1 0x20 DUP2 ADD DUP5 DUP5 DUP5 ADD GT ISZERO PUSH2 0xE03 JUMPI PUSH2 0xE02 PUSH2 0x15FD JUMP JUMPDEST JUMPDEST PUSH2 0xE0E DUP5 DUP3 DUP6 PUSH2 0x1447 JUMP JUMPDEST POP SWAP4 SWAP3 POP POP POP JUMP JUMPDEST PUSH1 0x0 DUP3 PUSH1 0x1F DUP4 ADD SLT PUSH2 0xE2B JUMPI PUSH2 0xE2A PUSH2 0x15F8 JUMP JUMPDEST JUMPDEST DUP2 CALLDATALOAD PUSH2 0xE3B DUP5 DUP3 PUSH1 0x20 DUP7 ADD PUSH2 0xDD4 JUMP JUMPDEST SWAP2 POP POP SWAP3 SWAP2 POP POP JUMP JUMPDEST PUSH1 0x0 PUSH1 0x20 DUP3 DUP5 SUB SLT ISZERO PUSH2 0xE5A JUMPI PUSH2 0xE59 PUSH2 0x1607 JUMP JUMPDEST JUMPDEST PUSH1 0x0 DUP3 ADD CALLDATALOAD PUSH8 0xFFFFFFFFFFFFFFFF DUP2 GT ISZERO PUSH2 0xE78 JUMPI PUSH2 0xE77 PUSH2 0x1602 JUMP JUMPDEST JUMPDEST PUSH2 0xE84 DUP5 DUP3 DUP6 ADD PUSH2 0xE16 JUMP JUMPDEST SWAP2 POP POP SWAP3 SWAP2 POP POP JUMP JUMPDEST PUSH1 0x0 PUSH2 0xE99 DUP4 DUP4 PUSH2 0xF16 JUMP JUMPDEST SWAP1 POP SWAP3 SWAP2 POP POP JUMP JUMPDEST PUSH1 0x0 PUSH2 0xEAC DUP3 PUSH2 0x12D7 JUMP JUMPDEST PUSH2 0xEB6 DUP2 DUP6 PUSH2 0x1305 JUMP JUMPDEST SWAP4 POP DUP4 PUSH1 0x20 DUP3 MUL DUP6 ADD PUSH2 0xEC8 DUP6 PUSH2 0x12C7 JUMP JUMPDEST DUP1 PUSH1 0x0 JUMPDEST DUP6 DUP2 LT ISZERO PUSH2 0xF04 JUMPI DUP5 DUP5 SUB DUP10 MSTORE DUP2 MLOAD PUSH2 0xEE5 DUP6 DUP3 PUSH2 0xE8D JUMP JUMPDEST SWAP5 POP PUSH2 0xEF0 DUP4 PUSH2 0x12F8 JUMP JUMPDEST SWAP3 POP PUSH1 0x20 DUP11 ADD SWAP10 POP POP PUSH1 0x1 DUP2 ADD SWAP1 POP PUSH2 0xECC JUMP JUMPDEST POP DUP3 SWAP8 POP DUP8 SWAP6 POP POP POP POP POP POP SWAP3 SWAP2 POP POP JUMP JUMPDEST PUSH1 0x0 PUSH2 0xF21 DUP3 PUSH2 0x12E2 JUMP JUMPDEST PUSH2 0xF2B DUP2 DUP6 PUSH2 0x1316 JUMP JUMPDEST SWAP4 POP PUSH2 0xF3B DUP2 DUP6 PUSH1 0x20 DUP7 ADD PUSH2 0x1456 JUMP JUMPDEST PUSH2 0xF44 DUP2 PUSH2 0x160C JUMP JUMPDEST DUP5 ADD SWAP2 POP POP SWAP3 SWAP2 POP POP JUMP JUMPDEST PUSH1 0x0 PUSH2 0xF5A DUP3 PUSH2 0x12ED JUMP JUMPDEST PUSH2 0xF64 DUP2 DUP6 PUSH2 0x1327 JUMP JUMPDEST SWAP4 POP PUSH2 0xF74 DUP2 DUP6 PUSH1 0x20 DUP7 ADD PUSH2 0x1456 JUMP JUMPDEST PUSH2 0xF7D DUP2 PUSH2 0x160C JUMP JUMPDEST DUP5 ADD SWAP2 POP POP SWAP3 SWAP2 POP POP JUMP JUMPDEST PUSH1 0x0 PUSH1 0x40 DUP4 ADD PUSH1 0x0 DUP4 ADD MLOAD DUP5 DUP3 SUB PUSH1 0x0 DUP7 ADD MSTORE PUSH2 0xFA5 DUP3 DUP3 PUSH2 0xF16 JUMP JUMPDEST SWAP2 POP POP PUSH1 0x20 DUP4 ADD MLOAD DUP5 DUP3 SUB PUSH1 0x20 DUP7 ADD MSTORE PUSH2 0xFBF DUP3 DUP3 PUSH2 0x1142 JUMP JUMPDEST SWAP2 POP POP DUP1 SWAP2 POP POP SWAP3 SWAP2 POP POP JUMP JUMPDEST PUSH1 0x0 PUSH2 0x200 DUP4 ADD PUSH1 0x0 DUP4 ADD MLOAD PUSH2 0xFE5 PUSH1 0x0 DUP7 ADD DUP3 PUSH2 0x11AE JUMP JUMPDEST POP PUSH1 0x20 DUP4 ADD MLOAD DUP5 DUP3 SUB PUSH1 0x40 DUP7 ADD MSTORE PUSH2 0xFFD DUP3 DUP3 PUSH2 0xF4F JUMP JUMPDEST SWAP2 POP POP PUSH1 0x40 DUP4 ADD MLOAD PUSH2 0x1012 PUSH1 0x60 DUP7 ADD DUP3 PUSH2 0x1203 JUMP JUMPDEST POP PUSH1 0x60 DUP4 ADD MLOAD PUSH2 0x1025 PUSH1 0x80 DUP7 ADD DUP3 PUSH2 0x117F JUMP JUMPDEST POP PUSH1 0x80 DUP4 ADD MLOAD DUP5 DUP3 SUB PUSH1 0xC0 DUP7 ADD MSTORE PUSH2 0x103D DUP3 DUP3 PUSH2 0xF88 JUMP JUMPDEST SWAP2 POP POP PUSH1 0xA0 DUP4 ADD MLOAD DUP5 DUP3 SUB PUSH1 0xE0 DUP7 ADD MSTORE PUSH2 0x1057 DUP3 DUP3 PUSH2 0xF16 JUMP JUMPDEST SWAP2 POP POP PUSH1 0xC0 DUP4 ADD MLOAD DUP5 DUP3 SUB PUSH2 0x100 DUP7 ADD MSTORE PUSH2 0x1072 DUP3 DUP3 PUSH2 0xF16 JUMP JUMPDEST SWAP2 POP POP PUSH1 0xE0 DUP4 ADD MLOAD DUP5 DUP3 SUB PUSH2 0x120 DUP7 ADD MSTORE PUSH2 0x108D DUP3 DUP3 PUSH2 0xF16 JUMP JUMPDEST SWAP2 POP POP PUSH2 0x100 DUP4 ADD MLOAD DUP5 DUP3 SUB PUSH2 0x140 DUP7 ADD MSTORE PUSH2 0x10A9 DUP3 DUP3 PUSH2 0xF16 JUMP JUMPDEST SWAP2 POP POP PUSH2 0x120 DUP4 ADD MLOAD DUP5 DUP3 SUB PUSH2 0x160 DUP7 ADD MSTORE PUSH2 0x10C5 DUP3 DUP3 PUSH2 0xF16 JUMP JUMPDEST SWAP2 POP POP PUSH2 0x140 DUP4 ADD MLOAD DUP5 DUP3 SUB PUSH2 0x180 DUP7 ADD MSTORE PUSH2 0x10E1 DUP3 DUP3 PUSH2 0xF16 JUMP JUMPDEST SWAP2 POP POP PUSH2 0x160 DUP4 ADD MLOAD DUP5 DUP3 SUB PUSH2 0x1A0 DUP7 ADD MSTORE PUSH2 0x10FD DUP3 DUP3 PUSH2 0xF16 JUMP JUMPDEST SWAP2 POP POP PUSH2 0x180 DUP4 ADD MLOAD DUP5 DUP3 SUB PUSH2 0x1C0 DUP7 ADD MSTORE PUSH2 0x1119 DUP3 DUP3 PUSH2 0xF16 JUMP JUMPDEST SWAP2 POP POP PUSH2 0x1A0 DUP4 ADD MLOAD DUP5 DUP3 SUB PUSH2 0x1E0 DUP7 ADD MSTORE PUSH2 0x1135 DUP3 DUP3 PUSH2 0xF16 JUMP JUMPDEST SWAP2 POP POP DUP1 SWAP2 POP POP SWAP3 SWAP2 POP POP JUMP JUMPDEST PUSH1 0x0 PUSH1 0x40 DUP4 ADD PUSH1 0x0 DUP4 ADD MLOAD PUSH2 0x115A PUSH1 0x0 DUP7 ADD DUP3 PUSH2 0x11F4 JUMP JUMPDEST POP PUSH1 0x20 DUP4 ADD MLOAD DUP5 DUP3 SUB PUSH1 0x20 DUP7 ADD MSTORE PUSH2 0x1172 DUP3 DUP3 PUSH2 0xF16 JUMP JUMPDEST SWAP2 POP POP DUP1 SWAP2 POP POP SWAP3 SWAP2 POP POP JUMP JUMPDEST PUSH1 0x40 DUP3 ADD PUSH1 0x0 DUP3 ADD MLOAD PUSH2 0x1195 PUSH1 0x0 DUP6 ADD DUP3 PUSH2 0x1203 JUMP JUMPDEST POP PUSH1 0x20 DUP3 ADD MLOAD PUSH2 0x11A8 PUSH1 0x20 DUP6 ADD DUP3 PUSH2 0x1203 JUMP JUMPDEST POP POP POP POP JUMP JUMPDEST PUSH1 0x40 DUP3 ADD PUSH1 0x0 DUP3 ADD MLOAD PUSH2 0x11C4 PUSH1 0x0 DUP6 ADD DUP3 PUSH2 0x1203 JUMP JUMPDEST POP PUSH1 0x20 DUP3 ADD MLOAD PUSH2 0x11D7 PUSH1 0x20 DUP6 ADD DUP3 PUSH2 0x1203 JUMP JUMPDEST POP POP POP POP JUMP JUMPDEST PUSH2 0x11EE PUSH2 0x11E9 DUP3 PUSH2 0x1419 JUMP JUMPDEST PUSH2 0x1503 JUMP JUMPDEST DUP3 MSTORE POP POP JUMP JUMPDEST PUSH2 0x11FD DUP2 PUSH2 0x1423 JUMP JUMPDEST DUP3 MSTORE POP POP JUMP JUMPDEST PUSH2 0x120C DUP2 PUSH2 0x1433 JUMP JUMPDEST DUP3 MSTORE POP POP JUMP JUMPDEST PUSH1 0x0 PUSH2 0x121E DUP3 DUP5 PUSH2 0x11DD JUMP JUMPDEST PUSH1 0x20 DUP3 ADD SWAP2 POP DUP2 SWAP1 POP SWAP3 SWAP2 POP POP JUMP JUMPDEST PUSH1 0x0 PUSH1 0x20 DUP3 ADD SWAP1 POP DUP2 DUP2 SUB PUSH1 0x0 DUP4 ADD MSTORE PUSH2 0x1247 DUP2 DUP5 PUSH2 0xEA1 JUMP JUMPDEST SWAP1 POP SWAP3 SWAP2 POP POP JUMP JUMPDEST PUSH1 0x0 PUSH1 0x20 DUP3 ADD SWAP1 POP DUP2 DUP2 SUB PUSH1 0x0 DUP4 ADD MSTORE PUSH2 0x1269 DUP2 DUP5 PUSH2 0xFCC JUMP JUMPDEST SWAP1 POP SWAP3 SWAP2 POP POP JUMP JUMPDEST PUSH1 0x0 PUSH2 0x127B PUSH2 0x128C JUMP JUMPDEST SWAP1 POP PUSH2 0x1287 DUP3 DUP3 PUSH2 0x1489 JUMP JUMPDEST SWAP2 SWAP1 POP JUMP JUMPDEST PUSH1 0x0 PUSH1 0x40 MLOAD SWAP1 POP SWAP1 JUMP JUMPDEST PUSH1 0x0 PUSH8 0xFFFFFFFFFFFFFFFF DUP3 GT ISZERO PUSH2 0x12B1 JUMPI PUSH2 0x12B0 PUSH2 0x15C9 JUMP JUMPDEST JUMPDEST PUSH2 0x12BA DUP3 PUSH2 0x160C JUMP JUMPDEST SWAP1 POP PUSH1 0x20 DUP2 ADD SWAP1 POP SWAP2 SWAP1 POP JUMP JUMPDEST PUSH1 0x0 DUP2 SWAP1 POP PUSH1 0x20 DUP3 ADD SWAP1 POP SWAP2 SWAP1 POP JUMP JUMPDEST PUSH1 0x0 DUP2 MLOAD SWAP1 POP SWAP2 SWAP1 POP JUMP JUMPDEST PUSH1 0x0 DUP2 MLOAD SWAP1 POP SWAP2 SWAP1 POP JUMP JUMPDEST PUSH1 0x0 DUP2 MLOAD SWAP1 POP SWAP2 SWAP1 POP JUMP JUMPDEST PUSH1 0x0 PUSH1 0x20 DUP3 ADD SWAP1 POP SWAP2 SWAP1 POP JUMP JUMPDEST PUSH1 0x0 DUP3 DUP3 MSTORE PUSH1 0x20 DUP3 ADD SWAP1 POP SWAP3 SWAP2 POP POP JUMP JUMPDEST PUSH1 0x0 DUP3 DUP3 MSTORE PUSH1 0x20 DUP3 ADD SWAP1 POP SWAP3 SWAP2 POP POP JUMP JUMPDEST PUSH1 0x0 DUP3 DUP3 MSTORE PUSH1 0x20 DUP3 ADD SWAP1 POP SWAP3 SWAP2 POP POP JUMP JUMPDEST PUSH1 0x0 PUSH2 0x1343 DUP3 PUSH2 0x1419 JUMP JUMPDEST SWAP2 POP PUSH2 0x134E DUP4 PUSH2 0x1419 JUMP JUMPDEST SWAP3 POP DUP3 PUSH32 0xFFFFFFFFFFFFFFFFFFFFFFFFFFFFFFFFFFFFFFFFFFFFFFFFFFFFFFFFFFFFFFFF SUB DUP3 GT ISZERO PUSH2 0x1383 JUMPI PUSH2 0x1382 PUSH2 0x150D JUMP JUMPDEST JUMPDEST DUP3 DUP3 ADD SWAP1 POP SWAP3 SWAP2 POP POP JUMP JUMPDEST PUSH1 0x0 PUSH2 0x1399 DUP3 PUSH2 0x1419 JUMP JUMPDEST SWAP2 POP PUSH2 0x13A4 DUP4 PUSH2 0x1419 JUMP JUMPDEST SWAP3 POP DUP3 PUSH2 0x13B4 JUMPI PUSH2 0x13B3 PUSH2 0x153C JUMP JUMPDEST JUMPDEST DUP3 DUP3 DIV SWAP1 POP SWAP3 SWAP2 POP POP JUMP JUMPDEST PUSH1 0x0 PUSH2 0x13CA DUP3 PUSH2 0x1419 JUMP JUMPDEST SWAP2 POP PUSH2 0x13D5 DUP4 PUSH2 0x1419 JUMP JUMPDEST SWAP3 POP DUP2 PUSH32 0xFFFFFFFFFFFFFFFFFFFFFFFFFFFFFFFFFFFFFFFFFFFFFFFFFFFFFFFFFFFFFFFF DIV DUP4 GT DUP3 ISZERO ISZERO AND ISZERO PUSH2 0x140E JUMPI PUSH2 0x140D PUSH2 0x150D JUMP JUMPDEST JUMPDEST DUP3 DUP3 MUL SWAP1 POP SWAP3 SWAP2 POP POP JUMP JUMPDEST PUSH1 0x0 DUP2 SWAP1 POP SWAP2 SWAP1 POP JUMP JUMPDEST PUSH1 0x0 PUSH4 0xFFFFFFFF DUP3 AND SWAP1 POP SWAP2 SWAP1 POP JUMP JUMPDEST PUSH1 0x0 PUSH8 0xFFFFFFFFFFFFFFFF DUP3 AND SWAP1 POP SWAP2 SWAP1 POP JUMP JUMPDEST DUP3 DUP2 DUP4 CALLDATACOPY PUSH1 0x0 DUP4 DUP4 ADD MSTORE POP POP POP JUMP JUMPDEST PUSH1 0x0 JUMPDEST DUP4 DUP2 LT ISZERO PUSH2 0x1474 JUMPI DUP1 DUP3 ADD MLOAD DUP2 DUP5 ADD MSTORE PUSH1 0x20 DUP2 ADD SWAP1 POP PUSH2 0x1459 JUMP JUMPDEST DUP4 DUP2 GT ISZERO PUSH2 0x1483 JUMPI PUSH1 0x0 DUP5 DUP5 ADD MSTORE JUMPDEST POP POP POP POP JUMP JUMPDEST PUSH2 0x1492 DUP3 PUSH2 0x160C JUMP JUMPDEST DUP2 ADD DUP2 DUP2 LT PUSH8 0xFFFFFFFFFFFFFFFF DUP3 GT OR ISZERO PUSH2 0x14B1 JUMPI PUSH2 0x14B0 PUSH2 0x15C9 JUMP JUMPDEST JUMPDEST DUP1 PUSH1 0x40 MSTORE POP POP POP JUMP JUMPDEST PUSH1 0x0 PUSH2 0x14C5 DUP3 PUSH2 0x1419 JUMP JUMPDEST SWAP2 POP PUSH32 0xFFFFFFFFFFFFFFFFFFFFFFFFFFFFFFFFFFFFFFFFFFFFFFFFFFFFFFFFFFFFFFFF DUP3 EQ ISZERO PUSH2 0x14F8 JUMPI PUSH2 0x14F7 PUSH2 0x150D JUMP JUMPDEST JUMPDEST PUSH1 0x1 DUP3 ADD SWAP1 POP SWAP2 SWAP1 POP JUMP JUMPDEST PUSH1 0x0 DUP2 SWAP1 POP SWAP2 SWAP1 POP JUMP JUMPDEST PUSH32 0x4E487B7100000000000000000000000000000000000000000000000000000000 PUSH1 0x0 MSTORE PUSH1 0x11 PUSH1 0x4 MSTORE PUSH1 0x24 PUSH1 0x0 REVERT JUMPDEST PUSH32 0x4E487B7100000000000000000000000000000000000000000000000000000000 PUSH1 0x0 MSTORE PUSH1 0x12 PUSH1 0x4 MSTORE PUSH1 0x24 PUSH1 0x0 REVERT JUMPDEST PUSH32 0x4E487B7100000000000000000000000000000000000000000000000000000000 PUSH1 0x0 MSTORE PUSH1 0x21 PUSH1 0x4 MSTORE PUSH1 0x24 PUSH1 0x0 REVERT JUMPDEST PUSH32 0x4E487B7100000000000000000000000000000000000000000000000000000000 PUSH1 0x0 MSTORE PUSH1 0x32 PUSH1 0x4 MSTORE PUSH1 0x24 PUSH1 0x0 REVERT JUMPDEST PUSH32 0x4E487B7100000000000000000000000000000000000000000000000000000000 PUSH1 0x0 MSTORE PUSH1 0x41 PUSH1 0x4 MSTORE PUSH1 0x24 PUSH1 0x0 REVERT JUMPDEST PUSH1 0x0 DUP1 REVERT JUMPDEST PUSH1 0x0 DUP1 REVERT JUMPDEST PUSH1 0x0 DUP1 REVERT JUMPDEST PUSH1 0x0 DUP1 REVERT JUMPDEST PUSH1 0x0 PUSH1 0x1F NOT PUSH1 0x1F DUP4 ADD AND SWAP1 POP SWAP2 SWAP1 POP JUMP INVALID LOG2 PUSH5 0x6970667358 0x22 SLT KECCAK256 0xB8 PUSH22 0xF51F99160F5EDC59AE7F0842B5A30F714458875B67F0 BASEFEE GASPRICE LOG3 STOP PUSH31 0xA3517564736F6C634300080700330000000000000000000000000000000000 "
		},
		"gasEstimates": {
			"creation": {
				"codeDepositCost": "1143000",
				"executionCost": "1187",
				"totalCost": "1144187"
			},
			"external": {
				"getBlockHash(bytes)": "infinite",
				"getHeader(bytes)": "infinite"
			}
		},
		"methodIdentifiers": {
			"getBlockHash(bytes)": "a16c64e6",
			"getHeader(bytes)": "111bdd38"
		}
	},
	"abi": [
		{
			"inputs": [
				{
					"internalType": "bytes",
					"name": "raw",
					"type": "bytes"
				}
			],
			"name": "getBlockHash",
			"outputs": [
				{
					"internalType": "bytes[]",
					"name": "",
					"type": "bytes[]"
				}
			],
			"stateMutability": "pure",
			"type": "function"
		},
		{
			"inputs": [
				{
					"internalType": "bytes",
					"name": "raw",
					"type": "bytes"
				}
			],
			"name": "getHeader",
			"outputs": [
				{
					"components": [
						{
							"components": [
								{
									"internalType": "uint64",
									"name": "block",
									"type": "uint64"
								},
								{
									"internalType": "uint64",
									"name": "app",
									"type": "uint64"
								}
							],
							"internalType": "struct PbHeader.Version",
							"name": "version",
							"type": "tuple"
						},
						{
							"internalType": "string",
							"name": "chainId",
							"type": "string"
						},
						{
							"internalType": "uint64",
							"name": "height",
							"type": "uint64"
						},
						{
							"components": [
								{
									"internalType": "uint64",
									"name": "second",
									"type": "uint64"
								},
								{
									"internalType": "uint64",
									"name": "nano",
									"type": "uint64"
								}
							],
							"internalType": "struct PbHeader.Timestamp",
							"name": "time",
							"type": "tuple"
						},
						{
							"components": [
								{
									"internalType": "bytes",
									"name": "hash",
									"type": "bytes"
								},
								{
									"components": [
										{
											"internalType": "uint32",
											"name": "total",
											"type": "uint32"
										},
										{
											"internalType": "bytes",
											"name": "hash",
											"type": "bytes"
										}
									],
									"internalType": "struct PbHeader.PartSetHeader",
									"name": "partSetHeader",
									"type": "tuple"
								}
							],
							"internalType": "struct PbHeader.BlockID",
							"name": "lastBlockId",
							"type": "tuple"
						},
						{
							"internalType": "bytes",
							"name": "lastCommitHash",
							"type": "bytes"
						},
						{
							"internalType": "bytes",
							"name": "dataHash",
							"type": "bytes"
						},
						{
							"internalType": "bytes",
							"name": "validatorsHash",
							"type": "bytes"
						},
						{
							"internalType": "bytes",
							"name": "nextValidatorsHash",
							"type": "bytes"
						},
						{
							"internalType": "bytes",
							"name": "consensusHash",
							"type": "bytes"
						},
						{
							"internalType": "bytes",
							"name": "appHash",
							"type": "bytes"
						},
						{
							"internalType": "bytes",
							"name": "lastResultsHash",
							"type": "bytes"
						},
						{
							"internalType": "bytes",
							"name": "evidenceHash",
							"type": "bytes"
						},
						{
							"internalType": "bytes",
							"name": "proposerAddress",
							"type": "bytes"
						}
					],
					"internalType": "struct PbHeader.Header",
					"name": "",
					"type": "tuple"
				}
			],
			"stateMutability": "pure",
			"type": "function"
		}
	]
}