{
	"contracts/libraries/PbHeader.sol": {
		"PbHeader": {
			"abi": [
				{
					"inputs": [
						{
							"internalType": "bytes",
							"name": "raw",
							"type": "bytes"
						}
					],
					"name": "decBlockID",
					"outputs": [
						{
							"components": [
								{
									"internalType": "bytes",
									"name": "hash",
									"type": "bytes"
								},
								{
									"components": [
										{
											"internalType": "uint32",
											"name": "total",
											"type": "uint32"
										},
										{
											"internalType": "bytes",
											"name": "hash",
											"type": "bytes"
										}
									],
									"internalType": "struct PbHeader.PartSetHeader",
									"name": "partSetHeader",
									"type": "tuple"
								}
							],
							"internalType": "struct PbHeader.BlockID",
							"name": "m",
							"type": "tuple"
						}
					],
					"stateMutability": "pure",
					"type": "function"
				},
				{
					"inputs": [
						{
							"internalType": "bytes",
							"name": "raw",
							"type": "bytes"
						}
					],
					"name": "decHeader",
					"outputs": [
						{
							"components": [
								{
									"components": [
										{
											"internalType": "uint64",
											"name": "block",
											"type": "uint64"
										},
										{
											"internalType": "uint64",
											"name": "app",
											"type": "uint64"
										}
									],
									"internalType": "struct PbHeader.Version",
									"name": "version",
									"type": "tuple"
								},
								{
									"internalType": "string",
									"name": "chainId",
									"type": "string"
								},
								{
									"internalType": "uint64",
									"name": "height",
									"type": "uint64"
								},
								{
									"internalType": "uint64",
									"name": "time",
									"type": "uint64"
								},
								{
									"components": [
										{
											"internalType": "bytes",
											"name": "hash",
											"type": "bytes"
										},
										{
											"components": [
												{
													"internalType": "uint32",
													"name": "total",
													"type": "uint32"
												},
												{
													"internalType": "bytes",
													"name": "hash",
													"type": "bytes"
												}
											],
											"internalType": "struct PbHeader.PartSetHeader",
											"name": "partSetHeader",
											"type": "tuple"
										}
									],
									"internalType": "struct PbHeader.BlockID",
									"name": "lastBlockId",
									"type": "tuple"
								},
								{
									"internalType": "bytes",
									"name": "lastCommitHash",
									"type": "bytes"
								},
								{
									"internalType": "bytes",
									"name": "dataHash",
									"type": "bytes"
								},
								{
									"internalType": "bytes",
									"name": "validatorsHash",
									"type": "bytes"
								},
								{
									"internalType": "bytes",
									"name": "nextValidatorsHash",
									"type": "bytes"
								},
								{
									"internalType": "bytes",
									"name": "consensusHash",
									"type": "bytes"
								},
								{
									"internalType": "bytes",
									"name": "appHash",
									"type": "bytes"
								},
								{
									"internalType": "bytes",
									"name": "lastResultsHash",
									"type": "bytes"
								},
								{
									"internalType": "bytes",
									"name": "evidenceHash",
									"type": "bytes"
								},
								{
									"internalType": "bytes",
									"name": "proposerAddress",
									"type": "bytes"
								}
							],
							"internalType": "struct PbHeader.Header",
							"name": "m",
							"type": "tuple"
						}
					],
					"stateMutability": "pure",
					"type": "function"
				},
				{
					"inputs": [
						{
							"internalType": "bytes",
							"name": "raw",
							"type": "bytes"
						}
					],
					"name": "decPartSetHeader",
					"outputs": [
						{
							"components": [
								{
									"internalType": "uint32",
									"name": "total",
									"type": "uint32"
								},
								{
									"internalType": "bytes",
									"name": "hash",
									"type": "bytes"
								}
							],
							"internalType": "struct PbHeader.PartSetHeader",
							"name": "m",
							"type": "tuple"
						}
					],
					"stateMutability": "pure",
					"type": "function"
				},
				{
					"inputs": [
						{
							"internalType": "bytes",
							"name": "raw",
							"type": "bytes"
						}
					],
					"name": "decVersion",
					"outputs": [
						{
							"components": [
								{
									"internalType": "uint64",
									"name": "block",
									"type": "uint64"
								},
								{
									"internalType": "uint64",
									"name": "app",
									"type": "uint64"
								}
							],
							"internalType": "struct PbHeader.Version",
							"name": "m",
							"type": "tuple"
						}
					],
					"stateMutability": "pure",
					"type": "function"
				}
			],
			"devdoc": {
				"kind": "dev",
				"methods": {},
				"version": 1
			},
			"evm": {
				"assembly": "    /* \"contracts/libraries/PbHeader.sol\":145:4943  library PbHeader {... */\n  dataSize(sub_0)\n  dataOffset(sub_0)\n  0x0b\n  dup3\n  dup3\n  dup3\n  codecopy\n  dup1\n  mload\n  0x00\n  byte\n  0x73\n  eq\n  tag_1\n  jumpi\n  mstore(0x00, shl(0xe0, 0x4e487b71))\n  mstore(0x04, 0x00)\n  revert(0x00, 0x24)\ntag_1:\n  mstore(0x00, address)\n  0x73\n  dup2\n  mstore8\n  dup3\n  dup2\n  return\nstop\n\nsub_0: assembly {\n        /* \"contracts/libraries/PbHeader.sol\":145:4943  library PbHeader {... */\n      eq(address, deployTimeAddress())\n      mstore(0x40, 0x80)\n      jumpi(tag_1, lt(calldatasize, 0x04))\n      shr(0xe0, calldataload(0x00))\n      dup1\n      0x8e86ed99\n      eq\n      tag_2\n      jumpi\n      dup1\n      0xa6f571a5\n      eq\n      tag_3\n      jumpi\n      dup1\n      0xbc1c6bd6\n      eq\n      tag_4\n      jumpi\n      dup1\n      0xf9de4e57\n      eq\n      tag_5\n      jumpi\n    tag_1:\n      0x00\n      dup1\n      revert\n        /* \"contracts/libraries/PbHeader.sol\":842:2674  function decHeader(bytes memory raw) public pure returns (Header memory m) {... */\n    tag_2:\n      tag_6\n      tag_7\n      calldatasize\n      0x04\n      tag_8\n      jump\t// in\n    tag_7:\n      tag_9\n      jump\t// in\n    tag_6:\n      mload(0x40)\n      tag_10\n      swap2\n      swap1\n      tag_11\n      jump\t// in\n    tag_10:\n      mload(0x40)\n      dup1\n      swap2\n      sub\n      swap1\n      return\n        /* \"contracts/libraries/PbHeader.sol\":4317:4911  function decPartSetHeader(bytes memory raw) public pure returns (PartSetHeader memory m) {... */\n    tag_3:\n      tag_12\n      tag_13\n      calldatasize\n      0x04\n      tag_8\n      jump\t// in\n    tag_13:\n      tag_14\n      jump\t// in\n    tag_12:\n      mload(0x40)\n      tag_10\n      swap2\n      swap1\n      tag_16\n      jump\t// in\n        /* \"contracts/libraries/PbHeader.sol\":2818:3401  function decVersion(bytes memory raw) public pure returns (Version memory m) {... */\n    tag_4:\n      tag_17\n      tag_18\n      calldatasize\n      0x04\n      tag_8\n      jump\t// in\n    tag_18:\n      tag_19\n      jump\t// in\n    tag_17:\n      mload(0x40)\n      tag_10\n      swap2\n      swap1\n      tag_21\n      jump\t// in\n        /* \"contracts/libraries/PbHeader.sol\":3561:4160  function decBlockID(bytes memory raw) public pure returns (BlockID memory m) {... */\n    tag_5:\n      tag_22\n      tag_23\n      calldatasize\n      0x04\n      tag_8\n      jump\t// in\n    tag_23:\n      tag_24\n      jump\t// in\n    tag_22:\n      mload(0x40)\n      tag_10\n      swap2\n      swap1\n      tag_26\n      jump\t// in\n        /* \"contracts/libraries/PbHeader.sol\":842:2674  function decHeader(bytes memory raw) public pure returns (Header memory m) {... */\n    tag_9:\n        /* \"contracts/libraries/PbHeader.sol\":900:915  Header memory m */\n      tag_27\n      tag_28\n      jump\t// in\n    tag_27:\n      0x40\n      dup1\n      mload\n      dup1\n      dup3\n      add\n      swap1\n      swap2\n      mstore\n      0x00\n      dup1\n      dup3\n      mstore\n      0x20\n      dup3\n      add\n        /* \"contracts/libraries/Pb.sol\":474:485  buf.b = raw */\n      dup5\n      swap1\n      mstore\n      dup1\n        /* \"contracts/libraries/PbHeader.sol\":1022:2668  while (buf.hasMore()) {... */\n    tag_32:\n        /* \"contracts/libraries/PbHeader.sol\":1029:1042  buf.hasMore() */\n      tag_34\n        /* \"contracts/libraries/PbHeader.sol\":1029:1032  buf */\n      dup4\n        /* \"contracts/libraries/PbHeader.sol\":1029:1040  buf.hasMore */\n      tag_35\n        /* \"contracts/libraries/PbHeader.sol\":1029:1042  buf.hasMore() */\n      jump\t// in\n    tag_34:\n        /* \"contracts/libraries/PbHeader.sol\":1022:2668  while (buf.hasMore()) {... */\n      iszero\n      tag_33\n      jumpi\n        /* \"contracts/libraries/PbHeader.sol\":1072:1084  buf.decKey() */\n      tag_36\n        /* \"contracts/libraries/PbHeader.sol\":1072:1075  buf */\n      dup4\n        /* \"contracts/libraries/PbHeader.sol\":1072:1082  buf.decKey */\n      tag_37\n        /* \"contracts/libraries/PbHeader.sol\":1072:1084  buf.decKey() */\n      jump\t// in\n    tag_36:\n        /* \"contracts/libraries/PbHeader.sol\":1058:1084  (tag, wire) = buf.decKey() */\n      swap1\n      swap3\n      pop\n      swap1\n      pop\n        /* \"contracts/libraries/PbHeader.sol\":1164:1167  tag */\n      dup2\n        /* \"contracts/libraries/PbHeader.sol\":1171:1172  1 */\n      0x01\n        /* \"contracts/libraries/PbHeader.sol\":1164:1172  tag == 1 */\n      eq\n        /* \"contracts/libraries/PbHeader.sol\":1160:2629  if (tag == 1) {... */\n      iszero\n      tag_40\n      jumpi\n        /* \"contracts/libraries/PbHeader.sol\":1204:1230  decVersion(buf.decBytes()) */\n      tag_41\n        /* \"contracts/libraries/PbHeader.sol\":1215:1229  buf.decBytes() */\n      tag_18\n        /* \"contracts/libraries/PbHeader.sol\":1215:1218  buf */\n      dup5\n        /* \"contracts/libraries/PbHeader.sol\":1215:1227  buf.decBytes */\n      tag_43\n        /* \"contracts/libraries/PbHeader.sol\":1215:1229  buf.decBytes() */\n      jump\t// in\n        /* \"contracts/libraries/PbHeader.sol\":1204:1230  decVersion(buf.decBytes()) */\n    tag_41:\n        /* \"contracts/libraries/PbHeader.sol\":1192:1230  m.version = decVersion(buf.decBytes()) */\n      dup5\n      mstore\n        /* \"contracts/libraries/PbHeader.sol\":1160:2629  if (tag == 1) {... */\n      jump(tag_86)\n    tag_40:\n        /* \"contracts/libraries/PbHeader.sol\":1267:1270  tag */\n      dup2\n        /* \"contracts/libraries/PbHeader.sol\":1274:1275  2 */\n      0x02\n        /* \"contracts/libraries/PbHeader.sol\":1267:1275  tag == 2 */\n      eq\n        /* \"contracts/libraries/PbHeader.sol\":1263:2629  if (tag == 2) {... */\n      iszero\n      tag_45\n      jumpi\n        /* \"contracts/libraries/PbHeader.sol\":1314:1328  buf.decBytes() */\n      tag_46\n        /* \"contracts/libraries/PbHeader.sol\":1314:1317  buf */\n      dup4\n        /* \"contracts/libraries/PbHeader.sol\":1314:1326  buf.decBytes */\n      tag_43\n        /* \"contracts/libraries/PbHeader.sol\":1314:1328  buf.decBytes() */\n      jump\t// in\n    tag_46:\n        /* \"contracts/libraries/PbHeader.sol\":1295:1304  m.chainId */\n      0x20\n      dup6\n      add\n        /* \"contracts/libraries/PbHeader.sol\":1295:1329  m.chainId = string(buf.decBytes()) */\n      mstore\n        /* \"contracts/libraries/PbHeader.sol\":1263:2629  if (tag == 2) {... */\n      jump(tag_86)\n    tag_45:\n        /* \"contracts/libraries/PbHeader.sol\":1366:1369  tag */\n      dup2\n        /* \"contracts/libraries/PbHeader.sol\":1373:1374  3 */\n      0x03\n        /* \"contracts/libraries/PbHeader.sol\":1366:1374  tag == 3 */\n      eq\n        /* \"contracts/libraries/PbHeader.sol\":1362:2629  if (tag == 3) {... */\n      iszero\n      tag_48\n      jumpi\n        /* \"contracts/libraries/PbHeader.sol\":1412:1427  buf.decVarint() */\n      tag_49\n        /* \"contracts/libraries/PbHeader.sol\":1412:1415  buf */\n      dup4\n        /* \"contracts/libraries/PbHeader.sol\":1412:1425  buf.decVarint */\n      tag_50\n        /* \"contracts/libraries/PbHeader.sol\":1412:1427  buf.decVarint() */\n      jump\t// in\n    tag_49:\n        /* \"contracts/libraries/PbHeader.sol\":1394:1428  m.height = uint64(buf.decVarint()) */\n      0xffffffffffffffff\n      and\n        /* \"contracts/libraries/PbHeader.sol\":1394:1402  m.height */\n      0x40\n      dup6\n      add\n        /* \"contracts/libraries/PbHeader.sol\":1394:1428  m.height = uint64(buf.decVarint()) */\n      mstore\n        /* \"contracts/libraries/PbHeader.sol\":1362:2629  if (tag == 3) {... */\n      jump(tag_86)\n    tag_48:\n        /* \"contracts/libraries/PbHeader.sol\":1465:1468  tag */\n      dup2\n        /* \"contracts/libraries/PbHeader.sol\":1472:1473  4 */\n      0x04\n        /* \"contracts/libraries/PbHeader.sol\":1465:1473  tag == 4 */\n      eq\n        /* \"contracts/libraries/PbHeader.sol\":1461:2629  if (tag == 4) {... */\n      iszero\n      tag_52\n      jumpi\n        /* \"contracts/libraries/PbHeader.sol\":1509:1524  buf.decVarint() */\n      tag_53\n        /* \"contracts/libraries/PbHeader.sol\":1509:1512  buf */\n      dup4\n        /* \"contracts/libraries/PbHeader.sol\":1509:1522  buf.decVarint */\n      tag_50\n        /* \"contracts/libraries/PbHeader.sol\":1509:1524  buf.decVarint() */\n      jump\t// in\n    tag_53:\n        /* \"contracts/libraries/PbHeader.sol\":1493:1525  m.time = uint64(buf.decVarint()) */\n      0xffffffffffffffff\n      and\n        /* \"contracts/libraries/PbHeader.sol\":1493:1499  m.time */\n      0x60\n      dup6\n      add\n        /* \"contracts/libraries/PbHeader.sol\":1493:1525  m.time = uint64(buf.decVarint()) */\n      mstore\n        /* \"contracts/libraries/PbHeader.sol\":1461:2629  if (tag == 4) {... */\n      jump(tag_86)\n    tag_52:\n        /* \"contracts/libraries/PbHeader.sol\":1562:1565  tag */\n      dup2\n        /* \"contracts/libraries/PbHeader.sol\":1569:1570  5 */\n      0x05\n        /* \"contracts/libraries/PbHeader.sol\":1562:1570  tag == 5 */\n      eq\n        /* \"contracts/libraries/PbHeader.sol\":1558:2629  if (tag == 5) {... */\n      iszero\n      tag_55\n      jumpi\n        /* \"contracts/libraries/PbHeader.sol\":1606:1632  decBlockID(buf.decBytes()) */\n      tag_56\n        /* \"contracts/libraries/PbHeader.sol\":1617:1631  buf.decBytes() */\n      tag_23\n        /* \"contracts/libraries/PbHeader.sol\":1617:1620  buf */\n      dup5\n        /* \"contracts/libraries/PbHeader.sol\":1617:1629  buf.decBytes */\n      tag_43\n        /* \"contracts/libraries/PbHeader.sol\":1617:1631  buf.decBytes() */\n      jump\t// in\n        /* \"contracts/libraries/PbHeader.sol\":1606:1632  decBlockID(buf.decBytes()) */\n    tag_56:\n        /* \"contracts/libraries/PbHeader.sol\":1590:1603  m.lastBlockId */\n      0x80\n      dup6\n      add\n        /* \"contracts/libraries/PbHeader.sol\":1590:1632  m.lastBlockId = decBlockID(buf.decBytes()) */\n      mstore\n        /* \"contracts/libraries/PbHeader.sol\":1558:2629  if (tag == 5) {... */\n      jump(tag_86)\n    tag_55:\n        /* \"contracts/libraries/PbHeader.sol\":1669:1672  tag */\n      dup2\n        /* \"contracts/libraries/PbHeader.sol\":1676:1677  6 */\n      0x06\n        /* \"contracts/libraries/PbHeader.sol\":1669:1677  tag == 6 */\n      eq\n        /* \"contracts/libraries/PbHeader.sol\":1665:2629  if (tag == 6) {... */\n      iszero\n      tag_59\n      jumpi\n        /* \"contracts/libraries/PbHeader.sol\":1722:1736  buf.decBytes() */\n      tag_60\n        /* \"contracts/libraries/PbHeader.sol\":1722:1725  buf */\n      dup4\n        /* \"contracts/libraries/PbHeader.sol\":1722:1734  buf.decBytes */\n      tag_43\n        /* \"contracts/libraries/PbHeader.sol\":1722:1736  buf.decBytes() */\n      jump\t// in\n    tag_60:\n        /* \"contracts/libraries/PbHeader.sol\":1697:1713  m.lastCommitHash */\n      0xa0\n      dup6\n      add\n        /* \"contracts/libraries/PbHeader.sol\":1697:1737  m.lastCommitHash = bytes(buf.decBytes()) */\n      mstore\n        /* \"contracts/libraries/PbHeader.sol\":1665:2629  if (tag == 6) {... */\n      jump(tag_86)\n    tag_59:\n        /* \"contracts/libraries/PbHeader.sol\":1774:1777  tag */\n      dup2\n        /* \"contracts/libraries/PbHeader.sol\":1781:1782  7 */\n      0x07\n        /* \"contracts/libraries/PbHeader.sol\":1774:1782  tag == 7 */\n      eq\n        /* \"contracts/libraries/PbHeader.sol\":1770:2629  if (tag == 7) {... */\n      iszero\n      tag_62\n      jumpi\n        /* \"contracts/libraries/PbHeader.sol\":1821:1835  buf.decBytes() */\n      tag_63\n        /* \"contracts/libraries/PbHeader.sol\":1821:1824  buf */\n      dup4\n        /* \"contracts/libraries/PbHeader.sol\":1821:1833  buf.decBytes */\n      tag_43\n        /* \"contracts/libraries/PbHeader.sol\":1821:1835  buf.decBytes() */\n      jump\t// in\n    tag_63:\n        /* \"contracts/libraries/PbHeader.sol\":1802:1812  m.dataHash */\n      0xc0\n      dup6\n      add\n        /* \"contracts/libraries/PbHeader.sol\":1802:1836  m.dataHash = bytes(buf.decBytes()) */\n      mstore\n        /* \"contracts/libraries/PbHeader.sol\":1770:2629  if (tag == 7) {... */\n      jump(tag_86)\n    tag_62:\n        /* \"contracts/libraries/PbHeader.sol\":1873:1876  tag */\n      dup2\n        /* \"contracts/libraries/PbHeader.sol\":1880:1881  8 */\n      0x08\n        /* \"contracts/libraries/PbHeader.sol\":1873:1881  tag == 8 */\n      eq\n        /* \"contracts/libraries/PbHeader.sol\":1869:2629  if (tag == 8) {... */\n      iszero\n      tag_65\n      jumpi\n        /* \"contracts/libraries/PbHeader.sol\":1926:1940  buf.decBytes() */\n      tag_66\n        /* \"contracts/libraries/PbHeader.sol\":1926:1929  buf */\n      dup4\n        /* \"contracts/libraries/PbHeader.sol\":1926:1938  buf.decBytes */\n      tag_43\n        /* \"contracts/libraries/PbHeader.sol\":1926:1940  buf.decBytes() */\n      jump\t// in\n    tag_66:\n        /* \"contracts/libraries/PbHeader.sol\":1901:1917  m.validatorsHash */\n      0xe0\n      dup6\n      add\n        /* \"contracts/libraries/PbHeader.sol\":1901:1941  m.validatorsHash = bytes(buf.decBytes()) */\n      mstore\n        /* \"contracts/libraries/PbHeader.sol\":1869:2629  if (tag == 8) {... */\n      jump(tag_86)\n    tag_65:\n        /* \"contracts/libraries/PbHeader.sol\":1978:1981  tag */\n      dup2\n        /* \"contracts/libraries/PbHeader.sol\":1985:1986  9 */\n      0x09\n        /* \"contracts/libraries/PbHeader.sol\":1978:1986  tag == 9 */\n      eq\n        /* \"contracts/libraries/PbHeader.sol\":1974:2629  if (tag == 9) {... */\n      iszero\n      tag_68\n      jumpi\n        /* \"contracts/libraries/PbHeader.sol\":2035:2049  buf.decBytes() */\n      tag_69\n        /* \"contracts/libraries/PbHeader.sol\":2035:2038  buf */\n      dup4\n        /* \"contracts/libraries/PbHeader.sol\":2035:2047  buf.decBytes */\n      tag_43\n        /* \"contracts/libraries/PbHeader.sol\":2035:2049  buf.decBytes() */\n      jump\t// in\n    tag_69:\n        /* \"contracts/libraries/PbHeader.sol\":2006:2026  m.nextValidatorsHash */\n      0x0100\n      dup6\n      add\n        /* \"contracts/libraries/PbHeader.sol\":2006:2050  m.nextValidatorsHash = bytes(buf.decBytes()) */\n      mstore\n        /* \"contracts/libraries/PbHeader.sol\":1974:2629  if (tag == 9) {... */\n      jump(tag_86)\n    tag_68:\n        /* \"contracts/libraries/PbHeader.sol\":2087:2090  tag */\n      dup2\n        /* \"contracts/libraries/PbHeader.sol\":2094:2096  10 */\n      0x0a\n        /* \"contracts/libraries/PbHeader.sol\":2087:2096  tag == 10 */\n      eq\n        /* \"contracts/libraries/PbHeader.sol\":2083:2629  if (tag == 10) {... */\n      iszero\n      tag_71\n      jumpi\n        /* \"contracts/libraries/PbHeader.sol\":2140:2154  buf.decBytes() */\n      tag_72\n        /* \"contracts/libraries/PbHeader.sol\":2140:2143  buf */\n      dup4\n        /* \"contracts/libraries/PbHeader.sol\":2140:2152  buf.decBytes */\n      tag_43\n        /* \"contracts/libraries/PbHeader.sol\":2140:2154  buf.decBytes() */\n      jump\t// in\n    tag_72:\n        /* \"contracts/libraries/PbHeader.sol\":2116:2131  m.consensusHash */\n      0x0120\n      dup6\n      add\n        /* \"contracts/libraries/PbHeader.sol\":2116:2155  m.consensusHash = bytes(buf.decBytes()) */\n      mstore\n        /* \"contracts/libraries/PbHeader.sol\":2083:2629  if (tag == 10) {... */\n      jump(tag_86)\n    tag_71:\n        /* \"contracts/libraries/PbHeader.sol\":2192:2195  tag */\n      dup2\n        /* \"contracts/libraries/PbHeader.sol\":2199:2201  11 */\n      0x0b\n        /* \"contracts/libraries/PbHeader.sol\":2192:2201  tag == 11 */\n      eq\n        /* \"contracts/libraries/PbHeader.sol\":2188:2629  if (tag == 11) {... */\n      iszero\n      tag_74\n      jumpi\n        /* \"contracts/libraries/PbHeader.sol\":2239:2253  buf.decBytes() */\n      tag_75\n        /* \"contracts/libraries/PbHeader.sol\":2239:2242  buf */\n      dup4\n        /* \"contracts/libraries/PbHeader.sol\":2239:2251  buf.decBytes */\n      tag_43\n        /* \"contracts/libraries/PbHeader.sol\":2239:2253  buf.decBytes() */\n      jump\t// in\n    tag_75:\n        /* \"contracts/libraries/PbHeader.sol\":2221:2230  m.appHash */\n      0x0140\n      dup6\n      add\n        /* \"contracts/libraries/PbHeader.sol\":2221:2254  m.appHash = bytes(buf.decBytes()) */\n      mstore\n        /* \"contracts/libraries/PbHeader.sol\":2188:2629  if (tag == 11) {... */\n      jump(tag_86)\n    tag_74:\n        /* \"contracts/libraries/PbHeader.sol\":2291:2294  tag */\n      dup2\n        /* \"contracts/libraries/PbHeader.sol\":2298:2300  12 */\n      0x0c\n        /* \"contracts/libraries/PbHeader.sol\":2291:2300  tag == 12 */\n      eq\n        /* \"contracts/libraries/PbHeader.sol\":2287:2629  if (tag == 12) {... */\n      iszero\n      tag_77\n      jumpi\n        /* \"contracts/libraries/PbHeader.sol\":2346:2360  buf.decBytes() */\n      tag_78\n        /* \"contracts/libraries/PbHeader.sol\":2346:2349  buf */\n      dup4\n        /* \"contracts/libraries/PbHeader.sol\":2346:2358  buf.decBytes */\n      tag_43\n        /* \"contracts/libraries/PbHeader.sol\":2346:2360  buf.decBytes() */\n      jump\t// in\n    tag_78:\n        /* \"contracts/libraries/PbHeader.sol\":2320:2337  m.lastResultsHash */\n      0x0160\n      dup6\n      add\n        /* \"contracts/libraries/PbHeader.sol\":2320:2361  m.lastResultsHash = bytes(buf.decBytes()) */\n      mstore\n        /* \"contracts/libraries/PbHeader.sol\":2287:2629  if (tag == 12) {... */\n      jump(tag_86)\n    tag_77:\n        /* \"contracts/libraries/PbHeader.sol\":2398:2401  tag */\n      dup2\n        /* \"contracts/libraries/PbHeader.sol\":2405:2407  13 */\n      0x0d\n        /* \"contracts/libraries/PbHeader.sol\":2398:2407  tag == 13 */\n      eq\n        /* \"contracts/libraries/PbHeader.sol\":2394:2629  if (tag == 13) {... */\n      iszero\n      tag_80\n      jumpi\n        /* \"contracts/libraries/PbHeader.sol\":2450:2464  buf.decBytes() */\n      tag_81\n        /* \"contracts/libraries/PbHeader.sol\":2450:2453  buf */\n      dup4\n        /* \"contracts/libraries/PbHeader.sol\":2450:2462  buf.decBytes */\n      tag_43\n        /* \"contracts/libraries/PbHeader.sol\":2450:2464  buf.decBytes() */\n      jump\t// in\n    tag_81:\n        /* \"contracts/libraries/PbHeader.sol\":2427:2441  m.evidenceHash */\n      0x0180\n      dup6\n      add\n        /* \"contracts/libraries/PbHeader.sol\":2427:2465  m.evidenceHash = bytes(buf.decBytes()) */\n      mstore\n        /* \"contracts/libraries/PbHeader.sol\":2394:2629  if (tag == 13) {... */\n      jump(tag_86)\n    tag_80:\n        /* \"contracts/libraries/PbHeader.sol\":2502:2505  tag */\n      dup2\n        /* \"contracts/libraries/PbHeader.sol\":2509:2511  14 */\n      0x0e\n        /* \"contracts/libraries/PbHeader.sol\":2502:2511  tag == 14 */\n      eq\n        /* \"contracts/libraries/PbHeader.sol\":2498:2629  if (tag == 14) {... */\n      iszero\n      tag_83\n      jumpi\n        /* \"contracts/libraries/PbHeader.sol\":2557:2571  buf.decBytes() */\n      tag_84\n        /* \"contracts/libraries/PbHeader.sol\":2557:2560  buf */\n      dup4\n        /* \"contracts/libraries/PbHeader.sol\":2557:2569  buf.decBytes */\n      tag_43\n        /* \"contracts/libraries/PbHeader.sol\":2557:2571  buf.decBytes() */\n      jump\t// in\n    tag_84:\n        /* \"contracts/libraries/PbHeader.sol\":2531:2548  m.proposerAddress */\n      0x01a0\n      dup6\n      add\n        /* \"contracts/libraries/PbHeader.sol\":2531:2572  m.proposerAddress = bytes(buf.decBytes()) */\n      mstore\n        /* \"contracts/libraries/PbHeader.sol\":2498:2629  if (tag == 14) {... */\n      jump(tag_86)\n    tag_83:\n        /* \"contracts/libraries/PbHeader.sol\":2607:2626  buf.skipValue(wire) */\n      tag_86\n        /* \"contracts/libraries/PbHeader.sol\":2607:2610  buf */\n      dup4\n        /* \"contracts/libraries/PbHeader.sol\":2621:2625  wire */\n      dup3\n        /* \"contracts/libraries/PbHeader.sol\":2607:2620  buf.skipValue */\n      tag_87\n        /* \"contracts/libraries/PbHeader.sol\":2607:2626  buf.skipValue(wire) */\n      jump\t// in\n    tag_86:\n        /* \"contracts/libraries/PbHeader.sol\":1022:2668  while (buf.hasMore()) {... */\n      jump(tag_32)\n    tag_33:\n        /* \"contracts/libraries/PbHeader.sol\":842:2674  function decHeader(bytes memory raw) public pure returns (Header memory m) {... */\n      pop\n      pop\n      pop\n      swap2\n      swap1\n      pop\n      jump\t// out\n        /* \"contracts/libraries/PbHeader.sol\":4317:4911  function decPartSetHeader(bytes memory raw) public pure returns (PartSetHeader memory m) {... */\n    tag_14:\n      0x40\n      dup1\n      mload\n      dup1\n      dup3\n      add\n      swap1\n      swap2\n      mstore\n      0x00\n      dup2\n      mstore\n      0x60\n      0x20\n      dup3\n      add\n      mstore\n        /* \"contracts/libraries/PbHeader.sol\":4416:4436  Pb.Buffer memory buf */\n      0x00\n        /* \"contracts/libraries/PbHeader.sol\":4439:4456  Pb.fromBytes(raw) */\n      tag_91\n        /* \"contracts/libraries/PbHeader.sol\":4452:4455  raw */\n      dup4\n      0x40\n      dup1\n      mload\n      dup1\n      dup3\n      add\n      swap1\n      swap2\n      mstore\n      0x00\n      dup2\n      mstore\n      0x20\n      dup2\n      add\n        /* \"contracts/libraries/Pb.sol\":474:485  buf.b = raw */\n      swap2\n      swap1\n      swap2\n      mstore\n      swap1\n        /* \"contracts/libraries/Pb.sol\":385:513  function fromBytes(bytes memory raw) internal pure returns (Buffer memory buf) {... */\n      jump\n        /* \"contracts/libraries/PbHeader.sol\":4439:4456  Pb.fromBytes(raw) */\n    tag_91:\n        /* \"contracts/libraries/PbHeader.sol\":4416:4456  Pb.Buffer memory buf = Pb.fromBytes(raw) */\n      swap1\n      pop\n        /* \"contracts/libraries/PbHeader.sol\":4467:4475  uint tag */\n      0x00\n        /* \"contracts/libraries/PbHeader.sol\":4485:4501  Pb.WireType wire */\n      dup1\n        /* \"contracts/libraries/PbHeader.sol\":4511:4905  while (buf.hasMore()) {... */\n    tag_92:\n        /* \"contracts/libraries/PbHeader.sol\":4518:4531  buf.hasMore() */\n      tag_94\n        /* \"contracts/libraries/PbHeader.sol\":4518:4521  buf */\n      dup4\n        /* \"contracts/libraries/PbHeader.sol\":4518:4529  buf.hasMore */\n      tag_35\n        /* \"contracts/libraries/PbHeader.sol\":4518:4531  buf.hasMore() */\n      jump\t// in\n    tag_94:\n        /* \"contracts/libraries/PbHeader.sol\":4511:4905  while (buf.hasMore()) {... */\n      iszero\n      tag_33\n      jumpi\n        /* \"contracts/libraries/PbHeader.sol\":4561:4573  buf.decKey() */\n      tag_95\n        /* \"contracts/libraries/PbHeader.sol\":4561:4564  buf */\n      dup4\n        /* \"contracts/libraries/PbHeader.sol\":4561:4571  buf.decKey */\n      tag_37\n        /* \"contracts/libraries/PbHeader.sol\":4561:4573  buf.decKey() */\n      jump\t// in\n    tag_95:\n        /* \"contracts/libraries/PbHeader.sol\":4547:4573  (tag, wire) = buf.decKey() */\n      swap1\n      swap3\n      pop\n      swap1\n      pop\n        /* \"contracts/libraries/PbHeader.sol\":4653:4656  tag */\n      dup2\n        /* \"contracts/libraries/PbHeader.sol\":4660:4661  1 */\n      0x01\n        /* \"contracts/libraries/PbHeader.sol\":4653:4661  tag == 1 */\n      eq\n        /* \"contracts/libraries/PbHeader.sol\":4649:4866  if (tag == 1) {... */\n      iszero\n      tag_98\n      jumpi\n        /* \"contracts/libraries/PbHeader.sol\":4698:4713  buf.decVarint() */\n      tag_99\n        /* \"contracts/libraries/PbHeader.sol\":4698:4701  buf */\n      dup4\n        /* \"contracts/libraries/PbHeader.sol\":4698:4711  buf.decVarint */\n      tag_50\n        /* \"contracts/libraries/PbHeader.sol\":4698:4713  buf.decVarint() */\n      jump\t// in\n    tag_99:\n        /* \"contracts/libraries/PbHeader.sol\":4681:4714  m.total = uint32(buf.decVarint()) */\n      0xffffffff\n      and\n      dup5\n      mstore\n        /* \"contracts/libraries/PbHeader.sol\":4649:4866  if (tag == 1) {... */\n      jump(tag_104)\n    tag_98:\n        /* \"contracts/libraries/PbHeader.sol\":4751:4754  tag */\n      dup2\n        /* \"contracts/libraries/PbHeader.sol\":4758:4759  2 */\n      0x02\n        /* \"contracts/libraries/PbHeader.sol\":4751:4759  tag == 2 */\n      eq\n        /* \"contracts/libraries/PbHeader.sol\":4747:4866  if (tag == 2) {... */\n      iszero\n      tag_101\n      jumpi\n        /* \"contracts/libraries/PbHeader.sol\":4794:4808  buf.decBytes() */\n      tag_102\n        /* \"contracts/libraries/PbHeader.sol\":4794:4797  buf */\n      dup4\n        /* \"contracts/libraries/PbHeader.sol\":4794:4806  buf.decBytes */\n      tag_43\n        /* \"contracts/libraries/PbHeader.sol\":4794:4808  buf.decBytes() */\n      jump\t// in\n    tag_102:\n        /* \"contracts/libraries/PbHeader.sol\":4779:4785  m.hash */\n      0x20\n      dup6\n      add\n        /* \"contracts/libraries/PbHeader.sol\":4779:4809  m.hash = bytes(buf.decBytes()) */\n      mstore\n        /* \"contracts/libraries/PbHeader.sol\":4747:4866  if (tag == 2) {... */\n      jump(tag_104)\n    tag_101:\n        /* \"contracts/libraries/PbHeader.sol\":4844:4863  buf.skipValue(wire) */\n      tag_104\n        /* \"contracts/libraries/PbHeader.sol\":4844:4847  buf */\n      dup4\n        /* \"contracts/libraries/PbHeader.sol\":4858:4862  wire */\n      dup3\n        /* \"contracts/libraries/PbHeader.sol\":4844:4857  buf.skipValue */\n      tag_87\n        /* \"contracts/libraries/PbHeader.sol\":4844:4863  buf.skipValue(wire) */\n      jump\t// in\n    tag_104:\n        /* \"contracts/libraries/PbHeader.sol\":4511:4905  while (buf.hasMore()) {... */\n      jump(tag_92)\n        /* \"contracts/libraries/PbHeader.sol\":2818:3401  function decVersion(bytes memory raw) public pure returns (Version memory m) {... */\n    tag_19:\n      0x40\n      dup1\n      mload\n      dup1\n      dup3\n      add\n      dup3\n      mstore\n      0x00\n      dup1\n      dup3\n      mstore\n      0x20\n      dup1\n      dup4\n      add\n      dup3\n      swap1\n      mstore\n      dup4\n      mload\n      dup1\n      dup6\n      add\n      swap1\n      swap5\n      mstore\n      dup2\n      dup5\n      mstore\n      dup4\n      add\n        /* \"contracts/libraries/Pb.sol\":474:485  buf.b = raw */\n      dup5\n      swap1\n      mstore\n      swap1\n      swap2\n      swap1\n      dup1\n        /* \"contracts/libraries/PbHeader.sol\":3000:3395  while (buf.hasMore()) {... */\n    tag_109:\n        /* \"contracts/libraries/PbHeader.sol\":3007:3020  buf.hasMore() */\n      tag_111\n        /* \"contracts/libraries/PbHeader.sol\":3007:3010  buf */\n      dup4\n        /* \"contracts/libraries/PbHeader.sol\":3007:3018  buf.hasMore */\n      tag_35\n        /* \"contracts/libraries/PbHeader.sol\":3007:3020  buf.hasMore() */\n      jump\t// in\n    tag_111:\n        /* \"contracts/libraries/PbHeader.sol\":3000:3395  while (buf.hasMore()) {... */\n      iszero\n      tag_33\n      jumpi\n        /* \"contracts/libraries/PbHeader.sol\":3050:3062  buf.decKey() */\n      tag_112\n        /* \"contracts/libraries/PbHeader.sol\":3050:3053  buf */\n      dup4\n        /* \"contracts/libraries/PbHeader.sol\":3050:3060  buf.decKey */\n      tag_37\n        /* \"contracts/libraries/PbHeader.sol\":3050:3062  buf.decKey() */\n      jump\t// in\n    tag_112:\n        /* \"contracts/libraries/PbHeader.sol\":3036:3062  (tag, wire) = buf.decKey() */\n      swap1\n      swap3\n      pop\n      swap1\n      pop\n        /* \"contracts/libraries/PbHeader.sol\":3142:3145  tag */\n      dup2\n        /* \"contracts/libraries/PbHeader.sol\":3149:3150  1 */\n      0x01\n        /* \"contracts/libraries/PbHeader.sol\":3142:3150  tag == 1 */\n      eq\n        /* \"contracts/libraries/PbHeader.sol\":3138:3356  if (tag == 1) {... */\n      iszero\n      tag_115\n      jumpi\n        /* \"contracts/libraries/PbHeader.sol\":3187:3202  buf.decVarint() */\n      tag_116\n        /* \"contracts/libraries/PbHeader.sol\":3187:3190  buf */\n      dup4\n        /* \"contracts/libraries/PbHeader.sol\":3187:3200  buf.decVarint */\n      tag_50\n        /* \"contracts/libraries/PbHeader.sol\":3187:3202  buf.decVarint() */\n      jump\t// in\n    tag_116:\n        /* \"contracts/libraries/PbHeader.sol\":3170:3203  m.block = uint64(buf.decVarint()) */\n      0xffffffffffffffff\n      and\n      dup5\n      mstore\n        /* \"contracts/libraries/PbHeader.sol\":3138:3356  if (tag == 1) {... */\n      jump(tag_121)\n    tag_115:\n        /* \"contracts/libraries/PbHeader.sol\":3240:3243  tag */\n      dup2\n        /* \"contracts/libraries/PbHeader.sol\":3247:3248  2 */\n      0x02\n        /* \"contracts/libraries/PbHeader.sol\":3240:3248  tag == 2 */\n      eq\n        /* \"contracts/libraries/PbHeader.sol\":3236:3356  if (tag == 2) {... */\n      iszero\n      tag_118\n      jumpi\n        /* \"contracts/libraries/PbHeader.sol\":3283:3298  buf.decVarint() */\n      tag_119\n        /* \"contracts/libraries/PbHeader.sol\":3283:3286  buf */\n      dup4\n        /* \"contracts/libraries/PbHeader.sol\":3283:3296  buf.decVarint */\n      tag_50\n        /* \"contracts/libraries/PbHeader.sol\":3283:3298  buf.decVarint() */\n      jump\t// in\n    tag_119:\n        /* \"contracts/libraries/PbHeader.sol\":3268:3299  m.app = uint64(buf.decVarint()) */\n      0xffffffffffffffff\n      and\n        /* \"contracts/libraries/PbHeader.sol\":3268:3273  m.app */\n      0x20\n      dup6\n      add\n        /* \"contracts/libraries/PbHeader.sol\":3268:3299  m.app = uint64(buf.decVarint()) */\n      mstore\n        /* \"contracts/libraries/PbHeader.sol\":3236:3356  if (tag == 2) {... */\n      jump(tag_121)\n    tag_118:\n        /* \"contracts/libraries/PbHeader.sol\":3334:3353  buf.skipValue(wire) */\n      tag_121\n        /* \"contracts/libraries/PbHeader.sol\":3334:3337  buf */\n      dup4\n        /* \"contracts/libraries/PbHeader.sol\":3348:3352  wire */\n      dup3\n        /* \"contracts/libraries/PbHeader.sol\":3334:3347  buf.skipValue */\n      tag_87\n        /* \"contracts/libraries/PbHeader.sol\":3334:3353  buf.skipValue(wire) */\n      jump\t// in\n    tag_121:\n        /* \"contracts/libraries/PbHeader.sol\":3000:3395  while (buf.hasMore()) {... */\n      jump(tag_109)\n        /* \"contracts/libraries/PbHeader.sol\":3561:4160  function decBlockID(bytes memory raw) public pure returns (BlockID memory m) {... */\n    tag_24:\n        /* \"contracts/libraries/PbHeader.sol\":3620:3636  BlockID memory m */\n      tag_122\n      tag_123\n      jump\t// in\n    tag_122:\n      0x40\n      dup1\n      mload\n      dup1\n      dup3\n      add\n      swap1\n      swap2\n      mstore\n      0x00\n      dup1\n      dup3\n      mstore\n      0x20\n      dup3\n      add\n        /* \"contracts/libraries/Pb.sol\":474:485  buf.b = raw */\n      dup5\n      swap1\n      mstore\n      dup1\n        /* \"contracts/libraries/PbHeader.sol\":3743:4154  while (buf.hasMore()) {... */\n    tag_126:\n        /* \"contracts/libraries/PbHeader.sol\":3750:3763  buf.hasMore() */\n      tag_128\n        /* \"contracts/libraries/PbHeader.sol\":3750:3753  buf */\n      dup4\n        /* \"contracts/libraries/PbHeader.sol\":3750:3761  buf.hasMore */\n      tag_35\n        /* \"contracts/libraries/PbHeader.sol\":3750:3763  buf.hasMore() */\n      jump\t// in\n    tag_128:\n        /* \"contracts/libraries/PbHeader.sol\":3743:4154  while (buf.hasMore()) {... */\n      iszero\n      tag_33\n      jumpi\n        /* \"contracts/libraries/PbHeader.sol\":3793:3805  buf.decKey() */\n      tag_129\n        /* \"contracts/libraries/PbHeader.sol\":3793:3796  buf */\n      dup4\n        /* \"contracts/libraries/PbHeader.sol\":3793:3803  buf.decKey */\n      tag_37\n        /* \"contracts/libraries/PbHeader.sol\":3793:3805  buf.decKey() */\n      jump\t// in\n    tag_129:\n        /* \"contracts/libraries/PbHeader.sol\":3779:3805  (tag, wire) = buf.decKey() */\n      swap1\n      swap3\n      pop\n      swap1\n      pop\n        /* \"contracts/libraries/PbHeader.sol\":3885:3888  tag */\n      dup2\n        /* \"contracts/libraries/PbHeader.sol\":3892:3893  1 */\n      0x01\n        /* \"contracts/libraries/PbHeader.sol\":3885:3893  tag == 1 */\n      eq\n        /* \"contracts/libraries/PbHeader.sol\":3881:4115  if (tag == 1) {... */\n      iszero\n      tag_132\n      jumpi\n        /* \"contracts/libraries/PbHeader.sol\":3928:3942  buf.decBytes() */\n      tag_133\n        /* \"contracts/libraries/PbHeader.sol\":3928:3931  buf */\n      dup4\n        /* \"contracts/libraries/PbHeader.sol\":3928:3940  buf.decBytes */\n      tag_43\n        /* \"contracts/libraries/PbHeader.sol\":3928:3942  buf.decBytes() */\n      jump\t// in\n    tag_133:\n        /* \"contracts/libraries/PbHeader.sol\":3913:3943  m.hash = bytes(buf.decBytes()) */\n      dup5\n      mstore\n        /* \"contracts/libraries/PbHeader.sol\":3881:4115  if (tag == 1) {... */\n      jump(tag_139)\n    tag_132:\n        /* \"contracts/libraries/PbHeader.sol\":3980:3983  tag */\n      dup2\n        /* \"contracts/libraries/PbHeader.sol\":3987:3988  2 */\n      0x02\n        /* \"contracts/libraries/PbHeader.sol\":3980:3988  tag == 2 */\n      eq\n        /* \"contracts/libraries/PbHeader.sol\":3976:4115  if (tag == 2) {... */\n      iszero\n      tag_135\n      jumpi\n        /* \"contracts/libraries/PbHeader.sol\":4026:4058  decPartSetHeader(buf.decBytes()) */\n      tag_136\n        /* \"contracts/libraries/PbHeader.sol\":4043:4057  buf.decBytes() */\n      tag_13\n        /* \"contracts/libraries/PbHeader.sol\":4043:4046  buf */\n      dup5\n        /* \"contracts/libraries/PbHeader.sol\":4043:4055  buf.decBytes */\n      tag_43\n        /* \"contracts/libraries/PbHeader.sol\":4043:4057  buf.decBytes() */\n      jump\t// in\n        /* \"contracts/libraries/PbHeader.sol\":4026:4058  decPartSetHeader(buf.decBytes()) */\n    tag_136:\n        /* \"contracts/libraries/PbHeader.sol\":4008:4023  m.partSetHeader */\n      0x20\n      dup6\n      add\n        /* \"contracts/libraries/PbHeader.sol\":4008:4058  m.partSetHeader = decPartSetHeader(buf.decBytes()) */\n      mstore\n        /* \"contracts/libraries/PbHeader.sol\":3976:4115  if (tag == 2) {... */\n      jump(tag_139)\n    tag_135:\n        /* \"contracts/libraries/PbHeader.sol\":4093:4112  buf.skipValue(wire) */\n      tag_139\n        /* \"contracts/libraries/PbHeader.sol\":4093:4096  buf */\n      dup4\n        /* \"contracts/libraries/PbHeader.sol\":4107:4111  wire */\n      dup3\n        /* \"contracts/libraries/PbHeader.sol\":4093:4106  buf.skipValue */\n      tag_87\n        /* \"contracts/libraries/PbHeader.sol\":4093:4112  buf.skipValue(wire) */\n      jump\t// in\n    tag_139:\n        /* \"contracts/libraries/PbHeader.sol\":3743:4154  while (buf.hasMore()) {... */\n      jump(tag_126)\n        /* \"contracts/libraries/Pb.sol\":557:668  function hasMore(Buffer memory buf) internal pure returns (bool) {... */\n    tag_35:\n        /* \"contracts/libraries/Pb.sol\":649:654  buf.b */\n      0x20\n      dup2\n      add\n      mload\n        /* \"contracts/libraries/Pb.sol\":649:661  buf.b.length */\n      mload\n        /* \"contracts/libraries/Pb.sol\":639:646  buf.idx */\n      dup2\n      mload\n        /* \"contracts/libraries/Pb.sol\":639:661  buf.idx < buf.b.length */\n      lt\n        /* \"contracts/libraries/Pb.sol\":557:668  function hasMore(Buffer memory buf) internal pure returns (bool) {... */\n    tag_143:\n      swap2\n      swap1\n      pop\n      jump\t// out\n        /* \"contracts/libraries/Pb.sol\":722:906  function decKey(Buffer memory buf) internal pure returns (uint tag, WireType wiretype) {... */\n    tag_37:\n        /* \"contracts/libraries/Pb.sol\":780:788  uint tag */\n      0x00\n        /* \"contracts/libraries/Pb.sol\":790:807  WireType wiretype */\n      dup1\n        /* \"contracts/libraries/Pb.sol\":819:825  uint v */\n      0x00\n        /* \"contracts/libraries/Pb.sol\":828:842  decVarint(buf) */\n      tag_145\n        /* \"contracts/libraries/Pb.sol\":838:841  buf */\n      dup5\n        /* \"contracts/libraries/Pb.sol\":828:837  decVarint */\n      tag_50\n        /* \"contracts/libraries/Pb.sol\":828:842  decVarint(buf) */\n      jump\t// in\n    tag_145:\n        /* \"contracts/libraries/Pb.sol\":819:842  uint v = decVarint(buf) */\n      swap1\n      pop\n        /* \"contracts/libraries/Pb.sol\":858:863  v / 8 */\n      tag_146\n        /* \"contracts/libraries/Pb.sol\":862:863  8 */\n      0x08\n        /* \"contracts/libraries/Pb.sol\":819:842  uint v = decVarint(buf) */\n      dup3\n        /* \"contracts/libraries/Pb.sol\":858:863  v / 8 */\n      tag_147\n      jump\t// in\n    tag_146:\n        /* \"contracts/libraries/Pb.sol\":852:863  tag = v / 8 */\n      swap3\n      pop\n        /* \"contracts/libraries/Pb.sol\":893:894  v */\n      dup1\n        /* \"contracts/libraries/Pb.sol\":897:898  7 */\n      0x07\n        /* \"contracts/libraries/Pb.sol\":893:898  v & 7 */\n      and\n        /* \"contracts/libraries/Pb.sol\":884:899  WireType(v & 7) */\n      0x05\n      dup2\n      gt\n      iszero\n      tag_148\n      jumpi\n      mstore(0x00, shl(0xe0, 0x4e487b71))\n      mstore(0x04, 0x21)\n      revert(0x00, 0x24)\n    tag_148:\n        /* \"contracts/libraries/Pb.sol\":873:899  wiretype = WireType(v & 7) */\n      swap2\n      pop\n        /* \"contracts/libraries/Pb.sol\":722:906  function decKey(Buffer memory buf) internal pure returns (uint tag, WireType wiretype) {... */\n      pop\n      swap2\n      pop\n      swap2\n      jump\t// out\n        /* \"contracts/libraries/Pb.sol\":2606:3265  function decBytes(Buffer memory buf) internal pure returns (bytes memory b) {... */\n    tag_43:\n        /* \"contracts/libraries/Pb.sol\":2666:2680  bytes memory b */\n      0x60\n        /* \"contracts/libraries/Pb.sol\":2692:2700  uint len */\n      0x00\n        /* \"contracts/libraries/Pb.sol\":2703:2717  decVarint(buf) */\n      tag_150\n        /* \"contracts/libraries/Pb.sol\":2713:2716  buf */\n      dup4\n        /* \"contracts/libraries/Pb.sol\":2703:2712  decVarint */\n      tag_50\n        /* \"contracts/libraries/Pb.sol\":2703:2717  decVarint(buf) */\n      jump\t// in\n    tag_150:\n        /* \"contracts/libraries/Pb.sol\":2692:2717  uint len = decVarint(buf) */\n      swap1\n      pop\n        /* \"contracts/libraries/Pb.sol\":2727:2735  uint end */\n      0x00\n        /* \"contracts/libraries/Pb.sol\":2748:2751  len */\n      dup2\n        /* \"contracts/libraries/Pb.sol\":2738:2741  buf */\n      dup5\n        /* \"contracts/libraries/Pb.sol\":2738:2745  buf.idx */\n      0x00\n      add\n      mload\n        /* \"contracts/libraries/Pb.sol\":2738:2751  buf.idx + len */\n      tag_151\n      swap2\n      swap1\n      tag_152\n      jump\t// in\n    tag_151:\n        /* \"contracts/libraries/Pb.sol\":2727:2751  uint end = buf.idx + len */\n      swap1\n      pop\n        /* \"contracts/libraries/Pb.sol\":2776:2779  buf */\n      dup4\n        /* \"contracts/libraries/Pb.sol\":2776:2781  buf.b */\n      0x20\n      add\n      mload\n        /* \"contracts/libraries/Pb.sol\":2776:2788  buf.b.length */\n      mload\n        /* \"contracts/libraries/Pb.sol\":2769:2772  end */\n      dup2\n        /* \"contracts/libraries/Pb.sol\":2769:2788  end <= buf.b.length */\n      gt\n      iszero\n        /* \"contracts/libraries/Pb.sol\":2761:2789  require(end <= buf.b.length) */\n      tag_153\n      jumpi\n      0x00\n      dup1\n      revert\n    tag_153:\n        /* \"contracts/libraries/Pb.sol\":2832:2835  len */\n      dup2\n        /* \"contracts/libraries/Pb.sol\":2822:2836  new bytes(len) */\n      0xffffffffffffffff\n      dup2\n      gt\n      iszero\n      tag_154\n      jumpi\n      mstore(0x00, shl(0xe0, 0x4e487b71))\n      mstore(0x04, 0x41)\n      revert(0x00, 0x24)\n    tag_154:\n      mload(0x40)\n      swap1\n      dup1\n      dup3\n      mstore\n      dup1\n      0x1f\n      add\n      not(0x1f)\n      and\n      0x20\n      add\n      dup3\n      add\n      0x40\n      mstore\n      dup1\n      iszero\n      tag_155\n      jumpi\n      0x20\n      dup3\n      add\n      dup2\n      dup1\n      calldatasize\n      dup4\n      calldatacopy\n      add\n      swap1\n      pop\n    tag_155:\n      pop\n        /* \"contracts/libraries/Pb.sol\":2866:2871  buf.b */\n      0x20\n      dup1\n      dup7\n      add\n      mload\n        /* \"contracts/libraries/Pb.sol\":2961:2968  buf.idx */\n      dup7\n      mload\n        /* \"contracts/libraries/Pb.sol\":2818:2836  b = new bytes(len) */\n      swap3\n      swap6\n      pop\n        /* \"contracts/libraries/Pb.sol\":2866:2871  buf.b */\n      swap2\n        /* \"contracts/libraries/Pb.sol\":3011:3021  add(b, 32) */\n      dup2\n      dup7\n      add\n      swap2\n        /* \"contracts/libraries/Pb.sol\":3047:3076  add(add(bufB, 32), bufBStart) */\n      swap1\n      dup4\n      add\n      add\n        /* \"contracts/libraries/Pb.sol\":2846:2863  bytes memory bufB */\n      0x00\n        /* \"contracts/libraries/Pb.sol\":3095:3236  for (uint i=0; i<len; i+=32) {... */\n    tag_156:\n        /* \"contracts/libraries/Pb.sol\":3112:3115  len */\n      dup6\n        /* \"contracts/libraries/Pb.sol\":3110:3111  i */\n      dup2\n        /* \"contracts/libraries/Pb.sol\":3110:3115  i<len */\n      lt\n        /* \"contracts/libraries/Pb.sol\":3095:3236  for (uint i=0; i<len; i+=32) {... */\n      iszero\n      tag_157\n      jumpi\n        /* \"contracts/libraries/Pb.sol\":3193:3210  add(bufBStart, i) */\n      dup2\n      dup2\n      add\n        /* \"contracts/libraries/Pb.sol\":3187:3211  mload(add(bufBStart, i)) */\n      mload\n        /* \"contracts/libraries/Pb.sol\":3171:3185  add(bStart, i) */\n      dup4\n      dup3\n      add\n        /* \"contracts/libraries/Pb.sol\":3164:3212  mstore(add(bStart, i), mload(add(bufBStart, i))) */\n      mstore\n        /* \"contracts/libraries/Pb.sol\":3117:3122  i+=32 */\n      tag_159\n        /* \"contracts/libraries/Pb.sol\":3120:3122  32 */\n      0x20\n        /* \"contracts/libraries/Pb.sol\":3208:3209  i */\n      dup3\n        /* \"contracts/libraries/Pb.sol\":3117:3122  i+=32 */\n      tag_152\n      jump\t// in\n    tag_159:\n      swap1\n      pop\n        /* \"contracts/libraries/Pb.sol\":3095:3236  for (uint i=0; i<len; i+=32) {... */\n      jump(tag_156)\n    tag_157:\n      pop\n      pop\n      pop\n        /* \"contracts/libraries/Pb.sol\":3245:3258  buf.idx = end */\n      swap4\n      mstore\n      pop\n        /* \"contracts/libraries/Pb.sol\":2606:3265  function decBytes(Buffer memory buf) internal pure returns (bytes memory b) {... */\n      swap2\n      swap1\n      pop\n      jump\t// out\n        /* \"contracts/libraries/Pb.sol\":1655:2548  function decVarint(Buffer memory buf) internal pure returns (uint v) {... */\n    tag_50:\n        /* \"contracts/libraries/Pb.sol\":1837:1842  buf.b */\n      0x20\n      dup1\n      dup3\n      add\n      mload\n        /* \"contracts/libraries/Pb.sol\":1898:1905  buf.idx */\n      dup3\n      mload\n        /* \"contracts/libraries/Pb.sol\":1998:2017  add(add(bb, 32), v) */\n      dup2\n      add\n      swap1\n      swap2\n      add\n        /* \"contracts/libraries/Pb.sol\":1992:2018  mload(add(add(bb, 32), v)) */\n      mload\n        /* \"contracts/libraries/Pb.sol\":1716:1722  uint v */\n      0x00\n      swap2\n      dup3\n      dup1\n        /* \"contracts/libraries/Pb.sol\":2173:2493  for (uint i=0; i<10; ++i) {... */\n    tag_161:\n        /* \"contracts/libraries/Pb.sol\":2190:2192  10 */\n      0x0a\n        /* \"contracts/libraries/Pb.sol\":2188:2189  i */\n      dup2\n        /* \"contracts/libraries/Pb.sol\":2188:2192  i<10 */\n      lt\n        /* \"contracts/libraries/Pb.sol\":2173:2493  for (uint i=0; i<10; ++i) {... */\n      iszero\n      tag_162\n      jumpi\n        /* \"contracts/libraries/Pb.sol\":2245:2257  byte(i, tmp) */\n      dup4\n      dup2\n      byte\n      swap2\n      pop\n        /* \"contracts/libraries/Pb.sol\":2369:2374  i * 7 */\n      tag_164\n        /* \"contracts/libraries/Pb.sol\":2250:2251  i */\n      dup2\n        /* \"contracts/libraries/Pb.sol\":2373:2374  7 */\n      0x07\n        /* \"contracts/libraries/Pb.sol\":2369:2374  i * 7 */\n      tag_165\n      jump\t// in\n    tag_164:\n        /* \"contracts/libraries/Pb.sol\":2355:2356  b */\n      dup3\n        /* \"contracts/libraries/Pb.sol\":2359:2363  0x7F */\n      0x7f\n        /* \"contracts/libraries/Pb.sol\":2355:2363  b & 0x7F */\n      and\n        /* \"contracts/libraries/Pb.sol\":2354:2375  (b & 0x7F) << (i * 7) */\n      swap1\n      shl\n        /* \"contracts/libraries/Pb.sol\":2349:2375  v |= (b & 0x7F) << (i * 7) */\n      dup6\n      or\n      swap5\n      pop\n        /* \"contracts/libraries/Pb.sol\":2393:2394  b */\n      dup2\n        /* \"contracts/libraries/Pb.sol\":2397:2401  0x80 */\n      0x80\n        /* \"contracts/libraries/Pb.sol\":2393:2401  b & 0x80 */\n      and\n        /* \"contracts/libraries/Pb.sol\":2405:2406  0 */\n      0x00\n        /* \"contracts/libraries/Pb.sol\":2393:2406  b & 0x80 == 0 */\n      eq\n        /* \"contracts/libraries/Pb.sol\":2389:2483  if (b & 0x80 == 0) {... */\n      iszero\n      tag_166\n      jumpi\n        /* \"contracts/libraries/Pb.sol\":2437:2442  i + 1 */\n      tag_167\n        /* \"contracts/libraries/Pb.sol\":2437:2438  i */\n      dup2\n        /* \"contracts/libraries/Pb.sol\":2441:2442  1 */\n      0x01\n        /* \"contracts/libraries/Pb.sol\":2437:2442  i + 1 */\n      tag_152\n      jump\t// in\n    tag_167:\n        /* \"contracts/libraries/Pb.sol\":2426:2442  buf.idx += i + 1 */\n      dup7\n      mload\n        /* \"contracts/libraries/Pb.sol\":2426:2429  buf */\n      dup8\n      swap1\n        /* \"contracts/libraries/Pb.sol\":2426:2442  buf.idx += i + 1 */\n      tag_168\n      swap1\n      dup4\n      swap1\n      tag_152\n      jump\t// in\n    tag_168:\n      swap1\n      mstore\n      pop\n        /* \"contracts/libraries/Pb.sol\":2460:2468  return v */\n      tag_143\n      swap4\n      pop\n      pop\n      pop\n      pop\n      jump\n        /* \"contracts/libraries/Pb.sol\":2389:2483  if (b & 0x80 == 0) {... */\n    tag_166:\n        /* \"contracts/libraries/Pb.sol\":2194:2197  ++i */\n      tag_169\n      dup2\n      tag_170\n      jump\t// in\n    tag_169:\n      swap1\n      pop\n        /* \"contracts/libraries/Pb.sol\":2173:2493  for (uint i=0; i<10; ++i) {... */\n      jump(tag_161)\n    tag_162:\n      pop\n        /* \"contracts/libraries/Pb.sol\":2502:2510  revert() */\n      0x00\n      dup1\n      revert\n        /* \"contracts/libraries/Pb.sol\":4059:4454  function skipValue(Buffer memory buf, WireType wire) internal pure {... */\n    tag_87:\n        /* \"contracts/libraries/Pb.sol\":4148:4163  WireType.Varint */\n      0x00\n        /* \"contracts/libraries/Pb.sol\":4140:4144  wire */\n      dup2\n        /* \"contracts/libraries/Pb.sol\":4140:4163  wire == WireType.Varint */\n      0x05\n      dup2\n      gt\n      iszero\n      tag_173\n      jumpi\n      mstore(0x00, shl(0xe0, 0x4e487b71))\n      mstore(0x04, 0x21)\n      revert(0x00, 0x24)\n    tag_173:\n      eq\n        /* \"contracts/libraries/Pb.sol\":4136:4423  if (wire == WireType.Varint) { decVarint(buf); }... */\n      iszero\n      tag_174\n      jumpi\n        /* \"contracts/libraries/Pb.sol\":4167:4181  decVarint(buf) */\n      tag_175\n        /* \"contracts/libraries/Pb.sol\":4177:4180  buf */\n      dup3\n        /* \"contracts/libraries/Pb.sol\":4167:4176  decVarint */\n      tag_50\n        /* \"contracts/libraries/Pb.sol\":4167:4181  decVarint(buf) */\n      jump\t// in\n    tag_175:\n      pop\n        /* \"contracts/libraries/Pb.sol\":4136:4423  if (wire == WireType.Varint) { decVarint(buf); }... */\n      jump(tag_183)\n    tag_174:\n        /* \"contracts/libraries/Pb.sol\":4210:4230  WireType.LengthDelim */\n      0x02\n        /* \"contracts/libraries/Pb.sol\":4202:4206  wire */\n      dup2\n        /* \"contracts/libraries/Pb.sol\":4202:4230  wire == WireType.LengthDelim */\n      0x05\n      dup2\n      gt\n      iszero\n      tag_178\n      jumpi\n      mstore(0x00, shl(0xe0, 0x4e487b71))\n      mstore(0x04, 0x21)\n      revert(0x00, 0x24)\n    tag_178:\n      eq\n        /* \"contracts/libraries/Pb.sol\":4198:4423  if (wire == WireType.LengthDelim) {... */\n      iszero\n      tag_1\n      jumpi\n        /* \"contracts/libraries/Pb.sol\":4246:4254  uint len */\n      0x00\n        /* \"contracts/libraries/Pb.sol\":4257:4271  decVarint(buf) */\n      tag_180\n        /* \"contracts/libraries/Pb.sol\":4267:4270  buf */\n      dup4\n        /* \"contracts/libraries/Pb.sol\":4257:4266  decVarint */\n      tag_50\n        /* \"contracts/libraries/Pb.sol\":4257:4271  decVarint(buf) */\n      jump\t// in\n    tag_180:\n        /* \"contracts/libraries/Pb.sol\":4246:4271  uint len = decVarint(buf) */\n      swap1\n      pop\n        /* \"contracts/libraries/Pb.sol\":4296:4299  len */\n      dup1\n        /* \"contracts/libraries/Pb.sol\":4285:4288  buf */\n      dup4\n        /* \"contracts/libraries/Pb.sol\":4285:4292  buf.idx */\n      0x00\n      add\n        /* \"contracts/libraries/Pb.sol\":4285:4299  buf.idx += len */\n      dup2\n      dup2\n      mload\n      tag_181\n      swap2\n      swap1\n      tag_152\n      jump\t// in\n    tag_181:\n      swap1\n      mstore\n      pop\n        /* \"contracts/libraries/Pb.sol\":4361:4366  buf.b */\n      0x20\n      dup4\n      add\n      mload\n        /* \"contracts/libraries/Pb.sol\":4361:4373  buf.b.length */\n      mload\n        /* \"contracts/libraries/Pb.sol\":4350:4357  buf.idx */\n      dup4\n      mload\n        /* \"contracts/libraries/Pb.sol\":4350:4373  buf.idx <= buf.b.length */\n      gt\n      iszero\n        /* \"contracts/libraries/Pb.sol\":4342:4374  require(buf.idx <= buf.b.length) */\n      tag_175\n      jumpi\n      0x00\n      dup1\n      revert\n        /* \"contracts/libraries/Pb.sol\":4198:4423  if (wire == WireType.LengthDelim) {... */\n    tag_183:\n        /* \"contracts/libraries/Pb.sol\":4059:4454  function skipValue(Buffer memory buf, WireType wire) internal pure {... */\n      pop\n      pop\n      jump\t// out\n    tag_28:\n      0x40\n      dup1\n      mload\n      0x0200\n      dup2\n      add\n      dup3\n      mstore\n      0x00\n      0x01c0\n      dup3\n      add\n      dup2\n      dup2\n      mstore\n      0x01e0\n      dup4\n      add\n      dup3\n      swap1\n      mstore\n      dup3\n      mstore\n      0x60\n      0x20\n      dup4\n      add\n      dup2\n      swap1\n      mstore\n      swap3\n      dup3\n      add\n      dup2\n      swap1\n      mstore\n      swap2\n      dup2\n      add\n      swap2\n      swap1\n      swap2\n      mstore\n      0x80\n      dup2\n      add\n      tag_185\n      tag_123\n      jump\t// in\n    tag_185:\n      dup2\n      mstore\n      0x20\n      add\n      0x60\n      dup2\n      mstore\n      0x20\n      add\n      0x60\n      dup2\n      mstore\n      0x20\n      add\n      0x60\n      dup2\n      mstore\n      0x20\n      add\n      0x60\n      dup2\n      mstore\n      0x20\n      add\n      0x60\n      dup2\n      mstore\n      0x20\n      add\n      0x60\n      dup2\n      mstore\n      0x20\n      add\n      0x60\n      dup2\n      mstore\n      0x20\n      add\n      0x60\n      dup2\n      mstore\n      0x20\n      add\n      0x60\n      dup2\n      mstore\n      pop\n      swap1\n      jump\t// out\n    tag_123:\n      mload(0x40)\n      dup1\n      0x40\n      add\n      0x40\n      mstore\n      dup1\n      0x60\n      dup2\n      mstore\n      0x20\n      add\n      tag_186\n      mload(0x40)\n      dup1\n      0x40\n      add\n      0x40\n      mstore\n      dup1\n      and(0xffffffff, 0x00)\n      dup2\n      mstore\n      0x20\n      add\n      0x60\n      dup2\n      mstore\n      pop\n      swap1\n      jump\n    tag_186:\n      swap1\n      mstore\n      swap1\n      jump\t// out\n        /* \"#utility.yul\":14:980   */\n    tag_8:\n      0x00\n        /* \"#utility.yul\":135:137   */\n      0x20\n        /* \"#utility.yul\":123:132   */\n      dup3\n        /* \"#utility.yul\":114:121   */\n      dup5\n        /* \"#utility.yul\":110:133   */\n      sub\n        /* \"#utility.yul\":106:138   */\n      slt\n        /* \"#utility.yul\":103:105   */\n      iszero\n      tag_189\n      jumpi\n        /* \"#utility.yul\":156:162   */\n      dup1\n        /* \"#utility.yul\":148:154   */\n      dup2\n        /* \"#utility.yul\":141:163   */\n      revert\n        /* \"#utility.yul\":103:105   */\n    tag_189:\n        /* \"#utility.yul\":201:210   */\n      dup2\n        /* \"#utility.yul\":188:211   */\n      calldataload\n        /* \"#utility.yul\":230:248   */\n      0xffffffffffffffff\n        /* \"#utility.yul\":271:273   */\n      dup1\n        /* \"#utility.yul\":263:269   */\n      dup3\n        /* \"#utility.yul\":260:274   */\n      gt\n        /* \"#utility.yul\":257:259   */\n      iszero\n      tag_190\n      jumpi\n        /* \"#utility.yul\":292:298   */\n      dup3\n        /* \"#utility.yul\":284:290   */\n      dup4\n        /* \"#utility.yul\":277:299   */\n      revert\n        /* \"#utility.yul\":257:259   */\n    tag_190:\n        /* \"#utility.yul\":335:341   */\n      dup2\n        /* \"#utility.yul\":324:333   */\n      dup5\n        /* \"#utility.yul\":320:342   */\n      add\n        /* \"#utility.yul\":310:342   */\n      swap2\n      pop\n        /* \"#utility.yul\":380:387   */\n      dup5\n        /* \"#utility.yul\":373:377   */\n      0x1f\n        /* \"#utility.yul\":369:371   */\n      dup4\n        /* \"#utility.yul\":365:378   */\n      add\n        /* \"#utility.yul\":361:388   */\n      slt\n        /* \"#utility.yul\":351:353   */\n      tag_191\n      jumpi\n        /* \"#utility.yul\":407:413   */\n      dup3\n        /* \"#utility.yul\":399:405   */\n      dup4\n        /* \"#utility.yul\":392:414   */\n      revert\n        /* \"#utility.yul\":351:353   */\n    tag_191:\n        /* \"#utility.yul\":448:450   */\n      dup2\n        /* \"#utility.yul\":435:451   */\n      calldataload\n        /* \"#utility.yul\":470:472   */\n      dup2\n        /* \"#utility.yul\":466:468   */\n      dup2\n        /* \"#utility.yul\":463:473   */\n      gt\n        /* \"#utility.yul\":460:462   */\n      iszero\n      tag_193\n      jumpi\n        /* \"#utility.yul\":476:494   */\n      tag_193\n      tag_194\n      jump\t// in\n    tag_193:\n        /* \"#utility.yul\":551:553   */\n      0x40\n        /* \"#utility.yul\":545:554   */\n      mload\n        /* \"#utility.yul\":519:521   */\n      0x1f\n        /* \"#utility.yul\":605:618   */\n      dup3\n      add\n      not(0x1f)\n        /* \"#utility.yul\":601:623   */\n      swap1\n      dup2\n      and\n        /* \"#utility.yul\":625:627   */\n      0x3f\n        /* \"#utility.yul\":597:628   */\n      add\n        /* \"#utility.yul\":593:633   */\n      and\n        /* \"#utility.yul\":581:634   */\n      dup2\n      add\n      swap1\n        /* \"#utility.yul\":649:667   */\n      dup4\n      dup3\n      gt\n        /* \"#utility.yul\":669:691   */\n      dup2\n      dup4\n      lt\n        /* \"#utility.yul\":646:692   */\n      or\n        /* \"#utility.yul\":643:645   */\n      iszero\n      tag_196\n      jumpi\n        /* \"#utility.yul\":695:713   */\n      tag_196\n      tag_194\n      jump\t// in\n    tag_196:\n        /* \"#utility.yul\":735:745   */\n      dup2\n        /* \"#utility.yul\":731:733   */\n      0x40\n        /* \"#utility.yul\":724:746   */\n      mstore\n        /* \"#utility.yul\":770:772   */\n      dup3\n        /* \"#utility.yul\":762:768   */\n      dup2\n        /* \"#utility.yul\":755:773   */\n      mstore\n        /* \"#utility.yul\":810:817   */\n      dup8\n        /* \"#utility.yul\":805:807   */\n      0x20\n        /* \"#utility.yul\":800:802   */\n      dup5\n        /* \"#utility.yul\":796:798   */\n      dup8\n        /* \"#utility.yul\":792:803   */\n      add\n        /* \"#utility.yul\":788:808   */\n      add\n        /* \"#utility.yul\":785:818   */\n      gt\n        /* \"#utility.yul\":782:784   */\n      iszero\n      tag_197\n      jumpi\n        /* \"#utility.yul\":836:842   */\n      dup6\n        /* \"#utility.yul\":828:834   */\n      dup7\n        /* \"#utility.yul\":821:843   */\n      revert\n        /* \"#utility.yul\":782:784   */\n    tag_197:\n        /* \"#utility.yul\":897:899   */\n      dup3\n        /* \"#utility.yul\":892:894   */\n      0x20\n        /* \"#utility.yul\":888:890   */\n      dup7\n        /* \"#utility.yul\":884:895   */\n      add\n        /* \"#utility.yul\":879:881   */\n      0x20\n        /* \"#utility.yul\":871:877   */\n      dup4\n        /* \"#utility.yul\":867:882   */\n      add\n        /* \"#utility.yul\":854:900   */\n      calldatacopy\n        /* \"#utility.yul\":920:935   */\n      swap2\n      dup3\n      add\n        /* \"#utility.yul\":937:939   */\n      0x20\n        /* \"#utility.yul\":916:940   */\n      add\n        /* \"#utility.yul\":909:949   */\n      swap5\n      swap1\n      swap5\n      mstore\n        /* \"#utility.yul\":924:930   */\n      swap6\n        /* \"#utility.yul\":93:980   */\n      swap5\n      pop\n      pop\n      pop\n      pop\n      pop\n      jump\t// out\n        /* \"#utility.yul\":985:1460   */\n    tag_198:\n      0x00\n        /* \"#utility.yul\":1064:1069   */\n      dup2\n        /* \"#utility.yul\":1058:1070   */\n      mload\n        /* \"#utility.yul\":1091:1097   */\n      dup1\n        /* \"#utility.yul\":1086:1089   */\n      dup5\n        /* \"#utility.yul\":1079:1098   */\n      mstore\n        /* \"#utility.yul\":1116:1119   */\n      dup2\n        /* \"#utility.yul\":1128:1290   */\n    tag_200:\n        /* \"#utility.yul\":1142:1148   */\n      dup2\n        /* \"#utility.yul\":1139:1140   */\n      dup2\n        /* \"#utility.yul\":1136:1149   */\n      lt\n        /* \"#utility.yul\":1128:1290   */\n      iszero\n      tag_202\n      jumpi\n        /* \"#utility.yul\":1204:1208   */\n      0x20\n        /* \"#utility.yul\":1260:1273   */\n      dup2\n      dup6\n      add\n        /* \"#utility.yul\":1256:1278   */\n      dup2\n      add\n        /* \"#utility.yul\":1250:1279   */\n      mload\n        /* \"#utility.yul\":1232:1243   */\n      dup7\n      dup4\n      add\n        /* \"#utility.yul\":1228:1248   */\n      dup3\n      add\n        /* \"#utility.yul\":1221:1280   */\n      mstore\n        /* \"#utility.yul\":1157:1169   */\n      add\n        /* \"#utility.yul\":1128:1290   */\n      jump(tag_200)\n    tag_202:\n        /* \"#utility.yul\":1308:1314   */\n      dup2\n        /* \"#utility.yul\":1305:1306   */\n      dup2\n        /* \"#utility.yul\":1302:1315   */\n      gt\n        /* \"#utility.yul\":1299:1301   */\n      iszero\n      tag_203\n      jumpi\n        /* \"#utility.yul\":1374:1377   */\n      dup3\n        /* \"#utility.yul\":1367:1371   */\n      0x20\n        /* \"#utility.yul\":1358:1364   */\n      dup4\n        /* \"#utility.yul\":1353:1356   */\n      dup8\n        /* \"#utility.yul\":1349:1365   */\n      add\n        /* \"#utility.yul\":1345:1372   */\n      add\n        /* \"#utility.yul\":1338:1378   */\n      mstore\n        /* \"#utility.yul\":1299:1301   */\n    tag_203:\n      pop\n        /* \"#utility.yul\":1442:1444   */\n      0x1f\n        /* \"#utility.yul\":1421:1436   */\n      add\n      not(0x1f)\n        /* \"#utility.yul\":1417:1446   */\n      and\n        /* \"#utility.yul\":1408:1447   */\n      swap3\n      swap1\n      swap3\n      add\n        /* \"#utility.yul\":1449:1453   */\n      0x20\n        /* \"#utility.yul\":1404:1454   */\n      add\n      swap3\n        /* \"#utility.yul\":1034:1460   */\n      swap2\n      pop\n      pop\n      jump\t// out\n        /* \"#utility.yul\":1465:1834   */\n    tag_204:\n      0x00\n        /* \"#utility.yul\":1559:1564   */\n      dup2\n        /* \"#utility.yul\":1553:1565   */\n      mload\n        /* \"#utility.yul\":1586:1590   */\n      0x40\n        /* \"#utility.yul\":1581:1584   */\n      dup5\n        /* \"#utility.yul\":1574:1591   */\n      mstore\n        /* \"#utility.yul\":1612:1658   */\n      tag_206\n        /* \"#utility.yul\":1652:1656   */\n      0x40\n        /* \"#utility.yul\":1647:1650   */\n      dup6\n        /* \"#utility.yul\":1643:1657   */\n      add\n        /* \"#utility.yul\":1629:1641   */\n      dup3\n        /* \"#utility.yul\":1612:1658   */\n      tag_198\n      jump\t// in\n    tag_206:\n        /* \"#utility.yul\":1600:1658   */\n      swap1\n      pop\n        /* \"#utility.yul\":1706:1710   */\n      0x20\n        /* \"#utility.yul\":1699:1704   */\n      dup4\n        /* \"#utility.yul\":1695:1711   */\n      add\n        /* \"#utility.yul\":1689:1712   */\n      mload\n        /* \"#utility.yul\":1754:1757   */\n      dup5\n        /* \"#utility.yul\":1748:1752   */\n      dup3\n        /* \"#utility.yul\":1744:1758   */\n      sub\n        /* \"#utility.yul\":1737:1741   */\n      0x20\n        /* \"#utility.yul\":1732:1735   */\n      dup7\n        /* \"#utility.yul\":1728:1742   */\n      add\n        /* \"#utility.yul\":1721:1759   */\n      mstore\n        /* \"#utility.yul\":1775:1828   */\n      tag_207\n        /* \"#utility.yul\":1823:1827   */\n      dup3\n        /* \"#utility.yul\":1807:1821   */\n      dup3\n        /* \"#utility.yul\":1775:1828   */\n      tag_208\n      jump\t// in\n    tag_207:\n        /* \"#utility.yul\":1768:1828   */\n      swap6\n        /* \"#utility.yul\":1523:1834   */\n      swap5\n      pop\n      pop\n      pop\n      pop\n      pop\n      jump\t// out\n        /* \"#utility.yul\":1839:2112   */\n    tag_208:\n      0x00\n        /* \"#utility.yul\":1943:1953   */\n      0xffffffff\n        /* \"#utility.yul\":1935:1940   */\n      dup3\n        /* \"#utility.yul\":1929:1941   */\n      mload\n        /* \"#utility.yul\":1925:1954   */\n      and\n        /* \"#utility.yul\":1920:1923   */\n      dup4\n        /* \"#utility.yul\":1913:1955   */\n      mstore\n        /* \"#utility.yul\":2001:2005   */\n      0x20\n        /* \"#utility.yul\":1994:1999   */\n      dup3\n        /* \"#utility.yul\":1990:2006   */\n      add\n        /* \"#utility.yul\":1984:2007   */\n      mload\n        /* \"#utility.yul\":2039:2043   */\n      0x40\n        /* \"#utility.yul\":2032:2036   */\n      0x20\n        /* \"#utility.yul\":2027:2030   */\n      dup6\n        /* \"#utility.yul\":2023:2037   */\n      add\n        /* \"#utility.yul\":2016:2044   */\n      mstore\n        /* \"#utility.yul\":2060:2106   */\n      tag_210\n        /* \"#utility.yul\":2100:2104   */\n      0x40\n        /* \"#utility.yul\":2095:2098   */\n      dup6\n        /* \"#utility.yul\":2091:2105   */\n      add\n        /* \"#utility.yul\":2077:2089   */\n      dup3\n        /* \"#utility.yul\":2060:2106   */\n      tag_198\n      jump\t// in\n    tag_210:\n        /* \"#utility.yul\":2053:2106   */\n      swap5\n        /* \"#utility.yul\":1903:2112   */\n      swap4\n      pop\n      pop\n      pop\n      pop\n      jump\t// out\n        /* \"#utility.yul\":2432:2698   */\n    tag_26:\n      0x00\n        /* \"#utility.yul\":2619:2621   */\n      0x20\n        /* \"#utility.yul\":2608:2617   */\n      dup3\n        /* \"#utility.yul\":2601:2622   */\n      mstore\n        /* \"#utility.yul\":2639:2692   */\n      tag_216\n        /* \"#utility.yul\":2688:2690   */\n      0x20\n        /* \"#utility.yul\":2677:2686   */\n      dup4\n        /* \"#utility.yul\":2673:2691   */\n      add\n        /* \"#utility.yul\":2665:2671   */\n      dup5\n        /* \"#utility.yul\":2639:2692   */\n      tag_204\n      jump\t// in\n    tag_216:\n        /* \"#utility.yul\":2631:2692   */\n      swap4\n        /* \"#utility.yul\":2591:2698   */\n      swap3\n      pop\n      pop\n      pop\n      jump\t// out\n        /* \"#utility.yul\":2703:5404   */\n    tag_11:\n        /* \"#utility.yul\":2886:2888   */\n      0x20\n        /* \"#utility.yul\":2868:2889   */\n      dup1\n      dup3\n      mstore\n        /* \"#utility.yul\":2924:2937   */\n      dup3\n      mload\n        /* \"#utility.yul\":2231:2243   */\n      dup1\n      mload\n        /* \"#utility.yul\":2188:2206   */\n      0xffffffffffffffff\n        /* \"#utility.yul\":2227:2248   */\n      swap1\n      dup2\n      and\n        /* \"#utility.yul\":2939:2957   */\n      dup5\n      dup5\n      add\n        /* \"#utility.yul\":2215:2249   */\n      mstore\n        /* \"#utility.yul\":2291:2307   */\n      swap2\n      add\n        /* \"#utility.yul\":2285:2308   */\n      mload\n        /* \"#utility.yul\":2281:2313   */\n      and\n        /* \"#utility.yul\":2265:2279   */\n      0x40\n      dup3\n      add\n        /* \"#utility.yul\":2258:2314   */\n      mstore\n        /* \"#utility.yul\":2703:5404   */\n      0x00\n        /* \"#utility.yul\":3005:3007   */\n      0x20\n        /* \"#utility.yul\":2997:3003   */\n      dup4\n        /* \"#utility.yul\":2993:3008   */\n      add\n        /* \"#utility.yul\":2987:3009   */\n      mload\n        /* \"#utility.yul\":3028:3034   */\n      0x01e0\n        /* \"#utility.yul\":3070:3072   */\n      dup1\n        /* \"#utility.yul\":3065:3067   */\n      0x60\n        /* \"#utility.yul\":3054:3063   */\n      dup6\n        /* \"#utility.yul\":3050:3068   */\n      add\n        /* \"#utility.yul\":3043:3073   */\n      mstore\n        /* \"#utility.yul\":3096:3147   */\n      tag_219\n        /* \"#utility.yul\":3142:3145   */\n      0x0200\n        /* \"#utility.yul\":3131:3140   */\n      dup6\n        /* \"#utility.yul\":3127:3146   */\n      add\n        /* \"#utility.yul\":3113:3125   */\n      dup4\n        /* \"#utility.yul\":3096:3147   */\n      tag_198\n      jump\t// in\n    tag_219:\n        /* \"#utility.yul\":3082:3147   */\n      swap2\n      pop\n        /* \"#utility.yul\":3196:3200   */\n      0x40\n        /* \"#utility.yul\":3188:3194   */\n      dup6\n        /* \"#utility.yul\":3184:3201   */\n      add\n        /* \"#utility.yul\":3178:3202   */\n      mload\n        /* \"#utility.yul\":3211:3265   */\n      tag_220\n        /* \"#utility.yul\":3260:3263   */\n      0x80\n        /* \"#utility.yul\":3249:3258   */\n      dup7\n        /* \"#utility.yul\":3245:3264   */\n      add\n        /* \"#utility.yul\":3229:3243   */\n      dup3\n        /* \"#utility.yul\":2401:2419   */\n      0xffffffffffffffff\n        /* \"#utility.yul\":2390:2420   */\n      and\n        /* \"#utility.yul\":2378:2421   */\n      swap1\n      mstore\n        /* \"#utility.yul\":2368:2427   */\n      jump\n        /* \"#utility.yul\":3211:3265   */\n    tag_220:\n      pop\n        /* \"#utility.yul\":3314:3316   */\n      0x60\n        /* \"#utility.yul\":3302:3317   */\n      dup6\n      add\n        /* \"#utility.yul\":3296:3318   */\n      mload\n        /* \"#utility.yul\":2401:2419   */\n      0xffffffffffffffff\n        /* \"#utility.yul\":2390:2420   */\n      and\n        /* \"#utility.yul\":3376:3379   */\n      0xa0\n        /* \"#utility.yul\":3361:3380   */\n      dup6\n      add\n        /* \"#utility.yul\":2378:2421   */\n      mstore\n        /* \"#utility.yul\":3430:3433   */\n      0x80\n        /* \"#utility.yul\":3418:3434   */\n      dup6\n      add\n        /* \"#utility.yul\":3412:3435   */\n      mload\n      not(0x1f)\n        /* \"#utility.yul\":3502:3524   */\n      dup6\n      dup5\n      sub\n        /* \"#utility.yul\":3498:3529   */\n      dup2\n      add\n        /* \"#utility.yul\":3492:3495   */\n      0xc0\n        /* \"#utility.yul\":3477:3496   */\n      dup8\n      add\n        /* \"#utility.yul\":3470:3530   */\n      mstore\n        /* \"#utility.yul\":3553:3602   */\n      tag_222\n        /* \"#utility.yul\":3502:3524   */\n      dup5\n        /* \"#utility.yul\":3412:3435   */\n      dup4\n        /* \"#utility.yul\":3553:3602   */\n      tag_204\n      jump\t// in\n    tag_222:\n        /* \"#utility.yul\":3539:3602   */\n      swap4\n      pop\n        /* \"#utility.yul\":3651:3654   */\n      0xa0\n        /* \"#utility.yul\":3643:3649   */\n      dup8\n        /* \"#utility.yul\":3639:3655   */\n      add\n        /* \"#utility.yul\":3633:3656   */\n      mload\n        /* \"#utility.yul\":3611:3656   */\n      swap2\n      pop\n        /* \"#utility.yul\":3721:3723   */\n      dup1\n        /* \"#utility.yul\":3709:3718   */\n      dup7\n        /* \"#utility.yul\":3701:3707   */\n      dup6\n        /* \"#utility.yul\":3697:3719   */\n      sub\n        /* \"#utility.yul\":3693:3724   */\n      add\n        /* \"#utility.yul\":3687:3690   */\n      0xe0\n        /* \"#utility.yul\":3676:3685   */\n      dup8\n        /* \"#utility.yul\":3672:3691   */\n      add\n        /* \"#utility.yul\":3665:3725   */\n      mstore\n        /* \"#utility.yul\":3748:3788   */\n      tag_223\n        /* \"#utility.yul\":3781:3787   */\n      dup5\n        /* \"#utility.yul\":3765:3779   */\n      dup4\n        /* \"#utility.yul\":3748:3788   */\n      tag_198\n      jump\t// in\n    tag_223:\n        /* \"#utility.yul\":3734:3788   */\n      swap4\n      pop\n        /* \"#utility.yul\":3837:3840   */\n      0xc0\n        /* \"#utility.yul\":3829:3835   */\n      dup8\n        /* \"#utility.yul\":3825:3841   */\n      add\n        /* \"#utility.yul\":3819:3842   */\n      mload\n        /* \"#utility.yul\":3797:3842   */\n      swap2\n      pop\n        /* \"#utility.yul\":3861:3864   */\n      0x0100\n        /* \"#utility.yul\":3928:3930   */\n      dup2\n        /* \"#utility.yul\":3916:3925   */\n      dup8\n        /* \"#utility.yul\":3908:3914   */\n      dup7\n        /* \"#utility.yul\":3904:3926   */\n      sub\n        /* \"#utility.yul\":3900:3931   */\n      add\n        /* \"#utility.yul\":3895:3897   */\n      dup2\n        /* \"#utility.yul\":3884:3893   */\n      dup9\n        /* \"#utility.yul\":3880:3898   */\n      add\n        /* \"#utility.yul\":3873:3932   */\n      mstore\n        /* \"#utility.yul\":3955:3995   */\n      tag_224\n        /* \"#utility.yul\":3988:3994   */\n      dup6\n        /* \"#utility.yul\":3972:3986   */\n      dup5\n        /* \"#utility.yul\":3955:3995   */\n      tag_198\n      jump\t// in\n    tag_224:\n        /* \"#utility.yul\":3941:3995   */\n      swap5\n      pop\n        /* \"#utility.yul\":4044:4047   */\n      0xe0\n        /* \"#utility.yul\":4036:4042   */\n      dup9\n        /* \"#utility.yul\":4032:4048   */\n      add\n        /* \"#utility.yul\":4026:4049   */\n      mload\n        /* \"#utility.yul\":4004:4049   */\n      swap3\n      pop\n        /* \"#utility.yul\":4068:4071   */\n      0x0120\n        /* \"#utility.yul\":4135:4137   */\n      dup3\n        /* \"#utility.yul\":4123:4132   */\n      dup9\n        /* \"#utility.yul\":4115:4121   */\n      dup8\n        /* \"#utility.yul\":4111:4133   */\n      sub\n        /* \"#utility.yul\":4107:4138   */\n      add\n        /* \"#utility.yul\":4102:4104   */\n      dup2\n        /* \"#utility.yul\":4091:4100   */\n      dup10\n        /* \"#utility.yul\":4087:4105   */\n      add\n        /* \"#utility.yul\":4080:4139   */\n      mstore\n        /* \"#utility.yul\":4162:4202   */\n      tag_225\n        /* \"#utility.yul\":4195:4201   */\n      dup7\n        /* \"#utility.yul\":4179:4193   */\n      dup6\n        /* \"#utility.yul\":4162:4202   */\n      tag_198\n      jump\t// in\n    tag_225:\n        /* \"#utility.yul\":4148:4202   */\n      swap6\n      pop\n        /* \"#utility.yul\":4251:4253   */\n      dup2\n        /* \"#utility.yul\":4243:4249   */\n      dup10\n        /* \"#utility.yul\":4239:4254   */\n      add\n        /* \"#utility.yul\":4233:4255   */\n      mload\n        /* \"#utility.yul\":4211:4255   */\n      swap4\n      pop\n        /* \"#utility.yul\":4274:4277   */\n      0x0140\n        /* \"#utility.yul\":4264:4277   */\n      swap2\n      pop\n        /* \"#utility.yul\":4341:4343   */\n      dup3\n        /* \"#utility.yul\":4329:4338   */\n      dup9\n        /* \"#utility.yul\":4321:4327   */\n      dup8\n        /* \"#utility.yul\":4317:4339   */\n      sub\n        /* \"#utility.yul\":4313:4344   */\n      add\n        /* \"#utility.yul\":4308:4310   */\n      dup3\n        /* \"#utility.yul\":4297:4306   */\n      dup10\n        /* \"#utility.yul\":4293:4311   */\n      add\n        /* \"#utility.yul\":4286:4345   */\n      mstore\n        /* \"#utility.yul\":4368:4408   */\n      tag_226\n        /* \"#utility.yul\":4401:4407   */\n      dup7\n        /* \"#utility.yul\":4385:4399   */\n      dup6\n        /* \"#utility.yul\":4368:4408   */\n      tag_198\n      jump\t// in\n    tag_226:\n        /* \"#utility.yul\":4354:4408   */\n      swap6\n      pop\n        /* \"#utility.yul\":4457:4459   */\n      dup1\n        /* \"#utility.yul\":4449:4455   */\n      dup10\n        /* \"#utility.yul\":4445:4460   */\n      add\n        /* \"#utility.yul\":4439:4461   */\n      mload\n        /* \"#utility.yul\":4417:4461   */\n      swap4\n      pop\n      pop\n        /* \"#utility.yul\":4480:4483   */\n      0x0160\n        /* \"#utility.yul\":4547:4549   */\n      dup3\n        /* \"#utility.yul\":4535:4544   */\n      dup9\n        /* \"#utility.yul\":4527:4533   */\n      dup8\n        /* \"#utility.yul\":4523:4545   */\n      sub\n        /* \"#utility.yul\":4519:4550   */\n      add\n        /* \"#utility.yul\":4514:4516   */\n      dup2\n        /* \"#utility.yul\":4503:4512   */\n      dup10\n        /* \"#utility.yul\":4499:4517   */\n      add\n        /* \"#utility.yul\":4492:4551   */\n      mstore\n        /* \"#utility.yul\":4574:4614   */\n      tag_227\n        /* \"#utility.yul\":4607:4613   */\n      dup7\n        /* \"#utility.yul\":4591:4605   */\n      dup6\n        /* \"#utility.yul\":4574:4614   */\n      tag_198\n      jump\t// in\n    tag_227:\n        /* \"#utility.yul\":4560:4614   */\n      swap6\n      pop\n        /* \"#utility.yul\":4663:4665   */\n      dup2\n        /* \"#utility.yul\":4655:4661   */\n      dup10\n        /* \"#utility.yul\":4651:4666   */\n      add\n        /* \"#utility.yul\":4645:4667   */\n      mload\n        /* \"#utility.yul\":4623:4667   */\n      swap4\n      pop\n        /* \"#utility.yul\":4686:4689   */\n      0x0180\n        /* \"#utility.yul\":4676:4689   */\n      swap2\n      pop\n        /* \"#utility.yul\":4753:4755   */\n      dup3\n        /* \"#utility.yul\":4741:4750   */\n      dup9\n        /* \"#utility.yul\":4733:4739   */\n      dup8\n        /* \"#utility.yul\":4729:4751   */\n      sub\n        /* \"#utility.yul\":4725:4756   */\n      add\n        /* \"#utility.yul\":4720:4722   */\n      dup3\n        /* \"#utility.yul\":4709:4718   */\n      dup10\n        /* \"#utility.yul\":4705:4723   */\n      add\n        /* \"#utility.yul\":4698:4757   */\n      mstore\n        /* \"#utility.yul\":4780:4820   */\n      tag_228\n        /* \"#utility.yul\":4813:4819   */\n      dup7\n        /* \"#utility.yul\":4797:4811   */\n      dup6\n        /* \"#utility.yul\":4780:4820   */\n      tag_198\n      jump\t// in\n    tag_228:\n        /* \"#utility.yul\":4766:4820   */\n      swap6\n      pop\n        /* \"#utility.yul\":4870:4872   */\n      dup1\n        /* \"#utility.yul\":4862:4868   */\n      dup10\n        /* \"#utility.yul\":4858:4873   */\n      add\n        /* \"#utility.yul\":4852:4874   */\n      mload\n        /* \"#utility.yul\":4829:4874   */\n      swap4\n      pop\n      pop\n        /* \"#utility.yul\":4893:4896   */\n      0x01a0\n        /* \"#utility.yul\":4960:4962   */\n      dup3\n        /* \"#utility.yul\":4948:4957   */\n      dup9\n        /* \"#utility.yul\":4940:4946   */\n      dup8\n        /* \"#utility.yul\":4936:4958   */\n      sub\n        /* \"#utility.yul\":4932:4963   */\n      add\n        /* \"#utility.yul\":4927:4929   */\n      dup2\n        /* \"#utility.yul\":4916:4925   */\n      dup10\n        /* \"#utility.yul\":4912:4930   */\n      add\n        /* \"#utility.yul\":4905:4964   */\n      mstore\n        /* \"#utility.yul\":4987:5028   */\n      tag_229\n        /* \"#utility.yul\":5021:5027   */\n      dup7\n        /* \"#utility.yul\":5004:5019   */\n      dup6\n        /* \"#utility.yul\":4987:5028   */\n      tag_198\n      jump\t// in\n    tag_229:\n        /* \"#utility.yul\":4973:5028   */\n      swap6\n      pop\n        /* \"#utility.yul\":5078:5080   */\n      dup2\n        /* \"#utility.yul\":5070:5076   */\n      dup10\n        /* \"#utility.yul\":5066:5081   */\n      add\n        /* \"#utility.yul\":5060:5082   */\n      mload\n        /* \"#utility.yul\":5037:5082   */\n      swap4\n      pop\n        /* \"#utility.yul\":5147:5149   */\n      dup3\n        /* \"#utility.yul\":5135:5144   */\n      dup9\n        /* \"#utility.yul\":5127:5133   */\n      dup8\n        /* \"#utility.yul\":5123:5145   */\n      sub\n        /* \"#utility.yul\":5119:5150   */\n      add\n        /* \"#utility.yul\":5113:5116   */\n      0x01c0\n        /* \"#utility.yul\":5102:5111   */\n      dup10\n        /* \"#utility.yul\":5098:5117   */\n      add\n        /* \"#utility.yul\":5091:5151   */\n      mstore\n        /* \"#utility.yul\":5175:5216   */\n      tag_230\n        /* \"#utility.yul\":5209:5215   */\n      dup7\n        /* \"#utility.yul\":5192:5207   */\n      dup6\n        /* \"#utility.yul\":5175:5216   */\n      tag_198\n      jump\t// in\n    tag_230:\n        /* \"#utility.yul\":5160:5216   */\n      swap6\n      pop\n        /* \"#utility.yul\":5266:5268   */\n      dup1\n        /* \"#utility.yul\":5258:5264   */\n      dup10\n        /* \"#utility.yul\":5254:5269   */\n      add\n        /* \"#utility.yul\":5248:5270   */\n      mload\n        /* \"#utility.yul\":5225:5270   */\n      swap4\n      pop\n      pop\n      pop\n        /* \"#utility.yul\":5335:5337   */\n      dup1\n        /* \"#utility.yul\":5323:5332   */\n      dup7\n        /* \"#utility.yul\":5314:5321   */\n      dup6\n        /* \"#utility.yul\":5310:5333   */\n      sub\n        /* \"#utility.yul\":5306:5338   */\n      add\n        /* \"#utility.yul\":5301:5303   */\n      dup4\n        /* \"#utility.yul\":5290:5299   */\n      dup8\n        /* \"#utility.yul\":5286:5304   */\n      add\n        /* \"#utility.yul\":5279:5339   */\n      mstore\n      pop\n        /* \"#utility.yul\":5356:5398   */\n      tag_231\n        /* \"#utility.yul\":5390:5397   */\n      dup4\n        /* \"#utility.yul\":5373:5388   */\n      dup3\n        /* \"#utility.yul\":5356:5398   */\n      tag_198\n      jump\t// in\n    tag_231:\n        /* \"#utility.yul\":5348:5398   */\n      swap7\n        /* \"#utility.yul\":2858:5404   */\n      swap6\n      pop\n      pop\n      pop\n      pop\n      pop\n      pop\n      jump\t// out\n        /* \"#utility.yul\":5409:5693   */\n    tag_16:\n      0x00\n        /* \"#utility.yul\":5608:5610   */\n      0x20\n        /* \"#utility.yul\":5597:5606   */\n      dup3\n        /* \"#utility.yul\":5590:5611   */\n      mstore\n        /* \"#utility.yul\":5628:5687   */\n      tag_216\n        /* \"#utility.yul\":5683:5685   */\n      0x20\n        /* \"#utility.yul\":5672:5681   */\n      dup4\n        /* \"#utility.yul\":5668:5686   */\n      add\n        /* \"#utility.yul\":5660:5666   */\n      dup5\n        /* \"#utility.yul\":5628:5687   */\n      tag_208\n      jump\t// in\n        /* \"#utility.yul\":5698:5952   */\n    tag_21:\n        /* \"#utility.yul\":5890:5892   */\n      0x40\n        /* \"#utility.yul\":5875:5893   */\n      dup2\n      add\n        /* \"#utility.yul\":5902:5946   */\n      tag_235\n        /* \"#utility.yul\":5879:5888   */\n      dup3\n        /* \"#utility.yul\":5928:5934   */\n      dup5\n        /* \"#utility.yul\":2231:2243   */\n      dup1\n      mload\n        /* \"#utility.yul\":2188:2206   */\n      0xffffffffffffffff\n        /* \"#utility.yul\":2227:2248   */\n      swap1\n      dup2\n      and\n        /* \"#utility.yul\":2215:2249   */\n      dup4\n      mstore\n        /* \"#utility.yul\":2302:2306   */\n      0x20\n        /* \"#utility.yul\":2291:2307   */\n      swap2\n      dup3\n      add\n        /* \"#utility.yul\":2285:2308   */\n      mload\n        /* \"#utility.yul\":2281:2313   */\n      and\n        /* \"#utility.yul\":2265:2279   */\n      swap2\n      add\n        /* \"#utility.yul\":2258:2314   */\n      mstore\n        /* \"#utility.yul\":2168:2320   */\n      jump\n        /* \"#utility.yul\":5902:5946   */\n    tag_235:\n        /* \"#utility.yul\":5857:5952   */\n      swap3\n      swap2\n      pop\n      pop\n      jump\t// out\n        /* \"#utility.yul\":5957:6085   */\n    tag_152:\n      0x00\n        /* \"#utility.yul\":6028:6029   */\n      dup3\n        /* \"#utility.yul\":6024:6030   */\n      not\n        /* \"#utility.yul\":6021:6022   */\n      dup3\n        /* \"#utility.yul\":6018:6031   */\n      gt\n        /* \"#utility.yul\":6015:6017   */\n      iszero\n      tag_238\n      jumpi\n        /* \"#utility.yul\":6034:6052   */\n      tag_238\n      tag_239\n      jump\t// in\n    tag_238:\n      pop\n        /* \"#utility.yul\":6070:6079   */\n      add\n      swap1\n        /* \"#utility.yul\":6005:6085   */\n      jump\t// out\n        /* \"#utility.yul\":6090:6307   */\n    tag_147:\n      0x00\n        /* \"#utility.yul\":6156:6157   */\n      dup3\n        /* \"#utility.yul\":6146:6148   */\n      tag_241\n      jumpi\n      shl(0xe0, 0x4e487b71)\n        /* \"#utility.yul\":6181:6212   */\n      dup2\n      mstore\n        /* \"#utility.yul\":6235:6239   */\n      0x12\n        /* \"#utility.yul\":6232:6233   */\n      0x04\n        /* \"#utility.yul\":6225:6240   */\n      mstore\n        /* \"#utility.yul\":6263:6267   */\n      0x24\n        /* \"#utility.yul\":6188:6189   */\n      dup2\n        /* \"#utility.yul\":6253:6268   */\n      revert\n        /* \"#utility.yul\":6146:6148   */\n    tag_241:\n      pop\n        /* \"#utility.yul\":6292:6301   */\n      div\n      swap1\n        /* \"#utility.yul\":6136:6307   */\n      jump\t// out\n        /* \"#utility.yul\":6312:6480   */\n    tag_165:\n      0x00\n        /* \"#utility.yul\":6418:6419   */\n      dup2\n        /* \"#utility.yul\":6414:6415   */\n      0x00\n        /* \"#utility.yul\":6410:6416   */\n      not\n        /* \"#utility.yul\":6406:6420   */\n      div\n        /* \"#utility.yul\":6403:6404   */\n      dup4\n        /* \"#utility.yul\":6400:6421   */\n      gt\n        /* \"#utility.yul\":6395:6396   */\n      dup3\n        /* \"#utility.yul\":6388:6397   */\n      iszero\n        /* \"#utility.yul\":6381:6398   */\n      iszero\n        /* \"#utility.yul\":6377:6422   */\n      and\n        /* \"#utility.yul\":6374:6376   */\n      iszero\n      tag_244\n      jumpi\n        /* \"#utility.yul\":6425:6443   */\n      tag_244\n      tag_239\n      jump\t// in\n    tag_244:\n      pop\n        /* \"#utility.yul\":6465:6474   */\n      mul\n      swap1\n        /* \"#utility.yul\":6364:6480   */\n      jump\t// out\n        /* \"#utility.yul\":6485:6620   */\n    tag_170:\n      0x00\n      not(0x00)\n        /* \"#utility.yul\":6545:6562   */\n      dup3\n      eq\n        /* \"#utility.yul\":6542:6544   */\n      iszero\n      tag_247\n      jumpi\n        /* \"#utility.yul\":6565:6583   */\n      tag_247\n      tag_239\n      jump\t// in\n    tag_247:\n      pop\n        /* \"#utility.yul\":6612:6613   */\n      0x01\n        /* \"#utility.yul\":6601:6614   */\n      add\n      swap1\n        /* \"#utility.yul\":6532:6620   */\n      jump\t// out\n        /* \"#utility.yul\":6625:6752   */\n    tag_239:\n        /* \"#utility.yul\":6686:6696   */\n      0x4e487b71\n        /* \"#utility.yul\":6681:6684   */\n      0xe0\n        /* \"#utility.yul\":6677:6697   */\n      shl\n        /* \"#utility.yul\":6674:6675   */\n      0x00\n        /* \"#utility.yul\":6667:6698   */\n      mstore\n        /* \"#utility.yul\":6717:6721   */\n      0x11\n        /* \"#utility.yul\":6714:6715   */\n      0x04\n        /* \"#utility.yul\":6707:6722   */\n      mstore\n        /* \"#utility.yul\":6741:6745   */\n      0x24\n        /* \"#utility.yul\":6738:6739   */\n      0x00\n        /* \"#utility.yul\":6731:6746   */\n      revert\n        /* \"#utility.yul\":6757:6884   */\n    tag_194:\n        /* \"#utility.yul\":6818:6828   */\n      0x4e487b71\n        /* \"#utility.yul\":6813:6816   */\n      0xe0\n        /* \"#utility.yul\":6809:6829   */\n      shl\n        /* \"#utility.yul\":6806:6807   */\n      0x00\n        /* \"#utility.yul\":6799:6830   */\n      mstore\n        /* \"#utility.yul\":6849:6853   */\n      0x41\n        /* \"#utility.yul\":6846:6847   */\n      0x04\n        /* \"#utility.yul\":6839:6854   */\n      mstore\n        /* \"#utility.yul\":6873:6877   */\n      0x24\n        /* \"#utility.yul\":6870:6871   */\n      0x00\n        /* \"#utility.yul\":6863:6878   */\n      revert\n\n    auxdata: 0xa2646970667358221220338c943b40e2405eabb2d6d12f0ca82f5db42d6e3c02974f7045d98b75a447d564736f6c63430008020033\n}\n",
				"bytecode": {
					"linkReferences": {},
					"object": "610bc961003a600b82828239805160001a60731461002d57634e487b7160e01b600052600060045260246000fd5b30600052607381538281f3fe73000000000000000000000000000000000000000030146080604052600436106100565760003560e01c80638e86ed991461005b578063a6f571a514610084578063bc1c6bd6146100a4578063f9de4e57146100c4575b600080fd5b61006e610069366004610798565b6100e4565b60405161007b919061090b565b60405180910390f35b610097610092366004610798565b6102dc565b60405161007b9190610ab7565b6100b76100b2366004610798565b61037c565b60405161007b9190610aca565b6100d76100d2366004610798565b61041b565b60405161007b91906108f1565b6100ec6106d8565b60408051808201909152600080825260208201849052805b61010d8361049e565b156102d45761011b836104ad565b9092509050816001141561013c576101356100b2846104f5565b84526102cf565b81600214156101585761014e836104f5565b60208501526102cf565b816003141561017e5761016a836105c0565b67ffffffffffffffff1660408501526102cf565b81600414156101a457610190836105c0565b67ffffffffffffffff1660608501526102cf565b81600514156101c3576101b96100d2846104f5565b60808501526102cf565b81600614156101df576101d5836104f5565b60a08501526102cf565b81600714156101fb576101f1836104f5565b60c08501526102cf565b81600814156102175761020d836104f5565b60e08501526102cf565b816009141561023457610229836104f5565b6101008501526102cf565b81600a141561025157610246836104f5565b6101208501526102cf565b81600b141561026e57610263836104f5565b6101408501526102cf565b81600c141561028b57610280836104f5565b6101608501526102cf565b81600d14156102a85761029d836104f5565b6101808501526102cf565b81600e14156102c5576102ba836104f5565b6101a08501526102cf565b6102cf8382610640565b610104565b505050919050565b6040805180820190915260008152606060208201526000610310836040805180820190915260008152602081019190915290565b90506000805b61031f8361049e565b156102d45761032d836104ad565b9092509050816001141561035157610344836105c0565b63ffffffff168452610377565b816002141561036d57610363836104f5565b6020850152610377565b6103778382610640565b610316565b6040805180820182526000808252602080830182905283518085019094528184528301849052909190805b6103b08361049e565b156102d4576103be836104ad565b909250905081600114156103e6576103d5836105c0565b67ffffffffffffffff168452610416565b816002141561040c576103f8836105c0565b67ffffffffffffffff166020850152610416565b6104168382610640565b6103a7565b61042361075e565b60408051808201909152600080825260208201849052805b6104448361049e565b156102d457610452836104ad565b9092509050816001141561047057610469836104f5565b8452610499565b816002141561048f57610485610092846104f5565b6020850152610499565b6104998382610640565b61043b565b6020810151518151105b919050565b60008060006104bb846105c0565b90506104c8600882610b0d565b92508060071660058111156104ed57634e487b7160e01b600052602160045260246000fd5b915050915091565b60606000610502836105c0565b905060008184600001516105169190610af5565b905083602001515181111561052a57600080fd5b8167ffffffffffffffff81111561055157634e487b7160e01b600052604160045260246000fd5b6040519080825280601f01601f19166020018201604052801561057b576020820181803683370190505b50602080860151865192955091818601919083010160005b858110156105b55781810151838201526105ae602082610af5565b9050610593565b505050935250919050565b602080820151825181019091015160009182805b600a81101561063a5783811a91506105ed816007610b2d565b82607f16901b85179450816080166000141561062a5761060e816001610af5565b8651879061061d908390610af5565b9052506104a89350505050565b61063381610b4c565b90506105d4565b50600080fd5b600081600581111561066257634e487b7160e01b600052602160045260246000fd5b141561067757610671826105c0565b506106d4565b600281600581111561069957634e487b7160e01b600052602160045260246000fd5b14156100565760006106aa836105c0565b905080836000018181516106be9190610af5565b9052506020830151518351111561067157600080fd5b5050565b604080516102008101825260006101c082018181526101e083018290528252606060208301819052928201819052918101919091526080810161071961075e565b81526020016060815260200160608152602001606081526020016060815260200160608152602001606081526020016060815260200160608152602001606081525090565b6040518060400160405280606081526020016107936040518060400160405280600063ffffffff168152602001606081525090565b905290565b6000602082840312156107a9578081fd5b813567ffffffffffffffff808211156107c0578283fd5b818401915084601f8301126107d3578283fd5b8135818111156107e5576107e5610b7d565b604051601f8201601f19908116603f0116810190838211818310171561080d5761080d610b7d565b81604052828152876020848701011115610825578586fd5b826020860160208301379182016020019490945295945050505050565b60008151808452815b818110156108675760208185018101518683018201520161084b565b818111156108785782602083870101525b50601f01601f19169290920160200192915050565b60008151604084526108a26040850182610842565b9050602083015184820360208601526108bb82826108c4565b95945050505050565b600063ffffffff82511683526020820151604060208501526108e96040850182610842565b949350505050565b600060208252610904602083018461088d565b9392505050565b60208082528251805167ffffffffffffffff90811684840152910151166040820152600060208301516101e080606085015261094b610200850183610842565b91506040850151610968608086018267ffffffffffffffff169052565b50606085015167ffffffffffffffff1660a08501526080850151601f19858403810160c0870152610999848361088d565b935060a08701519150808685030160e08701526109b68483610842565b935060c087015191506101008187860301818801526109d58584610842565b945060e088015192506101208288870301818901526109f48685610842565b95508189015193506101409150828887030182890152610a148685610842565b955080890151935050610160828887030181890152610a338685610842565b95508189015193506101809150828887030182890152610a538685610842565b9550808901519350506101a0828887030181890152610a728685610842565b955081890151935082888703016101c0890152610a8f8685610842565b9550808901519350505080868503018387015250610aad8382610842565b9695505050505050565b60006020825261090460208301846108c4565b60408101610aef8284805167ffffffffffffffff908116835260209182015116910152565b92915050565b60008219821115610b0857610b08610b67565b500190565b600082610b2857634e487b7160e01b81526012600452602481fd5b500490565b6000816000190483118215151615610b4757610b47610b67565b500290565b6000600019821415610b6057610b60610b67565b5060010190565b634e487b7160e01b600052601160045260246000fd5b634e487b7160e01b600052604160045260246000fdfea2646970667358221220338c943b40e2405eabb2d6d12f0ca82f5db42d6e3c02974f7045d98b75a447d564736f6c63430008020033",
					"opcodes": "PUSH2 0xBC9 PUSH2 0x3A PUSH1 0xB DUP3 DUP3 DUP3 CODECOPY DUP1 MLOAD PUSH1 0x0 BYTE PUSH1 0x73 EQ PUSH2 0x2D JUMPI PUSH4 0x4E487B71 PUSH1 0xE0 SHL PUSH1 0x0 MSTORE PUSH1 0x0 PUSH1 0x4 MSTORE PUSH1 0x24 PUSH1 0x0 REVERT JUMPDEST ADDRESS PUSH1 0x0 MSTORE PUSH1 0x73 DUP2 MSTORE8 DUP3 DUP2 RETURN INVALID PUSH20 0x0 ADDRESS EQ PUSH1 0x80 PUSH1 0x40 MSTORE PUSH1 0x4 CALLDATASIZE LT PUSH2 0x56 JUMPI PUSH1 0x0 CALLDATALOAD PUSH1 0xE0 SHR DUP1 PUSH4 0x8E86ED99 EQ PUSH2 0x5B JUMPI DUP1 PUSH4 0xA6F571A5 EQ PUSH2 0x84 JUMPI DUP1 PUSH4 0xBC1C6BD6 EQ PUSH2 0xA4 JUMPI DUP1 PUSH4 0xF9DE4E57 EQ PUSH2 0xC4 JUMPI JUMPDEST PUSH1 0x0 DUP1 REVERT JUMPDEST PUSH2 0x6E PUSH2 0x69 CALLDATASIZE PUSH1 0x4 PUSH2 0x798 JUMP JUMPDEST PUSH2 0xE4 JUMP JUMPDEST PUSH1 0x40 MLOAD PUSH2 0x7B SWAP2 SWAP1 PUSH2 0x90B JUMP JUMPDEST PUSH1 0x40 MLOAD DUP1 SWAP2 SUB SWAP1 RETURN JUMPDEST PUSH2 0x97 PUSH2 0x92 CALLDATASIZE PUSH1 0x4 PUSH2 0x798 JUMP JUMPDEST PUSH2 0x2DC JUMP JUMPDEST PUSH1 0x40 MLOAD PUSH2 0x7B SWAP2 SWAP1 PUSH2 0xAB7 JUMP JUMPDEST PUSH2 0xB7 PUSH2 0xB2 CALLDATASIZE PUSH1 0x4 PUSH2 0x798 JUMP JUMPDEST PUSH2 0x37C JUMP JUMPDEST PUSH1 0x40 MLOAD PUSH2 0x7B SWAP2 SWAP1 PUSH2 0xACA JUMP JUMPDEST PUSH2 0xD7 PUSH2 0xD2 CALLDATASIZE PUSH1 0x4 PUSH2 0x798 JUMP JUMPDEST PUSH2 0x41B JUMP JUMPDEST PUSH1 0x40 MLOAD PUSH2 0x7B SWAP2 SWAP1 PUSH2 0x8F1 JUMP JUMPDEST PUSH2 0xEC PUSH2 0x6D8 JUMP JUMPDEST PUSH1 0x40 DUP1 MLOAD DUP1 DUP3 ADD SWAP1 SWAP2 MSTORE PUSH1 0x0 DUP1 DUP3 MSTORE PUSH1 0x20 DUP3 ADD DUP5 SWAP1 MSTORE DUP1 JUMPDEST PUSH2 0x10D DUP4 PUSH2 0x49E JUMP JUMPDEST ISZERO PUSH2 0x2D4 JUMPI PUSH2 0x11B DUP4 PUSH2 0x4AD JUMP JUMPDEST SWAP1 SWAP3 POP SWAP1 POP DUP2 PUSH1 0x1 EQ ISZERO PUSH2 0x13C JUMPI PUSH2 0x135 PUSH2 0xB2 DUP5 PUSH2 0x4F5 JUMP JUMPDEST DUP5 MSTORE PUSH2 0x2CF JUMP JUMPDEST DUP2 PUSH1 0x2 EQ ISZERO PUSH2 0x158 JUMPI PUSH2 0x14E DUP4 PUSH2 0x4F5 JUMP JUMPDEST PUSH1 0x20 DUP6 ADD MSTORE PUSH2 0x2CF JUMP JUMPDEST DUP2 PUSH1 0x3 EQ ISZERO PUSH2 0x17E JUMPI PUSH2 0x16A DUP4 PUSH2 0x5C0 JUMP JUMPDEST PUSH8 0xFFFFFFFFFFFFFFFF AND PUSH1 0x40 DUP6 ADD MSTORE PUSH2 0x2CF JUMP JUMPDEST DUP2 PUSH1 0x4 EQ ISZERO PUSH2 0x1A4 JUMPI PUSH2 0x190 DUP4 PUSH2 0x5C0 JUMP JUMPDEST PUSH8 0xFFFFFFFFFFFFFFFF AND PUSH1 0x60 DUP6 ADD MSTORE PUSH2 0x2CF JUMP JUMPDEST DUP2 PUSH1 0x5 EQ ISZERO PUSH2 0x1C3 JUMPI PUSH2 0x1B9 PUSH2 0xD2 DUP5 PUSH2 0x4F5 JUMP JUMPDEST PUSH1 0x80 DUP6 ADD MSTORE PUSH2 0x2CF JUMP JUMPDEST DUP2 PUSH1 0x6 EQ ISZERO PUSH2 0x1DF JUMPI PUSH2 0x1D5 DUP4 PUSH2 0x4F5 JUMP JUMPDEST PUSH1 0xA0 DUP6 ADD MSTORE PUSH2 0x2CF JUMP JUMPDEST DUP2 PUSH1 0x7 EQ ISZERO PUSH2 0x1FB JUMPI PUSH2 0x1F1 DUP4 PUSH2 0x4F5 JUMP JUMPDEST PUSH1 0xC0 DUP6 ADD MSTORE PUSH2 0x2CF JUMP JUMPDEST DUP2 PUSH1 0x8 EQ ISZERO PUSH2 0x217 JUMPI PUSH2 0x20D DUP4 PUSH2 0x4F5 JUMP JUMPDEST PUSH1 0xE0 DUP6 ADD MSTORE PUSH2 0x2CF JUMP JUMPDEST DUP2 PUSH1 0x9 EQ ISZERO PUSH2 0x234 JUMPI PUSH2 0x229 DUP4 PUSH2 0x4F5 JUMP JUMPDEST PUSH2 0x100 DUP6 ADD MSTORE PUSH2 0x2CF JUMP JUMPDEST DUP2 PUSH1 0xA EQ ISZERO PUSH2 0x251 JUMPI PUSH2 0x246 DUP4 PUSH2 0x4F5 JUMP JUMPDEST PUSH2 0x120 DUP6 ADD MSTORE PUSH2 0x2CF JUMP JUMPDEST DUP2 PUSH1 0xB EQ ISZERO PUSH2 0x26E JUMPI PUSH2 0x263 DUP4 PUSH2 0x4F5 JUMP JUMPDEST PUSH2 0x140 DUP6 ADD MSTORE PUSH2 0x2CF JUMP JUMPDEST DUP2 PUSH1 0xC EQ ISZERO PUSH2 0x28B JUMPI PUSH2 0x280 DUP4 PUSH2 0x4F5 JUMP JUMPDEST PUSH2 0x160 DUP6 ADD MSTORE PUSH2 0x2CF JUMP JUMPDEST DUP2 PUSH1 0xD EQ ISZERO PUSH2 0x2A8 JUMPI PUSH2 0x29D DUP4 PUSH2 0x4F5 JUMP JUMPDEST PUSH2 0x180 DUP6 ADD MSTORE PUSH2 0x2CF JUMP JUMPDEST DUP2 PUSH1 0xE EQ ISZERO PUSH2 0x2C5 JUMPI PUSH2 0x2BA DUP4 PUSH2 0x4F5 JUMP JUMPDEST PUSH2 0x1A0 DUP6 ADD MSTORE PUSH2 0x2CF JUMP JUMPDEST PUSH2 0x2CF DUP4 DUP3 PUSH2 0x640 JUMP JUMPDEST PUSH2 0x104 JUMP JUMPDEST POP POP POP SWAP2 SWAP1 POP JUMP JUMPDEST PUSH1 0x40 DUP1 MLOAD DUP1 DUP3 ADD SWAP1 SWAP2 MSTORE PUSH1 0x0 DUP2 MSTORE PUSH1 0x60 PUSH1 0x20 DUP3 ADD MSTORE PUSH1 0x0 PUSH2 0x310 DUP4 PUSH1 0x40 DUP1 MLOAD DUP1 DUP3 ADD SWAP1 SWAP2 MSTORE PUSH1 0x0 DUP2 MSTORE PUSH1 0x20 DUP2 ADD SWAP2 SWAP1 SWAP2 MSTORE SWAP1 JUMP JUMPDEST SWAP1 POP PUSH1 0x0 DUP1 JUMPDEST PUSH2 0x31F DUP4 PUSH2 0x49E JUMP JUMPDEST ISZERO PUSH2 0x2D4 JUMPI PUSH2 0x32D DUP4 PUSH2 0x4AD JUMP JUMPDEST SWAP1 SWAP3 POP SWAP1 POP DUP2 PUSH1 0x1 EQ ISZERO PUSH2 0x351 JUMPI PUSH2 0x344 DUP4 PUSH2 0x5C0 JUMP JUMPDEST PUSH4 0xFFFFFFFF AND DUP5 MSTORE PUSH2 0x377 JUMP JUMPDEST DUP2 PUSH1 0x2 EQ ISZERO PUSH2 0x36D JUMPI PUSH2 0x363 DUP4 PUSH2 0x4F5 JUMP JUMPDEST PUSH1 0x20 DUP6 ADD MSTORE PUSH2 0x377 JUMP JUMPDEST PUSH2 0x377 DUP4 DUP3 PUSH2 0x640 JUMP JUMPDEST PUSH2 0x316 JUMP JUMPDEST PUSH1 0x40 DUP1 MLOAD DUP1 DUP3 ADD DUP3 MSTORE PUSH1 0x0 DUP1 DUP3 MSTORE PUSH1 0x20 DUP1 DUP4 ADD DUP3 SWAP1 MSTORE DUP4 MLOAD DUP1 DUP6 ADD SWAP1 SWAP5 MSTORE DUP2 DUP5 MSTORE DUP4 ADD DUP5 SWAP1 MSTORE SWAP1 SWAP2 SWAP1 DUP1 JUMPDEST PUSH2 0x3B0 DUP4 PUSH2 0x49E JUMP JUMPDEST ISZERO PUSH2 0x2D4 JUMPI PUSH2 0x3BE DUP4 PUSH2 0x4AD JUMP JUMPDEST SWAP1 SWAP3 POP SWAP1 POP DUP2 PUSH1 0x1 EQ ISZERO PUSH2 0x3E6 JUMPI PUSH2 0x3D5 DUP4 PUSH2 0x5C0 JUMP JUMPDEST PUSH8 0xFFFFFFFFFFFFFFFF AND DUP5 MSTORE PUSH2 0x416 JUMP JUMPDEST DUP2 PUSH1 0x2 EQ ISZERO PUSH2 0x40C JUMPI PUSH2 0x3F8 DUP4 PUSH2 0x5C0 JUMP JUMPDEST PUSH8 0xFFFFFFFFFFFFFFFF AND PUSH1 0x20 DUP6 ADD MSTORE PUSH2 0x416 JUMP JUMPDEST PUSH2 0x416 DUP4 DUP3 PUSH2 0x640 JUMP JUMPDEST PUSH2 0x3A7 JUMP JUMPDEST PUSH2 0x423 PUSH2 0x75E JUMP JUMPDEST PUSH1 0x40 DUP1 MLOAD DUP1 DUP3 ADD SWAP1 SWAP2 MSTORE PUSH1 0x0 DUP1 DUP3 MSTORE PUSH1 0x20 DUP3 ADD DUP5 SWAP1 MSTORE DUP1 JUMPDEST PUSH2 0x444 DUP4 PUSH2 0x49E JUMP JUMPDEST ISZERO PUSH2 0x2D4 JUMPI PUSH2 0x452 DUP4 PUSH2 0x4AD JUMP JUMPDEST SWAP1 SWAP3 POP SWAP1 POP DUP2 PUSH1 0x1 EQ ISZERO PUSH2 0x470 JUMPI PUSH2 0x469 DUP4 PUSH2 0x4F5 JUMP JUMPDEST DUP5 MSTORE PUSH2 0x499 JUMP JUMPDEST DUP2 PUSH1 0x2 EQ ISZERO PUSH2 0x48F JUMPI PUSH2 0x485 PUSH2 0x92 DUP5 PUSH2 0x4F5 JUMP JUMPDEST PUSH1 0x20 DUP6 ADD MSTORE PUSH2 0x499 JUMP JUMPDEST PUSH2 0x499 DUP4 DUP3 PUSH2 0x640 JUMP JUMPDEST PUSH2 0x43B JUMP JUMPDEST PUSH1 0x20 DUP2 ADD MLOAD MLOAD DUP2 MLOAD LT JUMPDEST SWAP2 SWAP1 POP JUMP JUMPDEST PUSH1 0x0 DUP1 PUSH1 0x0 PUSH2 0x4BB DUP5 PUSH2 0x5C0 JUMP JUMPDEST SWAP1 POP PUSH2 0x4C8 PUSH1 0x8 DUP3 PUSH2 0xB0D JUMP JUMPDEST SWAP3 POP DUP1 PUSH1 0x7 AND PUSH1 0x5 DUP2 GT ISZERO PUSH2 0x4ED JUMPI PUSH4 0x4E487B71 PUSH1 0xE0 SHL PUSH1 0x0 MSTORE PUSH1 0x21 PUSH1 0x4 MSTORE PUSH1 0x24 PUSH1 0x0 REVERT JUMPDEST SWAP2 POP POP SWAP2 POP SWAP2 JUMP JUMPDEST PUSH1 0x60 PUSH1 0x0 PUSH2 0x502 DUP4 PUSH2 0x5C0 JUMP JUMPDEST SWAP1 POP PUSH1 0x0 DUP2 DUP5 PUSH1 0x0 ADD MLOAD PUSH2 0x516 SWAP2 SWAP1 PUSH2 0xAF5 JUMP JUMPDEST SWAP1 POP DUP4 PUSH1 0x20 ADD MLOAD MLOAD DUP2 GT ISZERO PUSH2 0x52A JUMPI PUSH1 0x0 DUP1 REVERT JUMPDEST DUP2 PUSH8 0xFFFFFFFFFFFFFFFF DUP2 GT ISZERO PUSH2 0x551 JUMPI PUSH4 0x4E487B71 PUSH1 0xE0 SHL PUSH1 0x0 MSTORE PUSH1 0x41 PUSH1 0x4 MSTORE PUSH1 0x24 PUSH1 0x0 REVERT JUMPDEST PUSH1 0x40 MLOAD SWAP1 DUP1 DUP3 MSTORE DUP1 PUSH1 0x1F ADD PUSH1 0x1F NOT AND PUSH1 0x20 ADD DUP3 ADD PUSH1 0x40 MSTORE DUP1 ISZERO PUSH2 0x57B JUMPI PUSH1 0x20 DUP3 ADD DUP2 DUP1 CALLDATASIZE DUP4 CALLDATACOPY ADD SWAP1 POP JUMPDEST POP PUSH1 0x20 DUP1 DUP7 ADD MLOAD DUP7 MLOAD SWAP3 SWAP6 POP SWAP2 DUP2 DUP7 ADD SWAP2 SWAP1 DUP4 ADD ADD PUSH1 0x0 JUMPDEST DUP6 DUP2 LT ISZERO PUSH2 0x5B5 JUMPI DUP2 DUP2 ADD MLOAD DUP4 DUP3 ADD MSTORE PUSH2 0x5AE PUSH1 0x20 DUP3 PUSH2 0xAF5 JUMP JUMPDEST SWAP1 POP PUSH2 0x593 JUMP JUMPDEST POP POP POP SWAP4 MSTORE POP SWAP2 SWAP1 POP JUMP JUMPDEST PUSH1 0x20 DUP1 DUP3 ADD MLOAD DUP3 MLOAD DUP2 ADD SWAP1 SWAP2 ADD MLOAD PUSH1 0x0 SWAP2 DUP3 DUP1 JUMPDEST PUSH1 0xA DUP2 LT ISZERO PUSH2 0x63A JUMPI DUP4 DUP2 BYTE SWAP2 POP PUSH2 0x5ED DUP2 PUSH1 0x7 PUSH2 0xB2D JUMP JUMPDEST DUP3 PUSH1 0x7F AND SWAP1 SHL DUP6 OR SWAP5 POP DUP2 PUSH1 0x80 AND PUSH1 0x0 EQ ISZERO PUSH2 0x62A JUMPI PUSH2 0x60E DUP2 PUSH1 0x1 PUSH2 0xAF5 JUMP JUMPDEST DUP7 MLOAD DUP8 SWAP1 PUSH2 0x61D SWAP1 DUP4 SWAP1 PUSH2 0xAF5 JUMP JUMPDEST SWAP1 MSTORE POP PUSH2 0x4A8 SWAP4 POP POP POP POP JUMP JUMPDEST PUSH2 0x633 DUP2 PUSH2 0xB4C JUMP JUMPDEST SWAP1 POP PUSH2 0x5D4 JUMP JUMPDEST POP PUSH1 0x0 DUP1 REVERT JUMPDEST PUSH1 0x0 DUP2 PUSH1 0x5 DUP2 GT ISZERO PUSH2 0x662 JUMPI PUSH4 0x4E487B71 PUSH1 0xE0 SHL PUSH1 0x0 MSTORE PUSH1 0x21 PUSH1 0x4 MSTORE PUSH1 0x24 PUSH1 0x0 REVERT JUMPDEST EQ ISZERO PUSH2 0x677 JUMPI PUSH2 0x671 DUP3 PUSH2 0x5C0 JUMP JUMPDEST POP PUSH2 0x6D4 JUMP JUMPDEST PUSH1 0x2 DUP2 PUSH1 0x5 DUP2 GT ISZERO PUSH2 0x699 JUMPI PUSH4 0x4E487B71 PUSH1 0xE0 SHL PUSH1 0x0 MSTORE PUSH1 0x21 PUSH1 0x4 MSTORE PUSH1 0x24 PUSH1 0x0 REVERT JUMPDEST EQ ISZERO PUSH2 0x56 JUMPI PUSH1 0x0 PUSH2 0x6AA DUP4 PUSH2 0x5C0 JUMP JUMPDEST SWAP1 POP DUP1 DUP4 PUSH1 0x0 ADD DUP2 DUP2 MLOAD PUSH2 0x6BE SWAP2 SWAP1 PUSH2 0xAF5 JUMP JUMPDEST SWAP1 MSTORE POP PUSH1 0x20 DUP4 ADD MLOAD MLOAD DUP4 MLOAD GT ISZERO PUSH2 0x671 JUMPI PUSH1 0x0 DUP1 REVERT JUMPDEST POP POP JUMP JUMPDEST PUSH1 0x40 DUP1 MLOAD PUSH2 0x200 DUP2 ADD DUP3 MSTORE PUSH1 0x0 PUSH2 0x1C0 DUP3 ADD DUP2 DUP2 MSTORE PUSH2 0x1E0 DUP4 ADD DUP3 SWAP1 MSTORE DUP3 MSTORE PUSH1 0x60 PUSH1 0x20 DUP4 ADD DUP2 SWAP1 MSTORE SWAP3 DUP3 ADD DUP2 SWAP1 MSTORE SWAP2 DUP2 ADD SWAP2 SWAP1 SWAP2 MSTORE PUSH1 0x80 DUP2 ADD PUSH2 0x719 PUSH2 0x75E JUMP JUMPDEST DUP2 MSTORE PUSH1 0x20 ADD PUSH1 0x60 DUP2 MSTORE PUSH1 0x20 ADD PUSH1 0x60 DUP2 MSTORE PUSH1 0x20 ADD PUSH1 0x60 DUP2 MSTORE PUSH1 0x20 ADD PUSH1 0x60 DUP2 MSTORE PUSH1 0x20 ADD PUSH1 0x60 DUP2 MSTORE PUSH1 0x20 ADD PUSH1 0x60 DUP2 MSTORE PUSH1 0x20 ADD PUSH1 0x60 DUP2 MSTORE PUSH1 0x20 ADD PUSH1 0x60 DUP2 MSTORE PUSH1 0x20 ADD PUSH1 0x60 DUP2 MSTORE POP SWAP1 JUMP JUMPDEST PUSH1 0x40 MLOAD DUP1 PUSH1 0x40 ADD PUSH1 0x40 MSTORE DUP1 PUSH1 0x60 DUP2 MSTORE PUSH1 0x20 ADD PUSH2 0x793 PUSH1 0x40 MLOAD DUP1 PUSH1 0x40 ADD PUSH1 0x40 MSTORE DUP1 PUSH1 0x0 PUSH4 0xFFFFFFFF AND DUP2 MSTORE PUSH1 0x20 ADD PUSH1 0x60 DUP2 MSTORE POP SWAP1 JUMP JUMPDEST SWAP1 MSTORE SWAP1 JUMP JUMPDEST PUSH1 0x0 PUSH1 0x20 DUP3 DUP5 SUB SLT ISZERO PUSH2 0x7A9 JUMPI DUP1 DUP2 REVERT JUMPDEST DUP2 CALLDATALOAD PUSH8 0xFFFFFFFFFFFFFFFF DUP1 DUP3 GT ISZERO PUSH2 0x7C0 JUMPI DUP3 DUP4 REVERT JUMPDEST DUP2 DUP5 ADD SWAP2 POP DUP5 PUSH1 0x1F DUP4 ADD SLT PUSH2 0x7D3 JUMPI DUP3 DUP4 REVERT JUMPDEST DUP2 CALLDATALOAD DUP2 DUP2 GT ISZERO PUSH2 0x7E5 JUMPI PUSH2 0x7E5 PUSH2 0xB7D JUMP JUMPDEST PUSH1 0x40 MLOAD PUSH1 0x1F DUP3 ADD PUSH1 0x1F NOT SWAP1 DUP2 AND PUSH1 0x3F ADD AND DUP2 ADD SWAP1 DUP4 DUP3 GT DUP2 DUP4 LT OR ISZERO PUSH2 0x80D JUMPI PUSH2 0x80D PUSH2 0xB7D JUMP JUMPDEST DUP2 PUSH1 0x40 MSTORE DUP3 DUP2 MSTORE DUP8 PUSH1 0x20 DUP5 DUP8 ADD ADD GT ISZERO PUSH2 0x825 JUMPI DUP6 DUP7 REVERT JUMPDEST DUP3 PUSH1 0x20 DUP7 ADD PUSH1 0x20 DUP4 ADD CALLDATACOPY SWAP2 DUP3 ADD PUSH1 0x20 ADD SWAP5 SWAP1 SWAP5 MSTORE SWAP6 SWAP5 POP POP POP POP POP JUMP JUMPDEST PUSH1 0x0 DUP2 MLOAD DUP1 DUP5 MSTORE DUP2 JUMPDEST DUP2 DUP2 LT ISZERO PUSH2 0x867 JUMPI PUSH1 0x20 DUP2 DUP6 ADD DUP2 ADD MLOAD DUP7 DUP4 ADD DUP3 ADD MSTORE ADD PUSH2 0x84B JUMP JUMPDEST DUP2 DUP2 GT ISZERO PUSH2 0x878 JUMPI DUP3 PUSH1 0x20 DUP4 DUP8 ADD ADD MSTORE JUMPDEST POP PUSH1 0x1F ADD PUSH1 0x1F NOT AND SWAP3 SWAP1 SWAP3 ADD PUSH1 0x20 ADD SWAP3 SWAP2 POP POP JUMP JUMPDEST PUSH1 0x0 DUP2 MLOAD PUSH1 0x40 DUP5 MSTORE PUSH2 0x8A2 PUSH1 0x40 DUP6 ADD DUP3 PUSH2 0x842 JUMP JUMPDEST SWAP1 POP PUSH1 0x20 DUP4 ADD MLOAD DUP5 DUP3 SUB PUSH1 0x20 DUP7 ADD MSTORE PUSH2 0x8BB DUP3 DUP3 PUSH2 0x8C4 JUMP JUMPDEST SWAP6 SWAP5 POP POP POP POP POP JUMP JUMPDEST PUSH1 0x0 PUSH4 0xFFFFFFFF DUP3 MLOAD AND DUP4 MSTORE PUSH1 0x20 DUP3 ADD MLOAD PUSH1 0x40 PUSH1 0x20 DUP6 ADD MSTORE PUSH2 0x8E9 PUSH1 0x40 DUP6 ADD DUP3 PUSH2 0x842 JUMP JUMPDEST SWAP5 SWAP4 POP POP POP POP JUMP JUMPDEST PUSH1 0x0 PUSH1 0x20 DUP3 MSTORE PUSH2 0x904 PUSH1 0x20 DUP4 ADD DUP5 PUSH2 0x88D JUMP JUMPDEST SWAP4 SWAP3 POP POP POP JUMP JUMPDEST PUSH1 0x20 DUP1 DUP3 MSTORE DUP3 MLOAD DUP1 MLOAD PUSH8 0xFFFFFFFFFFFFFFFF SWAP1 DUP2 AND DUP5 DUP5 ADD MSTORE SWAP2 ADD MLOAD AND PUSH1 0x40 DUP3 ADD MSTORE PUSH1 0x0 PUSH1 0x20 DUP4 ADD MLOAD PUSH2 0x1E0 DUP1 PUSH1 0x60 DUP6 ADD MSTORE PUSH2 0x94B PUSH2 0x200 DUP6 ADD DUP4 PUSH2 0x842 JUMP JUMPDEST SWAP2 POP PUSH1 0x40 DUP6 ADD MLOAD PUSH2 0x968 PUSH1 0x80 DUP7 ADD DUP3 PUSH8 0xFFFFFFFFFFFFFFFF AND SWAP1 MSTORE JUMP JUMPDEST POP PUSH1 0x60 DUP6 ADD MLOAD PUSH8 0xFFFFFFFFFFFFFFFF AND PUSH1 0xA0 DUP6 ADD MSTORE PUSH1 0x80 DUP6 ADD MLOAD PUSH1 0x1F NOT DUP6 DUP5 SUB DUP2 ADD PUSH1 0xC0 DUP8 ADD MSTORE PUSH2 0x999 DUP5 DUP4 PUSH2 0x88D JUMP JUMPDEST SWAP4 POP PUSH1 0xA0 DUP8 ADD MLOAD SWAP2 POP DUP1 DUP7 DUP6 SUB ADD PUSH1 0xE0 DUP8 ADD MSTORE PUSH2 0x9B6 DUP5 DUP4 PUSH2 0x842 JUMP JUMPDEST SWAP4 POP PUSH1 0xC0 DUP8 ADD MLOAD SWAP2 POP PUSH2 0x100 DUP2 DUP8 DUP7 SUB ADD DUP2 DUP9 ADD MSTORE PUSH2 0x9D5 DUP6 DUP5 PUSH2 0x842 JUMP JUMPDEST SWAP5 POP PUSH1 0xE0 DUP9 ADD MLOAD SWAP3 POP PUSH2 0x120 DUP3 DUP9 DUP8 SUB ADD DUP2 DUP10 ADD MSTORE PUSH2 0x9F4 DUP7 DUP6 PUSH2 0x842 JUMP JUMPDEST SWAP6 POP DUP2 DUP10 ADD MLOAD SWAP4 POP PUSH2 0x140 SWAP2 POP DUP3 DUP9 DUP8 SUB ADD DUP3 DUP10 ADD MSTORE PUSH2 0xA14 DUP7 DUP6 PUSH2 0x842 JUMP JUMPDEST SWAP6 POP DUP1 DUP10 ADD MLOAD SWAP4 POP POP PUSH2 0x160 DUP3 DUP9 DUP8 SUB ADD DUP2 DUP10 ADD MSTORE PUSH2 0xA33 DUP7 DUP6 PUSH2 0x842 JUMP JUMPDEST SWAP6 POP DUP2 DUP10 ADD MLOAD SWAP4 POP PUSH2 0x180 SWAP2 POP DUP3 DUP9 DUP8 SUB ADD DUP3 DUP10 ADD MSTORE PUSH2 0xA53 DUP7 DUP6 PUSH2 0x842 JUMP JUMPDEST SWAP6 POP DUP1 DUP10 ADD MLOAD SWAP4 POP POP PUSH2 0x1A0 DUP3 DUP9 DUP8 SUB ADD DUP2 DUP10 ADD MSTORE PUSH2 0xA72 DUP7 DUP6 PUSH2 0x842 JUMP JUMPDEST SWAP6 POP DUP2 DUP10 ADD MLOAD SWAP4 POP DUP3 DUP9 DUP8 SUB ADD PUSH2 0x1C0 DUP10 ADD MSTORE PUSH2 0xA8F DUP7 DUP6 PUSH2 0x842 JUMP JUMPDEST SWAP6 POP DUP1 DUP10 ADD MLOAD SWAP4 POP POP POP DUP1 DUP7 DUP6 SUB ADD DUP4 DUP8 ADD MSTORE POP PUSH2 0xAAD DUP4 DUP3 PUSH2 0x842 JUMP JUMPDEST SWAP7 SWAP6 POP POP POP POP POP POP JUMP JUMPDEST PUSH1 0x0 PUSH1 0x20 DUP3 MSTORE PUSH2 0x904 PUSH1 0x20 DUP4 ADD DUP5 PUSH2 0x8C4 JUMP JUMPDEST PUSH1 0x40 DUP2 ADD PUSH2 0xAEF DUP3 DUP5 DUP1 MLOAD PUSH8 0xFFFFFFFFFFFFFFFF SWAP1 DUP2 AND DUP4 MSTORE PUSH1 0x20 SWAP2 DUP3 ADD MLOAD AND SWAP2 ADD MSTORE JUMP JUMPDEST SWAP3 SWAP2 POP POP JUMP JUMPDEST PUSH1 0x0 DUP3 NOT DUP3 GT ISZERO PUSH2 0xB08 JUMPI PUSH2 0xB08 PUSH2 0xB67 JUMP JUMPDEST POP ADD SWAP1 JUMP JUMPDEST PUSH1 0x0 DUP3 PUSH2 0xB28 JUMPI PUSH4 0x4E487B71 PUSH1 0xE0 SHL DUP2 MSTORE PUSH1 0x12 PUSH1 0x4 MSTORE PUSH1 0x24 DUP2 REVERT JUMPDEST POP DIV SWAP1 JUMP JUMPDEST PUSH1 0x0 DUP2 PUSH1 0x0 NOT DIV DUP4 GT DUP3 ISZERO ISZERO AND ISZERO PUSH2 0xB47 JUMPI PUSH2 0xB47 PUSH2 0xB67 JUMP JUMPDEST POP MUL SWAP1 JUMP JUMPDEST PUSH1 0x0 PUSH1 0x0 NOT DUP3 EQ ISZERO PUSH2 0xB60 JUMPI PUSH2 0xB60 PUSH2 0xB67 JUMP JUMPDEST POP PUSH1 0x1 ADD SWAP1 JUMP JUMPDEST PUSH4 0x4E487B71 PUSH1 0xE0 SHL PUSH1 0x0 MSTORE PUSH1 0x11 PUSH1 0x4 MSTORE PUSH1 0x24 PUSH1 0x0 REVERT JUMPDEST PUSH4 0x4E487B71 PUSH1 0xE0 SHL PUSH1 0x0 MSTORE PUSH1 0x41 PUSH1 0x4 MSTORE PUSH1 0x24 PUSH1 0x0 REVERT INVALID LOG2 PUSH5 0x6970667358 0x22 SLT KECCAK256 CALLER DUP13 SWAP5 EXTCODESIZE BLOCKHASH 0xE2 BLOCKHASH 0x5E 0xAB 0xB2 0xD6 0xD1 0x2F 0xC 0xA8 0x2F 0x5D 0xB4 0x2D PUSH15 0x3C02974F7045D98B75A447D564736F PUSH13 0x63430008020033000000000000 "
				},
				"gasEstimates": {
					"creation": {
						"codeDepositCost": "603400",
						"executionCost": "669",
						"totalCost": "604069"
					},
					"external": {
						"decBlockID(bytes)": "infinite",
						"decHeader(bytes)": "infinite",
						"decPartSetHeader(bytes)": "infinite",
						"decVersion(bytes)": "infinite"
					}
				},
				"methodIdentifiers": {
					"decBlockID(bytes)": "f9de4e57",
					"decHeader(bytes)": "8e86ed99",
					"decPartSetHeader(bytes)": "a6f571a5",
					"decVersion(bytes)": "bc1c6bd6"
				}
			},
			"storageLayout": {
				"storage": [],
				"types": null
			},
			"userdoc": {
				"kind": "user",
				"methods": {},
				"version": 1
			}
		}
	}
}