{
	"contracts/libraries/PbHeader.sol": {
		"PbHeader": {
			"abi": [
				{
					"inputs": [
						{
							"internalType": "bytes",
							"name": "raw",
							"type": "bytes"
						}
					],
					"name": "decBlockID",
					"outputs": [
						{
							"components": [
								{
									"internalType": "bytes",
									"name": "hash",
									"type": "bytes"
								},
								{
									"components": [
										{
											"internalType": "uint32",
											"name": "total",
											"type": "uint32"
										},
										{
											"internalType": "bytes",
											"name": "hash",
											"type": "bytes"
										}
									],
									"internalType": "struct PbHeader.PartSetHeader",
									"name": "partSetHeader",
									"type": "tuple"
								}
							],
							"internalType": "struct PbHeader.BlockID",
							"name": "m",
							"type": "tuple"
						}
					],
					"stateMutability": "pure",
					"type": "function"
				},
				{
					"inputs": [
						{
							"internalType": "bytes",
							"name": "raw",
							"type": "bytes"
						}
					],
					"name": "decHeader",
					"outputs": [
						{
							"components": [
								{
									"components": [
										{
											"internalType": "uint64",
											"name": "block",
											"type": "uint64"
										},
										{
											"internalType": "uint64",
											"name": "app",
											"type": "uint64"
										}
									],
									"internalType": "struct PbHeader.Version",
									"name": "version",
									"type": "tuple"
								},
								{
									"internalType": "string",
									"name": "chainId",
									"type": "string"
								},
								{
									"internalType": "uint64",
									"name": "height",
									"type": "uint64"
								},
								{
									"internalType": "uint64",
									"name": "time",
									"type": "uint64"
								},
								{
									"components": [
										{
											"internalType": "bytes",
											"name": "hash",
											"type": "bytes"
										},
										{
											"components": [
												{
													"internalType": "uint32",
													"name": "total",
													"type": "uint32"
												},
												{
													"internalType": "bytes",
													"name": "hash",
													"type": "bytes"
												}
											],
											"internalType": "struct PbHeader.PartSetHeader",
											"name": "partSetHeader",
											"type": "tuple"
										}
									],
									"internalType": "struct PbHeader.BlockID",
									"name": "lastBlockId",
									"type": "tuple"
								},
								{
									"internalType": "bytes",
									"name": "lastCommitHash",
									"type": "bytes"
								},
								{
									"internalType": "bytes",
									"name": "dataHash",
									"type": "bytes"
								},
								{
									"internalType": "bytes",
									"name": "validatorsHash",
									"type": "bytes"
								},
								{
									"internalType": "bytes",
									"name": "nextValidatorsHash",
									"type": "bytes"
								},
								{
									"internalType": "bytes",
									"name": "consensusHash",
									"type": "bytes"
								},
								{
									"internalType": "bytes",
									"name": "appHash",
									"type": "bytes"
								},
								{
									"internalType": "bytes",
									"name": "lastResultsHash",
									"type": "bytes"
								},
								{
									"internalType": "bytes",
									"name": "evidenceHash",
									"type": "bytes"
								},
								{
									"internalType": "bytes",
									"name": "proposerAddress",
									"type": "bytes"
								}
							],
							"internalType": "struct PbHeader.Header",
							"name": "m",
							"type": "tuple"
						}
					],
					"stateMutability": "pure",
					"type": "function"
				},
				{
					"inputs": [
						{
							"internalType": "bytes",
							"name": "raw",
							"type": "bytes"
						}
					],
					"name": "decVersion",
					"outputs": [
						{
							"components": [
								{
									"internalType": "uint64",
									"name": "block",
									"type": "uint64"
								},
								{
									"internalType": "uint64",
									"name": "app",
									"type": "uint64"
								}
							],
							"internalType": "struct PbHeader.Version",
							"name": "m",
							"type": "tuple"
						}
					],
					"stateMutability": "pure",
					"type": "function"
				}
			],
			"devdoc": {
				"kind": "dev",
				"methods": {},
				"version": 1
			},
			"evm": {
				"assembly": "    /* \"contracts/libraries/PbHeader.sol\":145:4945  library PbHeader {... */\n  dataSize(sub_0)\n  dataOffset(sub_0)\n  0x0b\n  dup3\n  dup3\n  dup3\n  codecopy\n  dup1\n  mload\n  0x00\n  byte\n  0x73\n  eq\n  tag_1\n  jumpi\n  mstore(0x00, shl(0xe0, 0x4e487b71))\n  mstore(0x04, 0x00)\n  revert(0x00, 0x24)\ntag_1:\n  mstore(0x00, address)\n  0x73\n  dup2\n  mstore8\n  dup3\n  dup2\n  return\nstop\n\nsub_0: assembly {\n        /* \"contracts/libraries/PbHeader.sol\":145:4945  library PbHeader {... */\n      eq(address, deployTimeAddress())\n      mstore(0x40, 0x80)\n      jumpi(tag_1, lt(calldatasize, 0x04))\n      shr(0xe0, calldataload(0x00))\n      dup1\n      0x8e86ed99\n      eq\n      tag_2\n      jumpi\n      dup1\n      0xbc1c6bd6\n      eq\n      tag_3\n      jumpi\n      dup1\n      0xf9de4e57\n      eq\n      tag_4\n      jumpi\n    tag_1:\n      0x00\n      dup1\n      revert\n        /* \"contracts/libraries/PbHeader.sol\":842:2674  function decHeader(bytes memory raw) public pure returns (Header memory m) {... */\n    tag_2:\n      tag_5\n      tag_6\n      calldatasize\n      0x04\n      tag_7\n      jump\t// in\n    tag_6:\n      tag_8\n      jump\t// in\n    tag_5:\n      mload(0x40)\n      tag_9\n      swap2\n      swap1\n      tag_10\n      jump\t// in\n    tag_9:\n      mload(0x40)\n      dup1\n      swap2\n      sub\n      swap1\n      return\n        /* \"contracts/libraries/PbHeader.sol\":2818:3401  function decVersion(bytes memory raw) public pure returns (Version memory m) {... */\n    tag_3:\n      tag_11\n      tag_12\n      calldatasize\n      0x04\n      tag_7\n      jump\t// in\n    tag_12:\n      tag_13\n      jump\t// in\n    tag_11:\n      mload(0x40)\n      tag_9\n      swap2\n      swap1\n      tag_15\n      jump\t// in\n        /* \"contracts/libraries/PbHeader.sol\":3561:4160  function decBlockID(bytes memory raw) public pure returns (BlockID memory m) {... */\n    tag_4:\n      tag_16\n      tag_17\n      calldatasize\n      0x04\n      tag_7\n      jump\t// in\n    tag_17:\n      tag_18\n      jump\t// in\n    tag_16:\n      mload(0x40)\n      tag_9\n      swap2\n      swap1\n      tag_20\n      jump\t// in\n        /* \"contracts/libraries/PbHeader.sol\":842:2674  function decHeader(bytes memory raw) public pure returns (Header memory m) {... */\n    tag_8:\n        /* \"contracts/libraries/PbHeader.sol\":900:915  Header memory m */\n      tag_21\n      tag_22\n      jump\t// in\n    tag_21:\n      0x40\n      dup1\n      mload\n      dup1\n      dup3\n      add\n      swap1\n      swap2\n      mstore\n      0x00\n      dup1\n      dup3\n      mstore\n      0x20\n      dup3\n      add\n        /* \"contracts/libraries/Pb.sol\":474:485  buf.b = raw */\n      dup5\n      swap1\n      mstore\n      dup1\n        /* \"contracts/libraries/PbHeader.sol\":1022:2668  while (buf.hasMore()) {... */\n    tag_26:\n        /* \"contracts/libraries/PbHeader.sol\":1029:1042  buf.hasMore() */\n      tag_28\n        /* \"contracts/libraries/PbHeader.sol\":1029:1032  buf */\n      dup4\n        /* \"contracts/libraries/PbHeader.sol\":1029:1040  buf.hasMore */\n      tag_29\n        /* \"contracts/libraries/PbHeader.sol\":1029:1042  buf.hasMore() */\n      jump\t// in\n    tag_28:\n        /* \"contracts/libraries/PbHeader.sol\":1022:2668  while (buf.hasMore()) {... */\n      iszero\n      tag_27\n      jumpi\n        /* \"contracts/libraries/PbHeader.sol\":1072:1084  buf.decKey() */\n      tag_30\n        /* \"contracts/libraries/PbHeader.sol\":1072:1075  buf */\n      dup4\n        /* \"contracts/libraries/PbHeader.sol\":1072:1082  buf.decKey */\n      tag_31\n        /* \"contracts/libraries/PbHeader.sol\":1072:1084  buf.decKey() */\n      jump\t// in\n    tag_30:\n        /* \"contracts/libraries/PbHeader.sol\":1058:1084  (tag, wire) = buf.decKey() */\n      swap1\n      swap3\n      pop\n      swap1\n      pop\n        /* \"contracts/libraries/PbHeader.sol\":1164:1167  tag */\n      dup2\n        /* \"contracts/libraries/PbHeader.sol\":1171:1172  1 */\n      0x01\n        /* \"contracts/libraries/PbHeader.sol\":1164:1172  tag == 1 */\n      eq\n        /* \"contracts/libraries/PbHeader.sol\":1160:2629  if (tag == 1) {... */\n      iszero\n      tag_34\n      jumpi\n        /* \"contracts/libraries/PbHeader.sol\":1204:1230  decVersion(buf.decBytes()) */\n      tag_35\n        /* \"contracts/libraries/PbHeader.sol\":1215:1229  buf.decBytes() */\n      tag_12\n        /* \"contracts/libraries/PbHeader.sol\":1215:1218  buf */\n      dup5\n        /* \"contracts/libraries/PbHeader.sol\":1215:1227  buf.decBytes */\n      tag_37\n        /* \"contracts/libraries/PbHeader.sol\":1215:1229  buf.decBytes() */\n      jump\t// in\n        /* \"contracts/libraries/PbHeader.sol\":1204:1230  decVersion(buf.decBytes()) */\n    tag_35:\n        /* \"contracts/libraries/PbHeader.sol\":1192:1230  m.version = decVersion(buf.decBytes()) */\n      dup5\n      mstore\n        /* \"contracts/libraries/PbHeader.sol\":1160:2629  if (tag == 1) {... */\n      jump(tag_80)\n    tag_34:\n        /* \"contracts/libraries/PbHeader.sol\":1267:1270  tag */\n      dup2\n        /* \"contracts/libraries/PbHeader.sol\":1274:1275  2 */\n      0x02\n        /* \"contracts/libraries/PbHeader.sol\":1267:1275  tag == 2 */\n      eq\n        /* \"contracts/libraries/PbHeader.sol\":1263:2629  if (tag == 2) {... */\n      iszero\n      tag_39\n      jumpi\n        /* \"contracts/libraries/PbHeader.sol\":1314:1328  buf.decBytes() */\n      tag_40\n        /* \"contracts/libraries/PbHeader.sol\":1314:1317  buf */\n      dup4\n        /* \"contracts/libraries/PbHeader.sol\":1314:1326  buf.decBytes */\n      tag_37\n        /* \"contracts/libraries/PbHeader.sol\":1314:1328  buf.decBytes() */\n      jump\t// in\n    tag_40:\n        /* \"contracts/libraries/PbHeader.sol\":1295:1304  m.chainId */\n      0x20\n      dup6\n      add\n        /* \"contracts/libraries/PbHeader.sol\":1295:1329  m.chainId = string(buf.decBytes()) */\n      mstore\n        /* \"contracts/libraries/PbHeader.sol\":1263:2629  if (tag == 2) {... */\n      jump(tag_80)\n    tag_39:\n        /* \"contracts/libraries/PbHeader.sol\":1366:1369  tag */\n      dup2\n        /* \"contracts/libraries/PbHeader.sol\":1373:1374  3 */\n      0x03\n        /* \"contracts/libraries/PbHeader.sol\":1366:1374  tag == 3 */\n      eq\n        /* \"contracts/libraries/PbHeader.sol\":1362:2629  if (tag == 3) {... */\n      iszero\n      tag_42\n      jumpi\n        /* \"contracts/libraries/PbHeader.sol\":1412:1427  buf.decVarint() */\n      tag_43\n        /* \"contracts/libraries/PbHeader.sol\":1412:1415  buf */\n      dup4\n        /* \"contracts/libraries/PbHeader.sol\":1412:1425  buf.decVarint */\n      tag_44\n        /* \"contracts/libraries/PbHeader.sol\":1412:1427  buf.decVarint() */\n      jump\t// in\n    tag_43:\n        /* \"contracts/libraries/PbHeader.sol\":1394:1428  m.height = uint64(buf.decVarint()) */\n      0xffffffffffffffff\n      and\n        /* \"contracts/libraries/PbHeader.sol\":1394:1402  m.height */\n      0x40\n      dup6\n      add\n        /* \"contracts/libraries/PbHeader.sol\":1394:1428  m.height = uint64(buf.decVarint()) */\n      mstore\n        /* \"contracts/libraries/PbHeader.sol\":1362:2629  if (tag == 3) {... */\n      jump(tag_80)\n    tag_42:\n        /* \"contracts/libraries/PbHeader.sol\":1465:1468  tag */\n      dup2\n        /* \"contracts/libraries/PbHeader.sol\":1472:1473  4 */\n      0x04\n        /* \"contracts/libraries/PbHeader.sol\":1465:1473  tag == 4 */\n      eq\n        /* \"contracts/libraries/PbHeader.sol\":1461:2629  if (tag == 4) {... */\n      iszero\n      tag_46\n      jumpi\n        /* \"contracts/libraries/PbHeader.sol\":1509:1524  buf.decVarint() */\n      tag_47\n        /* \"contracts/libraries/PbHeader.sol\":1509:1512  buf */\n      dup4\n        /* \"contracts/libraries/PbHeader.sol\":1509:1522  buf.decVarint */\n      tag_44\n        /* \"contracts/libraries/PbHeader.sol\":1509:1524  buf.decVarint() */\n      jump\t// in\n    tag_47:\n        /* \"contracts/libraries/PbHeader.sol\":1493:1525  m.time = uint64(buf.decVarint()) */\n      0xffffffffffffffff\n      and\n        /* \"contracts/libraries/PbHeader.sol\":1493:1499  m.time */\n      0x60\n      dup6\n      add\n        /* \"contracts/libraries/PbHeader.sol\":1493:1525  m.time = uint64(buf.decVarint()) */\n      mstore\n        /* \"contracts/libraries/PbHeader.sol\":1461:2629  if (tag == 4) {... */\n      jump(tag_80)\n    tag_46:\n        /* \"contracts/libraries/PbHeader.sol\":1562:1565  tag */\n      dup2\n        /* \"contracts/libraries/PbHeader.sol\":1569:1570  5 */\n      0x05\n        /* \"contracts/libraries/PbHeader.sol\":1562:1570  tag == 5 */\n      eq\n        /* \"contracts/libraries/PbHeader.sol\":1558:2629  if (tag == 5) {... */\n      iszero\n      tag_49\n      jumpi\n        /* \"contracts/libraries/PbHeader.sol\":1606:1632  decBlockID(buf.decBytes()) */\n      tag_50\n        /* \"contracts/libraries/PbHeader.sol\":1617:1631  buf.decBytes() */\n      tag_17\n        /* \"contracts/libraries/PbHeader.sol\":1617:1620  buf */\n      dup5\n        /* \"contracts/libraries/PbHeader.sol\":1617:1629  buf.decBytes */\n      tag_37\n        /* \"contracts/libraries/PbHeader.sol\":1617:1631  buf.decBytes() */\n      jump\t// in\n        /* \"contracts/libraries/PbHeader.sol\":1606:1632  decBlockID(buf.decBytes()) */\n    tag_50:\n        /* \"contracts/libraries/PbHeader.sol\":1590:1603  m.lastBlockId */\n      0x80\n      dup6\n      add\n        /* \"contracts/libraries/PbHeader.sol\":1590:1632  m.lastBlockId = decBlockID(buf.decBytes()) */\n      mstore\n        /* \"contracts/libraries/PbHeader.sol\":1558:2629  if (tag == 5) {... */\n      jump(tag_80)\n    tag_49:\n        /* \"contracts/libraries/PbHeader.sol\":1669:1672  tag */\n      dup2\n        /* \"contracts/libraries/PbHeader.sol\":1676:1677  6 */\n      0x06\n        /* \"contracts/libraries/PbHeader.sol\":1669:1677  tag == 6 */\n      eq\n        /* \"contracts/libraries/PbHeader.sol\":1665:2629  if (tag == 6) {... */\n      iszero\n      tag_53\n      jumpi\n        /* \"contracts/libraries/PbHeader.sol\":1722:1736  buf.decBytes() */\n      tag_54\n        /* \"contracts/libraries/PbHeader.sol\":1722:1725  buf */\n      dup4\n        /* \"contracts/libraries/PbHeader.sol\":1722:1734  buf.decBytes */\n      tag_37\n        /* \"contracts/libraries/PbHeader.sol\":1722:1736  buf.decBytes() */\n      jump\t// in\n    tag_54:\n        /* \"contracts/libraries/PbHeader.sol\":1697:1713  m.lastCommitHash */\n      0xa0\n      dup6\n      add\n        /* \"contracts/libraries/PbHeader.sol\":1697:1737  m.lastCommitHash = bytes(buf.decBytes()) */\n      mstore\n        /* \"contracts/libraries/PbHeader.sol\":1665:2629  if (tag == 6) {... */\n      jump(tag_80)\n    tag_53:\n        /* \"contracts/libraries/PbHeader.sol\":1774:1777  tag */\n      dup2\n        /* \"contracts/libraries/PbHeader.sol\":1781:1782  7 */\n      0x07\n        /* \"contracts/libraries/PbHeader.sol\":1774:1782  tag == 7 */\n      eq\n        /* \"contracts/libraries/PbHeader.sol\":1770:2629  if (tag == 7) {... */\n      iszero\n      tag_56\n      jumpi\n        /* \"contracts/libraries/PbHeader.sol\":1821:1835  buf.decBytes() */\n      tag_57\n        /* \"contracts/libraries/PbHeader.sol\":1821:1824  buf */\n      dup4\n        /* \"contracts/libraries/PbHeader.sol\":1821:1833  buf.decBytes */\n      tag_37\n        /* \"contracts/libraries/PbHeader.sol\":1821:1835  buf.decBytes() */\n      jump\t// in\n    tag_57:\n        /* \"contracts/libraries/PbHeader.sol\":1802:1812  m.dataHash */\n      0xc0\n      dup6\n      add\n        /* \"contracts/libraries/PbHeader.sol\":1802:1836  m.dataHash = bytes(buf.decBytes()) */\n      mstore\n        /* \"contracts/libraries/PbHeader.sol\":1770:2629  if (tag == 7) {... */\n      jump(tag_80)\n    tag_56:\n        /* \"contracts/libraries/PbHeader.sol\":1873:1876  tag */\n      dup2\n        /* \"contracts/libraries/PbHeader.sol\":1880:1881  8 */\n      0x08\n        /* \"contracts/libraries/PbHeader.sol\":1873:1881  tag == 8 */\n      eq\n        /* \"contracts/libraries/PbHeader.sol\":1869:2629  if (tag == 8) {... */\n      iszero\n      tag_59\n      jumpi\n        /* \"contracts/libraries/PbHeader.sol\":1926:1940  buf.decBytes() */\n      tag_60\n        /* \"contracts/libraries/PbHeader.sol\":1926:1929  buf */\n      dup4\n        /* \"contracts/libraries/PbHeader.sol\":1926:1938  buf.decBytes */\n      tag_37\n        /* \"contracts/libraries/PbHeader.sol\":1926:1940  buf.decBytes() */\n      jump\t// in\n    tag_60:\n        /* \"contracts/libraries/PbHeader.sol\":1901:1917  m.validatorsHash */\n      0xe0\n      dup6\n      add\n        /* \"contracts/libraries/PbHeader.sol\":1901:1941  m.validatorsHash = bytes(buf.decBytes()) */\n      mstore\n        /* \"contracts/libraries/PbHeader.sol\":1869:2629  if (tag == 8) {... */\n      jump(tag_80)\n    tag_59:\n        /* \"contracts/libraries/PbHeader.sol\":1978:1981  tag */\n      dup2\n        /* \"contracts/libraries/PbHeader.sol\":1985:1986  9 */\n      0x09\n        /* \"contracts/libraries/PbHeader.sol\":1978:1986  tag == 9 */\n      eq\n        /* \"contracts/libraries/PbHeader.sol\":1974:2629  if (tag == 9) {... */\n      iszero\n      tag_62\n      jumpi\n        /* \"contracts/libraries/PbHeader.sol\":2035:2049  buf.decBytes() */\n      tag_63\n        /* \"contracts/libraries/PbHeader.sol\":2035:2038  buf */\n      dup4\n        /* \"contracts/libraries/PbHeader.sol\":2035:2047  buf.decBytes */\n      tag_37\n        /* \"contracts/libraries/PbHeader.sol\":2035:2049  buf.decBytes() */\n      jump\t// in\n    tag_63:\n        /* \"contracts/libraries/PbHeader.sol\":2006:2026  m.nextValidatorsHash */\n      0x0100\n      dup6\n      add\n        /* \"contracts/libraries/PbHeader.sol\":2006:2050  m.nextValidatorsHash = bytes(buf.decBytes()) */\n      mstore\n        /* \"contracts/libraries/PbHeader.sol\":1974:2629  if (tag == 9) {... */\n      jump(tag_80)\n    tag_62:\n        /* \"contracts/libraries/PbHeader.sol\":2087:2090  tag */\n      dup2\n        /* \"contracts/libraries/PbHeader.sol\":2094:2096  10 */\n      0x0a\n        /* \"contracts/libraries/PbHeader.sol\":2087:2096  tag == 10 */\n      eq\n        /* \"contracts/libraries/PbHeader.sol\":2083:2629  if (tag == 10) {... */\n      iszero\n      tag_65\n      jumpi\n        /* \"contracts/libraries/PbHeader.sol\":2140:2154  buf.decBytes() */\n      tag_66\n        /* \"contracts/libraries/PbHeader.sol\":2140:2143  buf */\n      dup4\n        /* \"contracts/libraries/PbHeader.sol\":2140:2152  buf.decBytes */\n      tag_37\n        /* \"contracts/libraries/PbHeader.sol\":2140:2154  buf.decBytes() */\n      jump\t// in\n    tag_66:\n        /* \"contracts/libraries/PbHeader.sol\":2116:2131  m.consensusHash */\n      0x0120\n      dup6\n      add\n        /* \"contracts/libraries/PbHeader.sol\":2116:2155  m.consensusHash = bytes(buf.decBytes()) */\n      mstore\n        /* \"contracts/libraries/PbHeader.sol\":2083:2629  if (tag == 10) {... */\n      jump(tag_80)\n    tag_65:\n        /* \"contracts/libraries/PbHeader.sol\":2192:2195  tag */\n      dup2\n        /* \"contracts/libraries/PbHeader.sol\":2199:2201  11 */\n      0x0b\n        /* \"contracts/libraries/PbHeader.sol\":2192:2201  tag == 11 */\n      eq\n        /* \"contracts/libraries/PbHeader.sol\":2188:2629  if (tag == 11) {... */\n      iszero\n      tag_68\n      jumpi\n        /* \"contracts/libraries/PbHeader.sol\":2239:2253  buf.decBytes() */\n      tag_69\n        /* \"contracts/libraries/PbHeader.sol\":2239:2242  buf */\n      dup4\n        /* \"contracts/libraries/PbHeader.sol\":2239:2251  buf.decBytes */\n      tag_37\n        /* \"contracts/libraries/PbHeader.sol\":2239:2253  buf.decBytes() */\n      jump\t// in\n    tag_69:\n        /* \"contracts/libraries/PbHeader.sol\":2221:2230  m.appHash */\n      0x0140\n      dup6\n      add\n        /* \"contracts/libraries/PbHeader.sol\":2221:2254  m.appHash = bytes(buf.decBytes()) */\n      mstore\n        /* \"contracts/libraries/PbHeader.sol\":2188:2629  if (tag == 11) {... */\n      jump(tag_80)\n    tag_68:\n        /* \"contracts/libraries/PbHeader.sol\":2291:2294  tag */\n      dup2\n        /* \"contracts/libraries/PbHeader.sol\":2298:2300  12 */\n      0x0c\n        /* \"contracts/libraries/PbHeader.sol\":2291:2300  tag == 12 */\n      eq\n        /* \"contracts/libraries/PbHeader.sol\":2287:2629  if (tag == 12) {... */\n      iszero\n      tag_71\n      jumpi\n        /* \"contracts/libraries/PbHeader.sol\":2346:2360  buf.decBytes() */\n      tag_72\n        /* \"contracts/libraries/PbHeader.sol\":2346:2349  buf */\n      dup4\n        /* \"contracts/libraries/PbHeader.sol\":2346:2358  buf.decBytes */\n      tag_37\n        /* \"contracts/libraries/PbHeader.sol\":2346:2360  buf.decBytes() */\n      jump\t// in\n    tag_72:\n        /* \"contracts/libraries/PbHeader.sol\":2320:2337  m.lastResultsHash */\n      0x0160\n      dup6\n      add\n        /* \"contracts/libraries/PbHeader.sol\":2320:2361  m.lastResultsHash = bytes(buf.decBytes()) */\n      mstore\n        /* \"contracts/libraries/PbHeader.sol\":2287:2629  if (tag == 12) {... */\n      jump(tag_80)\n    tag_71:\n        /* \"contracts/libraries/PbHeader.sol\":2398:2401  tag */\n      dup2\n        /* \"contracts/libraries/PbHeader.sol\":2405:2407  13 */\n      0x0d\n        /* \"contracts/libraries/PbHeader.sol\":2398:2407  tag == 13 */\n      eq\n        /* \"contracts/libraries/PbHeader.sol\":2394:2629  if (tag == 13) {... */\n      iszero\n      tag_74\n      jumpi\n        /* \"contracts/libraries/PbHeader.sol\":2450:2464  buf.decBytes() */\n      tag_75\n        /* \"contracts/libraries/PbHeader.sol\":2450:2453  buf */\n      dup4\n        /* \"contracts/libraries/PbHeader.sol\":2450:2462  buf.decBytes */\n      tag_37\n        /* \"contracts/libraries/PbHeader.sol\":2450:2464  buf.decBytes() */\n      jump\t// in\n    tag_75:\n        /* \"contracts/libraries/PbHeader.sol\":2427:2441  m.evidenceHash */\n      0x0180\n      dup6\n      add\n        /* \"contracts/libraries/PbHeader.sol\":2427:2465  m.evidenceHash = bytes(buf.decBytes()) */\n      mstore\n        /* \"contracts/libraries/PbHeader.sol\":2394:2629  if (tag == 13) {... */\n      jump(tag_80)\n    tag_74:\n        /* \"contracts/libraries/PbHeader.sol\":2502:2505  tag */\n      dup2\n        /* \"contracts/libraries/PbHeader.sol\":2509:2511  14 */\n      0x0e\n        /* \"contracts/libraries/PbHeader.sol\":2502:2511  tag == 14 */\n      eq\n        /* \"contracts/libraries/PbHeader.sol\":2498:2629  if (tag == 14) {... */\n      iszero\n      tag_77\n      jumpi\n        /* \"contracts/libraries/PbHeader.sol\":2557:2571  buf.decBytes() */\n      tag_78\n        /* \"contracts/libraries/PbHeader.sol\":2557:2560  buf */\n      dup4\n        /* \"contracts/libraries/PbHeader.sol\":2557:2569  buf.decBytes */\n      tag_37\n        /* \"contracts/libraries/PbHeader.sol\":2557:2571  buf.decBytes() */\n      jump\t// in\n    tag_78:\n        /* \"contracts/libraries/PbHeader.sol\":2531:2548  m.proposerAddress */\n      0x01a0\n      dup6\n      add\n        /* \"contracts/libraries/PbHeader.sol\":2531:2572  m.proposerAddress = bytes(buf.decBytes()) */\n      mstore\n        /* \"contracts/libraries/PbHeader.sol\":2498:2629  if (tag == 14) {... */\n      jump(tag_80)\n    tag_77:\n        /* \"contracts/libraries/PbHeader.sol\":2607:2626  buf.skipValue(wire) */\n      tag_80\n        /* \"contracts/libraries/PbHeader.sol\":2607:2610  buf */\n      dup4\n        /* \"contracts/libraries/PbHeader.sol\":2621:2625  wire */\n      dup3\n        /* \"contracts/libraries/PbHeader.sol\":2607:2620  buf.skipValue */\n      tag_81\n        /* \"contracts/libraries/PbHeader.sol\":2607:2626  buf.skipValue(wire) */\n      jump\t// in\n    tag_80:\n        /* \"contracts/libraries/PbHeader.sol\":1022:2668  while (buf.hasMore()) {... */\n      jump(tag_26)\n    tag_27:\n        /* \"contracts/libraries/PbHeader.sol\":842:2674  function decHeader(bytes memory raw) public pure returns (Header memory m) {... */\n      pop\n      pop\n      pop\n      swap2\n      swap1\n      pop\n      jump\t// out\n        /* \"contracts/libraries/PbHeader.sol\":2818:3401  function decVersion(bytes memory raw) public pure returns (Version memory m) {... */\n    tag_13:\n      0x40\n      dup1\n      mload\n      dup1\n      dup3\n      add\n      dup3\n      mstore\n      0x00\n      dup1\n      dup3\n      mstore\n      0x20\n      dup1\n      dup4\n      add\n      dup3\n      swap1\n      mstore\n      dup4\n      mload\n      dup1\n      dup6\n      add\n      swap1\n      swap5\n      mstore\n      dup2\n      dup5\n      mstore\n      dup4\n      add\n        /* \"contracts/libraries/Pb.sol\":474:485  buf.b = raw */\n      dup5\n      swap1\n      mstore\n      swap1\n      swap2\n      swap1\n      dup1\n        /* \"contracts/libraries/PbHeader.sol\":3000:3395  while (buf.hasMore()) {... */\n    tag_86:\n        /* \"contracts/libraries/PbHeader.sol\":3007:3020  buf.hasMore() */\n      tag_88\n        /* \"contracts/libraries/PbHeader.sol\":3007:3010  buf */\n      dup4\n        /* \"contracts/libraries/PbHeader.sol\":3007:3018  buf.hasMore */\n      tag_29\n        /* \"contracts/libraries/PbHeader.sol\":3007:3020  buf.hasMore() */\n      jump\t// in\n    tag_88:\n        /* \"contracts/libraries/PbHeader.sol\":3000:3395  while (buf.hasMore()) {... */\n      iszero\n      tag_27\n      jumpi\n        /* \"contracts/libraries/PbHeader.sol\":3050:3062  buf.decKey() */\n      tag_89\n        /* \"contracts/libraries/PbHeader.sol\":3050:3053  buf */\n      dup4\n        /* \"contracts/libraries/PbHeader.sol\":3050:3060  buf.decKey */\n      tag_31\n        /* \"contracts/libraries/PbHeader.sol\":3050:3062  buf.decKey() */\n      jump\t// in\n    tag_89:\n        /* \"contracts/libraries/PbHeader.sol\":3036:3062  (tag, wire) = buf.decKey() */\n      swap1\n      swap3\n      pop\n      swap1\n      pop\n        /* \"contracts/libraries/PbHeader.sol\":3142:3145  tag */\n      dup2\n        /* \"contracts/libraries/PbHeader.sol\":3149:3150  1 */\n      0x01\n        /* \"contracts/libraries/PbHeader.sol\":3142:3150  tag == 1 */\n      eq\n        /* \"contracts/libraries/PbHeader.sol\":3138:3356  if (tag == 1) {... */\n      iszero\n      tag_92\n      jumpi\n        /* \"contracts/libraries/PbHeader.sol\":3187:3202  buf.decVarint() */\n      tag_93\n        /* \"contracts/libraries/PbHeader.sol\":3187:3190  buf */\n      dup4\n        /* \"contracts/libraries/PbHeader.sol\":3187:3200  buf.decVarint */\n      tag_44\n        /* \"contracts/libraries/PbHeader.sol\":3187:3202  buf.decVarint() */\n      jump\t// in\n    tag_93:\n        /* \"contracts/libraries/PbHeader.sol\":3170:3203  m.block = uint64(buf.decVarint()) */\n      0xffffffffffffffff\n      and\n      dup5\n      mstore\n        /* \"contracts/libraries/PbHeader.sol\":3138:3356  if (tag == 1) {... */\n      jump(tag_98)\n    tag_92:\n        /* \"contracts/libraries/PbHeader.sol\":3240:3243  tag */\n      dup2\n        /* \"contracts/libraries/PbHeader.sol\":3247:3248  2 */\n      0x02\n        /* \"contracts/libraries/PbHeader.sol\":3240:3248  tag == 2 */\n      eq\n        /* \"contracts/libraries/PbHeader.sol\":3236:3356  if (tag == 2) {... */\n      iszero\n      tag_95\n      jumpi\n        /* \"contracts/libraries/PbHeader.sol\":3283:3298  buf.decVarint() */\n      tag_96\n        /* \"contracts/libraries/PbHeader.sol\":3283:3286  buf */\n      dup4\n        /* \"contracts/libraries/PbHeader.sol\":3283:3296  buf.decVarint */\n      tag_44\n        /* \"contracts/libraries/PbHeader.sol\":3283:3298  buf.decVarint() */\n      jump\t// in\n    tag_96:\n        /* \"contracts/libraries/PbHeader.sol\":3268:3299  m.app = uint64(buf.decVarint()) */\n      0xffffffffffffffff\n      and\n        /* \"contracts/libraries/PbHeader.sol\":3268:3273  m.app */\n      0x20\n      dup6\n      add\n        /* \"contracts/libraries/PbHeader.sol\":3268:3299  m.app = uint64(buf.decVarint()) */\n      mstore\n        /* \"contracts/libraries/PbHeader.sol\":3236:3356  if (tag == 2) {... */\n      jump(tag_98)\n    tag_95:\n        /* \"contracts/libraries/PbHeader.sol\":3334:3353  buf.skipValue(wire) */\n      tag_98\n        /* \"contracts/libraries/PbHeader.sol\":3334:3337  buf */\n      dup4\n        /* \"contracts/libraries/PbHeader.sol\":3348:3352  wire */\n      dup3\n        /* \"contracts/libraries/PbHeader.sol\":3334:3347  buf.skipValue */\n      tag_81\n        /* \"contracts/libraries/PbHeader.sol\":3334:3353  buf.skipValue(wire) */\n      jump\t// in\n    tag_98:\n        /* \"contracts/libraries/PbHeader.sol\":3000:3395  while (buf.hasMore()) {... */\n      jump(tag_86)\n        /* \"contracts/libraries/PbHeader.sol\":3561:4160  function decBlockID(bytes memory raw) public pure returns (BlockID memory m) {... */\n    tag_18:\n        /* \"contracts/libraries/PbHeader.sol\":3620:3636  BlockID memory m */\n      tag_99\n      tag_100\n      jump\t// in\n    tag_99:\n      0x40\n      dup1\n      mload\n      dup1\n      dup3\n      add\n      swap1\n      swap2\n      mstore\n      0x00\n      dup1\n      dup3\n      mstore\n      0x20\n      dup3\n      add\n        /* \"contracts/libraries/Pb.sol\":474:485  buf.b = raw */\n      dup5\n      swap1\n      mstore\n      dup1\n        /* \"contracts/libraries/PbHeader.sol\":3743:4154  while (buf.hasMore()) {... */\n    tag_103:\n        /* \"contracts/libraries/PbHeader.sol\":3750:3763  buf.hasMore() */\n      tag_105\n        /* \"contracts/libraries/PbHeader.sol\":3750:3753  buf */\n      dup4\n        /* \"contracts/libraries/PbHeader.sol\":3750:3761  buf.hasMore */\n      tag_29\n        /* \"contracts/libraries/PbHeader.sol\":3750:3763  buf.hasMore() */\n      jump\t// in\n    tag_105:\n        /* \"contracts/libraries/PbHeader.sol\":3743:4154  while (buf.hasMore()) {... */\n      iszero\n      tag_27\n      jumpi\n        /* \"contracts/libraries/PbHeader.sol\":3793:3805  buf.decKey() */\n      tag_106\n        /* \"contracts/libraries/PbHeader.sol\":3793:3796  buf */\n      dup4\n        /* \"contracts/libraries/PbHeader.sol\":3793:3803  buf.decKey */\n      tag_31\n        /* \"contracts/libraries/PbHeader.sol\":3793:3805  buf.decKey() */\n      jump\t// in\n    tag_106:\n        /* \"contracts/libraries/PbHeader.sol\":3779:3805  (tag, wire) = buf.decKey() */\n      swap1\n      swap3\n      pop\n      swap1\n      pop\n        /* \"contracts/libraries/PbHeader.sol\":3885:3888  tag */\n      dup2\n        /* \"contracts/libraries/PbHeader.sol\":3892:3893  1 */\n      0x01\n        /* \"contracts/libraries/PbHeader.sol\":3885:3893  tag == 1 */\n      eq\n        /* \"contracts/libraries/PbHeader.sol\":3881:4115  if (tag == 1) {... */\n      iszero\n      tag_109\n      jumpi\n        /* \"contracts/libraries/PbHeader.sol\":3928:3942  buf.decBytes() */\n      tag_110\n        /* \"contracts/libraries/PbHeader.sol\":3928:3931  buf */\n      dup4\n        /* \"contracts/libraries/PbHeader.sol\":3928:3940  buf.decBytes */\n      tag_37\n        /* \"contracts/libraries/PbHeader.sol\":3928:3942  buf.decBytes() */\n      jump\t// in\n    tag_110:\n        /* \"contracts/libraries/PbHeader.sol\":3913:3943  m.hash = bytes(buf.decBytes()) */\n      dup5\n      mstore\n        /* \"contracts/libraries/PbHeader.sol\":3881:4115  if (tag == 1) {... */\n      jump(tag_117)\n    tag_109:\n        /* \"contracts/libraries/PbHeader.sol\":3980:3983  tag */\n      dup2\n        /* \"contracts/libraries/PbHeader.sol\":3987:3988  2 */\n      0x02\n        /* \"contracts/libraries/PbHeader.sol\":3980:3988  tag == 2 */\n      eq\n        /* \"contracts/libraries/PbHeader.sol\":3976:4115  if (tag == 2) {... */\n      iszero\n      tag_112\n      jumpi\n        /* \"contracts/libraries/PbHeader.sol\":4026:4058  decPartSetHeader(buf.decBytes()) */\n      tag_113\n        /* \"contracts/libraries/PbHeader.sol\":4043:4057  buf.decBytes() */\n      tag_114\n        /* \"contracts/libraries/PbHeader.sol\":4043:4046  buf */\n      dup5\n        /* \"contracts/libraries/PbHeader.sol\":4043:4055  buf.decBytes */\n      tag_37\n        /* \"contracts/libraries/PbHeader.sol\":4043:4057  buf.decBytes() */\n      jump\t// in\n    tag_114:\n        /* \"contracts/libraries/PbHeader.sol\":4026:4042  decPartSetHeader */\n      tag_115\n        /* \"contracts/libraries/PbHeader.sol\":4026:4058  decPartSetHeader(buf.decBytes()) */\n      jump\t// in\n    tag_113:\n        /* \"contracts/libraries/PbHeader.sol\":4008:4023  m.partSetHeader */\n      0x20\n      dup6\n      add\n        /* \"contracts/libraries/PbHeader.sol\":4008:4058  m.partSetHeader = decPartSetHeader(buf.decBytes()) */\n      mstore\n        /* \"contracts/libraries/PbHeader.sol\":3976:4115  if (tag == 2) {... */\n      jump(tag_117)\n    tag_112:\n        /* \"contracts/libraries/PbHeader.sol\":4093:4112  buf.skipValue(wire) */\n      tag_117\n        /* \"contracts/libraries/PbHeader.sol\":4093:4096  buf */\n      dup4\n        /* \"contracts/libraries/PbHeader.sol\":4107:4111  wire */\n      dup3\n        /* \"contracts/libraries/PbHeader.sol\":4093:4106  buf.skipValue */\n      tag_81\n        /* \"contracts/libraries/PbHeader.sol\":4093:4112  buf.skipValue(wire) */\n      jump\t// in\n    tag_117:\n        /* \"contracts/libraries/PbHeader.sol\":3743:4154  while (buf.hasMore()) {... */\n      jump(tag_103)\n        /* \"contracts/libraries/Pb.sol\":557:668  function hasMore(Buffer memory buf) internal pure returns (bool) {... */\n    tag_29:\n        /* \"contracts/libraries/Pb.sol\":649:654  buf.b */\n      0x20\n      dup2\n      add\n      mload\n        /* \"contracts/libraries/Pb.sol\":649:661  buf.b.length */\n      mload\n        /* \"contracts/libraries/Pb.sol\":639:646  buf.idx */\n      dup2\n      mload\n        /* \"contracts/libraries/Pb.sol\":639:661  buf.idx < buf.b.length */\n      lt\n        /* \"contracts/libraries/Pb.sol\":557:668  function hasMore(Buffer memory buf) internal pure returns (bool) {... */\n    tag_121:\n      swap2\n      swap1\n      pop\n      jump\t// out\n        /* \"contracts/libraries/Pb.sol\":722:906  function decKey(Buffer memory buf) internal pure returns (uint tag, WireType wiretype) {... */\n    tag_31:\n        /* \"contracts/libraries/Pb.sol\":780:788  uint tag */\n      0x00\n        /* \"contracts/libraries/Pb.sol\":790:807  WireType wiretype */\n      dup1\n        /* \"contracts/libraries/Pb.sol\":819:825  uint v */\n      0x00\n        /* \"contracts/libraries/Pb.sol\":828:842  decVarint(buf) */\n      tag_123\n        /* \"contracts/libraries/Pb.sol\":838:841  buf */\n      dup5\n        /* \"contracts/libraries/Pb.sol\":828:837  decVarint */\n      tag_44\n        /* \"contracts/libraries/Pb.sol\":828:842  decVarint(buf) */\n      jump\t// in\n    tag_123:\n        /* \"contracts/libraries/Pb.sol\":819:842  uint v = decVarint(buf) */\n      swap1\n      pop\n        /* \"contracts/libraries/Pb.sol\":858:863  v / 8 */\n      tag_124\n        /* \"contracts/libraries/Pb.sol\":862:863  8 */\n      0x08\n        /* \"contracts/libraries/Pb.sol\":819:842  uint v = decVarint(buf) */\n      dup3\n        /* \"contracts/libraries/Pb.sol\":858:863  v / 8 */\n      tag_125\n      jump\t// in\n    tag_124:\n        /* \"contracts/libraries/Pb.sol\":852:863  tag = v / 8 */\n      swap3\n      pop\n        /* \"contracts/libraries/Pb.sol\":893:894  v */\n      dup1\n        /* \"contracts/libraries/Pb.sol\":897:898  7 */\n      0x07\n        /* \"contracts/libraries/Pb.sol\":893:898  v & 7 */\n      and\n        /* \"contracts/libraries/Pb.sol\":884:899  WireType(v & 7) */\n      0x05\n      dup2\n      gt\n      iszero\n      tag_126\n      jumpi\n      mstore(0x00, shl(0xe0, 0x4e487b71))\n      mstore(0x04, 0x21)\n      revert(0x00, 0x24)\n    tag_126:\n        /* \"contracts/libraries/Pb.sol\":873:899  wiretype = WireType(v & 7) */\n      swap2\n      pop\n        /* \"contracts/libraries/Pb.sol\":722:906  function decKey(Buffer memory buf) internal pure returns (uint tag, WireType wiretype) {... */\n      pop\n      swap2\n      pop\n      swap2\n      jump\t// out\n        /* \"contracts/libraries/Pb.sol\":2606:3265  function decBytes(Buffer memory buf) internal pure returns (bytes memory b) {... */\n    tag_37:\n        /* \"contracts/libraries/Pb.sol\":2666:2680  bytes memory b */\n      0x60\n        /* \"contracts/libraries/Pb.sol\":2692:2700  uint len */\n      0x00\n        /* \"contracts/libraries/Pb.sol\":2703:2717  decVarint(buf) */\n      tag_128\n        /* \"contracts/libraries/Pb.sol\":2713:2716  buf */\n      dup4\n        /* \"contracts/libraries/Pb.sol\":2703:2712  decVarint */\n      tag_44\n        /* \"contracts/libraries/Pb.sol\":2703:2717  decVarint(buf) */\n      jump\t// in\n    tag_128:\n        /* \"contracts/libraries/Pb.sol\":2692:2717  uint len = decVarint(buf) */\n      swap1\n      pop\n        /* \"contracts/libraries/Pb.sol\":2727:2735  uint end */\n      0x00\n        /* \"contracts/libraries/Pb.sol\":2748:2751  len */\n      dup2\n        /* \"contracts/libraries/Pb.sol\":2738:2741  buf */\n      dup5\n        /* \"contracts/libraries/Pb.sol\":2738:2745  buf.idx */\n      0x00\n      add\n      mload\n        /* \"contracts/libraries/Pb.sol\":2738:2751  buf.idx + len */\n      tag_129\n      swap2\n      swap1\n      tag_130\n      jump\t// in\n    tag_129:\n        /* \"contracts/libraries/Pb.sol\":2727:2751  uint end = buf.idx + len */\n      swap1\n      pop\n        /* \"contracts/libraries/Pb.sol\":2776:2779  buf */\n      dup4\n        /* \"contracts/libraries/Pb.sol\":2776:2781  buf.b */\n      0x20\n      add\n      mload\n        /* \"contracts/libraries/Pb.sol\":2776:2788  buf.b.length */\n      mload\n        /* \"contracts/libraries/Pb.sol\":2769:2772  end */\n      dup2\n        /* \"contracts/libraries/Pb.sol\":2769:2788  end <= buf.b.length */\n      gt\n      iszero\n        /* \"contracts/libraries/Pb.sol\":2761:2789  require(end <= buf.b.length) */\n      tag_131\n      jumpi\n      0x00\n      dup1\n      revert\n    tag_131:\n        /* \"contracts/libraries/Pb.sol\":2832:2835  len */\n      dup2\n        /* \"contracts/libraries/Pb.sol\":2822:2836  new bytes(len) */\n      0xffffffffffffffff\n      dup2\n      gt\n      iszero\n      tag_132\n      jumpi\n      mstore(0x00, shl(0xe0, 0x4e487b71))\n      mstore(0x04, 0x41)\n      revert(0x00, 0x24)\n    tag_132:\n      mload(0x40)\n      swap1\n      dup1\n      dup3\n      mstore\n      dup1\n      0x1f\n      add\n      not(0x1f)\n      and\n      0x20\n      add\n      dup3\n      add\n      0x40\n      mstore\n      dup1\n      iszero\n      tag_133\n      jumpi\n      0x20\n      dup3\n      add\n      dup2\n      dup1\n      calldatasize\n      dup4\n      calldatacopy\n      add\n      swap1\n      pop\n    tag_133:\n      pop\n        /* \"contracts/libraries/Pb.sol\":2866:2871  buf.b */\n      0x20\n      dup1\n      dup7\n      add\n      mload\n        /* \"contracts/libraries/Pb.sol\":2961:2968  buf.idx */\n      dup7\n      mload\n        /* \"contracts/libraries/Pb.sol\":2818:2836  b = new bytes(len) */\n      swap3\n      swap6\n      pop\n        /* \"contracts/libraries/Pb.sol\":2866:2871  buf.b */\n      swap2\n        /* \"contracts/libraries/Pb.sol\":3011:3021  add(b, 32) */\n      dup2\n      dup7\n      add\n      swap2\n        /* \"contracts/libraries/Pb.sol\":3047:3076  add(add(bufB, 32), bufBStart) */\n      swap1\n      dup4\n      add\n      add\n        /* \"contracts/libraries/Pb.sol\":2846:2863  bytes memory bufB */\n      0x00\n        /* \"contracts/libraries/Pb.sol\":3095:3236  for (uint i=0; i<len; i+=32) {... */\n    tag_134:\n        /* \"contracts/libraries/Pb.sol\":3112:3115  len */\n      dup6\n        /* \"contracts/libraries/Pb.sol\":3110:3111  i */\n      dup2\n        /* \"contracts/libraries/Pb.sol\":3110:3115  i<len */\n      lt\n        /* \"contracts/libraries/Pb.sol\":3095:3236  for (uint i=0; i<len; i+=32) {... */\n      iszero\n      tag_135\n      jumpi\n        /* \"contracts/libraries/Pb.sol\":3193:3210  add(bufBStart, i) */\n      dup2\n      dup2\n      add\n        /* \"contracts/libraries/Pb.sol\":3187:3211  mload(add(bufBStart, i)) */\n      mload\n        /* \"contracts/libraries/Pb.sol\":3171:3185  add(bStart, i) */\n      dup4\n      dup3\n      add\n        /* \"contracts/libraries/Pb.sol\":3164:3212  mstore(add(bStart, i), mload(add(bufBStart, i))) */\n      mstore\n        /* \"contracts/libraries/Pb.sol\":3117:3122  i+=32 */\n      tag_137\n        /* \"contracts/libraries/Pb.sol\":3120:3122  32 */\n      0x20\n        /* \"contracts/libraries/Pb.sol\":3208:3209  i */\n      dup3\n        /* \"contracts/libraries/Pb.sol\":3117:3122  i+=32 */\n      tag_130\n      jump\t// in\n    tag_137:\n      swap1\n      pop\n        /* \"contracts/libraries/Pb.sol\":3095:3236  for (uint i=0; i<len; i+=32) {... */\n      jump(tag_134)\n    tag_135:\n      pop\n      pop\n      pop\n        /* \"contracts/libraries/Pb.sol\":3245:3258  buf.idx = end */\n      swap4\n      mstore\n      pop\n        /* \"contracts/libraries/Pb.sol\":2606:3265  function decBytes(Buffer memory buf) internal pure returns (bytes memory b) {... */\n      swap2\n      swap1\n      pop\n      jump\t// out\n        /* \"contracts/libraries/Pb.sol\":1655:2548  function decVarint(Buffer memory buf) internal pure returns (uint v) {... */\n    tag_44:\n        /* \"contracts/libraries/Pb.sol\":1837:1842  buf.b */\n      0x20\n      dup1\n      dup3\n      add\n      mload\n        /* \"contracts/libraries/Pb.sol\":1898:1905  buf.idx */\n      dup3\n      mload\n        /* \"contracts/libraries/Pb.sol\":1998:2017  add(add(bb, 32), v) */\n      dup2\n      add\n      swap1\n      swap2\n      add\n        /* \"contracts/libraries/Pb.sol\":1992:2018  mload(add(add(bb, 32), v)) */\n      mload\n        /* \"contracts/libraries/Pb.sol\":1716:1722  uint v */\n      0x00\n      swap2\n      dup3\n      dup1\n        /* \"contracts/libraries/Pb.sol\":2173:2493  for (uint i=0; i<10; ++i) {... */\n    tag_139:\n        /* \"contracts/libraries/Pb.sol\":2190:2192  10 */\n      0x0a\n        /* \"contracts/libraries/Pb.sol\":2188:2189  i */\n      dup2\n        /* \"contracts/libraries/Pb.sol\":2188:2192  i<10 */\n      lt\n        /* \"contracts/libraries/Pb.sol\":2173:2493  for (uint i=0; i<10; ++i) {... */\n      iszero\n      tag_140\n      jumpi\n        /* \"contracts/libraries/Pb.sol\":2245:2257  byte(i, tmp) */\n      dup4\n      dup2\n      byte\n      swap2\n      pop\n        /* \"contracts/libraries/Pb.sol\":2369:2374  i * 7 */\n      tag_142\n        /* \"contracts/libraries/Pb.sol\":2250:2251  i */\n      dup2\n        /* \"contracts/libraries/Pb.sol\":2373:2374  7 */\n      0x07\n        /* \"contracts/libraries/Pb.sol\":2369:2374  i * 7 */\n      tag_143\n      jump\t// in\n    tag_142:\n        /* \"contracts/libraries/Pb.sol\":2355:2356  b */\n      dup3\n        /* \"contracts/libraries/Pb.sol\":2359:2363  0x7F */\n      0x7f\n        /* \"contracts/libraries/Pb.sol\":2355:2363  b & 0x7F */\n      and\n        /* \"contracts/libraries/Pb.sol\":2354:2375  (b & 0x7F) << (i * 7) */\n      swap1\n      shl\n        /* \"contracts/libraries/Pb.sol\":2349:2375  v |= (b & 0x7F) << (i * 7) */\n      dup6\n      or\n      swap5\n      pop\n        /* \"contracts/libraries/Pb.sol\":2393:2394  b */\n      dup2\n        /* \"contracts/libraries/Pb.sol\":2397:2401  0x80 */\n      0x80\n        /* \"contracts/libraries/Pb.sol\":2393:2401  b & 0x80 */\n      and\n        /* \"contracts/libraries/Pb.sol\":2405:2406  0 */\n      0x00\n        /* \"contracts/libraries/Pb.sol\":2393:2406  b & 0x80 == 0 */\n      eq\n        /* \"contracts/libraries/Pb.sol\":2389:2483  if (b & 0x80 == 0) {... */\n      iszero\n      tag_144\n      jumpi\n        /* \"contracts/libraries/Pb.sol\":2437:2442  i + 1 */\n      tag_145\n        /* \"contracts/libraries/Pb.sol\":2437:2438  i */\n      dup2\n        /* \"contracts/libraries/Pb.sol\":2441:2442  1 */\n      0x01\n        /* \"contracts/libraries/Pb.sol\":2437:2442  i + 1 */\n      tag_130\n      jump\t// in\n    tag_145:\n        /* \"contracts/libraries/Pb.sol\":2426:2442  buf.idx += i + 1 */\n      dup7\n      mload\n        /* \"contracts/libraries/Pb.sol\":2426:2429  buf */\n      dup8\n      swap1\n        /* \"contracts/libraries/Pb.sol\":2426:2442  buf.idx += i + 1 */\n      tag_146\n      swap1\n      dup4\n      swap1\n      tag_130\n      jump\t// in\n    tag_146:\n      swap1\n      mstore\n      pop\n        /* \"contracts/libraries/Pb.sol\":2460:2468  return v */\n      tag_121\n      swap4\n      pop\n      pop\n      pop\n      pop\n      jump\n        /* \"contracts/libraries/Pb.sol\":2389:2483  if (b & 0x80 == 0) {... */\n    tag_144:\n        /* \"contracts/libraries/Pb.sol\":2194:2197  ++i */\n      tag_147\n      dup2\n      tag_148\n      jump\t// in\n    tag_147:\n      swap1\n      pop\n        /* \"contracts/libraries/Pb.sol\":2173:2493  for (uint i=0; i<10; ++i) {... */\n      jump(tag_139)\n    tag_140:\n      pop\n        /* \"contracts/libraries/Pb.sol\":2502:2510  revert() */\n      0x00\n      dup1\n      revert\n        /* \"contracts/libraries/Pb.sol\":4059:4454  function skipValue(Buffer memory buf, WireType wire) internal pure {... */\n    tag_81:\n        /* \"contracts/libraries/Pb.sol\":4148:4163  WireType.Varint */\n      0x00\n        /* \"contracts/libraries/Pb.sol\":4140:4144  wire */\n      dup2\n        /* \"contracts/libraries/Pb.sol\":4140:4163  wire == WireType.Varint */\n      0x05\n      dup2\n      gt\n      iszero\n      tag_151\n      jumpi\n      mstore(0x00, shl(0xe0, 0x4e487b71))\n      mstore(0x04, 0x21)\n      revert(0x00, 0x24)\n    tag_151:\n      eq\n        /* \"contracts/libraries/Pb.sol\":4136:4423  if (wire == WireType.Varint) { decVarint(buf); }... */\n      iszero\n      tag_152\n      jumpi\n        /* \"contracts/libraries/Pb.sol\":4167:4181  decVarint(buf) */\n      tag_153\n        /* \"contracts/libraries/Pb.sol\":4177:4180  buf */\n      dup3\n        /* \"contracts/libraries/Pb.sol\":4167:4176  decVarint */\n      tag_44\n        /* \"contracts/libraries/Pb.sol\":4167:4181  decVarint(buf) */\n      jump\t// in\n    tag_153:\n      pop\n        /* \"contracts/libraries/Pb.sol\":4136:4423  if (wire == WireType.Varint) { decVarint(buf); }... */\n      jump(tag_161)\n    tag_152:\n        /* \"contracts/libraries/Pb.sol\":4210:4230  WireType.LengthDelim */\n      0x02\n        /* \"contracts/libraries/Pb.sol\":4202:4206  wire */\n      dup2\n        /* \"contracts/libraries/Pb.sol\":4202:4230  wire == WireType.LengthDelim */\n      0x05\n      dup2\n      gt\n      iszero\n      tag_156\n      jumpi\n      mstore(0x00, shl(0xe0, 0x4e487b71))\n      mstore(0x04, 0x21)\n      revert(0x00, 0x24)\n    tag_156:\n      eq\n        /* \"contracts/libraries/Pb.sol\":4198:4423  if (wire == WireType.LengthDelim) {... */\n      iszero\n      tag_1\n      jumpi\n        /* \"contracts/libraries/Pb.sol\":4246:4254  uint len */\n      0x00\n        /* \"contracts/libraries/Pb.sol\":4257:4271  decVarint(buf) */\n      tag_158\n        /* \"contracts/libraries/Pb.sol\":4267:4270  buf */\n      dup4\n        /* \"contracts/libraries/Pb.sol\":4257:4266  decVarint */\n      tag_44\n        /* \"contracts/libraries/Pb.sol\":4257:4271  decVarint(buf) */\n      jump\t// in\n    tag_158:\n        /* \"contracts/libraries/Pb.sol\":4246:4271  uint len = decVarint(buf) */\n      swap1\n      pop\n        /* \"contracts/libraries/Pb.sol\":4296:4299  len */\n      dup1\n        /* \"contracts/libraries/Pb.sol\":4285:4288  buf */\n      dup4\n        /* \"contracts/libraries/Pb.sol\":4285:4292  buf.idx */\n      0x00\n      add\n        /* \"contracts/libraries/Pb.sol\":4285:4299  buf.idx += len */\n      dup2\n      dup2\n      mload\n      tag_159\n      swap2\n      swap1\n      tag_130\n      jump\t// in\n    tag_159:\n      swap1\n      mstore\n      pop\n        /* \"contracts/libraries/Pb.sol\":4361:4366  buf.b */\n      0x20\n      dup4\n      add\n      mload\n        /* \"contracts/libraries/Pb.sol\":4361:4373  buf.b.length */\n      mload\n        /* \"contracts/libraries/Pb.sol\":4350:4357  buf.idx */\n      dup4\n      mload\n        /* \"contracts/libraries/Pb.sol\":4350:4373  buf.idx <= buf.b.length */\n      gt\n      iszero\n        /* \"contracts/libraries/Pb.sol\":4342:4374  require(buf.idx <= buf.b.length) */\n      tag_153\n      jumpi\n      0x00\n      dup1\n      revert\n        /* \"contracts/libraries/Pb.sol\":4198:4423  if (wire == WireType.LengthDelim) {... */\n    tag_161:\n        /* \"contracts/libraries/Pb.sol\":4059:4454  function skipValue(Buffer memory buf, WireType wire) internal pure {... */\n      pop\n      pop\n      jump\t// out\n        /* \"contracts/libraries/PbHeader.sol\":4317:4913  function decPartSetHeader(bytes memory raw) internal pure returns (PartSetHeader memory m) {... */\n    tag_115:\n      0x40\n      dup1\n      mload\n      dup1\n      dup3\n      add\n      swap1\n      swap2\n      mstore\n      0x00\n      dup2\n      mstore\n      0x60\n      0x20\n      dup3\n      add\n      mstore\n        /* \"contracts/libraries/PbHeader.sol\":4418:4438  Pb.Buffer memory buf */\n      0x00\n        /* \"contracts/libraries/PbHeader.sol\":4441:4458  Pb.fromBytes(raw) */\n      tag_165\n        /* \"contracts/libraries/PbHeader.sol\":4454:4457  raw */\n      dup4\n      0x40\n      dup1\n      mload\n      dup1\n      dup3\n      add\n      swap1\n      swap2\n      mstore\n      0x00\n      dup2\n      mstore\n      0x20\n      dup2\n      add\n        /* \"contracts/libraries/Pb.sol\":474:485  buf.b = raw */\n      swap2\n      swap1\n      swap2\n      mstore\n      swap1\n        /* \"contracts/libraries/Pb.sol\":385:513  function fromBytes(bytes memory raw) internal pure returns (Buffer memory buf) {... */\n      jump\n        /* \"contracts/libraries/PbHeader.sol\":4441:4458  Pb.fromBytes(raw) */\n    tag_165:\n        /* \"contracts/libraries/PbHeader.sol\":4418:4458  Pb.Buffer memory buf = Pb.fromBytes(raw) */\n      swap1\n      pop\n        /* \"contracts/libraries/PbHeader.sol\":4469:4477  uint tag */\n      0x00\n        /* \"contracts/libraries/PbHeader.sol\":4487:4503  Pb.WireType wire */\n      dup1\n        /* \"contracts/libraries/PbHeader.sol\":4513:4907  while (buf.hasMore()) {... */\n    tag_166:\n        /* \"contracts/libraries/PbHeader.sol\":4520:4533  buf.hasMore() */\n      tag_168\n        /* \"contracts/libraries/PbHeader.sol\":4520:4523  buf */\n      dup4\n        /* \"contracts/libraries/PbHeader.sol\":4520:4531  buf.hasMore */\n      tag_29\n        /* \"contracts/libraries/PbHeader.sol\":4520:4533  buf.hasMore() */\n      jump\t// in\n    tag_168:\n        /* \"contracts/libraries/PbHeader.sol\":4513:4907  while (buf.hasMore()) {... */\n      iszero\n      tag_27\n      jumpi\n        /* \"contracts/libraries/PbHeader.sol\":4563:4575  buf.decKey() */\n      tag_169\n        /* \"contracts/libraries/PbHeader.sol\":4563:4566  buf */\n      dup4\n        /* \"contracts/libraries/PbHeader.sol\":4563:4573  buf.decKey */\n      tag_31\n        /* \"contracts/libraries/PbHeader.sol\":4563:4575  buf.decKey() */\n      jump\t// in\n    tag_169:\n        /* \"contracts/libraries/PbHeader.sol\":4549:4575  (tag, wire) = buf.decKey() */\n      swap1\n      swap3\n      pop\n      swap1\n      pop\n        /* \"contracts/libraries/PbHeader.sol\":4655:4658  tag */\n      dup2\n        /* \"contracts/libraries/PbHeader.sol\":4662:4663  1 */\n      0x01\n        /* \"contracts/libraries/PbHeader.sol\":4655:4663  tag == 1 */\n      eq\n        /* \"contracts/libraries/PbHeader.sol\":4651:4868  if (tag == 1) {... */\n      iszero\n      tag_172\n      jumpi\n        /* \"contracts/libraries/PbHeader.sol\":4700:4715  buf.decVarint() */\n      tag_173\n        /* \"contracts/libraries/PbHeader.sol\":4700:4703  buf */\n      dup4\n        /* \"contracts/libraries/PbHeader.sol\":4700:4713  buf.decVarint */\n      tag_44\n        /* \"contracts/libraries/PbHeader.sol\":4700:4715  buf.decVarint() */\n      jump\t// in\n    tag_173:\n        /* \"contracts/libraries/PbHeader.sol\":4683:4716  m.total = uint32(buf.decVarint()) */\n      0xffffffff\n      and\n      dup5\n      mstore\n        /* \"contracts/libraries/PbHeader.sol\":4651:4868  if (tag == 1) {... */\n      jump(tag_178)\n    tag_172:\n        /* \"contracts/libraries/PbHeader.sol\":4753:4756  tag */\n      dup2\n        /* \"contracts/libraries/PbHeader.sol\":4760:4761  2 */\n      0x02\n        /* \"contracts/libraries/PbHeader.sol\":4753:4761  tag == 2 */\n      eq\n        /* \"contracts/libraries/PbHeader.sol\":4749:4868  if (tag == 2) {... */\n      iszero\n      tag_175\n      jumpi\n        /* \"contracts/libraries/PbHeader.sol\":4796:4810  buf.decBytes() */\n      tag_176\n        /* \"contracts/libraries/PbHeader.sol\":4796:4799  buf */\n      dup4\n        /* \"contracts/libraries/PbHeader.sol\":4796:4808  buf.decBytes */\n      tag_37\n        /* \"contracts/libraries/PbHeader.sol\":4796:4810  buf.decBytes() */\n      jump\t// in\n    tag_176:\n        /* \"contracts/libraries/PbHeader.sol\":4781:4787  m.hash */\n      0x20\n      dup6\n      add\n        /* \"contracts/libraries/PbHeader.sol\":4781:4811  m.hash = bytes(buf.decBytes()) */\n      mstore\n        /* \"contracts/libraries/PbHeader.sol\":4749:4868  if (tag == 2) {... */\n      jump(tag_178)\n    tag_175:\n        /* \"contracts/libraries/PbHeader.sol\":4846:4865  buf.skipValue(wire) */\n      tag_178\n        /* \"contracts/libraries/PbHeader.sol\":4846:4849  buf */\n      dup4\n        /* \"contracts/libraries/PbHeader.sol\":4860:4864  wire */\n      dup3\n        /* \"contracts/libraries/PbHeader.sol\":4846:4859  buf.skipValue */\n      tag_81\n        /* \"contracts/libraries/PbHeader.sol\":4846:4865  buf.skipValue(wire) */\n      jump\t// in\n    tag_178:\n        /* \"contracts/libraries/PbHeader.sol\":4513:4907  while (buf.hasMore()) {... */\n      jump(tag_166)\n    tag_22:\n      0x40\n      dup1\n      mload\n      0x0200\n      dup2\n      add\n      dup3\n      mstore\n      0x00\n      0x01c0\n      dup3\n      add\n      dup2\n      dup2\n      mstore\n      0x01e0\n      dup4\n      add\n      dup3\n      swap1\n      mstore\n      dup3\n      mstore\n      0x60\n      0x20\n      dup4\n      add\n      dup2\n      swap1\n      mstore\n      swap3\n      dup3\n      add\n      dup2\n      swap1\n      mstore\n      swap2\n      dup2\n      add\n      swap2\n      swap1\n      swap2\n      mstore\n      0x80\n      dup2\n      add\n      tag_180\n      tag_100\n      jump\t// in\n    tag_180:\n      dup2\n      mstore\n      0x20\n      add\n      0x60\n      dup2\n      mstore\n      0x20\n      add\n      0x60\n      dup2\n      mstore\n      0x20\n      add\n      0x60\n      dup2\n      mstore\n      0x20\n      add\n      0x60\n      dup2\n      mstore\n      0x20\n      add\n      0x60\n      dup2\n      mstore\n      0x20\n      add\n      0x60\n      dup2\n      mstore\n      0x20\n      add\n      0x60\n      dup2\n      mstore\n      0x20\n      add\n      0x60\n      dup2\n      mstore\n      0x20\n      add\n      0x60\n      dup2\n      mstore\n      pop\n      swap1\n      jump\t// out\n    tag_100:\n      mload(0x40)\n      dup1\n      0x40\n      add\n      0x40\n      mstore\n      dup1\n      0x60\n      dup2\n      mstore\n      0x20\n      add\n      tag_181\n      mload(0x40)\n      dup1\n      0x40\n      add\n      0x40\n      mstore\n      dup1\n      and(0xffffffff, 0x00)\n      dup2\n      mstore\n      0x20\n      add\n      0x60\n      dup2\n      mstore\n      pop\n      swap1\n      jump\n    tag_181:\n      swap1\n      mstore\n      swap1\n      jump\t// out\n        /* \"#utility.yul\":14:980   */\n    tag_7:\n      0x00\n        /* \"#utility.yul\":135:137   */\n      0x20\n        /* \"#utility.yul\":123:132   */\n      dup3\n        /* \"#utility.yul\":114:121   */\n      dup5\n        /* \"#utility.yul\":110:133   */\n      sub\n        /* \"#utility.yul\":106:138   */\n      slt\n        /* \"#utility.yul\":103:105   */\n      iszero\n      tag_184\n      jumpi\n        /* \"#utility.yul\":156:162   */\n      dup1\n        /* \"#utility.yul\":148:154   */\n      dup2\n        /* \"#utility.yul\":141:163   */\n      revert\n        /* \"#utility.yul\":103:105   */\n    tag_184:\n        /* \"#utility.yul\":201:210   */\n      dup2\n        /* \"#utility.yul\":188:211   */\n      calldataload\n        /* \"#utility.yul\":230:248   */\n      0xffffffffffffffff\n        /* \"#utility.yul\":271:273   */\n      dup1\n        /* \"#utility.yul\":263:269   */\n      dup3\n        /* \"#utility.yul\":260:274   */\n      gt\n        /* \"#utility.yul\":257:259   */\n      iszero\n      tag_185\n      jumpi\n        /* \"#utility.yul\":292:298   */\n      dup3\n        /* \"#utility.yul\":284:290   */\n      dup4\n        /* \"#utility.yul\":277:299   */\n      revert\n        /* \"#utility.yul\":257:259   */\n    tag_185:\n        /* \"#utility.yul\":335:341   */\n      dup2\n        /* \"#utility.yul\":324:333   */\n      dup5\n        /* \"#utility.yul\":320:342   */\n      add\n        /* \"#utility.yul\":310:342   */\n      swap2\n      pop\n        /* \"#utility.yul\":380:387   */\n      dup5\n        /* \"#utility.yul\":373:377   */\n      0x1f\n        /* \"#utility.yul\":369:371   */\n      dup4\n        /* \"#utility.yul\":365:378   */\n      add\n        /* \"#utility.yul\":361:388   */\n      slt\n        /* \"#utility.yul\":351:353   */\n      tag_186\n      jumpi\n        /* \"#utility.yul\":407:413   */\n      dup3\n        /* \"#utility.yul\":399:405   */\n      dup4\n        /* \"#utility.yul\":392:414   */\n      revert\n        /* \"#utility.yul\":351:353   */\n    tag_186:\n        /* \"#utility.yul\":448:450   */\n      dup2\n        /* \"#utility.yul\":435:451   */\n      calldataload\n        /* \"#utility.yul\":470:472   */\n      dup2\n        /* \"#utility.yul\":466:468   */\n      dup2\n        /* \"#utility.yul\":463:473   */\n      gt\n        /* \"#utility.yul\":460:462   */\n      iszero\n      tag_188\n      jumpi\n        /* \"#utility.yul\":476:494   */\n      tag_188\n      tag_189\n      jump\t// in\n    tag_188:\n        /* \"#utility.yul\":551:553   */\n      0x40\n        /* \"#utility.yul\":545:554   */\n      mload\n        /* \"#utility.yul\":519:521   */\n      0x1f\n        /* \"#utility.yul\":605:618   */\n      dup3\n      add\n      not(0x1f)\n        /* \"#utility.yul\":601:623   */\n      swap1\n      dup2\n      and\n        /* \"#utility.yul\":625:627   */\n      0x3f\n        /* \"#utility.yul\":597:628   */\n      add\n        /* \"#utility.yul\":593:633   */\n      and\n        /* \"#utility.yul\":581:634   */\n      dup2\n      add\n      swap1\n        /* \"#utility.yul\":649:667   */\n      dup4\n      dup3\n      gt\n        /* \"#utility.yul\":669:691   */\n      dup2\n      dup4\n      lt\n        /* \"#utility.yul\":646:692   */\n      or\n        /* \"#utility.yul\":643:645   */\n      iszero\n      tag_191\n      jumpi\n        /* \"#utility.yul\":695:713   */\n      tag_191\n      tag_189\n      jump\t// in\n    tag_191:\n        /* \"#utility.yul\":735:745   */\n      dup2\n        /* \"#utility.yul\":731:733   */\n      0x40\n        /* \"#utility.yul\":724:746   */\n      mstore\n        /* \"#utility.yul\":770:772   */\n      dup3\n        /* \"#utility.yul\":762:768   */\n      dup2\n        /* \"#utility.yul\":755:773   */\n      mstore\n        /* \"#utility.yul\":810:817   */\n      dup8\n        /* \"#utility.yul\":805:807   */\n      0x20\n        /* \"#utility.yul\":800:802   */\n      dup5\n        /* \"#utility.yul\":796:798   */\n      dup8\n        /* \"#utility.yul\":792:803   */\n      add\n        /* \"#utility.yul\":788:808   */\n      add\n        /* \"#utility.yul\":785:818   */\n      gt\n        /* \"#utility.yul\":782:784   */\n      iszero\n      tag_192\n      jumpi\n        /* \"#utility.yul\":836:842   */\n      dup6\n        /* \"#utility.yul\":828:834   */\n      dup7\n        /* \"#utility.yul\":821:843   */\n      revert\n        /* \"#utility.yul\":782:784   */\n    tag_192:\n        /* \"#utility.yul\":897:899   */\n      dup3\n        /* \"#utility.yul\":892:894   */\n      0x20\n        /* \"#utility.yul\":888:890   */\n      dup7\n        /* \"#utility.yul\":884:895   */\n      add\n        /* \"#utility.yul\":879:881   */\n      0x20\n        /* \"#utility.yul\":871:877   */\n      dup4\n        /* \"#utility.yul\":867:882   */\n      add\n        /* \"#utility.yul\":854:900   */\n      calldatacopy\n        /* \"#utility.yul\":920:935   */\n      swap2\n      dup3\n      add\n        /* \"#utility.yul\":937:939   */\n      0x20\n        /* \"#utility.yul\":916:940   */\n      add\n        /* \"#utility.yul\":909:949   */\n      swap5\n      swap1\n      swap5\n      mstore\n        /* \"#utility.yul\":924:930   */\n      swap6\n        /* \"#utility.yul\":93:980   */\n      swap5\n      pop\n      pop\n      pop\n      pop\n      pop\n      jump\t// out\n        /* \"#utility.yul\":985:1460   */\n    tag_193:\n      0x00\n        /* \"#utility.yul\":1064:1069   */\n      dup2\n        /* \"#utility.yul\":1058:1070   */\n      mload\n        /* \"#utility.yul\":1091:1097   */\n      dup1\n        /* \"#utility.yul\":1086:1089   */\n      dup5\n        /* \"#utility.yul\":1079:1098   */\n      mstore\n        /* \"#utility.yul\":1116:1119   */\n      dup2\n        /* \"#utility.yul\":1128:1290   */\n    tag_195:\n        /* \"#utility.yul\":1142:1148   */\n      dup2\n        /* \"#utility.yul\":1139:1140   */\n      dup2\n        /* \"#utility.yul\":1136:1149   */\n      lt\n        /* \"#utility.yul\":1128:1290   */\n      iszero\n      tag_197\n      jumpi\n        /* \"#utility.yul\":1204:1208   */\n      0x20\n        /* \"#utility.yul\":1260:1273   */\n      dup2\n      dup6\n      add\n        /* \"#utility.yul\":1256:1278   */\n      dup2\n      add\n        /* \"#utility.yul\":1250:1279   */\n      mload\n        /* \"#utility.yul\":1232:1243   */\n      dup7\n      dup4\n      add\n        /* \"#utility.yul\":1228:1248   */\n      dup3\n      add\n        /* \"#utility.yul\":1221:1280   */\n      mstore\n        /* \"#utility.yul\":1157:1169   */\n      add\n        /* \"#utility.yul\":1128:1290   */\n      jump(tag_195)\n    tag_197:\n        /* \"#utility.yul\":1308:1314   */\n      dup2\n        /* \"#utility.yul\":1305:1306   */\n      dup2\n        /* \"#utility.yul\":1302:1315   */\n      gt\n        /* \"#utility.yul\":1299:1301   */\n      iszero\n      tag_198\n      jumpi\n        /* \"#utility.yul\":1374:1377   */\n      dup3\n        /* \"#utility.yul\":1367:1371   */\n      0x20\n        /* \"#utility.yul\":1358:1364   */\n      dup4\n        /* \"#utility.yul\":1353:1356   */\n      dup8\n        /* \"#utility.yul\":1349:1365   */\n      add\n        /* \"#utility.yul\":1345:1372   */\n      add\n        /* \"#utility.yul\":1338:1378   */\n      mstore\n        /* \"#utility.yul\":1299:1301   */\n    tag_198:\n      pop\n        /* \"#utility.yul\":1442:1444   */\n      0x1f\n        /* \"#utility.yul\":1421:1436   */\n      add\n      not(0x1f)\n        /* \"#utility.yul\":1417:1446   */\n      and\n        /* \"#utility.yul\":1408:1447   */\n      swap3\n      swap1\n      swap3\n      add\n        /* \"#utility.yul\":1449:1453   */\n      0x20\n        /* \"#utility.yul\":1404:1454   */\n      add\n      swap3\n        /* \"#utility.yul\":1034:1460   */\n      swap2\n      pop\n      pop\n      jump\t// out\n        /* \"#utility.yul\":1465:1992   */\n    tag_199:\n      0x00\n        /* \"#utility.yul\":1559:1564   */\n      dup2\n        /* \"#utility.yul\":1553:1565   */\n      mload\n        /* \"#utility.yul\":1586:1590   */\n      0x40\n        /* \"#utility.yul\":1581:1584   */\n      dup5\n        /* \"#utility.yul\":1574:1591   */\n      mstore\n        /* \"#utility.yul\":1612:1658   */\n      tag_201\n        /* \"#utility.yul\":1652:1656   */\n      0x40\n        /* \"#utility.yul\":1647:1650   */\n      dup6\n        /* \"#utility.yul\":1643:1657   */\n      add\n        /* \"#utility.yul\":1629:1641   */\n      dup3\n        /* \"#utility.yul\":1612:1658   */\n      tag_193\n      jump\t// in\n    tag_201:\n        /* \"#utility.yul\":1600:1658   */\n      swap1\n      pop\n        /* \"#utility.yul\":1706:1710   */\n      0x20\n        /* \"#utility.yul\":1699:1704   */\n      dup4\n        /* \"#utility.yul\":1695:1711   */\n      add\n        /* \"#utility.yul\":1689:1712   */\n      mload\n        /* \"#utility.yul\":1754:1757   */\n      dup5\n        /* \"#utility.yul\":1748:1752   */\n      dup3\n        /* \"#utility.yul\":1744:1758   */\n      sub\n        /* \"#utility.yul\":1737:1741   */\n      0x20\n        /* \"#utility.yul\":1732:1735   */\n      dup7\n        /* \"#utility.yul\":1728:1742   */\n      add\n        /* \"#utility.yul\":1721:1759   */\n      mstore\n        /* \"#utility.yul\":1808:1818   */\n      0xffffffff\n        /* \"#utility.yul\":1791:1805   */\n      dup2\n        /* \"#utility.yul\":1785:1806   */\n      mload\n        /* \"#utility.yul\":1781:1819   */\n      and\n        /* \"#utility.yul\":1775:1779   */\n      dup3\n        /* \"#utility.yul\":1768:1820   */\n      mstore\n        /* \"#utility.yul\":1877:1881   */\n      0x20\n        /* \"#utility.yul\":1861:1875   */\n      dup2\n        /* \"#utility.yul\":1857:1882   */\n      add\n        /* \"#utility.yul\":1851:1883   */\n      mload\n        /* \"#utility.yul\":1829:1883   */\n      swap1\n      pop\n        /* \"#utility.yul\":1916:1920   */\n      0x40\n        /* \"#utility.yul\":1909:1913   */\n      0x20\n        /* \"#utility.yul\":1903:1907   */\n      dup4\n        /* \"#utility.yul\":1899:1914   */\n      add\n        /* \"#utility.yul\":1892:1921   */\n      mstore\n        /* \"#utility.yul\":1937:1986   */\n      tag_202\n        /* \"#utility.yul\":1980:1984   */\n      0x40\n        /* \"#utility.yul\":1974:1978   */\n      dup4\n        /* \"#utility.yul\":1970:1985   */\n      add\n        /* \"#utility.yul\":1954:1968   */\n      dup3\n        /* \"#utility.yul\":1937:1986   */\n      tag_193\n      jump\t// in\n    tag_202:\n        /* \"#utility.yul\":1930:1986   */\n      swap6\n        /* \"#utility.yul\":1523:1992   */\n      swap5\n      pop\n      pop\n      pop\n      pop\n      pop\n      jump\t// out\n        /* \"#utility.yul\":2312:2578   */\n    tag_20:\n      0x00\n        /* \"#utility.yul\":2499:2501   */\n      0x20\n        /* \"#utility.yul\":2488:2497   */\n      dup3\n        /* \"#utility.yul\":2481:2502   */\n      mstore\n        /* \"#utility.yul\":2519:2572   */\n      tag_208\n        /* \"#utility.yul\":2568:2570   */\n      0x20\n        /* \"#utility.yul\":2557:2566   */\n      dup4\n        /* \"#utility.yul\":2553:2571   */\n      add\n        /* \"#utility.yul\":2545:2551   */\n      dup5\n        /* \"#utility.yul\":2519:2572   */\n      tag_199\n      jump\t// in\n    tag_208:\n        /* \"#utility.yul\":2511:2572   */\n      swap4\n        /* \"#utility.yul\":2471:2578   */\n      swap3\n      pop\n      pop\n      pop\n      jump\t// out\n        /* \"#utility.yul\":2583:5284   */\n    tag_10:\n        /* \"#utility.yul\":2766:2768   */\n      0x20\n        /* \"#utility.yul\":2748:2769   */\n      dup1\n      dup3\n      mstore\n        /* \"#utility.yul\":2804:2817   */\n      dup3\n      mload\n        /* \"#utility.yul\":2111:2123   */\n      dup1\n      mload\n        /* \"#utility.yul\":2068:2086   */\n      0xffffffffffffffff\n        /* \"#utility.yul\":2107:2128   */\n      swap1\n      dup2\n      and\n        /* \"#utility.yul\":2819:2837   */\n      dup5\n      dup5\n      add\n        /* \"#utility.yul\":2095:2129   */\n      mstore\n        /* \"#utility.yul\":2171:2187   */\n      swap2\n      add\n        /* \"#utility.yul\":2165:2188   */\n      mload\n        /* \"#utility.yul\":2161:2193   */\n      and\n        /* \"#utility.yul\":2145:2159   */\n      0x40\n      dup3\n      add\n        /* \"#utility.yul\":2138:2194   */\n      mstore\n        /* \"#utility.yul\":2583:5284   */\n      0x00\n        /* \"#utility.yul\":2885:2887   */\n      0x20\n        /* \"#utility.yul\":2877:2883   */\n      dup4\n        /* \"#utility.yul\":2873:2888   */\n      add\n        /* \"#utility.yul\":2867:2889   */\n      mload\n        /* \"#utility.yul\":2908:2914   */\n      0x01e0\n        /* \"#utility.yul\":2950:2952   */\n      dup1\n        /* \"#utility.yul\":2945:2947   */\n      0x60\n        /* \"#utility.yul\":2934:2943   */\n      dup6\n        /* \"#utility.yul\":2930:2948   */\n      add\n        /* \"#utility.yul\":2923:2953   */\n      mstore\n        /* \"#utility.yul\":2976:3027   */\n      tag_211\n        /* \"#utility.yul\":3022:3025   */\n      0x0200\n        /* \"#utility.yul\":3011:3020   */\n      dup6\n        /* \"#utility.yul\":3007:3026   */\n      add\n        /* \"#utility.yul\":2993:3005   */\n      dup4\n        /* \"#utility.yul\":2976:3027   */\n      tag_193\n      jump\t// in\n    tag_211:\n        /* \"#utility.yul\":2962:3027   */\n      swap2\n      pop\n        /* \"#utility.yul\":3076:3080   */\n      0x40\n        /* \"#utility.yul\":3068:3074   */\n      dup6\n        /* \"#utility.yul\":3064:3081   */\n      add\n        /* \"#utility.yul\":3058:3082   */\n      mload\n        /* \"#utility.yul\":3091:3145   */\n      tag_212\n        /* \"#utility.yul\":3140:3143   */\n      0x80\n        /* \"#utility.yul\":3129:3138   */\n      dup7\n        /* \"#utility.yul\":3125:3144   */\n      add\n        /* \"#utility.yul\":3109:3123   */\n      dup3\n        /* \"#utility.yul\":2281:2299   */\n      0xffffffffffffffff\n        /* \"#utility.yul\":2270:2300   */\n      and\n        /* \"#utility.yul\":2258:2301   */\n      swap1\n      mstore\n        /* \"#utility.yul\":2248:2307   */\n      jump\n        /* \"#utility.yul\":3091:3145   */\n    tag_212:\n      pop\n        /* \"#utility.yul\":3194:3196   */\n      0x60\n        /* \"#utility.yul\":3182:3197   */\n      dup6\n      add\n        /* \"#utility.yul\":3176:3198   */\n      mload\n        /* \"#utility.yul\":2281:2299   */\n      0xffffffffffffffff\n        /* \"#utility.yul\":2270:2300   */\n      and\n        /* \"#utility.yul\":3256:3259   */\n      0xa0\n        /* \"#utility.yul\":3241:3260   */\n      dup6\n      add\n        /* \"#utility.yul\":2258:2301   */\n      mstore\n        /* \"#utility.yul\":3310:3313   */\n      0x80\n        /* \"#utility.yul\":3298:3314   */\n      dup6\n      add\n        /* \"#utility.yul\":3292:3315   */\n      mload\n      not(0x1f)\n        /* \"#utility.yul\":3382:3404   */\n      dup6\n      dup5\n      sub\n        /* \"#utility.yul\":3378:3409   */\n      dup2\n      add\n        /* \"#utility.yul\":3372:3375   */\n      0xc0\n        /* \"#utility.yul\":3357:3376   */\n      dup8\n      add\n        /* \"#utility.yul\":3350:3410   */\n      mstore\n        /* \"#utility.yul\":3433:3482   */\n      tag_214\n        /* \"#utility.yul\":3382:3404   */\n      dup5\n        /* \"#utility.yul\":3292:3315   */\n      dup4\n        /* \"#utility.yul\":3433:3482   */\n      tag_199\n      jump\t// in\n    tag_214:\n        /* \"#utility.yul\":3419:3482   */\n      swap4\n      pop\n        /* \"#utility.yul\":3531:3534   */\n      0xa0\n        /* \"#utility.yul\":3523:3529   */\n      dup8\n        /* \"#utility.yul\":3519:3535   */\n      add\n        /* \"#utility.yul\":3513:3536   */\n      mload\n        /* \"#utility.yul\":3491:3536   */\n      swap2\n      pop\n        /* \"#utility.yul\":3601:3603   */\n      dup1\n        /* \"#utility.yul\":3589:3598   */\n      dup7\n        /* \"#utility.yul\":3581:3587   */\n      dup6\n        /* \"#utility.yul\":3577:3599   */\n      sub\n        /* \"#utility.yul\":3573:3604   */\n      add\n        /* \"#utility.yul\":3567:3570   */\n      0xe0\n        /* \"#utility.yul\":3556:3565   */\n      dup8\n        /* \"#utility.yul\":3552:3571   */\n      add\n        /* \"#utility.yul\":3545:3605   */\n      mstore\n        /* \"#utility.yul\":3628:3668   */\n      tag_215\n        /* \"#utility.yul\":3661:3667   */\n      dup5\n        /* \"#utility.yul\":3645:3659   */\n      dup4\n        /* \"#utility.yul\":3628:3668   */\n      tag_193\n      jump\t// in\n    tag_215:\n        /* \"#utility.yul\":3614:3668   */\n      swap4\n      pop\n        /* \"#utility.yul\":3717:3720   */\n      0xc0\n        /* \"#utility.yul\":3709:3715   */\n      dup8\n        /* \"#utility.yul\":3705:3721   */\n      add\n        /* \"#utility.yul\":3699:3722   */\n      mload\n        /* \"#utility.yul\":3677:3722   */\n      swap2\n      pop\n        /* \"#utility.yul\":3741:3744   */\n      0x0100\n        /* \"#utility.yul\":3808:3810   */\n      dup2\n        /* \"#utility.yul\":3796:3805   */\n      dup8\n        /* \"#utility.yul\":3788:3794   */\n      dup7\n        /* \"#utility.yul\":3784:3806   */\n      sub\n        /* \"#utility.yul\":3780:3811   */\n      add\n        /* \"#utility.yul\":3775:3777   */\n      dup2\n        /* \"#utility.yul\":3764:3773   */\n      dup9\n        /* \"#utility.yul\":3760:3778   */\n      add\n        /* \"#utility.yul\":3753:3812   */\n      mstore\n        /* \"#utility.yul\":3835:3875   */\n      tag_216\n        /* \"#utility.yul\":3868:3874   */\n      dup6\n        /* \"#utility.yul\":3852:3866   */\n      dup5\n        /* \"#utility.yul\":3835:3875   */\n      tag_193\n      jump\t// in\n    tag_216:\n        /* \"#utility.yul\":3821:3875   */\n      swap5\n      pop\n        /* \"#utility.yul\":3924:3927   */\n      0xe0\n        /* \"#utility.yul\":3916:3922   */\n      dup9\n        /* \"#utility.yul\":3912:3928   */\n      add\n        /* \"#utility.yul\":3906:3929   */\n      mload\n        /* \"#utility.yul\":3884:3929   */\n      swap3\n      pop\n        /* \"#utility.yul\":3948:3951   */\n      0x0120\n        /* \"#utility.yul\":4015:4017   */\n      dup3\n        /* \"#utility.yul\":4003:4012   */\n      dup9\n        /* \"#utility.yul\":3995:4001   */\n      dup8\n        /* \"#utility.yul\":3991:4013   */\n      sub\n        /* \"#utility.yul\":3987:4018   */\n      add\n        /* \"#utility.yul\":3982:3984   */\n      dup2\n        /* \"#utility.yul\":3971:3980   */\n      dup10\n        /* \"#utility.yul\":3967:3985   */\n      add\n        /* \"#utility.yul\":3960:4019   */\n      mstore\n        /* \"#utility.yul\":4042:4082   */\n      tag_217\n        /* \"#utility.yul\":4075:4081   */\n      dup7\n        /* \"#utility.yul\":4059:4073   */\n      dup6\n        /* \"#utility.yul\":4042:4082   */\n      tag_193\n      jump\t// in\n    tag_217:\n        /* \"#utility.yul\":4028:4082   */\n      swap6\n      pop\n        /* \"#utility.yul\":4131:4133   */\n      dup2\n        /* \"#utility.yul\":4123:4129   */\n      dup10\n        /* \"#utility.yul\":4119:4134   */\n      add\n        /* \"#utility.yul\":4113:4135   */\n      mload\n        /* \"#utility.yul\":4091:4135   */\n      swap4\n      pop\n        /* \"#utility.yul\":4154:4157   */\n      0x0140\n        /* \"#utility.yul\":4144:4157   */\n      swap2\n      pop\n        /* \"#utility.yul\":4221:4223   */\n      dup3\n        /* \"#utility.yul\":4209:4218   */\n      dup9\n        /* \"#utility.yul\":4201:4207   */\n      dup8\n        /* \"#utility.yul\":4197:4219   */\n      sub\n        /* \"#utility.yul\":4193:4224   */\n      add\n        /* \"#utility.yul\":4188:4190   */\n      dup3\n        /* \"#utility.yul\":4177:4186   */\n      dup10\n        /* \"#utility.yul\":4173:4191   */\n      add\n        /* \"#utility.yul\":4166:4225   */\n      mstore\n        /* \"#utility.yul\":4248:4288   */\n      tag_218\n        /* \"#utility.yul\":4281:4287   */\n      dup7\n        /* \"#utility.yul\":4265:4279   */\n      dup6\n        /* \"#utility.yul\":4248:4288   */\n      tag_193\n      jump\t// in\n    tag_218:\n        /* \"#utility.yul\":4234:4288   */\n      swap6\n      pop\n        /* \"#utility.yul\":4337:4339   */\n      dup1\n        /* \"#utility.yul\":4329:4335   */\n      dup10\n        /* \"#utility.yul\":4325:4340   */\n      add\n        /* \"#utility.yul\":4319:4341   */\n      mload\n        /* \"#utility.yul\":4297:4341   */\n      swap4\n      pop\n      pop\n        /* \"#utility.yul\":4360:4363   */\n      0x0160\n        /* \"#utility.yul\":4427:4429   */\n      dup3\n        /* \"#utility.yul\":4415:4424   */\n      dup9\n        /* \"#utility.yul\":4407:4413   */\n      dup8\n        /* \"#utility.yul\":4403:4425   */\n      sub\n        /* \"#utility.yul\":4399:4430   */\n      add\n        /* \"#utility.yul\":4394:4396   */\n      dup2\n        /* \"#utility.yul\":4383:4392   */\n      dup10\n        /* \"#utility.yul\":4379:4397   */\n      add\n        /* \"#utility.yul\":4372:4431   */\n      mstore\n        /* \"#utility.yul\":4454:4494   */\n      tag_219\n        /* \"#utility.yul\":4487:4493   */\n      dup7\n        /* \"#utility.yul\":4471:4485   */\n      dup6\n        /* \"#utility.yul\":4454:4494   */\n      tag_193\n      jump\t// in\n    tag_219:\n        /* \"#utility.yul\":4440:4494   */\n      swap6\n      pop\n        /* \"#utility.yul\":4543:4545   */\n      dup2\n        /* \"#utility.yul\":4535:4541   */\n      dup10\n        /* \"#utility.yul\":4531:4546   */\n      add\n        /* \"#utility.yul\":4525:4547   */\n      mload\n        /* \"#utility.yul\":4503:4547   */\n      swap4\n      pop\n        /* \"#utility.yul\":4566:4569   */\n      0x0180\n        /* \"#utility.yul\":4556:4569   */\n      swap2\n      pop\n        /* \"#utility.yul\":4633:4635   */\n      dup3\n        /* \"#utility.yul\":4621:4630   */\n      dup9\n        /* \"#utility.yul\":4613:4619   */\n      dup8\n        /* \"#utility.yul\":4609:4631   */\n      sub\n        /* \"#utility.yul\":4605:4636   */\n      add\n        /* \"#utility.yul\":4600:4602   */\n      dup3\n        /* \"#utility.yul\":4589:4598   */\n      dup10\n        /* \"#utility.yul\":4585:4603   */\n      add\n        /* \"#utility.yul\":4578:4637   */\n      mstore\n        /* \"#utility.yul\":4660:4700   */\n      tag_220\n        /* \"#utility.yul\":4693:4699   */\n      dup7\n        /* \"#utility.yul\":4677:4691   */\n      dup6\n        /* \"#utility.yul\":4660:4700   */\n      tag_193\n      jump\t// in\n    tag_220:\n        /* \"#utility.yul\":4646:4700   */\n      swap6\n      pop\n        /* \"#utility.yul\":4750:4752   */\n      dup1\n        /* \"#utility.yul\":4742:4748   */\n      dup10\n        /* \"#utility.yul\":4738:4753   */\n      add\n        /* \"#utility.yul\":4732:4754   */\n      mload\n        /* \"#utility.yul\":4709:4754   */\n      swap4\n      pop\n      pop\n        /* \"#utility.yul\":4773:4776   */\n      0x01a0\n        /* \"#utility.yul\":4840:4842   */\n      dup3\n        /* \"#utility.yul\":4828:4837   */\n      dup9\n        /* \"#utility.yul\":4820:4826   */\n      dup8\n        /* \"#utility.yul\":4816:4838   */\n      sub\n        /* \"#utility.yul\":4812:4843   */\n      add\n        /* \"#utility.yul\":4807:4809   */\n      dup2\n        /* \"#utility.yul\":4796:4805   */\n      dup10\n        /* \"#utility.yul\":4792:4810   */\n      add\n        /* \"#utility.yul\":4785:4844   */\n      mstore\n        /* \"#utility.yul\":4867:4908   */\n      tag_221\n        /* \"#utility.yul\":4901:4907   */\n      dup7\n        /* \"#utility.yul\":4884:4899   */\n      dup6\n        /* \"#utility.yul\":4867:4908   */\n      tag_193\n      jump\t// in\n    tag_221:\n        /* \"#utility.yul\":4853:4908   */\n      swap6\n      pop\n        /* \"#utility.yul\":4958:4960   */\n      dup2\n        /* \"#utility.yul\":4950:4956   */\n      dup10\n        /* \"#utility.yul\":4946:4961   */\n      add\n        /* \"#utility.yul\":4940:4962   */\n      mload\n        /* \"#utility.yul\":4917:4962   */\n      swap4\n      pop\n        /* \"#utility.yul\":5027:5029   */\n      dup3\n        /* \"#utility.yul\":5015:5024   */\n      dup9\n        /* \"#utility.yul\":5007:5013   */\n      dup8\n        /* \"#utility.yul\":5003:5025   */\n      sub\n        /* \"#utility.yul\":4999:5030   */\n      add\n        /* \"#utility.yul\":4993:4996   */\n      0x01c0\n        /* \"#utility.yul\":4982:4991   */\n      dup10\n        /* \"#utility.yul\":4978:4997   */\n      add\n        /* \"#utility.yul\":4971:5031   */\n      mstore\n        /* \"#utility.yul\":5055:5096   */\n      tag_222\n        /* \"#utility.yul\":5089:5095   */\n      dup7\n        /* \"#utility.yul\":5072:5087   */\n      dup6\n        /* \"#utility.yul\":5055:5096   */\n      tag_193\n      jump\t// in\n    tag_222:\n        /* \"#utility.yul\":5040:5096   */\n      swap6\n      pop\n        /* \"#utility.yul\":5146:5148   */\n      dup1\n        /* \"#utility.yul\":5138:5144   */\n      dup10\n        /* \"#utility.yul\":5134:5149   */\n      add\n        /* \"#utility.yul\":5128:5150   */\n      mload\n        /* \"#utility.yul\":5105:5150   */\n      swap4\n      pop\n      pop\n      pop\n        /* \"#utility.yul\":5215:5217   */\n      dup1\n        /* \"#utility.yul\":5203:5212   */\n      dup7\n        /* \"#utility.yul\":5194:5201   */\n      dup6\n        /* \"#utility.yul\":5190:5213   */\n      sub\n        /* \"#utility.yul\":5186:5218   */\n      add\n        /* \"#utility.yul\":5181:5183   */\n      dup4\n        /* \"#utility.yul\":5170:5179   */\n      dup8\n        /* \"#utility.yul\":5166:5184   */\n      add\n        /* \"#utility.yul\":5159:5219   */\n      mstore\n      pop\n        /* \"#utility.yul\":5236:5278   */\n      tag_223\n        /* \"#utility.yul\":5270:5277   */\n      dup4\n        /* \"#utility.yul\":5253:5268   */\n      dup3\n        /* \"#utility.yul\":5236:5278   */\n      tag_193\n      jump\t// in\n    tag_223:\n        /* \"#utility.yul\":5228:5278   */\n      swap7\n        /* \"#utility.yul\":2738:5284   */\n      swap6\n      pop\n      pop\n      pop\n      pop\n      pop\n      pop\n      jump\t// out\n        /* \"#utility.yul\":5289:5543   */\n    tag_15:\n        /* \"#utility.yul\":5481:5483   */\n      0x40\n        /* \"#utility.yul\":5466:5484   */\n      dup2\n      add\n        /* \"#utility.yul\":5493:5537   */\n      tag_225\n        /* \"#utility.yul\":5470:5479   */\n      dup3\n        /* \"#utility.yul\":5519:5525   */\n      dup5\n        /* \"#utility.yul\":2111:2123   */\n      dup1\n      mload\n        /* \"#utility.yul\":2068:2086   */\n      0xffffffffffffffff\n        /* \"#utility.yul\":2107:2128   */\n      swap1\n      dup2\n      and\n        /* \"#utility.yul\":2095:2129   */\n      dup4\n      mstore\n        /* \"#utility.yul\":2182:2186   */\n      0x20\n        /* \"#utility.yul\":2171:2187   */\n      swap2\n      dup3\n      add\n        /* \"#utility.yul\":2165:2188   */\n      mload\n        /* \"#utility.yul\":2161:2193   */\n      and\n        /* \"#utility.yul\":2145:2159   */\n      swap2\n      add\n        /* \"#utility.yul\":2138:2194   */\n      mstore\n        /* \"#utility.yul\":2048:2200   */\n      jump\n        /* \"#utility.yul\":5493:5537   */\n    tag_225:\n        /* \"#utility.yul\":5448:5543   */\n      swap3\n      swap2\n      pop\n      pop\n      jump\t// out\n        /* \"#utility.yul\":5548:5676   */\n    tag_130:\n      0x00\n        /* \"#utility.yul\":5619:5620   */\n      dup3\n        /* \"#utility.yul\":5615:5621   */\n      not\n        /* \"#utility.yul\":5612:5613   */\n      dup3\n        /* \"#utility.yul\":5609:5622   */\n      gt\n        /* \"#utility.yul\":5606:5608   */\n      iszero\n      tag_228\n      jumpi\n        /* \"#utility.yul\":5625:5643   */\n      tag_228\n      tag_229\n      jump\t// in\n    tag_228:\n      pop\n        /* \"#utility.yul\":5661:5670   */\n      add\n      swap1\n        /* \"#utility.yul\":5596:5676   */\n      jump\t// out\n        /* \"#utility.yul\":5681:5898   */\n    tag_125:\n      0x00\n        /* \"#utility.yul\":5747:5748   */\n      dup3\n        /* \"#utility.yul\":5737:5739   */\n      tag_231\n      jumpi\n      shl(0xe0, 0x4e487b71)\n        /* \"#utility.yul\":5772:5803   */\n      dup2\n      mstore\n        /* \"#utility.yul\":5826:5830   */\n      0x12\n        /* \"#utility.yul\":5823:5824   */\n      0x04\n        /* \"#utility.yul\":5816:5831   */\n      mstore\n        /* \"#utility.yul\":5854:5858   */\n      0x24\n        /* \"#utility.yul\":5779:5780   */\n      dup2\n        /* \"#utility.yul\":5844:5859   */\n      revert\n        /* \"#utility.yul\":5737:5739   */\n    tag_231:\n      pop\n        /* \"#utility.yul\":5883:5892   */\n      div\n      swap1\n        /* \"#utility.yul\":5727:5898   */\n      jump\t// out\n        /* \"#utility.yul\":5903:6071   */\n    tag_143:\n      0x00\n        /* \"#utility.yul\":6009:6010   */\n      dup2\n        /* \"#utility.yul\":6005:6006   */\n      0x00\n        /* \"#utility.yul\":6001:6007   */\n      not\n        /* \"#utility.yul\":5997:6011   */\n      div\n        /* \"#utility.yul\":5994:5995   */\n      dup4\n        /* \"#utility.yul\":5991:6012   */\n      gt\n        /* \"#utility.yul\":5986:5987   */\n      dup3\n        /* \"#utility.yul\":5979:5988   */\n      iszero\n        /* \"#utility.yul\":5972:5989   */\n      iszero\n        /* \"#utility.yul\":5968:6013   */\n      and\n        /* \"#utility.yul\":5965:5967   */\n      iszero\n      tag_234\n      jumpi\n        /* \"#utility.yul\":6016:6034   */\n      tag_234\n      tag_229\n      jump\t// in\n    tag_234:\n      pop\n        /* \"#utility.yul\":6056:6065   */\n      mul\n      swap1\n        /* \"#utility.yul\":5955:6071   */\n      jump\t// out\n        /* \"#utility.yul\":6076:6211   */\n    tag_148:\n      0x00\n      not(0x00)\n        /* \"#utility.yul\":6136:6153   */\n      dup3\n      eq\n        /* \"#utility.yul\":6133:6135   */\n      iszero\n      tag_237\n      jumpi\n        /* \"#utility.yul\":6156:6174   */\n      tag_237\n      tag_229\n      jump\t// in\n    tag_237:\n      pop\n        /* \"#utility.yul\":6203:6204   */\n      0x01\n        /* \"#utility.yul\":6192:6205   */\n      add\n      swap1\n        /* \"#utility.yul\":6123:6211   */\n      jump\t// out\n        /* \"#utility.yul\":6216:6343   */\n    tag_229:\n        /* \"#utility.yul\":6277:6287   */\n      0x4e487b71\n        /* \"#utility.yul\":6272:6275   */\n      0xe0\n        /* \"#utility.yul\":6268:6288   */\n      shl\n        /* \"#utility.yul\":6265:6266   */\n      0x00\n        /* \"#utility.yul\":6258:6289   */\n      mstore\n        /* \"#utility.yul\":6308:6312   */\n      0x11\n        /* \"#utility.yul\":6305:6306   */\n      0x04\n        /* \"#utility.yul\":6298:6313   */\n      mstore\n        /* \"#utility.yul\":6332:6336   */\n      0x24\n        /* \"#utility.yul\":6329:6330   */\n      0x00\n        /* \"#utility.yul\":6322:6337   */\n      revert\n        /* \"#utility.yul\":6348:6475   */\n    tag_189:\n        /* \"#utility.yul\":6409:6419   */\n      0x4e487b71\n        /* \"#utility.yul\":6404:6407   */\n      0xe0\n        /* \"#utility.yul\":6400:6420   */\n      shl\n        /* \"#utility.yul\":6397:6398   */\n      0x00\n        /* \"#utility.yul\":6390:6421   */\n      mstore\n        /* \"#utility.yul\":6440:6444   */\n      0x41\n        /* \"#utility.yul\":6437:6438   */\n      0x04\n        /* \"#utility.yul\":6430:6445   */\n      mstore\n        /* \"#utility.yul\":6464:6468   */\n      0x24\n        /* \"#utility.yul\":6461:6462   */\n      0x00\n        /* \"#utility.yul\":6454:6469   */\n      revert\n\n    auxdata: 0xa2646970667358221220561c99fa9305f9dbffd1350fe8822af5c1790b4ce5451d5df6188bc74cd9bc7864736f6c63430008020033\n}\n",
				"bytecode": {
					"linkReferences": {},
					"object": "610b7e61003a600b82828239805160001a60731461002d57634e487b7160e01b600052600060045260246000fd5b30600052607381538281f3fe730000000000000000000000000000000000000000301460806040526004361061004b5760003560e01c80638e86ed9914610050578063bc1c6bd614610079578063f9de4e5714610099575b600080fd5b61006361005e366004610772565b6100b9565b60405161007091906108d3565b60405180910390f35b61008c610087366004610772565b6102b1565b6040516100709190610a7f565b6100ac6100a7366004610772565b610350565b60405161007091906108b9565b6100c16106b2565b60408051808201909152600080825260208201849052805b6100e2836103d8565b156102a9576100f0836103e7565b909250905081600114156101115761010a6100878461042f565b84526102a4565b816002141561012d576101238361042f565b60208501526102a4565b81600314156101535761013f836104fa565b67ffffffffffffffff1660408501526102a4565b816004141561017957610165836104fa565b67ffffffffffffffff1660608501526102a4565b81600514156101985761018e6100a78461042f565b60808501526102a4565b81600614156101b4576101aa8361042f565b60a08501526102a4565b81600714156101d0576101c68361042f565b60c08501526102a4565b81600814156101ec576101e28361042f565b60e08501526102a4565b8160091415610209576101fe8361042f565b6101008501526102a4565b81600a14156102265761021b8361042f565b6101208501526102a4565b81600b1415610243576102388361042f565b6101408501526102a4565b81600c1415610260576102558361042f565b6101608501526102a4565b81600d141561027d576102728361042f565b6101808501526102a4565b81600e141561029a5761028f8361042f565b6101a08501526102a4565b6102a4838261057a565b6100d9565b505050919050565b6040805180820182526000808252602080830182905283518085019094528184528301849052909190805b6102e5836103d8565b156102a9576102f3836103e7565b9092509050816001141561031b5761030a836104fa565b67ffffffffffffffff16845261034b565b81600214156103415761032d836104fa565b67ffffffffffffffff16602085015261034b565b61034b838261057a565b6102dc565b610358610738565b60408051808201909152600080825260208201849052805b610379836103d8565b156102a957610387836103e7565b909250905081600114156103a55761039e8361042f565b84526103d3565b81600214156103c9576103bf6103ba8461042f565b610612565b60208501526103d3565b6103d3838261057a565b610370565b6020810151518151105b919050565b60008060006103f5846104fa565b9050610402600882610ac2565b925080600716600581111561042757634e487b7160e01b600052602160045260246000fd5b915050915091565b6060600061043c836104fa565b905060008184600001516104509190610aaa565b905083602001515181111561046457600080fd5b8167ffffffffffffffff81111561048b57634e487b7160e01b600052604160045260246000fd5b6040519080825280601f01601f1916602001820160405280156104b5576020820181803683370190505b50602080860151865192955091818601919083010160005b858110156104ef5781810151838201526104e8602082610aaa565b90506104cd565b505050935250919050565b602080820151825181019091015160009182805b600a8110156105745783811a9150610527816007610ae2565b82607f16901b85179450816080166000141561056457610548816001610aaa565b86518790610557908390610aaa565b9052506103e29350505050565b61056d81610b01565b905061050e565b50600080fd5b600081600581111561059c57634e487b7160e01b600052602160045260246000fd5b14156105b1576105ab826104fa565b5061060e565b60028160058111156105d357634e487b7160e01b600052602160045260246000fd5b141561004b5760006105e4836104fa565b905080836000018181516105f89190610aaa565b905250602083015151835111156105ab57600080fd5b5050565b6040805180820190915260008152606060208201526000610646836040805180820190915260008152602081019190915290565b90506000805b610655836103d8565b156102a957610663836103e7565b909250905081600114156106875761067a836104fa565b63ffffffff1684526106ad565b81600214156106a3576106998361042f565b60208501526106ad565b6106ad838261057a565b61064c565b604080516102008101825260006101c082018181526101e08301829052825260606020830181905292820181905291810191909152608081016106f3610738565b81526020016060815260200160608152602001606081526020016060815260200160608152602001606081526020016060815260200160608152602001606081525090565b60405180604001604052806060815260200161076d6040518060400160405280600063ffffffff168152602001606081525090565b905290565b600060208284031215610783578081fd5b813567ffffffffffffffff8082111561079a578283fd5b818401915084601f8301126107ad578283fd5b8135818111156107bf576107bf610b32565b604051601f8201601f19908116603f011681019083821181831017156107e7576107e7610b32565b816040528281528760208487010111156107ff578586fd5b826020860160208301379182016020019490945295945050505050565b60008151808452815b8181101561084157602081850181015186830182015201610825565b818111156108525782602083870101525b50601f01601f19169290920160200192915050565b600081516040845261087c604085018261081c565b90506020830151848203602086015263ffffffff815116825260208101519050604060208301526108b0604083018261081c565b95945050505050565b6000602082526108cc6020830184610867565b9392505050565b60208082528251805167ffffffffffffffff90811684840152910151166040820152600060208301516101e080606085015261091361020085018361081c565b91506040850151610930608086018267ffffffffffffffff169052565b50606085015167ffffffffffffffff1660a08501526080850151601f19858403810160c08701526109618483610867565b935060a08701519150808685030160e087015261097e848361081c565b935060c0870151915061010081878603018188015261099d858461081c565b945060e088015192506101208288870301818901526109bc868561081c565b955081890151935061014091508288870301828901526109dc868561081c565b9550808901519350506101608288870301818901526109fb868561081c565b95508189015193506101809150828887030182890152610a1b868561081c565b9550808901519350506101a0828887030181890152610a3a868561081c565b955081890151935082888703016101c0890152610a57868561081c565b9550808901519350505080868503018387015250610a75838261081c565b9695505050505050565b60408101610aa48284805167ffffffffffffffff908116835260209182015116910152565b92915050565b60008219821115610abd57610abd610b1c565b500190565b600082610add57634e487b7160e01b81526012600452602481fd5b500490565b6000816000190483118215151615610afc57610afc610b1c565b500290565b6000600019821415610b1557610b15610b1c565b5060010190565b634e487b7160e01b600052601160045260246000fd5b634e487b7160e01b600052604160045260246000fdfea2646970667358221220561c99fa9305f9dbffd1350fe8822af5c1790b4ce5451d5df6188bc74cd9bc7864736f6c63430008020033",
					"opcodes": "PUSH2 0xB7E PUSH2 0x3A PUSH1 0xB DUP3 DUP3 DUP3 CODECOPY DUP1 MLOAD PUSH1 0x0 BYTE PUSH1 0x73 EQ PUSH2 0x2D JUMPI PUSH4 0x4E487B71 PUSH1 0xE0 SHL PUSH1 0x0 MSTORE PUSH1 0x0 PUSH1 0x4 MSTORE PUSH1 0x24 PUSH1 0x0 REVERT JUMPDEST ADDRESS PUSH1 0x0 MSTORE PUSH1 0x73 DUP2 MSTORE8 DUP3 DUP2 RETURN INVALID PUSH20 0x0 ADDRESS EQ PUSH1 0x80 PUSH1 0x40 MSTORE PUSH1 0x4 CALLDATASIZE LT PUSH2 0x4B JUMPI PUSH1 0x0 CALLDATALOAD PUSH1 0xE0 SHR DUP1 PUSH4 0x8E86ED99 EQ PUSH2 0x50 JUMPI DUP1 PUSH4 0xBC1C6BD6 EQ PUSH2 0x79 JUMPI DUP1 PUSH4 0xF9DE4E57 EQ PUSH2 0x99 JUMPI JUMPDEST PUSH1 0x0 DUP1 REVERT JUMPDEST PUSH2 0x63 PUSH2 0x5E CALLDATASIZE PUSH1 0x4 PUSH2 0x772 JUMP JUMPDEST PUSH2 0xB9 JUMP JUMPDEST PUSH1 0x40 MLOAD PUSH2 0x70 SWAP2 SWAP1 PUSH2 0x8D3 JUMP JUMPDEST PUSH1 0x40 MLOAD DUP1 SWAP2 SUB SWAP1 RETURN JUMPDEST PUSH2 0x8C PUSH2 0x87 CALLDATASIZE PUSH1 0x4 PUSH2 0x772 JUMP JUMPDEST PUSH2 0x2B1 JUMP JUMPDEST PUSH1 0x40 MLOAD PUSH2 0x70 SWAP2 SWAP1 PUSH2 0xA7F JUMP JUMPDEST PUSH2 0xAC PUSH2 0xA7 CALLDATASIZE PUSH1 0x4 PUSH2 0x772 JUMP JUMPDEST PUSH2 0x350 JUMP JUMPDEST PUSH1 0x40 MLOAD PUSH2 0x70 SWAP2 SWAP1 PUSH2 0x8B9 JUMP JUMPDEST PUSH2 0xC1 PUSH2 0x6B2 JUMP JUMPDEST PUSH1 0x40 DUP1 MLOAD DUP1 DUP3 ADD SWAP1 SWAP2 MSTORE PUSH1 0x0 DUP1 DUP3 MSTORE PUSH1 0x20 DUP3 ADD DUP5 SWAP1 MSTORE DUP1 JUMPDEST PUSH2 0xE2 DUP4 PUSH2 0x3D8 JUMP JUMPDEST ISZERO PUSH2 0x2A9 JUMPI PUSH2 0xF0 DUP4 PUSH2 0x3E7 JUMP JUMPDEST SWAP1 SWAP3 POP SWAP1 POP DUP2 PUSH1 0x1 EQ ISZERO PUSH2 0x111 JUMPI PUSH2 0x10A PUSH2 0x87 DUP5 PUSH2 0x42F JUMP JUMPDEST DUP5 MSTORE PUSH2 0x2A4 JUMP JUMPDEST DUP2 PUSH1 0x2 EQ ISZERO PUSH2 0x12D JUMPI PUSH2 0x123 DUP4 PUSH2 0x42F JUMP JUMPDEST PUSH1 0x20 DUP6 ADD MSTORE PUSH2 0x2A4 JUMP JUMPDEST DUP2 PUSH1 0x3 EQ ISZERO PUSH2 0x153 JUMPI PUSH2 0x13F DUP4 PUSH2 0x4FA JUMP JUMPDEST PUSH8 0xFFFFFFFFFFFFFFFF AND PUSH1 0x40 DUP6 ADD MSTORE PUSH2 0x2A4 JUMP JUMPDEST DUP2 PUSH1 0x4 EQ ISZERO PUSH2 0x179 JUMPI PUSH2 0x165 DUP4 PUSH2 0x4FA JUMP JUMPDEST PUSH8 0xFFFFFFFFFFFFFFFF AND PUSH1 0x60 DUP6 ADD MSTORE PUSH2 0x2A4 JUMP JUMPDEST DUP2 PUSH1 0x5 EQ ISZERO PUSH2 0x198 JUMPI PUSH2 0x18E PUSH2 0xA7 DUP5 PUSH2 0x42F JUMP JUMPDEST PUSH1 0x80 DUP6 ADD MSTORE PUSH2 0x2A4 JUMP JUMPDEST DUP2 PUSH1 0x6 EQ ISZERO PUSH2 0x1B4 JUMPI PUSH2 0x1AA DUP4 PUSH2 0x42F JUMP JUMPDEST PUSH1 0xA0 DUP6 ADD MSTORE PUSH2 0x2A4 JUMP JUMPDEST DUP2 PUSH1 0x7 EQ ISZERO PUSH2 0x1D0 JUMPI PUSH2 0x1C6 DUP4 PUSH2 0x42F JUMP JUMPDEST PUSH1 0xC0 DUP6 ADD MSTORE PUSH2 0x2A4 JUMP JUMPDEST DUP2 PUSH1 0x8 EQ ISZERO PUSH2 0x1EC JUMPI PUSH2 0x1E2 DUP4 PUSH2 0x42F JUMP JUMPDEST PUSH1 0xE0 DUP6 ADD MSTORE PUSH2 0x2A4 JUMP JUMPDEST DUP2 PUSH1 0x9 EQ ISZERO PUSH2 0x209 JUMPI PUSH2 0x1FE DUP4 PUSH2 0x42F JUMP JUMPDEST PUSH2 0x100 DUP6 ADD MSTORE PUSH2 0x2A4 JUMP JUMPDEST DUP2 PUSH1 0xA EQ ISZERO PUSH2 0x226 JUMPI PUSH2 0x21B DUP4 PUSH2 0x42F JUMP JUMPDEST PUSH2 0x120 DUP6 ADD MSTORE PUSH2 0x2A4 JUMP JUMPDEST DUP2 PUSH1 0xB EQ ISZERO PUSH2 0x243 JUMPI PUSH2 0x238 DUP4 PUSH2 0x42F JUMP JUMPDEST PUSH2 0x140 DUP6 ADD MSTORE PUSH2 0x2A4 JUMP JUMPDEST DUP2 PUSH1 0xC EQ ISZERO PUSH2 0x260 JUMPI PUSH2 0x255 DUP4 PUSH2 0x42F JUMP JUMPDEST PUSH2 0x160 DUP6 ADD MSTORE PUSH2 0x2A4 JUMP JUMPDEST DUP2 PUSH1 0xD EQ ISZERO PUSH2 0x27D JUMPI PUSH2 0x272 DUP4 PUSH2 0x42F JUMP JUMPDEST PUSH2 0x180 DUP6 ADD MSTORE PUSH2 0x2A4 JUMP JUMPDEST DUP2 PUSH1 0xE EQ ISZERO PUSH2 0x29A JUMPI PUSH2 0x28F DUP4 PUSH2 0x42F JUMP JUMPDEST PUSH2 0x1A0 DUP6 ADD MSTORE PUSH2 0x2A4 JUMP JUMPDEST PUSH2 0x2A4 DUP4 DUP3 PUSH2 0x57A JUMP JUMPDEST PUSH2 0xD9 JUMP JUMPDEST POP POP POP SWAP2 SWAP1 POP JUMP JUMPDEST PUSH1 0x40 DUP1 MLOAD DUP1 DUP3 ADD DUP3 MSTORE PUSH1 0x0 DUP1 DUP3 MSTORE PUSH1 0x20 DUP1 DUP4 ADD DUP3 SWAP1 MSTORE DUP4 MLOAD DUP1 DUP6 ADD SWAP1 SWAP5 MSTORE DUP2 DUP5 MSTORE DUP4 ADD DUP5 SWAP1 MSTORE SWAP1 SWAP2 SWAP1 DUP1 JUMPDEST PUSH2 0x2E5 DUP4 PUSH2 0x3D8 JUMP JUMPDEST ISZERO PUSH2 0x2A9 JUMPI PUSH2 0x2F3 DUP4 PUSH2 0x3E7 JUMP JUMPDEST SWAP1 SWAP3 POP SWAP1 POP DUP2 PUSH1 0x1 EQ ISZERO PUSH2 0x31B JUMPI PUSH2 0x30A DUP4 PUSH2 0x4FA JUMP JUMPDEST PUSH8 0xFFFFFFFFFFFFFFFF AND DUP5 MSTORE PUSH2 0x34B JUMP JUMPDEST DUP2 PUSH1 0x2 EQ ISZERO PUSH2 0x341 JUMPI PUSH2 0x32D DUP4 PUSH2 0x4FA JUMP JUMPDEST PUSH8 0xFFFFFFFFFFFFFFFF AND PUSH1 0x20 DUP6 ADD MSTORE PUSH2 0x34B JUMP JUMPDEST PUSH2 0x34B DUP4 DUP3 PUSH2 0x57A JUMP JUMPDEST PUSH2 0x2DC JUMP JUMPDEST PUSH2 0x358 PUSH2 0x738 JUMP JUMPDEST PUSH1 0x40 DUP1 MLOAD DUP1 DUP3 ADD SWAP1 SWAP2 MSTORE PUSH1 0x0 DUP1 DUP3 MSTORE PUSH1 0x20 DUP3 ADD DUP5 SWAP1 MSTORE DUP1 JUMPDEST PUSH2 0x379 DUP4 PUSH2 0x3D8 JUMP JUMPDEST ISZERO PUSH2 0x2A9 JUMPI PUSH2 0x387 DUP4 PUSH2 0x3E7 JUMP JUMPDEST SWAP1 SWAP3 POP SWAP1 POP DUP2 PUSH1 0x1 EQ ISZERO PUSH2 0x3A5 JUMPI PUSH2 0x39E DUP4 PUSH2 0x42F JUMP JUMPDEST DUP5 MSTORE PUSH2 0x3D3 JUMP JUMPDEST DUP2 PUSH1 0x2 EQ ISZERO PUSH2 0x3C9 JUMPI PUSH2 0x3BF PUSH2 0x3BA DUP5 PUSH2 0x42F JUMP JUMPDEST PUSH2 0x612 JUMP JUMPDEST PUSH1 0x20 DUP6 ADD MSTORE PUSH2 0x3D3 JUMP JUMPDEST PUSH2 0x3D3 DUP4 DUP3 PUSH2 0x57A JUMP JUMPDEST PUSH2 0x370 JUMP JUMPDEST PUSH1 0x20 DUP2 ADD MLOAD MLOAD DUP2 MLOAD LT JUMPDEST SWAP2 SWAP1 POP JUMP JUMPDEST PUSH1 0x0 DUP1 PUSH1 0x0 PUSH2 0x3F5 DUP5 PUSH2 0x4FA JUMP JUMPDEST SWAP1 POP PUSH2 0x402 PUSH1 0x8 DUP3 PUSH2 0xAC2 JUMP JUMPDEST SWAP3 POP DUP1 PUSH1 0x7 AND PUSH1 0x5 DUP2 GT ISZERO PUSH2 0x427 JUMPI PUSH4 0x4E487B71 PUSH1 0xE0 SHL PUSH1 0x0 MSTORE PUSH1 0x21 PUSH1 0x4 MSTORE PUSH1 0x24 PUSH1 0x0 REVERT JUMPDEST SWAP2 POP POP SWAP2 POP SWAP2 JUMP JUMPDEST PUSH1 0x60 PUSH1 0x0 PUSH2 0x43C DUP4 PUSH2 0x4FA JUMP JUMPDEST SWAP1 POP PUSH1 0x0 DUP2 DUP5 PUSH1 0x0 ADD MLOAD PUSH2 0x450 SWAP2 SWAP1 PUSH2 0xAAA JUMP JUMPDEST SWAP1 POP DUP4 PUSH1 0x20 ADD MLOAD MLOAD DUP2 GT ISZERO PUSH2 0x464 JUMPI PUSH1 0x0 DUP1 REVERT JUMPDEST DUP2 PUSH8 0xFFFFFFFFFFFFFFFF DUP2 GT ISZERO PUSH2 0x48B JUMPI PUSH4 0x4E487B71 PUSH1 0xE0 SHL PUSH1 0x0 MSTORE PUSH1 0x41 PUSH1 0x4 MSTORE PUSH1 0x24 PUSH1 0x0 REVERT JUMPDEST PUSH1 0x40 MLOAD SWAP1 DUP1 DUP3 MSTORE DUP1 PUSH1 0x1F ADD PUSH1 0x1F NOT AND PUSH1 0x20 ADD DUP3 ADD PUSH1 0x40 MSTORE DUP1 ISZERO PUSH2 0x4B5 JUMPI PUSH1 0x20 DUP3 ADD DUP2 DUP1 CALLDATASIZE DUP4 CALLDATACOPY ADD SWAP1 POP JUMPDEST POP PUSH1 0x20 DUP1 DUP7 ADD MLOAD DUP7 MLOAD SWAP3 SWAP6 POP SWAP2 DUP2 DUP7 ADD SWAP2 SWAP1 DUP4 ADD ADD PUSH1 0x0 JUMPDEST DUP6 DUP2 LT ISZERO PUSH2 0x4EF JUMPI DUP2 DUP2 ADD MLOAD DUP4 DUP3 ADD MSTORE PUSH2 0x4E8 PUSH1 0x20 DUP3 PUSH2 0xAAA JUMP JUMPDEST SWAP1 POP PUSH2 0x4CD JUMP JUMPDEST POP POP POP SWAP4 MSTORE POP SWAP2 SWAP1 POP JUMP JUMPDEST PUSH1 0x20 DUP1 DUP3 ADD MLOAD DUP3 MLOAD DUP2 ADD SWAP1 SWAP2 ADD MLOAD PUSH1 0x0 SWAP2 DUP3 DUP1 JUMPDEST PUSH1 0xA DUP2 LT ISZERO PUSH2 0x574 JUMPI DUP4 DUP2 BYTE SWAP2 POP PUSH2 0x527 DUP2 PUSH1 0x7 PUSH2 0xAE2 JUMP JUMPDEST DUP3 PUSH1 0x7F AND SWAP1 SHL DUP6 OR SWAP5 POP DUP2 PUSH1 0x80 AND PUSH1 0x0 EQ ISZERO PUSH2 0x564 JUMPI PUSH2 0x548 DUP2 PUSH1 0x1 PUSH2 0xAAA JUMP JUMPDEST DUP7 MLOAD DUP8 SWAP1 PUSH2 0x557 SWAP1 DUP4 SWAP1 PUSH2 0xAAA JUMP JUMPDEST SWAP1 MSTORE POP PUSH2 0x3E2 SWAP4 POP POP POP POP JUMP JUMPDEST PUSH2 0x56D DUP2 PUSH2 0xB01 JUMP JUMPDEST SWAP1 POP PUSH2 0x50E JUMP JUMPDEST POP PUSH1 0x0 DUP1 REVERT JUMPDEST PUSH1 0x0 DUP2 PUSH1 0x5 DUP2 GT ISZERO PUSH2 0x59C JUMPI PUSH4 0x4E487B71 PUSH1 0xE0 SHL PUSH1 0x0 MSTORE PUSH1 0x21 PUSH1 0x4 MSTORE PUSH1 0x24 PUSH1 0x0 REVERT JUMPDEST EQ ISZERO PUSH2 0x5B1 JUMPI PUSH2 0x5AB DUP3 PUSH2 0x4FA JUMP JUMPDEST POP PUSH2 0x60E JUMP JUMPDEST PUSH1 0x2 DUP2 PUSH1 0x5 DUP2 GT ISZERO PUSH2 0x5D3 JUMPI PUSH4 0x4E487B71 PUSH1 0xE0 SHL PUSH1 0x0 MSTORE PUSH1 0x21 PUSH1 0x4 MSTORE PUSH1 0x24 PUSH1 0x0 REVERT JUMPDEST EQ ISZERO PUSH2 0x4B JUMPI PUSH1 0x0 PUSH2 0x5E4 DUP4 PUSH2 0x4FA JUMP JUMPDEST SWAP1 POP DUP1 DUP4 PUSH1 0x0 ADD DUP2 DUP2 MLOAD PUSH2 0x5F8 SWAP2 SWAP1 PUSH2 0xAAA JUMP JUMPDEST SWAP1 MSTORE POP PUSH1 0x20 DUP4 ADD MLOAD MLOAD DUP4 MLOAD GT ISZERO PUSH2 0x5AB JUMPI PUSH1 0x0 DUP1 REVERT JUMPDEST POP POP JUMP JUMPDEST PUSH1 0x40 DUP1 MLOAD DUP1 DUP3 ADD SWAP1 SWAP2 MSTORE PUSH1 0x0 DUP2 MSTORE PUSH1 0x60 PUSH1 0x20 DUP3 ADD MSTORE PUSH1 0x0 PUSH2 0x646 DUP4 PUSH1 0x40 DUP1 MLOAD DUP1 DUP3 ADD SWAP1 SWAP2 MSTORE PUSH1 0x0 DUP2 MSTORE PUSH1 0x20 DUP2 ADD SWAP2 SWAP1 SWAP2 MSTORE SWAP1 JUMP JUMPDEST SWAP1 POP PUSH1 0x0 DUP1 JUMPDEST PUSH2 0x655 DUP4 PUSH2 0x3D8 JUMP JUMPDEST ISZERO PUSH2 0x2A9 JUMPI PUSH2 0x663 DUP4 PUSH2 0x3E7 JUMP JUMPDEST SWAP1 SWAP3 POP SWAP1 POP DUP2 PUSH1 0x1 EQ ISZERO PUSH2 0x687 JUMPI PUSH2 0x67A DUP4 PUSH2 0x4FA JUMP JUMPDEST PUSH4 0xFFFFFFFF AND DUP5 MSTORE PUSH2 0x6AD JUMP JUMPDEST DUP2 PUSH1 0x2 EQ ISZERO PUSH2 0x6A3 JUMPI PUSH2 0x699 DUP4 PUSH2 0x42F JUMP JUMPDEST PUSH1 0x20 DUP6 ADD MSTORE PUSH2 0x6AD JUMP JUMPDEST PUSH2 0x6AD DUP4 DUP3 PUSH2 0x57A JUMP JUMPDEST PUSH2 0x64C JUMP JUMPDEST PUSH1 0x40 DUP1 MLOAD PUSH2 0x200 DUP2 ADD DUP3 MSTORE PUSH1 0x0 PUSH2 0x1C0 DUP3 ADD DUP2 DUP2 MSTORE PUSH2 0x1E0 DUP4 ADD DUP3 SWAP1 MSTORE DUP3 MSTORE PUSH1 0x60 PUSH1 0x20 DUP4 ADD DUP2 SWAP1 MSTORE SWAP3 DUP3 ADD DUP2 SWAP1 MSTORE SWAP2 DUP2 ADD SWAP2 SWAP1 SWAP2 MSTORE PUSH1 0x80 DUP2 ADD PUSH2 0x6F3 PUSH2 0x738 JUMP JUMPDEST DUP2 MSTORE PUSH1 0x20 ADD PUSH1 0x60 DUP2 MSTORE PUSH1 0x20 ADD PUSH1 0x60 DUP2 MSTORE PUSH1 0x20 ADD PUSH1 0x60 DUP2 MSTORE PUSH1 0x20 ADD PUSH1 0x60 DUP2 MSTORE PUSH1 0x20 ADD PUSH1 0x60 DUP2 MSTORE PUSH1 0x20 ADD PUSH1 0x60 DUP2 MSTORE PUSH1 0x20 ADD PUSH1 0x60 DUP2 MSTORE PUSH1 0x20 ADD PUSH1 0x60 DUP2 MSTORE PUSH1 0x20 ADD PUSH1 0x60 DUP2 MSTORE POP SWAP1 JUMP JUMPDEST PUSH1 0x40 MLOAD DUP1 PUSH1 0x40 ADD PUSH1 0x40 MSTORE DUP1 PUSH1 0x60 DUP2 MSTORE PUSH1 0x20 ADD PUSH2 0x76D PUSH1 0x40 MLOAD DUP1 PUSH1 0x40 ADD PUSH1 0x40 MSTORE DUP1 PUSH1 0x0 PUSH4 0xFFFFFFFF AND DUP2 MSTORE PUSH1 0x20 ADD PUSH1 0x60 DUP2 MSTORE POP SWAP1 JUMP JUMPDEST SWAP1 MSTORE SWAP1 JUMP JUMPDEST PUSH1 0x0 PUSH1 0x20 DUP3 DUP5 SUB SLT ISZERO PUSH2 0x783 JUMPI DUP1 DUP2 REVERT JUMPDEST DUP2 CALLDATALOAD PUSH8 0xFFFFFFFFFFFFFFFF DUP1 DUP3 GT ISZERO PUSH2 0x79A JUMPI DUP3 DUP4 REVERT JUMPDEST DUP2 DUP5 ADD SWAP2 POP DUP5 PUSH1 0x1F DUP4 ADD SLT PUSH2 0x7AD JUMPI DUP3 DUP4 REVERT JUMPDEST DUP2 CALLDATALOAD DUP2 DUP2 GT ISZERO PUSH2 0x7BF JUMPI PUSH2 0x7BF PUSH2 0xB32 JUMP JUMPDEST PUSH1 0x40 MLOAD PUSH1 0x1F DUP3 ADD PUSH1 0x1F NOT SWAP1 DUP2 AND PUSH1 0x3F ADD AND DUP2 ADD SWAP1 DUP4 DUP3 GT DUP2 DUP4 LT OR ISZERO PUSH2 0x7E7 JUMPI PUSH2 0x7E7 PUSH2 0xB32 JUMP JUMPDEST DUP2 PUSH1 0x40 MSTORE DUP3 DUP2 MSTORE DUP8 PUSH1 0x20 DUP5 DUP8 ADD ADD GT ISZERO PUSH2 0x7FF JUMPI DUP6 DUP7 REVERT JUMPDEST DUP3 PUSH1 0x20 DUP7 ADD PUSH1 0x20 DUP4 ADD CALLDATACOPY SWAP2 DUP3 ADD PUSH1 0x20 ADD SWAP5 SWAP1 SWAP5 MSTORE SWAP6 SWAP5 POP POP POP POP POP JUMP JUMPDEST PUSH1 0x0 DUP2 MLOAD DUP1 DUP5 MSTORE DUP2 JUMPDEST DUP2 DUP2 LT ISZERO PUSH2 0x841 JUMPI PUSH1 0x20 DUP2 DUP6 ADD DUP2 ADD MLOAD DUP7 DUP4 ADD DUP3 ADD MSTORE ADD PUSH2 0x825 JUMP JUMPDEST DUP2 DUP2 GT ISZERO PUSH2 0x852 JUMPI DUP3 PUSH1 0x20 DUP4 DUP8 ADD ADD MSTORE JUMPDEST POP PUSH1 0x1F ADD PUSH1 0x1F NOT AND SWAP3 SWAP1 SWAP3 ADD PUSH1 0x20 ADD SWAP3 SWAP2 POP POP JUMP JUMPDEST PUSH1 0x0 DUP2 MLOAD PUSH1 0x40 DUP5 MSTORE PUSH2 0x87C PUSH1 0x40 DUP6 ADD DUP3 PUSH2 0x81C JUMP JUMPDEST SWAP1 POP PUSH1 0x20 DUP4 ADD MLOAD DUP5 DUP3 SUB PUSH1 0x20 DUP7 ADD MSTORE PUSH4 0xFFFFFFFF DUP2 MLOAD AND DUP3 MSTORE PUSH1 0x20 DUP2 ADD MLOAD SWAP1 POP PUSH1 0x40 PUSH1 0x20 DUP4 ADD MSTORE PUSH2 0x8B0 PUSH1 0x40 DUP4 ADD DUP3 PUSH2 0x81C JUMP JUMPDEST SWAP6 SWAP5 POP POP POP POP POP JUMP JUMPDEST PUSH1 0x0 PUSH1 0x20 DUP3 MSTORE PUSH2 0x8CC PUSH1 0x20 DUP4 ADD DUP5 PUSH2 0x867 JUMP JUMPDEST SWAP4 SWAP3 POP POP POP JUMP JUMPDEST PUSH1 0x20 DUP1 DUP3 MSTORE DUP3 MLOAD DUP1 MLOAD PUSH8 0xFFFFFFFFFFFFFFFF SWAP1 DUP2 AND DUP5 DUP5 ADD MSTORE SWAP2 ADD MLOAD AND PUSH1 0x40 DUP3 ADD MSTORE PUSH1 0x0 PUSH1 0x20 DUP4 ADD MLOAD PUSH2 0x1E0 DUP1 PUSH1 0x60 DUP6 ADD MSTORE PUSH2 0x913 PUSH2 0x200 DUP6 ADD DUP4 PUSH2 0x81C JUMP JUMPDEST SWAP2 POP PUSH1 0x40 DUP6 ADD MLOAD PUSH2 0x930 PUSH1 0x80 DUP7 ADD DUP3 PUSH8 0xFFFFFFFFFFFFFFFF AND SWAP1 MSTORE JUMP JUMPDEST POP PUSH1 0x60 DUP6 ADD MLOAD PUSH8 0xFFFFFFFFFFFFFFFF AND PUSH1 0xA0 DUP6 ADD MSTORE PUSH1 0x80 DUP6 ADD MLOAD PUSH1 0x1F NOT DUP6 DUP5 SUB DUP2 ADD PUSH1 0xC0 DUP8 ADD MSTORE PUSH2 0x961 DUP5 DUP4 PUSH2 0x867 JUMP JUMPDEST SWAP4 POP PUSH1 0xA0 DUP8 ADD MLOAD SWAP2 POP DUP1 DUP7 DUP6 SUB ADD PUSH1 0xE0 DUP8 ADD MSTORE PUSH2 0x97E DUP5 DUP4 PUSH2 0x81C JUMP JUMPDEST SWAP4 POP PUSH1 0xC0 DUP8 ADD MLOAD SWAP2 POP PUSH2 0x100 DUP2 DUP8 DUP7 SUB ADD DUP2 DUP9 ADD MSTORE PUSH2 0x99D DUP6 DUP5 PUSH2 0x81C JUMP JUMPDEST SWAP5 POP PUSH1 0xE0 DUP9 ADD MLOAD SWAP3 POP PUSH2 0x120 DUP3 DUP9 DUP8 SUB ADD DUP2 DUP10 ADD MSTORE PUSH2 0x9BC DUP7 DUP6 PUSH2 0x81C JUMP JUMPDEST SWAP6 POP DUP2 DUP10 ADD MLOAD SWAP4 POP PUSH2 0x140 SWAP2 POP DUP3 DUP9 DUP8 SUB ADD DUP3 DUP10 ADD MSTORE PUSH2 0x9DC DUP7 DUP6 PUSH2 0x81C JUMP JUMPDEST SWAP6 POP DUP1 DUP10 ADD MLOAD SWAP4 POP POP PUSH2 0x160 DUP3 DUP9 DUP8 SUB ADD DUP2 DUP10 ADD MSTORE PUSH2 0x9FB DUP7 DUP6 PUSH2 0x81C JUMP JUMPDEST SWAP6 POP DUP2 DUP10 ADD MLOAD SWAP4 POP PUSH2 0x180 SWAP2 POP DUP3 DUP9 DUP8 SUB ADD DUP3 DUP10 ADD MSTORE PUSH2 0xA1B DUP7 DUP6 PUSH2 0x81C JUMP JUMPDEST SWAP6 POP DUP1 DUP10 ADD MLOAD SWAP4 POP POP PUSH2 0x1A0 DUP3 DUP9 DUP8 SUB ADD DUP2 DUP10 ADD MSTORE PUSH2 0xA3A DUP7 DUP6 PUSH2 0x81C JUMP JUMPDEST SWAP6 POP DUP2 DUP10 ADD MLOAD SWAP4 POP DUP3 DUP9 DUP8 SUB ADD PUSH2 0x1C0 DUP10 ADD MSTORE PUSH2 0xA57 DUP7 DUP6 PUSH2 0x81C JUMP JUMPDEST SWAP6 POP DUP1 DUP10 ADD MLOAD SWAP4 POP POP POP DUP1 DUP7 DUP6 SUB ADD DUP4 DUP8 ADD MSTORE POP PUSH2 0xA75 DUP4 DUP3 PUSH2 0x81C JUMP JUMPDEST SWAP7 SWAP6 POP POP POP POP POP POP JUMP JUMPDEST PUSH1 0x40 DUP2 ADD PUSH2 0xAA4 DUP3 DUP5 DUP1 MLOAD PUSH8 0xFFFFFFFFFFFFFFFF SWAP1 DUP2 AND DUP4 MSTORE PUSH1 0x20 SWAP2 DUP3 ADD MLOAD AND SWAP2 ADD MSTORE JUMP JUMPDEST SWAP3 SWAP2 POP POP JUMP JUMPDEST PUSH1 0x0 DUP3 NOT DUP3 GT ISZERO PUSH2 0xABD JUMPI PUSH2 0xABD PUSH2 0xB1C JUMP JUMPDEST POP ADD SWAP1 JUMP JUMPDEST PUSH1 0x0 DUP3 PUSH2 0xADD JUMPI PUSH4 0x4E487B71 PUSH1 0xE0 SHL DUP2 MSTORE PUSH1 0x12 PUSH1 0x4 MSTORE PUSH1 0x24 DUP2 REVERT JUMPDEST POP DIV SWAP1 JUMP JUMPDEST PUSH1 0x0 DUP2 PUSH1 0x0 NOT DIV DUP4 GT DUP3 ISZERO ISZERO AND ISZERO PUSH2 0xAFC JUMPI PUSH2 0xAFC PUSH2 0xB1C JUMP JUMPDEST POP MUL SWAP1 JUMP JUMPDEST PUSH1 0x0 PUSH1 0x0 NOT DUP3 EQ ISZERO PUSH2 0xB15 JUMPI PUSH2 0xB15 PUSH2 0xB1C JUMP JUMPDEST POP PUSH1 0x1 ADD SWAP1 JUMP JUMPDEST PUSH4 0x4E487B71 PUSH1 0xE0 SHL PUSH1 0x0 MSTORE PUSH1 0x11 PUSH1 0x4 MSTORE PUSH1 0x24 PUSH1 0x0 REVERT JUMPDEST PUSH4 0x4E487B71 PUSH1 0xE0 SHL PUSH1 0x0 MSTORE PUSH1 0x41 PUSH1 0x4 MSTORE PUSH1 0x24 PUSH1 0x0 REVERT INVALID LOG2 PUSH5 0x6970667358 0x22 SLT KECCAK256 JUMP SHR SWAP10 STATICCALL SWAP4 SDIV 0xF9 0xDB SELFDESTRUCT 0xD1 CALLDATALOAD 0xF 0xE8 DUP3 0x2A CREATE2 0xC1 PUSH26 0xB4CE5451D5DF6188BC74CD9BC7864736F6C6343000802003300 "
				},
				"gasEstimates": {
					"creation": {
						"codeDepositCost": "588400",
						"executionCost": "653",
						"totalCost": "589053"
					},
					"external": {
						"decBlockID(bytes)": "infinite",
						"decHeader(bytes)": "infinite",
						"decVersion(bytes)": "infinite"
					},
					"internal": {
						"decPartSetHeader(bytes memory)": "infinite"
					}
				},
				"methodIdentifiers": {
					"decBlockID(bytes)": "f9de4e57",
					"decHeader(bytes)": "8e86ed99",
					"decVersion(bytes)": "bc1c6bd6"
				}
			},
			"storageLayout": {
				"storage": [],
				"types": null
			},
			"userdoc": {
				"kind": "user",
				"methods": {},
				"version": 1
			}
		}
	}
}