{
	"contracts/libraries/PbHeader.sol": {
		"PbHeader": {
			"abi": [
				{
					"inputs": [
						{
							"internalType": "bytes",
							"name": "raw",
							"type": "bytes"
						}
					],
					"name": "decHeader",
					"outputs": [
						{
							"components": [
								{
									"components": [
										{
											"internalType": "uint64",
											"name": "block",
											"type": "uint64"
										},
										{
											"internalType": "uint64",
											"name": "app",
											"type": "uint64"
										}
									],
									"internalType": "struct PbHeader.Version",
									"name": "version",
									"type": "tuple"
								},
								{
									"internalType": "string",
									"name": "chainId",
									"type": "string"
								},
								{
									"internalType": "uint64",
									"name": "height",
									"type": "uint64"
								},
								{
									"internalType": "uint64",
									"name": "time",
									"type": "uint64"
								},
								{
									"components": [
										{
											"internalType": "bytes",
											"name": "hash",
											"type": "bytes"
										},
										{
											"components": [
												{
													"internalType": "uint32",
													"name": "total",
													"type": "uint32"
												},
												{
													"internalType": "bytes",
													"name": "hash",
													"type": "bytes"
												}
											],
											"internalType": "struct PbHeader.PartSetHeader",
											"name": "partSetHeader",
											"type": "tuple"
										}
									],
									"internalType": "struct PbHeader.BlockID",
									"name": "lastBlockId",
									"type": "tuple"
								},
								{
									"internalType": "bytes",
									"name": "lastCommitHash",
									"type": "bytes"
								},
								{
									"internalType": "bytes",
									"name": "dataHash",
									"type": "bytes"
								},
								{
									"internalType": "bytes",
									"name": "validatorsHash",
									"type": "bytes"
								},
								{
									"internalType": "bytes",
									"name": "nextValidatorsHash",
									"type": "bytes"
								},
								{
									"internalType": "bytes",
									"name": "consensusHash",
									"type": "bytes"
								},
								{
									"internalType": "bytes",
									"name": "appHash",
									"type": "bytes"
								},
								{
									"internalType": "bytes",
									"name": "lastResultsHash",
									"type": "bytes"
								},
								{
									"internalType": "bytes",
									"name": "evidenceHash",
									"type": "bytes"
								},
								{
									"internalType": "bytes",
									"name": "proposerAddress",
									"type": "bytes"
								}
							],
							"internalType": "struct PbHeader.Header",
							"name": "m",
							"type": "tuple"
						}
					],
					"stateMutability": "pure",
					"type": "function"
				},
				{
					"inputs": [
						{
							"internalType": "bytes",
							"name": "raw",
							"type": "bytes"
						}
					],
					"name": "decVersion",
					"outputs": [
						{
							"components": [
								{
									"internalType": "uint64",
									"name": "block",
									"type": "uint64"
								},
								{
									"internalType": "uint64",
									"name": "app",
									"type": "uint64"
								}
							],
							"internalType": "struct PbHeader.Version",
							"name": "m",
							"type": "tuple"
						}
					],
					"stateMutability": "pure",
					"type": "function"
				}
			],
			"devdoc": {
				"kind": "dev",
				"methods": {},
				"version": 1
			},
			"evm": {
				"assembly": "    /* \"contracts/libraries/PbHeader.sol\":145:4947  library PbHeader {... */\n  dataSize(sub_0)\n  dataOffset(sub_0)\n  0x0b\n  dup3\n  dup3\n  dup3\n  codecopy\n  dup1\n  mload\n  0x00\n  byte\n  0x73\n  eq\n  tag_1\n  jumpi\n  mstore(0x00, shl(0xe0, 0x4e487b71))\n  mstore(0x04, 0x00)\n  revert(0x00, 0x24)\ntag_1:\n  mstore(0x00, address)\n  0x73\n  dup2\n  mstore8\n  dup3\n  dup2\n  return\nstop\n\nsub_0: assembly {\n        /* \"contracts/libraries/PbHeader.sol\":145:4947  library PbHeader {... */\n      eq(address, deployTimeAddress())\n      mstore(0x40, 0x80)\n      jumpi(tag_1, lt(calldatasize, 0x04))\n      shr(0xe0, calldataload(0x00))\n      dup1\n      0x8e86ed99\n      eq\n      tag_2\n      jumpi\n      dup1\n      0xbc1c6bd6\n      eq\n      tag_3\n      jumpi\n    tag_1:\n      0x00\n      dup1\n      revert\n        /* \"contracts/libraries/PbHeader.sol\":842:2674  function decHeader(bytes memory raw) public pure returns (Header memory m) {... */\n    tag_2:\n      tag_4\n      tag_5\n      calldatasize\n      0x04\n      tag_6\n      jump\t// in\n    tag_5:\n      tag_7\n      jump\t// in\n    tag_4:\n      mload(0x40)\n      tag_8\n      swap2\n      swap1\n      tag_9\n      jump\t// in\n    tag_8:\n      mload(0x40)\n      dup1\n      swap2\n      sub\n      swap1\n      return\n        /* \"contracts/libraries/PbHeader.sol\":2818:3401  function decVersion(bytes memory raw) public pure returns (Version memory m) {... */\n    tag_3:\n      tag_10\n      tag_11\n      calldatasize\n      0x04\n      tag_6\n      jump\t// in\n    tag_11:\n      tag_12\n      jump\t// in\n    tag_10:\n      mload(0x40)\n      tag_8\n      swap2\n      swap1\n      tag_14\n      jump\t// in\n        /* \"contracts/libraries/PbHeader.sol\":842:2674  function decHeader(bytes memory raw) public pure returns (Header memory m) {... */\n    tag_7:\n        /* \"contracts/libraries/PbHeader.sol\":900:915  Header memory m */\n      tag_15\n      tag_16\n      jump\t// in\n    tag_15:\n      0x40\n      dup1\n      mload\n      dup1\n      dup3\n      add\n      swap1\n      swap2\n      mstore\n      0x00\n      dup1\n      dup3\n      mstore\n      0x20\n      dup3\n      add\n        /* \"contracts/libraries/Pb.sol\":474:485  buf.b = raw */\n      dup5\n      swap1\n      mstore\n      dup1\n        /* \"contracts/libraries/PbHeader.sol\":1022:2668  while (buf.hasMore()) {... */\n    tag_20:\n        /* \"contracts/libraries/PbHeader.sol\":1029:1042  buf.hasMore() */\n      tag_22\n        /* \"contracts/libraries/PbHeader.sol\":1029:1032  buf */\n      dup4\n        /* \"contracts/libraries/PbHeader.sol\":1029:1040  buf.hasMore */\n      tag_23\n        /* \"contracts/libraries/PbHeader.sol\":1029:1042  buf.hasMore() */\n      jump\t// in\n    tag_22:\n        /* \"contracts/libraries/PbHeader.sol\":1022:2668  while (buf.hasMore()) {... */\n      iszero\n      tag_21\n      jumpi\n        /* \"contracts/libraries/PbHeader.sol\":1072:1084  buf.decKey() */\n      tag_24\n        /* \"contracts/libraries/PbHeader.sol\":1072:1075  buf */\n      dup4\n        /* \"contracts/libraries/PbHeader.sol\":1072:1082  buf.decKey */\n      tag_25\n        /* \"contracts/libraries/PbHeader.sol\":1072:1084  buf.decKey() */\n      jump\t// in\n    tag_24:\n        /* \"contracts/libraries/PbHeader.sol\":1058:1084  (tag, wire) = buf.decKey() */\n      swap1\n      swap3\n      pop\n      swap1\n      pop\n        /* \"contracts/libraries/PbHeader.sol\":1164:1167  tag */\n      dup2\n        /* \"contracts/libraries/PbHeader.sol\":1171:1172  1 */\n      0x01\n        /* \"contracts/libraries/PbHeader.sol\":1164:1172  tag == 1 */\n      eq\n        /* \"contracts/libraries/PbHeader.sol\":1160:2629  if (tag == 1) {... */\n      iszero\n      tag_28\n      jumpi\n        /* \"contracts/libraries/PbHeader.sol\":1204:1230  decVersion(buf.decBytes()) */\n      tag_29\n        /* \"contracts/libraries/PbHeader.sol\":1215:1229  buf.decBytes() */\n      tag_11\n        /* \"contracts/libraries/PbHeader.sol\":1215:1218  buf */\n      dup5\n        /* \"contracts/libraries/PbHeader.sol\":1215:1227  buf.decBytes */\n      tag_31\n        /* \"contracts/libraries/PbHeader.sol\":1215:1229  buf.decBytes() */\n      jump\t// in\n        /* \"contracts/libraries/PbHeader.sol\":1204:1230  decVersion(buf.decBytes()) */\n    tag_29:\n        /* \"contracts/libraries/PbHeader.sol\":1192:1230  m.version = decVersion(buf.decBytes()) */\n      dup5\n      mstore\n        /* \"contracts/libraries/PbHeader.sol\":1160:2629  if (tag == 1) {... */\n      jump(tag_75)\n    tag_28:\n        /* \"contracts/libraries/PbHeader.sol\":1267:1270  tag */\n      dup2\n        /* \"contracts/libraries/PbHeader.sol\":1274:1275  2 */\n      0x02\n        /* \"contracts/libraries/PbHeader.sol\":1267:1275  tag == 2 */\n      eq\n        /* \"contracts/libraries/PbHeader.sol\":1263:2629  if (tag == 2) {... */\n      iszero\n      tag_33\n      jumpi\n        /* \"contracts/libraries/PbHeader.sol\":1314:1328  buf.decBytes() */\n      tag_34\n        /* \"contracts/libraries/PbHeader.sol\":1314:1317  buf */\n      dup4\n        /* \"contracts/libraries/PbHeader.sol\":1314:1326  buf.decBytes */\n      tag_31\n        /* \"contracts/libraries/PbHeader.sol\":1314:1328  buf.decBytes() */\n      jump\t// in\n    tag_34:\n        /* \"contracts/libraries/PbHeader.sol\":1295:1304  m.chainId */\n      0x20\n      dup6\n      add\n        /* \"contracts/libraries/PbHeader.sol\":1295:1329  m.chainId = string(buf.decBytes()) */\n      mstore\n        /* \"contracts/libraries/PbHeader.sol\":1263:2629  if (tag == 2) {... */\n      jump(tag_75)\n    tag_33:\n        /* \"contracts/libraries/PbHeader.sol\":1366:1369  tag */\n      dup2\n        /* \"contracts/libraries/PbHeader.sol\":1373:1374  3 */\n      0x03\n        /* \"contracts/libraries/PbHeader.sol\":1366:1374  tag == 3 */\n      eq\n        /* \"contracts/libraries/PbHeader.sol\":1362:2629  if (tag == 3) {... */\n      iszero\n      tag_36\n      jumpi\n        /* \"contracts/libraries/PbHeader.sol\":1412:1427  buf.decVarint() */\n      tag_37\n        /* \"contracts/libraries/PbHeader.sol\":1412:1415  buf */\n      dup4\n        /* \"contracts/libraries/PbHeader.sol\":1412:1425  buf.decVarint */\n      tag_38\n        /* \"contracts/libraries/PbHeader.sol\":1412:1427  buf.decVarint() */\n      jump\t// in\n    tag_37:\n        /* \"contracts/libraries/PbHeader.sol\":1394:1428  m.height = uint64(buf.decVarint()) */\n      0xffffffffffffffff\n      and\n        /* \"contracts/libraries/PbHeader.sol\":1394:1402  m.height */\n      0x40\n      dup6\n      add\n        /* \"contracts/libraries/PbHeader.sol\":1394:1428  m.height = uint64(buf.decVarint()) */\n      mstore\n        /* \"contracts/libraries/PbHeader.sol\":1362:2629  if (tag == 3) {... */\n      jump(tag_75)\n    tag_36:\n        /* \"contracts/libraries/PbHeader.sol\":1465:1468  tag */\n      dup2\n        /* \"contracts/libraries/PbHeader.sol\":1472:1473  4 */\n      0x04\n        /* \"contracts/libraries/PbHeader.sol\":1465:1473  tag == 4 */\n      eq\n        /* \"contracts/libraries/PbHeader.sol\":1461:2629  if (tag == 4) {... */\n      iszero\n      tag_40\n      jumpi\n        /* \"contracts/libraries/PbHeader.sol\":1509:1524  buf.decVarint() */\n      tag_41\n        /* \"contracts/libraries/PbHeader.sol\":1509:1512  buf */\n      dup4\n        /* \"contracts/libraries/PbHeader.sol\":1509:1522  buf.decVarint */\n      tag_38\n        /* \"contracts/libraries/PbHeader.sol\":1509:1524  buf.decVarint() */\n      jump\t// in\n    tag_41:\n        /* \"contracts/libraries/PbHeader.sol\":1493:1525  m.time = uint64(buf.decVarint()) */\n      0xffffffffffffffff\n      and\n        /* \"contracts/libraries/PbHeader.sol\":1493:1499  m.time */\n      0x60\n      dup6\n      add\n        /* \"contracts/libraries/PbHeader.sol\":1493:1525  m.time = uint64(buf.decVarint()) */\n      mstore\n        /* \"contracts/libraries/PbHeader.sol\":1461:2629  if (tag == 4) {... */\n      jump(tag_75)\n    tag_40:\n        /* \"contracts/libraries/PbHeader.sol\":1562:1565  tag */\n      dup2\n        /* \"contracts/libraries/PbHeader.sol\":1569:1570  5 */\n      0x05\n        /* \"contracts/libraries/PbHeader.sol\":1562:1570  tag == 5 */\n      eq\n        /* \"contracts/libraries/PbHeader.sol\":1558:2629  if (tag == 5) {... */\n      iszero\n      tag_43\n      jumpi\n        /* \"contracts/libraries/PbHeader.sol\":1606:1632  decBlockID(buf.decBytes()) */\n      tag_44\n        /* \"contracts/libraries/PbHeader.sol\":1617:1631  buf.decBytes() */\n      tag_45\n        /* \"contracts/libraries/PbHeader.sol\":1617:1620  buf */\n      dup5\n        /* \"contracts/libraries/PbHeader.sol\":1617:1629  buf.decBytes */\n      tag_31\n        /* \"contracts/libraries/PbHeader.sol\":1617:1631  buf.decBytes() */\n      jump\t// in\n    tag_45:\n        /* \"contracts/libraries/PbHeader.sol\":1606:1616  decBlockID */\n      tag_46\n        /* \"contracts/libraries/PbHeader.sol\":1606:1632  decBlockID(buf.decBytes()) */\n      jump\t// in\n    tag_44:\n        /* \"contracts/libraries/PbHeader.sol\":1590:1603  m.lastBlockId */\n      0x80\n      dup6\n      add\n        /* \"contracts/libraries/PbHeader.sol\":1590:1632  m.lastBlockId = decBlockID(buf.decBytes()) */\n      mstore\n        /* \"contracts/libraries/PbHeader.sol\":1558:2629  if (tag == 5) {... */\n      jump(tag_75)\n    tag_43:\n        /* \"contracts/libraries/PbHeader.sol\":1669:1672  tag */\n      dup2\n        /* \"contracts/libraries/PbHeader.sol\":1676:1677  6 */\n      0x06\n        /* \"contracts/libraries/PbHeader.sol\":1669:1677  tag == 6 */\n      eq\n        /* \"contracts/libraries/PbHeader.sol\":1665:2629  if (tag == 6) {... */\n      iszero\n      tag_48\n      jumpi\n        /* \"contracts/libraries/PbHeader.sol\":1722:1736  buf.decBytes() */\n      tag_49\n        /* \"contracts/libraries/PbHeader.sol\":1722:1725  buf */\n      dup4\n        /* \"contracts/libraries/PbHeader.sol\":1722:1734  buf.decBytes */\n      tag_31\n        /* \"contracts/libraries/PbHeader.sol\":1722:1736  buf.decBytes() */\n      jump\t// in\n    tag_49:\n        /* \"contracts/libraries/PbHeader.sol\":1697:1713  m.lastCommitHash */\n      0xa0\n      dup6\n      add\n        /* \"contracts/libraries/PbHeader.sol\":1697:1737  m.lastCommitHash = bytes(buf.decBytes()) */\n      mstore\n        /* \"contracts/libraries/PbHeader.sol\":1665:2629  if (tag == 6) {... */\n      jump(tag_75)\n    tag_48:\n        /* \"contracts/libraries/PbHeader.sol\":1774:1777  tag */\n      dup2\n        /* \"contracts/libraries/PbHeader.sol\":1781:1782  7 */\n      0x07\n        /* \"contracts/libraries/PbHeader.sol\":1774:1782  tag == 7 */\n      eq\n        /* \"contracts/libraries/PbHeader.sol\":1770:2629  if (tag == 7) {... */\n      iszero\n      tag_51\n      jumpi\n        /* \"contracts/libraries/PbHeader.sol\":1821:1835  buf.decBytes() */\n      tag_52\n        /* \"contracts/libraries/PbHeader.sol\":1821:1824  buf */\n      dup4\n        /* \"contracts/libraries/PbHeader.sol\":1821:1833  buf.decBytes */\n      tag_31\n        /* \"contracts/libraries/PbHeader.sol\":1821:1835  buf.decBytes() */\n      jump\t// in\n    tag_52:\n        /* \"contracts/libraries/PbHeader.sol\":1802:1812  m.dataHash */\n      0xc0\n      dup6\n      add\n        /* \"contracts/libraries/PbHeader.sol\":1802:1836  m.dataHash = bytes(buf.decBytes()) */\n      mstore\n        /* \"contracts/libraries/PbHeader.sol\":1770:2629  if (tag == 7) {... */\n      jump(tag_75)\n    tag_51:\n        /* \"contracts/libraries/PbHeader.sol\":1873:1876  tag */\n      dup2\n        /* \"contracts/libraries/PbHeader.sol\":1880:1881  8 */\n      0x08\n        /* \"contracts/libraries/PbHeader.sol\":1873:1881  tag == 8 */\n      eq\n        /* \"contracts/libraries/PbHeader.sol\":1869:2629  if (tag == 8) {... */\n      iszero\n      tag_54\n      jumpi\n        /* \"contracts/libraries/PbHeader.sol\":1926:1940  buf.decBytes() */\n      tag_55\n        /* \"contracts/libraries/PbHeader.sol\":1926:1929  buf */\n      dup4\n        /* \"contracts/libraries/PbHeader.sol\":1926:1938  buf.decBytes */\n      tag_31\n        /* \"contracts/libraries/PbHeader.sol\":1926:1940  buf.decBytes() */\n      jump\t// in\n    tag_55:\n        /* \"contracts/libraries/PbHeader.sol\":1901:1917  m.validatorsHash */\n      0xe0\n      dup6\n      add\n        /* \"contracts/libraries/PbHeader.sol\":1901:1941  m.validatorsHash = bytes(buf.decBytes()) */\n      mstore\n        /* \"contracts/libraries/PbHeader.sol\":1869:2629  if (tag == 8) {... */\n      jump(tag_75)\n    tag_54:\n        /* \"contracts/libraries/PbHeader.sol\":1978:1981  tag */\n      dup2\n        /* \"contracts/libraries/PbHeader.sol\":1985:1986  9 */\n      0x09\n        /* \"contracts/libraries/PbHeader.sol\":1978:1986  tag == 9 */\n      eq\n        /* \"contracts/libraries/PbHeader.sol\":1974:2629  if (tag == 9) {... */\n      iszero\n      tag_57\n      jumpi\n        /* \"contracts/libraries/PbHeader.sol\":2035:2049  buf.decBytes() */\n      tag_58\n        /* \"contracts/libraries/PbHeader.sol\":2035:2038  buf */\n      dup4\n        /* \"contracts/libraries/PbHeader.sol\":2035:2047  buf.decBytes */\n      tag_31\n        /* \"contracts/libraries/PbHeader.sol\":2035:2049  buf.decBytes() */\n      jump\t// in\n    tag_58:\n        /* \"contracts/libraries/PbHeader.sol\":2006:2026  m.nextValidatorsHash */\n      0x0100\n      dup6\n      add\n        /* \"contracts/libraries/PbHeader.sol\":2006:2050  m.nextValidatorsHash = bytes(buf.decBytes()) */\n      mstore\n        /* \"contracts/libraries/PbHeader.sol\":1974:2629  if (tag == 9) {... */\n      jump(tag_75)\n    tag_57:\n        /* \"contracts/libraries/PbHeader.sol\":2087:2090  tag */\n      dup2\n        /* \"contracts/libraries/PbHeader.sol\":2094:2096  10 */\n      0x0a\n        /* \"contracts/libraries/PbHeader.sol\":2087:2096  tag == 10 */\n      eq\n        /* \"contracts/libraries/PbHeader.sol\":2083:2629  if (tag == 10) {... */\n      iszero\n      tag_60\n      jumpi\n        /* \"contracts/libraries/PbHeader.sol\":2140:2154  buf.decBytes() */\n      tag_61\n        /* \"contracts/libraries/PbHeader.sol\":2140:2143  buf */\n      dup4\n        /* \"contracts/libraries/PbHeader.sol\":2140:2152  buf.decBytes */\n      tag_31\n        /* \"contracts/libraries/PbHeader.sol\":2140:2154  buf.decBytes() */\n      jump\t// in\n    tag_61:\n        /* \"contracts/libraries/PbHeader.sol\":2116:2131  m.consensusHash */\n      0x0120\n      dup6\n      add\n        /* \"contracts/libraries/PbHeader.sol\":2116:2155  m.consensusHash = bytes(buf.decBytes()) */\n      mstore\n        /* \"contracts/libraries/PbHeader.sol\":2083:2629  if (tag == 10) {... */\n      jump(tag_75)\n    tag_60:\n        /* \"contracts/libraries/PbHeader.sol\":2192:2195  tag */\n      dup2\n        /* \"contracts/libraries/PbHeader.sol\":2199:2201  11 */\n      0x0b\n        /* \"contracts/libraries/PbHeader.sol\":2192:2201  tag == 11 */\n      eq\n        /* \"contracts/libraries/PbHeader.sol\":2188:2629  if (tag == 11) {... */\n      iszero\n      tag_63\n      jumpi\n        /* \"contracts/libraries/PbHeader.sol\":2239:2253  buf.decBytes() */\n      tag_64\n        /* \"contracts/libraries/PbHeader.sol\":2239:2242  buf */\n      dup4\n        /* \"contracts/libraries/PbHeader.sol\":2239:2251  buf.decBytes */\n      tag_31\n        /* \"contracts/libraries/PbHeader.sol\":2239:2253  buf.decBytes() */\n      jump\t// in\n    tag_64:\n        /* \"contracts/libraries/PbHeader.sol\":2221:2230  m.appHash */\n      0x0140\n      dup6\n      add\n        /* \"contracts/libraries/PbHeader.sol\":2221:2254  m.appHash = bytes(buf.decBytes()) */\n      mstore\n        /* \"contracts/libraries/PbHeader.sol\":2188:2629  if (tag == 11) {... */\n      jump(tag_75)\n    tag_63:\n        /* \"contracts/libraries/PbHeader.sol\":2291:2294  tag */\n      dup2\n        /* \"contracts/libraries/PbHeader.sol\":2298:2300  12 */\n      0x0c\n        /* \"contracts/libraries/PbHeader.sol\":2291:2300  tag == 12 */\n      eq\n        /* \"contracts/libraries/PbHeader.sol\":2287:2629  if (tag == 12) {... */\n      iszero\n      tag_66\n      jumpi\n        /* \"contracts/libraries/PbHeader.sol\":2346:2360  buf.decBytes() */\n      tag_67\n        /* \"contracts/libraries/PbHeader.sol\":2346:2349  buf */\n      dup4\n        /* \"contracts/libraries/PbHeader.sol\":2346:2358  buf.decBytes */\n      tag_31\n        /* \"contracts/libraries/PbHeader.sol\":2346:2360  buf.decBytes() */\n      jump\t// in\n    tag_67:\n        /* \"contracts/libraries/PbHeader.sol\":2320:2337  m.lastResultsHash */\n      0x0160\n      dup6\n      add\n        /* \"contracts/libraries/PbHeader.sol\":2320:2361  m.lastResultsHash = bytes(buf.decBytes()) */\n      mstore\n        /* \"contracts/libraries/PbHeader.sol\":2287:2629  if (tag == 12) {... */\n      jump(tag_75)\n    tag_66:\n        /* \"contracts/libraries/PbHeader.sol\":2398:2401  tag */\n      dup2\n        /* \"contracts/libraries/PbHeader.sol\":2405:2407  13 */\n      0x0d\n        /* \"contracts/libraries/PbHeader.sol\":2398:2407  tag == 13 */\n      eq\n        /* \"contracts/libraries/PbHeader.sol\":2394:2629  if (tag == 13) {... */\n      iszero\n      tag_69\n      jumpi\n        /* \"contracts/libraries/PbHeader.sol\":2450:2464  buf.decBytes() */\n      tag_70\n        /* \"contracts/libraries/PbHeader.sol\":2450:2453  buf */\n      dup4\n        /* \"contracts/libraries/PbHeader.sol\":2450:2462  buf.decBytes */\n      tag_31\n        /* \"contracts/libraries/PbHeader.sol\":2450:2464  buf.decBytes() */\n      jump\t// in\n    tag_70:\n        /* \"contracts/libraries/PbHeader.sol\":2427:2441  m.evidenceHash */\n      0x0180\n      dup6\n      add\n        /* \"contracts/libraries/PbHeader.sol\":2427:2465  m.evidenceHash = bytes(buf.decBytes()) */\n      mstore\n        /* \"contracts/libraries/PbHeader.sol\":2394:2629  if (tag == 13) {... */\n      jump(tag_75)\n    tag_69:\n        /* \"contracts/libraries/PbHeader.sol\":2502:2505  tag */\n      dup2\n        /* \"contracts/libraries/PbHeader.sol\":2509:2511  14 */\n      0x0e\n        /* \"contracts/libraries/PbHeader.sol\":2502:2511  tag == 14 */\n      eq\n        /* \"contracts/libraries/PbHeader.sol\":2498:2629  if (tag == 14) {... */\n      iszero\n      tag_72\n      jumpi\n        /* \"contracts/libraries/PbHeader.sol\":2557:2571  buf.decBytes() */\n      tag_73\n        /* \"contracts/libraries/PbHeader.sol\":2557:2560  buf */\n      dup4\n        /* \"contracts/libraries/PbHeader.sol\":2557:2569  buf.decBytes */\n      tag_31\n        /* \"contracts/libraries/PbHeader.sol\":2557:2571  buf.decBytes() */\n      jump\t// in\n    tag_73:\n        /* \"contracts/libraries/PbHeader.sol\":2531:2548  m.proposerAddress */\n      0x01a0\n      dup6\n      add\n        /* \"contracts/libraries/PbHeader.sol\":2531:2572  m.proposerAddress = bytes(buf.decBytes()) */\n      mstore\n        /* \"contracts/libraries/PbHeader.sol\":2498:2629  if (tag == 14) {... */\n      jump(tag_75)\n    tag_72:\n        /* \"contracts/libraries/PbHeader.sol\":2607:2626  buf.skipValue(wire) */\n      tag_75\n        /* \"contracts/libraries/PbHeader.sol\":2607:2610  buf */\n      dup4\n        /* \"contracts/libraries/PbHeader.sol\":2621:2625  wire */\n      dup3\n        /* \"contracts/libraries/PbHeader.sol\":2607:2620  buf.skipValue */\n      tag_76\n        /* \"contracts/libraries/PbHeader.sol\":2607:2626  buf.skipValue(wire) */\n      jump\t// in\n    tag_75:\n        /* \"contracts/libraries/PbHeader.sol\":1022:2668  while (buf.hasMore()) {... */\n      jump(tag_20)\n    tag_21:\n        /* \"contracts/libraries/PbHeader.sol\":842:2674  function decHeader(bytes memory raw) public pure returns (Header memory m) {... */\n      pop\n      pop\n      pop\n      swap2\n      swap1\n      pop\n      jump\t// out\n        /* \"contracts/libraries/PbHeader.sol\":2818:3401  function decVersion(bytes memory raw) public pure returns (Version memory m) {... */\n    tag_12:\n      0x40\n      dup1\n      mload\n      dup1\n      dup3\n      add\n      dup3\n      mstore\n      0x00\n      dup1\n      dup3\n      mstore\n      0x20\n      dup1\n      dup4\n      add\n      dup3\n      swap1\n      mstore\n      dup4\n      mload\n      dup1\n      dup6\n      add\n      swap1\n      swap5\n      mstore\n      dup2\n      dup5\n      mstore\n      dup4\n      add\n        /* \"contracts/libraries/Pb.sol\":474:485  buf.b = raw */\n      dup5\n      swap1\n      mstore\n      swap1\n      swap2\n      swap1\n      dup1\n        /* \"contracts/libraries/PbHeader.sol\":3000:3395  while (buf.hasMore()) {... */\n    tag_81:\n        /* \"contracts/libraries/PbHeader.sol\":3007:3020  buf.hasMore() */\n      tag_83\n        /* \"contracts/libraries/PbHeader.sol\":3007:3010  buf */\n      dup4\n        /* \"contracts/libraries/PbHeader.sol\":3007:3018  buf.hasMore */\n      tag_23\n        /* \"contracts/libraries/PbHeader.sol\":3007:3020  buf.hasMore() */\n      jump\t// in\n    tag_83:\n        /* \"contracts/libraries/PbHeader.sol\":3000:3395  while (buf.hasMore()) {... */\n      iszero\n      tag_21\n      jumpi\n        /* \"contracts/libraries/PbHeader.sol\":3050:3062  buf.decKey() */\n      tag_84\n        /* \"contracts/libraries/PbHeader.sol\":3050:3053  buf */\n      dup4\n        /* \"contracts/libraries/PbHeader.sol\":3050:3060  buf.decKey */\n      tag_25\n        /* \"contracts/libraries/PbHeader.sol\":3050:3062  buf.decKey() */\n      jump\t// in\n    tag_84:\n        /* \"contracts/libraries/PbHeader.sol\":3036:3062  (tag, wire) = buf.decKey() */\n      swap1\n      swap3\n      pop\n      swap1\n      pop\n        /* \"contracts/libraries/PbHeader.sol\":3142:3145  tag */\n      dup2\n        /* \"contracts/libraries/PbHeader.sol\":3149:3150  1 */\n      0x01\n        /* \"contracts/libraries/PbHeader.sol\":3142:3150  tag == 1 */\n      eq\n        /* \"contracts/libraries/PbHeader.sol\":3138:3356  if (tag == 1) {... */\n      iszero\n      tag_87\n      jumpi\n        /* \"contracts/libraries/PbHeader.sol\":3187:3202  buf.decVarint() */\n      tag_88\n        /* \"contracts/libraries/PbHeader.sol\":3187:3190  buf */\n      dup4\n        /* \"contracts/libraries/PbHeader.sol\":3187:3200  buf.decVarint */\n      tag_38\n        /* \"contracts/libraries/PbHeader.sol\":3187:3202  buf.decVarint() */\n      jump\t// in\n    tag_88:\n        /* \"contracts/libraries/PbHeader.sol\":3170:3203  m.block = uint64(buf.decVarint()) */\n      0xffffffffffffffff\n      and\n      dup5\n      mstore\n        /* \"contracts/libraries/PbHeader.sol\":3138:3356  if (tag == 1) {... */\n      jump(tag_93)\n    tag_87:\n        /* \"contracts/libraries/PbHeader.sol\":3240:3243  tag */\n      dup2\n        /* \"contracts/libraries/PbHeader.sol\":3247:3248  2 */\n      0x02\n        /* \"contracts/libraries/PbHeader.sol\":3240:3248  tag == 2 */\n      eq\n        /* \"contracts/libraries/PbHeader.sol\":3236:3356  if (tag == 2) {... */\n      iszero\n      tag_90\n      jumpi\n        /* \"contracts/libraries/PbHeader.sol\":3283:3298  buf.decVarint() */\n      tag_91\n        /* \"contracts/libraries/PbHeader.sol\":3283:3286  buf */\n      dup4\n        /* \"contracts/libraries/PbHeader.sol\":3283:3296  buf.decVarint */\n      tag_38\n        /* \"contracts/libraries/PbHeader.sol\":3283:3298  buf.decVarint() */\n      jump\t// in\n    tag_91:\n        /* \"contracts/libraries/PbHeader.sol\":3268:3299  m.app = uint64(buf.decVarint()) */\n      0xffffffffffffffff\n      and\n        /* \"contracts/libraries/PbHeader.sol\":3268:3273  m.app */\n      0x20\n      dup6\n      add\n        /* \"contracts/libraries/PbHeader.sol\":3268:3299  m.app = uint64(buf.decVarint()) */\n      mstore\n        /* \"contracts/libraries/PbHeader.sol\":3236:3356  if (tag == 2) {... */\n      jump(tag_93)\n    tag_90:\n        /* \"contracts/libraries/PbHeader.sol\":3334:3353  buf.skipValue(wire) */\n      tag_93\n        /* \"contracts/libraries/PbHeader.sol\":3334:3337  buf */\n      dup4\n        /* \"contracts/libraries/PbHeader.sol\":3348:3352  wire */\n      dup3\n        /* \"contracts/libraries/PbHeader.sol\":3334:3347  buf.skipValue */\n      tag_76\n        /* \"contracts/libraries/PbHeader.sol\":3334:3353  buf.skipValue(wire) */\n      jump\t// in\n    tag_93:\n        /* \"contracts/libraries/PbHeader.sol\":3000:3395  while (buf.hasMore()) {... */\n      jump(tag_81)\n        /* \"contracts/libraries/Pb.sol\":557:668  function hasMore(Buffer memory buf) internal pure returns (bool) {... */\n    tag_23:\n        /* \"contracts/libraries/Pb.sol\":649:654  buf.b */\n      0x20\n      dup2\n      add\n      mload\n        /* \"contracts/libraries/Pb.sol\":649:661  buf.b.length */\n      mload\n        /* \"contracts/libraries/Pb.sol\":639:646  buf.idx */\n      dup2\n      mload\n        /* \"contracts/libraries/Pb.sol\":639:661  buf.idx < buf.b.length */\n      lt\n        /* \"contracts/libraries/Pb.sol\":557:668  function hasMore(Buffer memory buf) internal pure returns (bool) {... */\n    tag_97:\n      swap2\n      swap1\n      pop\n      jump\t// out\n        /* \"contracts/libraries/Pb.sol\":722:906  function decKey(Buffer memory buf) internal pure returns (uint tag, WireType wiretype) {... */\n    tag_25:\n        /* \"contracts/libraries/Pb.sol\":780:788  uint tag */\n      0x00\n        /* \"contracts/libraries/Pb.sol\":790:807  WireType wiretype */\n      dup1\n        /* \"contracts/libraries/Pb.sol\":819:825  uint v */\n      0x00\n        /* \"contracts/libraries/Pb.sol\":828:842  decVarint(buf) */\n      tag_99\n        /* \"contracts/libraries/Pb.sol\":838:841  buf */\n      dup5\n        /* \"contracts/libraries/Pb.sol\":828:837  decVarint */\n      tag_38\n        /* \"contracts/libraries/Pb.sol\":828:842  decVarint(buf) */\n      jump\t// in\n    tag_99:\n        /* \"contracts/libraries/Pb.sol\":819:842  uint v = decVarint(buf) */\n      swap1\n      pop\n        /* \"contracts/libraries/Pb.sol\":858:863  v / 8 */\n      tag_100\n        /* \"contracts/libraries/Pb.sol\":862:863  8 */\n      0x08\n        /* \"contracts/libraries/Pb.sol\":819:842  uint v = decVarint(buf) */\n      dup3\n        /* \"contracts/libraries/Pb.sol\":858:863  v / 8 */\n      tag_101\n      jump\t// in\n    tag_100:\n        /* \"contracts/libraries/Pb.sol\":852:863  tag = v / 8 */\n      swap3\n      pop\n        /* \"contracts/libraries/Pb.sol\":893:894  v */\n      dup1\n        /* \"contracts/libraries/Pb.sol\":897:898  7 */\n      0x07\n        /* \"contracts/libraries/Pb.sol\":893:898  v & 7 */\n      and\n        /* \"contracts/libraries/Pb.sol\":884:899  WireType(v & 7) */\n      0x05\n      dup2\n      gt\n      iszero\n      tag_102\n      jumpi\n      mstore(0x00, shl(0xe0, 0x4e487b71))\n      mstore(0x04, 0x21)\n      revert(0x00, 0x24)\n    tag_102:\n        /* \"contracts/libraries/Pb.sol\":873:899  wiretype = WireType(v & 7) */\n      swap2\n      pop\n        /* \"contracts/libraries/Pb.sol\":722:906  function decKey(Buffer memory buf) internal pure returns (uint tag, WireType wiretype) {... */\n      pop\n      swap2\n      pop\n      swap2\n      jump\t// out\n        /* \"contracts/libraries/Pb.sol\":2606:3265  function decBytes(Buffer memory buf) internal pure returns (bytes memory b) {... */\n    tag_31:\n        /* \"contracts/libraries/Pb.sol\":2666:2680  bytes memory b */\n      0x60\n        /* \"contracts/libraries/Pb.sol\":2692:2700  uint len */\n      0x00\n        /* \"contracts/libraries/Pb.sol\":2703:2717  decVarint(buf) */\n      tag_104\n        /* \"contracts/libraries/Pb.sol\":2713:2716  buf */\n      dup4\n        /* \"contracts/libraries/Pb.sol\":2703:2712  decVarint */\n      tag_38\n        /* \"contracts/libraries/Pb.sol\":2703:2717  decVarint(buf) */\n      jump\t// in\n    tag_104:\n        /* \"contracts/libraries/Pb.sol\":2692:2717  uint len = decVarint(buf) */\n      swap1\n      pop\n        /* \"contracts/libraries/Pb.sol\":2727:2735  uint end */\n      0x00\n        /* \"contracts/libraries/Pb.sol\":2748:2751  len */\n      dup2\n        /* \"contracts/libraries/Pb.sol\":2738:2741  buf */\n      dup5\n        /* \"contracts/libraries/Pb.sol\":2738:2745  buf.idx */\n      0x00\n      add\n      mload\n        /* \"contracts/libraries/Pb.sol\":2738:2751  buf.idx + len */\n      tag_105\n      swap2\n      swap1\n      tag_106\n      jump\t// in\n    tag_105:\n        /* \"contracts/libraries/Pb.sol\":2727:2751  uint end = buf.idx + len */\n      swap1\n      pop\n        /* \"contracts/libraries/Pb.sol\":2776:2779  buf */\n      dup4\n        /* \"contracts/libraries/Pb.sol\":2776:2781  buf.b */\n      0x20\n      add\n      mload\n        /* \"contracts/libraries/Pb.sol\":2776:2788  buf.b.length */\n      mload\n        /* \"contracts/libraries/Pb.sol\":2769:2772  end */\n      dup2\n        /* \"contracts/libraries/Pb.sol\":2769:2788  end <= buf.b.length */\n      gt\n      iszero\n        /* \"contracts/libraries/Pb.sol\":2761:2789  require(end <= buf.b.length) */\n      tag_107\n      jumpi\n      0x00\n      dup1\n      revert\n    tag_107:\n        /* \"contracts/libraries/Pb.sol\":2832:2835  len */\n      dup2\n        /* \"contracts/libraries/Pb.sol\":2822:2836  new bytes(len) */\n      0xffffffffffffffff\n      dup2\n      gt\n      iszero\n      tag_108\n      jumpi\n      mstore(0x00, shl(0xe0, 0x4e487b71))\n      mstore(0x04, 0x41)\n      revert(0x00, 0x24)\n    tag_108:\n      mload(0x40)\n      swap1\n      dup1\n      dup3\n      mstore\n      dup1\n      0x1f\n      add\n      not(0x1f)\n      and\n      0x20\n      add\n      dup3\n      add\n      0x40\n      mstore\n      dup1\n      iszero\n      tag_109\n      jumpi\n      0x20\n      dup3\n      add\n      dup2\n      dup1\n      calldatasize\n      dup4\n      calldatacopy\n      add\n      swap1\n      pop\n    tag_109:\n      pop\n        /* \"contracts/libraries/Pb.sol\":2866:2871  buf.b */\n      0x20\n      dup1\n      dup7\n      add\n      mload\n        /* \"contracts/libraries/Pb.sol\":2961:2968  buf.idx */\n      dup7\n      mload\n        /* \"contracts/libraries/Pb.sol\":2818:2836  b = new bytes(len) */\n      swap3\n      swap6\n      pop\n        /* \"contracts/libraries/Pb.sol\":2866:2871  buf.b */\n      swap2\n        /* \"contracts/libraries/Pb.sol\":3011:3021  add(b, 32) */\n      dup2\n      dup7\n      add\n      swap2\n        /* \"contracts/libraries/Pb.sol\":3047:3076  add(add(bufB, 32), bufBStart) */\n      swap1\n      dup4\n      add\n      add\n        /* \"contracts/libraries/Pb.sol\":2846:2863  bytes memory bufB */\n      0x00\n        /* \"contracts/libraries/Pb.sol\":3095:3236  for (uint i=0; i<len; i+=32) {... */\n    tag_110:\n        /* \"contracts/libraries/Pb.sol\":3112:3115  len */\n      dup6\n        /* \"contracts/libraries/Pb.sol\":3110:3111  i */\n      dup2\n        /* \"contracts/libraries/Pb.sol\":3110:3115  i<len */\n      lt\n        /* \"contracts/libraries/Pb.sol\":3095:3236  for (uint i=0; i<len; i+=32) {... */\n      iszero\n      tag_111\n      jumpi\n        /* \"contracts/libraries/Pb.sol\":3193:3210  add(bufBStart, i) */\n      dup2\n      dup2\n      add\n        /* \"contracts/libraries/Pb.sol\":3187:3211  mload(add(bufBStart, i)) */\n      mload\n        /* \"contracts/libraries/Pb.sol\":3171:3185  add(bStart, i) */\n      dup4\n      dup3\n      add\n        /* \"contracts/libraries/Pb.sol\":3164:3212  mstore(add(bStart, i), mload(add(bufBStart, i))) */\n      mstore\n        /* \"contracts/libraries/Pb.sol\":3117:3122  i+=32 */\n      tag_113\n        /* \"contracts/libraries/Pb.sol\":3120:3122  32 */\n      0x20\n        /* \"contracts/libraries/Pb.sol\":3208:3209  i */\n      dup3\n        /* \"contracts/libraries/Pb.sol\":3117:3122  i+=32 */\n      tag_106\n      jump\t// in\n    tag_113:\n      swap1\n      pop\n        /* \"contracts/libraries/Pb.sol\":3095:3236  for (uint i=0; i<len; i+=32) {... */\n      jump(tag_110)\n    tag_111:\n      pop\n      pop\n      pop\n        /* \"contracts/libraries/Pb.sol\":3245:3258  buf.idx = end */\n      swap4\n      mstore\n      pop\n        /* \"contracts/libraries/Pb.sol\":2606:3265  function decBytes(Buffer memory buf) internal pure returns (bytes memory b) {... */\n      swap2\n      swap1\n      pop\n      jump\t// out\n        /* \"contracts/libraries/Pb.sol\":1655:2548  function decVarint(Buffer memory buf) internal pure returns (uint v) {... */\n    tag_38:\n        /* \"contracts/libraries/Pb.sol\":1837:1842  buf.b */\n      0x20\n      dup1\n      dup3\n      add\n      mload\n        /* \"contracts/libraries/Pb.sol\":1898:1905  buf.idx */\n      dup3\n      mload\n        /* \"contracts/libraries/Pb.sol\":1998:2017  add(add(bb, 32), v) */\n      dup2\n      add\n      swap1\n      swap2\n      add\n        /* \"contracts/libraries/Pb.sol\":1992:2018  mload(add(add(bb, 32), v)) */\n      mload\n        /* \"contracts/libraries/Pb.sol\":1716:1722  uint v */\n      0x00\n      swap2\n      dup3\n      dup1\n        /* \"contracts/libraries/Pb.sol\":2173:2493  for (uint i=0; i<10; ++i) {... */\n    tag_115:\n        /* \"contracts/libraries/Pb.sol\":2190:2192  10 */\n      0x0a\n        /* \"contracts/libraries/Pb.sol\":2188:2189  i */\n      dup2\n        /* \"contracts/libraries/Pb.sol\":2188:2192  i<10 */\n      lt\n        /* \"contracts/libraries/Pb.sol\":2173:2493  for (uint i=0; i<10; ++i) {... */\n      iszero\n      tag_116\n      jumpi\n        /* \"contracts/libraries/Pb.sol\":2245:2257  byte(i, tmp) */\n      dup4\n      dup2\n      byte\n      swap2\n      pop\n        /* \"contracts/libraries/Pb.sol\":2369:2374  i * 7 */\n      tag_118\n        /* \"contracts/libraries/Pb.sol\":2250:2251  i */\n      dup2\n        /* \"contracts/libraries/Pb.sol\":2373:2374  7 */\n      0x07\n        /* \"contracts/libraries/Pb.sol\":2369:2374  i * 7 */\n      tag_119\n      jump\t// in\n    tag_118:\n        /* \"contracts/libraries/Pb.sol\":2355:2356  b */\n      dup3\n        /* \"contracts/libraries/Pb.sol\":2359:2363  0x7F */\n      0x7f\n        /* \"contracts/libraries/Pb.sol\":2355:2363  b & 0x7F */\n      and\n        /* \"contracts/libraries/Pb.sol\":2354:2375  (b & 0x7F) << (i * 7) */\n      swap1\n      shl\n        /* \"contracts/libraries/Pb.sol\":2349:2375  v |= (b & 0x7F) << (i * 7) */\n      dup6\n      or\n      swap5\n      pop\n        /* \"contracts/libraries/Pb.sol\":2393:2394  b */\n      dup2\n        /* \"contracts/libraries/Pb.sol\":2397:2401  0x80 */\n      0x80\n        /* \"contracts/libraries/Pb.sol\":2393:2401  b & 0x80 */\n      and\n        /* \"contracts/libraries/Pb.sol\":2405:2406  0 */\n      0x00\n        /* \"contracts/libraries/Pb.sol\":2393:2406  b & 0x80 == 0 */\n      eq\n        /* \"contracts/libraries/Pb.sol\":2389:2483  if (b & 0x80 == 0) {... */\n      iszero\n      tag_120\n      jumpi\n        /* \"contracts/libraries/Pb.sol\":2437:2442  i + 1 */\n      tag_121\n        /* \"contracts/libraries/Pb.sol\":2437:2438  i */\n      dup2\n        /* \"contracts/libraries/Pb.sol\":2441:2442  1 */\n      0x01\n        /* \"contracts/libraries/Pb.sol\":2437:2442  i + 1 */\n      tag_106\n      jump\t// in\n    tag_121:\n        /* \"contracts/libraries/Pb.sol\":2426:2442  buf.idx += i + 1 */\n      dup7\n      mload\n        /* \"contracts/libraries/Pb.sol\":2426:2429  buf */\n      dup8\n      swap1\n        /* \"contracts/libraries/Pb.sol\":2426:2442  buf.idx += i + 1 */\n      tag_122\n      swap1\n      dup4\n      swap1\n      tag_106\n      jump\t// in\n    tag_122:\n      swap1\n      mstore\n      pop\n        /* \"contracts/libraries/Pb.sol\":2460:2468  return v */\n      tag_97\n      swap4\n      pop\n      pop\n      pop\n      pop\n      jump\n        /* \"contracts/libraries/Pb.sol\":2389:2483  if (b & 0x80 == 0) {... */\n    tag_120:\n        /* \"contracts/libraries/Pb.sol\":2194:2197  ++i */\n      tag_123\n      dup2\n      tag_124\n      jump\t// in\n    tag_123:\n      swap1\n      pop\n        /* \"contracts/libraries/Pb.sol\":2173:2493  for (uint i=0; i<10; ++i) {... */\n      jump(tag_115)\n    tag_116:\n      pop\n        /* \"contracts/libraries/Pb.sol\":2502:2510  revert() */\n      0x00\n      dup1\n      revert\n        /* \"contracts/libraries/PbHeader.sol\":3561:4162  function decBlockID(bytes memory raw) internal pure returns (BlockID memory m) {... */\n    tag_46:\n        /* \"contracts/libraries/PbHeader.sol\":3622:3638  BlockID memory m */\n      tag_125\n      tag_126\n      jump\t// in\n    tag_125:\n      0x40\n      dup1\n      mload\n      dup1\n      dup3\n      add\n      swap1\n      swap2\n      mstore\n      0x00\n      dup1\n      dup3\n      mstore\n      0x20\n      dup3\n      add\n        /* \"contracts/libraries/Pb.sol\":474:485  buf.b = raw */\n      dup5\n      swap1\n      mstore\n      dup1\n        /* \"contracts/libraries/PbHeader.sol\":3745:4156  while (buf.hasMore()) {... */\n    tag_129:\n        /* \"contracts/libraries/PbHeader.sol\":3752:3765  buf.hasMore() */\n      tag_131\n        /* \"contracts/libraries/PbHeader.sol\":3752:3755  buf */\n      dup4\n        /* \"contracts/libraries/PbHeader.sol\":3752:3763  buf.hasMore */\n      tag_23\n        /* \"contracts/libraries/PbHeader.sol\":3752:3765  buf.hasMore() */\n      jump\t// in\n    tag_131:\n        /* \"contracts/libraries/PbHeader.sol\":3745:4156  while (buf.hasMore()) {... */\n      iszero\n      tag_21\n      jumpi\n        /* \"contracts/libraries/PbHeader.sol\":3795:3807  buf.decKey() */\n      tag_132\n        /* \"contracts/libraries/PbHeader.sol\":3795:3798  buf */\n      dup4\n        /* \"contracts/libraries/PbHeader.sol\":3795:3805  buf.decKey */\n      tag_25\n        /* \"contracts/libraries/PbHeader.sol\":3795:3807  buf.decKey() */\n      jump\t// in\n    tag_132:\n        /* \"contracts/libraries/PbHeader.sol\":3781:3807  (tag, wire) = buf.decKey() */\n      swap1\n      swap3\n      pop\n      swap1\n      pop\n        /* \"contracts/libraries/PbHeader.sol\":3887:3890  tag */\n      dup2\n        /* \"contracts/libraries/PbHeader.sol\":3894:3895  1 */\n      0x01\n        /* \"contracts/libraries/PbHeader.sol\":3887:3895  tag == 1 */\n      eq\n        /* \"contracts/libraries/PbHeader.sol\":3883:4117  if (tag == 1) {... */\n      iszero\n      tag_135\n      jumpi\n        /* \"contracts/libraries/PbHeader.sol\":3930:3944  buf.decBytes() */\n      tag_136\n        /* \"contracts/libraries/PbHeader.sol\":3930:3933  buf */\n      dup4\n        /* \"contracts/libraries/PbHeader.sol\":3930:3942  buf.decBytes */\n      tag_31\n        /* \"contracts/libraries/PbHeader.sol\":3930:3944  buf.decBytes() */\n      jump\t// in\n    tag_136:\n        /* \"contracts/libraries/PbHeader.sol\":3915:3945  m.hash = bytes(buf.decBytes()) */\n      dup5\n      mstore\n        /* \"contracts/libraries/PbHeader.sol\":3883:4117  if (tag == 1) {... */\n      jump(tag_143)\n    tag_135:\n        /* \"contracts/libraries/PbHeader.sol\":3982:3985  tag */\n      dup2\n        /* \"contracts/libraries/PbHeader.sol\":3989:3990  2 */\n      0x02\n        /* \"contracts/libraries/PbHeader.sol\":3982:3990  tag == 2 */\n      eq\n        /* \"contracts/libraries/PbHeader.sol\":3978:4117  if (tag == 2) {... */\n      iszero\n      tag_138\n      jumpi\n        /* \"contracts/libraries/PbHeader.sol\":4028:4060  decPartSetHeader(buf.decBytes()) */\n      tag_139\n        /* \"contracts/libraries/PbHeader.sol\":4045:4059  buf.decBytes() */\n      tag_140\n        /* \"contracts/libraries/PbHeader.sol\":4045:4048  buf */\n      dup5\n        /* \"contracts/libraries/PbHeader.sol\":4045:4057  buf.decBytes */\n      tag_31\n        /* \"contracts/libraries/PbHeader.sol\":4045:4059  buf.decBytes() */\n      jump\t// in\n    tag_140:\n        /* \"contracts/libraries/PbHeader.sol\":4028:4044  decPartSetHeader */\n      tag_141\n        /* \"contracts/libraries/PbHeader.sol\":4028:4060  decPartSetHeader(buf.decBytes()) */\n      jump\t// in\n    tag_139:\n        /* \"contracts/libraries/PbHeader.sol\":4010:4025  m.partSetHeader */\n      0x20\n      dup6\n      add\n        /* \"contracts/libraries/PbHeader.sol\":4010:4060  m.partSetHeader = decPartSetHeader(buf.decBytes()) */\n      mstore\n        /* \"contracts/libraries/PbHeader.sol\":3978:4117  if (tag == 2) {... */\n      jump(tag_143)\n    tag_138:\n        /* \"contracts/libraries/PbHeader.sol\":4095:4114  buf.skipValue(wire) */\n      tag_143\n        /* \"contracts/libraries/PbHeader.sol\":4095:4098  buf */\n      dup4\n        /* \"contracts/libraries/PbHeader.sol\":4109:4113  wire */\n      dup3\n        /* \"contracts/libraries/PbHeader.sol\":4095:4108  buf.skipValue */\n      tag_76\n        /* \"contracts/libraries/PbHeader.sol\":4095:4114  buf.skipValue(wire) */\n      jump\t// in\n    tag_143:\n        /* \"contracts/libraries/PbHeader.sol\":3745:4156  while (buf.hasMore()) {... */\n      jump(tag_129)\n        /* \"contracts/libraries/Pb.sol\":4059:4454  function skipValue(Buffer memory buf, WireType wire) internal pure {... */\n    tag_76:\n        /* \"contracts/libraries/Pb.sol\":4148:4163  WireType.Varint */\n      0x00\n        /* \"contracts/libraries/Pb.sol\":4140:4144  wire */\n      dup2\n        /* \"contracts/libraries/Pb.sol\":4140:4163  wire == WireType.Varint */\n      0x05\n      dup2\n      gt\n      iszero\n      tag_146\n      jumpi\n      mstore(0x00, shl(0xe0, 0x4e487b71))\n      mstore(0x04, 0x21)\n      revert(0x00, 0x24)\n    tag_146:\n      eq\n        /* \"contracts/libraries/Pb.sol\":4136:4423  if (wire == WireType.Varint) { decVarint(buf); }... */\n      iszero\n      tag_147\n      jumpi\n        /* \"contracts/libraries/Pb.sol\":4167:4181  decVarint(buf) */\n      tag_148\n        /* \"contracts/libraries/Pb.sol\":4177:4180  buf */\n      dup3\n        /* \"contracts/libraries/Pb.sol\":4167:4176  decVarint */\n      tag_38\n        /* \"contracts/libraries/Pb.sol\":4167:4181  decVarint(buf) */\n      jump\t// in\n    tag_148:\n      pop\n        /* \"contracts/libraries/Pb.sol\":4136:4423  if (wire == WireType.Varint) { decVarint(buf); }... */\n      jump(tag_156)\n    tag_147:\n        /* \"contracts/libraries/Pb.sol\":4210:4230  WireType.LengthDelim */\n      0x02\n        /* \"contracts/libraries/Pb.sol\":4202:4206  wire */\n      dup2\n        /* \"contracts/libraries/Pb.sol\":4202:4230  wire == WireType.LengthDelim */\n      0x05\n      dup2\n      gt\n      iszero\n      tag_151\n      jumpi\n      mstore(0x00, shl(0xe0, 0x4e487b71))\n      mstore(0x04, 0x21)\n      revert(0x00, 0x24)\n    tag_151:\n      eq\n        /* \"contracts/libraries/Pb.sol\":4198:4423  if (wire == WireType.LengthDelim) {... */\n      iszero\n      tag_1\n      jumpi\n        /* \"contracts/libraries/Pb.sol\":4246:4254  uint len */\n      0x00\n        /* \"contracts/libraries/Pb.sol\":4257:4271  decVarint(buf) */\n      tag_153\n        /* \"contracts/libraries/Pb.sol\":4267:4270  buf */\n      dup4\n        /* \"contracts/libraries/Pb.sol\":4257:4266  decVarint */\n      tag_38\n        /* \"contracts/libraries/Pb.sol\":4257:4271  decVarint(buf) */\n      jump\t// in\n    tag_153:\n        /* \"contracts/libraries/Pb.sol\":4246:4271  uint len = decVarint(buf) */\n      swap1\n      pop\n        /* \"contracts/libraries/Pb.sol\":4296:4299  len */\n      dup1\n        /* \"contracts/libraries/Pb.sol\":4285:4288  buf */\n      dup4\n        /* \"contracts/libraries/Pb.sol\":4285:4292  buf.idx */\n      0x00\n      add\n        /* \"contracts/libraries/Pb.sol\":4285:4299  buf.idx += len */\n      dup2\n      dup2\n      mload\n      tag_154\n      swap2\n      swap1\n      tag_106\n      jump\t// in\n    tag_154:\n      swap1\n      mstore\n      pop\n        /* \"contracts/libraries/Pb.sol\":4361:4366  buf.b */\n      0x20\n      dup4\n      add\n      mload\n        /* \"contracts/libraries/Pb.sol\":4361:4373  buf.b.length */\n      mload\n        /* \"contracts/libraries/Pb.sol\":4350:4357  buf.idx */\n      dup4\n      mload\n        /* \"contracts/libraries/Pb.sol\":4350:4373  buf.idx <= buf.b.length */\n      gt\n      iszero\n        /* \"contracts/libraries/Pb.sol\":4342:4374  require(buf.idx <= buf.b.length) */\n      tag_148\n      jumpi\n      0x00\n      dup1\n      revert\n        /* \"contracts/libraries/Pb.sol\":4198:4423  if (wire == WireType.LengthDelim) {... */\n    tag_156:\n        /* \"contracts/libraries/Pb.sol\":4059:4454  function skipValue(Buffer memory buf, WireType wire) internal pure {... */\n      pop\n      pop\n      jump\t// out\n        /* \"contracts/libraries/PbHeader.sol\":4319:4915  function decPartSetHeader(bytes memory raw) internal pure returns (PartSetHeader memory m) {... */\n    tag_141:\n      0x40\n      dup1\n      mload\n      dup1\n      dup3\n      add\n      swap1\n      swap2\n      mstore\n      0x00\n      dup2\n      mstore\n      0x60\n      0x20\n      dup3\n      add\n      mstore\n        /* \"contracts/libraries/PbHeader.sol\":4420:4440  Pb.Buffer memory buf */\n      0x00\n        /* \"contracts/libraries/PbHeader.sol\":4443:4460  Pb.fromBytes(raw) */\n      tag_160\n        /* \"contracts/libraries/PbHeader.sol\":4456:4459  raw */\n      dup4\n      0x40\n      dup1\n      mload\n      dup1\n      dup3\n      add\n      swap1\n      swap2\n      mstore\n      0x00\n      dup2\n      mstore\n      0x20\n      dup2\n      add\n        /* \"contracts/libraries/Pb.sol\":474:485  buf.b = raw */\n      swap2\n      swap1\n      swap2\n      mstore\n      swap1\n        /* \"contracts/libraries/Pb.sol\":385:513  function fromBytes(bytes memory raw) internal pure returns (Buffer memory buf) {... */\n      jump\n        /* \"contracts/libraries/PbHeader.sol\":4443:4460  Pb.fromBytes(raw) */\n    tag_160:\n        /* \"contracts/libraries/PbHeader.sol\":4420:4460  Pb.Buffer memory buf = Pb.fromBytes(raw) */\n      swap1\n      pop\n        /* \"contracts/libraries/PbHeader.sol\":4471:4479  uint tag */\n      0x00\n        /* \"contracts/libraries/PbHeader.sol\":4489:4505  Pb.WireType wire */\n      dup1\n        /* \"contracts/libraries/PbHeader.sol\":4515:4909  while (buf.hasMore()) {... */\n    tag_161:\n        /* \"contracts/libraries/PbHeader.sol\":4522:4535  buf.hasMore() */\n      tag_163\n        /* \"contracts/libraries/PbHeader.sol\":4522:4525  buf */\n      dup4\n        /* \"contracts/libraries/PbHeader.sol\":4522:4533  buf.hasMore */\n      tag_23\n        /* \"contracts/libraries/PbHeader.sol\":4522:4535  buf.hasMore() */\n      jump\t// in\n    tag_163:\n        /* \"contracts/libraries/PbHeader.sol\":4515:4909  while (buf.hasMore()) {... */\n      iszero\n      tag_21\n      jumpi\n        /* \"contracts/libraries/PbHeader.sol\":4565:4577  buf.decKey() */\n      tag_164\n        /* \"contracts/libraries/PbHeader.sol\":4565:4568  buf */\n      dup4\n        /* \"contracts/libraries/PbHeader.sol\":4565:4575  buf.decKey */\n      tag_25\n        /* \"contracts/libraries/PbHeader.sol\":4565:4577  buf.decKey() */\n      jump\t// in\n    tag_164:\n        /* \"contracts/libraries/PbHeader.sol\":4551:4577  (tag, wire) = buf.decKey() */\n      swap1\n      swap3\n      pop\n      swap1\n      pop\n        /* \"contracts/libraries/PbHeader.sol\":4657:4660  tag */\n      dup2\n        /* \"contracts/libraries/PbHeader.sol\":4664:4665  1 */\n      0x01\n        /* \"contracts/libraries/PbHeader.sol\":4657:4665  tag == 1 */\n      eq\n        /* \"contracts/libraries/PbHeader.sol\":4653:4870  if (tag == 1) {... */\n      iszero\n      tag_167\n      jumpi\n        /* \"contracts/libraries/PbHeader.sol\":4702:4717  buf.decVarint() */\n      tag_168\n        /* \"contracts/libraries/PbHeader.sol\":4702:4705  buf */\n      dup4\n        /* \"contracts/libraries/PbHeader.sol\":4702:4715  buf.decVarint */\n      tag_38\n        /* \"contracts/libraries/PbHeader.sol\":4702:4717  buf.decVarint() */\n      jump\t// in\n    tag_168:\n        /* \"contracts/libraries/PbHeader.sol\":4685:4718  m.total = uint32(buf.decVarint()) */\n      0xffffffff\n      and\n      dup5\n      mstore\n        /* \"contracts/libraries/PbHeader.sol\":4653:4870  if (tag == 1) {... */\n      jump(tag_173)\n    tag_167:\n        /* \"contracts/libraries/PbHeader.sol\":4755:4758  tag */\n      dup2\n        /* \"contracts/libraries/PbHeader.sol\":4762:4763  2 */\n      0x02\n        /* \"contracts/libraries/PbHeader.sol\":4755:4763  tag == 2 */\n      eq\n        /* \"contracts/libraries/PbHeader.sol\":4751:4870  if (tag == 2) {... */\n      iszero\n      tag_170\n      jumpi\n        /* \"contracts/libraries/PbHeader.sol\":4798:4812  buf.decBytes() */\n      tag_171\n        /* \"contracts/libraries/PbHeader.sol\":4798:4801  buf */\n      dup4\n        /* \"contracts/libraries/PbHeader.sol\":4798:4810  buf.decBytes */\n      tag_31\n        /* \"contracts/libraries/PbHeader.sol\":4798:4812  buf.decBytes() */\n      jump\t// in\n    tag_171:\n        /* \"contracts/libraries/PbHeader.sol\":4783:4789  m.hash */\n      0x20\n      dup6\n      add\n        /* \"contracts/libraries/PbHeader.sol\":4783:4813  m.hash = bytes(buf.decBytes()) */\n      mstore\n        /* \"contracts/libraries/PbHeader.sol\":4751:4870  if (tag == 2) {... */\n      jump(tag_173)\n    tag_170:\n        /* \"contracts/libraries/PbHeader.sol\":4848:4867  buf.skipValue(wire) */\n      tag_173\n        /* \"contracts/libraries/PbHeader.sol\":4848:4851  buf */\n      dup4\n        /* \"contracts/libraries/PbHeader.sol\":4862:4866  wire */\n      dup3\n        /* \"contracts/libraries/PbHeader.sol\":4848:4861  buf.skipValue */\n      tag_76\n        /* \"contracts/libraries/PbHeader.sol\":4848:4867  buf.skipValue(wire) */\n      jump\t// in\n    tag_173:\n        /* \"contracts/libraries/PbHeader.sol\":4515:4909  while (buf.hasMore()) {... */\n      jump(tag_161)\n    tag_16:\n      0x40\n      dup1\n      mload\n      0x0200\n      dup2\n      add\n      dup3\n      mstore\n      0x00\n      0x01c0\n      dup3\n      add\n      dup2\n      dup2\n      mstore\n      0x01e0\n      dup4\n      add\n      dup3\n      swap1\n      mstore\n      dup3\n      mstore\n      0x60\n      0x20\n      dup4\n      add\n      dup2\n      swap1\n      mstore\n      swap3\n      dup3\n      add\n      dup2\n      swap1\n      mstore\n      swap2\n      dup2\n      add\n      swap2\n      swap1\n      swap2\n      mstore\n      0x80\n      dup2\n      add\n      tag_175\n      tag_126\n      jump\t// in\n    tag_175:\n      dup2\n      mstore\n      0x20\n      add\n      0x60\n      dup2\n      mstore\n      0x20\n      add\n      0x60\n      dup2\n      mstore\n      0x20\n      add\n      0x60\n      dup2\n      mstore\n      0x20\n      add\n      0x60\n      dup2\n      mstore\n      0x20\n      add\n      0x60\n      dup2\n      mstore\n      0x20\n      add\n      0x60\n      dup2\n      mstore\n      0x20\n      add\n      0x60\n      dup2\n      mstore\n      0x20\n      add\n      0x60\n      dup2\n      mstore\n      0x20\n      add\n      0x60\n      dup2\n      mstore\n      pop\n      swap1\n      jump\t// out\n    tag_126:\n      mload(0x40)\n      dup1\n      0x40\n      add\n      0x40\n      mstore\n      dup1\n      0x60\n      dup2\n      mstore\n      0x20\n      add\n      tag_176\n      mload(0x40)\n      dup1\n      0x40\n      add\n      0x40\n      mstore\n      dup1\n      and(0xffffffff, 0x00)\n      dup2\n      mstore\n      0x20\n      add\n      0x60\n      dup2\n      mstore\n      pop\n      swap1\n      jump\n    tag_176:\n      swap1\n      mstore\n      swap1\n      jump\t// out\n        /* \"#utility.yul\":14:980   */\n    tag_6:\n      0x00\n        /* \"#utility.yul\":135:137   */\n      0x20\n        /* \"#utility.yul\":123:132   */\n      dup3\n        /* \"#utility.yul\":114:121   */\n      dup5\n        /* \"#utility.yul\":110:133   */\n      sub\n        /* \"#utility.yul\":106:138   */\n      slt\n        /* \"#utility.yul\":103:105   */\n      iszero\n      tag_179\n      jumpi\n        /* \"#utility.yul\":156:162   */\n      dup1\n        /* \"#utility.yul\":148:154   */\n      dup2\n        /* \"#utility.yul\":141:163   */\n      revert\n        /* \"#utility.yul\":103:105   */\n    tag_179:\n        /* \"#utility.yul\":201:210   */\n      dup2\n        /* \"#utility.yul\":188:211   */\n      calldataload\n        /* \"#utility.yul\":230:248   */\n      0xffffffffffffffff\n        /* \"#utility.yul\":271:273   */\n      dup1\n        /* \"#utility.yul\":263:269   */\n      dup3\n        /* \"#utility.yul\":260:274   */\n      gt\n        /* \"#utility.yul\":257:259   */\n      iszero\n      tag_180\n      jumpi\n        /* \"#utility.yul\":292:298   */\n      dup3\n        /* \"#utility.yul\":284:290   */\n      dup4\n        /* \"#utility.yul\":277:299   */\n      revert\n        /* \"#utility.yul\":257:259   */\n    tag_180:\n        /* \"#utility.yul\":335:341   */\n      dup2\n        /* \"#utility.yul\":324:333   */\n      dup5\n        /* \"#utility.yul\":320:342   */\n      add\n        /* \"#utility.yul\":310:342   */\n      swap2\n      pop\n        /* \"#utility.yul\":380:387   */\n      dup5\n        /* \"#utility.yul\":373:377   */\n      0x1f\n        /* \"#utility.yul\":369:371   */\n      dup4\n        /* \"#utility.yul\":365:378   */\n      add\n        /* \"#utility.yul\":361:388   */\n      slt\n        /* \"#utility.yul\":351:353   */\n      tag_181\n      jumpi\n        /* \"#utility.yul\":407:413   */\n      dup3\n        /* \"#utility.yul\":399:405   */\n      dup4\n        /* \"#utility.yul\":392:414   */\n      revert\n        /* \"#utility.yul\":351:353   */\n    tag_181:\n        /* \"#utility.yul\":448:450   */\n      dup2\n        /* \"#utility.yul\":435:451   */\n      calldataload\n        /* \"#utility.yul\":470:472   */\n      dup2\n        /* \"#utility.yul\":466:468   */\n      dup2\n        /* \"#utility.yul\":463:473   */\n      gt\n        /* \"#utility.yul\":460:462   */\n      iszero\n      tag_183\n      jumpi\n        /* \"#utility.yul\":476:494   */\n      tag_183\n      tag_184\n      jump\t// in\n    tag_183:\n        /* \"#utility.yul\":551:553   */\n      0x40\n        /* \"#utility.yul\":545:554   */\n      mload\n        /* \"#utility.yul\":519:521   */\n      0x1f\n        /* \"#utility.yul\":605:618   */\n      dup3\n      add\n      not(0x1f)\n        /* \"#utility.yul\":601:623   */\n      swap1\n      dup2\n      and\n        /* \"#utility.yul\":625:627   */\n      0x3f\n        /* \"#utility.yul\":597:628   */\n      add\n        /* \"#utility.yul\":593:633   */\n      and\n        /* \"#utility.yul\":581:634   */\n      dup2\n      add\n      swap1\n        /* \"#utility.yul\":649:667   */\n      dup4\n      dup3\n      gt\n        /* \"#utility.yul\":669:691   */\n      dup2\n      dup4\n      lt\n        /* \"#utility.yul\":646:692   */\n      or\n        /* \"#utility.yul\":643:645   */\n      iszero\n      tag_186\n      jumpi\n        /* \"#utility.yul\":695:713   */\n      tag_186\n      tag_184\n      jump\t// in\n    tag_186:\n        /* \"#utility.yul\":735:745   */\n      dup2\n        /* \"#utility.yul\":731:733   */\n      0x40\n        /* \"#utility.yul\":724:746   */\n      mstore\n        /* \"#utility.yul\":770:772   */\n      dup3\n        /* \"#utility.yul\":762:768   */\n      dup2\n        /* \"#utility.yul\":755:773   */\n      mstore\n        /* \"#utility.yul\":810:817   */\n      dup8\n        /* \"#utility.yul\":805:807   */\n      0x20\n        /* \"#utility.yul\":800:802   */\n      dup5\n        /* \"#utility.yul\":796:798   */\n      dup8\n        /* \"#utility.yul\":792:803   */\n      add\n        /* \"#utility.yul\":788:808   */\n      add\n        /* \"#utility.yul\":785:818   */\n      gt\n        /* \"#utility.yul\":782:784   */\n      iszero\n      tag_187\n      jumpi\n        /* \"#utility.yul\":836:842   */\n      dup6\n        /* \"#utility.yul\":828:834   */\n      dup7\n        /* \"#utility.yul\":821:843   */\n      revert\n        /* \"#utility.yul\":782:784   */\n    tag_187:\n        /* \"#utility.yul\":897:899   */\n      dup3\n        /* \"#utility.yul\":892:894   */\n      0x20\n        /* \"#utility.yul\":888:890   */\n      dup7\n        /* \"#utility.yul\":884:895   */\n      add\n        /* \"#utility.yul\":879:881   */\n      0x20\n        /* \"#utility.yul\":871:877   */\n      dup4\n        /* \"#utility.yul\":867:882   */\n      add\n        /* \"#utility.yul\":854:900   */\n      calldatacopy\n        /* \"#utility.yul\":920:935   */\n      swap2\n      dup3\n      add\n        /* \"#utility.yul\":937:939   */\n      0x20\n        /* \"#utility.yul\":916:940   */\n      add\n        /* \"#utility.yul\":909:949   */\n      swap5\n      swap1\n      swap5\n      mstore\n        /* \"#utility.yul\":924:930   */\n      swap6\n        /* \"#utility.yul\":93:980   */\n      swap5\n      pop\n      pop\n      pop\n      pop\n      pop\n      jump\t// out\n        /* \"#utility.yul\":985:1460   */\n    tag_188:\n      0x00\n        /* \"#utility.yul\":1064:1069   */\n      dup2\n        /* \"#utility.yul\":1058:1070   */\n      mload\n        /* \"#utility.yul\":1091:1097   */\n      dup1\n        /* \"#utility.yul\":1086:1089   */\n      dup5\n        /* \"#utility.yul\":1079:1098   */\n      mstore\n        /* \"#utility.yul\":1116:1119   */\n      dup2\n        /* \"#utility.yul\":1128:1290   */\n    tag_190:\n        /* \"#utility.yul\":1142:1148   */\n      dup2\n        /* \"#utility.yul\":1139:1140   */\n      dup2\n        /* \"#utility.yul\":1136:1149   */\n      lt\n        /* \"#utility.yul\":1128:1290   */\n      iszero\n      tag_192\n      jumpi\n        /* \"#utility.yul\":1204:1208   */\n      0x20\n        /* \"#utility.yul\":1260:1273   */\n      dup2\n      dup6\n      add\n        /* \"#utility.yul\":1256:1278   */\n      dup2\n      add\n        /* \"#utility.yul\":1250:1279   */\n      mload\n        /* \"#utility.yul\":1232:1243   */\n      dup7\n      dup4\n      add\n        /* \"#utility.yul\":1228:1248   */\n      dup3\n      add\n        /* \"#utility.yul\":1221:1280   */\n      mstore\n        /* \"#utility.yul\":1157:1169   */\n      add\n        /* \"#utility.yul\":1128:1290   */\n      jump(tag_190)\n    tag_192:\n        /* \"#utility.yul\":1308:1314   */\n      dup2\n        /* \"#utility.yul\":1305:1306   */\n      dup2\n        /* \"#utility.yul\":1302:1315   */\n      gt\n        /* \"#utility.yul\":1299:1301   */\n      iszero\n      tag_193\n      jumpi\n        /* \"#utility.yul\":1374:1377   */\n      dup3\n        /* \"#utility.yul\":1367:1371   */\n      0x20\n        /* \"#utility.yul\":1358:1364   */\n      dup4\n        /* \"#utility.yul\":1353:1356   */\n      dup8\n        /* \"#utility.yul\":1349:1365   */\n      add\n        /* \"#utility.yul\":1345:1372   */\n      add\n        /* \"#utility.yul\":1338:1378   */\n      mstore\n        /* \"#utility.yul\":1299:1301   */\n    tag_193:\n      pop\n        /* \"#utility.yul\":1442:1444   */\n      0x1f\n        /* \"#utility.yul\":1421:1436   */\n      add\n      not(0x1f)\n        /* \"#utility.yul\":1417:1446   */\n      and\n        /* \"#utility.yul\":1408:1447   */\n      swap3\n      swap1\n      swap3\n      add\n        /* \"#utility.yul\":1449:1453   */\n      0x20\n        /* \"#utility.yul\":1404:1454   */\n      add\n      swap3\n        /* \"#utility.yul\":1034:1460   */\n      swap2\n      pop\n      pop\n      jump\t// out\n        /* \"#utility.yul\":1465:1992   */\n    tag_194:\n      0x00\n        /* \"#utility.yul\":1559:1564   */\n      dup2\n        /* \"#utility.yul\":1553:1565   */\n      mload\n        /* \"#utility.yul\":1586:1590   */\n      0x40\n        /* \"#utility.yul\":1581:1584   */\n      dup5\n        /* \"#utility.yul\":1574:1591   */\n      mstore\n        /* \"#utility.yul\":1612:1658   */\n      tag_196\n        /* \"#utility.yul\":1652:1656   */\n      0x40\n        /* \"#utility.yul\":1647:1650   */\n      dup6\n        /* \"#utility.yul\":1643:1657   */\n      add\n        /* \"#utility.yul\":1629:1641   */\n      dup3\n        /* \"#utility.yul\":1612:1658   */\n      tag_188\n      jump\t// in\n    tag_196:\n        /* \"#utility.yul\":1600:1658   */\n      swap1\n      pop\n        /* \"#utility.yul\":1706:1710   */\n      0x20\n        /* \"#utility.yul\":1699:1704   */\n      dup4\n        /* \"#utility.yul\":1695:1711   */\n      add\n        /* \"#utility.yul\":1689:1712   */\n      mload\n        /* \"#utility.yul\":1754:1757   */\n      dup5\n        /* \"#utility.yul\":1748:1752   */\n      dup3\n        /* \"#utility.yul\":1744:1758   */\n      sub\n        /* \"#utility.yul\":1737:1741   */\n      0x20\n        /* \"#utility.yul\":1732:1735   */\n      dup7\n        /* \"#utility.yul\":1728:1742   */\n      add\n        /* \"#utility.yul\":1721:1759   */\n      mstore\n        /* \"#utility.yul\":1808:1818   */\n      0xffffffff\n        /* \"#utility.yul\":1791:1805   */\n      dup2\n        /* \"#utility.yul\":1785:1806   */\n      mload\n        /* \"#utility.yul\":1781:1819   */\n      and\n        /* \"#utility.yul\":1775:1779   */\n      dup3\n        /* \"#utility.yul\":1768:1820   */\n      mstore\n        /* \"#utility.yul\":1877:1881   */\n      0x20\n        /* \"#utility.yul\":1861:1875   */\n      dup2\n        /* \"#utility.yul\":1857:1882   */\n      add\n        /* \"#utility.yul\":1851:1883   */\n      mload\n        /* \"#utility.yul\":1829:1883   */\n      swap1\n      pop\n        /* \"#utility.yul\":1916:1920   */\n      0x40\n        /* \"#utility.yul\":1909:1913   */\n      0x20\n        /* \"#utility.yul\":1903:1907   */\n      dup4\n        /* \"#utility.yul\":1899:1914   */\n      add\n        /* \"#utility.yul\":1892:1921   */\n      mstore\n        /* \"#utility.yul\":1937:1986   */\n      tag_197\n        /* \"#utility.yul\":1980:1984   */\n      0x40\n        /* \"#utility.yul\":1974:1978   */\n      dup4\n        /* \"#utility.yul\":1970:1985   */\n      add\n        /* \"#utility.yul\":1954:1968   */\n      dup3\n        /* \"#utility.yul\":1937:1986   */\n      tag_188\n      jump\t// in\n    tag_197:\n        /* \"#utility.yul\":1930:1986   */\n      swap6\n        /* \"#utility.yul\":1523:1992   */\n      swap5\n      pop\n      pop\n      pop\n      pop\n      pop\n      jump\t// out\n        /* \"#utility.yul\":2312:5013   */\n    tag_9:\n        /* \"#utility.yul\":2495:2497   */\n      0x20\n        /* \"#utility.yul\":2477:2498   */\n      dup1\n      dup3\n      mstore\n        /* \"#utility.yul\":2533:2546   */\n      dup3\n      mload\n        /* \"#utility.yul\":2111:2123   */\n      dup1\n      mload\n        /* \"#utility.yul\":2068:2086   */\n      0xffffffffffffffff\n        /* \"#utility.yul\":2107:2128   */\n      swap1\n      dup2\n      and\n        /* \"#utility.yul\":2548:2566   */\n      dup5\n      dup5\n      add\n        /* \"#utility.yul\":2095:2129   */\n      mstore\n        /* \"#utility.yul\":2171:2187   */\n      swap2\n      add\n        /* \"#utility.yul\":2165:2188   */\n      mload\n        /* \"#utility.yul\":2161:2193   */\n      and\n        /* \"#utility.yul\":2145:2159   */\n      0x40\n      dup3\n      add\n        /* \"#utility.yul\":2138:2194   */\n      mstore\n        /* \"#utility.yul\":2312:5013   */\n      0x00\n        /* \"#utility.yul\":2614:2616   */\n      0x20\n        /* \"#utility.yul\":2606:2612   */\n      dup4\n        /* \"#utility.yul\":2602:2617   */\n      add\n        /* \"#utility.yul\":2596:2618   */\n      mload\n        /* \"#utility.yul\":2637:2643   */\n      0x01e0\n        /* \"#utility.yul\":2679:2681   */\n      dup1\n        /* \"#utility.yul\":2674:2676   */\n      0x60\n        /* \"#utility.yul\":2663:2672   */\n      dup6\n        /* \"#utility.yul\":2659:2677   */\n      add\n        /* \"#utility.yul\":2652:2682   */\n      mstore\n        /* \"#utility.yul\":2705:2756   */\n      tag_204\n        /* \"#utility.yul\":2751:2754   */\n      0x0200\n        /* \"#utility.yul\":2740:2749   */\n      dup6\n        /* \"#utility.yul\":2736:2755   */\n      add\n        /* \"#utility.yul\":2722:2734   */\n      dup4\n        /* \"#utility.yul\":2705:2756   */\n      tag_188\n      jump\t// in\n    tag_204:\n        /* \"#utility.yul\":2691:2756   */\n      swap2\n      pop\n        /* \"#utility.yul\":2805:2809   */\n      0x40\n        /* \"#utility.yul\":2797:2803   */\n      dup6\n        /* \"#utility.yul\":2793:2810   */\n      add\n        /* \"#utility.yul\":2787:2811   */\n      mload\n        /* \"#utility.yul\":2820:2874   */\n      tag_205\n        /* \"#utility.yul\":2869:2872   */\n      0x80\n        /* \"#utility.yul\":2858:2867   */\n      dup7\n        /* \"#utility.yul\":2854:2873   */\n      add\n        /* \"#utility.yul\":2838:2852   */\n      dup3\n        /* \"#utility.yul\":2281:2299   */\n      0xffffffffffffffff\n        /* \"#utility.yul\":2270:2300   */\n      and\n        /* \"#utility.yul\":2258:2301   */\n      swap1\n      mstore\n        /* \"#utility.yul\":2248:2307   */\n      jump\n        /* \"#utility.yul\":2820:2874   */\n    tag_205:\n      pop\n        /* \"#utility.yul\":2923:2925   */\n      0x60\n        /* \"#utility.yul\":2911:2926   */\n      dup6\n      add\n        /* \"#utility.yul\":2905:2927   */\n      mload\n        /* \"#utility.yul\":2281:2299   */\n      0xffffffffffffffff\n        /* \"#utility.yul\":2270:2300   */\n      and\n        /* \"#utility.yul\":2985:2988   */\n      0xa0\n        /* \"#utility.yul\":2970:2989   */\n      dup6\n      add\n        /* \"#utility.yul\":2258:2301   */\n      mstore\n        /* \"#utility.yul\":3039:3042   */\n      0x80\n        /* \"#utility.yul\":3027:3043   */\n      dup6\n      add\n        /* \"#utility.yul\":3021:3044   */\n      mload\n      not(0x1f)\n        /* \"#utility.yul\":3111:3133   */\n      dup6\n      dup5\n      sub\n        /* \"#utility.yul\":3107:3138   */\n      dup2\n      add\n        /* \"#utility.yul\":3101:3104   */\n      0xc0\n        /* \"#utility.yul\":3086:3105   */\n      dup8\n      add\n        /* \"#utility.yul\":3079:3139   */\n      mstore\n        /* \"#utility.yul\":3162:3211   */\n      tag_207\n        /* \"#utility.yul\":3111:3133   */\n      dup5\n        /* \"#utility.yul\":3021:3044   */\n      dup4\n        /* \"#utility.yul\":3162:3211   */\n      tag_194\n      jump\t// in\n    tag_207:\n        /* \"#utility.yul\":3148:3211   */\n      swap4\n      pop\n        /* \"#utility.yul\":3260:3263   */\n      0xa0\n        /* \"#utility.yul\":3252:3258   */\n      dup8\n        /* \"#utility.yul\":3248:3264   */\n      add\n        /* \"#utility.yul\":3242:3265   */\n      mload\n        /* \"#utility.yul\":3220:3265   */\n      swap2\n      pop\n        /* \"#utility.yul\":3330:3332   */\n      dup1\n        /* \"#utility.yul\":3318:3327   */\n      dup7\n        /* \"#utility.yul\":3310:3316   */\n      dup6\n        /* \"#utility.yul\":3306:3328   */\n      sub\n        /* \"#utility.yul\":3302:3333   */\n      add\n        /* \"#utility.yul\":3296:3299   */\n      0xe0\n        /* \"#utility.yul\":3285:3294   */\n      dup8\n        /* \"#utility.yul\":3281:3300   */\n      add\n        /* \"#utility.yul\":3274:3334   */\n      mstore\n        /* \"#utility.yul\":3357:3397   */\n      tag_208\n        /* \"#utility.yul\":3390:3396   */\n      dup5\n        /* \"#utility.yul\":3374:3388   */\n      dup4\n        /* \"#utility.yul\":3357:3397   */\n      tag_188\n      jump\t// in\n    tag_208:\n        /* \"#utility.yul\":3343:3397   */\n      swap4\n      pop\n        /* \"#utility.yul\":3446:3449   */\n      0xc0\n        /* \"#utility.yul\":3438:3444   */\n      dup8\n        /* \"#utility.yul\":3434:3450   */\n      add\n        /* \"#utility.yul\":3428:3451   */\n      mload\n        /* \"#utility.yul\":3406:3451   */\n      swap2\n      pop\n        /* \"#utility.yul\":3470:3473   */\n      0x0100\n        /* \"#utility.yul\":3537:3539   */\n      dup2\n        /* \"#utility.yul\":3525:3534   */\n      dup8\n        /* \"#utility.yul\":3517:3523   */\n      dup7\n        /* \"#utility.yul\":3513:3535   */\n      sub\n        /* \"#utility.yul\":3509:3540   */\n      add\n        /* \"#utility.yul\":3504:3506   */\n      dup2\n        /* \"#utility.yul\":3493:3502   */\n      dup9\n        /* \"#utility.yul\":3489:3507   */\n      add\n        /* \"#utility.yul\":3482:3541   */\n      mstore\n        /* \"#utility.yul\":3564:3604   */\n      tag_209\n        /* \"#utility.yul\":3597:3603   */\n      dup6\n        /* \"#utility.yul\":3581:3595   */\n      dup5\n        /* \"#utility.yul\":3564:3604   */\n      tag_188\n      jump\t// in\n    tag_209:\n        /* \"#utility.yul\":3550:3604   */\n      swap5\n      pop\n        /* \"#utility.yul\":3653:3656   */\n      0xe0\n        /* \"#utility.yul\":3645:3651   */\n      dup9\n        /* \"#utility.yul\":3641:3657   */\n      add\n        /* \"#utility.yul\":3635:3658   */\n      mload\n        /* \"#utility.yul\":3613:3658   */\n      swap3\n      pop\n        /* \"#utility.yul\":3677:3680   */\n      0x0120\n        /* \"#utility.yul\":3744:3746   */\n      dup3\n        /* \"#utility.yul\":3732:3741   */\n      dup9\n        /* \"#utility.yul\":3724:3730   */\n      dup8\n        /* \"#utility.yul\":3720:3742   */\n      sub\n        /* \"#utility.yul\":3716:3747   */\n      add\n        /* \"#utility.yul\":3711:3713   */\n      dup2\n        /* \"#utility.yul\":3700:3709   */\n      dup10\n        /* \"#utility.yul\":3696:3714   */\n      add\n        /* \"#utility.yul\":3689:3748   */\n      mstore\n        /* \"#utility.yul\":3771:3811   */\n      tag_210\n        /* \"#utility.yul\":3804:3810   */\n      dup7\n        /* \"#utility.yul\":3788:3802   */\n      dup6\n        /* \"#utility.yul\":3771:3811   */\n      tag_188\n      jump\t// in\n    tag_210:\n        /* \"#utility.yul\":3757:3811   */\n      swap6\n      pop\n        /* \"#utility.yul\":3860:3862   */\n      dup2\n        /* \"#utility.yul\":3852:3858   */\n      dup10\n        /* \"#utility.yul\":3848:3863   */\n      add\n        /* \"#utility.yul\":3842:3864   */\n      mload\n        /* \"#utility.yul\":3820:3864   */\n      swap4\n      pop\n        /* \"#utility.yul\":3883:3886   */\n      0x0140\n        /* \"#utility.yul\":3873:3886   */\n      swap2\n      pop\n        /* \"#utility.yul\":3950:3952   */\n      dup3\n        /* \"#utility.yul\":3938:3947   */\n      dup9\n        /* \"#utility.yul\":3930:3936   */\n      dup8\n        /* \"#utility.yul\":3926:3948   */\n      sub\n        /* \"#utility.yul\":3922:3953   */\n      add\n        /* \"#utility.yul\":3917:3919   */\n      dup3\n        /* \"#utility.yul\":3906:3915   */\n      dup10\n        /* \"#utility.yul\":3902:3920   */\n      add\n        /* \"#utility.yul\":3895:3954   */\n      mstore\n        /* \"#utility.yul\":3977:4017   */\n      tag_211\n        /* \"#utility.yul\":4010:4016   */\n      dup7\n        /* \"#utility.yul\":3994:4008   */\n      dup6\n        /* \"#utility.yul\":3977:4017   */\n      tag_188\n      jump\t// in\n    tag_211:\n        /* \"#utility.yul\":3963:4017   */\n      swap6\n      pop\n        /* \"#utility.yul\":4066:4068   */\n      dup1\n        /* \"#utility.yul\":4058:4064   */\n      dup10\n        /* \"#utility.yul\":4054:4069   */\n      add\n        /* \"#utility.yul\":4048:4070   */\n      mload\n        /* \"#utility.yul\":4026:4070   */\n      swap4\n      pop\n      pop\n        /* \"#utility.yul\":4089:4092   */\n      0x0160\n        /* \"#utility.yul\":4156:4158   */\n      dup3\n        /* \"#utility.yul\":4144:4153   */\n      dup9\n        /* \"#utility.yul\":4136:4142   */\n      dup8\n        /* \"#utility.yul\":4132:4154   */\n      sub\n        /* \"#utility.yul\":4128:4159   */\n      add\n        /* \"#utility.yul\":4123:4125   */\n      dup2\n        /* \"#utility.yul\":4112:4121   */\n      dup10\n        /* \"#utility.yul\":4108:4126   */\n      add\n        /* \"#utility.yul\":4101:4160   */\n      mstore\n        /* \"#utility.yul\":4183:4223   */\n      tag_212\n        /* \"#utility.yul\":4216:4222   */\n      dup7\n        /* \"#utility.yul\":4200:4214   */\n      dup6\n        /* \"#utility.yul\":4183:4223   */\n      tag_188\n      jump\t// in\n    tag_212:\n        /* \"#utility.yul\":4169:4223   */\n      swap6\n      pop\n        /* \"#utility.yul\":4272:4274   */\n      dup2\n        /* \"#utility.yul\":4264:4270   */\n      dup10\n        /* \"#utility.yul\":4260:4275   */\n      add\n        /* \"#utility.yul\":4254:4276   */\n      mload\n        /* \"#utility.yul\":4232:4276   */\n      swap4\n      pop\n        /* \"#utility.yul\":4295:4298   */\n      0x0180\n        /* \"#utility.yul\":4285:4298   */\n      swap2\n      pop\n        /* \"#utility.yul\":4362:4364   */\n      dup3\n        /* \"#utility.yul\":4350:4359   */\n      dup9\n        /* \"#utility.yul\":4342:4348   */\n      dup8\n        /* \"#utility.yul\":4338:4360   */\n      sub\n        /* \"#utility.yul\":4334:4365   */\n      add\n        /* \"#utility.yul\":4329:4331   */\n      dup3\n        /* \"#utility.yul\":4318:4327   */\n      dup10\n        /* \"#utility.yul\":4314:4332   */\n      add\n        /* \"#utility.yul\":4307:4366   */\n      mstore\n        /* \"#utility.yul\":4389:4429   */\n      tag_213\n        /* \"#utility.yul\":4422:4428   */\n      dup7\n        /* \"#utility.yul\":4406:4420   */\n      dup6\n        /* \"#utility.yul\":4389:4429   */\n      tag_188\n      jump\t// in\n    tag_213:\n        /* \"#utility.yul\":4375:4429   */\n      swap6\n      pop\n        /* \"#utility.yul\":4479:4481   */\n      dup1\n        /* \"#utility.yul\":4471:4477   */\n      dup10\n        /* \"#utility.yul\":4467:4482   */\n      add\n        /* \"#utility.yul\":4461:4483   */\n      mload\n        /* \"#utility.yul\":4438:4483   */\n      swap4\n      pop\n      pop\n        /* \"#utility.yul\":4502:4505   */\n      0x01a0\n        /* \"#utility.yul\":4569:4571   */\n      dup3\n        /* \"#utility.yul\":4557:4566   */\n      dup9\n        /* \"#utility.yul\":4549:4555   */\n      dup8\n        /* \"#utility.yul\":4545:4567   */\n      sub\n        /* \"#utility.yul\":4541:4572   */\n      add\n        /* \"#utility.yul\":4536:4538   */\n      dup2\n        /* \"#utility.yul\":4525:4534   */\n      dup10\n        /* \"#utility.yul\":4521:4539   */\n      add\n        /* \"#utility.yul\":4514:4573   */\n      mstore\n        /* \"#utility.yul\":4596:4637   */\n      tag_214\n        /* \"#utility.yul\":4630:4636   */\n      dup7\n        /* \"#utility.yul\":4613:4628   */\n      dup6\n        /* \"#utility.yul\":4596:4637   */\n      tag_188\n      jump\t// in\n    tag_214:\n        /* \"#utility.yul\":4582:4637   */\n      swap6\n      pop\n        /* \"#utility.yul\":4687:4689   */\n      dup2\n        /* \"#utility.yul\":4679:4685   */\n      dup10\n        /* \"#utility.yul\":4675:4690   */\n      add\n        /* \"#utility.yul\":4669:4691   */\n      mload\n        /* \"#utility.yul\":4646:4691   */\n      swap4\n      pop\n        /* \"#utility.yul\":4756:4758   */\n      dup3\n        /* \"#utility.yul\":4744:4753   */\n      dup9\n        /* \"#utility.yul\":4736:4742   */\n      dup8\n        /* \"#utility.yul\":4732:4754   */\n      sub\n        /* \"#utility.yul\":4728:4759   */\n      add\n        /* \"#utility.yul\":4722:4725   */\n      0x01c0\n        /* \"#utility.yul\":4711:4720   */\n      dup10\n        /* \"#utility.yul\":4707:4726   */\n      add\n        /* \"#utility.yul\":4700:4760   */\n      mstore\n        /* \"#utility.yul\":4784:4825   */\n      tag_215\n        /* \"#utility.yul\":4818:4824   */\n      dup7\n        /* \"#utility.yul\":4801:4816   */\n      dup6\n        /* \"#utility.yul\":4784:4825   */\n      tag_188\n      jump\t// in\n    tag_215:\n        /* \"#utility.yul\":4769:4825   */\n      swap6\n      pop\n        /* \"#utility.yul\":4875:4877   */\n      dup1\n        /* \"#utility.yul\":4867:4873   */\n      dup10\n        /* \"#utility.yul\":4863:4878   */\n      add\n        /* \"#utility.yul\":4857:4879   */\n      mload\n        /* \"#utility.yul\":4834:4879   */\n      swap4\n      pop\n      pop\n      pop\n        /* \"#utility.yul\":4944:4946   */\n      dup1\n        /* \"#utility.yul\":4932:4941   */\n      dup7\n        /* \"#utility.yul\":4923:4930   */\n      dup6\n        /* \"#utility.yul\":4919:4942   */\n      sub\n        /* \"#utility.yul\":4915:4947   */\n      add\n        /* \"#utility.yul\":4910:4912   */\n      dup4\n        /* \"#utility.yul\":4899:4908   */\n      dup8\n        /* \"#utility.yul\":4895:4913   */\n      add\n        /* \"#utility.yul\":4888:4948   */\n      mstore\n      pop\n        /* \"#utility.yul\":4965:5007   */\n      tag_216\n        /* \"#utility.yul\":4999:5006   */\n      dup4\n        /* \"#utility.yul\":4982:4997   */\n      dup3\n        /* \"#utility.yul\":4965:5007   */\n      tag_188\n      jump\t// in\n    tag_216:\n        /* \"#utility.yul\":4957:5007   */\n      swap7\n        /* \"#utility.yul\":2467:5013   */\n      swap6\n      pop\n      pop\n      pop\n      pop\n      pop\n      pop\n      jump\t// out\n        /* \"#utility.yul\":5018:5272   */\n    tag_14:\n        /* \"#utility.yul\":5210:5212   */\n      0x40\n        /* \"#utility.yul\":5195:5213   */\n      dup2\n      add\n        /* \"#utility.yul\":5222:5266   */\n      tag_218\n        /* \"#utility.yul\":5199:5208   */\n      dup3\n        /* \"#utility.yul\":5248:5254   */\n      dup5\n        /* \"#utility.yul\":2111:2123   */\n      dup1\n      mload\n        /* \"#utility.yul\":2068:2086   */\n      0xffffffffffffffff\n        /* \"#utility.yul\":2107:2128   */\n      swap1\n      dup2\n      and\n        /* \"#utility.yul\":2095:2129   */\n      dup4\n      mstore\n        /* \"#utility.yul\":2182:2186   */\n      0x20\n        /* \"#utility.yul\":2171:2187   */\n      swap2\n      dup3\n      add\n        /* \"#utility.yul\":2165:2188   */\n      mload\n        /* \"#utility.yul\":2161:2193   */\n      and\n        /* \"#utility.yul\":2145:2159   */\n      swap2\n      add\n        /* \"#utility.yul\":2138:2194   */\n      mstore\n        /* \"#utility.yul\":2048:2200   */\n      jump\n        /* \"#utility.yul\":5222:5266   */\n    tag_218:\n        /* \"#utility.yul\":5177:5272   */\n      swap3\n      swap2\n      pop\n      pop\n      jump\t// out\n        /* \"#utility.yul\":5277:5405   */\n    tag_106:\n      0x00\n        /* \"#utility.yul\":5348:5349   */\n      dup3\n        /* \"#utility.yul\":5344:5350   */\n      not\n        /* \"#utility.yul\":5341:5342   */\n      dup3\n        /* \"#utility.yul\":5338:5351   */\n      gt\n        /* \"#utility.yul\":5335:5337   */\n      iszero\n      tag_221\n      jumpi\n        /* \"#utility.yul\":5354:5372   */\n      tag_221\n      tag_222\n      jump\t// in\n    tag_221:\n      pop\n        /* \"#utility.yul\":5390:5399   */\n      add\n      swap1\n        /* \"#utility.yul\":5325:5405   */\n      jump\t// out\n        /* \"#utility.yul\":5410:5627   */\n    tag_101:\n      0x00\n        /* \"#utility.yul\":5476:5477   */\n      dup3\n        /* \"#utility.yul\":5466:5468   */\n      tag_224\n      jumpi\n      shl(0xe0, 0x4e487b71)\n        /* \"#utility.yul\":5501:5532   */\n      dup2\n      mstore\n        /* \"#utility.yul\":5555:5559   */\n      0x12\n        /* \"#utility.yul\":5552:5553   */\n      0x04\n        /* \"#utility.yul\":5545:5560   */\n      mstore\n        /* \"#utility.yul\":5583:5587   */\n      0x24\n        /* \"#utility.yul\":5508:5509   */\n      dup2\n        /* \"#utility.yul\":5573:5588   */\n      revert\n        /* \"#utility.yul\":5466:5468   */\n    tag_224:\n      pop\n        /* \"#utility.yul\":5612:5621   */\n      div\n      swap1\n        /* \"#utility.yul\":5456:5627   */\n      jump\t// out\n        /* \"#utility.yul\":5632:5800   */\n    tag_119:\n      0x00\n        /* \"#utility.yul\":5738:5739   */\n      dup2\n        /* \"#utility.yul\":5734:5735   */\n      0x00\n        /* \"#utility.yul\":5730:5736   */\n      not\n        /* \"#utility.yul\":5726:5740   */\n      div\n        /* \"#utility.yul\":5723:5724   */\n      dup4\n        /* \"#utility.yul\":5720:5741   */\n      gt\n        /* \"#utility.yul\":5715:5716   */\n      dup3\n        /* \"#utility.yul\":5708:5717   */\n      iszero\n        /* \"#utility.yul\":5701:5718   */\n      iszero\n        /* \"#utility.yul\":5697:5742   */\n      and\n        /* \"#utility.yul\":5694:5696   */\n      iszero\n      tag_227\n      jumpi\n        /* \"#utility.yul\":5745:5763   */\n      tag_227\n      tag_222\n      jump\t// in\n    tag_227:\n      pop\n        /* \"#utility.yul\":5785:5794   */\n      mul\n      swap1\n        /* \"#utility.yul\":5684:5800   */\n      jump\t// out\n        /* \"#utility.yul\":5805:5940   */\n    tag_124:\n      0x00\n      not(0x00)\n        /* \"#utility.yul\":5865:5882   */\n      dup3\n      eq\n        /* \"#utility.yul\":5862:5864   */\n      iszero\n      tag_230\n      jumpi\n        /* \"#utility.yul\":5885:5903   */\n      tag_230\n      tag_222\n      jump\t// in\n    tag_230:\n      pop\n        /* \"#utility.yul\":5932:5933   */\n      0x01\n        /* \"#utility.yul\":5921:5934   */\n      add\n      swap1\n        /* \"#utility.yul\":5852:5940   */\n      jump\t// out\n        /* \"#utility.yul\":5945:6072   */\n    tag_222:\n        /* \"#utility.yul\":6006:6016   */\n      0x4e487b71\n        /* \"#utility.yul\":6001:6004   */\n      0xe0\n        /* \"#utility.yul\":5997:6017   */\n      shl\n        /* \"#utility.yul\":5994:5995   */\n      0x00\n        /* \"#utility.yul\":5987:6018   */\n      mstore\n        /* \"#utility.yul\":6037:6041   */\n      0x11\n        /* \"#utility.yul\":6034:6035   */\n      0x04\n        /* \"#utility.yul\":6027:6042   */\n      mstore\n        /* \"#utility.yul\":6061:6065   */\n      0x24\n        /* \"#utility.yul\":6058:6059   */\n      0x00\n        /* \"#utility.yul\":6051:6066   */\n      revert\n        /* \"#utility.yul\":6077:6204   */\n    tag_184:\n        /* \"#utility.yul\":6138:6148   */\n      0x4e487b71\n        /* \"#utility.yul\":6133:6136   */\n      0xe0\n        /* \"#utility.yul\":6129:6149   */\n      shl\n        /* \"#utility.yul\":6126:6127   */\n      0x00\n        /* \"#utility.yul\":6119:6150   */\n      mstore\n        /* \"#utility.yul\":6169:6173   */\n      0x41\n        /* \"#utility.yul\":6166:6167   */\n      0x04\n        /* \"#utility.yul\":6159:6174   */\n      mstore\n        /* \"#utility.yul\":6193:6197   */\n      0x24\n        /* \"#utility.yul\":6190:6191   */\n      0x00\n        /* \"#utility.yul\":6183:6198   */\n      revert\n\n    auxdata: 0xa26469706673582212202ab45c06d262e0c20d6c26854e117c03f3c93f4294d3cf452099b75a0c5c361f64736f6c63430008020033\n}\n",
				"bytecode": {
					"linkReferences": {},
					"object": "610b3e61003a600b82828239805160001a60731461002d57634e487b7160e01b600052600060045260246000fd5b30600052607381538281f3fe73000000000000000000000000000000000000000030146080604052600436106100405760003560e01c80638e86ed9914610045578063bc1c6bd61461006e575b600080fd5b61005861005336600461074c565b61008e565b6040516100659190610893565b60405180910390f35b61008161007c36600461074c565b61028b565b6040516100659190610a3f565b61009661068c565b60408051808201909152600080825260208201849052805b6100b78361032a565b15610283576100c583610339565b909250905081600114156100e6576100df61007c84610381565b845261027e565b8160021415610102576100f883610381565b602085015261027e565b8160031415610128576101148361044c565b67ffffffffffffffff16604085015261027e565b816004141561014e5761013a8361044c565b67ffffffffffffffff16606085015261027e565b81600514156101725761016861016384610381565b6104cc565b608085015261027e565b816006141561018e5761018483610381565b60a085015261027e565b81600714156101aa576101a083610381565b60c085015261027e565b81600814156101c6576101bc83610381565b60e085015261027e565b81600914156101e3576101d883610381565b61010085015261027e565b81600a1415610200576101f583610381565b61012085015261027e565b81600b141561021d5761021283610381565b61014085015261027e565b81600c141561023a5761022f83610381565b61016085015261027e565b81600d14156102575761024c83610381565b61018085015261027e565b81600e14156102745761026983610381565b6101a085015261027e565b61027e8382610554565b6100ae565b505050919050565b6040805180820182526000808252602080830182905283518085019094528184528301849052909190805b6102bf8361032a565b15610283576102cd83610339565b909250905081600114156102f5576102e48361044c565b67ffffffffffffffff168452610325565b816002141561031b576103078361044c565b67ffffffffffffffff166020850152610325565b6103258382610554565b6102b6565b6020810151518151105b919050565b60008060006103478461044c565b9050610354600882610a82565b925080600716600581111561037957634e487b7160e01b600052602160045260246000fd5b915050915091565b6060600061038e8361044c565b905060008184600001516103a29190610a6a565b90508360200151518111156103b657600080fd5b8167ffffffffffffffff8111156103dd57634e487b7160e01b600052604160045260246000fd5b6040519080825280601f01601f191660200182016040528015610407576020820181803683370190505b50602080860151865192955091818601919083010160005b8581101561044157818101518382015261043a602082610a6a565b905061041f565b505050935250919050565b602080820151825181019091015160009182805b600a8110156104c65783811a9150610479816007610aa2565b82607f16901b8517945081608016600014156104b65761049a816001610a6a565b865187906104a9908390610a6a565b9052506103349350505050565b6104bf81610ac1565b9050610460565b50600080fd5b6104d4610712565b60408051808201909152600080825260208201849052805b6104f58361032a565b156102835761050383610339565b909250905081600114156105215761051a83610381565b845261054f565b81600214156105455761053b61053684610381565b6105ec565b602085015261054f565b61054f8382610554565b6104ec565b600081600581111561057657634e487b7160e01b600052602160045260246000fd5b141561058b576105858261044c565b506105e8565b60028160058111156105ad57634e487b7160e01b600052602160045260246000fd5b14156100405760006105be8361044c565b905080836000018181516105d29190610a6a565b9052506020830151518351111561058557600080fd5b5050565b6040805180820190915260008152606060208201526000610620836040805180820190915260008152602081019190915290565b90506000805b61062f8361032a565b156102835761063d83610339565b90925090508160011415610661576106548361044c565b63ffffffff168452610687565b816002141561067d5761067383610381565b6020850152610687565b6106878382610554565b610626565b604080516102008101825260006101c082018181526101e08301829052825260606020830181905292820181905291810191909152608081016106cd610712565b81526020016060815260200160608152602001606081526020016060815260200160608152602001606081526020016060815260200160608152602001606081525090565b6040518060400160405280606081526020016107476040518060400160405280600063ffffffff168152602001606081525090565b905290565b60006020828403121561075d578081fd5b813567ffffffffffffffff80821115610774578283fd5b818401915084601f830112610787578283fd5b81358181111561079957610799610af2565b604051601f8201601f19908116603f011681019083821181831017156107c1576107c1610af2565b816040528281528760208487010111156107d9578586fd5b826020860160208301379182016020019490945295945050505050565b60008151808452815b8181101561081b576020818501810151868301820152016107ff565b8181111561082c5782602083870101525b50601f01601f19169290920160200192915050565b600081516040845261085660408501826107f6565b90506020830151848203602086015263ffffffff8151168252602081015190506040602083015261088a60408301826107f6565b95945050505050565b60208082528251805167ffffffffffffffff90811684840152910151166040820152600060208301516101e08060608501526108d36102008501836107f6565b915060408501516108f0608086018267ffffffffffffffff169052565b50606085015167ffffffffffffffff1660a08501526080850151601f19858403810160c08701526109218483610841565b935060a08701519150808685030160e087015261093e84836107f6565b935060c0870151915061010081878603018188015261095d85846107f6565b945060e0880151925061012082888703018189015261097c86856107f6565b9550818901519350610140915082888703018289015261099c86856107f6565b9550808901519350506101608288870301818901526109bb86856107f6565b955081890151935061018091508288870301828901526109db86856107f6565b9550808901519350506101a08288870301818901526109fa86856107f6565b955081890151935082888703016101c0890152610a1786856107f6565b9550808901519350505080868503018387015250610a3583826107f6565b9695505050505050565b60408101610a648284805167ffffffffffffffff908116835260209182015116910152565b92915050565b60008219821115610a7d57610a7d610adc565b500190565b600082610a9d57634e487b7160e01b81526012600452602481fd5b500490565b6000816000190483118215151615610abc57610abc610adc565b500290565b6000600019821415610ad557610ad5610adc565b5060010190565b634e487b7160e01b600052601160045260246000fd5b634e487b7160e01b600052604160045260246000fdfea26469706673582212202ab45c06d262e0c20d6c26854e117c03f3c93f4294d3cf452099b75a0c5c361f64736f6c63430008020033",
					"opcodes": "PUSH2 0xB3E PUSH2 0x3A PUSH1 0xB DUP3 DUP3 DUP3 CODECOPY DUP1 MLOAD PUSH1 0x0 BYTE PUSH1 0x73 EQ PUSH2 0x2D JUMPI PUSH4 0x4E487B71 PUSH1 0xE0 SHL PUSH1 0x0 MSTORE PUSH1 0x0 PUSH1 0x4 MSTORE PUSH1 0x24 PUSH1 0x0 REVERT JUMPDEST ADDRESS PUSH1 0x0 MSTORE PUSH1 0x73 DUP2 MSTORE8 DUP3 DUP2 RETURN INVALID PUSH20 0x0 ADDRESS EQ PUSH1 0x80 PUSH1 0x40 MSTORE PUSH1 0x4 CALLDATASIZE LT PUSH2 0x40 JUMPI PUSH1 0x0 CALLDATALOAD PUSH1 0xE0 SHR DUP1 PUSH4 0x8E86ED99 EQ PUSH2 0x45 JUMPI DUP1 PUSH4 0xBC1C6BD6 EQ PUSH2 0x6E JUMPI JUMPDEST PUSH1 0x0 DUP1 REVERT JUMPDEST PUSH2 0x58 PUSH2 0x53 CALLDATASIZE PUSH1 0x4 PUSH2 0x74C JUMP JUMPDEST PUSH2 0x8E JUMP JUMPDEST PUSH1 0x40 MLOAD PUSH2 0x65 SWAP2 SWAP1 PUSH2 0x893 JUMP JUMPDEST PUSH1 0x40 MLOAD DUP1 SWAP2 SUB SWAP1 RETURN JUMPDEST PUSH2 0x81 PUSH2 0x7C CALLDATASIZE PUSH1 0x4 PUSH2 0x74C JUMP JUMPDEST PUSH2 0x28B JUMP JUMPDEST PUSH1 0x40 MLOAD PUSH2 0x65 SWAP2 SWAP1 PUSH2 0xA3F JUMP JUMPDEST PUSH2 0x96 PUSH2 0x68C JUMP JUMPDEST PUSH1 0x40 DUP1 MLOAD DUP1 DUP3 ADD SWAP1 SWAP2 MSTORE PUSH1 0x0 DUP1 DUP3 MSTORE PUSH1 0x20 DUP3 ADD DUP5 SWAP1 MSTORE DUP1 JUMPDEST PUSH2 0xB7 DUP4 PUSH2 0x32A JUMP JUMPDEST ISZERO PUSH2 0x283 JUMPI PUSH2 0xC5 DUP4 PUSH2 0x339 JUMP JUMPDEST SWAP1 SWAP3 POP SWAP1 POP DUP2 PUSH1 0x1 EQ ISZERO PUSH2 0xE6 JUMPI PUSH2 0xDF PUSH2 0x7C DUP5 PUSH2 0x381 JUMP JUMPDEST DUP5 MSTORE PUSH2 0x27E JUMP JUMPDEST DUP2 PUSH1 0x2 EQ ISZERO PUSH2 0x102 JUMPI PUSH2 0xF8 DUP4 PUSH2 0x381 JUMP JUMPDEST PUSH1 0x20 DUP6 ADD MSTORE PUSH2 0x27E JUMP JUMPDEST DUP2 PUSH1 0x3 EQ ISZERO PUSH2 0x128 JUMPI PUSH2 0x114 DUP4 PUSH2 0x44C JUMP JUMPDEST PUSH8 0xFFFFFFFFFFFFFFFF AND PUSH1 0x40 DUP6 ADD MSTORE PUSH2 0x27E JUMP JUMPDEST DUP2 PUSH1 0x4 EQ ISZERO PUSH2 0x14E JUMPI PUSH2 0x13A DUP4 PUSH2 0x44C JUMP JUMPDEST PUSH8 0xFFFFFFFFFFFFFFFF AND PUSH1 0x60 DUP6 ADD MSTORE PUSH2 0x27E JUMP JUMPDEST DUP2 PUSH1 0x5 EQ ISZERO PUSH2 0x172 JUMPI PUSH2 0x168 PUSH2 0x163 DUP5 PUSH2 0x381 JUMP JUMPDEST PUSH2 0x4CC JUMP JUMPDEST PUSH1 0x80 DUP6 ADD MSTORE PUSH2 0x27E JUMP JUMPDEST DUP2 PUSH1 0x6 EQ ISZERO PUSH2 0x18E JUMPI PUSH2 0x184 DUP4 PUSH2 0x381 JUMP JUMPDEST PUSH1 0xA0 DUP6 ADD MSTORE PUSH2 0x27E JUMP JUMPDEST DUP2 PUSH1 0x7 EQ ISZERO PUSH2 0x1AA JUMPI PUSH2 0x1A0 DUP4 PUSH2 0x381 JUMP JUMPDEST PUSH1 0xC0 DUP6 ADD MSTORE PUSH2 0x27E JUMP JUMPDEST DUP2 PUSH1 0x8 EQ ISZERO PUSH2 0x1C6 JUMPI PUSH2 0x1BC DUP4 PUSH2 0x381 JUMP JUMPDEST PUSH1 0xE0 DUP6 ADD MSTORE PUSH2 0x27E JUMP JUMPDEST DUP2 PUSH1 0x9 EQ ISZERO PUSH2 0x1E3 JUMPI PUSH2 0x1D8 DUP4 PUSH2 0x381 JUMP JUMPDEST PUSH2 0x100 DUP6 ADD MSTORE PUSH2 0x27E JUMP JUMPDEST DUP2 PUSH1 0xA EQ ISZERO PUSH2 0x200 JUMPI PUSH2 0x1F5 DUP4 PUSH2 0x381 JUMP JUMPDEST PUSH2 0x120 DUP6 ADD MSTORE PUSH2 0x27E JUMP JUMPDEST DUP2 PUSH1 0xB EQ ISZERO PUSH2 0x21D JUMPI PUSH2 0x212 DUP4 PUSH2 0x381 JUMP JUMPDEST PUSH2 0x140 DUP6 ADD MSTORE PUSH2 0x27E JUMP JUMPDEST DUP2 PUSH1 0xC EQ ISZERO PUSH2 0x23A JUMPI PUSH2 0x22F DUP4 PUSH2 0x381 JUMP JUMPDEST PUSH2 0x160 DUP6 ADD MSTORE PUSH2 0x27E JUMP JUMPDEST DUP2 PUSH1 0xD EQ ISZERO PUSH2 0x257 JUMPI PUSH2 0x24C DUP4 PUSH2 0x381 JUMP JUMPDEST PUSH2 0x180 DUP6 ADD MSTORE PUSH2 0x27E JUMP JUMPDEST DUP2 PUSH1 0xE EQ ISZERO PUSH2 0x274 JUMPI PUSH2 0x269 DUP4 PUSH2 0x381 JUMP JUMPDEST PUSH2 0x1A0 DUP6 ADD MSTORE PUSH2 0x27E JUMP JUMPDEST PUSH2 0x27E DUP4 DUP3 PUSH2 0x554 JUMP JUMPDEST PUSH2 0xAE JUMP JUMPDEST POP POP POP SWAP2 SWAP1 POP JUMP JUMPDEST PUSH1 0x40 DUP1 MLOAD DUP1 DUP3 ADD DUP3 MSTORE PUSH1 0x0 DUP1 DUP3 MSTORE PUSH1 0x20 DUP1 DUP4 ADD DUP3 SWAP1 MSTORE DUP4 MLOAD DUP1 DUP6 ADD SWAP1 SWAP5 MSTORE DUP2 DUP5 MSTORE DUP4 ADD DUP5 SWAP1 MSTORE SWAP1 SWAP2 SWAP1 DUP1 JUMPDEST PUSH2 0x2BF DUP4 PUSH2 0x32A JUMP JUMPDEST ISZERO PUSH2 0x283 JUMPI PUSH2 0x2CD DUP4 PUSH2 0x339 JUMP JUMPDEST SWAP1 SWAP3 POP SWAP1 POP DUP2 PUSH1 0x1 EQ ISZERO PUSH2 0x2F5 JUMPI PUSH2 0x2E4 DUP4 PUSH2 0x44C JUMP JUMPDEST PUSH8 0xFFFFFFFFFFFFFFFF AND DUP5 MSTORE PUSH2 0x325 JUMP JUMPDEST DUP2 PUSH1 0x2 EQ ISZERO PUSH2 0x31B JUMPI PUSH2 0x307 DUP4 PUSH2 0x44C JUMP JUMPDEST PUSH8 0xFFFFFFFFFFFFFFFF AND PUSH1 0x20 DUP6 ADD MSTORE PUSH2 0x325 JUMP JUMPDEST PUSH2 0x325 DUP4 DUP3 PUSH2 0x554 JUMP JUMPDEST PUSH2 0x2B6 JUMP JUMPDEST PUSH1 0x20 DUP2 ADD MLOAD MLOAD DUP2 MLOAD LT JUMPDEST SWAP2 SWAP1 POP JUMP JUMPDEST PUSH1 0x0 DUP1 PUSH1 0x0 PUSH2 0x347 DUP5 PUSH2 0x44C JUMP JUMPDEST SWAP1 POP PUSH2 0x354 PUSH1 0x8 DUP3 PUSH2 0xA82 JUMP JUMPDEST SWAP3 POP DUP1 PUSH1 0x7 AND PUSH1 0x5 DUP2 GT ISZERO PUSH2 0x379 JUMPI PUSH4 0x4E487B71 PUSH1 0xE0 SHL PUSH1 0x0 MSTORE PUSH1 0x21 PUSH1 0x4 MSTORE PUSH1 0x24 PUSH1 0x0 REVERT JUMPDEST SWAP2 POP POP SWAP2 POP SWAP2 JUMP JUMPDEST PUSH1 0x60 PUSH1 0x0 PUSH2 0x38E DUP4 PUSH2 0x44C JUMP JUMPDEST SWAP1 POP PUSH1 0x0 DUP2 DUP5 PUSH1 0x0 ADD MLOAD PUSH2 0x3A2 SWAP2 SWAP1 PUSH2 0xA6A JUMP JUMPDEST SWAP1 POP DUP4 PUSH1 0x20 ADD MLOAD MLOAD DUP2 GT ISZERO PUSH2 0x3B6 JUMPI PUSH1 0x0 DUP1 REVERT JUMPDEST DUP2 PUSH8 0xFFFFFFFFFFFFFFFF DUP2 GT ISZERO PUSH2 0x3DD JUMPI PUSH4 0x4E487B71 PUSH1 0xE0 SHL PUSH1 0x0 MSTORE PUSH1 0x41 PUSH1 0x4 MSTORE PUSH1 0x24 PUSH1 0x0 REVERT JUMPDEST PUSH1 0x40 MLOAD SWAP1 DUP1 DUP3 MSTORE DUP1 PUSH1 0x1F ADD PUSH1 0x1F NOT AND PUSH1 0x20 ADD DUP3 ADD PUSH1 0x40 MSTORE DUP1 ISZERO PUSH2 0x407 JUMPI PUSH1 0x20 DUP3 ADD DUP2 DUP1 CALLDATASIZE DUP4 CALLDATACOPY ADD SWAP1 POP JUMPDEST POP PUSH1 0x20 DUP1 DUP7 ADD MLOAD DUP7 MLOAD SWAP3 SWAP6 POP SWAP2 DUP2 DUP7 ADD SWAP2 SWAP1 DUP4 ADD ADD PUSH1 0x0 JUMPDEST DUP6 DUP2 LT ISZERO PUSH2 0x441 JUMPI DUP2 DUP2 ADD MLOAD DUP4 DUP3 ADD MSTORE PUSH2 0x43A PUSH1 0x20 DUP3 PUSH2 0xA6A JUMP JUMPDEST SWAP1 POP PUSH2 0x41F JUMP JUMPDEST POP POP POP SWAP4 MSTORE POP SWAP2 SWAP1 POP JUMP JUMPDEST PUSH1 0x20 DUP1 DUP3 ADD MLOAD DUP3 MLOAD DUP2 ADD SWAP1 SWAP2 ADD MLOAD PUSH1 0x0 SWAP2 DUP3 DUP1 JUMPDEST PUSH1 0xA DUP2 LT ISZERO PUSH2 0x4C6 JUMPI DUP4 DUP2 BYTE SWAP2 POP PUSH2 0x479 DUP2 PUSH1 0x7 PUSH2 0xAA2 JUMP JUMPDEST DUP3 PUSH1 0x7F AND SWAP1 SHL DUP6 OR SWAP5 POP DUP2 PUSH1 0x80 AND PUSH1 0x0 EQ ISZERO PUSH2 0x4B6 JUMPI PUSH2 0x49A DUP2 PUSH1 0x1 PUSH2 0xA6A JUMP JUMPDEST DUP7 MLOAD DUP8 SWAP1 PUSH2 0x4A9 SWAP1 DUP4 SWAP1 PUSH2 0xA6A JUMP JUMPDEST SWAP1 MSTORE POP PUSH2 0x334 SWAP4 POP POP POP POP JUMP JUMPDEST PUSH2 0x4BF DUP2 PUSH2 0xAC1 JUMP JUMPDEST SWAP1 POP PUSH2 0x460 JUMP JUMPDEST POP PUSH1 0x0 DUP1 REVERT JUMPDEST PUSH2 0x4D4 PUSH2 0x712 JUMP JUMPDEST PUSH1 0x40 DUP1 MLOAD DUP1 DUP3 ADD SWAP1 SWAP2 MSTORE PUSH1 0x0 DUP1 DUP3 MSTORE PUSH1 0x20 DUP3 ADD DUP5 SWAP1 MSTORE DUP1 JUMPDEST PUSH2 0x4F5 DUP4 PUSH2 0x32A JUMP JUMPDEST ISZERO PUSH2 0x283 JUMPI PUSH2 0x503 DUP4 PUSH2 0x339 JUMP JUMPDEST SWAP1 SWAP3 POP SWAP1 POP DUP2 PUSH1 0x1 EQ ISZERO PUSH2 0x521 JUMPI PUSH2 0x51A DUP4 PUSH2 0x381 JUMP JUMPDEST DUP5 MSTORE PUSH2 0x54F JUMP JUMPDEST DUP2 PUSH1 0x2 EQ ISZERO PUSH2 0x545 JUMPI PUSH2 0x53B PUSH2 0x536 DUP5 PUSH2 0x381 JUMP JUMPDEST PUSH2 0x5EC JUMP JUMPDEST PUSH1 0x20 DUP6 ADD MSTORE PUSH2 0x54F JUMP JUMPDEST PUSH2 0x54F DUP4 DUP3 PUSH2 0x554 JUMP JUMPDEST PUSH2 0x4EC JUMP JUMPDEST PUSH1 0x0 DUP2 PUSH1 0x5 DUP2 GT ISZERO PUSH2 0x576 JUMPI PUSH4 0x4E487B71 PUSH1 0xE0 SHL PUSH1 0x0 MSTORE PUSH1 0x21 PUSH1 0x4 MSTORE PUSH1 0x24 PUSH1 0x0 REVERT JUMPDEST EQ ISZERO PUSH2 0x58B JUMPI PUSH2 0x585 DUP3 PUSH2 0x44C JUMP JUMPDEST POP PUSH2 0x5E8 JUMP JUMPDEST PUSH1 0x2 DUP2 PUSH1 0x5 DUP2 GT ISZERO PUSH2 0x5AD JUMPI PUSH4 0x4E487B71 PUSH1 0xE0 SHL PUSH1 0x0 MSTORE PUSH1 0x21 PUSH1 0x4 MSTORE PUSH1 0x24 PUSH1 0x0 REVERT JUMPDEST EQ ISZERO PUSH2 0x40 JUMPI PUSH1 0x0 PUSH2 0x5BE DUP4 PUSH2 0x44C JUMP JUMPDEST SWAP1 POP DUP1 DUP4 PUSH1 0x0 ADD DUP2 DUP2 MLOAD PUSH2 0x5D2 SWAP2 SWAP1 PUSH2 0xA6A JUMP JUMPDEST SWAP1 MSTORE POP PUSH1 0x20 DUP4 ADD MLOAD MLOAD DUP4 MLOAD GT ISZERO PUSH2 0x585 JUMPI PUSH1 0x0 DUP1 REVERT JUMPDEST POP POP JUMP JUMPDEST PUSH1 0x40 DUP1 MLOAD DUP1 DUP3 ADD SWAP1 SWAP2 MSTORE PUSH1 0x0 DUP2 MSTORE PUSH1 0x60 PUSH1 0x20 DUP3 ADD MSTORE PUSH1 0x0 PUSH2 0x620 DUP4 PUSH1 0x40 DUP1 MLOAD DUP1 DUP3 ADD SWAP1 SWAP2 MSTORE PUSH1 0x0 DUP2 MSTORE PUSH1 0x20 DUP2 ADD SWAP2 SWAP1 SWAP2 MSTORE SWAP1 JUMP JUMPDEST SWAP1 POP PUSH1 0x0 DUP1 JUMPDEST PUSH2 0x62F DUP4 PUSH2 0x32A JUMP JUMPDEST ISZERO PUSH2 0x283 JUMPI PUSH2 0x63D DUP4 PUSH2 0x339 JUMP JUMPDEST SWAP1 SWAP3 POP SWAP1 POP DUP2 PUSH1 0x1 EQ ISZERO PUSH2 0x661 JUMPI PUSH2 0x654 DUP4 PUSH2 0x44C JUMP JUMPDEST PUSH4 0xFFFFFFFF AND DUP5 MSTORE PUSH2 0x687 JUMP JUMPDEST DUP2 PUSH1 0x2 EQ ISZERO PUSH2 0x67D JUMPI PUSH2 0x673 DUP4 PUSH2 0x381 JUMP JUMPDEST PUSH1 0x20 DUP6 ADD MSTORE PUSH2 0x687 JUMP JUMPDEST PUSH2 0x687 DUP4 DUP3 PUSH2 0x554 JUMP JUMPDEST PUSH2 0x626 JUMP JUMPDEST PUSH1 0x40 DUP1 MLOAD PUSH2 0x200 DUP2 ADD DUP3 MSTORE PUSH1 0x0 PUSH2 0x1C0 DUP3 ADD DUP2 DUP2 MSTORE PUSH2 0x1E0 DUP4 ADD DUP3 SWAP1 MSTORE DUP3 MSTORE PUSH1 0x60 PUSH1 0x20 DUP4 ADD DUP2 SWAP1 MSTORE SWAP3 DUP3 ADD DUP2 SWAP1 MSTORE SWAP2 DUP2 ADD SWAP2 SWAP1 SWAP2 MSTORE PUSH1 0x80 DUP2 ADD PUSH2 0x6CD PUSH2 0x712 JUMP JUMPDEST DUP2 MSTORE PUSH1 0x20 ADD PUSH1 0x60 DUP2 MSTORE PUSH1 0x20 ADD PUSH1 0x60 DUP2 MSTORE PUSH1 0x20 ADD PUSH1 0x60 DUP2 MSTORE PUSH1 0x20 ADD PUSH1 0x60 DUP2 MSTORE PUSH1 0x20 ADD PUSH1 0x60 DUP2 MSTORE PUSH1 0x20 ADD PUSH1 0x60 DUP2 MSTORE PUSH1 0x20 ADD PUSH1 0x60 DUP2 MSTORE PUSH1 0x20 ADD PUSH1 0x60 DUP2 MSTORE PUSH1 0x20 ADD PUSH1 0x60 DUP2 MSTORE POP SWAP1 JUMP JUMPDEST PUSH1 0x40 MLOAD DUP1 PUSH1 0x40 ADD PUSH1 0x40 MSTORE DUP1 PUSH1 0x60 DUP2 MSTORE PUSH1 0x20 ADD PUSH2 0x747 PUSH1 0x40 MLOAD DUP1 PUSH1 0x40 ADD PUSH1 0x40 MSTORE DUP1 PUSH1 0x0 PUSH4 0xFFFFFFFF AND DUP2 MSTORE PUSH1 0x20 ADD PUSH1 0x60 DUP2 MSTORE POP SWAP1 JUMP JUMPDEST SWAP1 MSTORE SWAP1 JUMP JUMPDEST PUSH1 0x0 PUSH1 0x20 DUP3 DUP5 SUB SLT ISZERO PUSH2 0x75D JUMPI DUP1 DUP2 REVERT JUMPDEST DUP2 CALLDATALOAD PUSH8 0xFFFFFFFFFFFFFFFF DUP1 DUP3 GT ISZERO PUSH2 0x774 JUMPI DUP3 DUP4 REVERT JUMPDEST DUP2 DUP5 ADD SWAP2 POP DUP5 PUSH1 0x1F DUP4 ADD SLT PUSH2 0x787 JUMPI DUP3 DUP4 REVERT JUMPDEST DUP2 CALLDATALOAD DUP2 DUP2 GT ISZERO PUSH2 0x799 JUMPI PUSH2 0x799 PUSH2 0xAF2 JUMP JUMPDEST PUSH1 0x40 MLOAD PUSH1 0x1F DUP3 ADD PUSH1 0x1F NOT SWAP1 DUP2 AND PUSH1 0x3F ADD AND DUP2 ADD SWAP1 DUP4 DUP3 GT DUP2 DUP4 LT OR ISZERO PUSH2 0x7C1 JUMPI PUSH2 0x7C1 PUSH2 0xAF2 JUMP JUMPDEST DUP2 PUSH1 0x40 MSTORE DUP3 DUP2 MSTORE DUP8 PUSH1 0x20 DUP5 DUP8 ADD ADD GT ISZERO PUSH2 0x7D9 JUMPI DUP6 DUP7 REVERT JUMPDEST DUP3 PUSH1 0x20 DUP7 ADD PUSH1 0x20 DUP4 ADD CALLDATACOPY SWAP2 DUP3 ADD PUSH1 0x20 ADD SWAP5 SWAP1 SWAP5 MSTORE SWAP6 SWAP5 POP POP POP POP POP JUMP JUMPDEST PUSH1 0x0 DUP2 MLOAD DUP1 DUP5 MSTORE DUP2 JUMPDEST DUP2 DUP2 LT ISZERO PUSH2 0x81B JUMPI PUSH1 0x20 DUP2 DUP6 ADD DUP2 ADD MLOAD DUP7 DUP4 ADD DUP3 ADD MSTORE ADD PUSH2 0x7FF JUMP JUMPDEST DUP2 DUP2 GT ISZERO PUSH2 0x82C JUMPI DUP3 PUSH1 0x20 DUP4 DUP8 ADD ADD MSTORE JUMPDEST POP PUSH1 0x1F ADD PUSH1 0x1F NOT AND SWAP3 SWAP1 SWAP3 ADD PUSH1 0x20 ADD SWAP3 SWAP2 POP POP JUMP JUMPDEST PUSH1 0x0 DUP2 MLOAD PUSH1 0x40 DUP5 MSTORE PUSH2 0x856 PUSH1 0x40 DUP6 ADD DUP3 PUSH2 0x7F6 JUMP JUMPDEST SWAP1 POP PUSH1 0x20 DUP4 ADD MLOAD DUP5 DUP3 SUB PUSH1 0x20 DUP7 ADD MSTORE PUSH4 0xFFFFFFFF DUP2 MLOAD AND DUP3 MSTORE PUSH1 0x20 DUP2 ADD MLOAD SWAP1 POP PUSH1 0x40 PUSH1 0x20 DUP4 ADD MSTORE PUSH2 0x88A PUSH1 0x40 DUP4 ADD DUP3 PUSH2 0x7F6 JUMP JUMPDEST SWAP6 SWAP5 POP POP POP POP POP JUMP JUMPDEST PUSH1 0x20 DUP1 DUP3 MSTORE DUP3 MLOAD DUP1 MLOAD PUSH8 0xFFFFFFFFFFFFFFFF SWAP1 DUP2 AND DUP5 DUP5 ADD MSTORE SWAP2 ADD MLOAD AND PUSH1 0x40 DUP3 ADD MSTORE PUSH1 0x0 PUSH1 0x20 DUP4 ADD MLOAD PUSH2 0x1E0 DUP1 PUSH1 0x60 DUP6 ADD MSTORE PUSH2 0x8D3 PUSH2 0x200 DUP6 ADD DUP4 PUSH2 0x7F6 JUMP JUMPDEST SWAP2 POP PUSH1 0x40 DUP6 ADD MLOAD PUSH2 0x8F0 PUSH1 0x80 DUP7 ADD DUP3 PUSH8 0xFFFFFFFFFFFFFFFF AND SWAP1 MSTORE JUMP JUMPDEST POP PUSH1 0x60 DUP6 ADD MLOAD PUSH8 0xFFFFFFFFFFFFFFFF AND PUSH1 0xA0 DUP6 ADD MSTORE PUSH1 0x80 DUP6 ADD MLOAD PUSH1 0x1F NOT DUP6 DUP5 SUB DUP2 ADD PUSH1 0xC0 DUP8 ADD MSTORE PUSH2 0x921 DUP5 DUP4 PUSH2 0x841 JUMP JUMPDEST SWAP4 POP PUSH1 0xA0 DUP8 ADD MLOAD SWAP2 POP DUP1 DUP7 DUP6 SUB ADD PUSH1 0xE0 DUP8 ADD MSTORE PUSH2 0x93E DUP5 DUP4 PUSH2 0x7F6 JUMP JUMPDEST SWAP4 POP PUSH1 0xC0 DUP8 ADD MLOAD SWAP2 POP PUSH2 0x100 DUP2 DUP8 DUP7 SUB ADD DUP2 DUP9 ADD MSTORE PUSH2 0x95D DUP6 DUP5 PUSH2 0x7F6 JUMP JUMPDEST SWAP5 POP PUSH1 0xE0 DUP9 ADD MLOAD SWAP3 POP PUSH2 0x120 DUP3 DUP9 DUP8 SUB ADD DUP2 DUP10 ADD MSTORE PUSH2 0x97C DUP7 DUP6 PUSH2 0x7F6 JUMP JUMPDEST SWAP6 POP DUP2 DUP10 ADD MLOAD SWAP4 POP PUSH2 0x140 SWAP2 POP DUP3 DUP9 DUP8 SUB ADD DUP3 DUP10 ADD MSTORE PUSH2 0x99C DUP7 DUP6 PUSH2 0x7F6 JUMP JUMPDEST SWAP6 POP DUP1 DUP10 ADD MLOAD SWAP4 POP POP PUSH2 0x160 DUP3 DUP9 DUP8 SUB ADD DUP2 DUP10 ADD MSTORE PUSH2 0x9BB DUP7 DUP6 PUSH2 0x7F6 JUMP JUMPDEST SWAP6 POP DUP2 DUP10 ADD MLOAD SWAP4 POP PUSH2 0x180 SWAP2 POP DUP3 DUP9 DUP8 SUB ADD DUP3 DUP10 ADD MSTORE PUSH2 0x9DB DUP7 DUP6 PUSH2 0x7F6 JUMP JUMPDEST SWAP6 POP DUP1 DUP10 ADD MLOAD SWAP4 POP POP PUSH2 0x1A0 DUP3 DUP9 DUP8 SUB ADD DUP2 DUP10 ADD MSTORE PUSH2 0x9FA DUP7 DUP6 PUSH2 0x7F6 JUMP JUMPDEST SWAP6 POP DUP2 DUP10 ADD MLOAD SWAP4 POP DUP3 DUP9 DUP8 SUB ADD PUSH2 0x1C0 DUP10 ADD MSTORE PUSH2 0xA17 DUP7 DUP6 PUSH2 0x7F6 JUMP JUMPDEST SWAP6 POP DUP1 DUP10 ADD MLOAD SWAP4 POP POP POP DUP1 DUP7 DUP6 SUB ADD DUP4 DUP8 ADD MSTORE POP PUSH2 0xA35 DUP4 DUP3 PUSH2 0x7F6 JUMP JUMPDEST SWAP7 SWAP6 POP POP POP POP POP POP JUMP JUMPDEST PUSH1 0x40 DUP2 ADD PUSH2 0xA64 DUP3 DUP5 DUP1 MLOAD PUSH8 0xFFFFFFFFFFFFFFFF SWAP1 DUP2 AND DUP4 MSTORE PUSH1 0x20 SWAP2 DUP3 ADD MLOAD AND SWAP2 ADD MSTORE JUMP JUMPDEST SWAP3 SWAP2 POP POP JUMP JUMPDEST PUSH1 0x0 DUP3 NOT DUP3 GT ISZERO PUSH2 0xA7D JUMPI PUSH2 0xA7D PUSH2 0xADC JUMP JUMPDEST POP ADD SWAP1 JUMP JUMPDEST PUSH1 0x0 DUP3 PUSH2 0xA9D JUMPI PUSH4 0x4E487B71 PUSH1 0xE0 SHL DUP2 MSTORE PUSH1 0x12 PUSH1 0x4 MSTORE PUSH1 0x24 DUP2 REVERT JUMPDEST POP DIV SWAP1 JUMP JUMPDEST PUSH1 0x0 DUP2 PUSH1 0x0 NOT DIV DUP4 GT DUP3 ISZERO ISZERO AND ISZERO PUSH2 0xABC JUMPI PUSH2 0xABC PUSH2 0xADC JUMP JUMPDEST POP MUL SWAP1 JUMP JUMPDEST PUSH1 0x0 PUSH1 0x0 NOT DUP3 EQ ISZERO PUSH2 0xAD5 JUMPI PUSH2 0xAD5 PUSH2 0xADC JUMP JUMPDEST POP PUSH1 0x1 ADD SWAP1 JUMP JUMPDEST PUSH4 0x4E487B71 PUSH1 0xE0 SHL PUSH1 0x0 MSTORE PUSH1 0x11 PUSH1 0x4 MSTORE PUSH1 0x24 PUSH1 0x0 REVERT JUMPDEST PUSH4 0x4E487B71 PUSH1 0xE0 SHL PUSH1 0x0 MSTORE PUSH1 0x41 PUSH1 0x4 MSTORE PUSH1 0x24 PUSH1 0x0 REVERT INVALID LOG2 PUSH5 0x6970667358 0x22 SLT KECCAK256 0x2A 0xB4 0x5C MOD 0xD2 PUSH3 0xE0C20D PUSH13 0x26854E117C03F3C93F4294D3CF GASLIMIT KECCAK256 SWAP10 0xB7 GAS 0xC 0x5C CALLDATASIZE 0x1F PUSH5 0x736F6C6343 STOP ADDMOD MUL STOP CALLER "
				},
				"gasEstimates": {
					"creation": {
						"codeDepositCost": "575600",
						"executionCost": "641",
						"totalCost": "576241"
					},
					"external": {
						"decHeader(bytes)": "infinite",
						"decVersion(bytes)": "infinite"
					},
					"internal": {
						"decBlockID(bytes memory)": "infinite",
						"decPartSetHeader(bytes memory)": "infinite"
					}
				},
				"methodIdentifiers": {
					"decHeader(bytes)": "8e86ed99",
					"decVersion(bytes)": "bc1c6bd6"
				}
			},
			"storageLayout": {
				"storage": [],
				"types": null
			},
			"userdoc": {
				"kind": "user",
				"methods": {},
				"version": 1
			}
		}
	}
}