{
	"contracts/libraries/PbHeader.sol": {
		"PbHeader": {
			"abi": [
				{
					"inputs": [
						{
							"internalType": "bytes",
							"name": "raw",
							"type": "bytes"
						}
					],
					"name": "decBlockID",
					"outputs": [
						{
							"components": [
								{
									"internalType": "bytes",
									"name": "hash",
									"type": "bytes"
								},
								{
									"components": [
										{
											"internalType": "uint32",
											"name": "total",
											"type": "uint32"
										},
										{
											"internalType": "bytes",
											"name": "hash",
											"type": "bytes"
										}
									],
									"internalType": "struct PbHeader.PartSetHeader",
									"name": "partSetHeader",
									"type": "tuple"
								}
							],
							"internalType": "struct PbHeader.BlockID",
							"name": "m",
							"type": "tuple"
						}
					],
					"stateMutability": "pure",
					"type": "function"
				},
				{
					"inputs": [
						{
							"internalType": "bytes",
							"name": "raw",
							"type": "bytes"
						}
					],
					"name": "decHeader",
					"outputs": [
						{
							"components": [
								{
									"components": [
										{
											"internalType": "uint64",
											"name": "block",
											"type": "uint64"
										},
										{
											"internalType": "uint64",
											"name": "app",
											"type": "uint64"
										}
									],
									"internalType": "struct PbHeader.Version",
									"name": "version",
									"type": "tuple"
								},
								{
									"internalType": "string",
									"name": "chainId",
									"type": "string"
								},
								{
									"internalType": "uint64",
									"name": "height",
									"type": "uint64"
								},
								{
									"components": [
										{
											"internalType": "uint64",
											"name": "second",
											"type": "uint64"
										},
										{
											"internalType": "uint64",
											"name": "nano",
											"type": "uint64"
										}
									],
									"internalType": "struct PbHeader.Timestamp",
									"name": "time",
									"type": "tuple"
								},
								{
									"components": [
										{
											"internalType": "bytes",
											"name": "hash",
											"type": "bytes"
										},
										{
											"components": [
												{
													"internalType": "uint32",
													"name": "total",
													"type": "uint32"
												},
												{
													"internalType": "bytes",
													"name": "hash",
													"type": "bytes"
												}
											],
											"internalType": "struct PbHeader.PartSetHeader",
											"name": "partSetHeader",
											"type": "tuple"
										}
									],
									"internalType": "struct PbHeader.BlockID",
									"name": "lastBlockId",
									"type": "tuple"
								},
								{
									"internalType": "bytes",
									"name": "lastCommitHash",
									"type": "bytes"
								},
								{
									"internalType": "bytes",
									"name": "dataHash",
									"type": "bytes"
								},
								{
									"internalType": "bytes",
									"name": "validatorsHash",
									"type": "bytes"
								},
								{
									"internalType": "bytes",
									"name": "nextValidatorsHash",
									"type": "bytes"
								},
								{
									"internalType": "bytes",
									"name": "consensusHash",
									"type": "bytes"
								},
								{
									"internalType": "bytes",
									"name": "appHash",
									"type": "bytes"
								},
								{
									"internalType": "bytes",
									"name": "lastResultsHash",
									"type": "bytes"
								},
								{
									"internalType": "bytes",
									"name": "evidenceHash",
									"type": "bytes"
								},
								{
									"internalType": "bytes",
									"name": "proposerAddress",
									"type": "bytes"
								}
							],
							"internalType": "struct PbHeader.Header",
							"name": "m",
							"type": "tuple"
						}
					],
					"stateMutability": "pure",
					"type": "function"
				},
				{
					"inputs": [
						{
							"internalType": "bytes",
							"name": "raw",
							"type": "bytes"
						}
					],
					"name": "decPartSetHeader",
					"outputs": [
						{
							"components": [
								{
									"internalType": "uint32",
									"name": "total",
									"type": "uint32"
								},
								{
									"internalType": "bytes",
									"name": "hash",
									"type": "bytes"
								}
							],
							"internalType": "struct PbHeader.PartSetHeader",
							"name": "m",
							"type": "tuple"
						}
					],
					"stateMutability": "pure",
					"type": "function"
				},
				{
					"inputs": [
						{
							"internalType": "bytes",
							"name": "raw",
							"type": "bytes"
						}
					],
					"name": "decTimestamp",
					"outputs": [
						{
							"components": [
								{
									"internalType": "uint64",
									"name": "second",
									"type": "uint64"
								},
								{
									"internalType": "uint64",
									"name": "nano",
									"type": "uint64"
								}
							],
							"internalType": "struct PbHeader.Timestamp",
							"name": "m",
							"type": "tuple"
						}
					],
					"stateMutability": "pure",
					"type": "function"
				},
				{
					"inputs": [
						{
							"internalType": "bytes",
							"name": "raw",
							"type": "bytes"
						}
					],
					"name": "decVersion",
					"outputs": [
						{
							"components": [
								{
									"internalType": "uint64",
									"name": "block",
									"type": "uint64"
								},
								{
									"internalType": "uint64",
									"name": "app",
									"type": "uint64"
								}
							],
							"internalType": "struct PbHeader.Version",
							"name": "m",
							"type": "tuple"
						}
					],
					"stateMutability": "pure",
					"type": "function"
				}
			],
			"devdoc": {
				"kind": "dev",
				"methods": {},
				"version": 1
			},
			"evm": {
				"assembly": "    /* \"contracts/libraries/PbHeader.sol\":145:5693  library PbHeader {... */\n  dataSize(sub_0)\n  dataOffset(sub_0)\n  0x0b\n  dup3\n  dup3\n  dup3\n  codecopy\n  dup1\n  mload\n  0x00\n  byte\n  0x73\n  eq\n  tag_1\n  jumpi\n  mstore(0x00, shl(0xe0, 0x4e487b71))\n  mstore(0x04, 0x00)\n  revert(0x00, 0x24)\ntag_1:\n  mstore(0x00, address)\n  0x73\n  dup2\n  mstore8\n  dup3\n  dup2\n  return\nstop\n\nsub_0: assembly {\n        /* \"contracts/libraries/PbHeader.sol\":145:5693  library PbHeader {... */\n      eq(address, deployTimeAddress())\n      mstore(0x40, 0x80)\n      jumpi(tag_1, lt(calldatasize, 0x04))\n      shr(0xe0, calldataload(0x00))\n      dup1\n      0x028927d5\n      eq\n      tag_2\n      jumpi\n      dup1\n      0x8e86ed99\n      eq\n      tag_3\n      jumpi\n      dup1\n      0xa6f571a5\n      eq\n      tag_4\n      jumpi\n      dup1\n      0xbc1c6bd6\n      eq\n      tag_5\n      jumpi\n      dup1\n      0xf9de4e57\n      eq\n      tag_6\n      jumpi\n    tag_1:\n      0x00\n      dup1\n      revert\n        /* \"contracts/libraries/PbHeader.sol\":5076:5665  function decTimestamp(bytes memory raw) public pure returns (Timestamp memory m) {... */\n    tag_2:\n      tag_7\n      tag_8\n      calldatasize\n      0x04\n      tag_9\n      jump\t// in\n    tag_8:\n      tag_10\n      jump\t// in\n    tag_7:\n      mload(0x40)\n      tag_11\n      swap2\n      swap1\n      tag_12\n      jump\t// in\n    tag_11:\n      mload(0x40)\n      dup1\n      swap2\n      sub\n      swap1\n      return\n        /* \"contracts/libraries/PbHeader.sol\":845:2682  function decHeader(bytes memory raw) public pure returns (Header memory m) {... */\n    tag_3:\n      tag_13\n      tag_14\n      calldatasize\n      0x04\n      tag_9\n      jump\t// in\n    tag_14:\n      tag_15\n      jump\t// in\n    tag_13:\n      mload(0x40)\n      tag_11\n      swap2\n      swap1\n      tag_17\n      jump\t// in\n        /* \"contracts/libraries/PbHeader.sol\":4325:4919  function decPartSetHeader(bytes memory raw) public pure returns (PartSetHeader memory m) {... */\n    tag_4:\n      tag_18\n      tag_19\n      calldatasize\n      0x04\n      tag_9\n      jump\t// in\n    tag_19:\n      tag_20\n      jump\t// in\n    tag_18:\n      mload(0x40)\n      tag_11\n      swap2\n      swap1\n      tag_22\n      jump\t// in\n        /* \"contracts/libraries/PbHeader.sol\":2826:3409  function decVersion(bytes memory raw) public pure returns (Version memory m) {... */\n    tag_5:\n      tag_7\n      tag_24\n      calldatasize\n      0x04\n      tag_9\n      jump\t// in\n    tag_24:\n      tag_25\n      jump\t// in\n        /* \"contracts/libraries/PbHeader.sol\":3569:4168  function decBlockID(bytes memory raw) public pure returns (BlockID memory m) {... */\n    tag_6:\n      tag_28\n      tag_29\n      calldatasize\n      0x04\n      tag_9\n      jump\t// in\n    tag_29:\n      tag_30\n      jump\t// in\n    tag_28:\n      mload(0x40)\n      tag_11\n      swap2\n      swap1\n      tag_32\n      jump\t// in\n        /* \"contracts/libraries/PbHeader.sol\":5076:5665  function decTimestamp(bytes memory raw) public pure returns (Timestamp memory m) {... */\n    tag_10:\n      0x40\n      dup1\n      mload\n      dup1\n      dup3\n      add\n      dup3\n      mstore\n      0x00\n      dup1\n      dup3\n      mstore\n      0x20\n      dup1\n      dup4\n      add\n      dup3\n      swap1\n      mstore\n      dup4\n      mload\n      dup1\n      dup6\n      add\n      swap1\n      swap5\n      mstore\n      dup2\n      dup5\n      mstore\n      dup4\n      add\n        /* \"contracts/libraries/Pb.sol\":474:485  buf.b = raw */\n      dup5\n      swap1\n      mstore\n      swap1\n      swap2\n      swap1\n      dup1\n        /* \"contracts/libraries/PbHeader.sol\":5262:5659  while (buf.hasMore()) {... */\n    tag_38:\n        /* \"contracts/libraries/PbHeader.sol\":5269:5282  buf.hasMore() */\n      tag_40\n        /* \"contracts/libraries/PbHeader.sol\":5269:5272  buf */\n      dup4\n        /* \"contracts/libraries/PbHeader.sol\":5269:5280  buf.hasMore */\n      tag_41\n        /* \"contracts/libraries/PbHeader.sol\":5269:5282  buf.hasMore() */\n      jump\t// in\n    tag_40:\n        /* \"contracts/libraries/PbHeader.sol\":5262:5659  while (buf.hasMore()) {... */\n      iszero\n      tag_39\n      jumpi\n        /* \"contracts/libraries/PbHeader.sol\":5312:5324  buf.decKey() */\n      tag_42\n        /* \"contracts/libraries/PbHeader.sol\":5312:5315  buf */\n      dup4\n        /* \"contracts/libraries/PbHeader.sol\":5312:5322  buf.decKey */\n      tag_43\n        /* \"contracts/libraries/PbHeader.sol\":5312:5324  buf.decKey() */\n      jump\t// in\n    tag_42:\n        /* \"contracts/libraries/PbHeader.sol\":5298:5324  (tag, wire) = buf.decKey() */\n      swap1\n      swap3\n      pop\n      swap1\n      pop\n        /* \"contracts/libraries/PbHeader.sol\":5404:5407  tag */\n      dup2\n        /* \"contracts/libraries/PbHeader.sol\":5411:5412  1 */\n      0x01\n        /* \"contracts/libraries/PbHeader.sol\":5404:5412  tag == 1 */\n      eq\n        /* \"contracts/libraries/PbHeader.sol\":5400:5620  if (tag == 1) {... */\n      iszero\n      tag_46\n      jumpi\n        /* \"contracts/libraries/PbHeader.sol\":5450:5465  buf.decVarint() */\n      tag_47\n        /* \"contracts/libraries/PbHeader.sol\":5450:5453  buf */\n      dup4\n        /* \"contracts/libraries/PbHeader.sol\":5450:5463  buf.decVarint */\n      tag_48\n        /* \"contracts/libraries/PbHeader.sol\":5450:5465  buf.decVarint() */\n      jump\t// in\n    tag_47:\n        /* \"contracts/libraries/PbHeader.sol\":5432:5466  m.second = uint64(buf.decVarint()) */\n      0xffffffffffffffff\n      and\n      dup5\n      mstore\n        /* \"contracts/libraries/PbHeader.sol\":5400:5620  if (tag == 1) {... */\n      jump(tag_53)\n    tag_46:\n        /* \"contracts/libraries/PbHeader.sol\":5503:5506  tag */\n      dup2\n        /* \"contracts/libraries/PbHeader.sol\":5510:5511  2 */\n      0x02\n        /* \"contracts/libraries/PbHeader.sol\":5503:5511  tag == 2 */\n      eq\n        /* \"contracts/libraries/PbHeader.sol\":5499:5620  if (tag == 2) {... */\n      iszero\n      tag_50\n      jumpi\n        /* \"contracts/libraries/PbHeader.sol\":5547:5562  buf.decVarint() */\n      tag_51\n        /* \"contracts/libraries/PbHeader.sol\":5547:5550  buf */\n      dup4\n        /* \"contracts/libraries/PbHeader.sol\":5547:5560  buf.decVarint */\n      tag_48\n        /* \"contracts/libraries/PbHeader.sol\":5547:5562  buf.decVarint() */\n      jump\t// in\n    tag_51:\n        /* \"contracts/libraries/PbHeader.sol\":5531:5563  m.nano = uint64(buf.decVarint()) */\n      0xffffffffffffffff\n      and\n        /* \"contracts/libraries/PbHeader.sol\":5531:5537  m.nano */\n      0x20\n      dup6\n      add\n        /* \"contracts/libraries/PbHeader.sol\":5531:5563  m.nano = uint64(buf.decVarint()) */\n      mstore\n        /* \"contracts/libraries/PbHeader.sol\":5499:5620  if (tag == 2) {... */\n      jump(tag_53)\n    tag_50:\n        /* \"contracts/libraries/PbHeader.sol\":5598:5617  buf.skipValue(wire) */\n      tag_53\n        /* \"contracts/libraries/PbHeader.sol\":5598:5601  buf */\n      dup4\n        /* \"contracts/libraries/PbHeader.sol\":5612:5616  wire */\n      dup3\n        /* \"contracts/libraries/PbHeader.sol\":5598:5611  buf.skipValue */\n      tag_54\n        /* \"contracts/libraries/PbHeader.sol\":5598:5617  buf.skipValue(wire) */\n      jump\t// in\n    tag_53:\n        /* \"contracts/libraries/PbHeader.sol\":5262:5659  while (buf.hasMore()) {... */\n      jump(tag_38)\n    tag_39:\n        /* \"contracts/libraries/PbHeader.sol\":5076:5665  function decTimestamp(bytes memory raw) public pure returns (Timestamp memory m) {... */\n      pop\n      pop\n      pop\n      swap2\n      swap1\n      pop\n      jump\t// out\n        /* \"contracts/libraries/PbHeader.sol\":845:2682  function decHeader(bytes memory raw) public pure returns (Header memory m) {... */\n    tag_15:\n        /* \"contracts/libraries/PbHeader.sol\":903:918  Header memory m */\n      tag_55\n      tag_56\n      jump\t// in\n    tag_55:\n      0x40\n      dup1\n      mload\n      dup1\n      dup3\n      add\n      swap1\n      swap2\n      mstore\n      0x00\n      dup1\n      dup3\n      mstore\n      0x20\n      dup3\n      add\n        /* \"contracts/libraries/Pb.sol\":474:485  buf.b = raw */\n      dup5\n      swap1\n      mstore\n      dup1\n        /* \"contracts/libraries/PbHeader.sol\":1025:2676  while (buf.hasMore()) {... */\n    tag_59:\n        /* \"contracts/libraries/PbHeader.sol\":1032:1045  buf.hasMore() */\n      tag_61\n        /* \"contracts/libraries/PbHeader.sol\":1032:1035  buf */\n      dup4\n        /* \"contracts/libraries/PbHeader.sol\":1032:1043  buf.hasMore */\n      tag_41\n        /* \"contracts/libraries/PbHeader.sol\":1032:1045  buf.hasMore() */\n      jump\t// in\n    tag_61:\n        /* \"contracts/libraries/PbHeader.sol\":1025:2676  while (buf.hasMore()) {... */\n      iszero\n      tag_39\n      jumpi\n        /* \"contracts/libraries/PbHeader.sol\":1075:1087  buf.decKey() */\n      tag_62\n        /* \"contracts/libraries/PbHeader.sol\":1075:1078  buf */\n      dup4\n        /* \"contracts/libraries/PbHeader.sol\":1075:1085  buf.decKey */\n      tag_43\n        /* \"contracts/libraries/PbHeader.sol\":1075:1087  buf.decKey() */\n      jump\t// in\n    tag_62:\n        /* \"contracts/libraries/PbHeader.sol\":1061:1087  (tag, wire) = buf.decKey() */\n      swap1\n      swap3\n      pop\n      swap1\n      pop\n        /* \"contracts/libraries/PbHeader.sol\":1167:1170  tag */\n      dup2\n        /* \"contracts/libraries/PbHeader.sol\":1174:1175  1 */\n      0x01\n        /* \"contracts/libraries/PbHeader.sol\":1167:1175  tag == 1 */\n      eq\n        /* \"contracts/libraries/PbHeader.sol\":1163:2637  if (tag == 1) {... */\n      iszero\n      tag_65\n      jumpi\n        /* \"contracts/libraries/PbHeader.sol\":1207:1233  decVersion(buf.decBytes()) */\n      tag_66\n        /* \"contracts/libraries/PbHeader.sol\":1218:1232  buf.decBytes() */\n      tag_24\n        /* \"contracts/libraries/PbHeader.sol\":1218:1221  buf */\n      dup5\n        /* \"contracts/libraries/PbHeader.sol\":1218:1230  buf.decBytes */\n      tag_68\n        /* \"contracts/libraries/PbHeader.sol\":1218:1232  buf.decBytes() */\n      jump\t// in\n        /* \"contracts/libraries/PbHeader.sol\":1207:1233  decVersion(buf.decBytes()) */\n    tag_66:\n        /* \"contracts/libraries/PbHeader.sol\":1195:1233  m.version = decVersion(buf.decBytes()) */\n      dup5\n      mstore\n        /* \"contracts/libraries/PbHeader.sol\":1163:2637  if (tag == 1) {... */\n      jump(tag_111)\n    tag_65:\n        /* \"contracts/libraries/PbHeader.sol\":1270:1273  tag */\n      dup2\n        /* \"contracts/libraries/PbHeader.sol\":1277:1278  2 */\n      0x02\n        /* \"contracts/libraries/PbHeader.sol\":1270:1278  tag == 2 */\n      eq\n        /* \"contracts/libraries/PbHeader.sol\":1266:2637  if (tag == 2) {... */\n      iszero\n      tag_70\n      jumpi\n        /* \"contracts/libraries/PbHeader.sol\":1317:1331  buf.decBytes() */\n      tag_71\n        /* \"contracts/libraries/PbHeader.sol\":1317:1320  buf */\n      dup4\n        /* \"contracts/libraries/PbHeader.sol\":1317:1329  buf.decBytes */\n      tag_68\n        /* \"contracts/libraries/PbHeader.sol\":1317:1331  buf.decBytes() */\n      jump\t// in\n    tag_71:\n        /* \"contracts/libraries/PbHeader.sol\":1298:1307  m.chainId */\n      0x20\n      dup6\n      add\n        /* \"contracts/libraries/PbHeader.sol\":1298:1332  m.chainId = string(buf.decBytes()) */\n      mstore\n        /* \"contracts/libraries/PbHeader.sol\":1266:2637  if (tag == 2) {... */\n      jump(tag_111)\n    tag_70:\n        /* \"contracts/libraries/PbHeader.sol\":1369:1372  tag */\n      dup2\n        /* \"contracts/libraries/PbHeader.sol\":1376:1377  3 */\n      0x03\n        /* \"contracts/libraries/PbHeader.sol\":1369:1377  tag == 3 */\n      eq\n        /* \"contracts/libraries/PbHeader.sol\":1365:2637  if (tag == 3) {... */\n      iszero\n      tag_73\n      jumpi\n        /* \"contracts/libraries/PbHeader.sol\":1415:1430  buf.decVarint() */\n      tag_74\n        /* \"contracts/libraries/PbHeader.sol\":1415:1418  buf */\n      dup4\n        /* \"contracts/libraries/PbHeader.sol\":1415:1428  buf.decVarint */\n      tag_48\n        /* \"contracts/libraries/PbHeader.sol\":1415:1430  buf.decVarint() */\n      jump\t// in\n    tag_74:\n        /* \"contracts/libraries/PbHeader.sol\":1397:1431  m.height = uint64(buf.decVarint()) */\n      0xffffffffffffffff\n      and\n        /* \"contracts/libraries/PbHeader.sol\":1397:1405  m.height */\n      0x40\n      dup6\n      add\n        /* \"contracts/libraries/PbHeader.sol\":1397:1431  m.height = uint64(buf.decVarint()) */\n      mstore\n        /* \"contracts/libraries/PbHeader.sol\":1365:2637  if (tag == 3) {... */\n      jump(tag_111)\n    tag_73:\n        /* \"contracts/libraries/PbHeader.sol\":1468:1471  tag */\n      dup2\n        /* \"contracts/libraries/PbHeader.sol\":1475:1476  4 */\n      0x04\n        /* \"contracts/libraries/PbHeader.sol\":1468:1476  tag == 4 */\n      eq\n        /* \"contracts/libraries/PbHeader.sol\":1464:2637  if (tag == 4) {... */\n      iszero\n      tag_76\n      jumpi\n        /* \"contracts/libraries/PbHeader.sol\":1505:1533  decTimestamp(buf.decBytes()) */\n      tag_77\n        /* \"contracts/libraries/PbHeader.sol\":1518:1532  buf.decBytes() */\n      tag_8\n        /* \"contracts/libraries/PbHeader.sol\":1518:1521  buf */\n      dup5\n        /* \"contracts/libraries/PbHeader.sol\":1518:1530  buf.decBytes */\n      tag_68\n        /* \"contracts/libraries/PbHeader.sol\":1518:1532  buf.decBytes() */\n      jump\t// in\n        /* \"contracts/libraries/PbHeader.sol\":1505:1533  decTimestamp(buf.decBytes()) */\n    tag_77:\n        /* \"contracts/libraries/PbHeader.sol\":1496:1502  m.time */\n      0x60\n      dup6\n      add\n        /* \"contracts/libraries/PbHeader.sol\":1496:1533  m.time = decTimestamp(buf.decBytes()) */\n      mstore\n        /* \"contracts/libraries/PbHeader.sol\":1464:2637  if (tag == 4) {... */\n      jump(tag_111)\n    tag_76:\n        /* \"contracts/libraries/PbHeader.sol\":1570:1573  tag */\n      dup2\n        /* \"contracts/libraries/PbHeader.sol\":1577:1578  5 */\n      0x05\n        /* \"contracts/libraries/PbHeader.sol\":1570:1578  tag == 5 */\n      eq\n        /* \"contracts/libraries/PbHeader.sol\":1566:2637  if (tag == 5) {... */\n      iszero\n      tag_80\n      jumpi\n        /* \"contracts/libraries/PbHeader.sol\":1614:1640  decBlockID(buf.decBytes()) */\n      tag_81\n        /* \"contracts/libraries/PbHeader.sol\":1625:1639  buf.decBytes() */\n      tag_29\n        /* \"contracts/libraries/PbHeader.sol\":1625:1628  buf */\n      dup5\n        /* \"contracts/libraries/PbHeader.sol\":1625:1637  buf.decBytes */\n      tag_68\n        /* \"contracts/libraries/PbHeader.sol\":1625:1639  buf.decBytes() */\n      jump\t// in\n        /* \"contracts/libraries/PbHeader.sol\":1614:1640  decBlockID(buf.decBytes()) */\n    tag_81:\n        /* \"contracts/libraries/PbHeader.sol\":1598:1611  m.lastBlockId */\n      0x80\n      dup6\n      add\n        /* \"contracts/libraries/PbHeader.sol\":1598:1640  m.lastBlockId = decBlockID(buf.decBytes()) */\n      mstore\n        /* \"contracts/libraries/PbHeader.sol\":1566:2637  if (tag == 5) {... */\n      jump(tag_111)\n    tag_80:\n        /* \"contracts/libraries/PbHeader.sol\":1677:1680  tag */\n      dup2\n        /* \"contracts/libraries/PbHeader.sol\":1684:1685  6 */\n      0x06\n        /* \"contracts/libraries/PbHeader.sol\":1677:1685  tag == 6 */\n      eq\n        /* \"contracts/libraries/PbHeader.sol\":1673:2637  if (tag == 6) {... */\n      iszero\n      tag_84\n      jumpi\n        /* \"contracts/libraries/PbHeader.sol\":1730:1744  buf.decBytes() */\n      tag_85\n        /* \"contracts/libraries/PbHeader.sol\":1730:1733  buf */\n      dup4\n        /* \"contracts/libraries/PbHeader.sol\":1730:1742  buf.decBytes */\n      tag_68\n        /* \"contracts/libraries/PbHeader.sol\":1730:1744  buf.decBytes() */\n      jump\t// in\n    tag_85:\n        /* \"contracts/libraries/PbHeader.sol\":1705:1721  m.lastCommitHash */\n      0xa0\n      dup6\n      add\n        /* \"contracts/libraries/PbHeader.sol\":1705:1745  m.lastCommitHash = bytes(buf.decBytes()) */\n      mstore\n        /* \"contracts/libraries/PbHeader.sol\":1673:2637  if (tag == 6) {... */\n      jump(tag_111)\n    tag_84:\n        /* \"contracts/libraries/PbHeader.sol\":1782:1785  tag */\n      dup2\n        /* \"contracts/libraries/PbHeader.sol\":1789:1790  7 */\n      0x07\n        /* \"contracts/libraries/PbHeader.sol\":1782:1790  tag == 7 */\n      eq\n        /* \"contracts/libraries/PbHeader.sol\":1778:2637  if (tag == 7) {... */\n      iszero\n      tag_87\n      jumpi\n        /* \"contracts/libraries/PbHeader.sol\":1829:1843  buf.decBytes() */\n      tag_88\n        /* \"contracts/libraries/PbHeader.sol\":1829:1832  buf */\n      dup4\n        /* \"contracts/libraries/PbHeader.sol\":1829:1841  buf.decBytes */\n      tag_68\n        /* \"contracts/libraries/PbHeader.sol\":1829:1843  buf.decBytes() */\n      jump\t// in\n    tag_88:\n        /* \"contracts/libraries/PbHeader.sol\":1810:1820  m.dataHash */\n      0xc0\n      dup6\n      add\n        /* \"contracts/libraries/PbHeader.sol\":1810:1844  m.dataHash = bytes(buf.decBytes()) */\n      mstore\n        /* \"contracts/libraries/PbHeader.sol\":1778:2637  if (tag == 7) {... */\n      jump(tag_111)\n    tag_87:\n        /* \"contracts/libraries/PbHeader.sol\":1881:1884  tag */\n      dup2\n        /* \"contracts/libraries/PbHeader.sol\":1888:1889  8 */\n      0x08\n        /* \"contracts/libraries/PbHeader.sol\":1881:1889  tag == 8 */\n      eq\n        /* \"contracts/libraries/PbHeader.sol\":1877:2637  if (tag == 8) {... */\n      iszero\n      tag_90\n      jumpi\n        /* \"contracts/libraries/PbHeader.sol\":1934:1948  buf.decBytes() */\n      tag_91\n        /* \"contracts/libraries/PbHeader.sol\":1934:1937  buf */\n      dup4\n        /* \"contracts/libraries/PbHeader.sol\":1934:1946  buf.decBytes */\n      tag_68\n        /* \"contracts/libraries/PbHeader.sol\":1934:1948  buf.decBytes() */\n      jump\t// in\n    tag_91:\n        /* \"contracts/libraries/PbHeader.sol\":1909:1925  m.validatorsHash */\n      0xe0\n      dup6\n      add\n        /* \"contracts/libraries/PbHeader.sol\":1909:1949  m.validatorsHash = bytes(buf.decBytes()) */\n      mstore\n        /* \"contracts/libraries/PbHeader.sol\":1877:2637  if (tag == 8) {... */\n      jump(tag_111)\n    tag_90:\n        /* \"contracts/libraries/PbHeader.sol\":1986:1989  tag */\n      dup2\n        /* \"contracts/libraries/PbHeader.sol\":1993:1994  9 */\n      0x09\n        /* \"contracts/libraries/PbHeader.sol\":1986:1994  tag == 9 */\n      eq\n        /* \"contracts/libraries/PbHeader.sol\":1982:2637  if (tag == 9) {... */\n      iszero\n      tag_93\n      jumpi\n        /* \"contracts/libraries/PbHeader.sol\":2043:2057  buf.decBytes() */\n      tag_94\n        /* \"contracts/libraries/PbHeader.sol\":2043:2046  buf */\n      dup4\n        /* \"contracts/libraries/PbHeader.sol\":2043:2055  buf.decBytes */\n      tag_68\n        /* \"contracts/libraries/PbHeader.sol\":2043:2057  buf.decBytes() */\n      jump\t// in\n    tag_94:\n        /* \"contracts/libraries/PbHeader.sol\":2014:2034  m.nextValidatorsHash */\n      0x0100\n      dup6\n      add\n        /* \"contracts/libraries/PbHeader.sol\":2014:2058  m.nextValidatorsHash = bytes(buf.decBytes()) */\n      mstore\n        /* \"contracts/libraries/PbHeader.sol\":1982:2637  if (tag == 9) {... */\n      jump(tag_111)\n    tag_93:\n        /* \"contracts/libraries/PbHeader.sol\":2095:2098  tag */\n      dup2\n        /* \"contracts/libraries/PbHeader.sol\":2102:2104  10 */\n      0x0a\n        /* \"contracts/libraries/PbHeader.sol\":2095:2104  tag == 10 */\n      eq\n        /* \"contracts/libraries/PbHeader.sol\":2091:2637  if (tag == 10) {... */\n      iszero\n      tag_96\n      jumpi\n        /* \"contracts/libraries/PbHeader.sol\":2148:2162  buf.decBytes() */\n      tag_97\n        /* \"contracts/libraries/PbHeader.sol\":2148:2151  buf */\n      dup4\n        /* \"contracts/libraries/PbHeader.sol\":2148:2160  buf.decBytes */\n      tag_68\n        /* \"contracts/libraries/PbHeader.sol\":2148:2162  buf.decBytes() */\n      jump\t// in\n    tag_97:\n        /* \"contracts/libraries/PbHeader.sol\":2124:2139  m.consensusHash */\n      0x0120\n      dup6\n      add\n        /* \"contracts/libraries/PbHeader.sol\":2124:2163  m.consensusHash = bytes(buf.decBytes()) */\n      mstore\n        /* \"contracts/libraries/PbHeader.sol\":2091:2637  if (tag == 10) {... */\n      jump(tag_111)\n    tag_96:\n        /* \"contracts/libraries/PbHeader.sol\":2200:2203  tag */\n      dup2\n        /* \"contracts/libraries/PbHeader.sol\":2207:2209  11 */\n      0x0b\n        /* \"contracts/libraries/PbHeader.sol\":2200:2209  tag == 11 */\n      eq\n        /* \"contracts/libraries/PbHeader.sol\":2196:2637  if (tag == 11) {... */\n      iszero\n      tag_99\n      jumpi\n        /* \"contracts/libraries/PbHeader.sol\":2247:2261  buf.decBytes() */\n      tag_100\n        /* \"contracts/libraries/PbHeader.sol\":2247:2250  buf */\n      dup4\n        /* \"contracts/libraries/PbHeader.sol\":2247:2259  buf.decBytes */\n      tag_68\n        /* \"contracts/libraries/PbHeader.sol\":2247:2261  buf.decBytes() */\n      jump\t// in\n    tag_100:\n        /* \"contracts/libraries/PbHeader.sol\":2229:2238  m.appHash */\n      0x0140\n      dup6\n      add\n        /* \"contracts/libraries/PbHeader.sol\":2229:2262  m.appHash = bytes(buf.decBytes()) */\n      mstore\n        /* \"contracts/libraries/PbHeader.sol\":2196:2637  if (tag == 11) {... */\n      jump(tag_111)\n    tag_99:\n        /* \"contracts/libraries/PbHeader.sol\":2299:2302  tag */\n      dup2\n        /* \"contracts/libraries/PbHeader.sol\":2306:2308  12 */\n      0x0c\n        /* \"contracts/libraries/PbHeader.sol\":2299:2308  tag == 12 */\n      eq\n        /* \"contracts/libraries/PbHeader.sol\":2295:2637  if (tag == 12) {... */\n      iszero\n      tag_102\n      jumpi\n        /* \"contracts/libraries/PbHeader.sol\":2354:2368  buf.decBytes() */\n      tag_103\n        /* \"contracts/libraries/PbHeader.sol\":2354:2357  buf */\n      dup4\n        /* \"contracts/libraries/PbHeader.sol\":2354:2366  buf.decBytes */\n      tag_68\n        /* \"contracts/libraries/PbHeader.sol\":2354:2368  buf.decBytes() */\n      jump\t// in\n    tag_103:\n        /* \"contracts/libraries/PbHeader.sol\":2328:2345  m.lastResultsHash */\n      0x0160\n      dup6\n      add\n        /* \"contracts/libraries/PbHeader.sol\":2328:2369  m.lastResultsHash = bytes(buf.decBytes()) */\n      mstore\n        /* \"contracts/libraries/PbHeader.sol\":2295:2637  if (tag == 12) {... */\n      jump(tag_111)\n    tag_102:\n        /* \"contracts/libraries/PbHeader.sol\":2406:2409  tag */\n      dup2\n        /* \"contracts/libraries/PbHeader.sol\":2413:2415  13 */\n      0x0d\n        /* \"contracts/libraries/PbHeader.sol\":2406:2415  tag == 13 */\n      eq\n        /* \"contracts/libraries/PbHeader.sol\":2402:2637  if (tag == 13) {... */\n      iszero\n      tag_105\n      jumpi\n        /* \"contracts/libraries/PbHeader.sol\":2458:2472  buf.decBytes() */\n      tag_106\n        /* \"contracts/libraries/PbHeader.sol\":2458:2461  buf */\n      dup4\n        /* \"contracts/libraries/PbHeader.sol\":2458:2470  buf.decBytes */\n      tag_68\n        /* \"contracts/libraries/PbHeader.sol\":2458:2472  buf.decBytes() */\n      jump\t// in\n    tag_106:\n        /* \"contracts/libraries/PbHeader.sol\":2435:2449  m.evidenceHash */\n      0x0180\n      dup6\n      add\n        /* \"contracts/libraries/PbHeader.sol\":2435:2473  m.evidenceHash = bytes(buf.decBytes()) */\n      mstore\n        /* \"contracts/libraries/PbHeader.sol\":2402:2637  if (tag == 13) {... */\n      jump(tag_111)\n    tag_105:\n        /* \"contracts/libraries/PbHeader.sol\":2510:2513  tag */\n      dup2\n        /* \"contracts/libraries/PbHeader.sol\":2517:2519  14 */\n      0x0e\n        /* \"contracts/libraries/PbHeader.sol\":2510:2519  tag == 14 */\n      eq\n        /* \"contracts/libraries/PbHeader.sol\":2506:2637  if (tag == 14) {... */\n      iszero\n      tag_108\n      jumpi\n        /* \"contracts/libraries/PbHeader.sol\":2565:2579  buf.decBytes() */\n      tag_109\n        /* \"contracts/libraries/PbHeader.sol\":2565:2568  buf */\n      dup4\n        /* \"contracts/libraries/PbHeader.sol\":2565:2577  buf.decBytes */\n      tag_68\n        /* \"contracts/libraries/PbHeader.sol\":2565:2579  buf.decBytes() */\n      jump\t// in\n    tag_109:\n        /* \"contracts/libraries/PbHeader.sol\":2539:2556  m.proposerAddress */\n      0x01a0\n      dup6\n      add\n        /* \"contracts/libraries/PbHeader.sol\":2539:2580  m.proposerAddress = bytes(buf.decBytes()) */\n      mstore\n        /* \"contracts/libraries/PbHeader.sol\":2506:2637  if (tag == 14) {... */\n      jump(tag_111)\n    tag_108:\n        /* \"contracts/libraries/PbHeader.sol\":2615:2634  buf.skipValue(wire) */\n      tag_111\n        /* \"contracts/libraries/PbHeader.sol\":2615:2618  buf */\n      dup4\n        /* \"contracts/libraries/PbHeader.sol\":2629:2633  wire */\n      dup3\n        /* \"contracts/libraries/PbHeader.sol\":2615:2628  buf.skipValue */\n      tag_54\n        /* \"contracts/libraries/PbHeader.sol\":2615:2634  buf.skipValue(wire) */\n      jump\t// in\n    tag_111:\n        /* \"contracts/libraries/PbHeader.sol\":1025:2676  while (buf.hasMore()) {... */\n      jump(tag_59)\n        /* \"contracts/libraries/PbHeader.sol\":4325:4919  function decPartSetHeader(bytes memory raw) public pure returns (PartSetHeader memory m) {... */\n    tag_20:\n      0x40\n      dup1\n      mload\n      dup1\n      dup3\n      add\n      swap1\n      swap2\n      mstore\n      0x00\n      dup2\n      mstore\n      0x60\n      0x20\n      dup3\n      add\n      mstore\n        /* \"contracts/libraries/PbHeader.sol\":4424:4444  Pb.Buffer memory buf */\n      0x00\n        /* \"contracts/libraries/PbHeader.sol\":4447:4464  Pb.fromBytes(raw) */\n      tag_115\n        /* \"contracts/libraries/PbHeader.sol\":4460:4463  raw */\n      dup4\n      0x40\n      dup1\n      mload\n      dup1\n      dup3\n      add\n      swap1\n      swap2\n      mstore\n      0x00\n      dup2\n      mstore\n      0x20\n      dup2\n      add\n        /* \"contracts/libraries/Pb.sol\":474:485  buf.b = raw */\n      swap2\n      swap1\n      swap2\n      mstore\n      swap1\n        /* \"contracts/libraries/Pb.sol\":385:513  function fromBytes(bytes memory raw) internal pure returns (Buffer memory buf) {... */\n      jump\n        /* \"contracts/libraries/PbHeader.sol\":4447:4464  Pb.fromBytes(raw) */\n    tag_115:\n        /* \"contracts/libraries/PbHeader.sol\":4424:4464  Pb.Buffer memory buf = Pb.fromBytes(raw) */\n      swap1\n      pop\n        /* \"contracts/libraries/PbHeader.sol\":4475:4483  uint tag */\n      0x00\n        /* \"contracts/libraries/PbHeader.sol\":4493:4509  Pb.WireType wire */\n      dup1\n        /* \"contracts/libraries/PbHeader.sol\":4519:4913  while (buf.hasMore()) {... */\n    tag_116:\n        /* \"contracts/libraries/PbHeader.sol\":4526:4539  buf.hasMore() */\n      tag_118\n        /* \"contracts/libraries/PbHeader.sol\":4526:4529  buf */\n      dup4\n        /* \"contracts/libraries/PbHeader.sol\":4526:4537  buf.hasMore */\n      tag_41\n        /* \"contracts/libraries/PbHeader.sol\":4526:4539  buf.hasMore() */\n      jump\t// in\n    tag_118:\n        /* \"contracts/libraries/PbHeader.sol\":4519:4913  while (buf.hasMore()) {... */\n      iszero\n      tag_39\n      jumpi\n        /* \"contracts/libraries/PbHeader.sol\":4569:4581  buf.decKey() */\n      tag_119\n        /* \"contracts/libraries/PbHeader.sol\":4569:4572  buf */\n      dup4\n        /* \"contracts/libraries/PbHeader.sol\":4569:4579  buf.decKey */\n      tag_43\n        /* \"contracts/libraries/PbHeader.sol\":4569:4581  buf.decKey() */\n      jump\t// in\n    tag_119:\n        /* \"contracts/libraries/PbHeader.sol\":4555:4581  (tag, wire) = buf.decKey() */\n      swap1\n      swap3\n      pop\n      swap1\n      pop\n        /* \"contracts/libraries/PbHeader.sol\":4661:4664  tag */\n      dup2\n        /* \"contracts/libraries/PbHeader.sol\":4668:4669  1 */\n      0x01\n        /* \"contracts/libraries/PbHeader.sol\":4661:4669  tag == 1 */\n      eq\n        /* \"contracts/libraries/PbHeader.sol\":4657:4874  if (tag == 1) {... */\n      iszero\n      tag_122\n      jumpi\n        /* \"contracts/libraries/PbHeader.sol\":4706:4721  buf.decVarint() */\n      tag_123\n        /* \"contracts/libraries/PbHeader.sol\":4706:4709  buf */\n      dup4\n        /* \"contracts/libraries/PbHeader.sol\":4706:4719  buf.decVarint */\n      tag_48\n        /* \"contracts/libraries/PbHeader.sol\":4706:4721  buf.decVarint() */\n      jump\t// in\n    tag_123:\n        /* \"contracts/libraries/PbHeader.sol\":4689:4722  m.total = uint32(buf.decVarint()) */\n      0xffffffff\n      and\n      dup5\n      mstore\n        /* \"contracts/libraries/PbHeader.sol\":4657:4874  if (tag == 1) {... */\n      jump(tag_128)\n    tag_122:\n        /* \"contracts/libraries/PbHeader.sol\":4759:4762  tag */\n      dup2\n        /* \"contracts/libraries/PbHeader.sol\":4766:4767  2 */\n      0x02\n        /* \"contracts/libraries/PbHeader.sol\":4759:4767  tag == 2 */\n      eq\n        /* \"contracts/libraries/PbHeader.sol\":4755:4874  if (tag == 2) {... */\n      iszero\n      tag_125\n      jumpi\n        /* \"contracts/libraries/PbHeader.sol\":4802:4816  buf.decBytes() */\n      tag_126\n        /* \"contracts/libraries/PbHeader.sol\":4802:4805  buf */\n      dup4\n        /* \"contracts/libraries/PbHeader.sol\":4802:4814  buf.decBytes */\n      tag_68\n        /* \"contracts/libraries/PbHeader.sol\":4802:4816  buf.decBytes() */\n      jump\t// in\n    tag_126:\n        /* \"contracts/libraries/PbHeader.sol\":4787:4793  m.hash */\n      0x20\n      dup6\n      add\n        /* \"contracts/libraries/PbHeader.sol\":4787:4817  m.hash = bytes(buf.decBytes()) */\n      mstore\n        /* \"contracts/libraries/PbHeader.sol\":4755:4874  if (tag == 2) {... */\n      jump(tag_128)\n    tag_125:\n        /* \"contracts/libraries/PbHeader.sol\":4852:4871  buf.skipValue(wire) */\n      tag_128\n        /* \"contracts/libraries/PbHeader.sol\":4852:4855  buf */\n      dup4\n        /* \"contracts/libraries/PbHeader.sol\":4866:4870  wire */\n      dup3\n        /* \"contracts/libraries/PbHeader.sol\":4852:4865  buf.skipValue */\n      tag_54\n        /* \"contracts/libraries/PbHeader.sol\":4852:4871  buf.skipValue(wire) */\n      jump\t// in\n    tag_128:\n        /* \"contracts/libraries/PbHeader.sol\":4519:4913  while (buf.hasMore()) {... */\n      jump(tag_116)\n        /* \"contracts/libraries/PbHeader.sol\":2826:3409  function decVersion(bytes memory raw) public pure returns (Version memory m) {... */\n    tag_25:\n      0x40\n      dup1\n      mload\n      dup1\n      dup3\n      add\n      dup3\n      mstore\n      0x00\n      dup1\n      dup3\n      mstore\n      0x20\n      dup1\n      dup4\n      add\n      dup3\n      swap1\n      mstore\n      dup4\n      mload\n      dup1\n      dup6\n      add\n      swap1\n      swap5\n      mstore\n      dup2\n      dup5\n      mstore\n      dup4\n      add\n        /* \"contracts/libraries/Pb.sol\":474:485  buf.b = raw */\n      dup5\n      swap1\n      mstore\n      swap1\n      swap2\n      swap1\n      dup1\n        /* \"contracts/libraries/PbHeader.sol\":3008:3403  while (buf.hasMore()) {... */\n    tag_133:\n        /* \"contracts/libraries/PbHeader.sol\":3015:3028  buf.hasMore() */\n      tag_135\n        /* \"contracts/libraries/PbHeader.sol\":3015:3018  buf */\n      dup4\n        /* \"contracts/libraries/PbHeader.sol\":3015:3026  buf.hasMore */\n      tag_41\n        /* \"contracts/libraries/PbHeader.sol\":3015:3028  buf.hasMore() */\n      jump\t// in\n    tag_135:\n        /* \"contracts/libraries/PbHeader.sol\":3008:3403  while (buf.hasMore()) {... */\n      iszero\n      tag_39\n      jumpi\n        /* \"contracts/libraries/PbHeader.sol\":3058:3070  buf.decKey() */\n      tag_136\n        /* \"contracts/libraries/PbHeader.sol\":3058:3061  buf */\n      dup4\n        /* \"contracts/libraries/PbHeader.sol\":3058:3068  buf.decKey */\n      tag_43\n        /* \"contracts/libraries/PbHeader.sol\":3058:3070  buf.decKey() */\n      jump\t// in\n    tag_136:\n        /* \"contracts/libraries/PbHeader.sol\":3044:3070  (tag, wire) = buf.decKey() */\n      swap1\n      swap3\n      pop\n      swap1\n      pop\n        /* \"contracts/libraries/PbHeader.sol\":3150:3153  tag */\n      dup2\n        /* \"contracts/libraries/PbHeader.sol\":3157:3158  1 */\n      0x01\n        /* \"contracts/libraries/PbHeader.sol\":3150:3158  tag == 1 */\n      eq\n        /* \"contracts/libraries/PbHeader.sol\":3146:3364  if (tag == 1) {... */\n      iszero\n      tag_139\n      jumpi\n        /* \"contracts/libraries/PbHeader.sol\":3195:3210  buf.decVarint() */\n      tag_140\n        /* \"contracts/libraries/PbHeader.sol\":3195:3198  buf */\n      dup4\n        /* \"contracts/libraries/PbHeader.sol\":3195:3208  buf.decVarint */\n      tag_48\n        /* \"contracts/libraries/PbHeader.sol\":3195:3210  buf.decVarint() */\n      jump\t// in\n    tag_140:\n        /* \"contracts/libraries/PbHeader.sol\":3178:3211  m.block = uint64(buf.decVarint()) */\n      0xffffffffffffffff\n      and\n      dup5\n      mstore\n        /* \"contracts/libraries/PbHeader.sol\":3146:3364  if (tag == 1) {... */\n      jump(tag_145)\n    tag_139:\n        /* \"contracts/libraries/PbHeader.sol\":3248:3251  tag */\n      dup2\n        /* \"contracts/libraries/PbHeader.sol\":3255:3256  2 */\n      0x02\n        /* \"contracts/libraries/PbHeader.sol\":3248:3256  tag == 2 */\n      eq\n        /* \"contracts/libraries/PbHeader.sol\":3244:3364  if (tag == 2) {... */\n      iszero\n      tag_142\n      jumpi\n        /* \"contracts/libraries/PbHeader.sol\":3291:3306  buf.decVarint() */\n      tag_143\n        /* \"contracts/libraries/PbHeader.sol\":3291:3294  buf */\n      dup4\n        /* \"contracts/libraries/PbHeader.sol\":3291:3304  buf.decVarint */\n      tag_48\n        /* \"contracts/libraries/PbHeader.sol\":3291:3306  buf.decVarint() */\n      jump\t// in\n    tag_143:\n        /* \"contracts/libraries/PbHeader.sol\":3276:3307  m.app = uint64(buf.decVarint()) */\n      0xffffffffffffffff\n      and\n        /* \"contracts/libraries/PbHeader.sol\":3276:3281  m.app */\n      0x20\n      dup6\n      add\n        /* \"contracts/libraries/PbHeader.sol\":3276:3307  m.app = uint64(buf.decVarint()) */\n      mstore\n        /* \"contracts/libraries/PbHeader.sol\":3244:3364  if (tag == 2) {... */\n      jump(tag_145)\n    tag_142:\n        /* \"contracts/libraries/PbHeader.sol\":3342:3361  buf.skipValue(wire) */\n      tag_145\n        /* \"contracts/libraries/PbHeader.sol\":3342:3345  buf */\n      dup4\n        /* \"contracts/libraries/PbHeader.sol\":3356:3360  wire */\n      dup3\n        /* \"contracts/libraries/PbHeader.sol\":3342:3355  buf.skipValue */\n      tag_54\n        /* \"contracts/libraries/PbHeader.sol\":3342:3361  buf.skipValue(wire) */\n      jump\t// in\n    tag_145:\n        /* \"contracts/libraries/PbHeader.sol\":3008:3403  while (buf.hasMore()) {... */\n      jump(tag_133)\n        /* \"contracts/libraries/PbHeader.sol\":3569:4168  function decBlockID(bytes memory raw) public pure returns (BlockID memory m) {... */\n    tag_30:\n        /* \"contracts/libraries/PbHeader.sol\":3628:3644  BlockID memory m */\n      tag_146\n      tag_147\n      jump\t// in\n    tag_146:\n      0x40\n      dup1\n      mload\n      dup1\n      dup3\n      add\n      swap1\n      swap2\n      mstore\n      0x00\n      dup1\n      dup3\n      mstore\n      0x20\n      dup3\n      add\n        /* \"contracts/libraries/Pb.sol\":474:485  buf.b = raw */\n      dup5\n      swap1\n      mstore\n      dup1\n        /* \"contracts/libraries/PbHeader.sol\":3751:4162  while (buf.hasMore()) {... */\n    tag_150:\n        /* \"contracts/libraries/PbHeader.sol\":3758:3771  buf.hasMore() */\n      tag_152\n        /* \"contracts/libraries/PbHeader.sol\":3758:3761  buf */\n      dup4\n        /* \"contracts/libraries/PbHeader.sol\":3758:3769  buf.hasMore */\n      tag_41\n        /* \"contracts/libraries/PbHeader.sol\":3758:3771  buf.hasMore() */\n      jump\t// in\n    tag_152:\n        /* \"contracts/libraries/PbHeader.sol\":3751:4162  while (buf.hasMore()) {... */\n      iszero\n      tag_39\n      jumpi\n        /* \"contracts/libraries/PbHeader.sol\":3801:3813  buf.decKey() */\n      tag_153\n        /* \"contracts/libraries/PbHeader.sol\":3801:3804  buf */\n      dup4\n        /* \"contracts/libraries/PbHeader.sol\":3801:3811  buf.decKey */\n      tag_43\n        /* \"contracts/libraries/PbHeader.sol\":3801:3813  buf.decKey() */\n      jump\t// in\n    tag_153:\n        /* \"contracts/libraries/PbHeader.sol\":3787:3813  (tag, wire) = buf.decKey() */\n      swap1\n      swap3\n      pop\n      swap1\n      pop\n        /* \"contracts/libraries/PbHeader.sol\":3893:3896  tag */\n      dup2\n        /* \"contracts/libraries/PbHeader.sol\":3900:3901  1 */\n      0x01\n        /* \"contracts/libraries/PbHeader.sol\":3893:3901  tag == 1 */\n      eq\n        /* \"contracts/libraries/PbHeader.sol\":3889:4123  if (tag == 1) {... */\n      iszero\n      tag_156\n      jumpi\n        /* \"contracts/libraries/PbHeader.sol\":3936:3950  buf.decBytes() */\n      tag_157\n        /* \"contracts/libraries/PbHeader.sol\":3936:3939  buf */\n      dup4\n        /* \"contracts/libraries/PbHeader.sol\":3936:3948  buf.decBytes */\n      tag_68\n        /* \"contracts/libraries/PbHeader.sol\":3936:3950  buf.decBytes() */\n      jump\t// in\n    tag_157:\n        /* \"contracts/libraries/PbHeader.sol\":3921:3951  m.hash = bytes(buf.decBytes()) */\n      dup5\n      mstore\n        /* \"contracts/libraries/PbHeader.sol\":3889:4123  if (tag == 1) {... */\n      jump(tag_163)\n    tag_156:\n        /* \"contracts/libraries/PbHeader.sol\":3988:3991  tag */\n      dup2\n        /* \"contracts/libraries/PbHeader.sol\":3995:3996  2 */\n      0x02\n        /* \"contracts/libraries/PbHeader.sol\":3988:3996  tag == 2 */\n      eq\n        /* \"contracts/libraries/PbHeader.sol\":3984:4123  if (tag == 2) {... */\n      iszero\n      tag_159\n      jumpi\n        /* \"contracts/libraries/PbHeader.sol\":4034:4066  decPartSetHeader(buf.decBytes()) */\n      tag_160\n        /* \"contracts/libraries/PbHeader.sol\":4051:4065  buf.decBytes() */\n      tag_19\n        /* \"contracts/libraries/PbHeader.sol\":4051:4054  buf */\n      dup5\n        /* \"contracts/libraries/PbHeader.sol\":4051:4063  buf.decBytes */\n      tag_68\n        /* \"contracts/libraries/PbHeader.sol\":4051:4065  buf.decBytes() */\n      jump\t// in\n        /* \"contracts/libraries/PbHeader.sol\":4034:4066  decPartSetHeader(buf.decBytes()) */\n    tag_160:\n        /* \"contracts/libraries/PbHeader.sol\":4016:4031  m.partSetHeader */\n      0x20\n      dup6\n      add\n        /* \"contracts/libraries/PbHeader.sol\":4016:4066  m.partSetHeader = decPartSetHeader(buf.decBytes()) */\n      mstore\n        /* \"contracts/libraries/PbHeader.sol\":3984:4123  if (tag == 2) {... */\n      jump(tag_163)\n    tag_159:\n        /* \"contracts/libraries/PbHeader.sol\":4101:4120  buf.skipValue(wire) */\n      tag_163\n        /* \"contracts/libraries/PbHeader.sol\":4101:4104  buf */\n      dup4\n        /* \"contracts/libraries/PbHeader.sol\":4115:4119  wire */\n      dup3\n        /* \"contracts/libraries/PbHeader.sol\":4101:4114  buf.skipValue */\n      tag_54\n        /* \"contracts/libraries/PbHeader.sol\":4101:4120  buf.skipValue(wire) */\n      jump\t// in\n    tag_163:\n        /* \"contracts/libraries/PbHeader.sol\":3751:4162  while (buf.hasMore()) {... */\n      jump(tag_150)\n        /* \"contracts/libraries/Pb.sol\":557:668  function hasMore(Buffer memory buf) internal pure returns (bool) {... */\n    tag_41:\n        /* \"contracts/libraries/Pb.sol\":649:654  buf.b */\n      0x20\n      dup2\n      add\n      mload\n        /* \"contracts/libraries/Pb.sol\":649:661  buf.b.length */\n      mload\n        /* \"contracts/libraries/Pb.sol\":639:646  buf.idx */\n      dup2\n      mload\n        /* \"contracts/libraries/Pb.sol\":639:661  buf.idx < buf.b.length */\n      lt\n        /* \"contracts/libraries/Pb.sol\":557:668  function hasMore(Buffer memory buf) internal pure returns (bool) {... */\n    tag_167:\n      swap2\n      swap1\n      pop\n      jump\t// out\n        /* \"contracts/libraries/Pb.sol\":722:906  function decKey(Buffer memory buf) internal pure returns (uint tag, WireType wiretype) {... */\n    tag_43:\n        /* \"contracts/libraries/Pb.sol\":780:788  uint tag */\n      0x00\n        /* \"contracts/libraries/Pb.sol\":790:807  WireType wiretype */\n      dup1\n        /* \"contracts/libraries/Pb.sol\":819:825  uint v */\n      0x00\n        /* \"contracts/libraries/Pb.sol\":828:842  decVarint(buf) */\n      tag_169\n        /* \"contracts/libraries/Pb.sol\":838:841  buf */\n      dup5\n        /* \"contracts/libraries/Pb.sol\":828:837  decVarint */\n      tag_48\n        /* \"contracts/libraries/Pb.sol\":828:842  decVarint(buf) */\n      jump\t// in\n    tag_169:\n        /* \"contracts/libraries/Pb.sol\":819:842  uint v = decVarint(buf) */\n      swap1\n      pop\n        /* \"contracts/libraries/Pb.sol\":858:863  v / 8 */\n      tag_170\n        /* \"contracts/libraries/Pb.sol\":862:863  8 */\n      0x08\n        /* \"contracts/libraries/Pb.sol\":819:842  uint v = decVarint(buf) */\n      dup3\n        /* \"contracts/libraries/Pb.sol\":858:863  v / 8 */\n      tag_171\n      jump\t// in\n    tag_170:\n        /* \"contracts/libraries/Pb.sol\":852:863  tag = v / 8 */\n      swap3\n      pop\n        /* \"contracts/libraries/Pb.sol\":893:894  v */\n      dup1\n        /* \"contracts/libraries/Pb.sol\":897:898  7 */\n      0x07\n        /* \"contracts/libraries/Pb.sol\":893:898  v & 7 */\n      and\n        /* \"contracts/libraries/Pb.sol\":884:899  WireType(v & 7) */\n      0x05\n      dup2\n      gt\n      iszero\n      tag_172\n      jumpi\n      mstore(0x00, shl(0xe0, 0x4e487b71))\n      mstore(0x04, 0x21)\n      revert(0x00, 0x24)\n    tag_172:\n        /* \"contracts/libraries/Pb.sol\":873:899  wiretype = WireType(v & 7) */\n      swap2\n      pop\n        /* \"contracts/libraries/Pb.sol\":722:906  function decKey(Buffer memory buf) internal pure returns (uint tag, WireType wiretype) {... */\n      pop\n      swap2\n      pop\n      swap2\n      jump\t// out\n        /* \"contracts/libraries/Pb.sol\":1655:2548  function decVarint(Buffer memory buf) internal pure returns (uint v) {... */\n    tag_48:\n        /* \"contracts/libraries/Pb.sol\":1837:1842  buf.b */\n      0x20\n      dup1\n      dup3\n      add\n      mload\n        /* \"contracts/libraries/Pb.sol\":1898:1905  buf.idx */\n      dup3\n      mload\n        /* \"contracts/libraries/Pb.sol\":1998:2017  add(add(bb, 32), v) */\n      dup2\n      add\n      swap1\n      swap2\n      add\n        /* \"contracts/libraries/Pb.sol\":1992:2018  mload(add(add(bb, 32), v)) */\n      mload\n        /* \"contracts/libraries/Pb.sol\":1716:1722  uint v */\n      0x00\n      swap2\n      dup3\n      dup1\n        /* \"contracts/libraries/Pb.sol\":2173:2493  for (uint i=0; i<10; ++i) {... */\n    tag_174:\n        /* \"contracts/libraries/Pb.sol\":2190:2192  10 */\n      0x0a\n        /* \"contracts/libraries/Pb.sol\":2188:2189  i */\n      dup2\n        /* \"contracts/libraries/Pb.sol\":2188:2192  i<10 */\n      lt\n        /* \"contracts/libraries/Pb.sol\":2173:2493  for (uint i=0; i<10; ++i) {... */\n      iszero\n      tag_175\n      jumpi\n        /* \"contracts/libraries/Pb.sol\":2245:2257  byte(i, tmp) */\n      dup4\n      dup2\n      byte\n      swap2\n      pop\n        /* \"contracts/libraries/Pb.sol\":2369:2374  i * 7 */\n      tag_177\n        /* \"contracts/libraries/Pb.sol\":2250:2251  i */\n      dup2\n        /* \"contracts/libraries/Pb.sol\":2373:2374  7 */\n      0x07\n        /* \"contracts/libraries/Pb.sol\":2369:2374  i * 7 */\n      tag_178\n      jump\t// in\n    tag_177:\n        /* \"contracts/libraries/Pb.sol\":2355:2356  b */\n      dup3\n        /* \"contracts/libraries/Pb.sol\":2359:2363  0x7F */\n      0x7f\n        /* \"contracts/libraries/Pb.sol\":2355:2363  b & 0x7F */\n      and\n        /* \"contracts/libraries/Pb.sol\":2354:2375  (b & 0x7F) << (i * 7) */\n      swap1\n      shl\n        /* \"contracts/libraries/Pb.sol\":2349:2375  v |= (b & 0x7F) << (i * 7) */\n      dup6\n      or\n      swap5\n      pop\n        /* \"contracts/libraries/Pb.sol\":2393:2394  b */\n      dup2\n        /* \"contracts/libraries/Pb.sol\":2397:2401  0x80 */\n      0x80\n        /* \"contracts/libraries/Pb.sol\":2393:2401  b & 0x80 */\n      and\n        /* \"contracts/libraries/Pb.sol\":2405:2406  0 */\n      0x00\n        /* \"contracts/libraries/Pb.sol\":2393:2406  b & 0x80 == 0 */\n      eq\n        /* \"contracts/libraries/Pb.sol\":2389:2483  if (b & 0x80 == 0) {... */\n      iszero\n      tag_179\n      jumpi\n        /* \"contracts/libraries/Pb.sol\":2437:2442  i + 1 */\n      tag_180\n        /* \"contracts/libraries/Pb.sol\":2437:2438  i */\n      dup2\n        /* \"contracts/libraries/Pb.sol\":2441:2442  1 */\n      0x01\n        /* \"contracts/libraries/Pb.sol\":2437:2442  i + 1 */\n      tag_181\n      jump\t// in\n    tag_180:\n        /* \"contracts/libraries/Pb.sol\":2426:2442  buf.idx += i + 1 */\n      dup7\n      mload\n        /* \"contracts/libraries/Pb.sol\":2426:2429  buf */\n      dup8\n      swap1\n        /* \"contracts/libraries/Pb.sol\":2426:2442  buf.idx += i + 1 */\n      tag_182\n      swap1\n      dup4\n      swap1\n      tag_181\n      jump\t// in\n    tag_182:\n      swap1\n      mstore\n      pop\n        /* \"contracts/libraries/Pb.sol\":2460:2468  return v */\n      tag_167\n      swap4\n      pop\n      pop\n      pop\n      pop\n      jump\n        /* \"contracts/libraries/Pb.sol\":2389:2483  if (b & 0x80 == 0) {... */\n    tag_179:\n        /* \"contracts/libraries/Pb.sol\":2194:2197  ++i */\n      tag_183\n      dup2\n      tag_184\n      jump\t// in\n    tag_183:\n      swap1\n      pop\n        /* \"contracts/libraries/Pb.sol\":2173:2493  for (uint i=0; i<10; ++i) {... */\n      jump(tag_174)\n    tag_175:\n      pop\n        /* \"contracts/libraries/Pb.sol\":2502:2510  revert() */\n      0x00\n      dup1\n      revert\n        /* \"contracts/libraries/Pb.sol\":4059:4454  function skipValue(Buffer memory buf, WireType wire) internal pure {... */\n    tag_54:\n        /* \"contracts/libraries/Pb.sol\":4148:4163  WireType.Varint */\n      0x00\n        /* \"contracts/libraries/Pb.sol\":4140:4144  wire */\n      dup2\n        /* \"contracts/libraries/Pb.sol\":4140:4163  wire == WireType.Varint */\n      0x05\n      dup2\n      gt\n      iszero\n      tag_187\n      jumpi\n      mstore(0x00, shl(0xe0, 0x4e487b71))\n      mstore(0x04, 0x21)\n      revert(0x00, 0x24)\n    tag_187:\n      eq\n        /* \"contracts/libraries/Pb.sol\":4136:4423  if (wire == WireType.Varint) { decVarint(buf); }... */\n      iszero\n      tag_188\n      jumpi\n        /* \"contracts/libraries/Pb.sol\":4167:4181  decVarint(buf) */\n      tag_189\n        /* \"contracts/libraries/Pb.sol\":4177:4180  buf */\n      dup3\n        /* \"contracts/libraries/Pb.sol\":4167:4176  decVarint */\n      tag_48\n        /* \"contracts/libraries/Pb.sol\":4167:4181  decVarint(buf) */\n      jump\t// in\n    tag_189:\n      pop\n        /* \"contracts/libraries/Pb.sol\":4136:4423  if (wire == WireType.Varint) { decVarint(buf); }... */\n      jump(tag_197)\n    tag_188:\n        /* \"contracts/libraries/Pb.sol\":4210:4230  WireType.LengthDelim */\n      0x02\n        /* \"contracts/libraries/Pb.sol\":4202:4206  wire */\n      dup2\n        /* \"contracts/libraries/Pb.sol\":4202:4230  wire == WireType.LengthDelim */\n      0x05\n      dup2\n      gt\n      iszero\n      tag_192\n      jumpi\n      mstore(0x00, shl(0xe0, 0x4e487b71))\n      mstore(0x04, 0x21)\n      revert(0x00, 0x24)\n    tag_192:\n      eq\n        /* \"contracts/libraries/Pb.sol\":4198:4423  if (wire == WireType.LengthDelim) {... */\n      iszero\n      tag_1\n      jumpi\n        /* \"contracts/libraries/Pb.sol\":4246:4254  uint len */\n      0x00\n        /* \"contracts/libraries/Pb.sol\":4257:4271  decVarint(buf) */\n      tag_194\n        /* \"contracts/libraries/Pb.sol\":4267:4270  buf */\n      dup4\n        /* \"contracts/libraries/Pb.sol\":4257:4266  decVarint */\n      tag_48\n        /* \"contracts/libraries/Pb.sol\":4257:4271  decVarint(buf) */\n      jump\t// in\n    tag_194:\n        /* \"contracts/libraries/Pb.sol\":4246:4271  uint len = decVarint(buf) */\n      swap1\n      pop\n        /* \"contracts/libraries/Pb.sol\":4296:4299  len */\n      dup1\n        /* \"contracts/libraries/Pb.sol\":4285:4288  buf */\n      dup4\n        /* \"contracts/libraries/Pb.sol\":4285:4292  buf.idx */\n      0x00\n      add\n        /* \"contracts/libraries/Pb.sol\":4285:4299  buf.idx += len */\n      dup2\n      dup2\n      mload\n      tag_195\n      swap2\n      swap1\n      tag_181\n      jump\t// in\n    tag_195:\n      swap1\n      mstore\n      pop\n        /* \"contracts/libraries/Pb.sol\":4361:4366  buf.b */\n      0x20\n      dup4\n      add\n      mload\n        /* \"contracts/libraries/Pb.sol\":4361:4373  buf.b.length */\n      mload\n        /* \"contracts/libraries/Pb.sol\":4350:4357  buf.idx */\n      dup4\n      mload\n        /* \"contracts/libraries/Pb.sol\":4350:4373  buf.idx <= buf.b.length */\n      gt\n      iszero\n        /* \"contracts/libraries/Pb.sol\":4342:4374  require(buf.idx <= buf.b.length) */\n      tag_189\n      jumpi\n      0x00\n      dup1\n      revert\n        /* \"contracts/libraries/Pb.sol\":4198:4423  if (wire == WireType.LengthDelim) {... */\n    tag_197:\n        /* \"contracts/libraries/Pb.sol\":4059:4454  function skipValue(Buffer memory buf, WireType wire) internal pure {... */\n      pop\n      pop\n      jump\t// out\n        /* \"contracts/libraries/Pb.sol\":2606:3265  function decBytes(Buffer memory buf) internal pure returns (bytes memory b) {... */\n    tag_68:\n        /* \"contracts/libraries/Pb.sol\":2666:2680  bytes memory b */\n      0x60\n        /* \"contracts/libraries/Pb.sol\":2692:2700  uint len */\n      0x00\n        /* \"contracts/libraries/Pb.sol\":2703:2717  decVarint(buf) */\n      tag_199\n        /* \"contracts/libraries/Pb.sol\":2713:2716  buf */\n      dup4\n        /* \"contracts/libraries/Pb.sol\":2703:2712  decVarint */\n      tag_48\n        /* \"contracts/libraries/Pb.sol\":2703:2717  decVarint(buf) */\n      jump\t// in\n    tag_199:\n        /* \"contracts/libraries/Pb.sol\":2692:2717  uint len = decVarint(buf) */\n      swap1\n      pop\n        /* \"contracts/libraries/Pb.sol\":2727:2735  uint end */\n      0x00\n        /* \"contracts/libraries/Pb.sol\":2748:2751  len */\n      dup2\n        /* \"contracts/libraries/Pb.sol\":2738:2741  buf */\n      dup5\n        /* \"contracts/libraries/Pb.sol\":2738:2745  buf.idx */\n      0x00\n      add\n      mload\n        /* \"contracts/libraries/Pb.sol\":2738:2751  buf.idx + len */\n      tag_200\n      swap2\n      swap1\n      tag_181\n      jump\t// in\n    tag_200:\n        /* \"contracts/libraries/Pb.sol\":2727:2751  uint end = buf.idx + len */\n      swap1\n      pop\n        /* \"contracts/libraries/Pb.sol\":2776:2779  buf */\n      dup4\n        /* \"contracts/libraries/Pb.sol\":2776:2781  buf.b */\n      0x20\n      add\n      mload\n        /* \"contracts/libraries/Pb.sol\":2776:2788  buf.b.length */\n      mload\n        /* \"contracts/libraries/Pb.sol\":2769:2772  end */\n      dup2\n        /* \"contracts/libraries/Pb.sol\":2769:2788  end <= buf.b.length */\n      gt\n      iszero\n        /* \"contracts/libraries/Pb.sol\":2761:2789  require(end <= buf.b.length) */\n      tag_201\n      jumpi\n      0x00\n      dup1\n      revert\n    tag_201:\n        /* \"contracts/libraries/Pb.sol\":2832:2835  len */\n      dup2\n        /* \"contracts/libraries/Pb.sol\":2822:2836  new bytes(len) */\n      0xffffffffffffffff\n      dup2\n      gt\n      iszero\n      tag_202\n      jumpi\n      mstore(0x00, shl(0xe0, 0x4e487b71))\n      mstore(0x04, 0x41)\n      revert(0x00, 0x24)\n    tag_202:\n      mload(0x40)\n      swap1\n      dup1\n      dup3\n      mstore\n      dup1\n      0x1f\n      add\n      not(0x1f)\n      and\n      0x20\n      add\n      dup3\n      add\n      0x40\n      mstore\n      dup1\n      iszero\n      tag_203\n      jumpi\n      0x20\n      dup3\n      add\n      dup2\n      dup1\n      calldatasize\n      dup4\n      calldatacopy\n      add\n      swap1\n      pop\n    tag_203:\n      pop\n        /* \"contracts/libraries/Pb.sol\":2866:2871  buf.b */\n      0x20\n      dup1\n      dup7\n      add\n      mload\n        /* \"contracts/libraries/Pb.sol\":2961:2968  buf.idx */\n      dup7\n      mload\n        /* \"contracts/libraries/Pb.sol\":2818:2836  b = new bytes(len) */\n      swap3\n      swap6\n      pop\n        /* \"contracts/libraries/Pb.sol\":2866:2871  buf.b */\n      swap2\n        /* \"contracts/libraries/Pb.sol\":3011:3021  add(b, 32) */\n      dup2\n      dup7\n      add\n      swap2\n        /* \"contracts/libraries/Pb.sol\":3047:3076  add(add(bufB, 32), bufBStart) */\n      swap1\n      dup4\n      add\n      add\n        /* \"contracts/libraries/Pb.sol\":2846:2863  bytes memory bufB */\n      0x00\n        /* \"contracts/libraries/Pb.sol\":3095:3236  for (uint i=0; i<len; i+=32) {... */\n    tag_204:\n        /* \"contracts/libraries/Pb.sol\":3112:3115  len */\n      dup6\n        /* \"contracts/libraries/Pb.sol\":3110:3111  i */\n      dup2\n        /* \"contracts/libraries/Pb.sol\":3110:3115  i<len */\n      lt\n        /* \"contracts/libraries/Pb.sol\":3095:3236  for (uint i=0; i<len; i+=32) {... */\n      iszero\n      tag_205\n      jumpi\n        /* \"contracts/libraries/Pb.sol\":3193:3210  add(bufBStart, i) */\n      dup2\n      dup2\n      add\n        /* \"contracts/libraries/Pb.sol\":3187:3211  mload(add(bufBStart, i)) */\n      mload\n        /* \"contracts/libraries/Pb.sol\":3171:3185  add(bStart, i) */\n      dup4\n      dup3\n      add\n        /* \"contracts/libraries/Pb.sol\":3164:3212  mstore(add(bStart, i), mload(add(bufBStart, i))) */\n      mstore\n        /* \"contracts/libraries/Pb.sol\":3117:3122  i+=32 */\n      tag_207\n        /* \"contracts/libraries/Pb.sol\":3120:3122  32 */\n      0x20\n        /* \"contracts/libraries/Pb.sol\":3208:3209  i */\n      dup3\n        /* \"contracts/libraries/Pb.sol\":3117:3122  i+=32 */\n      tag_181\n      jump\t// in\n    tag_207:\n      swap1\n      pop\n        /* \"contracts/libraries/Pb.sol\":3095:3236  for (uint i=0; i<len; i+=32) {... */\n      jump(tag_204)\n    tag_205:\n      pop\n      pop\n      pop\n        /* \"contracts/libraries/Pb.sol\":3245:3258  buf.idx = end */\n      swap4\n      mstore\n      pop\n        /* \"contracts/libraries/Pb.sol\":2606:3265  function decBytes(Buffer memory buf) internal pure returns (bytes memory b) {... */\n      swap2\n      swap1\n      pop\n      jump\t// out\n    tag_56:\n      0x40\n      dup1\n      mload\n      0x0200\n      dup2\n      add\n      dup3\n      mstore\n      0x00\n      0x01c0\n      dup3\n      add\n      dup2\n      dup2\n      mstore\n      0x01e0\n      dup4\n      add\n      dup3\n      swap1\n      mstore\n      dup3\n      mstore\n      0x60\n      0x20\n      dup1\n      dup5\n      add\n      dup3\n      swap1\n      mstore\n      dup4\n      dup6\n      add\n      dup4\n      swap1\n      mstore\n      dup5\n      mload\n      dup1\n      dup7\n      add\n      swap1\n      swap6\n      mstore\n      dup3\n      dup6\n      mstore\n      dup5\n      add\n      swap2\n      swap1\n      swap2\n      mstore\n      dup2\n      add\n      swap2\n      swap1\n      swap2\n      mstore\n      0x80\n      dup2\n      add\n      tag_210\n      tag_147\n      jump\t// in\n    tag_210:\n      dup2\n      mstore\n      0x20\n      add\n      0x60\n      dup2\n      mstore\n      0x20\n      add\n      0x60\n      dup2\n      mstore\n      0x20\n      add\n      0x60\n      dup2\n      mstore\n      0x20\n      add\n      0x60\n      dup2\n      mstore\n      0x20\n      add\n      0x60\n      dup2\n      mstore\n      0x20\n      add\n      0x60\n      dup2\n      mstore\n      0x20\n      add\n      0x60\n      dup2\n      mstore\n      0x20\n      add\n      0x60\n      dup2\n      mstore\n      0x20\n      add\n      0x60\n      dup2\n      mstore\n      pop\n      swap1\n      jump\t// out\n    tag_147:\n      mload(0x40)\n      dup1\n      0x40\n      add\n      0x40\n      mstore\n      dup1\n      0x60\n      dup2\n      mstore\n      0x20\n      add\n      tag_211\n      mload(0x40)\n      dup1\n      0x40\n      add\n      0x40\n      mstore\n      dup1\n      and(0xffffffff, 0x00)\n      dup2\n      mstore\n      0x20\n      add\n      0x60\n      dup2\n      mstore\n      pop\n      swap1\n      jump\n    tag_211:\n      swap1\n      mstore\n      swap1\n      jump\t// out\n        /* \"#utility.yul\":14:980   */\n    tag_9:\n      0x00\n        /* \"#utility.yul\":135:137   */\n      0x20\n        /* \"#utility.yul\":123:132   */\n      dup3\n        /* \"#utility.yul\":114:121   */\n      dup5\n        /* \"#utility.yul\":110:133   */\n      sub\n        /* \"#utility.yul\":106:138   */\n      slt\n        /* \"#utility.yul\":103:105   */\n      iszero\n      tag_214\n      jumpi\n        /* \"#utility.yul\":156:162   */\n      dup1\n        /* \"#utility.yul\":148:154   */\n      dup2\n        /* \"#utility.yul\":141:163   */\n      revert\n        /* \"#utility.yul\":103:105   */\n    tag_214:\n        /* \"#utility.yul\":201:210   */\n      dup2\n        /* \"#utility.yul\":188:211   */\n      calldataload\n        /* \"#utility.yul\":230:248   */\n      0xffffffffffffffff\n        /* \"#utility.yul\":271:273   */\n      dup1\n        /* \"#utility.yul\":263:269   */\n      dup3\n        /* \"#utility.yul\":260:274   */\n      gt\n        /* \"#utility.yul\":257:259   */\n      iszero\n      tag_215\n      jumpi\n        /* \"#utility.yul\":292:298   */\n      dup3\n        /* \"#utility.yul\":284:290   */\n      dup4\n        /* \"#utility.yul\":277:299   */\n      revert\n        /* \"#utility.yul\":257:259   */\n    tag_215:\n        /* \"#utility.yul\":335:341   */\n      dup2\n        /* \"#utility.yul\":324:333   */\n      dup5\n        /* \"#utility.yul\":320:342   */\n      add\n        /* \"#utility.yul\":310:342   */\n      swap2\n      pop\n        /* \"#utility.yul\":380:387   */\n      dup5\n        /* \"#utility.yul\":373:377   */\n      0x1f\n        /* \"#utility.yul\":369:371   */\n      dup4\n        /* \"#utility.yul\":365:378   */\n      add\n        /* \"#utility.yul\":361:388   */\n      slt\n        /* \"#utility.yul\":351:353   */\n      tag_216\n      jumpi\n        /* \"#utility.yul\":407:413   */\n      dup3\n        /* \"#utility.yul\":399:405   */\n      dup4\n        /* \"#utility.yul\":392:414   */\n      revert\n        /* \"#utility.yul\":351:353   */\n    tag_216:\n        /* \"#utility.yul\":448:450   */\n      dup2\n        /* \"#utility.yul\":435:451   */\n      calldataload\n        /* \"#utility.yul\":470:472   */\n      dup2\n        /* \"#utility.yul\":466:468   */\n      dup2\n        /* \"#utility.yul\":463:473   */\n      gt\n        /* \"#utility.yul\":460:462   */\n      iszero\n      tag_218\n      jumpi\n        /* \"#utility.yul\":476:494   */\n      tag_218\n      tag_219\n      jump\t// in\n    tag_218:\n        /* \"#utility.yul\":551:553   */\n      0x40\n        /* \"#utility.yul\":545:554   */\n      mload\n        /* \"#utility.yul\":519:521   */\n      0x1f\n        /* \"#utility.yul\":605:618   */\n      dup3\n      add\n      not(0x1f)\n        /* \"#utility.yul\":601:623   */\n      swap1\n      dup2\n      and\n        /* \"#utility.yul\":625:627   */\n      0x3f\n        /* \"#utility.yul\":597:628   */\n      add\n        /* \"#utility.yul\":593:633   */\n      and\n        /* \"#utility.yul\":581:634   */\n      dup2\n      add\n      swap1\n        /* \"#utility.yul\":649:667   */\n      dup4\n      dup3\n      gt\n        /* \"#utility.yul\":669:691   */\n      dup2\n      dup4\n      lt\n        /* \"#utility.yul\":646:692   */\n      or\n        /* \"#utility.yul\":643:645   */\n      iszero\n      tag_221\n      jumpi\n        /* \"#utility.yul\":695:713   */\n      tag_221\n      tag_219\n      jump\t// in\n    tag_221:\n        /* \"#utility.yul\":735:745   */\n      dup2\n        /* \"#utility.yul\":731:733   */\n      0x40\n        /* \"#utility.yul\":724:746   */\n      mstore\n        /* \"#utility.yul\":770:772   */\n      dup3\n        /* \"#utility.yul\":762:768   */\n      dup2\n        /* \"#utility.yul\":755:773   */\n      mstore\n        /* \"#utility.yul\":810:817   */\n      dup8\n        /* \"#utility.yul\":805:807   */\n      0x20\n        /* \"#utility.yul\":800:802   */\n      dup5\n        /* \"#utility.yul\":796:798   */\n      dup8\n        /* \"#utility.yul\":792:803   */\n      add\n        /* \"#utility.yul\":788:808   */\n      add\n        /* \"#utility.yul\":785:818   */\n      gt\n        /* \"#utility.yul\":782:784   */\n      iszero\n      tag_222\n      jumpi\n        /* \"#utility.yul\":836:842   */\n      dup6\n        /* \"#utility.yul\":828:834   */\n      dup7\n        /* \"#utility.yul\":821:843   */\n      revert\n        /* \"#utility.yul\":782:784   */\n    tag_222:\n        /* \"#utility.yul\":897:899   */\n      dup3\n        /* \"#utility.yul\":892:894   */\n      0x20\n        /* \"#utility.yul\":888:890   */\n      dup7\n        /* \"#utility.yul\":884:895   */\n      add\n        /* \"#utility.yul\":879:881   */\n      0x20\n        /* \"#utility.yul\":871:877   */\n      dup4\n        /* \"#utility.yul\":867:882   */\n      add\n        /* \"#utility.yul\":854:900   */\n      calldatacopy\n        /* \"#utility.yul\":920:935   */\n      swap2\n      dup3\n      add\n        /* \"#utility.yul\":937:939   */\n      0x20\n        /* \"#utility.yul\":916:940   */\n      add\n        /* \"#utility.yul\":909:949   */\n      swap5\n      swap1\n      swap5\n      mstore\n        /* \"#utility.yul\":924:930   */\n      swap6\n        /* \"#utility.yul\":93:980   */\n      swap5\n      pop\n      pop\n      pop\n      pop\n      pop\n      jump\t// out\n        /* \"#utility.yul\":985:1460   */\n    tag_223:\n      0x00\n        /* \"#utility.yul\":1064:1069   */\n      dup2\n        /* \"#utility.yul\":1058:1070   */\n      mload\n        /* \"#utility.yul\":1091:1097   */\n      dup1\n        /* \"#utility.yul\":1086:1089   */\n      dup5\n        /* \"#utility.yul\":1079:1098   */\n      mstore\n        /* \"#utility.yul\":1116:1119   */\n      dup2\n        /* \"#utility.yul\":1128:1290   */\n    tag_225:\n        /* \"#utility.yul\":1142:1148   */\n      dup2\n        /* \"#utility.yul\":1139:1140   */\n      dup2\n        /* \"#utility.yul\":1136:1149   */\n      lt\n        /* \"#utility.yul\":1128:1290   */\n      iszero\n      tag_227\n      jumpi\n        /* \"#utility.yul\":1204:1208   */\n      0x20\n        /* \"#utility.yul\":1260:1273   */\n      dup2\n      dup6\n      add\n        /* \"#utility.yul\":1256:1278   */\n      dup2\n      add\n        /* \"#utility.yul\":1250:1279   */\n      mload\n        /* \"#utility.yul\":1232:1243   */\n      dup7\n      dup4\n      add\n        /* \"#utility.yul\":1228:1248   */\n      dup3\n      add\n        /* \"#utility.yul\":1221:1280   */\n      mstore\n        /* \"#utility.yul\":1157:1169   */\n      add\n        /* \"#utility.yul\":1128:1290   */\n      jump(tag_225)\n    tag_227:\n        /* \"#utility.yul\":1308:1314   */\n      dup2\n        /* \"#utility.yul\":1305:1306   */\n      dup2\n        /* \"#utility.yul\":1302:1315   */\n      gt\n        /* \"#utility.yul\":1299:1301   */\n      iszero\n      tag_228\n      jumpi\n        /* \"#utility.yul\":1374:1377   */\n      dup3\n        /* \"#utility.yul\":1367:1371   */\n      0x20\n        /* \"#utility.yul\":1358:1364   */\n      dup4\n        /* \"#utility.yul\":1353:1356   */\n      dup8\n        /* \"#utility.yul\":1349:1365   */\n      add\n        /* \"#utility.yul\":1345:1372   */\n      add\n        /* \"#utility.yul\":1338:1378   */\n      mstore\n        /* \"#utility.yul\":1299:1301   */\n    tag_228:\n      pop\n        /* \"#utility.yul\":1442:1444   */\n      0x1f\n        /* \"#utility.yul\":1421:1436   */\n      add\n      not(0x1f)\n        /* \"#utility.yul\":1417:1446   */\n      and\n        /* \"#utility.yul\":1408:1447   */\n      swap3\n      swap1\n      swap3\n      add\n        /* \"#utility.yul\":1449:1453   */\n      0x20\n        /* \"#utility.yul\":1404:1454   */\n      add\n      swap3\n        /* \"#utility.yul\":1034:1460   */\n      swap2\n      pop\n      pop\n      jump\t// out\n        /* \"#utility.yul\":1465:1834   */\n    tag_229:\n      0x00\n        /* \"#utility.yul\":1559:1564   */\n      dup2\n        /* \"#utility.yul\":1553:1565   */\n      mload\n        /* \"#utility.yul\":1586:1590   */\n      0x40\n        /* \"#utility.yul\":1581:1584   */\n      dup5\n        /* \"#utility.yul\":1574:1591   */\n      mstore\n        /* \"#utility.yul\":1612:1658   */\n      tag_231\n        /* \"#utility.yul\":1652:1656   */\n      0x40\n        /* \"#utility.yul\":1647:1650   */\n      dup6\n        /* \"#utility.yul\":1643:1657   */\n      add\n        /* \"#utility.yul\":1629:1641   */\n      dup3\n        /* \"#utility.yul\":1612:1658   */\n      tag_223\n      jump\t// in\n    tag_231:\n        /* \"#utility.yul\":1600:1658   */\n      swap1\n      pop\n        /* \"#utility.yul\":1706:1710   */\n      0x20\n        /* \"#utility.yul\":1699:1704   */\n      dup4\n        /* \"#utility.yul\":1695:1711   */\n      add\n        /* \"#utility.yul\":1689:1712   */\n      mload\n        /* \"#utility.yul\":1754:1757   */\n      dup5\n        /* \"#utility.yul\":1748:1752   */\n      dup3\n        /* \"#utility.yul\":1744:1758   */\n      sub\n        /* \"#utility.yul\":1737:1741   */\n      0x20\n        /* \"#utility.yul\":1732:1735   */\n      dup7\n        /* \"#utility.yul\":1728:1742   */\n      add\n        /* \"#utility.yul\":1721:1759   */\n      mstore\n        /* \"#utility.yul\":1775:1828   */\n      tag_232\n        /* \"#utility.yul\":1823:1827   */\n      dup3\n        /* \"#utility.yul\":1807:1821   */\n      dup3\n        /* \"#utility.yul\":1775:1828   */\n      tag_233\n      jump\t// in\n    tag_232:\n        /* \"#utility.yul\":1768:1828   */\n      swap6\n        /* \"#utility.yul\":1523:1834   */\n      swap5\n      pop\n      pop\n      pop\n      pop\n      pop\n      jump\t// out\n        /* \"#utility.yul\":1839:2112   */\n    tag_233:\n      0x00\n        /* \"#utility.yul\":1943:1953   */\n      0xffffffff\n        /* \"#utility.yul\":1935:1940   */\n      dup3\n        /* \"#utility.yul\":1929:1941   */\n      mload\n        /* \"#utility.yul\":1925:1954   */\n      and\n        /* \"#utility.yul\":1920:1923   */\n      dup4\n        /* \"#utility.yul\":1913:1955   */\n      mstore\n        /* \"#utility.yul\":2001:2005   */\n      0x20\n        /* \"#utility.yul\":1994:1999   */\n      dup3\n        /* \"#utility.yul\":1990:2006   */\n      add\n        /* \"#utility.yul\":1984:2007   */\n      mload\n        /* \"#utility.yul\":2039:2043   */\n      0x40\n        /* \"#utility.yul\":2032:2036   */\n      0x20\n        /* \"#utility.yul\":2027:2030   */\n      dup6\n        /* \"#utility.yul\":2023:2037   */\n      add\n        /* \"#utility.yul\":2016:2044   */\n      mstore\n        /* \"#utility.yul\":2060:2106   */\n      tag_235\n        /* \"#utility.yul\":2100:2104   */\n      0x40\n        /* \"#utility.yul\":2095:2098   */\n      dup6\n        /* \"#utility.yul\":2091:2105   */\n      add\n        /* \"#utility.yul\":2077:2089   */\n      dup3\n        /* \"#utility.yul\":2060:2106   */\n      tag_223\n      jump\t// in\n    tag_235:\n        /* \"#utility.yul\":2053:2106   */\n      swap5\n        /* \"#utility.yul\":1903:2112   */\n      swap4\n      pop\n      pop\n      pop\n      pop\n      jump\t// out\n        /* \"#utility.yul\":2434:2700   */\n    tag_32:\n      0x00\n        /* \"#utility.yul\":2621:2623   */\n      0x20\n        /* \"#utility.yul\":2610:2619   */\n      dup3\n        /* \"#utility.yul\":2603:2624   */\n      mstore\n        /* \"#utility.yul\":2641:2694   */\n      tag_241\n        /* \"#utility.yul\":2690:2692   */\n      0x20\n        /* \"#utility.yul\":2679:2688   */\n      dup4\n        /* \"#utility.yul\":2675:2693   */\n      add\n        /* \"#utility.yul\":2667:2673   */\n      dup5\n        /* \"#utility.yul\":2641:2694   */\n      tag_229\n      jump\t// in\n    tag_241:\n        /* \"#utility.yul\":2633:2694   */\n      swap4\n        /* \"#utility.yul\":2593:2700   */\n      swap3\n      pop\n      pop\n      pop\n      jump\t// out\n        /* \"#utility.yul\":2705:5419   */\n    tag_17:\n        /* \"#utility.yul\":2888:2890   */\n      0x20\n        /* \"#utility.yul\":2870:2891   */\n      dup1\n      dup3\n      mstore\n        /* \"#utility.yul\":2928:2941   */\n      dup3\n      mload\n        /* \"#utility.yul\":2233:2245   */\n      dup1\n      mload\n        /* \"#utility.yul\":2190:2208   */\n      0xffffffffffffffff\n        /* \"#utility.yul\":2229:2250   */\n      swap1\n      dup2\n      and\n        /* \"#utility.yul\":2943:2961   */\n      dup5\n      dup5\n      add\n        /* \"#utility.yul\":2217:2251   */\n      mstore\n        /* \"#utility.yul\":2293:2309   */\n      swap2\n      add\n        /* \"#utility.yul\":2287:2310   */\n      mload\n        /* \"#utility.yul\":2283:2315   */\n      and\n        /* \"#utility.yul\":2267:2281   */\n      0x40\n      dup3\n      add\n        /* \"#utility.yul\":2260:2316   */\n      mstore\n        /* \"#utility.yul\":2705:5419   */\n      0x00\n        /* \"#utility.yul\":3009:3011   */\n      0x20\n        /* \"#utility.yul\":3001:3007   */\n      dup4\n        /* \"#utility.yul\":2997:3012   */\n      add\n        /* \"#utility.yul\":2991:3013   */\n      mload\n        /* \"#utility.yul\":3032:3038   */\n      0x0200\n        /* \"#utility.yul\":3074:3076   */\n      dup1\n        /* \"#utility.yul\":3069:3071   */\n      0x60\n        /* \"#utility.yul\":3058:3067   */\n      dup6\n        /* \"#utility.yul\":3054:3072   */\n      add\n        /* \"#utility.yul\":3047:3077   */\n      mstore\n        /* \"#utility.yul\":3100:3151   */\n      tag_244\n        /* \"#utility.yul\":3146:3149   */\n      0x0220\n        /* \"#utility.yul\":3135:3144   */\n      dup6\n        /* \"#utility.yul\":3131:3150   */\n      add\n        /* \"#utility.yul\":3117:3129   */\n      dup4\n        /* \"#utility.yul\":3100:3151   */\n      tag_223\n      jump\t// in\n    tag_244:\n        /* \"#utility.yul\":3086:3151   */\n      swap2\n      pop\n        /* \"#utility.yul\":3200:3204   */\n      0x40\n        /* \"#utility.yul\":3192:3198   */\n      dup6\n        /* \"#utility.yul\":3188:3205   */\n      add\n        /* \"#utility.yul\":3182:3206   */\n      mload\n        /* \"#utility.yul\":3215:3269   */\n      tag_245\n        /* \"#utility.yul\":3264:3267   */\n      0x80\n        /* \"#utility.yul\":3253:3262   */\n      dup7\n        /* \"#utility.yul\":3249:3268   */\n      add\n        /* \"#utility.yul\":3233:3247   */\n      dup3\n        /* \"#utility.yul\":2403:2421   */\n      0xffffffffffffffff\n        /* \"#utility.yul\":2392:2422   */\n      and\n        /* \"#utility.yul\":2380:2423   */\n      swap1\n      mstore\n        /* \"#utility.yul\":2370:2429   */\n      jump\n        /* \"#utility.yul\":3215:3269   */\n    tag_245:\n      pop\n        /* \"#utility.yul\":3318:3320   */\n      0x60\n        /* \"#utility.yul\":3306:3321   */\n      dup6\n      add\n        /* \"#utility.yul\":3300:3322   */\n      mload\n        /* \"#utility.yul\":2233:2245   */\n      dup1\n      mload\n        /* \"#utility.yul\":2190:2208   */\n      0xffffffffffffffff\n        /* \"#utility.yul\":2229:2250   */\n      swap1\n      dup2\n      and\n        /* \"#utility.yul\":3390:3393   */\n      0xa0\n        /* \"#utility.yul\":3375:3394   */\n      dup8\n      add\n        /* \"#utility.yul\":2217:2251   */\n      mstore\n        /* \"#utility.yul\":2304:2308   */\n      0x20\n        /* \"#utility.yul\":2293:2309   */\n      dup3\n      add\n        /* \"#utility.yul\":2287:2310   */\n      mload\n        /* \"#utility.yul\":2283:2315   */\n      and\n        /* \"#utility.yul\":2267:2281   */\n      0xc0\n      dup7\n      add\n        /* \"#utility.yul\":2260:2316   */\n      mstore\n        /* \"#utility.yul\":3331:3395   */\n      pop\n        /* \"#utility.yul\":3444:3447   */\n      0x80\n        /* \"#utility.yul\":3436:3442   */\n      dup6\n        /* \"#utility.yul\":3432:3448   */\n      add\n        /* \"#utility.yul\":3426:3449   */\n      mload\n        /* \"#utility.yul\":3472:3474   */\n      0x1f\n        /* \"#utility.yul\":3468:3475   */\n      not\n        /* \"#utility.yul\":3540:3542   */\n      dup1\n        /* \"#utility.yul\":3528:3537   */\n      dup7\n        /* \"#utility.yul\":3520:3526   */\n      dup6\n        /* \"#utility.yul\":3516:3538   */\n      sub\n        /* \"#utility.yul\":3512:3543   */\n      add\n        /* \"#utility.yul\":3506:3509   */\n      0xe0\n        /* \"#utility.yul\":3495:3504   */\n      dup8\n        /* \"#utility.yul\":3491:3510   */\n      add\n        /* \"#utility.yul\":3484:3544   */\n      mstore\n        /* \"#utility.yul\":3567:3616   */\n      tag_247\n        /* \"#utility.yul\":3609:3615   */\n      dup5\n        /* \"#utility.yul\":3593:3607   */\n      dup4\n        /* \"#utility.yul\":3567:3616   */\n      tag_229\n      jump\t// in\n    tag_247:\n        /* \"#utility.yul\":3553:3616   */\n      swap4\n      pop\n        /* \"#utility.yul\":3665:3668   */\n      0xa0\n        /* \"#utility.yul\":3657:3663   */\n      dup8\n        /* \"#utility.yul\":3653:3669   */\n      add\n        /* \"#utility.yul\":3647:3670   */\n      mload\n        /* \"#utility.yul\":3625:3670   */\n      swap2\n      pop\n        /* \"#utility.yul\":3689:3692   */\n      0x0100\n        /* \"#utility.yul\":3756:3758   */\n      dup2\n        /* \"#utility.yul\":3744:3753   */\n      dup8\n        /* \"#utility.yul\":3736:3742   */\n      dup7\n        /* \"#utility.yul\":3732:3754   */\n      sub\n        /* \"#utility.yul\":3728:3759   */\n      add\n        /* \"#utility.yul\":3723:3725   */\n      dup2\n        /* \"#utility.yul\":3712:3721   */\n      dup9\n        /* \"#utility.yul\":3708:3726   */\n      add\n        /* \"#utility.yul\":3701:3760   */\n      mstore\n        /* \"#utility.yul\":3783:3823   */\n      tag_248\n        /* \"#utility.yul\":3816:3822   */\n      dup6\n        /* \"#utility.yul\":3800:3814   */\n      dup5\n        /* \"#utility.yul\":3783:3823   */\n      tag_223\n      jump\t// in\n    tag_248:\n        /* \"#utility.yul\":3769:3823   */\n      swap5\n      pop\n        /* \"#utility.yul\":3872:3876   */\n      0xc0\n        /* \"#utility.yul\":3864:3870   */\n      dup9\n        /* \"#utility.yul\":3860:3877   */\n      add\n        /* \"#utility.yul\":3854:3878   */\n      mload\n        /* \"#utility.yul\":3832:3878   */\n      swap3\n      pop\n        /* \"#utility.yul\":3897:3900   */\n      0x0120\n        /* \"#utility.yul\":3964:3966   */\n      dup3\n        /* \"#utility.yul\":3952:3961   */\n      dup9\n        /* \"#utility.yul\":3944:3950   */\n      dup8\n        /* \"#utility.yul\":3940:3962   */\n      sub\n        /* \"#utility.yul\":3936:3967   */\n      add\n        /* \"#utility.yul\":3931:3933   */\n      dup2\n        /* \"#utility.yul\":3920:3929   */\n      dup10\n        /* \"#utility.yul\":3916:3934   */\n      add\n        /* \"#utility.yul\":3909:3968   */\n      mstore\n        /* \"#utility.yul\":3991:4031   */\n      tag_249\n        /* \"#utility.yul\":4024:4030   */\n      dup7\n        /* \"#utility.yul\":4008:4022   */\n      dup6\n        /* \"#utility.yul\":3991:4031   */\n      tag_223\n      jump\t// in\n    tag_249:\n        /* \"#utility.yul\":3977:4031   */\n      swap6\n      pop\n        /* \"#utility.yul\":4080:4083   */\n      0xe0\n        /* \"#utility.yul\":4072:4078   */\n      dup10\n        /* \"#utility.yul\":4068:4084   */\n      add\n        /* \"#utility.yul\":4062:4085   */\n      mload\n        /* \"#utility.yul\":4040:4085   */\n      swap4\n      pop\n        /* \"#utility.yul\":4104:4107   */\n      0x0140\n        /* \"#utility.yul\":4171:4173   */\n      dup4\n        /* \"#utility.yul\":4159:4168   */\n      dup10\n        /* \"#utility.yul\":4151:4157   */\n      dup9\n        /* \"#utility.yul\":4147:4169   */\n      sub\n        /* \"#utility.yul\":4143:4174   */\n      add\n        /* \"#utility.yul\":4138:4140   */\n      dup2\n        /* \"#utility.yul\":4127:4136   */\n      dup11\n        /* \"#utility.yul\":4123:4141   */\n      add\n        /* \"#utility.yul\":4116:4175   */\n      mstore\n        /* \"#utility.yul\":4198:4238   */\n      tag_250\n        /* \"#utility.yul\":4231:4237   */\n      dup8\n        /* \"#utility.yul\":4215:4229   */\n      dup7\n        /* \"#utility.yul\":4198:4238   */\n      tag_223\n      jump\t// in\n    tag_250:\n        /* \"#utility.yul\":4184:4238   */\n      swap7\n      pop\n        /* \"#utility.yul\":4287:4289   */\n      dup3\n        /* \"#utility.yul\":4279:4285   */\n      dup11\n        /* \"#utility.yul\":4275:4290   */\n      add\n        /* \"#utility.yul\":4269:4291   */\n      mload\n        /* \"#utility.yul\":4247:4291   */\n      swap5\n      pop\n        /* \"#utility.yul\":4310:4313   */\n      0x0160\n        /* \"#utility.yul\":4300:4313   */\n      swap3\n      pop\n        /* \"#utility.yul\":4377:4379   */\n      dup4\n        /* \"#utility.yul\":4365:4374   */\n      dup10\n        /* \"#utility.yul\":4357:4363   */\n      dup9\n        /* \"#utility.yul\":4353:4375   */\n      sub\n        /* \"#utility.yul\":4349:4380   */\n      add\n        /* \"#utility.yul\":4344:4346   */\n      dup4\n        /* \"#utility.yul\":4333:4342   */\n      dup11\n        /* \"#utility.yul\":4329:4347   */\n      add\n        /* \"#utility.yul\":4322:4381   */\n      mstore\n        /* \"#utility.yul\":4404:4444   */\n      tag_251\n        /* \"#utility.yul\":4437:4443   */\n      dup8\n        /* \"#utility.yul\":4421:4435   */\n      dup7\n        /* \"#utility.yul\":4404:4444   */\n      tag_223\n      jump\t// in\n    tag_251:\n        /* \"#utility.yul\":4390:4444   */\n      swap7\n      pop\n        /* \"#utility.yul\":4493:4495   */\n      dup2\n        /* \"#utility.yul\":4485:4491   */\n      dup11\n        /* \"#utility.yul\":4481:4496   */\n      add\n        /* \"#utility.yul\":4475:4497   */\n      mload\n        /* \"#utility.yul\":4453:4497   */\n      swap5\n      pop\n        /* \"#utility.yul\":4516:4519   */\n      0x0180\n        /* \"#utility.yul\":4506:4519   */\n      swap2\n      pop\n        /* \"#utility.yul\":4583:4585   */\n      dup4\n        /* \"#utility.yul\":4571:4580   */\n      dup10\n        /* \"#utility.yul\":4563:4569   */\n      dup9\n        /* \"#utility.yul\":4559:4581   */\n      sub\n        /* \"#utility.yul\":4555:4586   */\n      add\n        /* \"#utility.yul\":4550:4552   */\n      dup3\n        /* \"#utility.yul\":4539:4548   */\n      dup11\n        /* \"#utility.yul\":4535:4553   */\n      add\n        /* \"#utility.yul\":4528:4587   */\n      mstore\n        /* \"#utility.yul\":4610:4650   */\n      tag_252\n        /* \"#utility.yul\":4643:4649   */\n      dup8\n        /* \"#utility.yul\":4627:4641   */\n      dup7\n        /* \"#utility.yul\":4610:4650   */\n      tag_223\n      jump\t// in\n    tag_252:\n        /* \"#utility.yul\":4596:4650   */\n      swap7\n      pop\n        /* \"#utility.yul\":4699:4701   */\n      dup1\n        /* \"#utility.yul\":4691:4697   */\n      dup11\n        /* \"#utility.yul\":4687:4702   */\n      add\n        /* \"#utility.yul\":4681:4703   */\n      mload\n        /* \"#utility.yul\":4659:4703   */\n      swap5\n      pop\n      pop\n        /* \"#utility.yul\":4722:4725   */\n      0x01a0\n        /* \"#utility.yul\":4789:4791   */\n      dup4\n        /* \"#utility.yul\":4777:4786   */\n      dup10\n        /* \"#utility.yul\":4769:4775   */\n      dup9\n        /* \"#utility.yul\":4765:4787   */\n      sub\n        /* \"#utility.yul\":4761:4792   */\n      add\n        /* \"#utility.yul\":4756:4758   */\n      dup2\n        /* \"#utility.yul\":4745:4754   */\n      dup11\n        /* \"#utility.yul\":4741:4759   */\n      add\n        /* \"#utility.yul\":4734:4793   */\n      mstore\n        /* \"#utility.yul\":4816:4856   */\n      tag_253\n        /* \"#utility.yul\":4849:4855   */\n      dup8\n        /* \"#utility.yul\":4833:4847   */\n      dup7\n        /* \"#utility.yul\":4816:4856   */\n      tag_223\n      jump\t// in\n    tag_253:\n        /* \"#utility.yul\":4802:4856   */\n      swap7\n      pop\n        /* \"#utility.yul\":4906:4908   */\n      dup3\n        /* \"#utility.yul\":4898:4904   */\n      dup11\n        /* \"#utility.yul\":4894:4909   */\n      add\n        /* \"#utility.yul\":4888:4910   */\n      mload\n        /* \"#utility.yul\":4865:4910   */\n      swap5\n      pop\n        /* \"#utility.yul\":4975:4977   */\n      dup4\n        /* \"#utility.yul\":4963:4972   */\n      dup10\n        /* \"#utility.yul\":4955:4961   */\n      dup9\n        /* \"#utility.yul\":4951:4973   */\n      sub\n        /* \"#utility.yul\":4947:4978   */\n      add\n        /* \"#utility.yul\":4941:4944   */\n      0x01c0\n        /* \"#utility.yul\":4930:4939   */\n      dup11\n        /* \"#utility.yul\":4926:4945   */\n      add\n        /* \"#utility.yul\":4919:4979   */\n      mstore\n        /* \"#utility.yul\":5002:5043   */\n      tag_254\n        /* \"#utility.yul\":5036:5042   */\n      dup8\n        /* \"#utility.yul\":5019:5034   */\n      dup7\n        /* \"#utility.yul\":5002:5043   */\n      tag_223\n      jump\t// in\n    tag_254:\n        /* \"#utility.yul\":4988:5043   */\n      swap7\n      pop\n        /* \"#utility.yul\":5093:5095   */\n      dup2\n        /* \"#utility.yul\":5085:5091   */\n      dup11\n        /* \"#utility.yul\":5081:5096   */\n      add\n        /* \"#utility.yul\":5075:5097   */\n      mload\n        /* \"#utility.yul\":5052:5097   */\n      swap5\n      pop\n        /* \"#utility.yul\":5162:5164   */\n      dup4\n        /* \"#utility.yul\":5150:5159   */\n      dup10\n        /* \"#utility.yul\":5142:5148   */\n      dup9\n        /* \"#utility.yul\":5138:5160   */\n      sub\n        /* \"#utility.yul\":5134:5165   */\n      add\n        /* \"#utility.yul\":5128:5131   */\n      0x01e0\n        /* \"#utility.yul\":5117:5126   */\n      dup11\n        /* \"#utility.yul\":5113:5132   */\n      add\n        /* \"#utility.yul\":5106:5166   */\n      mstore\n        /* \"#utility.yul\":5190:5231   */\n      tag_255\n        /* \"#utility.yul\":5224:5230   */\n      dup8\n        /* \"#utility.yul\":5207:5222   */\n      dup7\n        /* \"#utility.yul\":5190:5231   */\n      tag_223\n      jump\t// in\n    tag_255:\n        /* \"#utility.yul\":5175:5231   */\n      swap7\n      pop\n        /* \"#utility.yul\":5281:5283   */\n      dup1\n        /* \"#utility.yul\":5273:5279   */\n      dup11\n        /* \"#utility.yul\":5269:5284   */\n      add\n        /* \"#utility.yul\":5263:5285   */\n      mload\n        /* \"#utility.yul\":5240:5285   */\n      swap5\n      pop\n      pop\n      pop\n      pop\n        /* \"#utility.yul\":5350:5352   */\n      dup1\n        /* \"#utility.yul\":5338:5347   */\n      dup7\n        /* \"#utility.yul\":5329:5336   */\n      dup6\n        /* \"#utility.yul\":5325:5348   */\n      sub\n        /* \"#utility.yul\":5321:5353   */\n      add\n        /* \"#utility.yul\":5316:5318   */\n      dup4\n        /* \"#utility.yul\":5305:5314   */\n      dup8\n        /* \"#utility.yul\":5301:5319   */\n      add\n        /* \"#utility.yul\":5294:5354   */\n      mstore\n      pop\n        /* \"#utility.yul\":5371:5413   */\n      tag_256\n        /* \"#utility.yul\":5405:5412   */\n      dup4\n        /* \"#utility.yul\":5388:5403   */\n      dup3\n        /* \"#utility.yul\":5371:5413   */\n      tag_223\n      jump\t// in\n    tag_256:\n        /* \"#utility.yul\":5363:5413   */\n      swap7\n        /* \"#utility.yul\":2860:5419   */\n      swap6\n      pop\n      pop\n      pop\n      pop\n      pop\n      pop\n      jump\t// out\n        /* \"#utility.yul\":5424:5708   */\n    tag_22:\n      0x00\n        /* \"#utility.yul\":5623:5625   */\n      0x20\n        /* \"#utility.yul\":5612:5621   */\n      dup3\n        /* \"#utility.yul\":5605:5626   */\n      mstore\n        /* \"#utility.yul\":5643:5702   */\n      tag_241\n        /* \"#utility.yul\":5698:5700   */\n      0x20\n        /* \"#utility.yul\":5687:5696   */\n      dup4\n        /* \"#utility.yul\":5683:5701   */\n      add\n        /* \"#utility.yul\":5675:5681   */\n      dup5\n        /* \"#utility.yul\":5643:5702   */\n      tag_233\n      jump\t// in\n        /* \"#utility.yul\":5713:5973   */\n    tag_12:\n        /* \"#utility.yul\":5909:5911   */\n      0x40\n        /* \"#utility.yul\":5894:5912   */\n      dup2\n      add\n        /* \"#utility.yul\":5921:5967   */\n      tag_260\n        /* \"#utility.yul\":5898:5907   */\n      dup3\n        /* \"#utility.yul\":5949:5955   */\n      dup5\n        /* \"#utility.yul\":2233:2245   */\n      dup1\n      mload\n        /* \"#utility.yul\":2190:2208   */\n      0xffffffffffffffff\n        /* \"#utility.yul\":2229:2250   */\n      swap1\n      dup2\n      and\n        /* \"#utility.yul\":2217:2251   */\n      dup4\n      mstore\n        /* \"#utility.yul\":2304:2308   */\n      0x20\n        /* \"#utility.yul\":2293:2309   */\n      swap2\n      dup3\n      add\n        /* \"#utility.yul\":2287:2310   */\n      mload\n        /* \"#utility.yul\":2283:2315   */\n      and\n        /* \"#utility.yul\":2267:2281   */\n      swap2\n      add\n        /* \"#utility.yul\":2260:2316   */\n      mstore\n        /* \"#utility.yul\":2170:2322   */\n      jump\n        /* \"#utility.yul\":5921:5967   */\n    tag_260:\n        /* \"#utility.yul\":5876:5973   */\n      swap3\n      swap2\n      pop\n      pop\n      jump\t// out\n        /* \"#utility.yul\":6239:6367   */\n    tag_181:\n      0x00\n        /* \"#utility.yul\":6310:6311   */\n      dup3\n        /* \"#utility.yul\":6306:6312   */\n      not\n        /* \"#utility.yul\":6303:6304   */\n      dup3\n        /* \"#utility.yul\":6300:6313   */\n      gt\n        /* \"#utility.yul\":6297:6299   */\n      iszero\n      tag_265\n      jumpi\n        /* \"#utility.yul\":6316:6334   */\n      tag_265\n      tag_266\n      jump\t// in\n    tag_265:\n      pop\n        /* \"#utility.yul\":6352:6361   */\n      add\n      swap1\n        /* \"#utility.yul\":6287:6367   */\n      jump\t// out\n        /* \"#utility.yul\":6372:6589   */\n    tag_171:\n      0x00\n        /* \"#utility.yul\":6438:6439   */\n      dup3\n        /* \"#utility.yul\":6428:6430   */\n      tag_268\n      jumpi\n      shl(0xe0, 0x4e487b71)\n        /* \"#utility.yul\":6463:6494   */\n      dup2\n      mstore\n        /* \"#utility.yul\":6517:6521   */\n      0x12\n        /* \"#utility.yul\":6514:6515   */\n      0x04\n        /* \"#utility.yul\":6507:6522   */\n      mstore\n        /* \"#utility.yul\":6545:6549   */\n      0x24\n        /* \"#utility.yul\":6470:6471   */\n      dup2\n        /* \"#utility.yul\":6535:6550   */\n      revert\n        /* \"#utility.yul\":6428:6430   */\n    tag_268:\n      pop\n        /* \"#utility.yul\":6574:6583   */\n      div\n      swap1\n        /* \"#utility.yul\":6418:6589   */\n      jump\t// out\n        /* \"#utility.yul\":6594:6762   */\n    tag_178:\n      0x00\n        /* \"#utility.yul\":6700:6701   */\n      dup2\n        /* \"#utility.yul\":6696:6697   */\n      0x00\n        /* \"#utility.yul\":6692:6698   */\n      not\n        /* \"#utility.yul\":6688:6702   */\n      div\n        /* \"#utility.yul\":6685:6686   */\n      dup4\n        /* \"#utility.yul\":6682:6703   */\n      gt\n        /* \"#utility.yul\":6677:6678   */\n      dup3\n        /* \"#utility.yul\":6670:6679   */\n      iszero\n        /* \"#utility.yul\":6663:6680   */\n      iszero\n        /* \"#utility.yul\":6659:6704   */\n      and\n        /* \"#utility.yul\":6656:6658   */\n      iszero\n      tag_271\n      jumpi\n        /* \"#utility.yul\":6707:6725   */\n      tag_271\n      tag_266\n      jump\t// in\n    tag_271:\n      pop\n        /* \"#utility.yul\":6747:6756   */\n      mul\n      swap1\n        /* \"#utility.yul\":6646:6762   */\n      jump\t// out\n        /* \"#utility.yul\":6767:6902   */\n    tag_184:\n      0x00\n      not(0x00)\n        /* \"#utility.yul\":6827:6844   */\n      dup3\n      eq\n        /* \"#utility.yul\":6824:6826   */\n      iszero\n      tag_274\n      jumpi\n        /* \"#utility.yul\":6847:6865   */\n      tag_274\n      tag_266\n      jump\t// in\n    tag_274:\n      pop\n        /* \"#utility.yul\":6894:6895   */\n      0x01\n        /* \"#utility.yul\":6883:6896   */\n      add\n      swap1\n        /* \"#utility.yul\":6814:6902   */\n      jump\t// out\n        /* \"#utility.yul\":6907:7034   */\n    tag_266:\n        /* \"#utility.yul\":6968:6978   */\n      0x4e487b71\n        /* \"#utility.yul\":6963:6966   */\n      0xe0\n        /* \"#utility.yul\":6959:6979   */\n      shl\n        /* \"#utility.yul\":6956:6957   */\n      0x00\n        /* \"#utility.yul\":6949:6980   */\n      mstore\n        /* \"#utility.yul\":6999:7003   */\n      0x11\n        /* \"#utility.yul\":6996:6997   */\n      0x04\n        /* \"#utility.yul\":6989:7004   */\n      mstore\n        /* \"#utility.yul\":7023:7027   */\n      0x24\n        /* \"#utility.yul\":7020:7021   */\n      0x00\n        /* \"#utility.yul\":7013:7028   */\n      revert\n        /* \"#utility.yul\":7039:7166   */\n    tag_219:\n        /* \"#utility.yul\":7100:7110   */\n      0x4e487b71\n        /* \"#utility.yul\":7095:7098   */\n      0xe0\n        /* \"#utility.yul\":7091:7111   */\n      shl\n        /* \"#utility.yul\":7088:7089   */\n      0x00\n        /* \"#utility.yul\":7081:7112   */\n      mstore\n        /* \"#utility.yul\":7131:7135   */\n      0x41\n        /* \"#utility.yul\":7128:7129   */\n      0x04\n        /* \"#utility.yul\":7121:7136   */\n      mstore\n        /* \"#utility.yul\":7155:7159   */\n      0x24\n        /* \"#utility.yul\":7152:7153   */\n      0x00\n        /* \"#utility.yul\":7145:7160   */\n      revert\n\n    auxdata: 0xa2646970667358221220c20a59a3034415e443954a884ecf5599a45348667ce75a4851d17c25c4acaf5264736f6c63430008020033\n}\n",
				"bytecode": {
					"linkReferences": {},
					"object": "610ca161003a600b82828239805160001a60731461002d57634e487b7160e01b600052600060045260246000fd5b30600052607381538281f3fe73000000000000000000000000000000000000000030146080604052600436106100615760003560e01c8063028927d5146100665780638e86ed991461008f578063a6f571a5146100af578063bc1c6bd6146100cf578063f9de4e57146100e2575b600080fd5b61007961007436600461085f565b610102565b6040516100869190610ba2565b60405180910390f35b6100a261009d36600461085f565b6101a9565b60405161008691906109d2565b6100c26100bd36600461085f565b610392565b6040516100869190610b8f565b6100796100dd36600461085f565b610432565b6100f56100f036600461085f565b6104d1565b60405161008691906109b8565b6040805180820182526000808252602080830182905283518085019094528184528301849052909190805b61013683610554565b156101a15761014483610563565b9092509050816001141561016c5761015b836105ab565b67ffffffffffffffff16845261019c565b81600214156101925761017e836105ab565b67ffffffffffffffff16602085015261019c565b61019c838261062b565b61012d565b505050919050565b6101b161078e565b60408051808201909152600080825260208201849052805b6101d283610554565b156101a1576101e083610563565b90925090508160011415610201576101fa6100dd846106c3565b845261038d565b816002141561021d57610213836106c3565b602085015261038d565b81600314156102435761022f836105ab565b67ffffffffffffffff16604085015261038d565b816004141561026257610258610074846106c3565b606085015261038d565b8160051415610281576102776100f0846106c3565b608085015261038d565b816006141561029d57610293836106c3565b60a085015261038d565b81600714156102b9576102af836106c3565b60c085015261038d565b81600814156102d5576102cb836106c3565b60e085015261038d565b81600914156102f2576102e7836106c3565b61010085015261038d565b81600a141561030f57610304836106c3565b61012085015261038d565b81600b141561032c57610321836106c3565b61014085015261038d565b81600c14156103495761033e836106c3565b61016085015261038d565b81600d14156103665761035b836106c3565b61018085015261038d565b81600e141561038357610378836106c3565b6101a085015261038d565b61038d838261062b565b6101c9565b60408051808201909152600081526060602082015260006103c6836040805180820190915260008152602081019190915290565b90506000805b6103d583610554565b156101a1576103e383610563565b90925090508160011415610407576103fa836105ab565b63ffffffff16845261042d565b816002141561042357610419836106c3565b602085015261042d565b61042d838261062b565b6103cc565b6040805180820182526000808252602080830182905283518085019094528184528301849052909190805b61046683610554565b156101a15761047483610563565b9092509050816001141561049c5761048b836105ab565b67ffffffffffffffff1684526104cc565b81600214156104c2576104ae836105ab565b67ffffffffffffffff1660208501526104cc565b6104cc838261062b565b61045d565b6104d9610825565b60408051808201909152600080825260208201849052805b6104fa83610554565b156101a15761050883610563565b909250905081600114156105265761051f836106c3565b845261054f565b81600214156105455761053b6100bd846106c3565b602085015261054f565b61054f838261062b565b6104f1565b6020810151518151105b919050565b6000806000610571846105ab565b905061057e600882610be5565b92508060071660058111156105a357634e487b7160e01b600052602160045260246000fd5b915050915091565b602080820151825181019091015160009182805b600a8110156106255783811a91506105d8816007610c05565b82607f16901b851794508160801660001415610615576105f9816001610bcd565b86518790610608908390610bcd565b90525061055e9350505050565b61061e81610c24565b90506105bf565b50600080fd5b600081600581111561064d57634e487b7160e01b600052602160045260246000fd5b14156106625761065c826105ab565b506106bf565b600281600581111561068457634e487b7160e01b600052602160045260246000fd5b1415610061576000610695836105ab565b905080836000018181516106a99190610bcd565b9052506020830151518351111561065c57600080fd5b5050565b606060006106d0836105ab565b905060008184600001516106e49190610bcd565b90508360200151518111156106f857600080fd5b8167ffffffffffffffff81111561071f57634e487b7160e01b600052604160045260246000fd5b6040519080825280601f01601f191660200182016040528015610749576020820181803683370190505b50602080860151865192955091818601919083010160005b8581101561078357818101518382015261077c602082610bcd565b9050610761565b505050935250919050565b604080516102008101825260006101c082018181526101e083018290528252606060208084018290528385018390528451808601909552828552840191909152810191909152608081016107e0610825565b81526020016060815260200160608152602001606081526020016060815260200160608152602001606081526020016060815260200160608152602001606081525090565b60405180604001604052806060815260200161085a6040518060400160405280600063ffffffff168152602001606081525090565b905290565b600060208284031215610870578081fd5b813567ffffffffffffffff80821115610887578283fd5b818401915084601f83011261089a578283fd5b8135818111156108ac576108ac610c55565b604051601f8201601f19908116603f011681019083821181831017156108d4576108d4610c55565b816040528281528760208487010111156108ec578586fd5b826020860160208301379182016020019490945295945050505050565b60008151808452815b8181101561092e57602081850181015186830182015201610912565b8181111561093f5782602083870101525b50601f01601f19169290920160200192915050565b60008151604084526109696040850182610909565b905060208301518482036020860152610982828261098b565b95945050505050565b600063ffffffff82511683526020820151604060208501526109b06040850182610909565b949350505050565b6000602082526109cb6020830184610954565b9392505050565b60208082528251805167ffffffffffffffff9081168484015291015116604082015260006020830151610200806060850152610a12610220850183610909565b91506040850151610a2f608086018267ffffffffffffffff169052565b506060850151805167ffffffffffffffff90811660a087015260208201511660c0860152506080850151601f19808685030160e0870152610a708483610954565b935060a08701519150610100818786030181880152610a8f8584610909565b945060c08801519250610120828887030181890152610aae8685610909565b955060e089015193506101408389880301818a0152610acd8786610909565b9650828a0151945061016092508389880301838a0152610aed8786610909565b9650818a0151945061018091508389880301828a0152610b0d8786610909565b9650808a01519450506101a08389880301818a0152610b2c8786610909565b9650828a0151945083898803016101c08a0152610b498786610909565b9650818a0151945083898803016101e08a0152610b668786610909565b9650808a0151945050505080868503018387015250610b858382610909565b9695505050505050565b6000602082526109cb602083018461098b565b60408101610bc78284805167ffffffffffffffff908116835260209182015116910152565b92915050565b60008219821115610be057610be0610c3f565b500190565b600082610c0057634e487b7160e01b81526012600452602481fd5b500490565b6000816000190483118215151615610c1f57610c1f610c3f565b500290565b6000600019821415610c3857610c38610c3f565b5060010190565b634e487b7160e01b600052601160045260246000fd5b634e487b7160e01b600052604160045260246000fdfea2646970667358221220c20a59a3034415e443954a884ecf5599a45348667ce75a4851d17c25c4acaf5264736f6c63430008020033",
					"opcodes": "PUSH2 0xCA1 PUSH2 0x3A PUSH1 0xB DUP3 DUP3 DUP3 CODECOPY DUP1 MLOAD PUSH1 0x0 BYTE PUSH1 0x73 EQ PUSH2 0x2D JUMPI PUSH4 0x4E487B71 PUSH1 0xE0 SHL PUSH1 0x0 MSTORE PUSH1 0x0 PUSH1 0x4 MSTORE PUSH1 0x24 PUSH1 0x0 REVERT JUMPDEST ADDRESS PUSH1 0x0 MSTORE PUSH1 0x73 DUP2 MSTORE8 DUP3 DUP2 RETURN INVALID PUSH20 0x0 ADDRESS EQ PUSH1 0x80 PUSH1 0x40 MSTORE PUSH1 0x4 CALLDATASIZE LT PUSH2 0x61 JUMPI PUSH1 0x0 CALLDATALOAD PUSH1 0xE0 SHR DUP1 PUSH4 0x28927D5 EQ PUSH2 0x66 JUMPI DUP1 PUSH4 0x8E86ED99 EQ PUSH2 0x8F JUMPI DUP1 PUSH4 0xA6F571A5 EQ PUSH2 0xAF JUMPI DUP1 PUSH4 0xBC1C6BD6 EQ PUSH2 0xCF JUMPI DUP1 PUSH4 0xF9DE4E57 EQ PUSH2 0xE2 JUMPI JUMPDEST PUSH1 0x0 DUP1 REVERT JUMPDEST PUSH2 0x79 PUSH2 0x74 CALLDATASIZE PUSH1 0x4 PUSH2 0x85F JUMP JUMPDEST PUSH2 0x102 JUMP JUMPDEST PUSH1 0x40 MLOAD PUSH2 0x86 SWAP2 SWAP1 PUSH2 0xBA2 JUMP JUMPDEST PUSH1 0x40 MLOAD DUP1 SWAP2 SUB SWAP1 RETURN JUMPDEST PUSH2 0xA2 PUSH2 0x9D CALLDATASIZE PUSH1 0x4 PUSH2 0x85F JUMP JUMPDEST PUSH2 0x1A9 JUMP JUMPDEST PUSH1 0x40 MLOAD PUSH2 0x86 SWAP2 SWAP1 PUSH2 0x9D2 JUMP JUMPDEST PUSH2 0xC2 PUSH2 0xBD CALLDATASIZE PUSH1 0x4 PUSH2 0x85F JUMP JUMPDEST PUSH2 0x392 JUMP JUMPDEST PUSH1 0x40 MLOAD PUSH2 0x86 SWAP2 SWAP1 PUSH2 0xB8F JUMP JUMPDEST PUSH2 0x79 PUSH2 0xDD CALLDATASIZE PUSH1 0x4 PUSH2 0x85F JUMP JUMPDEST PUSH2 0x432 JUMP JUMPDEST PUSH2 0xF5 PUSH2 0xF0 CALLDATASIZE PUSH1 0x4 PUSH2 0x85F JUMP JUMPDEST PUSH2 0x4D1 JUMP JUMPDEST PUSH1 0x40 MLOAD PUSH2 0x86 SWAP2 SWAP1 PUSH2 0x9B8 JUMP JUMPDEST PUSH1 0x40 DUP1 MLOAD DUP1 DUP3 ADD DUP3 MSTORE PUSH1 0x0 DUP1 DUP3 MSTORE PUSH1 0x20 DUP1 DUP4 ADD DUP3 SWAP1 MSTORE DUP4 MLOAD DUP1 DUP6 ADD SWAP1 SWAP5 MSTORE DUP2 DUP5 MSTORE DUP4 ADD DUP5 SWAP1 MSTORE SWAP1 SWAP2 SWAP1 DUP1 JUMPDEST PUSH2 0x136 DUP4 PUSH2 0x554 JUMP JUMPDEST ISZERO PUSH2 0x1A1 JUMPI PUSH2 0x144 DUP4 PUSH2 0x563 JUMP JUMPDEST SWAP1 SWAP3 POP SWAP1 POP DUP2 PUSH1 0x1 EQ ISZERO PUSH2 0x16C JUMPI PUSH2 0x15B DUP4 PUSH2 0x5AB JUMP JUMPDEST PUSH8 0xFFFFFFFFFFFFFFFF AND DUP5 MSTORE PUSH2 0x19C JUMP JUMPDEST DUP2 PUSH1 0x2 EQ ISZERO PUSH2 0x192 JUMPI PUSH2 0x17E DUP4 PUSH2 0x5AB JUMP JUMPDEST PUSH8 0xFFFFFFFFFFFFFFFF AND PUSH1 0x20 DUP6 ADD MSTORE PUSH2 0x19C JUMP JUMPDEST PUSH2 0x19C DUP4 DUP3 PUSH2 0x62B JUMP JUMPDEST PUSH2 0x12D JUMP JUMPDEST POP POP POP SWAP2 SWAP1 POP JUMP JUMPDEST PUSH2 0x1B1 PUSH2 0x78E JUMP JUMPDEST PUSH1 0x40 DUP1 MLOAD DUP1 DUP3 ADD SWAP1 SWAP2 MSTORE PUSH1 0x0 DUP1 DUP3 MSTORE PUSH1 0x20 DUP3 ADD DUP5 SWAP1 MSTORE DUP1 JUMPDEST PUSH2 0x1D2 DUP4 PUSH2 0x554 JUMP JUMPDEST ISZERO PUSH2 0x1A1 JUMPI PUSH2 0x1E0 DUP4 PUSH2 0x563 JUMP JUMPDEST SWAP1 SWAP3 POP SWAP1 POP DUP2 PUSH1 0x1 EQ ISZERO PUSH2 0x201 JUMPI PUSH2 0x1FA PUSH2 0xDD DUP5 PUSH2 0x6C3 JUMP JUMPDEST DUP5 MSTORE PUSH2 0x38D JUMP JUMPDEST DUP2 PUSH1 0x2 EQ ISZERO PUSH2 0x21D JUMPI PUSH2 0x213 DUP4 PUSH2 0x6C3 JUMP JUMPDEST PUSH1 0x20 DUP6 ADD MSTORE PUSH2 0x38D JUMP JUMPDEST DUP2 PUSH1 0x3 EQ ISZERO PUSH2 0x243 JUMPI PUSH2 0x22F DUP4 PUSH2 0x5AB JUMP JUMPDEST PUSH8 0xFFFFFFFFFFFFFFFF AND PUSH1 0x40 DUP6 ADD MSTORE PUSH2 0x38D JUMP JUMPDEST DUP2 PUSH1 0x4 EQ ISZERO PUSH2 0x262 JUMPI PUSH2 0x258 PUSH2 0x74 DUP5 PUSH2 0x6C3 JUMP JUMPDEST PUSH1 0x60 DUP6 ADD MSTORE PUSH2 0x38D JUMP JUMPDEST DUP2 PUSH1 0x5 EQ ISZERO PUSH2 0x281 JUMPI PUSH2 0x277 PUSH2 0xF0 DUP5 PUSH2 0x6C3 JUMP JUMPDEST PUSH1 0x80 DUP6 ADD MSTORE PUSH2 0x38D JUMP JUMPDEST DUP2 PUSH1 0x6 EQ ISZERO PUSH2 0x29D JUMPI PUSH2 0x293 DUP4 PUSH2 0x6C3 JUMP JUMPDEST PUSH1 0xA0 DUP6 ADD MSTORE PUSH2 0x38D JUMP JUMPDEST DUP2 PUSH1 0x7 EQ ISZERO PUSH2 0x2B9 JUMPI PUSH2 0x2AF DUP4 PUSH2 0x6C3 JUMP JUMPDEST PUSH1 0xC0 DUP6 ADD MSTORE PUSH2 0x38D JUMP JUMPDEST DUP2 PUSH1 0x8 EQ ISZERO PUSH2 0x2D5 JUMPI PUSH2 0x2CB DUP4 PUSH2 0x6C3 JUMP JUMPDEST PUSH1 0xE0 DUP6 ADD MSTORE PUSH2 0x38D JUMP JUMPDEST DUP2 PUSH1 0x9 EQ ISZERO PUSH2 0x2F2 JUMPI PUSH2 0x2E7 DUP4 PUSH2 0x6C3 JUMP JUMPDEST PUSH2 0x100 DUP6 ADD MSTORE PUSH2 0x38D JUMP JUMPDEST DUP2 PUSH1 0xA EQ ISZERO PUSH2 0x30F JUMPI PUSH2 0x304 DUP4 PUSH2 0x6C3 JUMP JUMPDEST PUSH2 0x120 DUP6 ADD MSTORE PUSH2 0x38D JUMP JUMPDEST DUP2 PUSH1 0xB EQ ISZERO PUSH2 0x32C JUMPI PUSH2 0x321 DUP4 PUSH2 0x6C3 JUMP JUMPDEST PUSH2 0x140 DUP6 ADD MSTORE PUSH2 0x38D JUMP JUMPDEST DUP2 PUSH1 0xC EQ ISZERO PUSH2 0x349 JUMPI PUSH2 0x33E DUP4 PUSH2 0x6C3 JUMP JUMPDEST PUSH2 0x160 DUP6 ADD MSTORE PUSH2 0x38D JUMP JUMPDEST DUP2 PUSH1 0xD EQ ISZERO PUSH2 0x366 JUMPI PUSH2 0x35B DUP4 PUSH2 0x6C3 JUMP JUMPDEST PUSH2 0x180 DUP6 ADD MSTORE PUSH2 0x38D JUMP JUMPDEST DUP2 PUSH1 0xE EQ ISZERO PUSH2 0x383 JUMPI PUSH2 0x378 DUP4 PUSH2 0x6C3 JUMP JUMPDEST PUSH2 0x1A0 DUP6 ADD MSTORE PUSH2 0x38D JUMP JUMPDEST PUSH2 0x38D DUP4 DUP3 PUSH2 0x62B JUMP JUMPDEST PUSH2 0x1C9 JUMP JUMPDEST PUSH1 0x40 DUP1 MLOAD DUP1 DUP3 ADD SWAP1 SWAP2 MSTORE PUSH1 0x0 DUP2 MSTORE PUSH1 0x60 PUSH1 0x20 DUP3 ADD MSTORE PUSH1 0x0 PUSH2 0x3C6 DUP4 PUSH1 0x40 DUP1 MLOAD DUP1 DUP3 ADD SWAP1 SWAP2 MSTORE PUSH1 0x0 DUP2 MSTORE PUSH1 0x20 DUP2 ADD SWAP2 SWAP1 SWAP2 MSTORE SWAP1 JUMP JUMPDEST SWAP1 POP PUSH1 0x0 DUP1 JUMPDEST PUSH2 0x3D5 DUP4 PUSH2 0x554 JUMP JUMPDEST ISZERO PUSH2 0x1A1 JUMPI PUSH2 0x3E3 DUP4 PUSH2 0x563 JUMP JUMPDEST SWAP1 SWAP3 POP SWAP1 POP DUP2 PUSH1 0x1 EQ ISZERO PUSH2 0x407 JUMPI PUSH2 0x3FA DUP4 PUSH2 0x5AB JUMP JUMPDEST PUSH4 0xFFFFFFFF AND DUP5 MSTORE PUSH2 0x42D JUMP JUMPDEST DUP2 PUSH1 0x2 EQ ISZERO PUSH2 0x423 JUMPI PUSH2 0x419 DUP4 PUSH2 0x6C3 JUMP JUMPDEST PUSH1 0x20 DUP6 ADD MSTORE PUSH2 0x42D JUMP JUMPDEST PUSH2 0x42D DUP4 DUP3 PUSH2 0x62B JUMP JUMPDEST PUSH2 0x3CC JUMP JUMPDEST PUSH1 0x40 DUP1 MLOAD DUP1 DUP3 ADD DUP3 MSTORE PUSH1 0x0 DUP1 DUP3 MSTORE PUSH1 0x20 DUP1 DUP4 ADD DUP3 SWAP1 MSTORE DUP4 MLOAD DUP1 DUP6 ADD SWAP1 SWAP5 MSTORE DUP2 DUP5 MSTORE DUP4 ADD DUP5 SWAP1 MSTORE SWAP1 SWAP2 SWAP1 DUP1 JUMPDEST PUSH2 0x466 DUP4 PUSH2 0x554 JUMP JUMPDEST ISZERO PUSH2 0x1A1 JUMPI PUSH2 0x474 DUP4 PUSH2 0x563 JUMP JUMPDEST SWAP1 SWAP3 POP SWAP1 POP DUP2 PUSH1 0x1 EQ ISZERO PUSH2 0x49C JUMPI PUSH2 0x48B DUP4 PUSH2 0x5AB JUMP JUMPDEST PUSH8 0xFFFFFFFFFFFFFFFF AND DUP5 MSTORE PUSH2 0x4CC JUMP JUMPDEST DUP2 PUSH1 0x2 EQ ISZERO PUSH2 0x4C2 JUMPI PUSH2 0x4AE DUP4 PUSH2 0x5AB JUMP JUMPDEST PUSH8 0xFFFFFFFFFFFFFFFF AND PUSH1 0x20 DUP6 ADD MSTORE PUSH2 0x4CC JUMP JUMPDEST PUSH2 0x4CC DUP4 DUP3 PUSH2 0x62B JUMP JUMPDEST PUSH2 0x45D JUMP JUMPDEST PUSH2 0x4D9 PUSH2 0x825 JUMP JUMPDEST PUSH1 0x40 DUP1 MLOAD DUP1 DUP3 ADD SWAP1 SWAP2 MSTORE PUSH1 0x0 DUP1 DUP3 MSTORE PUSH1 0x20 DUP3 ADD DUP5 SWAP1 MSTORE DUP1 JUMPDEST PUSH2 0x4FA DUP4 PUSH2 0x554 JUMP JUMPDEST ISZERO PUSH2 0x1A1 JUMPI PUSH2 0x508 DUP4 PUSH2 0x563 JUMP JUMPDEST SWAP1 SWAP3 POP SWAP1 POP DUP2 PUSH1 0x1 EQ ISZERO PUSH2 0x526 JUMPI PUSH2 0x51F DUP4 PUSH2 0x6C3 JUMP JUMPDEST DUP5 MSTORE PUSH2 0x54F JUMP JUMPDEST DUP2 PUSH1 0x2 EQ ISZERO PUSH2 0x545 JUMPI PUSH2 0x53B PUSH2 0xBD DUP5 PUSH2 0x6C3 JUMP JUMPDEST PUSH1 0x20 DUP6 ADD MSTORE PUSH2 0x54F JUMP JUMPDEST PUSH2 0x54F DUP4 DUP3 PUSH2 0x62B JUMP JUMPDEST PUSH2 0x4F1 JUMP JUMPDEST PUSH1 0x20 DUP2 ADD MLOAD MLOAD DUP2 MLOAD LT JUMPDEST SWAP2 SWAP1 POP JUMP JUMPDEST PUSH1 0x0 DUP1 PUSH1 0x0 PUSH2 0x571 DUP5 PUSH2 0x5AB JUMP JUMPDEST SWAP1 POP PUSH2 0x57E PUSH1 0x8 DUP3 PUSH2 0xBE5 JUMP JUMPDEST SWAP3 POP DUP1 PUSH1 0x7 AND PUSH1 0x5 DUP2 GT ISZERO PUSH2 0x5A3 JUMPI PUSH4 0x4E487B71 PUSH1 0xE0 SHL PUSH1 0x0 MSTORE PUSH1 0x21 PUSH1 0x4 MSTORE PUSH1 0x24 PUSH1 0x0 REVERT JUMPDEST SWAP2 POP POP SWAP2 POP SWAP2 JUMP JUMPDEST PUSH1 0x20 DUP1 DUP3 ADD MLOAD DUP3 MLOAD DUP2 ADD SWAP1 SWAP2 ADD MLOAD PUSH1 0x0 SWAP2 DUP3 DUP1 JUMPDEST PUSH1 0xA DUP2 LT ISZERO PUSH2 0x625 JUMPI DUP4 DUP2 BYTE SWAP2 POP PUSH2 0x5D8 DUP2 PUSH1 0x7 PUSH2 0xC05 JUMP JUMPDEST DUP3 PUSH1 0x7F AND SWAP1 SHL DUP6 OR SWAP5 POP DUP2 PUSH1 0x80 AND PUSH1 0x0 EQ ISZERO PUSH2 0x615 JUMPI PUSH2 0x5F9 DUP2 PUSH1 0x1 PUSH2 0xBCD JUMP JUMPDEST DUP7 MLOAD DUP8 SWAP1 PUSH2 0x608 SWAP1 DUP4 SWAP1 PUSH2 0xBCD JUMP JUMPDEST SWAP1 MSTORE POP PUSH2 0x55E SWAP4 POP POP POP POP JUMP JUMPDEST PUSH2 0x61E DUP2 PUSH2 0xC24 JUMP JUMPDEST SWAP1 POP PUSH2 0x5BF JUMP JUMPDEST POP PUSH1 0x0 DUP1 REVERT JUMPDEST PUSH1 0x0 DUP2 PUSH1 0x5 DUP2 GT ISZERO PUSH2 0x64D JUMPI PUSH4 0x4E487B71 PUSH1 0xE0 SHL PUSH1 0x0 MSTORE PUSH1 0x21 PUSH1 0x4 MSTORE PUSH1 0x24 PUSH1 0x0 REVERT JUMPDEST EQ ISZERO PUSH2 0x662 JUMPI PUSH2 0x65C DUP3 PUSH2 0x5AB JUMP JUMPDEST POP PUSH2 0x6BF JUMP JUMPDEST PUSH1 0x2 DUP2 PUSH1 0x5 DUP2 GT ISZERO PUSH2 0x684 JUMPI PUSH4 0x4E487B71 PUSH1 0xE0 SHL PUSH1 0x0 MSTORE PUSH1 0x21 PUSH1 0x4 MSTORE PUSH1 0x24 PUSH1 0x0 REVERT JUMPDEST EQ ISZERO PUSH2 0x61 JUMPI PUSH1 0x0 PUSH2 0x695 DUP4 PUSH2 0x5AB JUMP JUMPDEST SWAP1 POP DUP1 DUP4 PUSH1 0x0 ADD DUP2 DUP2 MLOAD PUSH2 0x6A9 SWAP2 SWAP1 PUSH2 0xBCD JUMP JUMPDEST SWAP1 MSTORE POP PUSH1 0x20 DUP4 ADD MLOAD MLOAD DUP4 MLOAD GT ISZERO PUSH2 0x65C JUMPI PUSH1 0x0 DUP1 REVERT JUMPDEST POP POP JUMP JUMPDEST PUSH1 0x60 PUSH1 0x0 PUSH2 0x6D0 DUP4 PUSH2 0x5AB JUMP JUMPDEST SWAP1 POP PUSH1 0x0 DUP2 DUP5 PUSH1 0x0 ADD MLOAD PUSH2 0x6E4 SWAP2 SWAP1 PUSH2 0xBCD JUMP JUMPDEST SWAP1 POP DUP4 PUSH1 0x20 ADD MLOAD MLOAD DUP2 GT ISZERO PUSH2 0x6F8 JUMPI PUSH1 0x0 DUP1 REVERT JUMPDEST DUP2 PUSH8 0xFFFFFFFFFFFFFFFF DUP2 GT ISZERO PUSH2 0x71F JUMPI PUSH4 0x4E487B71 PUSH1 0xE0 SHL PUSH1 0x0 MSTORE PUSH1 0x41 PUSH1 0x4 MSTORE PUSH1 0x24 PUSH1 0x0 REVERT JUMPDEST PUSH1 0x40 MLOAD SWAP1 DUP1 DUP3 MSTORE DUP1 PUSH1 0x1F ADD PUSH1 0x1F NOT AND PUSH1 0x20 ADD DUP3 ADD PUSH1 0x40 MSTORE DUP1 ISZERO PUSH2 0x749 JUMPI PUSH1 0x20 DUP3 ADD DUP2 DUP1 CALLDATASIZE DUP4 CALLDATACOPY ADD SWAP1 POP JUMPDEST POP PUSH1 0x20 DUP1 DUP7 ADD MLOAD DUP7 MLOAD SWAP3 SWAP6 POP SWAP2 DUP2 DUP7 ADD SWAP2 SWAP1 DUP4 ADD ADD PUSH1 0x0 JUMPDEST DUP6 DUP2 LT ISZERO PUSH2 0x783 JUMPI DUP2 DUP2 ADD MLOAD DUP4 DUP3 ADD MSTORE PUSH2 0x77C PUSH1 0x20 DUP3 PUSH2 0xBCD JUMP JUMPDEST SWAP1 POP PUSH2 0x761 JUMP JUMPDEST POP POP POP SWAP4 MSTORE POP SWAP2 SWAP1 POP JUMP JUMPDEST PUSH1 0x40 DUP1 MLOAD PUSH2 0x200 DUP2 ADD DUP3 MSTORE PUSH1 0x0 PUSH2 0x1C0 DUP3 ADD DUP2 DUP2 MSTORE PUSH2 0x1E0 DUP4 ADD DUP3 SWAP1 MSTORE DUP3 MSTORE PUSH1 0x60 PUSH1 0x20 DUP1 DUP5 ADD DUP3 SWAP1 MSTORE DUP4 DUP6 ADD DUP4 SWAP1 MSTORE DUP5 MLOAD DUP1 DUP7 ADD SWAP1 SWAP6 MSTORE DUP3 DUP6 MSTORE DUP5 ADD SWAP2 SWAP1 SWAP2 MSTORE DUP2 ADD SWAP2 SWAP1 SWAP2 MSTORE PUSH1 0x80 DUP2 ADD PUSH2 0x7E0 PUSH2 0x825 JUMP JUMPDEST DUP2 MSTORE PUSH1 0x20 ADD PUSH1 0x60 DUP2 MSTORE PUSH1 0x20 ADD PUSH1 0x60 DUP2 MSTORE PUSH1 0x20 ADD PUSH1 0x60 DUP2 MSTORE PUSH1 0x20 ADD PUSH1 0x60 DUP2 MSTORE PUSH1 0x20 ADD PUSH1 0x60 DUP2 MSTORE PUSH1 0x20 ADD PUSH1 0x60 DUP2 MSTORE PUSH1 0x20 ADD PUSH1 0x60 DUP2 MSTORE PUSH1 0x20 ADD PUSH1 0x60 DUP2 MSTORE PUSH1 0x20 ADD PUSH1 0x60 DUP2 MSTORE POP SWAP1 JUMP JUMPDEST PUSH1 0x40 MLOAD DUP1 PUSH1 0x40 ADD PUSH1 0x40 MSTORE DUP1 PUSH1 0x60 DUP2 MSTORE PUSH1 0x20 ADD PUSH2 0x85A PUSH1 0x40 MLOAD DUP1 PUSH1 0x40 ADD PUSH1 0x40 MSTORE DUP1 PUSH1 0x0 PUSH4 0xFFFFFFFF AND DUP2 MSTORE PUSH1 0x20 ADD PUSH1 0x60 DUP2 MSTORE POP SWAP1 JUMP JUMPDEST SWAP1 MSTORE SWAP1 JUMP JUMPDEST PUSH1 0x0 PUSH1 0x20 DUP3 DUP5 SUB SLT ISZERO PUSH2 0x870 JUMPI DUP1 DUP2 REVERT JUMPDEST DUP2 CALLDATALOAD PUSH8 0xFFFFFFFFFFFFFFFF DUP1 DUP3 GT ISZERO PUSH2 0x887 JUMPI DUP3 DUP4 REVERT JUMPDEST DUP2 DUP5 ADD SWAP2 POP DUP5 PUSH1 0x1F DUP4 ADD SLT PUSH2 0x89A JUMPI DUP3 DUP4 REVERT JUMPDEST DUP2 CALLDATALOAD DUP2 DUP2 GT ISZERO PUSH2 0x8AC JUMPI PUSH2 0x8AC PUSH2 0xC55 JUMP JUMPDEST PUSH1 0x40 MLOAD PUSH1 0x1F DUP3 ADD PUSH1 0x1F NOT SWAP1 DUP2 AND PUSH1 0x3F ADD AND DUP2 ADD SWAP1 DUP4 DUP3 GT DUP2 DUP4 LT OR ISZERO PUSH2 0x8D4 JUMPI PUSH2 0x8D4 PUSH2 0xC55 JUMP JUMPDEST DUP2 PUSH1 0x40 MSTORE DUP3 DUP2 MSTORE DUP8 PUSH1 0x20 DUP5 DUP8 ADD ADD GT ISZERO PUSH2 0x8EC JUMPI DUP6 DUP7 REVERT JUMPDEST DUP3 PUSH1 0x20 DUP7 ADD PUSH1 0x20 DUP4 ADD CALLDATACOPY SWAP2 DUP3 ADD PUSH1 0x20 ADD SWAP5 SWAP1 SWAP5 MSTORE SWAP6 SWAP5 POP POP POP POP POP JUMP JUMPDEST PUSH1 0x0 DUP2 MLOAD DUP1 DUP5 MSTORE DUP2 JUMPDEST DUP2 DUP2 LT ISZERO PUSH2 0x92E JUMPI PUSH1 0x20 DUP2 DUP6 ADD DUP2 ADD MLOAD DUP7 DUP4 ADD DUP3 ADD MSTORE ADD PUSH2 0x912 JUMP JUMPDEST DUP2 DUP2 GT ISZERO PUSH2 0x93F JUMPI DUP3 PUSH1 0x20 DUP4 DUP8 ADD ADD MSTORE JUMPDEST POP PUSH1 0x1F ADD PUSH1 0x1F NOT AND SWAP3 SWAP1 SWAP3 ADD PUSH1 0x20 ADD SWAP3 SWAP2 POP POP JUMP JUMPDEST PUSH1 0x0 DUP2 MLOAD PUSH1 0x40 DUP5 MSTORE PUSH2 0x969 PUSH1 0x40 DUP6 ADD DUP3 PUSH2 0x909 JUMP JUMPDEST SWAP1 POP PUSH1 0x20 DUP4 ADD MLOAD DUP5 DUP3 SUB PUSH1 0x20 DUP7 ADD MSTORE PUSH2 0x982 DUP3 DUP3 PUSH2 0x98B JUMP JUMPDEST SWAP6 SWAP5 POP POP POP POP POP JUMP JUMPDEST PUSH1 0x0 PUSH4 0xFFFFFFFF DUP3 MLOAD AND DUP4 MSTORE PUSH1 0x20 DUP3 ADD MLOAD PUSH1 0x40 PUSH1 0x20 DUP6 ADD MSTORE PUSH2 0x9B0 PUSH1 0x40 DUP6 ADD DUP3 PUSH2 0x909 JUMP JUMPDEST SWAP5 SWAP4 POP POP POP POP JUMP JUMPDEST PUSH1 0x0 PUSH1 0x20 DUP3 MSTORE PUSH2 0x9CB PUSH1 0x20 DUP4 ADD DUP5 PUSH2 0x954 JUMP JUMPDEST SWAP4 SWAP3 POP POP POP JUMP JUMPDEST PUSH1 0x20 DUP1 DUP3 MSTORE DUP3 MLOAD DUP1 MLOAD PUSH8 0xFFFFFFFFFFFFFFFF SWAP1 DUP2 AND DUP5 DUP5 ADD MSTORE SWAP2 ADD MLOAD AND PUSH1 0x40 DUP3 ADD MSTORE PUSH1 0x0 PUSH1 0x20 DUP4 ADD MLOAD PUSH2 0x200 DUP1 PUSH1 0x60 DUP6 ADD MSTORE PUSH2 0xA12 PUSH2 0x220 DUP6 ADD DUP4 PUSH2 0x909 JUMP JUMPDEST SWAP2 POP PUSH1 0x40 DUP6 ADD MLOAD PUSH2 0xA2F PUSH1 0x80 DUP7 ADD DUP3 PUSH8 0xFFFFFFFFFFFFFFFF AND SWAP1 MSTORE JUMP JUMPDEST POP PUSH1 0x60 DUP6 ADD MLOAD DUP1 MLOAD PUSH8 0xFFFFFFFFFFFFFFFF SWAP1 DUP2 AND PUSH1 0xA0 DUP8 ADD MSTORE PUSH1 0x20 DUP3 ADD MLOAD AND PUSH1 0xC0 DUP7 ADD MSTORE POP PUSH1 0x80 DUP6 ADD MLOAD PUSH1 0x1F NOT DUP1 DUP7 DUP6 SUB ADD PUSH1 0xE0 DUP8 ADD MSTORE PUSH2 0xA70 DUP5 DUP4 PUSH2 0x954 JUMP JUMPDEST SWAP4 POP PUSH1 0xA0 DUP8 ADD MLOAD SWAP2 POP PUSH2 0x100 DUP2 DUP8 DUP7 SUB ADD DUP2 DUP9 ADD MSTORE PUSH2 0xA8F DUP6 DUP5 PUSH2 0x909 JUMP JUMPDEST SWAP5 POP PUSH1 0xC0 DUP9 ADD MLOAD SWAP3 POP PUSH2 0x120 DUP3 DUP9 DUP8 SUB ADD DUP2 DUP10 ADD MSTORE PUSH2 0xAAE DUP7 DUP6 PUSH2 0x909 JUMP JUMPDEST SWAP6 POP PUSH1 0xE0 DUP10 ADD MLOAD SWAP4 POP PUSH2 0x140 DUP4 DUP10 DUP9 SUB ADD DUP2 DUP11 ADD MSTORE PUSH2 0xACD DUP8 DUP7 PUSH2 0x909 JUMP JUMPDEST SWAP7 POP DUP3 DUP11 ADD MLOAD SWAP5 POP PUSH2 0x160 SWAP3 POP DUP4 DUP10 DUP9 SUB ADD DUP4 DUP11 ADD MSTORE PUSH2 0xAED DUP8 DUP7 PUSH2 0x909 JUMP JUMPDEST SWAP7 POP DUP2 DUP11 ADD MLOAD SWAP5 POP PUSH2 0x180 SWAP2 POP DUP4 DUP10 DUP9 SUB ADD DUP3 DUP11 ADD MSTORE PUSH2 0xB0D DUP8 DUP7 PUSH2 0x909 JUMP JUMPDEST SWAP7 POP DUP1 DUP11 ADD MLOAD SWAP5 POP POP PUSH2 0x1A0 DUP4 DUP10 DUP9 SUB ADD DUP2 DUP11 ADD MSTORE PUSH2 0xB2C DUP8 DUP7 PUSH2 0x909 JUMP JUMPDEST SWAP7 POP DUP3 DUP11 ADD MLOAD SWAP5 POP DUP4 DUP10 DUP9 SUB ADD PUSH2 0x1C0 DUP11 ADD MSTORE PUSH2 0xB49 DUP8 DUP7 PUSH2 0x909 JUMP JUMPDEST SWAP7 POP DUP2 DUP11 ADD MLOAD SWAP5 POP DUP4 DUP10 DUP9 SUB ADD PUSH2 0x1E0 DUP11 ADD MSTORE PUSH2 0xB66 DUP8 DUP7 PUSH2 0x909 JUMP JUMPDEST SWAP7 POP DUP1 DUP11 ADD MLOAD SWAP5 POP POP POP POP DUP1 DUP7 DUP6 SUB ADD DUP4 DUP8 ADD MSTORE POP PUSH2 0xB85 DUP4 DUP3 PUSH2 0x909 JUMP JUMPDEST SWAP7 SWAP6 POP POP POP POP POP POP JUMP JUMPDEST PUSH1 0x0 PUSH1 0x20 DUP3 MSTORE PUSH2 0x9CB PUSH1 0x20 DUP4 ADD DUP5 PUSH2 0x98B JUMP JUMPDEST PUSH1 0x40 DUP2 ADD PUSH2 0xBC7 DUP3 DUP5 DUP1 MLOAD PUSH8 0xFFFFFFFFFFFFFFFF SWAP1 DUP2 AND DUP4 MSTORE PUSH1 0x20 SWAP2 DUP3 ADD MLOAD AND SWAP2 ADD MSTORE JUMP JUMPDEST SWAP3 SWAP2 POP POP JUMP JUMPDEST PUSH1 0x0 DUP3 NOT DUP3 GT ISZERO PUSH2 0xBE0 JUMPI PUSH2 0xBE0 PUSH2 0xC3F JUMP JUMPDEST POP ADD SWAP1 JUMP JUMPDEST PUSH1 0x0 DUP3 PUSH2 0xC00 JUMPI PUSH4 0x4E487B71 PUSH1 0xE0 SHL DUP2 MSTORE PUSH1 0x12 PUSH1 0x4 MSTORE PUSH1 0x24 DUP2 REVERT JUMPDEST POP DIV SWAP1 JUMP JUMPDEST PUSH1 0x0 DUP2 PUSH1 0x0 NOT DIV DUP4 GT DUP3 ISZERO ISZERO AND ISZERO PUSH2 0xC1F JUMPI PUSH2 0xC1F PUSH2 0xC3F JUMP JUMPDEST POP MUL SWAP1 JUMP JUMPDEST PUSH1 0x0 PUSH1 0x0 NOT DUP3 EQ ISZERO PUSH2 0xC38 JUMPI PUSH2 0xC38 PUSH2 0xC3F JUMP JUMPDEST POP PUSH1 0x1 ADD SWAP1 JUMP JUMPDEST PUSH4 0x4E487B71 PUSH1 0xE0 SHL PUSH1 0x0 MSTORE PUSH1 0x11 PUSH1 0x4 MSTORE PUSH1 0x24 PUSH1 0x0 REVERT JUMPDEST PUSH4 0x4E487B71 PUSH1 0xE0 SHL PUSH1 0x0 MSTORE PUSH1 0x41 PUSH1 0x4 MSTORE PUSH1 0x24 PUSH1 0x0 REVERT INVALID LOG2 PUSH5 0x6970667358 0x22 SLT KECCAK256 0xC2 EXP MSIZE LOG3 SUB DIFFICULTY ISZERO 0xE4 NUMBER SWAP6 0x4A DUP9 0x4E 0xCF SSTORE SWAP10 LOG4 MSTORE8 0x48 PUSH7 0x7CE75A4851D17C 0x25 0xC4 0xAC 0xAF MSTORE PUSH5 0x736F6C6343 STOP ADDMOD MUL STOP CALLER "
				},
				"gasEstimates": {
					"creation": {
						"codeDepositCost": "646600",
						"executionCost": "714",
						"totalCost": "647314"
					},
					"external": {
						"decBlockID(bytes)": "infinite",
						"decHeader(bytes)": "infinite",
						"decPartSetHeader(bytes)": "infinite",
						"decTimestamp(bytes)": "infinite",
						"decVersion(bytes)": "infinite"
					}
				},
				"methodIdentifiers": {
					"decBlockID(bytes)": "f9de4e57",
					"decHeader(bytes)": "8e86ed99",
					"decPartSetHeader(bytes)": "a6f571a5",
					"decTimestamp(bytes)": "028927d5",
					"decVersion(bytes)": "bc1c6bd6"
				}
			},
			"storageLayout": {
				"storage": [],
				"types": null
			},
			"userdoc": {
				"kind": "user",
				"methods": {},
				"version": 1
			}
		}
	}
}